{
	"contracts/Lock.sol": {
		"LuckyBall": {
			"abi": [
				{
					"inputs": [],
					"stateMutability": "nonpayable",
					"type": "constructor"
				},
				{
					"inputs": [],
					"name": "active",
					"outputs": [
						{
							"internalType": "bool",
							"name": "",
							"type": "bool"
						}
					],
					"stateMutability": "view",
					"type": "function"
				},
				{
					"inputs": [
						{
							"internalType": "uint64",
							"name": "",
							"type": "uint64"
						}
					],
					"name": "balls",
					"outputs": [
						{
							"internalType": "uint64",
							"name": "ballId",
							"type": "uint64"
						},
						{
							"internalType": "address",
							"name": "owner",
							"type": "address"
						},
						{
							"internalType": "uint256",
							"name": "seasonId",
							"type": "uint256"
						},
						{
							"internalType": "uint256",
							"name": "revealGroup",
							"type": "uint256"
						}
					],
					"stateMutability": "view",
					"type": "function"
				},
				{
					"inputs": [],
					"name": "endSeason",
					"outputs": [
						{
							"internalType": "uint256",
							"name": "",
							"type": "uint256"
						}
					],
					"stateMutability": "nonpayable",
					"type": "function"
				},
				{
					"inputs": [],
					"name": "getCurrentSeason",
					"outputs": [
						{
							"components": [
								{
									"internalType": "uint256",
									"name": "seasonId",
									"type": "uint256"
								},
								{
									"internalType": "uint64",
									"name": "startBallId",
									"type": "uint64"
								},
								{
									"internalType": "uint64",
									"name": "endBallId",
									"type": "uint64"
								},
								{
									"internalType": "uint64",
									"name": "winningCode",
									"type": "uint64"
								},
								{
									"internalType": "uint64",
									"name": "winningBallId",
									"type": "uint64"
								}
							],
							"internalType": "struct LuckyBall.Season",
							"name": "",
							"type": "tuple"
						}
					],
					"stateMutability": "nonpayable",
					"type": "function"
				},
				{
					"inputs": [],
					"name": "issueBalls",
					"outputs": [
						{
							"internalType": "bool",
							"name": "",
							"type": "bool"
						}
					],
					"stateMutability": "nonpayable",
					"type": "function"
				},
				{
					"inputs": [],
					"name": "requestWinningBallId",
					"outputs": [
						{
							"internalType": "bool",
							"name": "",
							"type": "bool"
						}
					],
					"stateMutability": "nonpayable",
					"type": "function"
				},
				{
					"inputs": [],
					"name": "requestWinningCode",
					"outputs": [
						{
							"internalType": "bool",
							"name": "",
							"type": "bool"
						}
					],
					"stateMutability": "nonpayable",
					"type": "function"
				},
				{
					"inputs": [
						{
							"internalType": "uint256",
							"name": "",
							"type": "uint256"
						}
					],
					"name": "revealGroupSeeds",
					"outputs": [
						{
							"internalType": "uint256",
							"name": "",
							"type": "uint256"
						}
					],
					"stateMutability": "view",
					"type": "function"
				},
				{
					"inputs": [
						{
							"internalType": "uint256",
							"name": "",
							"type": "uint256"
						}
					],
					"name": "revealPending",
					"outputs": [
						{
							"internalType": "uint64",
							"name": "",
							"type": "uint64"
						}
					],
					"stateMutability": "view",
					"type": "function"
				},
				{
					"inputs": [
						{
							"internalType": "uint256",
							"name": "",
							"type": "uint256"
						}
					],
					"name": "seasons",
					"outputs": [
						{
							"internalType": "uint256",
							"name": "seasonId",
							"type": "uint256"
						},
						{
							"internalType": "uint64",
							"name": "startBallId",
							"type": "uint64"
						},
						{
							"internalType": "uint64",
							"name": "endBallId",
							"type": "uint64"
						},
						{
							"internalType": "uint64",
							"name": "winningCode",
							"type": "uint64"
						},
						{
							"internalType": "uint64",
							"name": "winningBallId",
							"type": "uint64"
						}
					],
					"stateMutability": "view",
					"type": "function"
				},
				{
					"inputs": [],
					"name": "startSeason",
					"outputs": [
						{
							"internalType": "uint256",
							"name": "",
							"type": "uint256"
						}
					],
					"stateMutability": "nonpayable",
					"type": "function"
				},
				{
					"inputs": [
						{
							"internalType": "address",
							"name": "",
							"type": "address"
						},
						{
							"internalType": "uint256",
							"name": "",
							"type": "uint256"
						},
						{
							"internalType": "uint256",
							"name": "",
							"type": "uint256"
						}
					],
					"name": "userBalls",
					"outputs": [
						{
							"internalType": "uint64",
							"name": "",
							"type": "uint64"
						}
					],
					"stateMutability": "view",
					"type": "function"
				}
			],
			"devdoc": {
				"kind": "dev",
				"methods": {},
				"version": 1
			},
			"evm": {
				"assembly": "    /* \"contracts/Lock.sol\":1062:2507  contract LuckyBall {... */\n  mstore(0x40, 0x80)\n    /* \"contracts/Lock.sol\":1280:1285  false */\n  0x00\n    /* \"contracts/Lock.sol\":1259:1285  bool public active = false */\n  0x03\n  exp(0x0100, 0x00)\n  dup2\n  sload\n  dup2\n  0xff\n  mul\n  not\n  and\n  swap1\n  dup4\n  iszero\n  iszero\n  mul\n  or\n  swap1\n  sstore\n  pop\n    /* \"contracts/Lock.sol\":1623:1710  constructor() {... */\n  callvalue\n  dup1\n  iszero\n  tag_1\n  jumpi\n  0x00\n  dup1\n  revert\ntag_1:\n  pop\n    /* \"contracts/Lock.sol\":1647:1667  _ballIds.increment() */\n  tag_4\n    /* \"contracts/Lock.sol\":1647:1655  _ballIds */\n  0x00\n    /* \"contracts/Lock.sol\":1647:1665  _ballIds.increment */\n  or(tag_0_66, shl(0x20, tag_5))\n    /* \"contracts/Lock.sol\":1647:1667  _ballIds.increment() */\n  0x20\n  shr\n  jump\t// in\ntag_4:\n    /* \"contracts/Lock.sol\":1677:1702  _revealGroups.increment() */\n  tag_6\n    /* \"contracts/Lock.sol\":1677:1690  _revealGroups */\n  0x02\n    /* \"contracts/Lock.sol\":1677:1700  _revealGroups.increment */\n  or(tag_0_66, shl(0x20, tag_5))\n    /* \"contracts/Lock.sol\":1677:1702  _revealGroups.increment() */\n  0x20\n  shr\n  jump\t// in\ntag_6:\n    /* \"contracts/Lock.sol\":1062:2507  contract LuckyBall {... */\n  jump(tag_7)\n    /* \"@openzeppelin/contracts/utils/Counters.sol\":945:1068  function increment(Counter storage counter) internal {... */\ntag_5:\n    /* \"@openzeppelin/contracts/utils/Counters.sol\":1050:1051  1 */\n  0x01\n    /* \"@openzeppelin/contracts/utils/Counters.sol\":1032:1039  counter */\n  dup2\n    /* \"@openzeppelin/contracts/utils/Counters.sol\":1032:1046  counter._value */\n  0x00\n  add\n  0x00\n    /* \"@openzeppelin/contracts/utils/Counters.sol\":1032:1051  counter._value += 1 */\n  dup3\n  dup3\n  sload\n  add\n  swap3\n  pop\n  pop\n  dup2\n  swap1\n  sstore\n  pop\n    /* \"@openzeppelin/contracts/utils/Counters.sol\":945:1068  function increment(Counter storage counter) internal {... */\n  pop\n  jump\t// out\n    /* \"contracts/Lock.sol\":1062:2507  contract LuckyBall {... */\ntag_7:\n  dataSize(sub_0)\n  dup1\n  dataOffset(sub_0)\n  0x00\n  codecopy\n  0x00\n  return\nstop\n\nsub_0: assembly {\n        /* \"contracts/Lock.sol\":1062:2507  contract LuckyBall {... */\n      mstore(0x40, 0x80)\n      callvalue\n      dup1\n      iszero\n      tag_1\n      jumpi\n      0x00\n      dup1\n      revert\n    tag_1:\n      pop\n      jumpi(tag_2, lt(calldatasize, 0x04))\n      shr(0xe0, calldataload(0x00))\n      dup1\n      0xb29e60ef\n      gt\n      tag_15\n      jumpi\n      dup1\n      0xb29e60ef\n      eq\n      tag_9\n      jumpi\n      dup1\n      0xc419857f\n      eq\n      tag_10\n      jumpi\n      dup1\n      0xd3b30b75\n      eq\n      tag_11\n      jumpi\n      dup1\n      0xf2bdbc62\n      eq\n      tag_12\n      jumpi\n      dup1\n      0xf4225ee1\n      eq\n      tag_13\n      jumpi\n      dup1\n      0xf5d709a1\n      eq\n      tag_14\n      jumpi\n      jump(tag_2)\n    tag_15:\n      dup1\n      0x02fb0c5e\n      eq\n      tag_3\n      jumpi\n      dup1\n      0x0bd8a117\n      eq\n      tag_4\n      jumpi\n      dup1\n      0x3dcdb672\n      eq\n      tag_5\n      jumpi\n      dup1\n      0x4cd7184a\n      eq\n      tag_6\n      jumpi\n      dup1\n      0x63b6f065\n      eq\n      tag_7\n      jumpi\n      dup1\n      0x952a9633\n      eq\n      tag_8\n      jumpi\n    tag_2:\n      0x00\n      dup1\n      revert\n        /* \"contracts/Lock.sol\":1259:1285  bool public active = false */\n    tag_3:\n      tag_16\n      tag_17\n      jump\t// in\n    tag_16:\n      mload(0x40)\n      tag_18\n      swap2\n      swap1\n      tag_19\n      jump\t// in\n    tag_18:\n      mload(0x40)\n      dup1\n      swap2\n      sub\n      swap1\n      return\n        /* \"contracts/Lock.sol\":2027:2081  function issueBalls() external returns (bool) {... */\n    tag_4:\n      tag_20\n      tag_21\n      jump\t// in\n    tag_20:\n      mload(0x40)\n      tag_22\n      swap2\n      swap1\n      tag_19\n      jump\t// in\n    tag_22:\n      mload(0x40)\n      dup1\n      swap2\n      sub\n      swap1\n      return\n        /* \"contracts/Lock.sol\":2311:2367  function endSeason() external returns (uint256) {... */\n    tag_5:\n      tag_23\n      tag_24\n      jump\t// in\n    tag_23:\n      mload(0x40)\n      tag_25\n      swap2\n      swap1\n      tag_26\n      jump\t// in\n    tag_25:\n      mload(0x40)\n      dup1\n      swap2\n      sub\n      swap1\n      return\n        /* \"contracts/Lock.sol\":2373:2435  function requestWinningCode() external returns (bool) {... */\n    tag_6:\n      tag_27\n      tag_28\n      jump\t// in\n    tag_27:\n      mload(0x40)\n      tag_29\n      swap2\n      swap1\n      tag_19\n      jump\t// in\n    tag_29:\n      mload(0x40)\n      dup1\n      swap2\n      sub\n      swap1\n      return\n        /* \"contracts/Lock.sol\":1954:1990  mapping(uint64 => Ball) public balls */\n    tag_7:\n      tag_30\n      0x04\n      dup1\n      calldatasize\n      sub\n      dup2\n      add\n      swap1\n      tag_31\n      swap2\n      swap1\n      tag_32\n      jump\t// in\n    tag_31:\n      tag_33\n      jump\t// in\n    tag_30:\n      mload(0x40)\n      tag_34\n      swap5\n      swap4\n      swap3\n      swap2\n      swap1\n      tag_35\n      jump\t// in\n    tag_34:\n      mload(0x40)\n      dup1\n      swap2\n      sub\n      swap1\n      return\n        /* \"contracts/Lock.sol\":2087:2224  function startSeason() external returns (uint256) {... */\n    tag_8:\n      tag_36\n      tag_37\n      jump\t// in\n    tag_36:\n      mload(0x40)\n      tag_38\n      swap2\n      swap1\n      tag_26\n      jump\t// in\n    tag_38:\n      mload(0x40)\n      dup1\n      swap2\n      sub\n      swap1\n      return\n        /* \"contracts/Lock.sol\":1868:1919  mapping(uint256 => uint256) public revealGroupSeeds */\n    tag_9:\n      tag_39\n      0x04\n      dup1\n      calldatasize\n      sub\n      dup2\n      add\n      swap1\n      tag_40\n      swap2\n      swap1\n      tag_41\n      jump\t// in\n    tag_40:\n      tag_42\n      jump\t// in\n    tag_39:\n      mload(0x40)\n      tag_43\n      swap2\n      swap1\n      tag_26\n      jump\t// in\n    tag_43:\n      mload(0x40)\n      dup1\n      swap2\n      sub\n      swap1\n      return\n        /* \"contracts/Lock.sol\":2441:2505  function requestWinningBallId() external returns (bool) {... */\n    tag_10:\n      tag_44\n      tag_45\n      jump\t// in\n    tag_44:\n      mload(0x40)\n      tag_46\n      swap2\n      swap1\n      tag_19\n      jump\t// in\n    tag_46:\n      mload(0x40)\n      dup1\n      swap2\n      sub\n      swap1\n      return\n        /* \"contracts/Lock.sol\":2230:2305  function getCurrentSeason() public returns (Season memory) {... */\n    tag_11:\n      tag_47\n      tag_48\n      jump\t// in\n    tag_47:\n      mload(0x40)\n      tag_49\n      swap2\n      swap1\n      tag_50\n      jump\t// in\n    tag_49:\n      mload(0x40)\n      dup1\n      swap2\n      sub\n      swap1\n      return\n        /* \"contracts/Lock.sol\":1292:1321  uint64[] public revealPending */\n    tag_12:\n      tag_51\n      0x04\n      dup1\n      calldatasize\n      sub\n      dup2\n      add\n      swap1\n      tag_52\n      swap2\n      swap1\n      tag_41\n      jump\t// in\n    tag_52:\n      tag_53\n      jump\t// in\n    tag_51:\n      mload(0x40)\n      tag_54\n      swap2\n      swap1\n      tag_55\n      jump\t// in\n    tag_54:\n      mload(0x40)\n      dup1\n      swap2\n      sub\n      swap1\n      return\n        /* \"contracts/Lock.sol\":1764:1829  mapping(address => mapping(uint256 => uint64[])) public userBalls */\n    tag_13:\n      tag_56\n      0x04\n      dup1\n      calldatasize\n      sub\n      dup2\n      add\n      swap1\n      tag_57\n      swap2\n      swap1\n      tag_58\n      jump\t// in\n    tag_57:\n      tag_59\n      jump\t// in\n    tag_56:\n      mload(0x40)\n      tag_60\n      swap2\n      swap1\n      tag_55\n      jump\t// in\n    tag_60:\n      mload(0x40)\n      dup1\n      swap2\n      sub\n      swap1\n      return\n        /* \"contracts/Lock.sol\":1717:1758  mapping(uint256 => Season) public seasons */\n    tag_14:\n      tag_61\n      0x04\n      dup1\n      calldatasize\n      sub\n      dup2\n      add\n      swap1\n      tag_62\n      swap2\n      swap1\n      tag_41\n      jump\t// in\n    tag_62:\n      tag_63\n      jump\t// in\n    tag_61:\n      mload(0x40)\n      tag_64\n      swap6\n      swap5\n      swap4\n      swap3\n      swap2\n      swap1\n      tag_65\n      jump\t// in\n    tag_64:\n      mload(0x40)\n      dup1\n      swap2\n      sub\n      swap1\n      return\n        /* \"contracts/Lock.sol\":1259:1285  bool public active = false */\n    tag_17:\n      0x03\n      0x00\n      swap1\n      sload\n      swap1\n      0x0100\n      exp\n      swap1\n      div\n      0xff\n      and\n      dup2\n      jump\t// out\n        /* \"contracts/Lock.sol\":2027:2081  function issueBalls() external returns (bool) {... */\n    tag_21:\n        /* \"contracts/Lock.sol\":2067:2071  bool */\n      0x00\n        /* \"contracts/Lock.sol\":2027:2081  function issueBalls() external returns (bool) {... */\n      swap1\n      jump\t// out\n        /* \"contracts/Lock.sol\":2311:2367  function endSeason() external returns (uint256) {... */\n    tag_24:\n        /* \"contracts/Lock.sol\":2350:2357  uint256 */\n      0x00\n        /* \"contracts/Lock.sol\":2311:2367  function endSeason() external returns (uint256) {... */\n      swap1\n      jump\t// out\n        /* \"contracts/Lock.sol\":2373:2435  function requestWinningCode() external returns (bool) {... */\n    tag_28:\n        /* \"contracts/Lock.sol\":2421:2425  bool */\n      0x00\n        /* \"contracts/Lock.sol\":2373:2435  function requestWinningCode() external returns (bool) {... */\n      swap1\n      jump\t// out\n        /* \"contracts/Lock.sol\":1954:1990  mapping(uint64 => Ball) public balls */\n    tag_33:\n      mstore(0x20, 0x08)\n      dup1\n      0x00\n      mstore\n      keccak256(0x00, 0x40)\n      0x00\n      swap2\n      pop\n      swap1\n      pop\n      dup1\n      0x00\n      add\n      0x00\n      swap1\n      sload\n      swap1\n      0x0100\n      exp\n      swap1\n      div\n      0xffffffffffffffff\n      and\n      swap1\n      dup1\n      0x00\n      add\n      0x08\n      swap1\n      sload\n      swap1\n      0x0100\n      exp\n      swap1\n      div\n      0xffffffffffffffffffffffffffffffffffffffff\n      and\n      swap1\n      dup1\n      0x01\n      add\n      sload\n      swap1\n      dup1\n      0x02\n      add\n      sload\n      swap1\n      pop\n      dup5\n      jump\t// out\n        /* \"contracts/Lock.sol\":2087:2224  function startSeason() external returns (uint256) {... */\n    tag_37:\n        /* \"contracts/Lock.sol\":2128:2135  uint256 */\n      0x00\n        /* \"contracts/Lock.sol\":2147:2169  _seasonIds.increment() */\n      tag_71\n        /* \"contracts/Lock.sol\":2147:2157  _seasonIds */\n      0x01\n        /* \"contracts/Lock.sol\":2147:2167  _seasonIds.increment */\n      tag_66\n        /* \"contracts/Lock.sol\":2147:2169  _seasonIds.increment() */\n      jump\t// in\n    tag_71:\n        /* \"contracts/Lock.sol\":2195:2215  _seasonIds.current() */\n      tag_72\n        /* \"contracts/Lock.sol\":2195:2205  _seasonIds */\n      0x01\n        /* \"contracts/Lock.sol\":2195:2213  _seasonIds.current */\n      tag_73\n        /* \"contracts/Lock.sol\":2195:2215  _seasonIds.current() */\n      jump\t// in\n    tag_72:\n        /* \"contracts/Lock.sol\":2188:2215  return _seasonIds.current() */\n      swap1\n      pop\n        /* \"contracts/Lock.sol\":2087:2224  function startSeason() external returns (uint256) {... */\n      swap1\n      jump\t// out\n        /* \"contracts/Lock.sol\":1868:1919  mapping(uint256 => uint256) public revealGroupSeeds */\n    tag_42:\n      mstore(0x20, 0x07)\n      dup1\n      0x00\n      mstore\n      keccak256(0x00, 0x40)\n      0x00\n      swap2\n      pop\n      swap1\n      pop\n      sload\n      dup2\n      jump\t// out\n        /* \"contracts/Lock.sol\":2441:2505  function requestWinningBallId() external returns (bool) {... */\n    tag_45:\n        /* \"contracts/Lock.sol\":2491:2495  bool */\n      0x00\n        /* \"contracts/Lock.sol\":2441:2505  function requestWinningBallId() external returns (bool) {... */\n      swap1\n      jump\t// out\n        /* \"contracts/Lock.sol\":2230:2305  function getCurrentSeason() public returns (Season memory) {... */\n    tag_48:\n        /* \"contracts/Lock.sol\":2274:2287  Season memory */\n      tag_75\n      tag_76\n      jump\t// in\n    tag_75:\n        /* \"contracts/Lock.sol\":2230:2305  function getCurrentSeason() public returns (Season memory) {... */\n      swap1\n      jump\t// out\n        /* \"contracts/Lock.sol\":1292:1321  uint64[] public revealPending */\n    tag_53:\n      0x04\n      dup2\n      dup2\n      sload\n      dup2\n      lt\n      tag_78\n      jumpi\n      0x00\n      dup1\n      revert\n    tag_78:\n      swap1\n      0x00\n      mstore\n      keccak256(0x00, 0x20)\n      swap1\n      0x04\n      swap2\n      dup3\n      dup3\n      div\n      add\n      swap2\n      swap1\n      mod\n      0x08\n      mul\n      swap2\n      pop\n      sload\n      swap1\n      0x0100\n      exp\n      swap1\n      div\n      0xffffffffffffffff\n      and\n      dup2\n      jump\t// out\n        /* \"contracts/Lock.sol\":1764:1829  mapping(address => mapping(uint256 => uint64[])) public userBalls */\n    tag_59:\n      mstore(0x20, 0x06)\n      dup3\n      0x00\n      mstore\n      mstore(0x20, keccak256(0x00, 0x40))\n      dup2\n      0x00\n      mstore\n      keccak256(0x00, 0x40)\n      dup2\n      dup2\n      sload\n      dup2\n      lt\n      tag_80\n      jumpi\n      0x00\n      dup1\n      revert\n    tag_80:\n      swap1\n      0x00\n      mstore\n      keccak256(0x00, 0x20)\n      swap1\n      0x04\n      swap2\n      dup3\n      dup3\n      div\n      add\n      swap2\n      swap1\n      mod\n      0x08\n      mul\n      swap3\n      pop\n      swap3\n      pop\n      pop\n      swap1\n      sload\n      swap1\n      0x0100\n      exp\n      swap1\n      div\n      0xffffffffffffffff\n      and\n      dup2\n      jump\t// out\n        /* \"contracts/Lock.sol\":1717:1758  mapping(uint256 => Season) public seasons */\n    tag_63:\n      mstore(0x20, 0x05)\n      dup1\n      0x00\n      mstore\n      keccak256(0x00, 0x40)\n      0x00\n      swap2\n      pop\n      swap1\n      pop\n      dup1\n      0x00\n      add\n      sload\n      swap1\n      dup1\n      0x01\n      add\n      0x00\n      swap1\n      sload\n      swap1\n      0x0100\n      exp\n      swap1\n      div\n      0xffffffffffffffff\n      and\n      swap1\n      dup1\n      0x01\n      add\n      0x08\n      swap1\n      sload\n      swap1\n      0x0100\n      exp\n      swap1\n      div\n      0xffffffffffffffff\n      and\n      swap1\n      dup1\n      0x01\n      add\n      0x10\n      swap1\n      sload\n      swap1\n      0x0100\n      exp\n      swap1\n      div\n      0xffffffffffffffff\n      and\n      swap1\n      dup1\n      0x01\n      add\n      0x18\n      swap1\n      sload\n      swap1\n      0x0100\n      exp\n      swap1\n      div\n      0xffffffffffffffff\n      and\n      swap1\n      pop\n      dup6\n      jump\t// out\n        /* \"@openzeppelin/contracts/utils/Counters.sol\":945:1068  function increment(Counter storage counter) internal {... */\n    tag_66:\n        /* \"@openzeppelin/contracts/utils/Counters.sol\":1050:1051  1 */\n      0x01\n        /* \"@openzeppelin/contracts/utils/Counters.sol\":1032:1039  counter */\n      dup2\n        /* \"@openzeppelin/contracts/utils/Counters.sol\":1032:1046  counter._value */\n      0x00\n      add\n      0x00\n        /* \"@openzeppelin/contracts/utils/Counters.sol\":1032:1051  counter._value += 1 */\n      dup3\n      dup3\n      sload\n      add\n      swap3\n      pop\n      pop\n      dup2\n      swap1\n      sstore\n      pop\n        /* \"@openzeppelin/contracts/utils/Counters.sol\":945:1068  function increment(Counter storage counter) internal {... */\n      pop\n      jump\t// out\n        /* \"@openzeppelin/contracts/utils/Counters.sol\":827:939  function current(Counter storage counter) internal view returns (uint256) {... */\n    tag_73:\n        /* \"@openzeppelin/contracts/utils/Counters.sol\":892:899  uint256 */\n      0x00\n        /* \"@openzeppelin/contracts/utils/Counters.sol\":918:925  counter */\n      dup2\n        /* \"@openzeppelin/contracts/utils/Counters.sol\":918:932  counter._value */\n      0x00\n      add\n      sload\n        /* \"@openzeppelin/contracts/utils/Counters.sol\":911:932  return counter._value */\n      swap1\n      pop\n        /* \"@openzeppelin/contracts/utils/Counters.sol\":827:939  function current(Counter storage counter) internal view returns (uint256) {... */\n      swap2\n      swap1\n      pop\n      jump\t// out\n    tag_76:\n      mload(0x40)\n      dup1\n      0xa0\n      add\n      0x40\n      mstore\n      dup1\n      0x00\n      dup2\n      mstore\n      0x20\n      add\n      and(0xffffffffffffffff, 0x00)\n      dup2\n      mstore\n      0x20\n      add\n      and(0xffffffffffffffff, 0x00)\n      dup2\n      mstore\n      0x20\n      add\n      and(0xffffffffffffffff, 0x00)\n      dup2\n      mstore\n      0x20\n      add\n      and(0xffffffffffffffff, 0x00)\n      dup2\n      mstore\n      pop\n      swap1\n      jump\t// out\n        /* \"#utility.yul\":7:97   */\n    tag_84:\n        /* \"#utility.yul\":41:48   */\n      0x00\n        /* \"#utility.yul\":84:89   */\n      dup2\n        /* \"#utility.yul\":77:90   */\n      iszero\n        /* \"#utility.yul\":70:91   */\n      iszero\n        /* \"#utility.yul\":59:91   */\n      swap1\n      pop\n        /* \"#utility.yul\":7:97   */\n      swap2\n      swap1\n      pop\n      jump\t// out\n        /* \"#utility.yul\":103:212   */\n    tag_85:\n        /* \"#utility.yul\":184:205   */\n      tag_108\n        /* \"#utility.yul\":199:204   */\n      dup2\n        /* \"#utility.yul\":184:205   */\n      tag_84\n      jump\t// in\n    tag_108:\n        /* \"#utility.yul\":179:182   */\n      dup3\n        /* \"#utility.yul\":172:206   */\n      mstore\n        /* \"#utility.yul\":103:212   */\n      pop\n      pop\n      jump\t// out\n        /* \"#utility.yul\":218:428   */\n    tag_19:\n        /* \"#utility.yul\":305:309   */\n      0x00\n        /* \"#utility.yul\":343:345   */\n      0x20\n        /* \"#utility.yul\":332:341   */\n      dup3\n        /* \"#utility.yul\":328:346   */\n      add\n        /* \"#utility.yul\":320:346   */\n      swap1\n      pop\n        /* \"#utility.yul\":356:421   */\n      tag_110\n        /* \"#utility.yul\":418:419   */\n      0x00\n        /* \"#utility.yul\":407:416   */\n      dup4\n        /* \"#utility.yul\":403:420   */\n      add\n        /* \"#utility.yul\":394:400   */\n      dup5\n        /* \"#utility.yul\":356:421   */\n      tag_85\n      jump\t// in\n    tag_110:\n        /* \"#utility.yul\":218:428   */\n      swap3\n      swap2\n      pop\n      pop\n      jump\t// out\n        /* \"#utility.yul\":434:511   */\n    tag_86:\n        /* \"#utility.yul\":471:478   */\n      0x00\n        /* \"#utility.yul\":500:505   */\n      dup2\n        /* \"#utility.yul\":489:505   */\n      swap1\n      pop\n        /* \"#utility.yul\":434:511   */\n      swap2\n      swap1\n      pop\n      jump\t// out\n        /* \"#utility.yul\":517:635   */\n    tag_87:\n        /* \"#utility.yul\":604:628   */\n      tag_113\n        /* \"#utility.yul\":622:627   */\n      dup2\n        /* \"#utility.yul\":604:628   */\n      tag_86\n      jump\t// in\n    tag_113:\n        /* \"#utility.yul\":599:602   */\n      dup3\n        /* \"#utility.yul\":592:629   */\n      mstore\n        /* \"#utility.yul\":517:635   */\n      pop\n      pop\n      jump\t// out\n        /* \"#utility.yul\":641:863   */\n    tag_26:\n        /* \"#utility.yul\":734:738   */\n      0x00\n        /* \"#utility.yul\":772:774   */\n      0x20\n        /* \"#utility.yul\":761:770   */\n      dup3\n        /* \"#utility.yul\":757:775   */\n      add\n        /* \"#utility.yul\":749:775   */\n      swap1\n      pop\n        /* \"#utility.yul\":785:856   */\n      tag_115\n        /* \"#utility.yul\":853:854   */\n      0x00\n        /* \"#utility.yul\":842:851   */\n      dup4\n        /* \"#utility.yul\":838:855   */\n      add\n        /* \"#utility.yul\":829:835   */\n      dup5\n        /* \"#utility.yul\":785:856   */\n      tag_87\n      jump\t// in\n    tag_115:\n        /* \"#utility.yul\":641:863   */\n      swap3\n      swap2\n      pop\n      pop\n      jump\t// out\n        /* \"#utility.yul\":950:1067   */\n    tag_89:\n        /* \"#utility.yul\":1059:1060   */\n      0x00\n        /* \"#utility.yul\":1056:1057   */\n      dup1\n        /* \"#utility.yul\":1049:1061   */\n      revert\n        /* \"#utility.yul\":1196:1297   */\n    tag_91:\n        /* \"#utility.yul\":1232:1239   */\n      0x00\n        /* \"#utility.yul\":1272:1290   */\n      0xffffffffffffffff\n        /* \"#utility.yul\":1265:1270   */\n      dup3\n        /* \"#utility.yul\":1261:1291   */\n      and\n        /* \"#utility.yul\":1250:1291   */\n      swap1\n      pop\n        /* \"#utility.yul\":1196:1297   */\n      swap2\n      swap1\n      pop\n      jump\t// out\n        /* \"#utility.yul\":1303:1423   */\n    tag_92:\n        /* \"#utility.yul\":1375:1398   */\n      tag_121\n        /* \"#utility.yul\":1392:1397   */\n      dup2\n        /* \"#utility.yul\":1375:1398   */\n      tag_91\n      jump\t// in\n    tag_121:\n        /* \"#utility.yul\":1368:1373   */\n      dup2\n        /* \"#utility.yul\":1365:1399   */\n      eq\n        /* \"#utility.yul\":1355:1417   */\n      tag_122\n      jumpi\n        /* \"#utility.yul\":1413:1414   */\n      0x00\n        /* \"#utility.yul\":1410:1411   */\n      dup1\n        /* \"#utility.yul\":1403:1415   */\n      revert\n        /* \"#utility.yul\":1355:1417   */\n    tag_122:\n        /* \"#utility.yul\":1303:1423   */\n      pop\n      jump\t// out\n        /* \"#utility.yul\":1429:1566   */\n    tag_93:\n        /* \"#utility.yul\":1474:1479   */\n      0x00\n        /* \"#utility.yul\":1512:1518   */\n      dup2\n        /* \"#utility.yul\":1499:1519   */\n      calldataload\n        /* \"#utility.yul\":1490:1519   */\n      swap1\n      pop\n        /* \"#utility.yul\":1528:1560   */\n      tag_124\n        /* \"#utility.yul\":1554:1559   */\n      dup2\n        /* \"#utility.yul\":1528:1560   */\n      tag_92\n      jump\t// in\n    tag_124:\n        /* \"#utility.yul\":1429:1566   */\n      swap3\n      swap2\n      pop\n      pop\n      jump\t// out\n        /* \"#utility.yul\":1572:1899   */\n    tag_32:\n        /* \"#utility.yul\":1630:1636   */\n      0x00\n        /* \"#utility.yul\":1679:1681   */\n      0x20\n        /* \"#utility.yul\":1667:1676   */\n      dup3\n        /* \"#utility.yul\":1658:1665   */\n      dup5\n        /* \"#utility.yul\":1654:1677   */\n      sub\n        /* \"#utility.yul\":1650:1682   */\n      slt\n        /* \"#utility.yul\":1647:1766   */\n      iszero\n      tag_126\n      jumpi\n        /* \"#utility.yul\":1685:1764   */\n      tag_127\n      tag_89\n      jump\t// in\n    tag_127:\n        /* \"#utility.yul\":1647:1766   */\n    tag_126:\n        /* \"#utility.yul\":1805:1806   */\n      0x00\n        /* \"#utility.yul\":1830:1882   */\n      tag_128\n        /* \"#utility.yul\":1874:1881   */\n      dup5\n        /* \"#utility.yul\":1865:1871   */\n      dup3\n        /* \"#utility.yul\":1854:1863   */\n      dup6\n        /* \"#utility.yul\":1850:1872   */\n      add\n        /* \"#utility.yul\":1830:1882   */\n      tag_93\n      jump\t// in\n    tag_128:\n        /* \"#utility.yul\":1820:1882   */\n      swap2\n      pop\n        /* \"#utility.yul\":1776:1892   */\n      pop\n        /* \"#utility.yul\":1572:1899   */\n      swap3\n      swap2\n      pop\n      pop\n      jump\t// out\n        /* \"#utility.yul\":1905:2020   */\n    tag_94:\n        /* \"#utility.yul\":1990:2013   */\n      tag_130\n        /* \"#utility.yul\":2007:2012   */\n      dup2\n        /* \"#utility.yul\":1990:2013   */\n      tag_91\n      jump\t// in\n    tag_130:\n        /* \"#utility.yul\":1985:1988   */\n      dup3\n        /* \"#utility.yul\":1978:2014   */\n      mstore\n        /* \"#utility.yul\":1905:2020   */\n      pop\n      pop\n      jump\t// out\n        /* \"#utility.yul\":2026:2152   */\n    tag_95:\n        /* \"#utility.yul\":2063:2070   */\n      0x00\n        /* \"#utility.yul\":2103:2145   */\n      0xffffffffffffffffffffffffffffffffffffffff\n        /* \"#utility.yul\":2096:2101   */\n      dup3\n        /* \"#utility.yul\":2092:2146   */\n      and\n        /* \"#utility.yul\":2081:2146   */\n      swap1\n      pop\n        /* \"#utility.yul\":2026:2152   */\n      swap2\n      swap1\n      pop\n      jump\t// out\n        /* \"#utility.yul\":2158:2254   */\n    tag_96:\n        /* \"#utility.yul\":2195:2202   */\n      0x00\n        /* \"#utility.yul\":2224:2248   */\n      tag_133\n        /* \"#utility.yul\":2242:2247   */\n      dup3\n        /* \"#utility.yul\":2224:2248   */\n      tag_95\n      jump\t// in\n    tag_133:\n        /* \"#utility.yul\":2213:2248   */\n      swap1\n      pop\n        /* \"#utility.yul\":2158:2254   */\n      swap2\n      swap1\n      pop\n      jump\t// out\n        /* \"#utility.yul\":2260:2378   */\n    tag_97:\n        /* \"#utility.yul\":2347:2371   */\n      tag_135\n        /* \"#utility.yul\":2365:2370   */\n      dup2\n        /* \"#utility.yul\":2347:2371   */\n      tag_96\n      jump\t// in\n    tag_135:\n        /* \"#utility.yul\":2342:2345   */\n      dup3\n        /* \"#utility.yul\":2335:2372   */\n      mstore\n        /* \"#utility.yul\":2260:2378   */\n      pop\n      pop\n      jump\t// out\n        /* \"#utility.yul\":2384:2933   */\n    tag_35:\n        /* \"#utility.yul\":2559:2563   */\n      0x00\n        /* \"#utility.yul\":2597:2600   */\n      0x80\n        /* \"#utility.yul\":2586:2595   */\n      dup3\n        /* \"#utility.yul\":2582:2601   */\n      add\n        /* \"#utility.yul\":2574:2601   */\n      swap1\n      pop\n        /* \"#utility.yul\":2611:2680   */\n      tag_137\n        /* \"#utility.yul\":2677:2678   */\n      0x00\n        /* \"#utility.yul\":2666:2675   */\n      dup4\n        /* \"#utility.yul\":2662:2679   */\n      add\n        /* \"#utility.yul\":2653:2659   */\n      dup8\n        /* \"#utility.yul\":2611:2680   */\n      tag_94\n      jump\t// in\n    tag_137:\n        /* \"#utility.yul\":2690:2762   */\n      tag_138\n        /* \"#utility.yul\":2758:2760   */\n      0x20\n        /* \"#utility.yul\":2747:2756   */\n      dup4\n        /* \"#utility.yul\":2743:2761   */\n      add\n        /* \"#utility.yul\":2734:2740   */\n      dup7\n        /* \"#utility.yul\":2690:2762   */\n      tag_97\n      jump\t// in\n    tag_138:\n        /* \"#utility.yul\":2772:2844   */\n      tag_139\n        /* \"#utility.yul\":2840:2842   */\n      0x40\n        /* \"#utility.yul\":2829:2838   */\n      dup4\n        /* \"#utility.yul\":2825:2843   */\n      add\n        /* \"#utility.yul\":2816:2822   */\n      dup6\n        /* \"#utility.yul\":2772:2844   */\n      tag_87\n      jump\t// in\n    tag_139:\n        /* \"#utility.yul\":2854:2926   */\n      tag_140\n        /* \"#utility.yul\":2922:2924   */\n      0x60\n        /* \"#utility.yul\":2911:2920   */\n      dup4\n        /* \"#utility.yul\":2907:2925   */\n      add\n        /* \"#utility.yul\":2898:2904   */\n      dup5\n        /* \"#utility.yul\":2854:2926   */\n      tag_87\n      jump\t// in\n    tag_140:\n        /* \"#utility.yul\":2384:2933   */\n      swap6\n      swap5\n      pop\n      pop\n      pop\n      pop\n      pop\n      jump\t// out\n        /* \"#utility.yul\":2939:3061   */\n    tag_98:\n        /* \"#utility.yul\":3012:3036   */\n      tag_142\n        /* \"#utility.yul\":3030:3035   */\n      dup2\n        /* \"#utility.yul\":3012:3036   */\n      tag_86\n      jump\t// in\n    tag_142:\n        /* \"#utility.yul\":3005:3010   */\n      dup2\n        /* \"#utility.yul\":3002:3037   */\n      eq\n        /* \"#utility.yul\":2992:3055   */\n      tag_143\n      jumpi\n        /* \"#utility.yul\":3051:3052   */\n      0x00\n        /* \"#utility.yul\":3048:3049   */\n      dup1\n        /* \"#utility.yul\":3041:3053   */\n      revert\n        /* \"#utility.yul\":2992:3055   */\n    tag_143:\n        /* \"#utility.yul\":2939:3061   */\n      pop\n      jump\t// out\n        /* \"#utility.yul\":3067:3206   */\n    tag_99:\n        /* \"#utility.yul\":3113:3118   */\n      0x00\n        /* \"#utility.yul\":3151:3157   */\n      dup2\n        /* \"#utility.yul\":3138:3158   */\n      calldataload\n        /* \"#utility.yul\":3129:3158   */\n      swap1\n      pop\n        /* \"#utility.yul\":3167:3200   */\n      tag_145\n        /* \"#utility.yul\":3194:3199   */\n      dup2\n        /* \"#utility.yul\":3167:3200   */\n      tag_98\n      jump\t// in\n    tag_145:\n        /* \"#utility.yul\":3067:3206   */\n      swap3\n      swap2\n      pop\n      pop\n      jump\t// out\n        /* \"#utility.yul\":3212:3541   */\n    tag_41:\n        /* \"#utility.yul\":3271:3277   */\n      0x00\n        /* \"#utility.yul\":3320:3322   */\n      0x20\n        /* \"#utility.yul\":3308:3317   */\n      dup3\n        /* \"#utility.yul\":3299:3306   */\n      dup5\n        /* \"#utility.yul\":3295:3318   */\n      sub\n        /* \"#utility.yul\":3291:3323   */\n      slt\n        /* \"#utility.yul\":3288:3407   */\n      iszero\n      tag_147\n      jumpi\n        /* \"#utility.yul\":3326:3405   */\n      tag_148\n      tag_89\n      jump\t// in\n    tag_148:\n        /* \"#utility.yul\":3288:3407   */\n    tag_147:\n        /* \"#utility.yul\":3446:3447   */\n      0x00\n        /* \"#utility.yul\":3471:3524   */\n      tag_149\n        /* \"#utility.yul\":3516:3523   */\n      dup5\n        /* \"#utility.yul\":3507:3513   */\n      dup3\n        /* \"#utility.yul\":3496:3505   */\n      dup6\n        /* \"#utility.yul\":3492:3514   */\n      add\n        /* \"#utility.yul\":3471:3524   */\n      tag_99\n      jump\t// in\n    tag_149:\n        /* \"#utility.yul\":3461:3524   */\n      swap2\n      pop\n        /* \"#utility.yul\":3417:3534   */\n      pop\n        /* \"#utility.yul\":3212:3541   */\n      swap3\n      swap2\n      pop\n      pop\n      jump\t// out\n        /* \"#utility.yul\":3547:3655   */\n    tag_100:\n        /* \"#utility.yul\":3624:3648   */\n      tag_151\n        /* \"#utility.yul\":3642:3647   */\n      dup2\n        /* \"#utility.yul\":3624:3648   */\n      tag_86\n      jump\t// in\n    tag_151:\n        /* \"#utility.yul\":3619:3622   */\n      dup3\n        /* \"#utility.yul\":3612:3649   */\n      mstore\n        /* \"#utility.yul\":3547:3655   */\n      pop\n      pop\n      jump\t// out\n        /* \"#utility.yul\":3661:3766   */\n    tag_101:\n        /* \"#utility.yul\":3736:3759   */\n      tag_153\n        /* \"#utility.yul\":3753:3758   */\n      dup2\n        /* \"#utility.yul\":3736:3759   */\n      tag_91\n      jump\t// in\n    tag_153:\n        /* \"#utility.yul\":3731:3734   */\n      dup3\n        /* \"#utility.yul\":3724:3760   */\n      mstore\n        /* \"#utility.yul\":3661:3766   */\n      pop\n      pop\n      jump\t// out\n        /* \"#utility.yul\":3830:4879   */\n    tag_102:\n        /* \"#utility.yul\":3973:3977   */\n      0xa0\n        /* \"#utility.yul\":3968:3971   */\n      dup3\n        /* \"#utility.yul\":3964:3978   */\n      add\n        /* \"#utility.yul\":4064:4068   */\n      0x00\n        /* \"#utility.yul\":4057:4062   */\n      dup3\n        /* \"#utility.yul\":4053:4069   */\n      add\n        /* \"#utility.yul\":4047:4070   */\n      mload\n        /* \"#utility.yul\":4083:4146   */\n      tag_155\n        /* \"#utility.yul\":4140:4144   */\n      0x00\n        /* \"#utility.yul\":4135:4138   */\n      dup6\n        /* \"#utility.yul\":4131:4145   */\n      add\n        /* \"#utility.yul\":4117:4129   */\n      dup3\n        /* \"#utility.yul\":4083:4146   */\n      tag_100\n      jump\t// in\n    tag_155:\n        /* \"#utility.yul\":3988:4156   */\n      pop\n        /* \"#utility.yul\":4245:4249   */\n      0x20\n        /* \"#utility.yul\":4238:4243   */\n      dup3\n        /* \"#utility.yul\":4234:4250   */\n      add\n        /* \"#utility.yul\":4228:4251   */\n      mload\n        /* \"#utility.yul\":4264:4325   */\n      tag_156\n        /* \"#utility.yul\":4319:4323   */\n      0x20\n        /* \"#utility.yul\":4314:4317   */\n      dup6\n        /* \"#utility.yul\":4310:4324   */\n      add\n        /* \"#utility.yul\":4296:4308   */\n      dup3\n        /* \"#utility.yul\":4264:4325   */\n      tag_101\n      jump\t// in\n    tag_156:\n        /* \"#utility.yul\":4166:4335   */\n      pop\n        /* \"#utility.yul\":4422:4426   */\n      0x40\n        /* \"#utility.yul\":4415:4420   */\n      dup3\n        /* \"#utility.yul\":4411:4427   */\n      add\n        /* \"#utility.yul\":4405:4428   */\n      mload\n        /* \"#utility.yul\":4441:4502   */\n      tag_157\n        /* \"#utility.yul\":4496:4500   */\n      0x40\n        /* \"#utility.yul\":4491:4494   */\n      dup6\n        /* \"#utility.yul\":4487:4501   */\n      add\n        /* \"#utility.yul\":4473:4485   */\n      dup3\n        /* \"#utility.yul\":4441:4502   */\n      tag_101\n      jump\t// in\n    tag_157:\n        /* \"#utility.yul\":4345:4512   */\n      pop\n        /* \"#utility.yul\":4601:4605   */\n      0x60\n        /* \"#utility.yul\":4594:4599   */\n      dup3\n        /* \"#utility.yul\":4590:4606   */\n      add\n        /* \"#utility.yul\":4584:4607   */\n      mload\n        /* \"#utility.yul\":4620:4681   */\n      tag_158\n        /* \"#utility.yul\":4675:4679   */\n      0x60\n        /* \"#utility.yul\":4670:4673   */\n      dup6\n        /* \"#utility.yul\":4666:4680   */\n      add\n        /* \"#utility.yul\":4652:4664   */\n      dup3\n        /* \"#utility.yul\":4620:4681   */\n      tag_101\n      jump\t// in\n    tag_158:\n        /* \"#utility.yul\":4522:4691   */\n      pop\n        /* \"#utility.yul\":4782:4786   */\n      0x80\n        /* \"#utility.yul\":4775:4780   */\n      dup3\n        /* \"#utility.yul\":4771:4787   */\n      add\n        /* \"#utility.yul\":4765:4788   */\n      mload\n        /* \"#utility.yul\":4801:4862   */\n      tag_159\n        /* \"#utility.yul\":4856:4860   */\n      0x80\n        /* \"#utility.yul\":4851:4854   */\n      dup6\n        /* \"#utility.yul\":4847:4861   */\n      add\n        /* \"#utility.yul\":4833:4845   */\n      dup3\n        /* \"#utility.yul\":4801:4862   */\n      tag_101\n      jump\t// in\n    tag_159:\n        /* \"#utility.yul\":4701:4872   */\n      pop\n        /* \"#utility.yul\":3942:4879   */\n      pop\n        /* \"#utility.yul\":3830:4879   */\n      pop\n      pop\n      jump\t// out\n        /* \"#utility.yul\":4885:5200   */\n    tag_50:\n        /* \"#utility.yul\":5024:5028   */\n      0x00\n        /* \"#utility.yul\":5062:5065   */\n      0xa0\n        /* \"#utility.yul\":5051:5060   */\n      dup3\n        /* \"#utility.yul\":5047:5066   */\n      add\n        /* \"#utility.yul\":5039:5066   */\n      swap1\n      pop\n        /* \"#utility.yul\":5076:5193   */\n      tag_161\n        /* \"#utility.yul\":5190:5191   */\n      0x00\n        /* \"#utility.yul\":5179:5188   */\n      dup4\n        /* \"#utility.yul\":5175:5192   */\n      add\n        /* \"#utility.yul\":5166:5172   */\n      dup5\n        /* \"#utility.yul\":5076:5193   */\n      tag_102\n      jump\t// in\n    tag_161:\n        /* \"#utility.yul\":4885:5200   */\n      swap3\n      swap2\n      pop\n      pop\n      jump\t// out\n        /* \"#utility.yul\":5206:5424   */\n    tag_55:\n        /* \"#utility.yul\":5297:5301   */\n      0x00\n        /* \"#utility.yul\":5335:5337   */\n      0x20\n        /* \"#utility.yul\":5324:5333   */\n      dup3\n        /* \"#utility.yul\":5320:5338   */\n      add\n        /* \"#utility.yul\":5312:5338   */\n      swap1\n      pop\n        /* \"#utility.yul\":5348:5417   */\n      tag_163\n        /* \"#utility.yul\":5414:5415   */\n      0x00\n        /* \"#utility.yul\":5403:5412   */\n      dup4\n        /* \"#utility.yul\":5399:5416   */\n      add\n        /* \"#utility.yul\":5390:5396   */\n      dup5\n        /* \"#utility.yul\":5348:5417   */\n      tag_94\n      jump\t// in\n    tag_163:\n        /* \"#utility.yul\":5206:5424   */\n      swap3\n      swap2\n      pop\n      pop\n      jump\t// out\n        /* \"#utility.yul\":5430:5552   */\n    tag_103:\n        /* \"#utility.yul\":5503:5527   */\n      tag_165\n        /* \"#utility.yul\":5521:5526   */\n      dup2\n        /* \"#utility.yul\":5503:5527   */\n      tag_96\n      jump\t// in\n    tag_165:\n        /* \"#utility.yul\":5496:5501   */\n      dup2\n        /* \"#utility.yul\":5493:5528   */\n      eq\n        /* \"#utility.yul\":5483:5546   */\n      tag_166\n      jumpi\n        /* \"#utility.yul\":5542:5543   */\n      0x00\n        /* \"#utility.yul\":5539:5540   */\n      dup1\n        /* \"#utility.yul\":5532:5544   */\n      revert\n        /* \"#utility.yul\":5483:5546   */\n    tag_166:\n        /* \"#utility.yul\":5430:5552   */\n      pop\n      jump\t// out\n        /* \"#utility.yul\":5558:5697   */\n    tag_104:\n        /* \"#utility.yul\":5604:5609   */\n      0x00\n        /* \"#utility.yul\":5642:5648   */\n      dup2\n        /* \"#utility.yul\":5629:5649   */\n      calldataload\n        /* \"#utility.yul\":5620:5649   */\n      swap1\n      pop\n        /* \"#utility.yul\":5658:5691   */\n      tag_168\n        /* \"#utility.yul\":5685:5690   */\n      dup2\n        /* \"#utility.yul\":5658:5691   */\n      tag_103\n      jump\t// in\n    tag_168:\n        /* \"#utility.yul\":5558:5697   */\n      swap3\n      swap2\n      pop\n      pop\n      jump\t// out\n        /* \"#utility.yul\":5703:6322   */\n    tag_58:\n        /* \"#utility.yul\":5780:5786   */\n      0x00\n        /* \"#utility.yul\":5788:5794   */\n      dup1\n        /* \"#utility.yul\":5796:5802   */\n      0x00\n        /* \"#utility.yul\":5845:5847   */\n      0x60\n        /* \"#utility.yul\":5833:5842   */\n      dup5\n        /* \"#utility.yul\":5824:5831   */\n      dup7\n        /* \"#utility.yul\":5820:5843   */\n      sub\n        /* \"#utility.yul\":5816:5848   */\n      slt\n        /* \"#utility.yul\":5813:5932   */\n      iszero\n      tag_170\n      jumpi\n        /* \"#utility.yul\":5851:5930   */\n      tag_171\n      tag_89\n      jump\t// in\n    tag_171:\n        /* \"#utility.yul\":5813:5932   */\n    tag_170:\n        /* \"#utility.yul\":5971:5972   */\n      0x00\n        /* \"#utility.yul\":5996:6049   */\n      tag_172\n        /* \"#utility.yul\":6041:6048   */\n      dup7\n        /* \"#utility.yul\":6032:6038   */\n      dup3\n        /* \"#utility.yul\":6021:6030   */\n      dup8\n        /* \"#utility.yul\":6017:6039   */\n      add\n        /* \"#utility.yul\":5996:6049   */\n      tag_104\n      jump\t// in\n    tag_172:\n        /* \"#utility.yul\":5986:6049   */\n      swap4\n      pop\n        /* \"#utility.yul\":5942:6059   */\n      pop\n        /* \"#utility.yul\":6098:6100   */\n      0x20\n        /* \"#utility.yul\":6124:6177   */\n      tag_173\n        /* \"#utility.yul\":6169:6176   */\n      dup7\n        /* \"#utility.yul\":6160:6166   */\n      dup3\n        /* \"#utility.yul\":6149:6158   */\n      dup8\n        /* \"#utility.yul\":6145:6167   */\n      add\n        /* \"#utility.yul\":6124:6177   */\n      tag_99\n      jump\t// in\n    tag_173:\n        /* \"#utility.yul\":6114:6177   */\n      swap3\n      pop\n        /* \"#utility.yul\":6069:6187   */\n      pop\n        /* \"#utility.yul\":6226:6228   */\n      0x40\n        /* \"#utility.yul\":6252:6305   */\n      tag_174\n        /* \"#utility.yul\":6297:6304   */\n      dup7\n        /* \"#utility.yul\":6288:6294   */\n      dup3\n        /* \"#utility.yul\":6277:6286   */\n      dup8\n        /* \"#utility.yul\":6273:6295   */\n      add\n        /* \"#utility.yul\":6252:6305   */\n      tag_99\n      jump\t// in\n    tag_174:\n        /* \"#utility.yul\":6242:6305   */\n      swap2\n      pop\n        /* \"#utility.yul\":6197:6315   */\n      pop\n        /* \"#utility.yul\":5703:6322   */\n      swap3\n      pop\n      swap3\n      pop\n      swap3\n      jump\t// out\n        /* \"#utility.yul\":6328:6976   */\n    tag_65:\n        /* \"#utility.yul\":6525:6529   */\n      0x00\n        /* \"#utility.yul\":6563:6566   */\n      0xa0\n        /* \"#utility.yul\":6552:6561   */\n      dup3\n        /* \"#utility.yul\":6548:6567   */\n      add\n        /* \"#utility.yul\":6540:6567   */\n      swap1\n      pop\n        /* \"#utility.yul\":6577:6648   */\n      tag_176\n        /* \"#utility.yul\":6645:6646   */\n      0x00\n        /* \"#utility.yul\":6634:6643   */\n      dup4\n        /* \"#utility.yul\":6630:6647   */\n      add\n        /* \"#utility.yul\":6621:6627   */\n      dup9\n        /* \"#utility.yul\":6577:6648   */\n      tag_87\n      jump\t// in\n    tag_176:\n        /* \"#utility.yul\":6658:6728   */\n      tag_177\n        /* \"#utility.yul\":6724:6726   */\n      0x20\n        /* \"#utility.yul\":6713:6722   */\n      dup4\n        /* \"#utility.yul\":6709:6727   */\n      add\n        /* \"#utility.yul\":6700:6706   */\n      dup8\n        /* \"#utility.yul\":6658:6728   */\n      tag_94\n      jump\t// in\n    tag_177:\n        /* \"#utility.yul\":6738:6808   */\n      tag_178\n        /* \"#utility.yul\":6804:6806   */\n      0x40\n        /* \"#utility.yul\":6793:6802   */\n      dup4\n        /* \"#utility.yul\":6789:6807   */\n      add\n        /* \"#utility.yul\":6780:6786   */\n      dup7\n        /* \"#utility.yul\":6738:6808   */\n      tag_94\n      jump\t// in\n    tag_178:\n        /* \"#utility.yul\":6818:6888   */\n      tag_179\n        /* \"#utility.yul\":6884:6886   */\n      0x60\n        /* \"#utility.yul\":6873:6882   */\n      dup4\n        /* \"#utility.yul\":6869:6887   */\n      add\n        /* \"#utility.yul\":6860:6866   */\n      dup6\n        /* \"#utility.yul\":6818:6888   */\n      tag_94\n      jump\t// in\n    tag_179:\n        /* \"#utility.yul\":6898:6969   */\n      tag_180\n        /* \"#utility.yul\":6964:6967   */\n      0x80\n        /* \"#utility.yul\":6953:6962   */\n      dup4\n        /* \"#utility.yul\":6949:6968   */\n      add\n        /* \"#utility.yul\":6940:6946   */\n      dup5\n        /* \"#utility.yul\":6898:6969   */\n      tag_94\n      jump\t// in\n    tag_180:\n        /* \"#utility.yul\":6328:6976   */\n      swap7\n      swap6\n      pop\n      pop\n      pop\n      pop\n      pop\n      pop\n      jump\t// out\n\n    auxdata: 0xa2646970667358221220ad6697355834921a24815d0b54a9c7ff995d35e8b4e69d77c3985c59a2b2e88f64736f6c63430008120033\n}\n",
				"bytecode": {
					"linkReferences": {},
					"object": "60806040526000600360006101000a81548160ff02191690831515021790555034801561002b57600080fd5b50610040600061005960201b6104691760201c565b610054600261005960201b6104691760201c565b61006f565b6001816000016000828254019250508190555050565b6108728061007e6000396000f3fe608060405234801561001057600080fd5b50600436106100b45760003560e01c8063b29e60ef11610071578063b29e60ef14610182578063c419857f146101b2578063d3b30b75146101d0578063f2bdbc62146101ee578063f4225ee11461021e578063f5d709a11461024e576100b4565b806302fb0c5e146100b95780630bd8a117146100d75780633dcdb672146100f55780634cd7184a1461011357806363b6f06514610131578063952a963314610164575b600080fd5b6100c1610282565b6040516100ce91906104ff565b60405180910390f35b6100df610295565b6040516100ec91906104ff565b60405180910390f35b6100fd61029a565b60405161010a9190610533565b60405180910390f35b61011b61029f565b60405161012891906104ff565b60405180910390f35b61014b60048036038101906101469190610593565b6102a4565b60405161015b9493929190610610565b60405180910390f35b61016c610308565b6040516101799190610533565b60405180910390f35b61019c60048036038101906101979190610681565b610323565b6040516101a99190610533565b60405180910390f35b6101ba61033b565b6040516101c791906104ff565b60405180910390f35b6101d8610340565b6040516101e59190610734565b60405180910390f35b61020860048036038101906102039190610681565b61034b565b604051610215919061074f565b60405180910390f35b61023860048036038101906102339190610796565b610389565b604051610245919061074f565b60405180910390f35b61026860048036038101906102639190610681565b6103e3565b6040516102799594939291906107e9565b60405180910390f35b600360009054906101000a900460ff1681565b600090565b600090565b600090565b60086020528060005260406000206000915090508060000160009054906101000a900467ffffffffffffffff16908060000160089054906101000a900473ffffffffffffffffffffffffffffffffffffffff16908060010154908060020154905084565b60006103146001610469565b61031e600161047f565b905090565b60076020528060005260406000206000915090505481565b600090565b61034861048d565b90565b6004818154811061035b57600080fd5b9060005260206000209060049182820401919006600802915054906101000a900467ffffffffffffffff1681565b600660205282600052604060002060205281600052604060002081815481106103b157600080fd5b906000526020600020906004918282040191900660080292509250509054906101000a900467ffffffffffffffff1681565b60056020528060005260406000206000915090508060000154908060010160009054906101000a900467ffffffffffffffff16908060010160089054906101000a900467ffffffffffffffff16908060010160109054906101000a900467ffffffffffffffff16908060010160189054906101000a900467ffffffffffffffff16905085565b6001816000016000828254019250508190555050565b600081600001549050919050565b6040518060a0016040528060008152602001600067ffffffffffffffff168152602001600067ffffffffffffffff168152602001600067ffffffffffffffff168152602001600067ffffffffffffffff1681525090565b60008115159050919050565b6104f9816104e4565b82525050565b600060208201905061051460008301846104f0565b92915050565b6000819050919050565b61052d8161051a565b82525050565b60006020820190506105486000830184610524565b92915050565b600080fd5b600067ffffffffffffffff82169050919050565b61057081610553565b811461057b57600080fd5b50565b60008135905061058d81610567565b92915050565b6000602082840312156105a9576105a861054e565b5b60006105b78482850161057e565b91505092915050565b6105c981610553565b82525050565b600073ffffffffffffffffffffffffffffffffffffffff82169050919050565b60006105fa826105cf565b9050919050565b61060a816105ef565b82525050565b600060808201905061062560008301876105c0565b6106326020830186610601565b61063f6040830185610524565b61064c6060830184610524565b95945050505050565b61065e8161051a565b811461066957600080fd5b50565b60008135905061067b81610655565b92915050565b6000602082840312156106975761069661054e565b5b60006106a58482850161066c565b91505092915050565b6106b78161051a565b82525050565b6106c681610553565b82525050565b60a0820160008201516106e260008501826106ae565b5060208201516106f560208501826106bd565b50604082015161070860408501826106bd565b50606082015161071b60608501826106bd565b50608082015161072e60808501826106bd565b50505050565b600060a08201905061074960008301846106cc565b92915050565b600060208201905061076460008301846105c0565b92915050565b610773816105ef565b811461077e57600080fd5b50565b6000813590506107908161076a565b92915050565b6000806000606084860312156107af576107ae61054e565b5b60006107bd86828701610781565b93505060206107ce8682870161066c565b92505060406107df8682870161066c565b9150509250925092565b600060a0820190506107fe6000830188610524565b61080b60208301876105c0565b61081860408301866105c0565b61082560608301856105c0565b61083260808301846105c0565b969550505050505056fea2646970667358221220ad6697355834921a24815d0b54a9c7ff995d35e8b4e69d77c3985c59a2b2e88f64736f6c63430008120033",
					"opcodes": "PUSH1 0x80 PUSH1 0x40 MSTORE PUSH1 0x0 PUSH1 0x3 PUSH1 0x0 PUSH2 0x100 EXP DUP2 SLOAD DUP2 PUSH1 0xFF MUL NOT AND SWAP1 DUP4 ISZERO ISZERO MUL OR SWAP1 SSTORE POP CALLVALUE DUP1 ISZERO PUSH2 0x2B JUMPI PUSH1 0x0 DUP1 REVERT JUMPDEST POP PUSH2 0x40 PUSH1 0x0 PUSH2 0x59 PUSH1 0x20 SHL PUSH2 0x469 OR PUSH1 0x20 SHR JUMP JUMPDEST PUSH2 0x54 PUSH1 0x2 PUSH2 0x59 PUSH1 0x20 SHL PUSH2 0x469 OR PUSH1 0x20 SHR JUMP JUMPDEST PUSH2 0x6F JUMP JUMPDEST PUSH1 0x1 DUP2 PUSH1 0x0 ADD PUSH1 0x0 DUP3 DUP3 SLOAD ADD SWAP3 POP POP DUP2 SWAP1 SSTORE POP POP JUMP JUMPDEST PUSH2 0x872 DUP1 PUSH2 0x7E PUSH1 0x0 CODECOPY PUSH1 0x0 RETURN INVALID PUSH1 0x80 PUSH1 0x40 MSTORE CALLVALUE DUP1 ISZERO PUSH2 0x10 JUMPI PUSH1 0x0 DUP1 REVERT JUMPDEST POP PUSH1 0x4 CALLDATASIZE LT PUSH2 0xB4 JUMPI PUSH1 0x0 CALLDATALOAD PUSH1 0xE0 SHR DUP1 PUSH4 0xB29E60EF GT PUSH2 0x71 JUMPI DUP1 PUSH4 0xB29E60EF EQ PUSH2 0x182 JUMPI DUP1 PUSH4 0xC419857F EQ PUSH2 0x1B2 JUMPI DUP1 PUSH4 0xD3B30B75 EQ PUSH2 0x1D0 JUMPI DUP1 PUSH4 0xF2BDBC62 EQ PUSH2 0x1EE JUMPI DUP1 PUSH4 0xF4225EE1 EQ PUSH2 0x21E JUMPI DUP1 PUSH4 0xF5D709A1 EQ PUSH2 0x24E JUMPI PUSH2 0xB4 JUMP JUMPDEST DUP1 PUSH4 0x2FB0C5E EQ PUSH2 0xB9 JUMPI DUP1 PUSH4 0xBD8A117 EQ PUSH2 0xD7 JUMPI DUP1 PUSH4 0x3DCDB672 EQ PUSH2 0xF5 JUMPI DUP1 PUSH4 0x4CD7184A EQ PUSH2 0x113 JUMPI DUP1 PUSH4 0x63B6F065 EQ PUSH2 0x131 JUMPI DUP1 PUSH4 0x952A9633 EQ PUSH2 0x164 JUMPI JUMPDEST PUSH1 0x0 DUP1 REVERT JUMPDEST PUSH2 0xC1 PUSH2 0x282 JUMP JUMPDEST PUSH1 0x40 MLOAD PUSH2 0xCE SWAP2 SWAP1 PUSH2 0x4FF JUMP JUMPDEST PUSH1 0x40 MLOAD DUP1 SWAP2 SUB SWAP1 RETURN JUMPDEST PUSH2 0xDF PUSH2 0x295 JUMP JUMPDEST PUSH1 0x40 MLOAD PUSH2 0xEC SWAP2 SWAP1 PUSH2 0x4FF JUMP JUMPDEST PUSH1 0x40 MLOAD DUP1 SWAP2 SUB SWAP1 RETURN JUMPDEST PUSH2 0xFD PUSH2 0x29A JUMP JUMPDEST PUSH1 0x40 MLOAD PUSH2 0x10A SWAP2 SWAP1 PUSH2 0x533 JUMP JUMPDEST PUSH1 0x40 MLOAD DUP1 SWAP2 SUB SWAP1 RETURN JUMPDEST PUSH2 0x11B PUSH2 0x29F JUMP JUMPDEST PUSH1 0x40 MLOAD PUSH2 0x128 SWAP2 SWAP1 PUSH2 0x4FF JUMP JUMPDEST PUSH1 0x40 MLOAD DUP1 SWAP2 SUB SWAP1 RETURN JUMPDEST PUSH2 0x14B PUSH1 0x4 DUP1 CALLDATASIZE SUB DUP2 ADD SWAP1 PUSH2 0x146 SWAP2 SWAP1 PUSH2 0x593 JUMP JUMPDEST PUSH2 0x2A4 JUMP JUMPDEST PUSH1 0x40 MLOAD PUSH2 0x15B SWAP5 SWAP4 SWAP3 SWAP2 SWAP1 PUSH2 0x610 JUMP JUMPDEST PUSH1 0x40 MLOAD DUP1 SWAP2 SUB SWAP1 RETURN JUMPDEST PUSH2 0x16C PUSH2 0x308 JUMP JUMPDEST PUSH1 0x40 MLOAD PUSH2 0x179 SWAP2 SWAP1 PUSH2 0x533 JUMP JUMPDEST PUSH1 0x40 MLOAD DUP1 SWAP2 SUB SWAP1 RETURN JUMPDEST PUSH2 0x19C PUSH1 0x4 DUP1 CALLDATASIZE SUB DUP2 ADD SWAP1 PUSH2 0x197 SWAP2 SWAP1 PUSH2 0x681 JUMP JUMPDEST PUSH2 0x323 JUMP JUMPDEST PUSH1 0x40 MLOAD PUSH2 0x1A9 SWAP2 SWAP1 PUSH2 0x533 JUMP JUMPDEST PUSH1 0x40 MLOAD DUP1 SWAP2 SUB SWAP1 RETURN JUMPDEST PUSH2 0x1BA PUSH2 0x33B JUMP JUMPDEST PUSH1 0x40 MLOAD PUSH2 0x1C7 SWAP2 SWAP1 PUSH2 0x4FF JUMP JUMPDEST PUSH1 0x40 MLOAD DUP1 SWAP2 SUB SWAP1 RETURN JUMPDEST PUSH2 0x1D8 PUSH2 0x340 JUMP JUMPDEST PUSH1 0x40 MLOAD PUSH2 0x1E5 SWAP2 SWAP1 PUSH2 0x734 JUMP JUMPDEST PUSH1 0x40 MLOAD DUP1 SWAP2 SUB SWAP1 RETURN JUMPDEST PUSH2 0x208 PUSH1 0x4 DUP1 CALLDATASIZE SUB DUP2 ADD SWAP1 PUSH2 0x203 SWAP2 SWAP1 PUSH2 0x681 JUMP JUMPDEST PUSH2 0x34B JUMP JUMPDEST PUSH1 0x40 MLOAD PUSH2 0x215 SWAP2 SWAP1 PUSH2 0x74F JUMP JUMPDEST PUSH1 0x40 MLOAD DUP1 SWAP2 SUB SWAP1 RETURN JUMPDEST PUSH2 0x238 PUSH1 0x4 DUP1 CALLDATASIZE SUB DUP2 ADD SWAP1 PUSH2 0x233 SWAP2 SWAP1 PUSH2 0x796 JUMP JUMPDEST PUSH2 0x389 JUMP JUMPDEST PUSH1 0x40 MLOAD PUSH2 0x245 SWAP2 SWAP1 PUSH2 0x74F JUMP JUMPDEST PUSH1 0x40 MLOAD DUP1 SWAP2 SUB SWAP1 RETURN JUMPDEST PUSH2 0x268 PUSH1 0x4 DUP1 CALLDATASIZE SUB DUP2 ADD SWAP1 PUSH2 0x263 SWAP2 SWAP1 PUSH2 0x681 JUMP JUMPDEST PUSH2 0x3E3 JUMP JUMPDEST PUSH1 0x40 MLOAD PUSH2 0x279 SWAP6 SWAP5 SWAP4 SWAP3 SWAP2 SWAP1 PUSH2 0x7E9 JUMP JUMPDEST PUSH1 0x40 MLOAD DUP1 SWAP2 SUB SWAP1 RETURN JUMPDEST PUSH1 0x3 PUSH1 0x0 SWAP1 SLOAD SWAP1 PUSH2 0x100 EXP SWAP1 DIV PUSH1 0xFF AND DUP2 JUMP JUMPDEST PUSH1 0x0 SWAP1 JUMP JUMPDEST PUSH1 0x0 SWAP1 JUMP JUMPDEST PUSH1 0x0 SWAP1 JUMP JUMPDEST PUSH1 0x8 PUSH1 0x20 MSTORE DUP1 PUSH1 0x0 MSTORE PUSH1 0x40 PUSH1 0x0 KECCAK256 PUSH1 0x0 SWAP2 POP SWAP1 POP DUP1 PUSH1 0x0 ADD PUSH1 0x0 SWAP1 SLOAD SWAP1 PUSH2 0x100 EXP SWAP1 DIV PUSH8 0xFFFFFFFFFFFFFFFF AND SWAP1 DUP1 PUSH1 0x0 ADD PUSH1 0x8 SWAP1 SLOAD SWAP1 PUSH2 0x100 EXP SWAP1 DIV PUSH20 0xFFFFFFFFFFFFFFFFFFFFFFFFFFFFFFFFFFFFFFFF AND SWAP1 DUP1 PUSH1 0x1 ADD SLOAD SWAP1 DUP1 PUSH1 0x2 ADD SLOAD SWAP1 POP DUP5 JUMP JUMPDEST PUSH1 0x0 PUSH2 0x314 PUSH1 0x1 PUSH2 0x469 JUMP JUMPDEST PUSH2 0x31E PUSH1 0x1 PUSH2 0x47F JUMP JUMPDEST SWAP1 POP SWAP1 JUMP JUMPDEST PUSH1 0x7 PUSH1 0x20 MSTORE DUP1 PUSH1 0x0 MSTORE PUSH1 0x40 PUSH1 0x0 KECCAK256 PUSH1 0x0 SWAP2 POP SWAP1 POP SLOAD DUP2 JUMP JUMPDEST PUSH1 0x0 SWAP1 JUMP JUMPDEST PUSH2 0x348 PUSH2 0x48D JUMP JUMPDEST SWAP1 JUMP JUMPDEST PUSH1 0x4 DUP2 DUP2 SLOAD DUP2 LT PUSH2 0x35B JUMPI PUSH1 0x0 DUP1 REVERT JUMPDEST SWAP1 PUSH1 0x0 MSTORE PUSH1 0x20 PUSH1 0x0 KECCAK256 SWAP1 PUSH1 0x4 SWAP2 DUP3 DUP3 DIV ADD SWAP2 SWAP1 MOD PUSH1 0x8 MUL SWAP2 POP SLOAD SWAP1 PUSH2 0x100 EXP SWAP1 DIV PUSH8 0xFFFFFFFFFFFFFFFF AND DUP2 JUMP JUMPDEST PUSH1 0x6 PUSH1 0x20 MSTORE DUP3 PUSH1 0x0 MSTORE PUSH1 0x40 PUSH1 0x0 KECCAK256 PUSH1 0x20 MSTORE DUP2 PUSH1 0x0 MSTORE PUSH1 0x40 PUSH1 0x0 KECCAK256 DUP2 DUP2 SLOAD DUP2 LT PUSH2 0x3B1 JUMPI PUSH1 0x0 DUP1 REVERT JUMPDEST SWAP1 PUSH1 0x0 MSTORE PUSH1 0x20 PUSH1 0x0 KECCAK256 SWAP1 PUSH1 0x4 SWAP2 DUP3 DUP3 DIV ADD SWAP2 SWAP1 MOD PUSH1 0x8 MUL SWAP3 POP SWAP3 POP POP SWAP1 SLOAD SWAP1 PUSH2 0x100 EXP SWAP1 DIV PUSH8 0xFFFFFFFFFFFFFFFF AND DUP2 JUMP JUMPDEST PUSH1 0x5 PUSH1 0x20 MSTORE DUP1 PUSH1 0x0 MSTORE PUSH1 0x40 PUSH1 0x0 KECCAK256 PUSH1 0x0 SWAP2 POP SWAP1 POP DUP1 PUSH1 0x0 ADD SLOAD SWAP1 DUP1 PUSH1 0x1 ADD PUSH1 0x0 SWAP1 SLOAD SWAP1 PUSH2 0x100 EXP SWAP1 DIV PUSH8 0xFFFFFFFFFFFFFFFF AND SWAP1 DUP1 PUSH1 0x1 ADD PUSH1 0x8 SWAP1 SLOAD SWAP1 PUSH2 0x100 EXP SWAP1 DIV PUSH8 0xFFFFFFFFFFFFFFFF AND SWAP1 DUP1 PUSH1 0x1 ADD PUSH1 0x10 SWAP1 SLOAD SWAP1 PUSH2 0x100 EXP SWAP1 DIV PUSH8 0xFFFFFFFFFFFFFFFF AND SWAP1 DUP1 PUSH1 0x1 ADD PUSH1 0x18 SWAP1 SLOAD SWAP1 PUSH2 0x100 EXP SWAP1 DIV PUSH8 0xFFFFFFFFFFFFFFFF AND SWAP1 POP DUP6 JUMP JUMPDEST PUSH1 0x1 DUP2 PUSH1 0x0 ADD PUSH1 0x0 DUP3 DUP3 SLOAD ADD SWAP3 POP POP DUP2 SWAP1 SSTORE POP POP JUMP JUMPDEST PUSH1 0x0 DUP2 PUSH1 0x0 ADD SLOAD SWAP1 POP SWAP2 SWAP1 POP JUMP JUMPDEST PUSH1 0x40 MLOAD DUP1 PUSH1 0xA0 ADD PUSH1 0x40 MSTORE DUP1 PUSH1 0x0 DUP2 MSTORE PUSH1 0x20 ADD PUSH1 0x0 PUSH8 0xFFFFFFFFFFFFFFFF AND DUP2 MSTORE PUSH1 0x20 ADD PUSH1 0x0 PUSH8 0xFFFFFFFFFFFFFFFF AND DUP2 MSTORE PUSH1 0x20 ADD PUSH1 0x0 PUSH8 0xFFFFFFFFFFFFFFFF AND DUP2 MSTORE PUSH1 0x20 ADD PUSH1 0x0 PUSH8 0xFFFFFFFFFFFFFFFF AND DUP2 MSTORE POP SWAP1 JUMP JUMPDEST PUSH1 0x0 DUP2 ISZERO ISZERO SWAP1 POP SWAP2 SWAP1 POP JUMP JUMPDEST PUSH2 0x4F9 DUP2 PUSH2 0x4E4 JUMP JUMPDEST DUP3 MSTORE POP POP JUMP JUMPDEST PUSH1 0x0 PUSH1 0x20 DUP3 ADD SWAP1 POP PUSH2 0x514 PUSH1 0x0 DUP4 ADD DUP5 PUSH2 0x4F0 JUMP JUMPDEST SWAP3 SWAP2 POP POP JUMP JUMPDEST PUSH1 0x0 DUP2 SWAP1 POP SWAP2 SWAP1 POP JUMP JUMPDEST PUSH2 0x52D DUP2 PUSH2 0x51A JUMP JUMPDEST DUP3 MSTORE POP POP JUMP JUMPDEST PUSH1 0x0 PUSH1 0x20 DUP3 ADD SWAP1 POP PUSH2 0x548 PUSH1 0x0 DUP4 ADD DUP5 PUSH2 0x524 JUMP JUMPDEST SWAP3 SWAP2 POP POP JUMP JUMPDEST PUSH1 0x0 DUP1 REVERT JUMPDEST PUSH1 0x0 PUSH8 0xFFFFFFFFFFFFFFFF DUP3 AND SWAP1 POP SWAP2 SWAP1 POP JUMP JUMPDEST PUSH2 0x570 DUP2 PUSH2 0x553 JUMP JUMPDEST DUP2 EQ PUSH2 0x57B JUMPI PUSH1 0x0 DUP1 REVERT JUMPDEST POP JUMP JUMPDEST PUSH1 0x0 DUP2 CALLDATALOAD SWAP1 POP PUSH2 0x58D DUP2 PUSH2 0x567 JUMP JUMPDEST SWAP3 SWAP2 POP POP JUMP JUMPDEST PUSH1 0x0 PUSH1 0x20 DUP3 DUP5 SUB SLT ISZERO PUSH2 0x5A9 JUMPI PUSH2 0x5A8 PUSH2 0x54E JUMP JUMPDEST JUMPDEST PUSH1 0x0 PUSH2 0x5B7 DUP5 DUP3 DUP6 ADD PUSH2 0x57E JUMP JUMPDEST SWAP2 POP POP SWAP3 SWAP2 POP POP JUMP JUMPDEST PUSH2 0x5C9 DUP2 PUSH2 0x553 JUMP JUMPDEST DUP3 MSTORE POP POP JUMP JUMPDEST PUSH1 0x0 PUSH20 0xFFFFFFFFFFFFFFFFFFFFFFFFFFFFFFFFFFFFFFFF DUP3 AND SWAP1 POP SWAP2 SWAP1 POP JUMP JUMPDEST PUSH1 0x0 PUSH2 0x5FA DUP3 PUSH2 0x5CF JUMP JUMPDEST SWAP1 POP SWAP2 SWAP1 POP JUMP JUMPDEST PUSH2 0x60A DUP2 PUSH2 0x5EF JUMP JUMPDEST DUP3 MSTORE POP POP JUMP JUMPDEST PUSH1 0x0 PUSH1 0x80 DUP3 ADD SWAP1 POP PUSH2 0x625 PUSH1 0x0 DUP4 ADD DUP8 PUSH2 0x5C0 JUMP JUMPDEST PUSH2 0x632 PUSH1 0x20 DUP4 ADD DUP7 PUSH2 0x601 JUMP JUMPDEST PUSH2 0x63F PUSH1 0x40 DUP4 ADD DUP6 PUSH2 0x524 JUMP JUMPDEST PUSH2 0x64C PUSH1 0x60 DUP4 ADD DUP5 PUSH2 0x524 JUMP JUMPDEST SWAP6 SWAP5 POP POP POP POP POP JUMP JUMPDEST PUSH2 0x65E DUP2 PUSH2 0x51A JUMP JUMPDEST DUP2 EQ PUSH2 0x669 JUMPI PUSH1 0x0 DUP1 REVERT JUMPDEST POP JUMP JUMPDEST PUSH1 0x0 DUP2 CALLDATALOAD SWAP1 POP PUSH2 0x67B DUP2 PUSH2 0x655 JUMP JUMPDEST SWAP3 SWAP2 POP POP JUMP JUMPDEST PUSH1 0x0 PUSH1 0x20 DUP3 DUP5 SUB SLT ISZERO PUSH2 0x697 JUMPI PUSH2 0x696 PUSH2 0x54E JUMP JUMPDEST JUMPDEST PUSH1 0x0 PUSH2 0x6A5 DUP5 DUP3 DUP6 ADD PUSH2 0x66C JUMP JUMPDEST SWAP2 POP POP SWAP3 SWAP2 POP POP JUMP JUMPDEST PUSH2 0x6B7 DUP2 PUSH2 0x51A JUMP JUMPDEST DUP3 MSTORE POP POP JUMP JUMPDEST PUSH2 0x6C6 DUP2 PUSH2 0x553 JUMP JUMPDEST DUP3 MSTORE POP POP JUMP JUMPDEST PUSH1 0xA0 DUP3 ADD PUSH1 0x0 DUP3 ADD MLOAD PUSH2 0x6E2 PUSH1 0x0 DUP6 ADD DUP3 PUSH2 0x6AE JUMP JUMPDEST POP PUSH1 0x20 DUP3 ADD MLOAD PUSH2 0x6F5 PUSH1 0x20 DUP6 ADD DUP3 PUSH2 0x6BD JUMP JUMPDEST POP PUSH1 0x40 DUP3 ADD MLOAD PUSH2 0x708 PUSH1 0x40 DUP6 ADD DUP3 PUSH2 0x6BD JUMP JUMPDEST POP PUSH1 0x60 DUP3 ADD MLOAD PUSH2 0x71B PUSH1 0x60 DUP6 ADD DUP3 PUSH2 0x6BD JUMP JUMPDEST POP PUSH1 0x80 DUP3 ADD MLOAD PUSH2 0x72E PUSH1 0x80 DUP6 ADD DUP3 PUSH2 0x6BD JUMP JUMPDEST POP POP POP POP JUMP JUMPDEST PUSH1 0x0 PUSH1 0xA0 DUP3 ADD SWAP1 POP PUSH2 0x749 PUSH1 0x0 DUP4 ADD DUP5 PUSH2 0x6CC JUMP JUMPDEST SWAP3 SWAP2 POP POP JUMP JUMPDEST PUSH1 0x0 PUSH1 0x20 DUP3 ADD SWAP1 POP PUSH2 0x764 PUSH1 0x0 DUP4 ADD DUP5 PUSH2 0x5C0 JUMP JUMPDEST SWAP3 SWAP2 POP POP JUMP JUMPDEST PUSH2 0x773 DUP2 PUSH2 0x5EF JUMP JUMPDEST DUP2 EQ PUSH2 0x77E JUMPI PUSH1 0x0 DUP1 REVERT JUMPDEST POP JUMP JUMPDEST PUSH1 0x0 DUP2 CALLDATALOAD SWAP1 POP PUSH2 0x790 DUP2 PUSH2 0x76A JUMP JUMPDEST SWAP3 SWAP2 POP POP JUMP JUMPDEST PUSH1 0x0 DUP1 PUSH1 0x0 PUSH1 0x60 DUP5 DUP7 SUB SLT ISZERO PUSH2 0x7AF JUMPI PUSH2 0x7AE PUSH2 0x54E JUMP JUMPDEST JUMPDEST PUSH1 0x0 PUSH2 0x7BD DUP7 DUP3 DUP8 ADD PUSH2 0x781 JUMP JUMPDEST SWAP4 POP POP PUSH1 0x20 PUSH2 0x7CE DUP7 DUP3 DUP8 ADD PUSH2 0x66C JUMP JUMPDEST SWAP3 POP POP PUSH1 0x40 PUSH2 0x7DF DUP7 DUP3 DUP8 ADD PUSH2 0x66C JUMP JUMPDEST SWAP2 POP POP SWAP3 POP SWAP3 POP SWAP3 JUMP JUMPDEST PUSH1 0x0 PUSH1 0xA0 DUP3 ADD SWAP1 POP PUSH2 0x7FE PUSH1 0x0 DUP4 ADD DUP9 PUSH2 0x524 JUMP JUMPDEST PUSH2 0x80B PUSH1 0x20 DUP4 ADD DUP8 PUSH2 0x5C0 JUMP JUMPDEST PUSH2 0x818 PUSH1 0x40 DUP4 ADD DUP7 PUSH2 0x5C0 JUMP JUMPDEST PUSH2 0x825 PUSH1 0x60 DUP4 ADD DUP6 PUSH2 0x5C0 JUMP JUMPDEST PUSH2 0x832 PUSH1 0x80 DUP4 ADD DUP5 PUSH2 0x5C0 JUMP JUMPDEST SWAP7 SWAP6 POP POP POP POP POP POP JUMP INVALID LOG2 PUSH5 0x6970667358 0x22 SLT KECCAK256 0xAD PUSH7 0x97355834921A24 DUP2 0x5D SIGNEXTEND SLOAD 0xA9 0xC7 SELFDESTRUCT SWAP10 0x5D CALLDATALOAD 0xE8 0xB4 0xE6 SWAP14 PUSH24 0xC3985C59A2B2E88F64736F6C634300081200330000000000 "
				},
				"gasEstimates": {
					"creation": {
						"codeDepositCost": "432400",
						"executionCost": "infinite",
						"totalCost": "infinite"
					},
					"external": {
						"active()": "2472",
						"balls(uint64)": "infinite",
						"endSeason()": "374",
						"getCurrentSeason()": "infinite",
						"issueBalls()": "358",
						"requestWinningBallId()": "357",
						"requestWinningCode()": "402",
						"revealGroupSeeds(uint256)": "infinite",
						"revealPending(uint256)": "6615",
						"seasons(uint256)": "infinite",
						"startSeason()": "26865",
						"userBalls(address,uint256,uint256)": "infinite"
					}
				},
				"methodIdentifiers": {
					"active()": "02fb0c5e",
					"balls(uint64)": "63b6f065",
					"endSeason()": "3dcdb672",
					"getCurrentSeason()": "d3b30b75",
					"issueBalls()": "0bd8a117",
					"requestWinningBallId()": "c419857f",
					"requestWinningCode()": "4cd7184a",
					"revealGroupSeeds(uint256)": "b29e60ef",
					"revealPending(uint256)": "f2bdbc62",
					"seasons(uint256)": "f5d709a1",
					"startSeason()": "952a9633",
					"userBalls(address,uint256,uint256)": "f4225ee1"
				}
			},
			"storageLayout": {
				"storage": [
					{
						"astId": 160,
						"contract": "contracts/Lock.sol:LuckyBall",
						"label": "_ballIds",
						"offset": 0,
						"slot": "0",
						"type": "t_struct(Counter)5_storage"
					},
					{
						"astId": 163,
						"contract": "contracts/Lock.sol:LuckyBall",
						"label": "_seasonIds",
						"offset": 0,
						"slot": "1",
						"type": "t_struct(Counter)5_storage"
					},
					{
						"astId": 166,
						"contract": "contracts/Lock.sol:LuckyBall",
						"label": "_revealGroups",
						"offset": 0,
						"slot": "2",
						"type": "t_struct(Counter)5_storage"
					},
					{
						"astId": 169,
						"contract": "contracts/Lock.sol:LuckyBall",
						"label": "active",
						"offset": 0,
						"slot": "3",
						"type": "t_bool"
					},
					{
						"astId": 172,
						"contract": "contracts/Lock.sol:LuckyBall",
						"label": "revealPending",
						"offset": 0,
						"slot": "4",
						"type": "t_array(t_uint64)dyn_storage"
					},
					{
						"astId": 211,
						"contract": "contracts/Lock.sol:LuckyBall",
						"label": "seasons",
						"offset": 0,
						"slot": "5",
						"type": "t_mapping(t_uint256,t_struct(Season)183_storage)"
					},
					{
						"astId": 218,
						"contract": "contracts/Lock.sol:LuckyBall",
						"label": "userBalls",
						"offset": 0,
						"slot": "6",
						"type": "t_mapping(t_address,t_mapping(t_uint256,t_array(t_uint64)dyn_storage))"
					},
					{
						"astId": 222,
						"contract": "contracts/Lock.sol:LuckyBall",
						"label": "revealGroupSeeds",
						"offset": 0,
						"slot": "7",
						"type": "t_mapping(t_uint256,t_uint256)"
					},
					{
						"astId": 227,
						"contract": "contracts/Lock.sol:LuckyBall",
						"label": "balls",
						"offset": 0,
						"slot": "8",
						"type": "t_mapping(t_uint64,t_struct(Ball)192_storage)"
					}
				],
				"types": {
					"t_address": {
						"encoding": "inplace",
						"label": "address",
						"numberOfBytes": "20"
					},
					"t_array(t_uint64)dyn_storage": {
						"base": "t_uint64",
						"encoding": "dynamic_array",
						"label": "uint64[]",
						"numberOfBytes": "32"
					},
					"t_bool": {
						"encoding": "inplace",
						"label": "bool",
						"numberOfBytes": "1"
					},
					"t_mapping(t_address,t_mapping(t_uint256,t_array(t_uint64)dyn_storage))": {
						"encoding": "mapping",
						"key": "t_address",
						"label": "mapping(address => mapping(uint256 => uint64[]))",
						"numberOfBytes": "32",
						"value": "t_mapping(t_uint256,t_array(t_uint64)dyn_storage)"
					},
					"t_mapping(t_uint256,t_array(t_uint64)dyn_storage)": {
						"encoding": "mapping",
						"key": "t_uint256",
						"label": "mapping(uint256 => uint64[])",
						"numberOfBytes": "32",
						"value": "t_array(t_uint64)dyn_storage"
					},
					"t_mapping(t_uint256,t_struct(Season)183_storage)": {
						"encoding": "mapping",
						"key": "t_uint256",
						"label": "mapping(uint256 => struct LuckyBall.Season)",
						"numberOfBytes": "32",
						"value": "t_struct(Season)183_storage"
					},
					"t_mapping(t_uint256,t_uint256)": {
						"encoding": "mapping",
						"key": "t_uint256",
						"label": "mapping(uint256 => uint256)",
						"numberOfBytes": "32",
						"value": "t_uint256"
					},
					"t_mapping(t_uint64,t_struct(Ball)192_storage)": {
						"encoding": "mapping",
						"key": "t_uint64",
						"label": "mapping(uint64 => struct LuckyBall.Ball)",
						"numberOfBytes": "32",
						"value": "t_struct(Ball)192_storage"
					},
					"t_struct(Ball)192_storage": {
						"encoding": "inplace",
						"label": "struct LuckyBall.Ball",
						"members": [
							{
								"astId": 185,
								"contract": "contracts/Lock.sol:LuckyBall",
								"label": "ballId",
								"offset": 0,
								"slot": "0",
								"type": "t_uint64"
							},
							{
								"astId": 187,
								"contract": "contracts/Lock.sol:LuckyBall",
								"label": "owner",
								"offset": 8,
								"slot": "0",
								"type": "t_address"
							},
							{
								"astId": 189,
								"contract": "contracts/Lock.sol:LuckyBall",
								"label": "seasonId",
								"offset": 0,
								"slot": "1",
								"type": "t_uint256"
							},
							{
								"astId": 191,
								"contract": "contracts/Lock.sol:LuckyBall",
								"label": "revealGroup",
								"offset": 0,
								"slot": "2",
								"type": "t_uint256"
							}
						],
						"numberOfBytes": "96"
					},
					"t_struct(Counter)5_storage": {
						"encoding": "inplace",
						"label": "struct Counters.Counter",
						"members": [
							{
								"astId": 4,
								"contract": "contracts/Lock.sol:LuckyBall",
								"label": "_value",
								"offset": 0,
								"slot": "0",
								"type": "t_uint256"
							}
						],
						"numberOfBytes": "32"
					},
					"t_struct(Season)183_storage": {
						"encoding": "inplace",
						"label": "struct LuckyBall.Season",
						"members": [
							{
								"astId": 174,
								"contract": "contracts/Lock.sol:LuckyBall",
								"label": "seasonId",
								"offset": 0,
								"slot": "0",
								"type": "t_uint256"
							},
							{
								"astId": 176,
								"contract": "contracts/Lock.sol:LuckyBall",
								"label": "startBallId",
								"offset": 0,
								"slot": "1",
								"type": "t_uint64"
							},
							{
								"astId": 178,
								"contract": "contracts/Lock.sol:LuckyBall",
								"label": "endBallId",
								"offset": 8,
								"slot": "1",
								"type": "t_uint64"
							},
							{
								"astId": 180,
								"contract": "contracts/Lock.sol:LuckyBall",
								"label": "winningCode",
								"offset": 16,
								"slot": "1",
								"type": "t_uint64"
							},
							{
								"astId": 182,
								"contract": "contracts/Lock.sol:LuckyBall",
								"label": "winningBallId",
								"offset": 24,
								"slot": "1",
								"type": "t_uint64"
							}
						],
						"numberOfBytes": "64"
					},
					"t_uint256": {
						"encoding": "inplace",
						"label": "uint256",
						"numberOfBytes": "32"
					},
					"t_uint64": {
						"encoding": "inplace",
						"label": "uint64",
						"numberOfBytes": "8"
					}
				}
			},
			"userdoc": {
				"kind": "user",
				"methods": {},
				"version": 1
			}
		}
	}
}