{
	"TypedData.sol": {
		"VerifyTypedData": {
			"abi": [
				{
					"inputs": [],
					"stateMutability": "nonpayable",
					"type": "constructor"
				},
				{
					"inputs": [],
					"name": "DOMAIN_SEPARATOR",
					"outputs": [
						{
							"internalType": "bytes32",
							"name": "",
							"type": "bytes32"
						}
					],
					"stateMutability": "view",
					"type": "function"
				},
				{
					"inputs": [],
					"name": "getDomainInfo",
					"outputs": [
						{
							"internalType": "string",
							"name": "",
							"type": "string"
						},
						{
							"internalType": "string",
							"name": "",
							"type": "string"
						},
						{
							"internalType": "uint256",
							"name": "",
							"type": "uint256"
						},
						{
							"internalType": "address",
							"name": "",
							"type": "address"
						}
					],
					"stateMutability": "view",
					"type": "function"
				},
				{
					"inputs": [
						{
							"internalType": "address",
							"name": "_user",
							"type": "address"
						},
						{
							"internalType": "uint256",
							"name": "_deadline",
							"type": "uint256"
						},
						{
							"internalType": "uint256",
							"name": "_nonce",
							"type": "uint256"
						}
					],
					"name": "getEIP712Hash",
					"outputs": [
						{
							"internalType": "bytes32",
							"name": "",
							"type": "bytes32"
						}
					],
					"stateMutability": "view",
					"type": "function"
				},
				{
					"inputs": [],
					"name": "getRelayMessageTypes",
					"outputs": [
						{
							"internalType": "string",
							"name": "",
							"type": "string"
						}
					],
					"stateMutability": "pure",
					"type": "function"
				},
				{
					"inputs": [
						{
							"internalType": "address",
							"name": "user",
							"type": "address"
						}
					],
					"name": "nonces",
					"outputs": [
						{
							"internalType": "uint256",
							"name": "",
							"type": "uint256"
						}
					],
					"stateMutability": "view",
					"type": "function"
				},
				{
					"inputs": [
						{
							"internalType": "address",
							"name": "_user",
							"type": "address"
						},
						{
							"internalType": "uint256",
							"name": "_deadline",
							"type": "uint256"
						},
						{
							"internalType": "uint8",
							"name": "v",
							"type": "uint8"
						},
						{
							"internalType": "bytes32",
							"name": "r",
							"type": "bytes32"
						},
						{
							"internalType": "bytes32",
							"name": "s",
							"type": "bytes32"
						}
					],
					"name": "verifySig",
					"outputs": [
						{
							"internalType": "bool",
							"name": "",
							"type": "bool"
						}
					],
					"stateMutability": "view",
					"type": "function"
				}
			],
			"devdoc": {
				"kind": "dev",
				"methods": {},
				"version": 1
			},
			"evm": {
				"assembly": "    /* \"TypedData.sol\":59:2431  contract VerifyTypedData {... */\n  mstore(0x40, 0x80)\n    /* \"TypedData.sol\":176:228  constructor() {... */\n  callvalue\n  dup1\n  iszero\n  tag_1\n  jumpi\n  0x00\n  dup1\n  revert\ntag_1:\n  pop\n    /* \"TypedData.sol\":200:221  _setDomainSeparator() */\n  tag_4\n    /* \"TypedData.sol\":200:219  _setDomainSeparator */\n  shl(0x20, tag_5)\n    /* \"TypedData.sol\":200:221  _setDomainSeparator() */\n  0x20\n  shr\n  jump\t// in\ntag_4:\n    /* \"TypedData.sol\":59:2431  contract VerifyTypedData {... */\n  jump(tag_6)\n    /* \"TypedData.sol\":876:1482  function _setDomainSeparator() internal {... */\ntag_5:\n    /* \"TypedData.sol\":926:958  string memory EIP712_DOMAIN_TYPE */\n  0x00\n    /* \"TypedData.sol\":926:1045  string memory EIP712_DOMAIN_TYPE = \"EIP712Domain(string name,string version,uint256 chainId,address verifyingContract)\" */\n  mload(0x40)\n  dup1\n  0x80\n  add\n  0x40\n  mstore\n  dup1\n  0x52\n  dup2\n  mstore\n  0x20\n  add\n  data_8b73c3c69bb8fe3d512ecc4cf759cc79239f7b179b0ffacaa9a75d522b39400f\n  0x52\n  swap2\n  codecopy\n  swap1\n  pop\n    /* \"TypedData.sol\":1057:1075  string memory name */\n  0x00\n    /* \"TypedData.sol\":1077:1098  string memory version */\n  dup1\n    /* \"TypedData.sol\":1100:1112  uint chainId */\n  0x00\n    /* \"TypedData.sol\":1114:1139  address verifyingContract */\n  dup1\n    /* \"TypedData.sol\":1144:1159  getDomainInfo() */\n  tag_8\n    /* \"TypedData.sol\":1144:1157  getDomainInfo */\n  shl(0x20, tag_9)\n    /* \"TypedData.sol\":1144:1159  getDomainInfo() */\n  0x20\n  shr\n  jump\t// in\ntag_8:\n    /* \"TypedData.sol\":1055:1159  ( string memory name, string memory version, uint chainId, address verifyingContract ) = getDomainInfo() */\n  swap4\n  pop\n  swap4\n  pop\n  swap4\n  pop\n  swap4\n  pop\n    /* \"TypedData.sol\":1266:1284  EIP712_DOMAIN_TYPE */\n  dup5\n    /* \"TypedData.sol\":1249:1285  abi.encodePacked(EIP712_DOMAIN_TYPE) */\n  add(0x20, mload(0x40))\n  tag_10\n  swap2\n  swap1\n  tag_11\n  jump\t// in\ntag_10:\n  mload(0x40)\n  0x20\n  dup2\n  dup4\n  sub\n  sub\n  dup2\n  mstore\n  swap1\n  0x40\n  mstore\n    /* \"TypedData.sol\":1239:1286  keccak256(abi.encodePacked(EIP712_DOMAIN_TYPE)) */\n  dup1\n  mload\n  swap1\n  0x20\n  add\n  keccak256\n    /* \"TypedData.sol\":1331:1335  name */\n  dup5\n    /* \"TypedData.sol\":1314:1336  abi.encodePacked(name) */\n  add(0x20, mload(0x40))\n  tag_12\n  swap2\n  swap1\n  tag_11\n  jump\t// in\ntag_12:\n  mload(0x40)\n  0x20\n  dup2\n  dup4\n  sub\n  sub\n  dup2\n  mstore\n  swap1\n  0x40\n  mstore\n    /* \"TypedData.sol\":1304:1337  keccak256(abi.encodePacked(name)) */\n  dup1\n  mload\n  swap1\n  0x20\n  add\n  keccak256\n    /* \"TypedData.sol\":1382:1389  version */\n  dup5\n    /* \"TypedData.sol\":1365:1390  abi.encodePacked(version) */\n  add(0x20, mload(0x40))\n  tag_13\n  swap2\n  swap1\n  tag_11\n  jump\t// in\ntag_13:\n  mload(0x40)\n  0x20\n  dup2\n  dup4\n  sub\n  sub\n  dup2\n  mstore\n  swap1\n  0x40\n  mstore\n    /* \"TypedData.sol\":1355:1391  keccak256(abi.encodePacked(version)) */\n  dup1\n  mload\n  swap1\n  0x20\n  add\n  keccak256\n    /* \"TypedData.sol\":1409:1416  chainId */\n  dup5\n    /* \"TypedData.sol\":1434:1451  verifyingContract */\n  dup5\n    /* \"TypedData.sol\":1211:1465  abi.encode(... */\n  add(0x20, mload(0x40))\n  tag_14\n  swap6\n  swap5\n  swap4\n  swap3\n  swap2\n  swap1\n  tag_15\n  jump\t// in\ntag_14:\n  mload(0x40)\n  0x20\n  dup2\n  dup4\n  sub\n  sub\n  dup2\n  mstore\n  swap1\n  0x40\n  mstore\n    /* \"TypedData.sol\":1188:1475  keccak256(... */\n  dup1\n  mload\n  swap1\n  0x20\n  add\n  keccak256\n    /* \"TypedData.sol\":1169:1185  DOMAIN_SEPARATOR */\n  0x00\n    /* \"TypedData.sol\":1169:1475  DOMAIN_SEPARATOR = keccak256(... */\n  dup2\n  swap1\n  sstore\n  pop\n    /* \"TypedData.sol\":916:1482  {... */\n  pop\n  pop\n  pop\n  pop\n  pop\n    /* \"TypedData.sol\":876:1482  function _setDomainSeparator() internal {... */\n  jump\t// out\n    /* \"TypedData.sol\":340:672  function getDomainInfo() public view returns (string memory, string memory, uint, address) {... */\ntag_9:\n    /* \"TypedData.sol\":386:399  string memory */\n  0x60\n    /* \"TypedData.sol\":401:414  string memory */\n  dup1\n    /* \"TypedData.sol\":416:420  uint */\n  0x00\n    /* \"TypedData.sol\":422:429  address */\n  dup1\n    /* \"TypedData.sol\":441:459  string memory name */\n  0x00\n    /* \"TypedData.sol\":441:479  string memory name = \"LuckyBall_Relay\" */\n  mload(0x40)\n  dup1\n  0x40\n  add\n  0x40\n  mstore\n  dup1\n  0x0f\n  dup2\n  mstore\n  0x20\n  add\n  0x4c75636b7942616c6c5f52656c61790000000000000000000000000000000000\n  dup2\n  mstore\n  pop\n  swap1\n  pop\n    /* \"TypedData.sol\":489:510  string memory version */\n  0x00\n    /* \"TypedData.sol\":489:516  string memory version = \"1\" */\n  mload(0x40)\n  dup1\n  0x40\n  add\n  0x40\n  mstore\n  dup1\n  0x01\n  dup2\n  mstore\n  0x20\n  add\n  0x3100000000000000000000000000000000000000000000000000000000000000\n  dup2\n  mstore\n  pop\n  swap1\n  pop\n    /* \"TypedData.sol\":526:538  uint chainId */\n  0x00\n    /* \"TypedData.sol\":541:554  block.chainid */\n  chainid\n    /* \"TypedData.sol\":526:554  uint chainId = block.chainid */\n  swap1\n  pop\n    /* \"TypedData.sol\":564:589  address verifyingContract */\n  0x00\n    /* \"TypedData.sol\":600:604  this */\n  address\n    /* \"TypedData.sol\":564:605  address verifyingContract = address(this) */\n  swap1\n  pop\n    /* \"TypedData.sol\":623:627  name */\n  dup4\n    /* \"TypedData.sol\":629:636  version */\n  dup4\n    /* \"TypedData.sol\":638:645  chainId */\n  dup4\n    /* \"TypedData.sol\":647:664  verifyingContract */\n  dup4\n    /* \"TypedData.sol\":615:665  return (name, version, chainId, verifyingContract) */\n  swap8\n  pop\n  swap8\n  pop\n  swap8\n  pop\n  swap8\n  pop\n  pop\n  pop\n  pop\n  pop\n    /* \"TypedData.sol\":340:672  function getDomainInfo() public view returns (string memory, string memory, uint, address) {... */\n  swap1\n  swap2\n  swap3\n  swap4\n  jump\t// out\n    /* \"#utility.yul\":7:106   */\ntag_17:\n    /* \"#utility.yul\":59:65   */\n  0x00\n    /* \"#utility.yul\":93:98   */\n  dup2\n    /* \"#utility.yul\":87:99   */\n  mload\n    /* \"#utility.yul\":77:99   */\n  swap1\n  pop\n    /* \"#utility.yul\":7:106   */\n  swap2\n  swap1\n  pop\n  jump\t// out\n    /* \"#utility.yul\":112:260   */\ntag_18:\n    /* \"#utility.yul\":214:225   */\n  0x00\n    /* \"#utility.yul\":251:254   */\n  dup2\n    /* \"#utility.yul\":236:254   */\n  swap1\n  pop\n    /* \"#utility.yul\":112:260   */\n  swap3\n  swap2\n  pop\n  pop\n  jump\t// out\n    /* \"#utility.yul\":266:573   */\ntag_19:\n    /* \"#utility.yul\":334:335   */\n  0x00\n    /* \"#utility.yul\":344:457   */\ntag_32:\n    /* \"#utility.yul\":358:364   */\n  dup4\n    /* \"#utility.yul\":355:356   */\n  dup2\n    /* \"#utility.yul\":352:365   */\n  lt\n    /* \"#utility.yul\":344:457   */\n  iszero\n  tag_34\n  jumpi\n    /* \"#utility.yul\":443:444   */\n  dup1\n    /* \"#utility.yul\":438:441   */\n  dup3\n    /* \"#utility.yul\":434:445   */\n  add\n    /* \"#utility.yul\":428:446   */\n  mload\n    /* \"#utility.yul\":424:425   */\n  dup2\n    /* \"#utility.yul\":419:422   */\n  dup5\n    /* \"#utility.yul\":415:426   */\n  add\n    /* \"#utility.yul\":408:447   */\n  mstore\n    /* \"#utility.yul\":380:382   */\n  0x20\n    /* \"#utility.yul\":377:378   */\n  dup2\n    /* \"#utility.yul\":373:383   */\n  add\n    /* \"#utility.yul\":368:383   */\n  swap1\n  pop\n    /* \"#utility.yul\":344:457   */\n  jump(tag_32)\ntag_34:\n    /* \"#utility.yul\":475:481   */\n  dup4\n    /* \"#utility.yul\":472:473   */\n  dup2\n    /* \"#utility.yul\":469:482   */\n  gt\n    /* \"#utility.yul\":466:567   */\n  iszero\n  tag_35\n  jumpi\n    /* \"#utility.yul\":555:556   */\n  0x00\n    /* \"#utility.yul\":546:552   */\n  dup5\n    /* \"#utility.yul\":541:544   */\n  dup5\n    /* \"#utility.yul\":537:553   */\n  add\n    /* \"#utility.yul\":530:557   */\n  mstore\n    /* \"#utility.yul\":466:567   */\ntag_35:\n    /* \"#utility.yul\":315:573   */\n  pop\n    /* \"#utility.yul\":266:573   */\n  pop\n  pop\n  pop\n  jump\t// out\n    /* \"#utility.yul\":579:956   */\ntag_20:\n    /* \"#utility.yul\":685:688   */\n  0x00\n    /* \"#utility.yul\":713:752   */\n  tag_37\n    /* \"#utility.yul\":746:751   */\n  dup3\n    /* \"#utility.yul\":713:752   */\n  tag_17\n  jump\t// in\ntag_37:\n    /* \"#utility.yul\":768:857   */\n  tag_38\n    /* \"#utility.yul\":850:856   */\n  dup2\n    /* \"#utility.yul\":845:848   */\n  dup6\n    /* \"#utility.yul\":768:857   */\n  tag_18\n  jump\t// in\ntag_38:\n    /* \"#utility.yul\":761:857   */\n  swap4\n  pop\n    /* \"#utility.yul\":866:918   */\n  tag_39\n    /* \"#utility.yul\":911:917   */\n  dup2\n    /* \"#utility.yul\":906:909   */\n  dup6\n    /* \"#utility.yul\":899:903   */\n  0x20\n    /* \"#utility.yul\":892:897   */\n  dup7\n    /* \"#utility.yul\":888:904   */\n  add\n    /* \"#utility.yul\":866:918   */\n  tag_19\n  jump\t// in\ntag_39:\n    /* \"#utility.yul\":943:949   */\n  dup1\n    /* \"#utility.yul\":938:941   */\n  dup5\n    /* \"#utility.yul\":934:950   */\n  add\n    /* \"#utility.yul\":927:950   */\n  swap2\n  pop\n    /* \"#utility.yul\":689:956   */\n  pop\n    /* \"#utility.yul\":579:956   */\n  swap3\n  swap2\n  pop\n  pop\n  jump\t// out\n    /* \"#utility.yul\":962:1237   */\ntag_11:\n    /* \"#utility.yul\":1094:1097   */\n  0x00\n    /* \"#utility.yul\":1116:1211   */\n  tag_41\n    /* \"#utility.yul\":1207:1210   */\n  dup3\n    /* \"#utility.yul\":1198:1204   */\n  dup5\n    /* \"#utility.yul\":1116:1211   */\n  tag_20\n  jump\t// in\ntag_41:\n    /* \"#utility.yul\":1109:1211   */\n  swap2\n  pop\n    /* \"#utility.yul\":1228:1231   */\n  dup2\n    /* \"#utility.yul\":1221:1231   */\n  swap1\n  pop\n    /* \"#utility.yul\":962:1237   */\n  swap3\n  swap2\n  pop\n  pop\n  jump\t// out\n    /* \"#utility.yul\":1243:1320   */\ntag_21:\n    /* \"#utility.yul\":1280:1287   */\n  0x00\n    /* \"#utility.yul\":1309:1314   */\n  dup2\n    /* \"#utility.yul\":1298:1314   */\n  swap1\n  pop\n    /* \"#utility.yul\":1243:1320   */\n  swap2\n  swap1\n  pop\n  jump\t// out\n    /* \"#utility.yul\":1326:1444   */\ntag_22:\n    /* \"#utility.yul\":1413:1437   */\n  tag_44\n    /* \"#utility.yul\":1431:1436   */\n  dup2\n    /* \"#utility.yul\":1413:1437   */\n  tag_21\n  jump\t// in\ntag_44:\n    /* \"#utility.yul\":1408:1411   */\n  dup3\n    /* \"#utility.yul\":1401:1438   */\n  mstore\n    /* \"#utility.yul\":1326:1444   */\n  pop\n  pop\n  jump\t// out\n    /* \"#utility.yul\":1450:1527   */\ntag_23:\n    /* \"#utility.yul\":1487:1494   */\n  0x00\n    /* \"#utility.yul\":1516:1521   */\n  dup2\n    /* \"#utility.yul\":1505:1521   */\n  swap1\n  pop\n    /* \"#utility.yul\":1450:1527   */\n  swap2\n  swap1\n  pop\n  jump\t// out\n    /* \"#utility.yul\":1533:1651   */\ntag_24:\n    /* \"#utility.yul\":1620:1644   */\n  tag_47\n    /* \"#utility.yul\":1638:1643   */\n  dup2\n    /* \"#utility.yul\":1620:1644   */\n  tag_23\n  jump\t// in\ntag_47:\n    /* \"#utility.yul\":1615:1618   */\n  dup3\n    /* \"#utility.yul\":1608:1645   */\n  mstore\n    /* \"#utility.yul\":1533:1651   */\n  pop\n  pop\n  jump\t// out\n    /* \"#utility.yul\":1657:1783   */\ntag_25:\n    /* \"#utility.yul\":1694:1701   */\n  0x00\n    /* \"#utility.yul\":1734:1776   */\n  0xffffffffffffffffffffffffffffffffffffffff\n    /* \"#utility.yul\":1727:1732   */\n  dup3\n    /* \"#utility.yul\":1723:1777   */\n  and\n    /* \"#utility.yul\":1712:1777   */\n  swap1\n  pop\n    /* \"#utility.yul\":1657:1783   */\n  swap2\n  swap1\n  pop\n  jump\t// out\n    /* \"#utility.yul\":1789:1885   */\ntag_26:\n    /* \"#utility.yul\":1826:1833   */\n  0x00\n    /* \"#utility.yul\":1855:1879   */\n  tag_50\n    /* \"#utility.yul\":1873:1878   */\n  dup3\n    /* \"#utility.yul\":1855:1879   */\n  tag_25\n  jump\t// in\ntag_50:\n    /* \"#utility.yul\":1844:1879   */\n  swap1\n  pop\n    /* \"#utility.yul\":1789:1885   */\n  swap2\n  swap1\n  pop\n  jump\t// out\n    /* \"#utility.yul\":1891:2009   */\ntag_27:\n    /* \"#utility.yul\":1978:2002   */\n  tag_52\n    /* \"#utility.yul\":1996:2001   */\n  dup2\n    /* \"#utility.yul\":1978:2002   */\n  tag_26\n  jump\t// in\ntag_52:\n    /* \"#utility.yul\":1973:1976   */\n  dup3\n    /* \"#utility.yul\":1966:2003   */\n  mstore\n    /* \"#utility.yul\":1891:2009   */\n  pop\n  pop\n  jump\t// out\n    /* \"#utility.yul\":2015:2679   */\ntag_15:\n    /* \"#utility.yul\":2220:2224   */\n  0x00\n    /* \"#utility.yul\":2258:2261   */\n  0xa0\n    /* \"#utility.yul\":2247:2256   */\n  dup3\n    /* \"#utility.yul\":2243:2262   */\n  add\n    /* \"#utility.yul\":2235:2262   */\n  swap1\n  pop\n    /* \"#utility.yul\":2272:2343   */\n  tag_54\n    /* \"#utility.yul\":2340:2341   */\n  0x00\n    /* \"#utility.yul\":2329:2338   */\n  dup4\n    /* \"#utility.yul\":2325:2342   */\n  add\n    /* \"#utility.yul\":2316:2322   */\n  dup9\n    /* \"#utility.yul\":2272:2343   */\n  tag_22\n  jump\t// in\ntag_54:\n    /* \"#utility.yul\":2353:2425   */\n  tag_55\n    /* \"#utility.yul\":2421:2423   */\n  0x20\n    /* \"#utility.yul\":2410:2419   */\n  dup4\n    /* \"#utility.yul\":2406:2424   */\n  add\n    /* \"#utility.yul\":2397:2403   */\n  dup8\n    /* \"#utility.yul\":2353:2425   */\n  tag_22\n  jump\t// in\ntag_55:\n    /* \"#utility.yul\":2435:2507   */\n  tag_56\n    /* \"#utility.yul\":2503:2505   */\n  0x40\n    /* \"#utility.yul\":2492:2501   */\n  dup4\n    /* \"#utility.yul\":2488:2506   */\n  add\n    /* \"#utility.yul\":2479:2485   */\n  dup7\n    /* \"#utility.yul\":2435:2507   */\n  tag_22\n  jump\t// in\ntag_56:\n    /* \"#utility.yul\":2517:2589   */\n  tag_57\n    /* \"#utility.yul\":2585:2587   */\n  0x60\n    /* \"#utility.yul\":2574:2583   */\n  dup4\n    /* \"#utility.yul\":2570:2588   */\n  add\n    /* \"#utility.yul\":2561:2567   */\n  dup6\n    /* \"#utility.yul\":2517:2589   */\n  tag_24\n  jump\t// in\ntag_57:\n    /* \"#utility.yul\":2599:2672   */\n  tag_58\n    /* \"#utility.yul\":2667:2670   */\n  0x80\n    /* \"#utility.yul\":2656:2665   */\n  dup4\n    /* \"#utility.yul\":2652:2671   */\n  add\n    /* \"#utility.yul\":2643:2649   */\n  dup5\n    /* \"#utility.yul\":2599:2672   */\n  tag_27\n  jump\t// in\ntag_58:\n    /* \"#utility.yul\":2015:2679   */\n  swap7\n  swap6\n  pop\n  pop\n  pop\n  pop\n  pop\n  pop\n  jump\t// out\n    /* \"TypedData.sol\":59:2431  contract VerifyTypedData {... */\ntag_6:\n  dataSize(sub_0)\n  dup1\n  dataOffset(sub_0)\n  0x00\n  codecopy\n  0x00\n  return\nstop\ndata_8b73c3c69bb8fe3d512ecc4cf759cc79239f7b179b0ffacaa9a75d522b39400f 454950373132446f6d61696e28737472696e67206e616d652c737472696e672076657273696f6e2c75696e7432353620636861696e49642c6164647265737320766572696679696e67436f6e747261637429\n\nsub_0: assembly {\n        /* \"TypedData.sol\":59:2431  contract VerifyTypedData {... */\n      mstore(0x40, 0x80)\n      callvalue\n      dup1\n      iszero\n      tag_1\n      jumpi\n      0x00\n      dup1\n      revert\n    tag_1:\n      pop\n      jumpi(tag_2, lt(calldatasize, 0x04))\n      shr(0xe0, calldataload(0x00))\n      dup1\n      0x3644e515\n      eq\n      tag_3\n      jumpi\n      dup1\n      0x383c84e3\n      eq\n      tag_4\n      jumpi\n      dup1\n      0x7ecebe00\n      eq\n      tag_5\n      jumpi\n      dup1\n      0xa529d3b0\n      eq\n      tag_6\n      jumpi\n      dup1\n      0xae95234c\n      eq\n      tag_7\n      jumpi\n      dup1\n      0xf9523b21\n      eq\n      tag_8\n      jumpi\n    tag_2:\n      0x00\n      dup1\n      revert\n        /* \"TypedData.sol\":91:122  bytes32 public DOMAIN_SEPARATOR */\n    tag_3:\n      tag_9\n      tag_10\n      jump\t// in\n    tag_9:\n      mload(0x40)\n      tag_11\n      swap2\n      swap1\n      tag_12\n      jump\t// in\n    tag_11:\n      mload(0x40)\n      dup1\n      swap2\n      sub\n      swap1\n      return\n        /* \"TypedData.sol\":2141:2428  function verifySig(address _user, uint _deadline, uint8 v, bytes32 r,bytes32 s) public view returns (bool) {... */\n    tag_4:\n      tag_13\n      0x04\n      dup1\n      calldatasize\n      sub\n      dup2\n      add\n      swap1\n      tag_14\n      swap2\n      swap1\n      tag_15\n      jump\t// in\n    tag_14:\n      tag_16\n      jump\t// in\n    tag_13:\n      mload(0x40)\n      tag_17\n      swap2\n      swap1\n      tag_18\n      jump\t// in\n    tag_17:\n      mload(0x40)\n      dup1\n      swap2\n      sub\n      swap1\n      return\n        /* \"TypedData.sol\":234:331  function nonces(address user) public view returns (uint256) {... */\n    tag_5:\n      tag_19\n      0x04\n      dup1\n      calldatasize\n      sub\n      dup2\n      add\n      swap1\n      tag_20\n      swap2\n      swap1\n      tag_21\n      jump\t// in\n    tag_20:\n      tag_22\n      jump\t// in\n    tag_19:\n      mload(0x40)\n      tag_23\n      swap2\n      swap1\n      tag_24\n      jump\t// in\n    tag_23:\n      mload(0x40)\n      dup1\n      swap2\n      sub\n      swap1\n      return\n        /* \"TypedData.sol\":678:870  function getRelayMessageTypes() public pure returns (string memory) {... */\n    tag_6:\n      tag_25\n      tag_26\n      jump\t// in\n    tag_25:\n      mload(0x40)\n      tag_27\n      swap2\n      swap1\n      tag_28\n      jump\t// in\n    tag_27:\n      mload(0x40)\n      dup1\n      swap2\n      sub\n      swap1\n      return\n        /* \"TypedData.sol\":1488:2135  function getEIP712Hash(address _user, uint _deadline, uint _nonce) public view returns (bytes32) {... */\n    tag_7:\n      tag_29\n      0x04\n      dup1\n      calldatasize\n      sub\n      dup2\n      add\n      swap1\n      tag_30\n      swap2\n      swap1\n      tag_31\n      jump\t// in\n    tag_30:\n      tag_32\n      jump\t// in\n    tag_29:\n      mload(0x40)\n      tag_33\n      swap2\n      swap1\n      tag_12\n      jump\t// in\n    tag_33:\n      mload(0x40)\n      dup1\n      swap2\n      sub\n      swap1\n      return\n        /* \"TypedData.sol\":340:672  function getDomainInfo() public view returns (string memory, string memory, uint, address) {... */\n    tag_8:\n      tag_34\n      tag_35\n      jump\t// in\n    tag_34:\n      mload(0x40)\n      tag_36\n      swap5\n      swap4\n      swap3\n      swap2\n      swap1\n      tag_37\n      jump\t// in\n    tag_36:\n      mload(0x40)\n      dup1\n      swap2\n      sub\n      swap1\n      return\n        /* \"TypedData.sol\":91:122  bytes32 public DOMAIN_SEPARATOR */\n    tag_10:\n      sload(0x00)\n      dup2\n      jump\t// out\n        /* \"TypedData.sol\":2141:2428  function verifySig(address _user, uint _deadline, uint8 v, bytes32 r,bytes32 s) public view returns (bool) {... */\n    tag_16:\n        /* \"TypedData.sol\":2242:2246  bool */\n      0x00\n        /* \"TypedData.sol\":2258:2270  bytes32 hash */\n      dup1\n        /* \"TypedData.sol\":2273:2320  getEIP712Hash(_user, _deadline, _nonces[_user]) */\n      tag_39\n        /* \"TypedData.sol\":2287:2292  _user */\n      dup8\n        /* \"TypedData.sol\":2294:2303  _deadline */\n      dup8\n        /* \"TypedData.sol\":2305:2312  _nonces */\n      0x01\n        /* \"TypedData.sol\":2305:2319  _nonces[_user] */\n      0x00\n        /* \"TypedData.sol\":2313:2318  _user */\n      dup12\n        /* \"TypedData.sol\":2305:2319  _nonces[_user] */\n      0xffffffffffffffffffffffffffffffffffffffff\n      and\n      0xffffffffffffffffffffffffffffffffffffffff\n      and\n      dup2\n      mstore\n      0x20\n      add\n      swap1\n      dup2\n      mstore\n      0x20\n      add\n      0x00\n      keccak256\n      sload\n        /* \"TypedData.sol\":2273:2286  getEIP712Hash */\n      tag_32\n        /* \"TypedData.sol\":2273:2320  getEIP712Hash(_user, _deadline, _nonces[_user]) */\n      jump\t// in\n    tag_39:\n        /* \"TypedData.sol\":2258:2320  bytes32 hash = getEIP712Hash(_user, _deadline, _nonces[_user]) */\n      swap1\n      pop\n        /* \"TypedData.sol\":2338:2340  27 */\n      0x1b\n        /* \"TypedData.sol\":2334:2335  v */\n      dup6\n        /* \"TypedData.sol\":2334:2340  v < 27 */\n      0xff\n      and\n      lt\n        /* \"TypedData.sol\":2330:2372  if (v < 27) {... */\n      iszero\n      tag_40\n      jumpi\n        /* \"TypedData.sol\":2359:2361  27 */\n      0x1b\n        /* \"TypedData.sol\":2354:2361  v += 27 */\n      dup6\n      tag_41\n      swap2\n      swap1\n      tag_42\n      jump\t// in\n    tag_41:\n      swap5\n      pop\n        /* \"TypedData.sol\":2330:2372  if (v < 27) {... */\n    tag_40:\n        /* \"TypedData.sol\":2397:2421  ecrecover(hash, v, r, s) */\n      0x01\n        /* \"TypedData.sol\":2407:2411  hash */\n      dup2\n        /* \"TypedData.sol\":2413:2414  v */\n      dup7\n        /* \"TypedData.sol\":2416:2417  r */\n      dup7\n        /* \"TypedData.sol\":2419:2420  s */\n      dup7\n        /* \"TypedData.sol\":2397:2421  ecrecover(hash, v, r, s) */\n      mload(0x40)\n      0x00\n      dup2\n      mstore\n      0x20\n      add\n      0x40\n      mstore\n      mload(0x40)\n      tag_43\n      swap5\n      swap4\n      swap3\n      swap2\n      swap1\n      tag_44\n      jump\t// in\n    tag_43:\n      0x20\n      mload(0x40)\n      0x20\n      dup2\n      sub\n      swap1\n      dup1\n      dup5\n      sub\n      swap1\n      dup6\n      gas\n      staticcall\n      iszero\n      dup1\n      iszero\n      tag_46\n      jumpi\n      returndatasize\n      0x00\n      dup1\n      returndatacopy\n      revert(0x00, returndatasize)\n    tag_46:\n      pop\n      pop\n      pop\n      mload(sub(mload(0x40), 0x20))\n        /* \"TypedData.sol\":2388:2421  _user == ecrecover(hash, v, r, s) */\n      0xffffffffffffffffffffffffffffffffffffffff\n      and\n        /* \"TypedData.sol\":2388:2393  _user */\n      dup8\n        /* \"TypedData.sol\":2388:2421  _user == ecrecover(hash, v, r, s) */\n      0xffffffffffffffffffffffffffffffffffffffff\n      and\n      eq\n        /* \"TypedData.sol\":2381:2421  return _user == ecrecover(hash, v, r, s) */\n      swap2\n      pop\n      pop\n        /* \"TypedData.sol\":2141:2428  function verifySig(address _user, uint _deadline, uint8 v, bytes32 r,bytes32 s) public view returns (bool) {... */\n      swap6\n      swap5\n      pop\n      pop\n      pop\n      pop\n      pop\n      jump\t// out\n        /* \"TypedData.sol\":234:331  function nonces(address user) public view returns (uint256) {... */\n    tag_22:\n        /* \"TypedData.sol\":285:292  uint256 */\n      0x00\n        /* \"TypedData.sol\":311:318  _nonces */\n      0x01\n        /* \"TypedData.sol\":311:324  _nonces[user] */\n      0x00\n        /* \"TypedData.sol\":319:323  user */\n      dup4\n        /* \"TypedData.sol\":311:324  _nonces[user] */\n      0xffffffffffffffffffffffffffffffffffffffff\n      and\n      0xffffffffffffffffffffffffffffffffffffffff\n      and\n      dup2\n      mstore\n      0x20\n      add\n      swap1\n      dup2\n      mstore\n      0x20\n      add\n      0x00\n      keccak256\n      sload\n        /* \"TypedData.sol\":304:324  return _nonces[user] */\n      swap1\n      pop\n        /* \"TypedData.sol\":234:331  function nonces(address user) public view returns (uint256) {... */\n      swap2\n      swap1\n      pop\n      jump\t// out\n        /* \"TypedData.sol\":678:870  function getRelayMessageTypes() public pure returns (string memory) {... */\n    tag_26:\n        /* \"TypedData.sol\":731:744  string memory */\n      0x60\n        /* \"TypedData.sol\":754:777  string memory dataTypes */\n      0x00\n        /* \"TypedData.sol\":754:833  string memory dataTypes = \"Relay(address owner,uint256 deadline,uint256 nonce)\" */\n      mload(0x40)\n      dup1\n      0x60\n      add\n      0x40\n      mstore\n      dup1\n      0x33\n      dup2\n      mstore\n      0x20\n      add\n      data_e95589e053fe17c341ad5ca40774b7b3f217df7a9a96044b4118e562d2d313c2\n      0x33\n      swap2\n      codecopy\n      swap1\n      pop\n        /* \"TypedData.sol\":848:857  dataTypes */\n      dup1\n        /* \"TypedData.sol\":841:857  return dataTypes */\n      swap2\n      pop\n      pop\n        /* \"TypedData.sol\":678:870  function getRelayMessageTypes() public pure returns (string memory) {... */\n      swap1\n      jump\t// out\n        /* \"TypedData.sol\":1488:2135  function getEIP712Hash(address _user, uint _deadline, uint _nonce) public view returns (bytes32) {... */\n    tag_32:\n        /* \"TypedData.sol\":1576:1583  bytes32 */\n      0x00\n        /* \"TypedData.sol\":1595:1621  string memory MESSAGE_TYPE */\n      dup1\n        /* \"TypedData.sol\":1624:1646  getRelayMessageTypes() */\n      tag_50\n        /* \"TypedData.sol\":1624:1644  getRelayMessageTypes */\n      tag_26\n        /* \"TypedData.sol\":1624:1646  getRelayMessageTypes() */\n      jump\t// in\n    tag_50:\n        /* \"TypedData.sol\":1595:1646  string memory MESSAGE_TYPE = getRelayMessageTypes() */\n      swap1\n      pop\n        /* \"TypedData.sol\":1656:1668  bytes32 hash */\n      0x00\n        /* \"TypedData.sol\":1803:1819  DOMAIN_SEPARATOR */\n      dup1\n      sload\n        /* \"TypedData.sol\":1931:1943  MESSAGE_TYPE */\n      dup3\n        /* \"TypedData.sol\":1914:1944  abi.encodePacked(MESSAGE_TYPE) */\n      add(0x20, mload(0x40))\n      tag_51\n      swap2\n      swap1\n      tag_52\n      jump\t// in\n    tag_51:\n      mload(0x40)\n      0x20\n      dup2\n      dup4\n      sub\n      sub\n      dup2\n      mstore\n      swap1\n      0x40\n      mstore\n        /* \"TypedData.sol\":1904:1945  keccak256(abi.encodePacked(MESSAGE_TYPE)) */\n      dup1\n      mload\n      swap1\n      0x20\n      add\n      keccak256\n        /* \"TypedData.sol\":1971:1976  _user */\n      dup8\n        /* \"TypedData.sol\":2002:2011  _deadline */\n      dup8\n        /* \"TypedData.sol\":2037:2043  _nonce */\n      dup8\n        /* \"TypedData.sol\":1868:2065  abi.encode(... */\n      add(0x20, mload(0x40))\n      tag_53\n      swap5\n      swap4\n      swap3\n      swap2\n      swap1\n      tag_54\n      jump\t// in\n    tag_53:\n      mload(0x40)\n      0x20\n      dup2\n      dup4\n      sub\n      sub\n      dup2\n      mstore\n      swap1\n      0x40\n      mstore\n        /* \"TypedData.sol\":1837:2083  keccak256(... */\n      dup1\n      mload\n      swap1\n      0x20\n      add\n      keccak256\n        /* \"TypedData.sol\":1694:2097  abi.encodePacked(... */\n      add(0x20, mload(0x40))\n      tag_55\n      swap3\n      swap2\n      swap1\n      tag_56\n      jump\t// in\n    tag_55:\n      mload(0x40)\n      0x20\n      dup2\n      dup4\n      sub\n      sub\n      dup2\n      mstore\n      swap1\n      0x40\n      mstore\n        /* \"TypedData.sol\":1671:2107  keccak256(... */\n      dup1\n      mload\n      swap1\n      0x20\n      add\n      keccak256\n        /* \"TypedData.sol\":1656:2107  bytes32 hash = keccak256(... */\n      swap1\n      pop\n        /* \"TypedData.sol\":2124:2128  hash */\n      dup1\n        /* \"TypedData.sol\":2117:2128  return hash */\n      swap3\n      pop\n      pop\n      pop\n        /* \"TypedData.sol\":1488:2135  function getEIP712Hash(address _user, uint _deadline, uint _nonce) public view returns (bytes32) {... */\n      swap4\n      swap3\n      pop\n      pop\n      pop\n      jump\t// out\n        /* \"TypedData.sol\":340:672  function getDomainInfo() public view returns (string memory, string memory, uint, address) {... */\n    tag_35:\n        /* \"TypedData.sol\":386:399  string memory */\n      0x60\n        /* \"TypedData.sol\":401:414  string memory */\n      dup1\n        /* \"TypedData.sol\":416:420  uint */\n      0x00\n        /* \"TypedData.sol\":422:429  address */\n      dup1\n        /* \"TypedData.sol\":441:459  string memory name */\n      0x00\n        /* \"TypedData.sol\":441:479  string memory name = \"LuckyBall_Relay\" */\n      mload(0x40)\n      dup1\n      0x40\n      add\n      0x40\n      mstore\n      dup1\n      0x0f\n      dup2\n      mstore\n      0x20\n      add\n      0x4c75636b7942616c6c5f52656c61790000000000000000000000000000000000\n      dup2\n      mstore\n      pop\n      swap1\n      pop\n        /* \"TypedData.sol\":489:510  string memory version */\n      0x00\n        /* \"TypedData.sol\":489:516  string memory version = \"1\" */\n      mload(0x40)\n      dup1\n      0x40\n      add\n      0x40\n      mstore\n      dup1\n      0x01\n      dup2\n      mstore\n      0x20\n      add\n      0x3100000000000000000000000000000000000000000000000000000000000000\n      dup2\n      mstore\n      pop\n      swap1\n      pop\n        /* \"TypedData.sol\":526:538  uint chainId */\n      0x00\n        /* \"TypedData.sol\":541:554  block.chainid */\n      chainid\n        /* \"TypedData.sol\":526:554  uint chainId = block.chainid */\n      swap1\n      pop\n        /* \"TypedData.sol\":564:589  address verifyingContract */\n      0x00\n        /* \"TypedData.sol\":600:604  this */\n      address\n        /* \"TypedData.sol\":564:605  address verifyingContract = address(this) */\n      swap1\n      pop\n        /* \"TypedData.sol\":623:627  name */\n      dup4\n        /* \"TypedData.sol\":629:636  version */\n      dup4\n        /* \"TypedData.sol\":638:645  chainId */\n      dup4\n        /* \"TypedData.sol\":647:664  verifyingContract */\n      dup4\n        /* \"TypedData.sol\":615:665  return (name, version, chainId, verifyingContract) */\n      swap8\n      pop\n      swap8\n      pop\n      swap8\n      pop\n      swap8\n      pop\n      pop\n      pop\n      pop\n      pop\n        /* \"TypedData.sol\":340:672  function getDomainInfo() public view returns (string memory, string memory, uint, address) {... */\n      swap1\n      swap2\n      swap3\n      swap4\n      jump\t// out\n        /* \"#utility.yul\":7:84   */\n    tag_58:\n        /* \"#utility.yul\":44:51   */\n      0x00\n        /* \"#utility.yul\":73:78   */\n      dup2\n        /* \"#utility.yul\":62:78   */\n      swap1\n      pop\n        /* \"#utility.yul\":7:84   */\n      swap2\n      swap1\n      pop\n      jump\t// out\n        /* \"#utility.yul\":90:208   */\n    tag_59:\n        /* \"#utility.yul\":177:201   */\n      tag_95\n        /* \"#utility.yul\":195:200   */\n      dup2\n        /* \"#utility.yul\":177:201   */\n      tag_58\n      jump\t// in\n    tag_95:\n        /* \"#utility.yul\":172:175   */\n      dup3\n        /* \"#utility.yul\":165:202   */\n      mstore\n        /* \"#utility.yul\":90:208   */\n      pop\n      pop\n      jump\t// out\n        /* \"#utility.yul\":214:436   */\n    tag_12:\n        /* \"#utility.yul\":307:311   */\n      0x00\n        /* \"#utility.yul\":345:347   */\n      0x20\n        /* \"#utility.yul\":334:343   */\n      dup3\n        /* \"#utility.yul\":330:348   */\n      add\n        /* \"#utility.yul\":322:348   */\n      swap1\n      pop\n        /* \"#utility.yul\":358:429   */\n      tag_97\n        /* \"#utility.yul\":426:427   */\n      0x00\n        /* \"#utility.yul\":415:424   */\n      dup4\n        /* \"#utility.yul\":411:428   */\n      add\n        /* \"#utility.yul\":402:408   */\n      dup5\n        /* \"#utility.yul\":358:429   */\n      tag_59\n      jump\t// in\n    tag_97:\n        /* \"#utility.yul\":214:436   */\n      swap3\n      swap2\n      pop\n      pop\n      jump\t// out\n        /* \"#utility.yul\":523:640   */\n    tag_61:\n        /* \"#utility.yul\":632:633   */\n      0x00\n        /* \"#utility.yul\":629:630   */\n      dup1\n        /* \"#utility.yul\":622:634   */\n      revert\n        /* \"#utility.yul\":769:895   */\n    tag_63:\n        /* \"#utility.yul\":806:813   */\n      0x00\n        /* \"#utility.yul\":846:888   */\n      0xffffffffffffffffffffffffffffffffffffffff\n        /* \"#utility.yul\":839:844   */\n      dup3\n        /* \"#utility.yul\":835:889   */\n      and\n        /* \"#utility.yul\":824:889   */\n      swap1\n      pop\n        /* \"#utility.yul\":769:895   */\n      swap2\n      swap1\n      pop\n      jump\t// out\n        /* \"#utility.yul\":901:997   */\n    tag_64:\n        /* \"#utility.yul\":938:945   */\n      0x00\n        /* \"#utility.yul\":967:991   */\n      tag_103\n        /* \"#utility.yul\":985:990   */\n      dup3\n        /* \"#utility.yul\":967:991   */\n      tag_63\n      jump\t// in\n    tag_103:\n        /* \"#utility.yul\":956:991   */\n      swap1\n      pop\n        /* \"#utility.yul\":901:997   */\n      swap2\n      swap1\n      pop\n      jump\t// out\n        /* \"#utility.yul\":1003:1125   */\n    tag_65:\n        /* \"#utility.yul\":1076:1100   */\n      tag_105\n        /* \"#utility.yul\":1094:1099   */\n      dup2\n        /* \"#utility.yul\":1076:1100   */\n      tag_64\n      jump\t// in\n    tag_105:\n        /* \"#utility.yul\":1069:1074   */\n      dup2\n        /* \"#utility.yul\":1066:1101   */\n      eq\n        /* \"#utility.yul\":1056:1119   */\n      tag_106\n      jumpi\n        /* \"#utility.yul\":1115:1116   */\n      0x00\n        /* \"#utility.yul\":1112:1113   */\n      dup1\n        /* \"#utility.yul\":1105:1117   */\n      revert\n        /* \"#utility.yul\":1056:1119   */\n    tag_106:\n        /* \"#utility.yul\":1003:1125   */\n      pop\n      jump\t// out\n        /* \"#utility.yul\":1131:1270   */\n    tag_66:\n        /* \"#utility.yul\":1177:1182   */\n      0x00\n        /* \"#utility.yul\":1215:1221   */\n      dup2\n        /* \"#utility.yul\":1202:1222   */\n      calldataload\n        /* \"#utility.yul\":1193:1222   */\n      swap1\n      pop\n        /* \"#utility.yul\":1231:1264   */\n      tag_108\n        /* \"#utility.yul\":1258:1263   */\n      dup2\n        /* \"#utility.yul\":1231:1264   */\n      tag_65\n      jump\t// in\n    tag_108:\n        /* \"#utility.yul\":1131:1270   */\n      swap3\n      swap2\n      pop\n      pop\n      jump\t// out\n        /* \"#utility.yul\":1276:1353   */\n    tag_67:\n        /* \"#utility.yul\":1313:1320   */\n      0x00\n        /* \"#utility.yul\":1342:1347   */\n      dup2\n        /* \"#utility.yul\":1331:1347   */\n      swap1\n      pop\n        /* \"#utility.yul\":1276:1353   */\n      swap2\n      swap1\n      pop\n      jump\t// out\n        /* \"#utility.yul\":1359:1481   */\n    tag_68:\n        /* \"#utility.yul\":1432:1456   */\n      tag_111\n        /* \"#utility.yul\":1450:1455   */\n      dup2\n        /* \"#utility.yul\":1432:1456   */\n      tag_67\n      jump\t// in\n    tag_111:\n        /* \"#utility.yul\":1425:1430   */\n      dup2\n        /* \"#utility.yul\":1422:1457   */\n      eq\n        /* \"#utility.yul\":1412:1475   */\n      tag_112\n      jumpi\n        /* \"#utility.yul\":1471:1472   */\n      0x00\n        /* \"#utility.yul\":1468:1469   */\n      dup1\n        /* \"#utility.yul\":1461:1473   */\n      revert\n        /* \"#utility.yul\":1412:1475   */\n    tag_112:\n        /* \"#utility.yul\":1359:1481   */\n      pop\n      jump\t// out\n        /* \"#utility.yul\":1487:1626   */\n    tag_69:\n        /* \"#utility.yul\":1533:1538   */\n      0x00\n        /* \"#utility.yul\":1571:1577   */\n      dup2\n        /* \"#utility.yul\":1558:1578   */\n      calldataload\n        /* \"#utility.yul\":1549:1578   */\n      swap1\n      pop\n        /* \"#utility.yul\":1587:1620   */\n      tag_114\n        /* \"#utility.yul\":1614:1619   */\n      dup2\n        /* \"#utility.yul\":1587:1620   */\n      tag_68\n      jump\t// in\n    tag_114:\n        /* \"#utility.yul\":1487:1626   */\n      swap3\n      swap2\n      pop\n      pop\n      jump\t// out\n        /* \"#utility.yul\":1632:1718   */\n    tag_70:\n        /* \"#utility.yul\":1667:1674   */\n      0x00\n        /* \"#utility.yul\":1707:1711   */\n      0xff\n        /* \"#utility.yul\":1700:1705   */\n      dup3\n        /* \"#utility.yul\":1696:1712   */\n      and\n        /* \"#utility.yul\":1685:1712   */\n      swap1\n      pop\n        /* \"#utility.yul\":1632:1718   */\n      swap2\n      swap1\n      pop\n      jump\t// out\n        /* \"#utility.yul\":1724:1842   */\n    tag_71:\n        /* \"#utility.yul\":1795:1817   */\n      tag_117\n        /* \"#utility.yul\":1811:1816   */\n      dup2\n        /* \"#utility.yul\":1795:1817   */\n      tag_70\n      jump\t// in\n    tag_117:\n        /* \"#utility.yul\":1788:1793   */\n      dup2\n        /* \"#utility.yul\":1785:1818   */\n      eq\n        /* \"#utility.yul\":1775:1836   */\n      tag_118\n      jumpi\n        /* \"#utility.yul\":1832:1833   */\n      0x00\n        /* \"#utility.yul\":1829:1830   */\n      dup1\n        /* \"#utility.yul\":1822:1834   */\n      revert\n        /* \"#utility.yul\":1775:1836   */\n    tag_118:\n        /* \"#utility.yul\":1724:1842   */\n      pop\n      jump\t// out\n        /* \"#utility.yul\":1848:1983   */\n    tag_72:\n        /* \"#utility.yul\":1892:1897   */\n      0x00\n        /* \"#utility.yul\":1930:1936   */\n      dup2\n        /* \"#utility.yul\":1917:1937   */\n      calldataload\n        /* \"#utility.yul\":1908:1937   */\n      swap1\n      pop\n        /* \"#utility.yul\":1946:1977   */\n      tag_120\n        /* \"#utility.yul\":1971:1976   */\n      dup2\n        /* \"#utility.yul\":1946:1977   */\n      tag_71\n      jump\t// in\n    tag_120:\n        /* \"#utility.yul\":1848:1983   */\n      swap3\n      swap2\n      pop\n      pop\n      jump\t// out\n        /* \"#utility.yul\":1989:2111   */\n    tag_73:\n        /* \"#utility.yul\":2062:2086   */\n      tag_122\n        /* \"#utility.yul\":2080:2085   */\n      dup2\n        /* \"#utility.yul\":2062:2086   */\n      tag_58\n      jump\t// in\n    tag_122:\n        /* \"#utility.yul\":2055:2060   */\n      dup2\n        /* \"#utility.yul\":2052:2087   */\n      eq\n        /* \"#utility.yul\":2042:2105   */\n      tag_123\n      jumpi\n        /* \"#utility.yul\":2101:2102   */\n      0x00\n        /* \"#utility.yul\":2098:2099   */\n      dup1\n        /* \"#utility.yul\":2091:2103   */\n      revert\n        /* \"#utility.yul\":2042:2105   */\n    tag_123:\n        /* \"#utility.yul\":1989:2111   */\n      pop\n      jump\t// out\n        /* \"#utility.yul\":2117:2256   */\n    tag_74:\n        /* \"#utility.yul\":2163:2168   */\n      0x00\n        /* \"#utility.yul\":2201:2207   */\n      dup2\n        /* \"#utility.yul\":2188:2208   */\n      calldataload\n        /* \"#utility.yul\":2179:2208   */\n      swap1\n      pop\n        /* \"#utility.yul\":2217:2250   */\n      tag_125\n        /* \"#utility.yul\":2244:2249   */\n      dup2\n        /* \"#utility.yul\":2217:2250   */\n      tag_73\n      jump\t// in\n    tag_125:\n        /* \"#utility.yul\":2117:2256   */\n      swap3\n      swap2\n      pop\n      pop\n      jump\t// out\n        /* \"#utility.yul\":2262:3169   */\n    tag_15:\n        /* \"#utility.yul\":2355:2361   */\n      0x00\n        /* \"#utility.yul\":2363:2369   */\n      dup1\n        /* \"#utility.yul\":2371:2377   */\n      0x00\n        /* \"#utility.yul\":2379:2385   */\n      dup1\n        /* \"#utility.yul\":2387:2393   */\n      0x00\n        /* \"#utility.yul\":2436:2439   */\n      0xa0\n        /* \"#utility.yul\":2424:2433   */\n      dup7\n        /* \"#utility.yul\":2415:2422   */\n      dup9\n        /* \"#utility.yul\":2411:2434   */\n      sub\n        /* \"#utility.yul\":2407:2440   */\n      slt\n        /* \"#utility.yul\":2404:2524   */\n      iszero\n      tag_127\n      jumpi\n        /* \"#utility.yul\":2443:2522   */\n      tag_128\n      tag_61\n      jump\t// in\n    tag_128:\n        /* \"#utility.yul\":2404:2524   */\n    tag_127:\n        /* \"#utility.yul\":2563:2564   */\n      0x00\n        /* \"#utility.yul\":2588:2641   */\n      tag_129\n        /* \"#utility.yul\":2633:2640   */\n      dup9\n        /* \"#utility.yul\":2624:2630   */\n      dup3\n        /* \"#utility.yul\":2613:2622   */\n      dup10\n        /* \"#utility.yul\":2609:2631   */\n      add\n        /* \"#utility.yul\":2588:2641   */\n      tag_66\n      jump\t// in\n    tag_129:\n        /* \"#utility.yul\":2578:2641   */\n      swap6\n      pop\n        /* \"#utility.yul\":2534:2651   */\n      pop\n        /* \"#utility.yul\":2690:2692   */\n      0x20\n        /* \"#utility.yul\":2716:2769   */\n      tag_130\n        /* \"#utility.yul\":2761:2768   */\n      dup9\n        /* \"#utility.yul\":2752:2758   */\n      dup3\n        /* \"#utility.yul\":2741:2750   */\n      dup10\n        /* \"#utility.yul\":2737:2759   */\n      add\n        /* \"#utility.yul\":2716:2769   */\n      tag_69\n      jump\t// in\n    tag_130:\n        /* \"#utility.yul\":2706:2769   */\n      swap5\n      pop\n        /* \"#utility.yul\":2661:2779   */\n      pop\n        /* \"#utility.yul\":2818:2820   */\n      0x40\n        /* \"#utility.yul\":2844:2895   */\n      tag_131\n        /* \"#utility.yul\":2887:2894   */\n      dup9\n        /* \"#utility.yul\":2878:2884   */\n      dup3\n        /* \"#utility.yul\":2867:2876   */\n      dup10\n        /* \"#utility.yul\":2863:2885   */\n      add\n        /* \"#utility.yul\":2844:2895   */\n      tag_72\n      jump\t// in\n    tag_131:\n        /* \"#utility.yul\":2834:2895   */\n      swap4\n      pop\n        /* \"#utility.yul\":2789:2905   */\n      pop\n        /* \"#utility.yul\":2944:2946   */\n      0x60\n        /* \"#utility.yul\":2970:3023   */\n      tag_132\n        /* \"#utility.yul\":3015:3022   */\n      dup9\n        /* \"#utility.yul\":3006:3012   */\n      dup3\n        /* \"#utility.yul\":2995:3004   */\n      dup10\n        /* \"#utility.yul\":2991:3013   */\n      add\n        /* \"#utility.yul\":2970:3023   */\n      tag_74\n      jump\t// in\n    tag_132:\n        /* \"#utility.yul\":2960:3023   */\n      swap3\n      pop\n        /* \"#utility.yul\":2915:3033   */\n      pop\n        /* \"#utility.yul\":3072:3075   */\n      0x80\n        /* \"#utility.yul\":3099:3152   */\n      tag_133\n        /* \"#utility.yul\":3144:3151   */\n      dup9\n        /* \"#utility.yul\":3135:3141   */\n      dup3\n        /* \"#utility.yul\":3124:3133   */\n      dup10\n        /* \"#utility.yul\":3120:3142   */\n      add\n        /* \"#utility.yul\":3099:3152   */\n      tag_74\n      jump\t// in\n    tag_133:\n        /* \"#utility.yul\":3089:3152   */\n      swap2\n      pop\n        /* \"#utility.yul\":3043:3162   */\n      pop\n        /* \"#utility.yul\":2262:3169   */\n      swap3\n      swap6\n      pop\n      swap3\n      swap6\n      swap1\n      swap4\n      pop\n      jump\t// out\n        /* \"#utility.yul\":3175:3265   */\n    tag_75:\n        /* \"#utility.yul\":3209:3216   */\n      0x00\n        /* \"#utility.yul\":3252:3257   */\n      dup2\n        /* \"#utility.yul\":3245:3258   */\n      iszero\n        /* \"#utility.yul\":3238:3259   */\n      iszero\n        /* \"#utility.yul\":3227:3259   */\n      swap1\n      pop\n        /* \"#utility.yul\":3175:3265   */\n      swap2\n      swap1\n      pop\n      jump\t// out\n        /* \"#utility.yul\":3271:3380   */\n    tag_76:\n        /* \"#utility.yul\":3352:3373   */\n      tag_136\n        /* \"#utility.yul\":3367:3372   */\n      dup2\n        /* \"#utility.yul\":3352:3373   */\n      tag_75\n      jump\t// in\n    tag_136:\n        /* \"#utility.yul\":3347:3350   */\n      dup3\n        /* \"#utility.yul\":3340:3374   */\n      mstore\n        /* \"#utility.yul\":3271:3380   */\n      pop\n      pop\n      jump\t// out\n        /* \"#utility.yul\":3386:3596   */\n    tag_18:\n        /* \"#utility.yul\":3473:3477   */\n      0x00\n        /* \"#utility.yul\":3511:3513   */\n      0x20\n        /* \"#utility.yul\":3500:3509   */\n      dup3\n        /* \"#utility.yul\":3496:3514   */\n      add\n        /* \"#utility.yul\":3488:3514   */\n      swap1\n      pop\n        /* \"#utility.yul\":3524:3589   */\n      tag_138\n        /* \"#utility.yul\":3586:3587   */\n      0x00\n        /* \"#utility.yul\":3575:3584   */\n      dup4\n        /* \"#utility.yul\":3571:3588   */\n      add\n        /* \"#utility.yul\":3562:3568   */\n      dup5\n        /* \"#utility.yul\":3524:3589   */\n      tag_76\n      jump\t// in\n    tag_138:\n        /* \"#utility.yul\":3386:3596   */\n      swap3\n      swap2\n      pop\n      pop\n      jump\t// out\n        /* \"#utility.yul\":3602:3931   */\n    tag_21:\n        /* \"#utility.yul\":3661:3667   */\n      0x00\n        /* \"#utility.yul\":3710:3712   */\n      0x20\n        /* \"#utility.yul\":3698:3707   */\n      dup3\n        /* \"#utility.yul\":3689:3696   */\n      dup5\n        /* \"#utility.yul\":3685:3708   */\n      sub\n        /* \"#utility.yul\":3681:3713   */\n      slt\n        /* \"#utility.yul\":3678:3797   */\n      iszero\n      tag_140\n      jumpi\n        /* \"#utility.yul\":3716:3795   */\n      tag_141\n      tag_61\n      jump\t// in\n    tag_141:\n        /* \"#utility.yul\":3678:3797   */\n    tag_140:\n        /* \"#utility.yul\":3836:3837   */\n      0x00\n        /* \"#utility.yul\":3861:3914   */\n      tag_142\n        /* \"#utility.yul\":3906:3913   */\n      dup5\n        /* \"#utility.yul\":3897:3903   */\n      dup3\n        /* \"#utility.yul\":3886:3895   */\n      dup6\n        /* \"#utility.yul\":3882:3904   */\n      add\n        /* \"#utility.yul\":3861:3914   */\n      tag_66\n      jump\t// in\n    tag_142:\n        /* \"#utility.yul\":3851:3914   */\n      swap2\n      pop\n        /* \"#utility.yul\":3807:3924   */\n      pop\n        /* \"#utility.yul\":3602:3931   */\n      swap3\n      swap2\n      pop\n      pop\n      jump\t// out\n        /* \"#utility.yul\":3937:4055   */\n    tag_77:\n        /* \"#utility.yul\":4024:4048   */\n      tag_144\n        /* \"#utility.yul\":4042:4047   */\n      dup2\n        /* \"#utility.yul\":4024:4048   */\n      tag_67\n      jump\t// in\n    tag_144:\n        /* \"#utility.yul\":4019:4022   */\n      dup3\n        /* \"#utility.yul\":4012:4049   */\n      mstore\n        /* \"#utility.yul\":3937:4055   */\n      pop\n      pop\n      jump\t// out\n        /* \"#utility.yul\":4061:4283   */\n    tag_24:\n        /* \"#utility.yul\":4154:4158   */\n      0x00\n        /* \"#utility.yul\":4192:4194   */\n      0x20\n        /* \"#utility.yul\":4181:4190   */\n      dup3\n        /* \"#utility.yul\":4177:4195   */\n      add\n        /* \"#utility.yul\":4169:4195   */\n      swap1\n      pop\n        /* \"#utility.yul\":4205:4276   */\n      tag_146\n        /* \"#utility.yul\":4273:4274   */\n      0x00\n        /* \"#utility.yul\":4262:4271   */\n      dup4\n        /* \"#utility.yul\":4258:4275   */\n      add\n        /* \"#utility.yul\":4249:4255   */\n      dup5\n        /* \"#utility.yul\":4205:4276   */\n      tag_77\n      jump\t// in\n    tag_146:\n        /* \"#utility.yul\":4061:4283   */\n      swap3\n      swap2\n      pop\n      pop\n      jump\t// out\n        /* \"#utility.yul\":4289:4388   */\n    tag_78:\n        /* \"#utility.yul\":4341:4347   */\n      0x00\n        /* \"#utility.yul\":4375:4380   */\n      dup2\n        /* \"#utility.yul\":4369:4381   */\n      mload\n        /* \"#utility.yul\":4359:4381   */\n      swap1\n      pop\n        /* \"#utility.yul\":4289:4388   */\n      swap2\n      swap1\n      pop\n      jump\t// out\n        /* \"#utility.yul\":4394:4563   */\n    tag_79:\n        /* \"#utility.yul\":4478:4489   */\n      0x00\n        /* \"#utility.yul\":4512:4518   */\n      dup3\n        /* \"#utility.yul\":4507:4510   */\n      dup3\n        /* \"#utility.yul\":4500:4519   */\n      mstore\n        /* \"#utility.yul\":4552:4556   */\n      0x20\n        /* \"#utility.yul\":4547:4550   */\n      dup3\n        /* \"#utility.yul\":4543:4557   */\n      add\n        /* \"#utility.yul\":4528:4557   */\n      swap1\n      pop\n        /* \"#utility.yul\":4394:4563   */\n      swap3\n      swap2\n      pop\n      pop\n      jump\t// out\n        /* \"#utility.yul\":4569:4876   */\n    tag_80:\n        /* \"#utility.yul\":4637:4638   */\n      0x00\n        /* \"#utility.yul\":4647:4760   */\n    tag_150:\n        /* \"#utility.yul\":4661:4667   */\n      dup4\n        /* \"#utility.yul\":4658:4659   */\n      dup2\n        /* \"#utility.yul\":4655:4668   */\n      lt\n        /* \"#utility.yul\":4647:4760   */\n      iszero\n      tag_152\n      jumpi\n        /* \"#utility.yul\":4746:4747   */\n      dup1\n        /* \"#utility.yul\":4741:4744   */\n      dup3\n        /* \"#utility.yul\":4737:4748   */\n      add\n        /* \"#utility.yul\":4731:4749   */\n      mload\n        /* \"#utility.yul\":4727:4728   */\n      dup2\n        /* \"#utility.yul\":4722:4725   */\n      dup5\n        /* \"#utility.yul\":4718:4729   */\n      add\n        /* \"#utility.yul\":4711:4750   */\n      mstore\n        /* \"#utility.yul\":4683:4685   */\n      0x20\n        /* \"#utility.yul\":4680:4681   */\n      dup2\n        /* \"#utility.yul\":4676:4686   */\n      add\n        /* \"#utility.yul\":4671:4686   */\n      swap1\n      pop\n        /* \"#utility.yul\":4647:4760   */\n      jump(tag_150)\n    tag_152:\n        /* \"#utility.yul\":4778:4784   */\n      dup4\n        /* \"#utility.yul\":4775:4776   */\n      dup2\n        /* \"#utility.yul\":4772:4785   */\n      gt\n        /* \"#utility.yul\":4769:4870   */\n      iszero\n      tag_153\n      jumpi\n        /* \"#utility.yul\":4858:4859   */\n      0x00\n        /* \"#utility.yul\":4849:4855   */\n      dup5\n        /* \"#utility.yul\":4844:4847   */\n      dup5\n        /* \"#utility.yul\":4840:4856   */\n      add\n        /* \"#utility.yul\":4833:4860   */\n      mstore\n        /* \"#utility.yul\":4769:4870   */\n    tag_153:\n        /* \"#utility.yul\":4618:4876   */\n      pop\n        /* \"#utility.yul\":4569:4876   */\n      pop\n      pop\n      pop\n      jump\t// out\n        /* \"#utility.yul\":4882:4984   */\n    tag_81:\n        /* \"#utility.yul\":4923:4929   */\n      0x00\n        /* \"#utility.yul\":4974:4976   */\n      0x1f\n        /* \"#utility.yul\":4970:4977   */\n      not\n        /* \"#utility.yul\":4965:4967   */\n      0x1f\n        /* \"#utility.yul\":4958:4963   */\n      dup4\n        /* \"#utility.yul\":4954:4968   */\n      add\n        /* \"#utility.yul\":4950:4978   */\n      and\n        /* \"#utility.yul\":4940:4978   */\n      swap1\n      pop\n        /* \"#utility.yul\":4882:4984   */\n      swap2\n      swap1\n      pop\n      jump\t// out\n        /* \"#utility.yul\":4990:5354   */\n    tag_82:\n        /* \"#utility.yul\":5078:5081   */\n      0x00\n        /* \"#utility.yul\":5106:5145   */\n      tag_156\n        /* \"#utility.yul\":5139:5144   */\n      dup3\n        /* \"#utility.yul\":5106:5145   */\n      tag_78\n      jump\t// in\n    tag_156:\n        /* \"#utility.yul\":5161:5232   */\n      tag_157\n        /* \"#utility.yul\":5225:5231   */\n      dup2\n        /* \"#utility.yul\":5220:5223   */\n      dup6\n        /* \"#utility.yul\":5161:5232   */\n      tag_79\n      jump\t// in\n    tag_157:\n        /* \"#utility.yul\":5154:5232   */\n      swap4\n      pop\n        /* \"#utility.yul\":5241:5293   */\n      tag_158\n        /* \"#utility.yul\":5286:5292   */\n      dup2\n        /* \"#utility.yul\":5281:5284   */\n      dup6\n        /* \"#utility.yul\":5274:5278   */\n      0x20\n        /* \"#utility.yul\":5267:5272   */\n      dup7\n        /* \"#utility.yul\":5263:5279   */\n      add\n        /* \"#utility.yul\":5241:5293   */\n      tag_80\n      jump\t// in\n    tag_158:\n        /* \"#utility.yul\":5318:5347   */\n      tag_159\n        /* \"#utility.yul\":5340:5346   */\n      dup2\n        /* \"#utility.yul\":5318:5347   */\n      tag_81\n      jump\t// in\n    tag_159:\n        /* \"#utility.yul\":5313:5316   */\n      dup5\n        /* \"#utility.yul\":5309:5348   */\n      add\n        /* \"#utility.yul\":5302:5348   */\n      swap2\n      pop\n        /* \"#utility.yul\":5082:5354   */\n      pop\n        /* \"#utility.yul\":4990:5354   */\n      swap3\n      swap2\n      pop\n      pop\n      jump\t// out\n        /* \"#utility.yul\":5360:5673   */\n    tag_28:\n        /* \"#utility.yul\":5473:5477   */\n      0x00\n        /* \"#utility.yul\":5511:5513   */\n      0x20\n        /* \"#utility.yul\":5500:5509   */\n      dup3\n        /* \"#utility.yul\":5496:5514   */\n      add\n        /* \"#utility.yul\":5488:5514   */\n      swap1\n      pop\n        /* \"#utility.yul\":5560:5569   */\n      dup2\n        /* \"#utility.yul\":5554:5558   */\n      dup2\n        /* \"#utility.yul\":5550:5570   */\n      sub\n        /* \"#utility.yul\":5546:5547   */\n      0x00\n        /* \"#utility.yul\":5535:5544   */\n      dup4\n        /* \"#utility.yul\":5531:5548   */\n      add\n        /* \"#utility.yul\":5524:5571   */\n      mstore\n        /* \"#utility.yul\":5588:5666   */\n      tag_161\n        /* \"#utility.yul\":5661:5665   */\n      dup2\n        /* \"#utility.yul\":5652:5658   */\n      dup5\n        /* \"#utility.yul\":5588:5666   */\n      tag_82\n      jump\t// in\n    tag_161:\n        /* \"#utility.yul\":5580:5666   */\n      swap1\n      pop\n        /* \"#utility.yul\":5360:5673   */\n      swap3\n      swap2\n      pop\n      pop\n      jump\t// out\n        /* \"#utility.yul\":5679:6298   */\n    tag_31:\n        /* \"#utility.yul\":5756:5762   */\n      0x00\n        /* \"#utility.yul\":5764:5770   */\n      dup1\n        /* \"#utility.yul\":5772:5778   */\n      0x00\n        /* \"#utility.yul\":5821:5823   */\n      0x60\n        /* \"#utility.yul\":5809:5818   */\n      dup5\n        /* \"#utility.yul\":5800:5807   */\n      dup7\n        /* \"#utility.yul\":5796:5819   */\n      sub\n        /* \"#utility.yul\":5792:5824   */\n      slt\n        /* \"#utility.yul\":5789:5908   */\n      iszero\n      tag_163\n      jumpi\n        /* \"#utility.yul\":5827:5906   */\n      tag_164\n      tag_61\n      jump\t// in\n    tag_164:\n        /* \"#utility.yul\":5789:5908   */\n    tag_163:\n        /* \"#utility.yul\":5947:5948   */\n      0x00\n        /* \"#utility.yul\":5972:6025   */\n      tag_165\n        /* \"#utility.yul\":6017:6024   */\n      dup7\n        /* \"#utility.yul\":6008:6014   */\n      dup3\n        /* \"#utility.yul\":5997:6006   */\n      dup8\n        /* \"#utility.yul\":5993:6015   */\n      add\n        /* \"#utility.yul\":5972:6025   */\n      tag_66\n      jump\t// in\n    tag_165:\n        /* \"#utility.yul\":5962:6025   */\n      swap4\n      pop\n        /* \"#utility.yul\":5918:6035   */\n      pop\n        /* \"#utility.yul\":6074:6076   */\n      0x20\n        /* \"#utility.yul\":6100:6153   */\n      tag_166\n        /* \"#utility.yul\":6145:6152   */\n      dup7\n        /* \"#utility.yul\":6136:6142   */\n      dup3\n        /* \"#utility.yul\":6125:6134   */\n      dup8\n        /* \"#utility.yul\":6121:6143   */\n      add\n        /* \"#utility.yul\":6100:6153   */\n      tag_69\n      jump\t// in\n    tag_166:\n        /* \"#utility.yul\":6090:6153   */\n      swap3\n      pop\n        /* \"#utility.yul\":6045:6163   */\n      pop\n        /* \"#utility.yul\":6202:6204   */\n      0x40\n        /* \"#utility.yul\":6228:6281   */\n      tag_167\n        /* \"#utility.yul\":6273:6280   */\n      dup7\n        /* \"#utility.yul\":6264:6270   */\n      dup3\n        /* \"#utility.yul\":6253:6262   */\n      dup8\n        /* \"#utility.yul\":6249:6271   */\n      add\n        /* \"#utility.yul\":6228:6281   */\n      tag_69\n      jump\t// in\n    tag_167:\n        /* \"#utility.yul\":6218:6281   */\n      swap2\n      pop\n        /* \"#utility.yul\":6173:6291   */\n      pop\n        /* \"#utility.yul\":5679:6298   */\n      swap3\n      pop\n      swap3\n      pop\n      swap3\n      jump\t// out\n        /* \"#utility.yul\":6304:6422   */\n    tag_83:\n        /* \"#utility.yul\":6391:6415   */\n      tag_169\n        /* \"#utility.yul\":6409:6414   */\n      dup2\n        /* \"#utility.yul\":6391:6415   */\n      tag_64\n      jump\t// in\n    tag_169:\n        /* \"#utility.yul\":6386:6389   */\n      dup3\n        /* \"#utility.yul\":6379:6416   */\n      mstore\n        /* \"#utility.yul\":6304:6422   */\n      pop\n      pop\n      jump\t// out\n        /* \"#utility.yul\":6428:7163   */\n    tag_37:\n        /* \"#utility.yul\":6645:6649   */\n      0x00\n        /* \"#utility.yul\":6683:6686   */\n      0x80\n        /* \"#utility.yul\":6672:6681   */\n      dup3\n        /* \"#utility.yul\":6668:6687   */\n      add\n        /* \"#utility.yul\":6660:6687   */\n      swap1\n      pop\n        /* \"#utility.yul\":6733:6742   */\n      dup2\n        /* \"#utility.yul\":6727:6731   */\n      dup2\n        /* \"#utility.yul\":6723:6743   */\n      sub\n        /* \"#utility.yul\":6719:6720   */\n      0x00\n        /* \"#utility.yul\":6708:6717   */\n      dup4\n        /* \"#utility.yul\":6704:6721   */\n      add\n        /* \"#utility.yul\":6697:6744   */\n      mstore\n        /* \"#utility.yul\":6761:6839   */\n      tag_171\n        /* \"#utility.yul\":6834:6838   */\n      dup2\n        /* \"#utility.yul\":6825:6831   */\n      dup8\n        /* \"#utility.yul\":6761:6839   */\n      tag_82\n      jump\t// in\n    tag_171:\n        /* \"#utility.yul\":6753:6839   */\n      swap1\n      pop\n        /* \"#utility.yul\":6886:6895   */\n      dup2\n        /* \"#utility.yul\":6880:6884   */\n      dup2\n        /* \"#utility.yul\":6876:6896   */\n      sub\n        /* \"#utility.yul\":6871:6873   */\n      0x20\n        /* \"#utility.yul\":6860:6869   */\n      dup4\n        /* \"#utility.yul\":6856:6874   */\n      add\n        /* \"#utility.yul\":6849:6897   */\n      mstore\n        /* \"#utility.yul\":6914:6992   */\n      tag_172\n        /* \"#utility.yul\":6987:6991   */\n      dup2\n        /* \"#utility.yul\":6978:6984   */\n      dup7\n        /* \"#utility.yul\":6914:6992   */\n      tag_82\n      jump\t// in\n    tag_172:\n        /* \"#utility.yul\":6906:6992   */\n      swap1\n      pop\n        /* \"#utility.yul\":7002:7074   */\n      tag_173\n        /* \"#utility.yul\":7070:7072   */\n      0x40\n        /* \"#utility.yul\":7059:7068   */\n      dup4\n        /* \"#utility.yul\":7055:7073   */\n      add\n        /* \"#utility.yul\":7046:7052   */\n      dup6\n        /* \"#utility.yul\":7002:7074   */\n      tag_77\n      jump\t// in\n    tag_173:\n        /* \"#utility.yul\":7084:7156   */\n      tag_174\n        /* \"#utility.yul\":7152:7154   */\n      0x60\n        /* \"#utility.yul\":7141:7150   */\n      dup4\n        /* \"#utility.yul\":7137:7155   */\n      add\n        /* \"#utility.yul\":7128:7134   */\n      dup5\n        /* \"#utility.yul\":7084:7156   */\n      tag_83\n      jump\t// in\n    tag_174:\n        /* \"#utility.yul\":6428:7163   */\n      swap6\n      swap5\n      pop\n      pop\n      pop\n      pop\n      pop\n      jump\t// out\n        /* \"#utility.yul\":7169:7349   */\n    tag_84:\n        /* \"#utility.yul\":7217:7294   */\n      0x4e487b7100000000000000000000000000000000000000000000000000000000\n        /* \"#utility.yul\":7214:7215   */\n      0x00\n        /* \"#utility.yul\":7207:7295   */\n      mstore\n        /* \"#utility.yul\":7314:7318   */\n      0x11\n        /* \"#utility.yul\":7311:7312   */\n      0x04\n        /* \"#utility.yul\":7304:7319   */\n      mstore\n        /* \"#utility.yul\":7338:7342   */\n      0x24\n        /* \"#utility.yul\":7335:7336   */\n      0x00\n        /* \"#utility.yul\":7328:7343   */\n      revert\n        /* \"#utility.yul\":7355:7592   */\n    tag_42:\n        /* \"#utility.yul\":7393:7396   */\n      0x00\n        /* \"#utility.yul\":7412:7430   */\n      tag_177\n        /* \"#utility.yul\":7428:7429   */\n      dup3\n        /* \"#utility.yul\":7412:7430   */\n      tag_70\n      jump\t// in\n    tag_177:\n        /* \"#utility.yul\":7407:7430   */\n      swap2\n      pop\n        /* \"#utility.yul\":7444:7462   */\n      tag_178\n        /* \"#utility.yul\":7460:7461   */\n      dup4\n        /* \"#utility.yul\":7444:7462   */\n      tag_70\n      jump\t// in\n    tag_178:\n        /* \"#utility.yul\":7439:7462   */\n      swap3\n      pop\n        /* \"#utility.yul\":7534:7535   */\n      dup3\n        /* \"#utility.yul\":7528:7532   */\n      0xff\n        /* \"#utility.yul\":7524:7536   */\n      sub\n        /* \"#utility.yul\":7521:7522   */\n      dup3\n        /* \"#utility.yul\":7518:7537   */\n      gt\n        /* \"#utility.yul\":7515:7560   */\n      iszero\n      tag_179\n      jumpi\n        /* \"#utility.yul\":7540:7558   */\n      tag_180\n      tag_84\n      jump\t// in\n    tag_180:\n        /* \"#utility.yul\":7515:7560   */\n    tag_179:\n        /* \"#utility.yul\":7584:7585   */\n      dup3\n        /* \"#utility.yul\":7581:7582   */\n      dup3\n        /* \"#utility.yul\":7577:7586   */\n      add\n        /* \"#utility.yul\":7570:7586   */\n      swap1\n      pop\n        /* \"#utility.yul\":7355:7592   */\n      swap3\n      swap2\n      pop\n      pop\n      jump\t// out\n        /* \"#utility.yul\":7598:7710   */\n    tag_85:\n        /* \"#utility.yul\":7681:7703   */\n      tag_182\n        /* \"#utility.yul\":7697:7702   */\n      dup2\n        /* \"#utility.yul\":7681:7703   */\n      tag_70\n      jump\t// in\n    tag_182:\n        /* \"#utility.yul\":7676:7679   */\n      dup3\n        /* \"#utility.yul\":7669:7704   */\n      mstore\n        /* \"#utility.yul\":7598:7710   */\n      pop\n      pop\n      jump\t// out\n        /* \"#utility.yul\":7716:8261   */\n    tag_44:\n        /* \"#utility.yul\":7889:7893   */\n      0x00\n        /* \"#utility.yul\":7927:7930   */\n      0x80\n        /* \"#utility.yul\":7916:7925   */\n      dup3\n        /* \"#utility.yul\":7912:7931   */\n      add\n        /* \"#utility.yul\":7904:7931   */\n      swap1\n      pop\n        /* \"#utility.yul\":7941:8012   */\n      tag_184\n        /* \"#utility.yul\":8009:8010   */\n      0x00\n        /* \"#utility.yul\":7998:8007   */\n      dup4\n        /* \"#utility.yul\":7994:8011   */\n      add\n        /* \"#utility.yul\":7985:7991   */\n      dup8\n        /* \"#utility.yul\":7941:8012   */\n      tag_59\n      jump\t// in\n    tag_184:\n        /* \"#utility.yul\":8022:8090   */\n      tag_185\n        /* \"#utility.yul\":8086:8088   */\n      0x20\n        /* \"#utility.yul\":8075:8084   */\n      dup4\n        /* \"#utility.yul\":8071:8089   */\n      add\n        /* \"#utility.yul\":8062:8068   */\n      dup7\n        /* \"#utility.yul\":8022:8090   */\n      tag_85\n      jump\t// in\n    tag_185:\n        /* \"#utility.yul\":8100:8172   */\n      tag_186\n        /* \"#utility.yul\":8168:8170   */\n      0x40\n        /* \"#utility.yul\":8157:8166   */\n      dup4\n        /* \"#utility.yul\":8153:8171   */\n      add\n        /* \"#utility.yul\":8144:8150   */\n      dup6\n        /* \"#utility.yul\":8100:8172   */\n      tag_59\n      jump\t// in\n    tag_186:\n        /* \"#utility.yul\":8182:8254   */\n      tag_187\n        /* \"#utility.yul\":8250:8252   */\n      0x60\n        /* \"#utility.yul\":8239:8248   */\n      dup4\n        /* \"#utility.yul\":8235:8253   */\n      add\n        /* \"#utility.yul\":8226:8232   */\n      dup5\n        /* \"#utility.yul\":8182:8254   */\n      tag_59\n      jump\t// in\n    tag_187:\n        /* \"#utility.yul\":7716:8261   */\n      swap6\n      swap5\n      pop\n      pop\n      pop\n      pop\n      pop\n      jump\t// out\n        /* \"#utility.yul\":8267:8415   */\n    tag_86:\n        /* \"#utility.yul\":8369:8380   */\n      0x00\n        /* \"#utility.yul\":8406:8409   */\n      dup2\n        /* \"#utility.yul\":8391:8409   */\n      swap1\n      pop\n        /* \"#utility.yul\":8267:8415   */\n      swap3\n      swap2\n      pop\n      pop\n      jump\t// out\n        /* \"#utility.yul\":8421:8798   */\n    tag_87:\n        /* \"#utility.yul\":8527:8530   */\n      0x00\n        /* \"#utility.yul\":8555:8594   */\n      tag_190\n        /* \"#utility.yul\":8588:8593   */\n      dup3\n        /* \"#utility.yul\":8555:8594   */\n      tag_78\n      jump\t// in\n    tag_190:\n        /* \"#utility.yul\":8610:8699   */\n      tag_191\n        /* \"#utility.yul\":8692:8698   */\n      dup2\n        /* \"#utility.yul\":8687:8690   */\n      dup6\n        /* \"#utility.yul\":8610:8699   */\n      tag_86\n      jump\t// in\n    tag_191:\n        /* \"#utility.yul\":8603:8699   */\n      swap4\n      pop\n        /* \"#utility.yul\":8708:8760   */\n      tag_192\n        /* \"#utility.yul\":8753:8759   */\n      dup2\n        /* \"#utility.yul\":8748:8751   */\n      dup6\n        /* \"#utility.yul\":8741:8745   */\n      0x20\n        /* \"#utility.yul\":8734:8739   */\n      dup7\n        /* \"#utility.yul\":8730:8746   */\n      add\n        /* \"#utility.yul\":8708:8760   */\n      tag_80\n      jump\t// in\n    tag_192:\n        /* \"#utility.yul\":8785:8791   */\n      dup1\n        /* \"#utility.yul\":8780:8783   */\n      dup5\n        /* \"#utility.yul\":8776:8792   */\n      add\n        /* \"#utility.yul\":8769:8792   */\n      swap2\n      pop\n        /* \"#utility.yul\":8531:8798   */\n      pop\n        /* \"#utility.yul\":8421:8798   */\n      swap3\n      swap2\n      pop\n      pop\n      jump\t// out\n        /* \"#utility.yul\":8804:9079   */\n    tag_52:\n        /* \"#utility.yul\":8936:8939   */\n      0x00\n        /* \"#utility.yul\":8958:9053   */\n      tag_194\n        /* \"#utility.yul\":9049:9052   */\n      dup3\n        /* \"#utility.yul\":9040:9046   */\n      dup5\n        /* \"#utility.yul\":8958:9053   */\n      tag_87\n      jump\t// in\n    tag_194:\n        /* \"#utility.yul\":8951:9053   */\n      swap2\n      pop\n        /* \"#utility.yul\":9070:9073   */\n      dup2\n        /* \"#utility.yul\":9063:9073   */\n      swap1\n      pop\n        /* \"#utility.yul\":8804:9079   */\n      swap3\n      swap2\n      pop\n      pop\n      jump\t// out\n        /* \"#utility.yul\":9085:9638   */\n    tag_54:\n        /* \"#utility.yul\":9262:9266   */\n      0x00\n        /* \"#utility.yul\":9300:9303   */\n      0x80\n        /* \"#utility.yul\":9289:9298   */\n      dup3\n        /* \"#utility.yul\":9285:9304   */\n      add\n        /* \"#utility.yul\":9277:9304   */\n      swap1\n      pop\n        /* \"#utility.yul\":9314:9385   */\n      tag_196\n        /* \"#utility.yul\":9382:9383   */\n      0x00\n        /* \"#utility.yul\":9371:9380   */\n      dup4\n        /* \"#utility.yul\":9367:9384   */\n      add\n        /* \"#utility.yul\":9358:9364   */\n      dup8\n        /* \"#utility.yul\":9314:9385   */\n      tag_59\n      jump\t// in\n    tag_196:\n        /* \"#utility.yul\":9395:9467   */\n      tag_197\n        /* \"#utility.yul\":9463:9465   */\n      0x20\n        /* \"#utility.yul\":9452:9461   */\n      dup4\n        /* \"#utility.yul\":9448:9466   */\n      add\n        /* \"#utility.yul\":9439:9445   */\n      dup7\n        /* \"#utility.yul\":9395:9467   */\n      tag_83\n      jump\t// in\n    tag_197:\n        /* \"#utility.yul\":9477:9549   */\n      tag_198\n        /* \"#utility.yul\":9545:9547   */\n      0x40\n        /* \"#utility.yul\":9534:9543   */\n      dup4\n        /* \"#utility.yul\":9530:9548   */\n      add\n        /* \"#utility.yul\":9521:9527   */\n      dup6\n        /* \"#utility.yul\":9477:9549   */\n      tag_77\n      jump\t// in\n    tag_198:\n        /* \"#utility.yul\":9559:9631   */\n      tag_199\n        /* \"#utility.yul\":9627:9629   */\n      0x60\n        /* \"#utility.yul\":9616:9625   */\n      dup4\n        /* \"#utility.yul\":9612:9630   */\n      add\n        /* \"#utility.yul\":9603:9609   */\n      dup5\n        /* \"#utility.yul\":9559:9631   */\n      tag_77\n      jump\t// in\n    tag_199:\n        /* \"#utility.yul\":9085:9638   */\n      swap6\n      swap5\n      pop\n      pop\n      pop\n      pop\n      pop\n      jump\t// out\n        /* \"#utility.yul\":9644:9858   */\n    tag_88:\n        /* \"#utility.yul\":9784:9850   */\n      0x1901000000000000000000000000000000000000000000000000000000000000\n        /* \"#utility.yul\":9780:9781   */\n      0x00\n        /* \"#utility.yul\":9772:9778   */\n      dup3\n        /* \"#utility.yul\":9768:9782   */\n      add\n        /* \"#utility.yul\":9761:9851   */\n      mstore\n        /* \"#utility.yul\":9644:9858   */\n      pop\n      jump\t// out\n        /* \"#utility.yul\":9864:10264   */\n    tag_89:\n        /* \"#utility.yul\":10024:10027   */\n      0x00\n        /* \"#utility.yul\":10045:10129   */\n      tag_202\n        /* \"#utility.yul\":10127:10128   */\n      0x02\n        /* \"#utility.yul\":10122:10125   */\n      dup4\n        /* \"#utility.yul\":10045:10129   */\n      tag_86\n      jump\t// in\n    tag_202:\n        /* \"#utility.yul\":10038:10129   */\n      swap2\n      pop\n        /* \"#utility.yul\":10138:10231   */\n      tag_203\n        /* \"#utility.yul\":10227:10230   */\n      dup3\n        /* \"#utility.yul\":10138:10231   */\n      tag_88\n      jump\t// in\n    tag_203:\n        /* \"#utility.yul\":10256:10257   */\n      0x02\n        /* \"#utility.yul\":10251:10254   */\n      dup3\n        /* \"#utility.yul\":10247:10258   */\n      add\n        /* \"#utility.yul\":10240:10258   */\n      swap1\n      pop\n        /* \"#utility.yul\":9864:10264   */\n      swap2\n      swap1\n      pop\n      jump\t// out\n        /* \"#utility.yul\":10270:10349   */\n    tag_90:\n        /* \"#utility.yul\":10309:10316   */\n      0x00\n        /* \"#utility.yul\":10338:10343   */\n      dup2\n        /* \"#utility.yul\":10327:10343   */\n      swap1\n      pop\n        /* \"#utility.yul\":10270:10349   */\n      swap2\n      swap1\n      pop\n      jump\t// out\n        /* \"#utility.yul\":10355:10512   */\n    tag_91:\n        /* \"#utility.yul\":10460:10505   */\n      tag_206\n        /* \"#utility.yul\":10480:10504   */\n      tag_207\n        /* \"#utility.yul\":10498:10503   */\n      dup3\n        /* \"#utility.yul\":10480:10504   */\n      tag_58\n      jump\t// in\n    tag_207:\n        /* \"#utility.yul\":10460:10505   */\n      tag_90\n      jump\t// in\n    tag_206:\n        /* \"#utility.yul\":10455:10458   */\n      dup3\n        /* \"#utility.yul\":10448:10506   */\n      mstore\n        /* \"#utility.yul\":10355:10512   */\n      pop\n      pop\n      jump\t// out\n        /* \"#utility.yul\":10518:11181   */\n    tag_56:\n        /* \"#utility.yul\":10759:10762   */\n      0x00\n        /* \"#utility.yul\":10781:10929   */\n      tag_209\n        /* \"#utility.yul\":10925:10928   */\n      dup3\n        /* \"#utility.yul\":10781:10929   */\n      tag_89\n      jump\t// in\n    tag_209:\n        /* \"#utility.yul\":10774:10929   */\n      swap2\n      pop\n        /* \"#utility.yul\":10939:11014   */\n      tag_210\n        /* \"#utility.yul\":11010:11013   */\n      dup3\n        /* \"#utility.yul\":11001:11007   */\n      dup6\n        /* \"#utility.yul\":10939:11014   */\n      tag_91\n      jump\t// in\n    tag_210:\n        /* \"#utility.yul\":11039:11041   */\n      0x20\n        /* \"#utility.yul\":11034:11037   */\n      dup3\n        /* \"#utility.yul\":11030:11042   */\n      add\n        /* \"#utility.yul\":11023:11042   */\n      swap2\n      pop\n        /* \"#utility.yul\":11052:11127   */\n      tag_211\n        /* \"#utility.yul\":11123:11126   */\n      dup3\n        /* \"#utility.yul\":11114:11120   */\n      dup5\n        /* \"#utility.yul\":11052:11127   */\n      tag_91\n      jump\t// in\n    tag_211:\n        /* \"#utility.yul\":11152:11154   */\n      0x20\n        /* \"#utility.yul\":11147:11150   */\n      dup3\n        /* \"#utility.yul\":11143:11155   */\n      add\n        /* \"#utility.yul\":11136:11155   */\n      swap2\n      pop\n        /* \"#utility.yul\":11172:11175   */\n      dup2\n        /* \"#utility.yul\":11165:11175   */\n      swap1\n      pop\n        /* \"#utility.yul\":10518:11181   */\n      swap4\n      swap3\n      pop\n      pop\n      pop\n      jump\t// out\n    stop\n    data_e95589e053fe17c341ad5ca40774b7b3f217df7a9a96044b4118e562d2d313c2 52656c61792861646472657373206f776e65722c75696e7432353620646561646c696e652c75696e74323536206e6f6e636529\n\n    auxdata: 0xa26469706673582212205c6a59b329804a9343912224320df8d0a342d8e0467e14c8058f94205e9c4fea64736f6c634300080a0033\n}\n",
				"bytecode": {
					"linkReferences": {},
					"object": "60806040523480156200001157600080fd5b50620000226200002860201b60201c565b62000328565b600060405180608001604052806052815260200162000d316052913990506000806000806200005c6200011a60201b60201c565b93509350935093508460405160200162000077919062000237565b6040516020818303038152906040528051906020012084604051602001620000a0919062000237565b6040516020818303038152906040528051906020012084604051602001620000c9919062000237565b604051602081830303815290604052805190602001208484604051602001620000f7959493929190620002cb565b604051602081830303815290604052805190602001206000819055505050505050565b60608060008060006040518060400160405280600f81526020017f4c75636b7942616c6c5f52656c61790000000000000000000000000000000000815250905060006040518060400160405280600181526020017f31000000000000000000000000000000000000000000000000000000000000008152509050600046905060003090508383838397509750975097505050505090919293565b600081519050919050565b600081905092915050565b60005b83811015620001ea578082015181840152602081019050620001cd565b83811115620001fa576000848401525b50505050565b60006200020d82620001b4565b620002198185620001bf565b93506200022b818560208601620001ca565b80840191505092915050565b600062000245828462000200565b915081905092915050565b6000819050919050565b620002658162000250565b82525050565b6000819050919050565b62000280816200026b565b82525050565b600073ffffffffffffffffffffffffffffffffffffffff82169050919050565b6000620002b38262000286565b9050919050565b620002c581620002a6565b82525050565b600060a082019050620002e260008301886200025a565b620002f160208301876200025a565b6200030060408301866200025a565b6200030f606083018562000275565b6200031e6080830184620002ba565b9695505050505050565b6109f980620003386000396000f3fe608060405234801561001057600080fd5b50600436106100625760003560e01c80633644e51514610067578063383c84e3146100855780637ecebe00146100b5578063a529d3b0146100e5578063ae95234c14610103578063f9523b2114610133575b600080fd5b61006f610154565b60405161007c9190610409565b60405180910390f35b61009f600480360381019061009a9190610522565b61015a565b6040516100ac91906105b8565b60405180910390f35b6100cf60048036038101906100ca91906105d3565b61024e565b6040516100dc919061060f565b60405180910390f35b6100ed610297565b6040516100fa91906106c3565b60405180910390f35b61011d600480360381019061011891906106e5565b6102bd565b60405161012a9190610409565b60405180910390f35b61013b610356565b60405161014b9493929190610747565b60405180910390f35b60005481565b6000806101a78787600160008b73ffffffffffffffffffffffffffffffffffffffff1673ffffffffffffffffffffffffffffffffffffffff168152602001908152602001600020546102bd565b9050601b8560ff1610156101c557601b856101c291906107c9565b94505b600181868686604051600081526020016040526040516101e8949392919061080f565b6020604051602081039080840390855afa15801561020a573d6000803e3d6000fd5b5050506020604051035173ffffffffffffffffffffffffffffffffffffffff168773ffffffffffffffffffffffffffffffffffffffff161491505095945050505050565b6000600160008373ffffffffffffffffffffffffffffffffffffffff1673ffffffffffffffffffffffffffffffffffffffff168152602001908152602001600020549050919050565b606060006040518060600160405280603381526020016109916033913990508091505090565b6000806102c8610297565b905060008054826040516020016102df9190610890565b6040516020818303038152906040528051906020012087878760405160200161030b94939291906108a7565b60405160208183030381529060405280519060200120604051602001610332929190610959565b60405160208183030381529060405280519060200120905080925050509392505050565b60608060008060006040518060400160405280600f81526020017f4c75636b7942616c6c5f52656c61790000000000000000000000000000000000815250905060006040518060400160405280600181526020017f31000000000000000000000000000000000000000000000000000000000000008152509050600046905060003090508383838397509750975097505050505090919293565b6000819050919050565b610403816103f0565b82525050565b600060208201905061041e60008301846103fa565b92915050565b600080fd5b600073ffffffffffffffffffffffffffffffffffffffff82169050919050565b600061045482610429565b9050919050565b61046481610449565b811461046f57600080fd5b50565b6000813590506104818161045b565b92915050565b6000819050919050565b61049a81610487565b81146104a557600080fd5b50565b6000813590506104b781610491565b92915050565b600060ff82169050919050565b6104d3816104bd565b81146104de57600080fd5b50565b6000813590506104f0816104ca565b92915050565b6104ff816103f0565b811461050a57600080fd5b50565b60008135905061051c816104f6565b92915050565b600080600080600060a0868803121561053e5761053d610424565b5b600061054c88828901610472565b955050602061055d888289016104a8565b945050604061056e888289016104e1565b935050606061057f8882890161050d565b92505060806105908882890161050d565b9150509295509295909350565b60008115159050919050565b6105b28161059d565b82525050565b60006020820190506105cd60008301846105a9565b92915050565b6000602082840312156105e9576105e8610424565b5b60006105f784828501610472565b91505092915050565b61060981610487565b82525050565b60006020820190506106246000830184610600565b92915050565b600081519050919050565b600082825260208201905092915050565b60005b83811015610664578082015181840152602081019050610649565b83811115610673576000848401525b50505050565b6000601f19601f8301169050919050565b60006106958261062a565b61069f8185610635565b93506106af818560208601610646565b6106b881610679565b840191505092915050565b600060208201905081810360008301526106dd818461068a565b905092915050565b6000806000606084860312156106fe576106fd610424565b5b600061070c86828701610472565b935050602061071d868287016104a8565b925050604061072e868287016104a8565b9150509250925092565b61074181610449565b82525050565b60006080820190508181036000830152610761818761068a565b90508181036020830152610775818661068a565b90506107846040830185610600565b6107916060830184610738565b95945050505050565b7f4e487b7100000000000000000000000000000000000000000000000000000000600052601160045260246000fd5b60006107d4826104bd565b91506107df836104bd565b92508260ff038211156107f5576107f461079a565b5b828201905092915050565b610809816104bd565b82525050565b600060808201905061082460008301876103fa565b6108316020830186610800565b61083e60408301856103fa565b61084b60608301846103fa565b95945050505050565b600081905092915050565b600061086a8261062a565b6108748185610854565b9350610884818560208601610646565b80840191505092915050565b600061089c828461085f565b915081905092915050565b60006080820190506108bc60008301876103fa565b6108c96020830186610738565b6108d66040830185610600565b6108e36060830184610600565b95945050505050565b7f1901000000000000000000000000000000000000000000000000000000000000600082015250565b6000610922600283610854565b915061092d826108ec565b600282019050919050565b6000819050919050565b61095361094e826103f0565b610938565b82525050565b600061096482610915565b91506109708285610942565b6020820191506109808284610942565b602082019150819050939250505056fe52656c61792861646472657373206f776e65722c75696e7432353620646561646c696e652c75696e74323536206e6f6e636529a26469706673582212205c6a59b329804a9343912224320df8d0a342d8e0467e14c8058f94205e9c4fea64736f6c634300080a0033454950373132446f6d61696e28737472696e67206e616d652c737472696e672076657273696f6e2c75696e7432353620636861696e49642c6164647265737320766572696679696e67436f6e747261637429",
					"opcodes": "PUSH1 0x80 PUSH1 0x40 MSTORE CALLVALUE DUP1 ISZERO PUSH3 0x11 JUMPI PUSH1 0x0 DUP1 REVERT JUMPDEST POP PUSH3 0x22 PUSH3 0x28 PUSH1 0x20 SHL PUSH1 0x20 SHR JUMP JUMPDEST PUSH3 0x328 JUMP JUMPDEST PUSH1 0x0 PUSH1 0x40 MLOAD DUP1 PUSH1 0x80 ADD PUSH1 0x40 MSTORE DUP1 PUSH1 0x52 DUP2 MSTORE PUSH1 0x20 ADD PUSH3 0xD31 PUSH1 0x52 SWAP2 CODECOPY SWAP1 POP PUSH1 0x0 DUP1 PUSH1 0x0 DUP1 PUSH3 0x5C PUSH3 0x11A PUSH1 0x20 SHL PUSH1 0x20 SHR JUMP JUMPDEST SWAP4 POP SWAP4 POP SWAP4 POP SWAP4 POP DUP5 PUSH1 0x40 MLOAD PUSH1 0x20 ADD PUSH3 0x77 SWAP2 SWAP1 PUSH3 0x237 JUMP JUMPDEST PUSH1 0x40 MLOAD PUSH1 0x20 DUP2 DUP4 SUB SUB DUP2 MSTORE SWAP1 PUSH1 0x40 MSTORE DUP1 MLOAD SWAP1 PUSH1 0x20 ADD KECCAK256 DUP5 PUSH1 0x40 MLOAD PUSH1 0x20 ADD PUSH3 0xA0 SWAP2 SWAP1 PUSH3 0x237 JUMP JUMPDEST PUSH1 0x40 MLOAD PUSH1 0x20 DUP2 DUP4 SUB SUB DUP2 MSTORE SWAP1 PUSH1 0x40 MSTORE DUP1 MLOAD SWAP1 PUSH1 0x20 ADD KECCAK256 DUP5 PUSH1 0x40 MLOAD PUSH1 0x20 ADD PUSH3 0xC9 SWAP2 SWAP1 PUSH3 0x237 JUMP JUMPDEST PUSH1 0x40 MLOAD PUSH1 0x20 DUP2 DUP4 SUB SUB DUP2 MSTORE SWAP1 PUSH1 0x40 MSTORE DUP1 MLOAD SWAP1 PUSH1 0x20 ADD KECCAK256 DUP5 DUP5 PUSH1 0x40 MLOAD PUSH1 0x20 ADD PUSH3 0xF7 SWAP6 SWAP5 SWAP4 SWAP3 SWAP2 SWAP1 PUSH3 0x2CB JUMP JUMPDEST PUSH1 0x40 MLOAD PUSH1 0x20 DUP2 DUP4 SUB SUB DUP2 MSTORE SWAP1 PUSH1 0x40 MSTORE DUP1 MLOAD SWAP1 PUSH1 0x20 ADD KECCAK256 PUSH1 0x0 DUP2 SWAP1 SSTORE POP POP POP POP POP POP JUMP JUMPDEST PUSH1 0x60 DUP1 PUSH1 0x0 DUP1 PUSH1 0x0 PUSH1 0x40 MLOAD DUP1 PUSH1 0x40 ADD PUSH1 0x40 MSTORE DUP1 PUSH1 0xF DUP2 MSTORE PUSH1 0x20 ADD PUSH32 0x4C75636B7942616C6C5F52656C61790000000000000000000000000000000000 DUP2 MSTORE POP SWAP1 POP PUSH1 0x0 PUSH1 0x40 MLOAD DUP1 PUSH1 0x40 ADD PUSH1 0x40 MSTORE DUP1 PUSH1 0x1 DUP2 MSTORE PUSH1 0x20 ADD PUSH32 0x3100000000000000000000000000000000000000000000000000000000000000 DUP2 MSTORE POP SWAP1 POP PUSH1 0x0 CHAINID SWAP1 POP PUSH1 0x0 ADDRESS SWAP1 POP DUP4 DUP4 DUP4 DUP4 SWAP8 POP SWAP8 POP SWAP8 POP SWAP8 POP POP POP POP POP SWAP1 SWAP2 SWAP3 SWAP4 JUMP JUMPDEST PUSH1 0x0 DUP2 MLOAD SWAP1 POP SWAP2 SWAP1 POP JUMP JUMPDEST PUSH1 0x0 DUP2 SWAP1 POP SWAP3 SWAP2 POP POP JUMP JUMPDEST PUSH1 0x0 JUMPDEST DUP4 DUP2 LT ISZERO PUSH3 0x1EA JUMPI DUP1 DUP3 ADD MLOAD DUP2 DUP5 ADD MSTORE PUSH1 0x20 DUP2 ADD SWAP1 POP PUSH3 0x1CD JUMP JUMPDEST DUP4 DUP2 GT ISZERO PUSH3 0x1FA JUMPI PUSH1 0x0 DUP5 DUP5 ADD MSTORE JUMPDEST POP POP POP POP JUMP JUMPDEST PUSH1 0x0 PUSH3 0x20D DUP3 PUSH3 0x1B4 JUMP JUMPDEST PUSH3 0x219 DUP2 DUP6 PUSH3 0x1BF JUMP JUMPDEST SWAP4 POP PUSH3 0x22B DUP2 DUP6 PUSH1 0x20 DUP7 ADD PUSH3 0x1CA JUMP JUMPDEST DUP1 DUP5 ADD SWAP2 POP POP SWAP3 SWAP2 POP POP JUMP JUMPDEST PUSH1 0x0 PUSH3 0x245 DUP3 DUP5 PUSH3 0x200 JUMP JUMPDEST SWAP2 POP DUP2 SWAP1 POP SWAP3 SWAP2 POP POP JUMP JUMPDEST PUSH1 0x0 DUP2 SWAP1 POP SWAP2 SWAP1 POP JUMP JUMPDEST PUSH3 0x265 DUP2 PUSH3 0x250 JUMP JUMPDEST DUP3 MSTORE POP POP JUMP JUMPDEST PUSH1 0x0 DUP2 SWAP1 POP SWAP2 SWAP1 POP JUMP JUMPDEST PUSH3 0x280 DUP2 PUSH3 0x26B JUMP JUMPDEST DUP3 MSTORE POP POP JUMP JUMPDEST PUSH1 0x0 PUSH20 0xFFFFFFFFFFFFFFFFFFFFFFFFFFFFFFFFFFFFFFFF DUP3 AND SWAP1 POP SWAP2 SWAP1 POP JUMP JUMPDEST PUSH1 0x0 PUSH3 0x2B3 DUP3 PUSH3 0x286 JUMP JUMPDEST SWAP1 POP SWAP2 SWAP1 POP JUMP JUMPDEST PUSH3 0x2C5 DUP2 PUSH3 0x2A6 JUMP JUMPDEST DUP3 MSTORE POP POP JUMP JUMPDEST PUSH1 0x0 PUSH1 0xA0 DUP3 ADD SWAP1 POP PUSH3 0x2E2 PUSH1 0x0 DUP4 ADD DUP9 PUSH3 0x25A JUMP JUMPDEST PUSH3 0x2F1 PUSH1 0x20 DUP4 ADD DUP8 PUSH3 0x25A JUMP JUMPDEST PUSH3 0x300 PUSH1 0x40 DUP4 ADD DUP7 PUSH3 0x25A JUMP JUMPDEST PUSH3 0x30F PUSH1 0x60 DUP4 ADD DUP6 PUSH3 0x275 JUMP JUMPDEST PUSH3 0x31E PUSH1 0x80 DUP4 ADD DUP5 PUSH3 0x2BA JUMP JUMPDEST SWAP7 SWAP6 POP POP POP POP POP POP JUMP JUMPDEST PUSH2 0x9F9 DUP1 PUSH3 0x338 PUSH1 0x0 CODECOPY PUSH1 0x0 RETURN INVALID PUSH1 0x80 PUSH1 0x40 MSTORE CALLVALUE DUP1 ISZERO PUSH2 0x10 JUMPI PUSH1 0x0 DUP1 REVERT JUMPDEST POP PUSH1 0x4 CALLDATASIZE LT PUSH2 0x62 JUMPI PUSH1 0x0 CALLDATALOAD PUSH1 0xE0 SHR DUP1 PUSH4 0x3644E515 EQ PUSH2 0x67 JUMPI DUP1 PUSH4 0x383C84E3 EQ PUSH2 0x85 JUMPI DUP1 PUSH4 0x7ECEBE00 EQ PUSH2 0xB5 JUMPI DUP1 PUSH4 0xA529D3B0 EQ PUSH2 0xE5 JUMPI DUP1 PUSH4 0xAE95234C EQ PUSH2 0x103 JUMPI DUP1 PUSH4 0xF9523B21 EQ PUSH2 0x133 JUMPI JUMPDEST PUSH1 0x0 DUP1 REVERT JUMPDEST PUSH2 0x6F PUSH2 0x154 JUMP JUMPDEST PUSH1 0x40 MLOAD PUSH2 0x7C SWAP2 SWAP1 PUSH2 0x409 JUMP JUMPDEST PUSH1 0x40 MLOAD DUP1 SWAP2 SUB SWAP1 RETURN JUMPDEST PUSH2 0x9F PUSH1 0x4 DUP1 CALLDATASIZE SUB DUP2 ADD SWAP1 PUSH2 0x9A SWAP2 SWAP1 PUSH2 0x522 JUMP JUMPDEST PUSH2 0x15A JUMP JUMPDEST PUSH1 0x40 MLOAD PUSH2 0xAC SWAP2 SWAP1 PUSH2 0x5B8 JUMP JUMPDEST PUSH1 0x40 MLOAD DUP1 SWAP2 SUB SWAP1 RETURN JUMPDEST PUSH2 0xCF PUSH1 0x4 DUP1 CALLDATASIZE SUB DUP2 ADD SWAP1 PUSH2 0xCA SWAP2 SWAP1 PUSH2 0x5D3 JUMP JUMPDEST PUSH2 0x24E JUMP JUMPDEST PUSH1 0x40 MLOAD PUSH2 0xDC SWAP2 SWAP1 PUSH2 0x60F JUMP JUMPDEST PUSH1 0x40 MLOAD DUP1 SWAP2 SUB SWAP1 RETURN JUMPDEST PUSH2 0xED PUSH2 0x297 JUMP JUMPDEST PUSH1 0x40 MLOAD PUSH2 0xFA SWAP2 SWAP1 PUSH2 0x6C3 JUMP JUMPDEST PUSH1 0x40 MLOAD DUP1 SWAP2 SUB SWAP1 RETURN JUMPDEST PUSH2 0x11D PUSH1 0x4 DUP1 CALLDATASIZE SUB DUP2 ADD SWAP1 PUSH2 0x118 SWAP2 SWAP1 PUSH2 0x6E5 JUMP JUMPDEST PUSH2 0x2BD JUMP JUMPDEST PUSH1 0x40 MLOAD PUSH2 0x12A SWAP2 SWAP1 PUSH2 0x409 JUMP JUMPDEST PUSH1 0x40 MLOAD DUP1 SWAP2 SUB SWAP1 RETURN JUMPDEST PUSH2 0x13B PUSH2 0x356 JUMP JUMPDEST PUSH1 0x40 MLOAD PUSH2 0x14B SWAP5 SWAP4 SWAP3 SWAP2 SWAP1 PUSH2 0x747 JUMP JUMPDEST PUSH1 0x40 MLOAD DUP1 SWAP2 SUB SWAP1 RETURN JUMPDEST PUSH1 0x0 SLOAD DUP2 JUMP JUMPDEST PUSH1 0x0 DUP1 PUSH2 0x1A7 DUP8 DUP8 PUSH1 0x1 PUSH1 0x0 DUP12 PUSH20 0xFFFFFFFFFFFFFFFFFFFFFFFFFFFFFFFFFFFFFFFF AND PUSH20 0xFFFFFFFFFFFFFFFFFFFFFFFFFFFFFFFFFFFFFFFF AND DUP2 MSTORE PUSH1 0x20 ADD SWAP1 DUP2 MSTORE PUSH1 0x20 ADD PUSH1 0x0 KECCAK256 SLOAD PUSH2 0x2BD JUMP JUMPDEST SWAP1 POP PUSH1 0x1B DUP6 PUSH1 0xFF AND LT ISZERO PUSH2 0x1C5 JUMPI PUSH1 0x1B DUP6 PUSH2 0x1C2 SWAP2 SWAP1 PUSH2 0x7C9 JUMP JUMPDEST SWAP5 POP JUMPDEST PUSH1 0x1 DUP2 DUP7 DUP7 DUP7 PUSH1 0x40 MLOAD PUSH1 0x0 DUP2 MSTORE PUSH1 0x20 ADD PUSH1 0x40 MSTORE PUSH1 0x40 MLOAD PUSH2 0x1E8 SWAP5 SWAP4 SWAP3 SWAP2 SWAP1 PUSH2 0x80F JUMP JUMPDEST PUSH1 0x20 PUSH1 0x40 MLOAD PUSH1 0x20 DUP2 SUB SWAP1 DUP1 DUP5 SUB SWAP1 DUP6 GAS STATICCALL ISZERO DUP1 ISZERO PUSH2 0x20A JUMPI RETURNDATASIZE PUSH1 0x0 DUP1 RETURNDATACOPY RETURNDATASIZE PUSH1 0x0 REVERT JUMPDEST POP POP POP PUSH1 0x20 PUSH1 0x40 MLOAD SUB MLOAD PUSH20 0xFFFFFFFFFFFFFFFFFFFFFFFFFFFFFFFFFFFFFFFF AND DUP8 PUSH20 0xFFFFFFFFFFFFFFFFFFFFFFFFFFFFFFFFFFFFFFFF AND EQ SWAP2 POP POP SWAP6 SWAP5 POP POP POP POP POP JUMP JUMPDEST PUSH1 0x0 PUSH1 0x1 PUSH1 0x0 DUP4 PUSH20 0xFFFFFFFFFFFFFFFFFFFFFFFFFFFFFFFFFFFFFFFF AND PUSH20 0xFFFFFFFFFFFFFFFFFFFFFFFFFFFFFFFFFFFFFFFF AND DUP2 MSTORE PUSH1 0x20 ADD SWAP1 DUP2 MSTORE PUSH1 0x20 ADD PUSH1 0x0 KECCAK256 SLOAD SWAP1 POP SWAP2 SWAP1 POP JUMP JUMPDEST PUSH1 0x60 PUSH1 0x0 PUSH1 0x40 MLOAD DUP1 PUSH1 0x60 ADD PUSH1 0x40 MSTORE DUP1 PUSH1 0x33 DUP2 MSTORE PUSH1 0x20 ADD PUSH2 0x991 PUSH1 0x33 SWAP2 CODECOPY SWAP1 POP DUP1 SWAP2 POP POP SWAP1 JUMP JUMPDEST PUSH1 0x0 DUP1 PUSH2 0x2C8 PUSH2 0x297 JUMP JUMPDEST SWAP1 POP PUSH1 0x0 DUP1 SLOAD DUP3 PUSH1 0x40 MLOAD PUSH1 0x20 ADD PUSH2 0x2DF SWAP2 SWAP1 PUSH2 0x890 JUMP JUMPDEST PUSH1 0x40 MLOAD PUSH1 0x20 DUP2 DUP4 SUB SUB DUP2 MSTORE SWAP1 PUSH1 0x40 MSTORE DUP1 MLOAD SWAP1 PUSH1 0x20 ADD KECCAK256 DUP8 DUP8 DUP8 PUSH1 0x40 MLOAD PUSH1 0x20 ADD PUSH2 0x30B SWAP5 SWAP4 SWAP3 SWAP2 SWAP1 PUSH2 0x8A7 JUMP JUMPDEST PUSH1 0x40 MLOAD PUSH1 0x20 DUP2 DUP4 SUB SUB DUP2 MSTORE SWAP1 PUSH1 0x40 MSTORE DUP1 MLOAD SWAP1 PUSH1 0x20 ADD KECCAK256 PUSH1 0x40 MLOAD PUSH1 0x20 ADD PUSH2 0x332 SWAP3 SWAP2 SWAP1 PUSH2 0x959 JUMP JUMPDEST PUSH1 0x40 MLOAD PUSH1 0x20 DUP2 DUP4 SUB SUB DUP2 MSTORE SWAP1 PUSH1 0x40 MSTORE DUP1 MLOAD SWAP1 PUSH1 0x20 ADD KECCAK256 SWAP1 POP DUP1 SWAP3 POP POP POP SWAP4 SWAP3 POP POP POP JUMP JUMPDEST PUSH1 0x60 DUP1 PUSH1 0x0 DUP1 PUSH1 0x0 PUSH1 0x40 MLOAD DUP1 PUSH1 0x40 ADD PUSH1 0x40 MSTORE DUP1 PUSH1 0xF DUP2 MSTORE PUSH1 0x20 ADD PUSH32 0x4C75636B7942616C6C5F52656C61790000000000000000000000000000000000 DUP2 MSTORE POP SWAP1 POP PUSH1 0x0 PUSH1 0x40 MLOAD DUP1 PUSH1 0x40 ADD PUSH1 0x40 MSTORE DUP1 PUSH1 0x1 DUP2 MSTORE PUSH1 0x20 ADD PUSH32 0x3100000000000000000000000000000000000000000000000000000000000000 DUP2 MSTORE POP SWAP1 POP PUSH1 0x0 CHAINID SWAP1 POP PUSH1 0x0 ADDRESS SWAP1 POP DUP4 DUP4 DUP4 DUP4 SWAP8 POP SWAP8 POP SWAP8 POP SWAP8 POP POP POP POP POP SWAP1 SWAP2 SWAP3 SWAP4 JUMP JUMPDEST PUSH1 0x0 DUP2 SWAP1 POP SWAP2 SWAP1 POP JUMP JUMPDEST PUSH2 0x403 DUP2 PUSH2 0x3F0 JUMP JUMPDEST DUP3 MSTORE POP POP JUMP JUMPDEST PUSH1 0x0 PUSH1 0x20 DUP3 ADD SWAP1 POP PUSH2 0x41E PUSH1 0x0 DUP4 ADD DUP5 PUSH2 0x3FA JUMP JUMPDEST SWAP3 SWAP2 POP POP JUMP JUMPDEST PUSH1 0x0 DUP1 REVERT JUMPDEST PUSH1 0x0 PUSH20 0xFFFFFFFFFFFFFFFFFFFFFFFFFFFFFFFFFFFFFFFF DUP3 AND SWAP1 POP SWAP2 SWAP1 POP JUMP JUMPDEST PUSH1 0x0 PUSH2 0x454 DUP3 PUSH2 0x429 JUMP JUMPDEST SWAP1 POP SWAP2 SWAP1 POP JUMP JUMPDEST PUSH2 0x464 DUP2 PUSH2 0x449 JUMP JUMPDEST DUP2 EQ PUSH2 0x46F JUMPI PUSH1 0x0 DUP1 REVERT JUMPDEST POP JUMP JUMPDEST PUSH1 0x0 DUP2 CALLDATALOAD SWAP1 POP PUSH2 0x481 DUP2 PUSH2 0x45B JUMP JUMPDEST SWAP3 SWAP2 POP POP JUMP JUMPDEST PUSH1 0x0 DUP2 SWAP1 POP SWAP2 SWAP1 POP JUMP JUMPDEST PUSH2 0x49A DUP2 PUSH2 0x487 JUMP JUMPDEST DUP2 EQ PUSH2 0x4A5 JUMPI PUSH1 0x0 DUP1 REVERT JUMPDEST POP JUMP JUMPDEST PUSH1 0x0 DUP2 CALLDATALOAD SWAP1 POP PUSH2 0x4B7 DUP2 PUSH2 0x491 JUMP JUMPDEST SWAP3 SWAP2 POP POP JUMP JUMPDEST PUSH1 0x0 PUSH1 0xFF DUP3 AND SWAP1 POP SWAP2 SWAP1 POP JUMP JUMPDEST PUSH2 0x4D3 DUP2 PUSH2 0x4BD JUMP JUMPDEST DUP2 EQ PUSH2 0x4DE JUMPI PUSH1 0x0 DUP1 REVERT JUMPDEST POP JUMP JUMPDEST PUSH1 0x0 DUP2 CALLDATALOAD SWAP1 POP PUSH2 0x4F0 DUP2 PUSH2 0x4CA JUMP JUMPDEST SWAP3 SWAP2 POP POP JUMP JUMPDEST PUSH2 0x4FF DUP2 PUSH2 0x3F0 JUMP JUMPDEST DUP2 EQ PUSH2 0x50A JUMPI PUSH1 0x0 DUP1 REVERT JUMPDEST POP JUMP JUMPDEST PUSH1 0x0 DUP2 CALLDATALOAD SWAP1 POP PUSH2 0x51C DUP2 PUSH2 0x4F6 JUMP JUMPDEST SWAP3 SWAP2 POP POP JUMP JUMPDEST PUSH1 0x0 DUP1 PUSH1 0x0 DUP1 PUSH1 0x0 PUSH1 0xA0 DUP7 DUP9 SUB SLT ISZERO PUSH2 0x53E JUMPI PUSH2 0x53D PUSH2 0x424 JUMP JUMPDEST JUMPDEST PUSH1 0x0 PUSH2 0x54C DUP9 DUP3 DUP10 ADD PUSH2 0x472 JUMP JUMPDEST SWAP6 POP POP PUSH1 0x20 PUSH2 0x55D DUP9 DUP3 DUP10 ADD PUSH2 0x4A8 JUMP JUMPDEST SWAP5 POP POP PUSH1 0x40 PUSH2 0x56E DUP9 DUP3 DUP10 ADD PUSH2 0x4E1 JUMP JUMPDEST SWAP4 POP POP PUSH1 0x60 PUSH2 0x57F DUP9 DUP3 DUP10 ADD PUSH2 0x50D JUMP JUMPDEST SWAP3 POP POP PUSH1 0x80 PUSH2 0x590 DUP9 DUP3 DUP10 ADD PUSH2 0x50D JUMP JUMPDEST SWAP2 POP POP SWAP3 SWAP6 POP SWAP3 SWAP6 SWAP1 SWAP4 POP JUMP JUMPDEST PUSH1 0x0 DUP2 ISZERO ISZERO SWAP1 POP SWAP2 SWAP1 POP JUMP JUMPDEST PUSH2 0x5B2 DUP2 PUSH2 0x59D JUMP JUMPDEST DUP3 MSTORE POP POP JUMP JUMPDEST PUSH1 0x0 PUSH1 0x20 DUP3 ADD SWAP1 POP PUSH2 0x5CD PUSH1 0x0 DUP4 ADD DUP5 PUSH2 0x5A9 JUMP JUMPDEST SWAP3 SWAP2 POP POP JUMP JUMPDEST PUSH1 0x0 PUSH1 0x20 DUP3 DUP5 SUB SLT ISZERO PUSH2 0x5E9 JUMPI PUSH2 0x5E8 PUSH2 0x424 JUMP JUMPDEST JUMPDEST PUSH1 0x0 PUSH2 0x5F7 DUP5 DUP3 DUP6 ADD PUSH2 0x472 JUMP JUMPDEST SWAP2 POP POP SWAP3 SWAP2 POP POP JUMP JUMPDEST PUSH2 0x609 DUP2 PUSH2 0x487 JUMP JUMPDEST DUP3 MSTORE POP POP JUMP JUMPDEST PUSH1 0x0 PUSH1 0x20 DUP3 ADD SWAP1 POP PUSH2 0x624 PUSH1 0x0 DUP4 ADD DUP5 PUSH2 0x600 JUMP JUMPDEST SWAP3 SWAP2 POP POP JUMP JUMPDEST PUSH1 0x0 DUP2 MLOAD SWAP1 POP SWAP2 SWAP1 POP JUMP JUMPDEST PUSH1 0x0 DUP3 DUP3 MSTORE PUSH1 0x20 DUP3 ADD SWAP1 POP SWAP3 SWAP2 POP POP JUMP JUMPDEST PUSH1 0x0 JUMPDEST DUP4 DUP2 LT ISZERO PUSH2 0x664 JUMPI DUP1 DUP3 ADD MLOAD DUP2 DUP5 ADD MSTORE PUSH1 0x20 DUP2 ADD SWAP1 POP PUSH2 0x649 JUMP JUMPDEST DUP4 DUP2 GT ISZERO PUSH2 0x673 JUMPI PUSH1 0x0 DUP5 DUP5 ADD MSTORE JUMPDEST POP POP POP POP JUMP JUMPDEST PUSH1 0x0 PUSH1 0x1F NOT PUSH1 0x1F DUP4 ADD AND SWAP1 POP SWAP2 SWAP1 POP JUMP JUMPDEST PUSH1 0x0 PUSH2 0x695 DUP3 PUSH2 0x62A JUMP JUMPDEST PUSH2 0x69F DUP2 DUP6 PUSH2 0x635 JUMP JUMPDEST SWAP4 POP PUSH2 0x6AF DUP2 DUP6 PUSH1 0x20 DUP7 ADD PUSH2 0x646 JUMP JUMPDEST PUSH2 0x6B8 DUP2 PUSH2 0x679 JUMP JUMPDEST DUP5 ADD SWAP2 POP POP SWAP3 SWAP2 POP POP JUMP JUMPDEST PUSH1 0x0 PUSH1 0x20 DUP3 ADD SWAP1 POP DUP2 DUP2 SUB PUSH1 0x0 DUP4 ADD MSTORE PUSH2 0x6DD DUP2 DUP5 PUSH2 0x68A JUMP JUMPDEST SWAP1 POP SWAP3 SWAP2 POP POP JUMP JUMPDEST PUSH1 0x0 DUP1 PUSH1 0x0 PUSH1 0x60 DUP5 DUP7 SUB SLT ISZERO PUSH2 0x6FE JUMPI PUSH2 0x6FD PUSH2 0x424 JUMP JUMPDEST JUMPDEST PUSH1 0x0 PUSH2 0x70C DUP7 DUP3 DUP8 ADD PUSH2 0x472 JUMP JUMPDEST SWAP4 POP POP PUSH1 0x20 PUSH2 0x71D DUP7 DUP3 DUP8 ADD PUSH2 0x4A8 JUMP JUMPDEST SWAP3 POP POP PUSH1 0x40 PUSH2 0x72E DUP7 DUP3 DUP8 ADD PUSH2 0x4A8 JUMP JUMPDEST SWAP2 POP POP SWAP3 POP SWAP3 POP SWAP3 JUMP JUMPDEST PUSH2 0x741 DUP2 PUSH2 0x449 JUMP JUMPDEST DUP3 MSTORE POP POP JUMP JUMPDEST PUSH1 0x0 PUSH1 0x80 DUP3 ADD SWAP1 POP DUP2 DUP2 SUB PUSH1 0x0 DUP4 ADD MSTORE PUSH2 0x761 DUP2 DUP8 PUSH2 0x68A JUMP JUMPDEST SWAP1 POP DUP2 DUP2 SUB PUSH1 0x20 DUP4 ADD MSTORE PUSH2 0x775 DUP2 DUP7 PUSH2 0x68A JUMP JUMPDEST SWAP1 POP PUSH2 0x784 PUSH1 0x40 DUP4 ADD DUP6 PUSH2 0x600 JUMP JUMPDEST PUSH2 0x791 PUSH1 0x60 DUP4 ADD DUP5 PUSH2 0x738 JUMP JUMPDEST SWAP6 SWAP5 POP POP POP POP POP JUMP JUMPDEST PUSH32 0x4E487B7100000000000000000000000000000000000000000000000000000000 PUSH1 0x0 MSTORE PUSH1 0x11 PUSH1 0x4 MSTORE PUSH1 0x24 PUSH1 0x0 REVERT JUMPDEST PUSH1 0x0 PUSH2 0x7D4 DUP3 PUSH2 0x4BD JUMP JUMPDEST SWAP2 POP PUSH2 0x7DF DUP4 PUSH2 0x4BD JUMP JUMPDEST SWAP3 POP DUP3 PUSH1 0xFF SUB DUP3 GT ISZERO PUSH2 0x7F5 JUMPI PUSH2 0x7F4 PUSH2 0x79A JUMP JUMPDEST JUMPDEST DUP3 DUP3 ADD SWAP1 POP SWAP3 SWAP2 POP POP JUMP JUMPDEST PUSH2 0x809 DUP2 PUSH2 0x4BD JUMP JUMPDEST DUP3 MSTORE POP POP JUMP JUMPDEST PUSH1 0x0 PUSH1 0x80 DUP3 ADD SWAP1 POP PUSH2 0x824 PUSH1 0x0 DUP4 ADD DUP8 PUSH2 0x3FA JUMP JUMPDEST PUSH2 0x831 PUSH1 0x20 DUP4 ADD DUP7 PUSH2 0x800 JUMP JUMPDEST PUSH2 0x83E PUSH1 0x40 DUP4 ADD DUP6 PUSH2 0x3FA JUMP JUMPDEST PUSH2 0x84B PUSH1 0x60 DUP4 ADD DUP5 PUSH2 0x3FA JUMP JUMPDEST SWAP6 SWAP5 POP POP POP POP POP JUMP JUMPDEST PUSH1 0x0 DUP2 SWAP1 POP SWAP3 SWAP2 POP POP JUMP JUMPDEST PUSH1 0x0 PUSH2 0x86A DUP3 PUSH2 0x62A JUMP JUMPDEST PUSH2 0x874 DUP2 DUP6 PUSH2 0x854 JUMP JUMPDEST SWAP4 POP PUSH2 0x884 DUP2 DUP6 PUSH1 0x20 DUP7 ADD PUSH2 0x646 JUMP JUMPDEST DUP1 DUP5 ADD SWAP2 POP POP SWAP3 SWAP2 POP POP JUMP JUMPDEST PUSH1 0x0 PUSH2 0x89C DUP3 DUP5 PUSH2 0x85F JUMP JUMPDEST SWAP2 POP DUP2 SWAP1 POP SWAP3 SWAP2 POP POP JUMP JUMPDEST PUSH1 0x0 PUSH1 0x80 DUP3 ADD SWAP1 POP PUSH2 0x8BC PUSH1 0x0 DUP4 ADD DUP8 PUSH2 0x3FA JUMP JUMPDEST PUSH2 0x8C9 PUSH1 0x20 DUP4 ADD DUP7 PUSH2 0x738 JUMP JUMPDEST PUSH2 0x8D6 PUSH1 0x40 DUP4 ADD DUP6 PUSH2 0x600 JUMP JUMPDEST PUSH2 0x8E3 PUSH1 0x60 DUP4 ADD DUP5 PUSH2 0x600 JUMP JUMPDEST SWAP6 SWAP5 POP POP POP POP POP JUMP JUMPDEST PUSH32 0x1901000000000000000000000000000000000000000000000000000000000000 PUSH1 0x0 DUP3 ADD MSTORE POP JUMP JUMPDEST PUSH1 0x0 PUSH2 0x922 PUSH1 0x2 DUP4 PUSH2 0x854 JUMP JUMPDEST SWAP2 POP PUSH2 0x92D DUP3 PUSH2 0x8EC JUMP JUMPDEST PUSH1 0x2 DUP3 ADD SWAP1 POP SWAP2 SWAP1 POP JUMP JUMPDEST PUSH1 0x0 DUP2 SWAP1 POP SWAP2 SWAP1 POP JUMP JUMPDEST PUSH2 0x953 PUSH2 0x94E DUP3 PUSH2 0x3F0 JUMP JUMPDEST PUSH2 0x938 JUMP JUMPDEST DUP3 MSTORE POP POP JUMP JUMPDEST PUSH1 0x0 PUSH2 0x964 DUP3 PUSH2 0x915 JUMP JUMPDEST SWAP2 POP PUSH2 0x970 DUP3 DUP6 PUSH2 0x942 JUMP JUMPDEST PUSH1 0x20 DUP3 ADD SWAP2 POP PUSH2 0x980 DUP3 DUP5 PUSH2 0x942 JUMP JUMPDEST PUSH1 0x20 DUP3 ADD SWAP2 POP DUP2 SWAP1 POP SWAP4 SWAP3 POP POP POP JUMP INVALID MSTORE PUSH6 0x6C6179286164 PUSH5 0x7265737320 PUSH16 0x776E65722C75696E7432353620646561 PUSH5 0x6C696E652C PUSH22 0x696E74323536206E6F6E636529A26469706673582212 KECCAK256 0x5C PUSH11 0x59B329804A934391222432 0xD 0xF8 0xD0 LOG3 TIMESTAMP 0xD8 0xE0 CHAINID PUSH31 0x14C8058F94205E9C4FEA64736F6C634300080A0033454950373132446F6D61 PUSH10 0x6E28737472696E67206E PUSH2 0x6D65 0x2C PUSH20 0x7472696E672076657273696F6E2C75696E743235 CALLDATASIZE KECCAK256 PUSH4 0x6861696E 0x49 PUSH5 0x2C61646472 PUSH6 0x737320766572 PUSH10 0x6679696E67436F6E7472 PUSH2 0x6374 0x29 "
				},
				"gasEstimates": {
					"creation": {
						"codeDepositCost": "510600",
						"executionCost": "infinite",
						"totalCost": "infinite"
					},
					"external": {
						"DOMAIN_SEPARATOR()": "2407",
						"getDomainInfo()": "infinite",
						"getEIP712Hash(address,uint256,uint256)": "infinite",
						"getRelayMessageTypes()": "infinite",
						"nonces(address)": "2863",
						"verifySig(address,uint256,uint8,bytes32,bytes32)": "infinite"
					},
					"internal": {
						"_setDomainSeparator()": "infinite"
					}
				},
				"methodIdentifiers": {
					"DOMAIN_SEPARATOR()": "3644e515",
					"getDomainInfo()": "f9523b21",
					"getEIP712Hash(address,uint256,uint256)": "ae95234c",
					"getRelayMessageTypes()": "a529d3b0",
					"nonces(address)": "7ecebe00",
					"verifySig(address,uint256,uint8,bytes32,bytes32)": "383c84e3"
				}
			},
			"storageLayout": {
				"storage": [
					{
						"astId": 3,
						"contract": "TypedData.sol:VerifyTypedData",
						"label": "DOMAIN_SEPARATOR",
						"offset": 0,
						"slot": "0",
						"type": "t_bytes32"
					},
					{
						"astId": 7,
						"contract": "TypedData.sol:VerifyTypedData",
						"label": "_nonces",
						"offset": 0,
						"slot": "1",
						"type": "t_mapping(t_address,t_uint256)"
					}
				],
				"types": {
					"t_address": {
						"encoding": "inplace",
						"label": "address",
						"numberOfBytes": "20"
					},
					"t_bytes32": {
						"encoding": "inplace",
						"label": "bytes32",
						"numberOfBytes": "32"
					},
					"t_mapping(t_address,t_uint256)": {
						"encoding": "mapping",
						"key": "t_address",
						"label": "mapping(address => uint256)",
						"numberOfBytes": "32",
						"value": "t_uint256"
					},
					"t_uint256": {
						"encoding": "inplace",
						"label": "uint256",
						"numberOfBytes": "32"
					}
				}
			},
			"userdoc": {
				"kind": "user",
				"methods": {},
				"version": 1
			}
		}
	}
}