{
	"Lock.sol": {
		"LuckyBall": {
			"abi": [
				{
					"inputs": [],
					"stateMutability": "nonpayable",
					"type": "constructor"
				},
				{
					"inputs": [],
					"name": "active",
					"outputs": [
						{
							"internalType": "bool",
							"name": "",
							"type": "bool"
						}
					],
					"stateMutability": "view",
					"type": "function"
				},
				{
					"inputs": [
						{
							"internalType": "uint64",
							"name": "",
							"type": "uint64"
						}
					],
					"name": "balls",
					"outputs": [
						{
							"internalType": "uint64",
							"name": "ballId",
							"type": "uint64"
						},
						{
							"internalType": "address",
							"name": "owner",
							"type": "address"
						},
						{
							"internalType": "uint256",
							"name": "seasonId",
							"type": "uint256"
						},
						{
							"internalType": "uint256",
							"name": "revealGroup",
							"type": "uint256"
						}
					],
					"stateMutability": "view",
					"type": "function"
				},
				{
					"inputs": [],
					"name": "endSeason",
					"outputs": [
						{
							"internalType": "uint256",
							"name": "",
							"type": "uint256"
						}
					],
					"stateMutability": "nonpayable",
					"type": "function"
				},
				{
					"inputs": [
						{
							"internalType": "uint256",
							"name": "n",
							"type": "uint256"
						}
					],
					"name": "extractCode",
					"outputs": [
						{
							"internalType": "uint256",
							"name": "",
							"type": "uint256"
						}
					],
					"stateMutability": "pure",
					"type": "function"
				},
				{
					"inputs": [],
					"name": "getCurrentSeansionId",
					"outputs": [
						{
							"internalType": "uint256",
							"name": "",
							"type": "uint256"
						}
					],
					"stateMutability": "view",
					"type": "function"
				},
				{
					"inputs": [],
					"name": "getCurrentSeason",
					"outputs": [
						{
							"components": [
								{
									"internalType": "uint256",
									"name": "seasonId",
									"type": "uint256"
								},
								{
									"internalType": "uint64",
									"name": "startBallId",
									"type": "uint64"
								},
								{
									"internalType": "uint64",
									"name": "endBallId",
									"type": "uint64"
								},
								{
									"internalType": "uint64",
									"name": "winningBallId",
									"type": "uint64"
								},
								{
									"internalType": "uint256",
									"name": "winningCode",
									"type": "uint256"
								}
							],
							"internalType": "struct LuckyBall.Season",
							"name": "",
							"type": "tuple"
						}
					],
					"stateMutability": "nonpayable",
					"type": "function"
				},
				{
					"inputs": [],
					"name": "issueBalls",
					"outputs": [
						{
							"internalType": "bool",
							"name": "",
							"type": "bool"
						}
					],
					"stateMutability": "nonpayable",
					"type": "function"
				},
				{
					"inputs": [],
					"name": "requestWinningBallId",
					"outputs": [
						{
							"internalType": "bool",
							"name": "",
							"type": "bool"
						}
					],
					"stateMutability": "nonpayable",
					"type": "function"
				},
				{
					"inputs": [],
					"name": "requestWinningCode",
					"outputs": [
						{
							"internalType": "bool",
							"name": "",
							"type": "bool"
						}
					],
					"stateMutability": "nonpayable",
					"type": "function"
				},
				{
					"inputs": [
						{
							"internalType": "uint256",
							"name": "",
							"type": "uint256"
						}
					],
					"name": "revealGroupSeeds",
					"outputs": [
						{
							"internalType": "uint256",
							"name": "",
							"type": "uint256"
						}
					],
					"stateMutability": "view",
					"type": "function"
				},
				{
					"inputs": [
						{
							"internalType": "uint256",
							"name": "",
							"type": "uint256"
						}
					],
					"name": "revealPending",
					"outputs": [
						{
							"internalType": "uint64",
							"name": "",
							"type": "uint64"
						}
					],
					"stateMutability": "view",
					"type": "function"
				},
				{
					"inputs": [
						{
							"internalType": "uint256",
							"name": "",
							"type": "uint256"
						}
					],
					"name": "seasons",
					"outputs": [
						{
							"internalType": "uint256",
							"name": "seasonId",
							"type": "uint256"
						},
						{
							"internalType": "uint64",
							"name": "startBallId",
							"type": "uint64"
						},
						{
							"internalType": "uint64",
							"name": "endBallId",
							"type": "uint64"
						},
						{
							"internalType": "uint64",
							"name": "winningBallId",
							"type": "uint64"
						},
						{
							"internalType": "uint256",
							"name": "winningCode",
							"type": "uint256"
						}
					],
					"stateMutability": "view",
					"type": "function"
				},
				{
					"inputs": [
						{
							"internalType": "uint256",
							"name": "seed",
							"type": "uint256"
						}
					],
					"name": "setSeasonWinningCode",
					"outputs": [
						{
							"internalType": "bool",
							"name": "",
							"type": "bool"
						}
					],
					"stateMutability": "nonpayable",
					"type": "function"
				},
				{
					"inputs": [],
					"name": "startSeason",
					"outputs": [
						{
							"internalType": "uint256",
							"name": "",
							"type": "uint256"
						}
					],
					"stateMutability": "nonpayable",
					"type": "function"
				},
				{
					"inputs": [
						{
							"internalType": "address",
							"name": "",
							"type": "address"
						},
						{
							"internalType": "uint256",
							"name": "",
							"type": "uint256"
						},
						{
							"internalType": "uint256",
							"name": "",
							"type": "uint256"
						}
					],
					"name": "userBalls",
					"outputs": [
						{
							"internalType": "uint64",
							"name": "",
							"type": "uint64"
						}
					],
					"stateMutability": "view",
					"type": "function"
				}
			],
			"devdoc": {
				"kind": "dev",
				"methods": {},
				"version": 1
			},
			"evm": {
				"assembly": "    /* \"Lock.sol\":1062:3227  contract LuckyBall {... */\n  mstore(0x40, 0x80)\n    /* \"Lock.sol\":1280:1285  false */\n  0x00\n    /* \"Lock.sol\":1259:1285  bool public active = false */\n  0x03\n  exp(0x0100, 0x00)\n  dup2\n  sload\n  dup2\n  0xff\n  mul\n  not\n  and\n  swap1\n  dup4\n  iszero\n  iszero\n  mul\n  or\n  swap1\n  sstore\n  pop\n    /* \"Lock.sol\":1624:1711  constructor() {... */\n  callvalue\n  dup1\n  iszero\n  tag_1\n  jumpi\n  0x00\n  dup1\n  revert\ntag_1:\n  pop\n    /* \"Lock.sol\":1648:1668  _ballIds.increment() */\n  tag_4\n    /* \"Lock.sol\":1648:1656  _ballIds */\n  0x00\n    /* \"Lock.sol\":1648:1666  _ballIds.increment */\n  shl(0x20, tag_5)\n    /* \"Lock.sol\":1648:1668  _ballIds.increment() */\n  0x20\n  shr\n  jump\t// in\ntag_4:\n    /* \"Lock.sol\":1678:1703  _revealGroups.increment() */\n  tag_6\n    /* \"Lock.sol\":1678:1691  _revealGroups */\n  0x02\n    /* \"Lock.sol\":1678:1701  _revealGroups.increment */\n  shl(0x20, tag_5)\n    /* \"Lock.sol\":1678:1703  _revealGroups.increment() */\n  0x20\n  shr\n  jump\t// in\ntag_6:\n    /* \"Lock.sol\":1062:3227  contract LuckyBall {... */\n  jump(tag_7)\n    /* \"@openzeppelin/contracts/utils/Counters.sol\":945:1068  function increment(Counter storage counter) internal {... */\ntag_5:\n    /* \"@openzeppelin/contracts/utils/Counters.sol\":1050:1051  1 */\n  0x01\n    /* \"@openzeppelin/contracts/utils/Counters.sol\":1032:1039  counter */\n  dup2\n    /* \"@openzeppelin/contracts/utils/Counters.sol\":1032:1046  counter._value */\n  0x00\n  add\n  0x00\n    /* \"@openzeppelin/contracts/utils/Counters.sol\":1032:1051  counter._value += 1 */\n  dup3\n  dup3\n  sload\n  add\n  swap3\n  pop\n  pop\n  dup2\n  swap1\n  sstore\n  pop\n    /* \"@openzeppelin/contracts/utils/Counters.sol\":945:1068  function increment(Counter storage counter) internal {... */\n  pop\n  jump\t// out\n    /* \"Lock.sol\":1062:3227  contract LuckyBall {... */\ntag_7:\n  dataSize(sub_0)\n  dup1\n  dataOffset(sub_0)\n  0x00\n  codecopy\n  0x00\n  return\nstop\n\nsub_0: assembly {\n        /* \"Lock.sol\":1062:3227  contract LuckyBall {... */\n      mstore(0x40, 0x80)\n      callvalue\n      dup1\n      iszero\n      tag_1\n      jumpi\n      0x00\n      dup1\n      revert\n    tag_1:\n      pop\n      jumpi(tag_2, lt(calldatasize, 0x04))\n      shr(0xe0, calldataload(0x00))\n      dup1\n      0xad62b098\n      gt\n      tag_18\n      jumpi\n      dup1\n      0xd6c38c7f\n      gt\n      tag_19\n      jumpi\n      dup1\n      0xd6c38c7f\n      eq\n      tag_14\n      jumpi\n      dup1\n      0xf2bdbc62\n      eq\n      tag_15\n      jumpi\n      dup1\n      0xf4225ee1\n      eq\n      tag_16\n      jumpi\n      dup1\n      0xf5d709a1\n      eq\n      tag_17\n      jumpi\n      jump(tag_2)\n    tag_19:\n      dup1\n      0xad62b098\n      eq\n      tag_10\n      jumpi\n      dup1\n      0xb29e60ef\n      eq\n      tag_11\n      jumpi\n      dup1\n      0xc419857f\n      eq\n      tag_12\n      jumpi\n      dup1\n      0xd3b30b75\n      eq\n      tag_13\n      jumpi\n      jump(tag_2)\n    tag_18:\n      dup1\n      0x3dcdb672\n      gt\n      tag_20\n      jumpi\n      dup1\n      0x3dcdb672\n      eq\n      tag_6\n      jumpi\n      dup1\n      0x4cd7184a\n      eq\n      tag_7\n      jumpi\n      dup1\n      0x63b6f065\n      eq\n      tag_8\n      jumpi\n      dup1\n      0x952a9633\n      eq\n      tag_9\n      jumpi\n      jump(tag_2)\n    tag_20:\n      dup1\n      0x02fb0c5e\n      eq\n      tag_3\n      jumpi\n      dup1\n      0x0bd8a117\n      eq\n      tag_4\n      jumpi\n      dup1\n      0x1821d77d\n      eq\n      tag_5\n      jumpi\n    tag_2:\n      0x00\n      dup1\n      revert\n        /* \"Lock.sol\":1259:1285  bool public active = false */\n    tag_3:\n      tag_21\n      tag_22\n      jump\t// in\n    tag_21:\n      mload(0x40)\n      tag_23\n      swap2\n      swap1\n      tag_24\n      jump\t// in\n    tag_23:\n      mload(0x40)\n      dup1\n      swap2\n      sub\n      swap1\n      return\n        /* \"Lock.sol\":2028:2082  function issueBalls() external returns (bool) {... */\n    tag_4:\n      tag_25\n      tag_26\n      jump\t// in\n    tag_25:\n      mload(0x40)\n      tag_27\n      swap2\n      swap1\n      tag_24\n      jump\t// in\n    tag_27:\n      mload(0x40)\n      dup1\n      swap2\n      sub\n      swap1\n      return\n        /* \"Lock.sol\":2578:2684  function getCurrentSeansionId() public view returns (uint256) {... */\n    tag_5:\n      tag_28\n      tag_29\n      jump\t// in\n    tag_28:\n      mload(0x40)\n      tag_30\n      swap2\n      swap1\n      tag_31\n      jump\t// in\n    tag_30:\n      mload(0x40)\n      dup1\n      swap2\n      sub\n      swap1\n      return\n        /* \"Lock.sol\":2863:2919  function endSeason() external returns (uint256) {... */\n    tag_6:\n      tag_32\n      tag_33\n      jump\t// in\n    tag_32:\n      mload(0x40)\n      tag_34\n      swap2\n      swap1\n      tag_31\n      jump\t// in\n    tag_34:\n      mload(0x40)\n      dup1\n      swap2\n      sub\n      swap1\n      return\n        /* \"Lock.sol\":2925:2987  function requestWinningCode() external returns (bool) {... */\n    tag_7:\n      tag_35\n      tag_36\n      jump\t// in\n    tag_35:\n      mload(0x40)\n      tag_37\n      swap2\n      swap1\n      tag_24\n      jump\t// in\n    tag_37:\n      mload(0x40)\n      dup1\n      swap2\n      sub\n      swap1\n      return\n        /* \"Lock.sol\":1955:1991  mapping(uint64 => Ball) public balls */\n    tag_8:\n      tag_38\n      0x04\n      dup1\n      calldatasize\n      sub\n      dup2\n      add\n      swap1\n      tag_39\n      swap2\n      swap1\n      tag_40\n      jump\t// in\n    tag_39:\n      tag_41\n      jump\t// in\n    tag_38:\n      mload(0x40)\n      tag_42\n      swap5\n      swap4\n      swap3\n      swap2\n      swap1\n      tag_43\n      jump\t// in\n    tag_42:\n      mload(0x40)\n      dup1\n      swap2\n      sub\n      swap1\n      return\n        /* \"Lock.sol\":2088:2492  function startSeason() external returns (uint256) {... */\n    tag_9:\n      tag_44\n      tag_45\n      jump\t// in\n    tag_44:\n      mload(0x40)\n      tag_46\n      swap2\n      swap1\n      tag_31\n      jump\t// in\n    tag_46:\n      mload(0x40)\n      dup1\n      swap2\n      sub\n      swap1\n      return\n        /* \"Lock.sol\":2690:2857  function setSeasonWinningCode(uint256 seed) public returns (bool) {... */\n    tag_10:\n      tag_47\n      0x04\n      dup1\n      calldatasize\n      sub\n      dup2\n      add\n      swap1\n      tag_48\n      swap2\n      swap1\n      tag_49\n      jump\t// in\n    tag_48:\n      tag_50\n      jump\t// in\n    tag_47:\n      mload(0x40)\n      tag_51\n      swap2\n      swap1\n      tag_24\n      jump\t// in\n    tag_51:\n      mload(0x40)\n      dup1\n      swap2\n      sub\n      swap1\n      return\n        /* \"Lock.sol\":1869:1920  mapping(uint256 => uint256) public revealGroupSeeds */\n    tag_11:\n      tag_52\n      0x04\n      dup1\n      calldatasize\n      sub\n      dup2\n      add\n      swap1\n      tag_53\n      swap2\n      swap1\n      tag_49\n      jump\t// in\n    tag_53:\n      tag_54\n      jump\t// in\n    tag_52:\n      mload(0x40)\n      tag_55\n      swap2\n      swap1\n      tag_31\n      jump\t// in\n    tag_55:\n      mload(0x40)\n      dup1\n      swap2\n      sub\n      swap1\n      return\n        /* \"Lock.sol\":2993:3056  function requestWinningBallId() external returns (bool) {... */\n    tag_12:\n      tag_56\n      tag_57\n      jump\t// in\n    tag_56:\n      mload(0x40)\n      tag_58\n      swap2\n      swap1\n      tag_24\n      jump\t// in\n    tag_58:\n      mload(0x40)\n      dup1\n      swap2\n      sub\n      swap1\n      return\n        /* \"Lock.sol\":2498:2573  function getCurrentSeason() public returns (Season memory) {... */\n    tag_13:\n      tag_59\n      tag_60\n      jump\t// in\n    tag_59:\n      mload(0x40)\n      tag_61\n      swap2\n      swap1\n      tag_62\n      jump\t// in\n    tag_61:\n      mload(0x40)\n      dup1\n      swap2\n      sub\n      swap1\n      return\n        /* \"Lock.sol\":3062:3223  function extractCode(uint256 n) public pure returns (uint256) {... */\n    tag_14:\n      tag_63\n      0x04\n      dup1\n      calldatasize\n      sub\n      dup2\n      add\n      swap1\n      tag_64\n      swap2\n      swap1\n      tag_49\n      jump\t// in\n    tag_64:\n      tag_65\n      jump\t// in\n    tag_63:\n      mload(0x40)\n      tag_66\n      swap2\n      swap1\n      tag_31\n      jump\t// in\n    tag_66:\n      mload(0x40)\n      dup1\n      swap2\n      sub\n      swap1\n      return\n        /* \"Lock.sol\":1292:1321  uint64[] public revealPending */\n    tag_15:\n      tag_67\n      0x04\n      dup1\n      calldatasize\n      sub\n      dup2\n      add\n      swap1\n      tag_68\n      swap2\n      swap1\n      tag_49\n      jump\t// in\n    tag_68:\n      tag_69\n      jump\t// in\n    tag_67:\n      mload(0x40)\n      tag_70\n      swap2\n      swap1\n      tag_71\n      jump\t// in\n    tag_70:\n      mload(0x40)\n      dup1\n      swap2\n      sub\n      swap1\n      return\n        /* \"Lock.sol\":1765:1830  mapping(address => mapping(uint256 => uint64[])) public userBalls */\n    tag_16:\n      tag_72\n      0x04\n      dup1\n      calldatasize\n      sub\n      dup2\n      add\n      swap1\n      tag_73\n      swap2\n      swap1\n      tag_74\n      jump\t// in\n    tag_73:\n      tag_75\n      jump\t// in\n    tag_72:\n      mload(0x40)\n      tag_76\n      swap2\n      swap1\n      tag_71\n      jump\t// in\n    tag_76:\n      mload(0x40)\n      dup1\n      swap2\n      sub\n      swap1\n      return\n        /* \"Lock.sol\":1718:1759  mapping(uint256 => Season) public seasons */\n    tag_17:\n      tag_77\n      0x04\n      dup1\n      calldatasize\n      sub\n      dup2\n      add\n      swap1\n      tag_78\n      swap2\n      swap1\n      tag_49\n      jump\t// in\n    tag_78:\n      tag_79\n      jump\t// in\n    tag_77:\n      mload(0x40)\n      tag_80\n      swap6\n      swap5\n      swap4\n      swap3\n      swap2\n      swap1\n      tag_81\n      jump\t// in\n    tag_80:\n      mload(0x40)\n      dup1\n      swap2\n      sub\n      swap1\n      return\n        /* \"Lock.sol\":1259:1285  bool public active = false */\n    tag_22:\n      0x03\n      0x00\n      swap1\n      sload\n      swap1\n      0x0100\n      exp\n      swap1\n      div\n      0xff\n      and\n      dup2\n      jump\t// out\n        /* \"Lock.sol\":2028:2082  function issueBalls() external returns (bool) {... */\n    tag_26:\n        /* \"Lock.sol\":2068:2072  bool */\n      0x00\n        /* \"Lock.sol\":2028:2082  function issueBalls() external returns (bool) {... */\n      swap1\n      jump\t// out\n        /* \"Lock.sol\":2578:2684  function getCurrentSeansionId() public view returns (uint256) {... */\n    tag_29:\n        /* \"Lock.sol\":2631:2638  uint256 */\n      0x00\n        /* \"Lock.sol\":2657:2677  _seasonIds.current() */\n      tag_84\n        /* \"Lock.sol\":2657:2667  _seasonIds */\n      0x01\n        /* \"Lock.sol\":2657:2675  _seasonIds.current */\n      tag_85\n        /* \"Lock.sol\":2657:2677  _seasonIds.current() */\n      jump\t// in\n    tag_84:\n        /* \"Lock.sol\":2650:2677  return _seasonIds.current() */\n      swap1\n      pop\n        /* \"Lock.sol\":2578:2684  function getCurrentSeansionId() public view returns (uint256) {... */\n      swap1\n      jump\t// out\n        /* \"Lock.sol\":2863:2919  function endSeason() external returns (uint256) {... */\n    tag_33:\n        /* \"Lock.sol\":2902:2909  uint256 */\n      0x00\n        /* \"Lock.sol\":2863:2919  function endSeason() external returns (uint256) {... */\n      swap1\n      jump\t// out\n        /* \"Lock.sol\":2925:2987  function requestWinningCode() external returns (bool) {... */\n    tag_36:\n        /* \"Lock.sol\":2973:2977  bool */\n      0x00\n        /* \"Lock.sol\":2925:2987  function requestWinningCode() external returns (bool) {... */\n      swap1\n      jump\t// out\n        /* \"Lock.sol\":1955:1991  mapping(uint64 => Ball) public balls */\n    tag_41:\n      mstore(0x20, 0x08)\n      dup1\n      0x00\n      mstore\n      keccak256(0x00, 0x40)\n      0x00\n      swap2\n      pop\n      swap1\n      pop\n      dup1\n      0x00\n      add\n      0x00\n      swap1\n      sload\n      swap1\n      0x0100\n      exp\n      swap1\n      div\n      0xffffffffffffffff\n      and\n      swap1\n      dup1\n      0x00\n      add\n      0x08\n      swap1\n      sload\n      swap1\n      0x0100\n      exp\n      swap1\n      div\n      0xffffffffffffffffffffffffffffffffffffffff\n      and\n      swap1\n      dup1\n      0x01\n      add\n      sload\n      swap1\n      dup1\n      0x02\n      add\n      sload\n      swap1\n      pop\n      dup5\n      jump\t// out\n        /* \"Lock.sol\":2088:2492  function startSeason() external returns (uint256) {... */\n    tag_45:\n        /* \"Lock.sol\":2129:2136  uint256 */\n      0x00\n        /* \"Lock.sol\":2148:2170  _seasonIds.increment() */\n      tag_89\n        /* \"Lock.sol\":2148:2158  _seasonIds */\n      0x01\n        /* \"Lock.sol\":2148:2168  _seasonIds.increment */\n      tag_90\n        /* \"Lock.sol\":2148:2170  _seasonIds.increment() */\n      jump\t// in\n    tag_89:\n        /* \"Lock.sol\":2180:2197  uint256 _seasonId */\n      0x00\n        /* \"Lock.sol\":2200:2220  _seasonIds.current() */\n      tag_91\n        /* \"Lock.sol\":2200:2210  _seasonIds */\n      0x01\n        /* \"Lock.sol\":2200:2218  _seasonIds.current */\n      tag_85\n        /* \"Lock.sol\":2200:2220  _seasonIds.current() */\n      jump\t// in\n    tag_91:\n        /* \"Lock.sol\":2180:2220  uint256 _seasonId = _seasonIds.current() */\n      swap1\n      pop\n        /* \"Lock.sol\":2269:2447  Season(_seasonId, ... */\n      mload(0x40)\n      dup1\n      0xa0\n      add\n      0x40\n      mstore\n      dup1\n        /* \"Lock.sol\":2276:2285  _seasonId */\n      dup3\n        /* \"Lock.sol\":2269:2447  Season(_seasonId, ... */\n      dup2\n      mstore\n      0x20\n      add\n        /* \"Lock.sol\":2319:2337  _ballIds.current() */\n      tag_92\n        /* \"Lock.sol\":2319:2327  _ballIds */\n      0x00\n        /* \"Lock.sol\":2319:2335  _ballIds.current */\n      tag_85\n        /* \"Lock.sol\":2319:2337  _ballIds.current() */\n      jump\t// in\n    tag_92:\n        /* \"Lock.sol\":2269:2447  Season(_seasonId, ... */\n      0xffffffffffffffff\n      and\n      dup2\n      mstore\n      0x20\n      add\n        /* \"Lock.sol\":2372:2373  0 */\n      0x00\n        /* \"Lock.sol\":2269:2447  Season(_seasonId, ... */\n      0xffffffffffffffff\n      and\n      dup2\n      mstore\n      0x20\n      add\n        /* \"Lock.sol\":2408:2409  0 */\n      0x00\n        /* \"Lock.sol\":2269:2447  Season(_seasonId, ... */\n      0xffffffffffffffff\n      and\n      dup2\n      mstore\n      0x20\n      add\n        /* \"Lock.sol\":2444:2445  0 */\n      0x00\n        /* \"Lock.sol\":2269:2447  Season(_seasonId, ... */\n      dup2\n      mstore\n      pop\n        /* \"Lock.sol\":2231:2238  seasons */\n      0x05\n        /* \"Lock.sol\":2231:2249  seasons[_seasonId] */\n      0x00\n        /* \"Lock.sol\":2239:2248  _seasonId */\n      dup4\n        /* \"Lock.sol\":2231:2249  seasons[_seasonId] */\n      dup2\n      mstore\n      0x20\n      add\n      swap1\n      dup2\n      mstore\n      0x20\n      add\n      0x00\n      keccak256\n        /* \"Lock.sol\":2231:2447  seasons[_seasonId] = ... */\n      0x00\n      dup3\n      add\n      mload\n      dup2\n      0x00\n      add\n      sstore\n      0x20\n      dup3\n      add\n      mload\n      dup2\n      0x01\n      add\n      exp(0x0100, 0x00)\n      dup2\n      sload\n      dup2\n      0xffffffffffffffff\n      mul\n      not\n      and\n      swap1\n      dup4\n      0xffffffffffffffff\n      and\n      mul\n      or\n      swap1\n      sstore\n      pop\n      0x40\n      dup3\n      add\n      mload\n      dup2\n      0x01\n      add\n      exp(0x0100, 0x08)\n      dup2\n      sload\n      dup2\n      0xffffffffffffffff\n      mul\n      not\n      and\n      swap1\n      dup4\n      0xffffffffffffffff\n      and\n      mul\n      or\n      swap1\n      sstore\n      pop\n      0x60\n      dup3\n      add\n      mload\n      dup2\n      0x01\n      add\n      exp(0x0100, 0x10)\n      dup2\n      sload\n      dup2\n      0xffffffffffffffff\n      mul\n      not\n      and\n      swap1\n      dup4\n      0xffffffffffffffff\n      and\n      mul\n      or\n      swap1\n      sstore\n      pop\n      0x80\n      dup3\n      add\n      mload\n      dup2\n      0x02\n      add\n      sstore\n      swap1\n      pop\n      pop\n        /* \"Lock.sol\":2465:2485  _seasonIds.current() */\n      tag_93\n        /* \"Lock.sol\":2465:2475  _seasonIds */\n      0x01\n        /* \"Lock.sol\":2465:2483  _seasonIds.current */\n      tag_85\n        /* \"Lock.sol\":2465:2485  _seasonIds.current() */\n      jump\t// in\n    tag_93:\n        /* \"Lock.sol\":2458:2485  return _seasonIds.current() */\n      swap2\n      pop\n      pop\n        /* \"Lock.sol\":2088:2492  function startSeason() external returns (uint256) {... */\n      swap1\n      jump\t// out\n        /* \"Lock.sol\":2690:2857  function setSeasonWinningCode(uint256 seed) public returns (bool) {... */\n    tag_50:\n        /* \"Lock.sol\":2750:2754  bool */\n      0x00\n        /* \"Lock.sol\":2812:2829  extractCode(seed) */\n      tag_95\n        /* \"Lock.sol\":2824:2828  seed */\n      dup3\n        /* \"Lock.sol\":2812:2823  extractCode */\n      tag_65\n        /* \"Lock.sol\":2812:2829  extractCode(seed) */\n      jump\t// in\n    tag_95:\n        /* \"Lock.sol\":2766:2773  seasons */\n      0x05\n        /* \"Lock.sol\":2766:2797  seasons[getCurrentSeansionId()] */\n      0x00\n        /* \"Lock.sol\":2774:2796  getCurrentSeansionId() */\n      tag_96\n        /* \"Lock.sol\":2774:2794  getCurrentSeansionId */\n      tag_29\n        /* \"Lock.sol\":2774:2796  getCurrentSeansionId() */\n      jump\t// in\n    tag_96:\n        /* \"Lock.sol\":2766:2797  seasons[getCurrentSeansionId()] */\n      dup2\n      mstore\n      0x20\n      add\n      swap1\n      dup2\n      mstore\n      0x20\n      add\n      0x00\n      keccak256\n        /* \"Lock.sol\":2766:2809  seasons[getCurrentSeansionId()].winningCode */\n      0x02\n      add\n        /* \"Lock.sol\":2766:2829  seasons[getCurrentSeansionId()].winningCode = extractCode(seed) */\n      dup2\n      swap1\n      sstore\n      pop\n        /* \"Lock.sol\":2846:2850  true */\n      0x01\n        /* \"Lock.sol\":2839:2850  return true */\n      swap1\n      pop\n        /* \"Lock.sol\":2690:2857  function setSeasonWinningCode(uint256 seed) public returns (bool) {... */\n      swap2\n      swap1\n      pop\n      jump\t// out\n        /* \"Lock.sol\":1869:1920  mapping(uint256 => uint256) public revealGroupSeeds */\n    tag_54:\n      mstore(0x20, 0x07)\n      dup1\n      0x00\n      mstore\n      keccak256(0x00, 0x40)\n      0x00\n      swap2\n      pop\n      swap1\n      pop\n      sload\n      dup2\n      jump\t// out\n        /* \"Lock.sol\":2993:3056  function requestWinningBallId() external returns (bool) {... */\n    tag_57:\n        /* \"Lock.sol\":3043:3047  bool */\n      0x00\n        /* \"Lock.sol\":2993:3056  function requestWinningBallId() external returns (bool) {... */\n      swap1\n      jump\t// out\n        /* \"Lock.sol\":2498:2573  function getCurrentSeason() public returns (Season memory) {... */\n    tag_60:\n        /* \"Lock.sol\":2542:2555  Season memory */\n      tag_98\n      tag_99\n      jump\t// in\n    tag_98:\n        /* \"Lock.sol\":2498:2573  function getCurrentSeason() public returns (Season memory) {... */\n      swap1\n      jump\t// out\n        /* \"Lock.sol\":3062:3223  function extractCode(uint256 n) public pure returns (uint256) {... */\n    tag_65:\n        /* \"Lock.sol\":3115:3122  uint256 */\n      0x00\n        /* \"Lock.sol\":3134:3143  uint256 r */\n      dup1\n        /* \"Lock.sol\":3150:3157  1000000 */\n      0x0f4240\n        /* \"Lock.sol\":3146:3147  n */\n      dup4\n        /* \"Lock.sol\":3146:3157  n % 1000000 */\n      tag_102\n      swap2\n      swap1\n      tag_103\n      jump\t// in\n    tag_102:\n        /* \"Lock.sol\":3134:3157  uint256 r = n % 1000000 */\n      swap1\n      pop\n        /* \"Lock.sol\":3175:3181  100000 */\n      0x0186a0\n        /* \"Lock.sol\":3171:3172  r */\n      dup2\n        /* \"Lock.sol\":3171:3181  r < 100000 */\n      lt\n        /* \"Lock.sol\":3167:3199  if (r < 100000) { r += 100000; } */\n      iszero\n      tag_104\n      jumpi\n        /* \"Lock.sol\":3190:3196  100000 */\n      0x0186a0\n        /* \"Lock.sol\":3185:3196  r += 100000 */\n      dup2\n      tag_105\n      swap2\n      swap1\n      tag_106\n      jump\t// in\n    tag_105:\n      swap1\n      pop\n        /* \"Lock.sol\":3167:3199  if (r < 100000) { r += 100000; } */\n    tag_104:\n        /* \"Lock.sol\":3215:3216  r */\n      dup1\n        /* \"Lock.sol\":3208:3216  return r */\n      swap2\n      pop\n      pop\n        /* \"Lock.sol\":3062:3223  function extractCode(uint256 n) public pure returns (uint256) {... */\n      swap2\n      swap1\n      pop\n      jump\t// out\n        /* \"Lock.sol\":1292:1321  uint64[] public revealPending */\n    tag_69:\n      0x04\n      dup2\n      dup2\n      sload\n      dup2\n      lt\n      tag_107\n      jumpi\n      0x00\n      dup1\n      revert\n    tag_107:\n      swap1\n      0x00\n      mstore\n      keccak256(0x00, 0x20)\n      swap1\n      0x04\n      swap2\n      dup3\n      dup3\n      div\n      add\n      swap2\n      swap1\n      mod\n      0x08\n      mul\n      swap2\n      pop\n      sload\n      swap1\n      0x0100\n      exp\n      swap1\n      div\n      0xffffffffffffffff\n      and\n      dup2\n      jump\t// out\n        /* \"Lock.sol\":1765:1830  mapping(address => mapping(uint256 => uint64[])) public userBalls */\n    tag_75:\n      mstore(0x20, 0x06)\n      dup3\n      0x00\n      mstore\n      mstore(0x20, keccak256(0x00, 0x40))\n      dup2\n      0x00\n      mstore\n      keccak256(0x00, 0x40)\n      dup2\n      dup2\n      sload\n      dup2\n      lt\n      tag_109\n      jumpi\n      0x00\n      dup1\n      revert\n    tag_109:\n      swap1\n      0x00\n      mstore\n      keccak256(0x00, 0x20)\n      swap1\n      0x04\n      swap2\n      dup3\n      dup3\n      div\n      add\n      swap2\n      swap1\n      mod\n      0x08\n      mul\n      swap3\n      pop\n      swap3\n      pop\n      pop\n      swap1\n      sload\n      swap1\n      0x0100\n      exp\n      swap1\n      div\n      0xffffffffffffffff\n      and\n      dup2\n      jump\t// out\n        /* \"Lock.sol\":1718:1759  mapping(uint256 => Season) public seasons */\n    tag_79:\n      mstore(0x20, 0x05)\n      dup1\n      0x00\n      mstore\n      keccak256(0x00, 0x40)\n      0x00\n      swap2\n      pop\n      swap1\n      pop\n      dup1\n      0x00\n      add\n      sload\n      swap1\n      dup1\n      0x01\n      add\n      0x00\n      swap1\n      sload\n      swap1\n      0x0100\n      exp\n      swap1\n      div\n      0xffffffffffffffff\n      and\n      swap1\n      dup1\n      0x01\n      add\n      0x08\n      swap1\n      sload\n      swap1\n      0x0100\n      exp\n      swap1\n      div\n      0xffffffffffffffff\n      and\n      swap1\n      dup1\n      0x01\n      add\n      0x10\n      swap1\n      sload\n      swap1\n      0x0100\n      exp\n      swap1\n      div\n      0xffffffffffffffff\n      and\n      swap1\n      dup1\n      0x02\n      add\n      sload\n      swap1\n      pop\n      dup6\n      jump\t// out\n        /* \"@openzeppelin/contracts/utils/Counters.sol\":827:939  function current(Counter storage counter) internal view returns (uint256) {... */\n    tag_85:\n        /* \"@openzeppelin/contracts/utils/Counters.sol\":892:899  uint256 */\n      0x00\n        /* \"@openzeppelin/contracts/utils/Counters.sol\":918:925  counter */\n      dup2\n        /* \"@openzeppelin/contracts/utils/Counters.sol\":918:932  counter._value */\n      0x00\n      add\n      sload\n        /* \"@openzeppelin/contracts/utils/Counters.sol\":911:932  return counter._value */\n      swap1\n      pop\n        /* \"@openzeppelin/contracts/utils/Counters.sol\":827:939  function current(Counter storage counter) internal view returns (uint256) {... */\n      swap2\n      swap1\n      pop\n      jump\t// out\n        /* \"@openzeppelin/contracts/utils/Counters.sol\":945:1068  function increment(Counter storage counter) internal {... */\n    tag_90:\n        /* \"@openzeppelin/contracts/utils/Counters.sol\":1050:1051  1 */\n      0x01\n        /* \"@openzeppelin/contracts/utils/Counters.sol\":1032:1039  counter */\n      dup2\n        /* \"@openzeppelin/contracts/utils/Counters.sol\":1032:1046  counter._value */\n      0x00\n      add\n      0x00\n        /* \"@openzeppelin/contracts/utils/Counters.sol\":1032:1051  counter._value += 1 */\n      dup3\n      dup3\n      sload\n      add\n      swap3\n      pop\n      pop\n      dup2\n      swap1\n      sstore\n      pop\n        /* \"@openzeppelin/contracts/utils/Counters.sol\":945:1068  function increment(Counter storage counter) internal {... */\n      pop\n      jump\t// out\n    tag_99:\n      mload(0x40)\n      dup1\n      0xa0\n      add\n      0x40\n      mstore\n      dup1\n      0x00\n      dup2\n      mstore\n      0x20\n      add\n      and(0xffffffffffffffff, 0x00)\n      dup2\n      mstore\n      0x20\n      add\n      and(0xffffffffffffffff, 0x00)\n      dup2\n      mstore\n      0x20\n      add\n      and(0xffffffffffffffff, 0x00)\n      dup2\n      mstore\n      0x20\n      add\n      0x00\n      dup2\n      mstore\n      pop\n      swap1\n      jump\t// out\n        /* \"#utility.yul\":7:97   */\n    tag_113:\n        /* \"#utility.yul\":41:48   */\n      0x00\n        /* \"#utility.yul\":84:89   */\n      dup2\n        /* \"#utility.yul\":77:90   */\n      iszero\n        /* \"#utility.yul\":70:91   */\n      iszero\n        /* \"#utility.yul\":59:91   */\n      swap1\n      pop\n        /* \"#utility.yul\":7:97   */\n      swap2\n      swap1\n      pop\n      jump\t// out\n        /* \"#utility.yul\":103:212   */\n    tag_114:\n        /* \"#utility.yul\":184:205   */\n      tag_139\n        /* \"#utility.yul\":199:204   */\n      dup2\n        /* \"#utility.yul\":184:205   */\n      tag_113\n      jump\t// in\n    tag_139:\n        /* \"#utility.yul\":179:182   */\n      dup3\n        /* \"#utility.yul\":172:206   */\n      mstore\n        /* \"#utility.yul\":103:212   */\n      pop\n      pop\n      jump\t// out\n        /* \"#utility.yul\":218:428   */\n    tag_24:\n        /* \"#utility.yul\":305:309   */\n      0x00\n        /* \"#utility.yul\":343:345   */\n      0x20\n        /* \"#utility.yul\":332:341   */\n      dup3\n        /* \"#utility.yul\":328:346   */\n      add\n        /* \"#utility.yul\":320:346   */\n      swap1\n      pop\n        /* \"#utility.yul\":356:421   */\n      tag_141\n        /* \"#utility.yul\":418:419   */\n      0x00\n        /* \"#utility.yul\":407:416   */\n      dup4\n        /* \"#utility.yul\":403:420   */\n      add\n        /* \"#utility.yul\":394:400   */\n      dup5\n        /* \"#utility.yul\":356:421   */\n      tag_114\n      jump\t// in\n    tag_141:\n        /* \"#utility.yul\":218:428   */\n      swap3\n      swap2\n      pop\n      pop\n      jump\t// out\n        /* \"#utility.yul\":434:511   */\n    tag_115:\n        /* \"#utility.yul\":471:478   */\n      0x00\n        /* \"#utility.yul\":500:505   */\n      dup2\n        /* \"#utility.yul\":489:505   */\n      swap1\n      pop\n        /* \"#utility.yul\":434:511   */\n      swap2\n      swap1\n      pop\n      jump\t// out\n        /* \"#utility.yul\":517:635   */\n    tag_116:\n        /* \"#utility.yul\":604:628   */\n      tag_144\n        /* \"#utility.yul\":622:627   */\n      dup2\n        /* \"#utility.yul\":604:628   */\n      tag_115\n      jump\t// in\n    tag_144:\n        /* \"#utility.yul\":599:602   */\n      dup3\n        /* \"#utility.yul\":592:629   */\n      mstore\n        /* \"#utility.yul\":517:635   */\n      pop\n      pop\n      jump\t// out\n        /* \"#utility.yul\":641:863   */\n    tag_31:\n        /* \"#utility.yul\":734:738   */\n      0x00\n        /* \"#utility.yul\":772:774   */\n      0x20\n        /* \"#utility.yul\":761:770   */\n      dup3\n        /* \"#utility.yul\":757:775   */\n      add\n        /* \"#utility.yul\":749:775   */\n      swap1\n      pop\n        /* \"#utility.yul\":785:856   */\n      tag_146\n        /* \"#utility.yul\":853:854   */\n      0x00\n        /* \"#utility.yul\":842:851   */\n      dup4\n        /* \"#utility.yul\":838:855   */\n      add\n        /* \"#utility.yul\":829:835   */\n      dup5\n        /* \"#utility.yul\":785:856   */\n      tag_116\n      jump\t// in\n    tag_146:\n        /* \"#utility.yul\":641:863   */\n      swap3\n      swap2\n      pop\n      pop\n      jump\t// out\n        /* \"#utility.yul\":950:1067   */\n    tag_118:\n        /* \"#utility.yul\":1059:1060   */\n      0x00\n        /* \"#utility.yul\":1056:1057   */\n      dup1\n        /* \"#utility.yul\":1049:1061   */\n      revert\n        /* \"#utility.yul\":1196:1297   */\n    tag_120:\n        /* \"#utility.yul\":1232:1239   */\n      0x00\n        /* \"#utility.yul\":1272:1290   */\n      0xffffffffffffffff\n        /* \"#utility.yul\":1265:1270   */\n      dup3\n        /* \"#utility.yul\":1261:1291   */\n      and\n        /* \"#utility.yul\":1250:1291   */\n      swap1\n      pop\n        /* \"#utility.yul\":1196:1297   */\n      swap2\n      swap1\n      pop\n      jump\t// out\n        /* \"#utility.yul\":1303:1423   */\n    tag_121:\n        /* \"#utility.yul\":1375:1398   */\n      tag_152\n        /* \"#utility.yul\":1392:1397   */\n      dup2\n        /* \"#utility.yul\":1375:1398   */\n      tag_120\n      jump\t// in\n    tag_152:\n        /* \"#utility.yul\":1368:1373   */\n      dup2\n        /* \"#utility.yul\":1365:1399   */\n      eq\n        /* \"#utility.yul\":1355:1417   */\n      tag_153\n      jumpi\n        /* \"#utility.yul\":1413:1414   */\n      0x00\n        /* \"#utility.yul\":1410:1411   */\n      dup1\n        /* \"#utility.yul\":1403:1415   */\n      revert\n        /* \"#utility.yul\":1355:1417   */\n    tag_153:\n        /* \"#utility.yul\":1303:1423   */\n      pop\n      jump\t// out\n        /* \"#utility.yul\":1429:1566   */\n    tag_122:\n        /* \"#utility.yul\":1474:1479   */\n      0x00\n        /* \"#utility.yul\":1512:1518   */\n      dup2\n        /* \"#utility.yul\":1499:1519   */\n      calldataload\n        /* \"#utility.yul\":1490:1519   */\n      swap1\n      pop\n        /* \"#utility.yul\":1528:1560   */\n      tag_155\n        /* \"#utility.yul\":1554:1559   */\n      dup2\n        /* \"#utility.yul\":1528:1560   */\n      tag_121\n      jump\t// in\n    tag_155:\n        /* \"#utility.yul\":1429:1566   */\n      swap3\n      swap2\n      pop\n      pop\n      jump\t// out\n        /* \"#utility.yul\":1572:1899   */\n    tag_40:\n        /* \"#utility.yul\":1630:1636   */\n      0x00\n        /* \"#utility.yul\":1679:1681   */\n      0x20\n        /* \"#utility.yul\":1667:1676   */\n      dup3\n        /* \"#utility.yul\":1658:1665   */\n      dup5\n        /* \"#utility.yul\":1654:1677   */\n      sub\n        /* \"#utility.yul\":1650:1682   */\n      slt\n        /* \"#utility.yul\":1647:1766   */\n      iszero\n      tag_157\n      jumpi\n        /* \"#utility.yul\":1685:1764   */\n      tag_158\n      tag_118\n      jump\t// in\n    tag_158:\n        /* \"#utility.yul\":1647:1766   */\n    tag_157:\n        /* \"#utility.yul\":1805:1806   */\n      0x00\n        /* \"#utility.yul\":1830:1882   */\n      tag_159\n        /* \"#utility.yul\":1874:1881   */\n      dup5\n        /* \"#utility.yul\":1865:1871   */\n      dup3\n        /* \"#utility.yul\":1854:1863   */\n      dup6\n        /* \"#utility.yul\":1850:1872   */\n      add\n        /* \"#utility.yul\":1830:1882   */\n      tag_122\n      jump\t// in\n    tag_159:\n        /* \"#utility.yul\":1820:1882   */\n      swap2\n      pop\n        /* \"#utility.yul\":1776:1892   */\n      pop\n        /* \"#utility.yul\":1572:1899   */\n      swap3\n      swap2\n      pop\n      pop\n      jump\t// out\n        /* \"#utility.yul\":1905:2020   */\n    tag_123:\n        /* \"#utility.yul\":1990:2013   */\n      tag_161\n        /* \"#utility.yul\":2007:2012   */\n      dup2\n        /* \"#utility.yul\":1990:2013   */\n      tag_120\n      jump\t// in\n    tag_161:\n        /* \"#utility.yul\":1985:1988   */\n      dup3\n        /* \"#utility.yul\":1978:2014   */\n      mstore\n        /* \"#utility.yul\":1905:2020   */\n      pop\n      pop\n      jump\t// out\n        /* \"#utility.yul\":2026:2152   */\n    tag_124:\n        /* \"#utility.yul\":2063:2070   */\n      0x00\n        /* \"#utility.yul\":2103:2145   */\n      0xffffffffffffffffffffffffffffffffffffffff\n        /* \"#utility.yul\":2096:2101   */\n      dup3\n        /* \"#utility.yul\":2092:2146   */\n      and\n        /* \"#utility.yul\":2081:2146   */\n      swap1\n      pop\n        /* \"#utility.yul\":2026:2152   */\n      swap2\n      swap1\n      pop\n      jump\t// out\n        /* \"#utility.yul\":2158:2254   */\n    tag_125:\n        /* \"#utility.yul\":2195:2202   */\n      0x00\n        /* \"#utility.yul\":2224:2248   */\n      tag_164\n        /* \"#utility.yul\":2242:2247   */\n      dup3\n        /* \"#utility.yul\":2224:2248   */\n      tag_124\n      jump\t// in\n    tag_164:\n        /* \"#utility.yul\":2213:2248   */\n      swap1\n      pop\n        /* \"#utility.yul\":2158:2254   */\n      swap2\n      swap1\n      pop\n      jump\t// out\n        /* \"#utility.yul\":2260:2378   */\n    tag_126:\n        /* \"#utility.yul\":2347:2371   */\n      tag_166\n        /* \"#utility.yul\":2365:2370   */\n      dup2\n        /* \"#utility.yul\":2347:2371   */\n      tag_125\n      jump\t// in\n    tag_166:\n        /* \"#utility.yul\":2342:2345   */\n      dup3\n        /* \"#utility.yul\":2335:2372   */\n      mstore\n        /* \"#utility.yul\":2260:2378   */\n      pop\n      pop\n      jump\t// out\n        /* \"#utility.yul\":2384:2933   */\n    tag_43:\n        /* \"#utility.yul\":2559:2563   */\n      0x00\n        /* \"#utility.yul\":2597:2600   */\n      0x80\n        /* \"#utility.yul\":2586:2595   */\n      dup3\n        /* \"#utility.yul\":2582:2601   */\n      add\n        /* \"#utility.yul\":2574:2601   */\n      swap1\n      pop\n        /* \"#utility.yul\":2611:2680   */\n      tag_168\n        /* \"#utility.yul\":2677:2678   */\n      0x00\n        /* \"#utility.yul\":2666:2675   */\n      dup4\n        /* \"#utility.yul\":2662:2679   */\n      add\n        /* \"#utility.yul\":2653:2659   */\n      dup8\n        /* \"#utility.yul\":2611:2680   */\n      tag_123\n      jump\t// in\n    tag_168:\n        /* \"#utility.yul\":2690:2762   */\n      tag_169\n        /* \"#utility.yul\":2758:2760   */\n      0x20\n        /* \"#utility.yul\":2747:2756   */\n      dup4\n        /* \"#utility.yul\":2743:2761   */\n      add\n        /* \"#utility.yul\":2734:2740   */\n      dup7\n        /* \"#utility.yul\":2690:2762   */\n      tag_126\n      jump\t// in\n    tag_169:\n        /* \"#utility.yul\":2772:2844   */\n      tag_170\n        /* \"#utility.yul\":2840:2842   */\n      0x40\n        /* \"#utility.yul\":2829:2838   */\n      dup4\n        /* \"#utility.yul\":2825:2843   */\n      add\n        /* \"#utility.yul\":2816:2822   */\n      dup6\n        /* \"#utility.yul\":2772:2844   */\n      tag_116\n      jump\t// in\n    tag_170:\n        /* \"#utility.yul\":2854:2926   */\n      tag_171\n        /* \"#utility.yul\":2922:2924   */\n      0x60\n        /* \"#utility.yul\":2911:2920   */\n      dup4\n        /* \"#utility.yul\":2907:2925   */\n      add\n        /* \"#utility.yul\":2898:2904   */\n      dup5\n        /* \"#utility.yul\":2854:2926   */\n      tag_116\n      jump\t// in\n    tag_171:\n        /* \"#utility.yul\":2384:2933   */\n      swap6\n      swap5\n      pop\n      pop\n      pop\n      pop\n      pop\n      jump\t// out\n        /* \"#utility.yul\":2939:3061   */\n    tag_127:\n        /* \"#utility.yul\":3012:3036   */\n      tag_173\n        /* \"#utility.yul\":3030:3035   */\n      dup2\n        /* \"#utility.yul\":3012:3036   */\n      tag_115\n      jump\t// in\n    tag_173:\n        /* \"#utility.yul\":3005:3010   */\n      dup2\n        /* \"#utility.yul\":3002:3037   */\n      eq\n        /* \"#utility.yul\":2992:3055   */\n      tag_174\n      jumpi\n        /* \"#utility.yul\":3051:3052   */\n      0x00\n        /* \"#utility.yul\":3048:3049   */\n      dup1\n        /* \"#utility.yul\":3041:3053   */\n      revert\n        /* \"#utility.yul\":2992:3055   */\n    tag_174:\n        /* \"#utility.yul\":2939:3061   */\n      pop\n      jump\t// out\n        /* \"#utility.yul\":3067:3206   */\n    tag_128:\n        /* \"#utility.yul\":3113:3118   */\n      0x00\n        /* \"#utility.yul\":3151:3157   */\n      dup2\n        /* \"#utility.yul\":3138:3158   */\n      calldataload\n        /* \"#utility.yul\":3129:3158   */\n      swap1\n      pop\n        /* \"#utility.yul\":3167:3200   */\n      tag_176\n        /* \"#utility.yul\":3194:3199   */\n      dup2\n        /* \"#utility.yul\":3167:3200   */\n      tag_127\n      jump\t// in\n    tag_176:\n        /* \"#utility.yul\":3067:3206   */\n      swap3\n      swap2\n      pop\n      pop\n      jump\t// out\n        /* \"#utility.yul\":3212:3541   */\n    tag_49:\n        /* \"#utility.yul\":3271:3277   */\n      0x00\n        /* \"#utility.yul\":3320:3322   */\n      0x20\n        /* \"#utility.yul\":3308:3317   */\n      dup3\n        /* \"#utility.yul\":3299:3306   */\n      dup5\n        /* \"#utility.yul\":3295:3318   */\n      sub\n        /* \"#utility.yul\":3291:3323   */\n      slt\n        /* \"#utility.yul\":3288:3407   */\n      iszero\n      tag_178\n      jumpi\n        /* \"#utility.yul\":3326:3405   */\n      tag_179\n      tag_118\n      jump\t// in\n    tag_179:\n        /* \"#utility.yul\":3288:3407   */\n    tag_178:\n        /* \"#utility.yul\":3446:3447   */\n      0x00\n        /* \"#utility.yul\":3471:3524   */\n      tag_180\n        /* \"#utility.yul\":3516:3523   */\n      dup5\n        /* \"#utility.yul\":3507:3513   */\n      dup3\n        /* \"#utility.yul\":3496:3505   */\n      dup6\n        /* \"#utility.yul\":3492:3514   */\n      add\n        /* \"#utility.yul\":3471:3524   */\n      tag_128\n      jump\t// in\n    tag_180:\n        /* \"#utility.yul\":3461:3524   */\n      swap2\n      pop\n        /* \"#utility.yul\":3417:3534   */\n      pop\n        /* \"#utility.yul\":3212:3541   */\n      swap3\n      swap2\n      pop\n      pop\n      jump\t// out\n        /* \"#utility.yul\":3547:3655   */\n    tag_129:\n        /* \"#utility.yul\":3624:3648   */\n      tag_182\n        /* \"#utility.yul\":3642:3647   */\n      dup2\n        /* \"#utility.yul\":3624:3648   */\n      tag_115\n      jump\t// in\n    tag_182:\n        /* \"#utility.yul\":3619:3622   */\n      dup3\n        /* \"#utility.yul\":3612:3649   */\n      mstore\n        /* \"#utility.yul\":3547:3655   */\n      pop\n      pop\n      jump\t// out\n        /* \"#utility.yul\":3661:3766   */\n    tag_130:\n        /* \"#utility.yul\":3736:3759   */\n      tag_184\n        /* \"#utility.yul\":3753:3758   */\n      dup2\n        /* \"#utility.yul\":3736:3759   */\n      tag_120\n      jump\t// in\n    tag_184:\n        /* \"#utility.yul\":3731:3734   */\n      dup3\n        /* \"#utility.yul\":3724:3760   */\n      mstore\n        /* \"#utility.yul\":3661:3766   */\n      pop\n      pop\n      jump\t// out\n        /* \"#utility.yul\":3830:4881   */\n    tag_131:\n        /* \"#utility.yul\":3973:3977   */\n      0xa0\n        /* \"#utility.yul\":3968:3971   */\n      dup3\n        /* \"#utility.yul\":3964:3978   */\n      add\n        /* \"#utility.yul\":4064:4068   */\n      0x00\n        /* \"#utility.yul\":4057:4062   */\n      dup3\n        /* \"#utility.yul\":4053:4069   */\n      add\n        /* \"#utility.yul\":4047:4070   */\n      mload\n        /* \"#utility.yul\":4083:4146   */\n      tag_186\n        /* \"#utility.yul\":4140:4144   */\n      0x00\n        /* \"#utility.yul\":4135:4138   */\n      dup6\n        /* \"#utility.yul\":4131:4145   */\n      add\n        /* \"#utility.yul\":4117:4129   */\n      dup3\n        /* \"#utility.yul\":4083:4146   */\n      tag_129\n      jump\t// in\n    tag_186:\n        /* \"#utility.yul\":3988:4156   */\n      pop\n        /* \"#utility.yul\":4245:4249   */\n      0x20\n        /* \"#utility.yul\":4238:4243   */\n      dup3\n        /* \"#utility.yul\":4234:4250   */\n      add\n        /* \"#utility.yul\":4228:4251   */\n      mload\n        /* \"#utility.yul\":4264:4325   */\n      tag_187\n        /* \"#utility.yul\":4319:4323   */\n      0x20\n        /* \"#utility.yul\":4314:4317   */\n      dup6\n        /* \"#utility.yul\":4310:4324   */\n      add\n        /* \"#utility.yul\":4296:4308   */\n      dup3\n        /* \"#utility.yul\":4264:4325   */\n      tag_130\n      jump\t// in\n    tag_187:\n        /* \"#utility.yul\":4166:4335   */\n      pop\n        /* \"#utility.yul\":4422:4426   */\n      0x40\n        /* \"#utility.yul\":4415:4420   */\n      dup3\n        /* \"#utility.yul\":4411:4427   */\n      add\n        /* \"#utility.yul\":4405:4428   */\n      mload\n        /* \"#utility.yul\":4441:4502   */\n      tag_188\n        /* \"#utility.yul\":4496:4500   */\n      0x40\n        /* \"#utility.yul\":4491:4494   */\n      dup6\n        /* \"#utility.yul\":4487:4501   */\n      add\n        /* \"#utility.yul\":4473:4485   */\n      dup3\n        /* \"#utility.yul\":4441:4502   */\n      tag_130\n      jump\t// in\n    tag_188:\n        /* \"#utility.yul\":4345:4512   */\n      pop\n        /* \"#utility.yul\":4603:4607   */\n      0x60\n        /* \"#utility.yul\":4596:4601   */\n      dup3\n        /* \"#utility.yul\":4592:4608   */\n      add\n        /* \"#utility.yul\":4586:4609   */\n      mload\n        /* \"#utility.yul\":4622:4683   */\n      tag_189\n        /* \"#utility.yul\":4677:4681   */\n      0x60\n        /* \"#utility.yul\":4672:4675   */\n      dup6\n        /* \"#utility.yul\":4668:4682   */\n      add\n        /* \"#utility.yul\":4654:4666   */\n      dup3\n        /* \"#utility.yul\":4622:4683   */\n      tag_130\n      jump\t// in\n    tag_189:\n        /* \"#utility.yul\":4522:4693   */\n      pop\n        /* \"#utility.yul\":4782:4786   */\n      0x80\n        /* \"#utility.yul\":4775:4780   */\n      dup3\n        /* \"#utility.yul\":4771:4787   */\n      add\n        /* \"#utility.yul\":4765:4788   */\n      mload\n        /* \"#utility.yul\":4801:4864   */\n      tag_190\n        /* \"#utility.yul\":4858:4862   */\n      0x80\n        /* \"#utility.yul\":4853:4856   */\n      dup6\n        /* \"#utility.yul\":4849:4863   */\n      add\n        /* \"#utility.yul\":4835:4847   */\n      dup3\n        /* \"#utility.yul\":4801:4864   */\n      tag_129\n      jump\t// in\n    tag_190:\n        /* \"#utility.yul\":4703:4874   */\n      pop\n        /* \"#utility.yul\":3942:4881   */\n      pop\n        /* \"#utility.yul\":3830:4881   */\n      pop\n      pop\n      jump\t// out\n        /* \"#utility.yul\":4887:5202   */\n    tag_62:\n        /* \"#utility.yul\":5026:5030   */\n      0x00\n        /* \"#utility.yul\":5064:5067   */\n      0xa0\n        /* \"#utility.yul\":5053:5062   */\n      dup3\n        /* \"#utility.yul\":5049:5068   */\n      add\n        /* \"#utility.yul\":5041:5068   */\n      swap1\n      pop\n        /* \"#utility.yul\":5078:5195   */\n      tag_192\n        /* \"#utility.yul\":5192:5193   */\n      0x00\n        /* \"#utility.yul\":5181:5190   */\n      dup4\n        /* \"#utility.yul\":5177:5194   */\n      add\n        /* \"#utility.yul\":5168:5174   */\n      dup5\n        /* \"#utility.yul\":5078:5195   */\n      tag_131\n      jump\t// in\n    tag_192:\n        /* \"#utility.yul\":4887:5202   */\n      swap3\n      swap2\n      pop\n      pop\n      jump\t// out\n        /* \"#utility.yul\":5208:5426   */\n    tag_71:\n        /* \"#utility.yul\":5299:5303   */\n      0x00\n        /* \"#utility.yul\":5337:5339   */\n      0x20\n        /* \"#utility.yul\":5326:5335   */\n      dup3\n        /* \"#utility.yul\":5322:5340   */\n      add\n        /* \"#utility.yul\":5314:5340   */\n      swap1\n      pop\n        /* \"#utility.yul\":5350:5419   */\n      tag_194\n        /* \"#utility.yul\":5416:5417   */\n      0x00\n        /* \"#utility.yul\":5405:5414   */\n      dup4\n        /* \"#utility.yul\":5401:5418   */\n      add\n        /* \"#utility.yul\":5392:5398   */\n      dup5\n        /* \"#utility.yul\":5350:5419   */\n      tag_123\n      jump\t// in\n    tag_194:\n        /* \"#utility.yul\":5208:5426   */\n      swap3\n      swap2\n      pop\n      pop\n      jump\t// out\n        /* \"#utility.yul\":5432:5554   */\n    tag_132:\n        /* \"#utility.yul\":5505:5529   */\n      tag_196\n        /* \"#utility.yul\":5523:5528   */\n      dup2\n        /* \"#utility.yul\":5505:5529   */\n      tag_125\n      jump\t// in\n    tag_196:\n        /* \"#utility.yul\":5498:5503   */\n      dup2\n        /* \"#utility.yul\":5495:5530   */\n      eq\n        /* \"#utility.yul\":5485:5548   */\n      tag_197\n      jumpi\n        /* \"#utility.yul\":5544:5545   */\n      0x00\n        /* \"#utility.yul\":5541:5542   */\n      dup1\n        /* \"#utility.yul\":5534:5546   */\n      revert\n        /* \"#utility.yul\":5485:5548   */\n    tag_197:\n        /* \"#utility.yul\":5432:5554   */\n      pop\n      jump\t// out\n        /* \"#utility.yul\":5560:5699   */\n    tag_133:\n        /* \"#utility.yul\":5606:5611   */\n      0x00\n        /* \"#utility.yul\":5644:5650   */\n      dup2\n        /* \"#utility.yul\":5631:5651   */\n      calldataload\n        /* \"#utility.yul\":5622:5651   */\n      swap1\n      pop\n        /* \"#utility.yul\":5660:5693   */\n      tag_199\n        /* \"#utility.yul\":5687:5692   */\n      dup2\n        /* \"#utility.yul\":5660:5693   */\n      tag_132\n      jump\t// in\n    tag_199:\n        /* \"#utility.yul\":5560:5699   */\n      swap3\n      swap2\n      pop\n      pop\n      jump\t// out\n        /* \"#utility.yul\":5705:6324   */\n    tag_74:\n        /* \"#utility.yul\":5782:5788   */\n      0x00\n        /* \"#utility.yul\":5790:5796   */\n      dup1\n        /* \"#utility.yul\":5798:5804   */\n      0x00\n        /* \"#utility.yul\":5847:5849   */\n      0x60\n        /* \"#utility.yul\":5835:5844   */\n      dup5\n        /* \"#utility.yul\":5826:5833   */\n      dup7\n        /* \"#utility.yul\":5822:5845   */\n      sub\n        /* \"#utility.yul\":5818:5850   */\n      slt\n        /* \"#utility.yul\":5815:5934   */\n      iszero\n      tag_201\n      jumpi\n        /* \"#utility.yul\":5853:5932   */\n      tag_202\n      tag_118\n      jump\t// in\n    tag_202:\n        /* \"#utility.yul\":5815:5934   */\n    tag_201:\n        /* \"#utility.yul\":5973:5974   */\n      0x00\n        /* \"#utility.yul\":5998:6051   */\n      tag_203\n        /* \"#utility.yul\":6043:6050   */\n      dup7\n        /* \"#utility.yul\":6034:6040   */\n      dup3\n        /* \"#utility.yul\":6023:6032   */\n      dup8\n        /* \"#utility.yul\":6019:6041   */\n      add\n        /* \"#utility.yul\":5998:6051   */\n      tag_133\n      jump\t// in\n    tag_203:\n        /* \"#utility.yul\":5988:6051   */\n      swap4\n      pop\n        /* \"#utility.yul\":5944:6061   */\n      pop\n        /* \"#utility.yul\":6100:6102   */\n      0x20\n        /* \"#utility.yul\":6126:6179   */\n      tag_204\n        /* \"#utility.yul\":6171:6178   */\n      dup7\n        /* \"#utility.yul\":6162:6168   */\n      dup3\n        /* \"#utility.yul\":6151:6160   */\n      dup8\n        /* \"#utility.yul\":6147:6169   */\n      add\n        /* \"#utility.yul\":6126:6179   */\n      tag_128\n      jump\t// in\n    tag_204:\n        /* \"#utility.yul\":6116:6179   */\n      swap3\n      pop\n        /* \"#utility.yul\":6071:6189   */\n      pop\n        /* \"#utility.yul\":6228:6230   */\n      0x40\n        /* \"#utility.yul\":6254:6307   */\n      tag_205\n        /* \"#utility.yul\":6299:6306   */\n      dup7\n        /* \"#utility.yul\":6290:6296   */\n      dup3\n        /* \"#utility.yul\":6279:6288   */\n      dup8\n        /* \"#utility.yul\":6275:6297   */\n      add\n        /* \"#utility.yul\":6254:6307   */\n      tag_128\n      jump\t// in\n    tag_205:\n        /* \"#utility.yul\":6244:6307   */\n      swap2\n      pop\n        /* \"#utility.yul\":6199:6317   */\n      pop\n        /* \"#utility.yul\":5705:6324   */\n      swap3\n      pop\n      swap3\n      pop\n      swap3\n      jump\t// out\n        /* \"#utility.yul\":6330:6982   */\n    tag_81:\n        /* \"#utility.yul\":6529:6533   */\n      0x00\n        /* \"#utility.yul\":6567:6570   */\n      0xa0\n        /* \"#utility.yul\":6556:6565   */\n      dup3\n        /* \"#utility.yul\":6552:6571   */\n      add\n        /* \"#utility.yul\":6544:6571   */\n      swap1\n      pop\n        /* \"#utility.yul\":6581:6652   */\n      tag_207\n        /* \"#utility.yul\":6649:6650   */\n      0x00\n        /* \"#utility.yul\":6638:6647   */\n      dup4\n        /* \"#utility.yul\":6634:6651   */\n      add\n        /* \"#utility.yul\":6625:6631   */\n      dup9\n        /* \"#utility.yul\":6581:6652   */\n      tag_116\n      jump\t// in\n    tag_207:\n        /* \"#utility.yul\":6662:6732   */\n      tag_208\n        /* \"#utility.yul\":6728:6730   */\n      0x20\n        /* \"#utility.yul\":6717:6726   */\n      dup4\n        /* \"#utility.yul\":6713:6731   */\n      add\n        /* \"#utility.yul\":6704:6710   */\n      dup8\n        /* \"#utility.yul\":6662:6732   */\n      tag_123\n      jump\t// in\n    tag_208:\n        /* \"#utility.yul\":6742:6812   */\n      tag_209\n        /* \"#utility.yul\":6808:6810   */\n      0x40\n        /* \"#utility.yul\":6797:6806   */\n      dup4\n        /* \"#utility.yul\":6793:6811   */\n      add\n        /* \"#utility.yul\":6784:6790   */\n      dup7\n        /* \"#utility.yul\":6742:6812   */\n      tag_123\n      jump\t// in\n    tag_209:\n        /* \"#utility.yul\":6822:6892   */\n      tag_210\n        /* \"#utility.yul\":6888:6890   */\n      0x60\n        /* \"#utility.yul\":6877:6886   */\n      dup4\n        /* \"#utility.yul\":6873:6891   */\n      add\n        /* \"#utility.yul\":6864:6870   */\n      dup6\n        /* \"#utility.yul\":6822:6892   */\n      tag_123\n      jump\t// in\n    tag_210:\n        /* \"#utility.yul\":6902:6975   */\n      tag_211\n        /* \"#utility.yul\":6970:6973   */\n      0x80\n        /* \"#utility.yul\":6959:6968   */\n      dup4\n        /* \"#utility.yul\":6955:6974   */\n      add\n        /* \"#utility.yul\":6946:6952   */\n      dup5\n        /* \"#utility.yul\":6902:6975   */\n      tag_116\n      jump\t// in\n    tag_211:\n        /* \"#utility.yul\":6330:6982   */\n      swap7\n      swap6\n      pop\n      pop\n      pop\n      pop\n      pop\n      pop\n      jump\t// out\n        /* \"#utility.yul\":6988:7168   */\n    tag_134:\n        /* \"#utility.yul\":7036:7113   */\n      0x4e487b7100000000000000000000000000000000000000000000000000000000\n        /* \"#utility.yul\":7033:7034   */\n      0x00\n        /* \"#utility.yul\":7026:7114   */\n      mstore\n        /* \"#utility.yul\":7133:7137   */\n      0x12\n        /* \"#utility.yul\":7130:7131   */\n      0x04\n        /* \"#utility.yul\":7123:7138   */\n      mstore\n        /* \"#utility.yul\":7157:7161   */\n      0x24\n        /* \"#utility.yul\":7154:7155   */\n      0x00\n        /* \"#utility.yul\":7147:7162   */\n      revert\n        /* \"#utility.yul\":7174:7350   */\n    tag_103:\n        /* \"#utility.yul\":7206:7207   */\n      0x00\n        /* \"#utility.yul\":7223:7243   */\n      tag_214\n        /* \"#utility.yul\":7241:7242   */\n      dup3\n        /* \"#utility.yul\":7223:7243   */\n      tag_115\n      jump\t// in\n    tag_214:\n        /* \"#utility.yul\":7218:7243   */\n      swap2\n      pop\n        /* \"#utility.yul\":7257:7277   */\n      tag_215\n        /* \"#utility.yul\":7275:7276   */\n      dup4\n        /* \"#utility.yul\":7257:7277   */\n      tag_115\n      jump\t// in\n    tag_215:\n        /* \"#utility.yul\":7252:7277   */\n      swap3\n      pop\n        /* \"#utility.yul\":7296:7297   */\n      dup3\n        /* \"#utility.yul\":7286:7321   */\n      tag_216\n      jumpi\n        /* \"#utility.yul\":7301:7319   */\n      tag_217\n      tag_134\n      jump\t// in\n    tag_217:\n        /* \"#utility.yul\":7286:7321   */\n    tag_216:\n        /* \"#utility.yul\":7342:7343   */\n      dup3\n        /* \"#utility.yul\":7339:7340   */\n      dup3\n        /* \"#utility.yul\":7335:7344   */\n      mod\n        /* \"#utility.yul\":7330:7344   */\n      swap1\n      pop\n        /* \"#utility.yul\":7174:7350   */\n      swap3\n      swap2\n      pop\n      pop\n      jump\t// out\n        /* \"#utility.yul\":7356:7536   */\n    tag_135:\n        /* \"#utility.yul\":7404:7481   */\n      0x4e487b7100000000000000000000000000000000000000000000000000000000\n        /* \"#utility.yul\":7401:7402   */\n      0x00\n        /* \"#utility.yul\":7394:7482   */\n      mstore\n        /* \"#utility.yul\":7501:7505   */\n      0x11\n        /* \"#utility.yul\":7498:7499   */\n      0x04\n        /* \"#utility.yul\":7491:7506   */\n      mstore\n        /* \"#utility.yul\":7525:7529   */\n      0x24\n        /* \"#utility.yul\":7522:7523   */\n      0x00\n        /* \"#utility.yul\":7515:7530   */\n      revert\n        /* \"#utility.yul\":7542:7733   */\n    tag_106:\n        /* \"#utility.yul\":7582:7585   */\n      0x00\n        /* \"#utility.yul\":7601:7621   */\n      tag_220\n        /* \"#utility.yul\":7619:7620   */\n      dup3\n        /* \"#utility.yul\":7601:7621   */\n      tag_115\n      jump\t// in\n    tag_220:\n        /* \"#utility.yul\":7596:7621   */\n      swap2\n      pop\n        /* \"#utility.yul\":7635:7655   */\n      tag_221\n        /* \"#utility.yul\":7653:7654   */\n      dup4\n        /* \"#utility.yul\":7635:7655   */\n      tag_115\n      jump\t// in\n    tag_221:\n        /* \"#utility.yul\":7630:7655   */\n      swap3\n      pop\n        /* \"#utility.yul\":7678:7679   */\n      dup3\n        /* \"#utility.yul\":7675:7676   */\n      dup3\n        /* \"#utility.yul\":7671:7680   */\n      add\n        /* \"#utility.yul\":7664:7680   */\n      swap1\n      pop\n        /* \"#utility.yul\":7699:7702   */\n      dup1\n        /* \"#utility.yul\":7696:7697   */\n      dup3\n        /* \"#utility.yul\":7693:7703   */\n      gt\n        /* \"#utility.yul\":7690:7726   */\n      iszero\n      tag_222\n      jumpi\n        /* \"#utility.yul\":7706:7724   */\n      tag_223\n      tag_135\n      jump\t// in\n    tag_223:\n        /* \"#utility.yul\":7690:7726   */\n    tag_222:\n        /* \"#utility.yul\":7542:7733   */\n      swap3\n      swap2\n      pop\n      pop\n      jump\t// out\n\n    auxdata: 0xa26469706673582212201ad3c6a179e4b527d6e1dc92d760b2bc2c33f49502f1ec271ace45eec11a836f64736f6c63430008140033\n}\n",
				"bytecode": {
					"linkReferences": {},
					"object": "60806040525f60035f6101000a81548160ff021916908315150217905550348015610028575f80fd5b506100385f61004d60201b60201c565b610048600261004d60201b60201c565b610061565b6001815f015f828254019250508190555050565b610b0d8061006e5f395ff3fe608060405234801561000f575f80fd5b50600436106100f3575f3560e01c8063ad62b09811610095578063d6c38c7f11610064578063d6c38c7f1461027a578063f2bdbc62146102aa578063f4225ee1146102da578063f5d709a11461030a576100f3565b8063ad62b098146101de578063b29e60ef1461020e578063c419857f1461023e578063d3b30b751461025c576100f3565b80633dcdb672116100d15780633dcdb672146101515780634cd7184a1461016f57806363b6f0651461018d578063952a9633146101c0576100f3565b806302fb0c5e146100f75780630bd8a117146101155780631821d77d14610133575b5f80fd5b6100ff61033e565b60405161010c91906106fd565b60405180910390f35b61011d610350565b60405161012a91906106fd565b60405180910390f35b61013b610354565b604051610148919061072e565b60405180910390f35b610159610364565b604051610166919061072e565b60405180910390f35b610177610368565b60405161018491906106fd565b60405180910390f35b6101a760048036038101906101a29190610788565b61036c565b6040516101b79493929190610801565b60405180910390f35b6101c86103ca565b6040516101d5919061072e565b60405180910390f35b6101f860048036038101906101f3919061086e565b6104f1565b60405161020591906106fd565b60405180910390f35b6102286004803603810190610223919061086e565b610523565b604051610235919061072e565b60405180910390f35b610246610538565b60405161025391906106fd565b60405180910390f35b61026461053c565b604051610271919061091d565b60405180910390f35b610294600480360381019061028f919061086e565b610547565b6040516102a1919061072e565b60405180910390f35b6102c460048036038101906102bf919061086e565b610580565b6040516102d19190610936565b60405180910390f35b6102f460048036038101906102ef9190610979565b6105bb565b6040516103019190610936565b60405180910390f35b610324600480360381019061031f919061086e565b61060e565b6040516103359594939291906109c9565b60405180910390f35b60035f9054906101000a900460ff1681565b5f90565b5f61035f600161067b565b905090565b5f90565b5f90565b6008602052805f5260405f205f91509050805f015f9054906101000a900467ffffffffffffffff1690805f0160089054906101000a900473ffffffffffffffffffffffffffffffffffffffff16908060010154908060020154905084565b5f6103d56001610687565b5f6103e0600161067b565b90506040518060a001604052808281526020016103fc5f61067b565b67ffffffffffffffff1681526020015f67ffffffffffffffff1681526020015f67ffffffffffffffff1681526020015f81525060055f8381526020019081526020015f205f820151815f01556020820151816001015f6101000a81548167ffffffffffffffff021916908367ffffffffffffffff16021790555060408201518160010160086101000a81548167ffffffffffffffff021916908367ffffffffffffffff16021790555060608201518160010160106101000a81548167ffffffffffffffff021916908367ffffffffffffffff160217905550608082015181600201559050506104eb600161067b565b91505090565b5f6104fb82610547565b60055f610506610354565b81526020019081526020015f206002018190555060019050919050565b6007602052805f5260405f205f915090505481565b5f90565b61054461069b565b90565b5f80620f4240836105589190610a47565b9050620186a081101561057757620186a0816105749190610aa4565b90505b80915050919050565b6004818154811061058f575f80fd5b905f5260205f209060049182820401919006600802915054906101000a900467ffffffffffffffff1681565b6006602052825f5260405f20602052815f5260405f2081815481106105de575f80fd5b905f5260205f20906004918282040191900660080292509250509054906101000a900467ffffffffffffffff1681565b6005602052805f5260405f205f91509050805f015490806001015f9054906101000a900467ffffffffffffffff16908060010160089054906101000a900467ffffffffffffffff16908060010160109054906101000a900467ffffffffffffffff16908060020154905085565b5f815f01549050919050565b6001815f015f828254019250508190555050565b6040518060a001604052805f81526020015f67ffffffffffffffff1681526020015f67ffffffffffffffff1681526020015f67ffffffffffffffff1681526020015f81525090565b5f8115159050919050565b6106f7816106e3565b82525050565b5f6020820190506107105f8301846106ee565b92915050565b5f819050919050565b61072881610716565b82525050565b5f6020820190506107415f83018461071f565b92915050565b5f80fd5b5f67ffffffffffffffff82169050919050565b6107678161074b565b8114610771575f80fd5b50565b5f813590506107828161075e565b92915050565b5f6020828403121561079d5761079c610747565b5b5f6107aa84828501610774565b91505092915050565b6107bc8161074b565b82525050565b5f73ffffffffffffffffffffffffffffffffffffffff82169050919050565b5f6107eb826107c2565b9050919050565b6107fb816107e1565b82525050565b5f6080820190506108145f8301876107b3565b61082160208301866107f2565b61082e604083018561071f565b61083b606083018461071f565b95945050505050565b61084d81610716565b8114610857575f80fd5b50565b5f8135905061086881610844565b92915050565b5f6020828403121561088357610882610747565b5b5f6108908482850161085a565b91505092915050565b6108a281610716565b82525050565b6108b18161074b565b82525050565b60a082015f8201516108cb5f850182610899565b5060208201516108de60208501826108a8565b5060408201516108f160408501826108a8565b50606082015161090460608501826108a8565b5060808201516109176080850182610899565b50505050565b5f60a0820190506109305f8301846108b7565b92915050565b5f6020820190506109495f8301846107b3565b92915050565b610958816107e1565b8114610962575f80fd5b50565b5f813590506109738161094f565b92915050565b5f805f606084860312156109905761098f610747565b5b5f61099d86828701610965565b93505060206109ae8682870161085a565b92505060406109bf8682870161085a565b9150509250925092565b5f60a0820190506109dc5f83018861071f565b6109e960208301876107b3565b6109f660408301866107b3565b610a0360608301856107b3565b610a10608083018461071f565b9695505050505050565b7f4e487b71000000000000000000000000000000000000000000000000000000005f52601260045260245ffd5b5f610a5182610716565b9150610a5c83610716565b925082610a6c57610a6b610a1a565b5b828206905092915050565b7f4e487b71000000000000000000000000000000000000000000000000000000005f52601160045260245ffd5b5f610aae82610716565b9150610ab983610716565b9250828201905080821115610ad157610ad0610a77565b5b9291505056fea26469706673582212201ad3c6a179e4b527d6e1dc92d760b2bc2c33f49502f1ec271ace45eec11a836f64736f6c63430008140033",
					"opcodes": "PUSH1 0x80 PUSH1 0x40 MSTORE PUSH0 PUSH1 0x3 PUSH0 PUSH2 0x100 EXP DUP2 SLOAD DUP2 PUSH1 0xFF MUL NOT AND SWAP1 DUP4 ISZERO ISZERO MUL OR SWAP1 SSTORE POP CALLVALUE DUP1 ISZERO PUSH2 0x28 JUMPI PUSH0 DUP1 REVERT JUMPDEST POP PUSH2 0x38 PUSH0 PUSH2 0x4D PUSH1 0x20 SHL PUSH1 0x20 SHR JUMP JUMPDEST PUSH2 0x48 PUSH1 0x2 PUSH2 0x4D PUSH1 0x20 SHL PUSH1 0x20 SHR JUMP JUMPDEST PUSH2 0x61 JUMP JUMPDEST PUSH1 0x1 DUP2 PUSH0 ADD PUSH0 DUP3 DUP3 SLOAD ADD SWAP3 POP POP DUP2 SWAP1 SSTORE POP POP JUMP JUMPDEST PUSH2 0xB0D DUP1 PUSH2 0x6E PUSH0 CODECOPY PUSH0 RETURN INVALID PUSH1 0x80 PUSH1 0x40 MSTORE CALLVALUE DUP1 ISZERO PUSH2 0xF JUMPI PUSH0 DUP1 REVERT JUMPDEST POP PUSH1 0x4 CALLDATASIZE LT PUSH2 0xF3 JUMPI PUSH0 CALLDATALOAD PUSH1 0xE0 SHR DUP1 PUSH4 0xAD62B098 GT PUSH2 0x95 JUMPI DUP1 PUSH4 0xD6C38C7F GT PUSH2 0x64 JUMPI DUP1 PUSH4 0xD6C38C7F EQ PUSH2 0x27A JUMPI DUP1 PUSH4 0xF2BDBC62 EQ PUSH2 0x2AA JUMPI DUP1 PUSH4 0xF4225EE1 EQ PUSH2 0x2DA JUMPI DUP1 PUSH4 0xF5D709A1 EQ PUSH2 0x30A JUMPI PUSH2 0xF3 JUMP JUMPDEST DUP1 PUSH4 0xAD62B098 EQ PUSH2 0x1DE JUMPI DUP1 PUSH4 0xB29E60EF EQ PUSH2 0x20E JUMPI DUP1 PUSH4 0xC419857F EQ PUSH2 0x23E JUMPI DUP1 PUSH4 0xD3B30B75 EQ PUSH2 0x25C JUMPI PUSH2 0xF3 JUMP JUMPDEST DUP1 PUSH4 0x3DCDB672 GT PUSH2 0xD1 JUMPI DUP1 PUSH4 0x3DCDB672 EQ PUSH2 0x151 JUMPI DUP1 PUSH4 0x4CD7184A EQ PUSH2 0x16F JUMPI DUP1 PUSH4 0x63B6F065 EQ PUSH2 0x18D JUMPI DUP1 PUSH4 0x952A9633 EQ PUSH2 0x1C0 JUMPI PUSH2 0xF3 JUMP JUMPDEST DUP1 PUSH4 0x2FB0C5E EQ PUSH2 0xF7 JUMPI DUP1 PUSH4 0xBD8A117 EQ PUSH2 0x115 JUMPI DUP1 PUSH4 0x1821D77D EQ PUSH2 0x133 JUMPI JUMPDEST PUSH0 DUP1 REVERT JUMPDEST PUSH2 0xFF PUSH2 0x33E JUMP JUMPDEST PUSH1 0x40 MLOAD PUSH2 0x10C SWAP2 SWAP1 PUSH2 0x6FD JUMP JUMPDEST PUSH1 0x40 MLOAD DUP1 SWAP2 SUB SWAP1 RETURN JUMPDEST PUSH2 0x11D PUSH2 0x350 JUMP JUMPDEST PUSH1 0x40 MLOAD PUSH2 0x12A SWAP2 SWAP1 PUSH2 0x6FD JUMP JUMPDEST PUSH1 0x40 MLOAD DUP1 SWAP2 SUB SWAP1 RETURN JUMPDEST PUSH2 0x13B PUSH2 0x354 JUMP JUMPDEST PUSH1 0x40 MLOAD PUSH2 0x148 SWAP2 SWAP1 PUSH2 0x72E JUMP JUMPDEST PUSH1 0x40 MLOAD DUP1 SWAP2 SUB SWAP1 RETURN JUMPDEST PUSH2 0x159 PUSH2 0x364 JUMP JUMPDEST PUSH1 0x40 MLOAD PUSH2 0x166 SWAP2 SWAP1 PUSH2 0x72E JUMP JUMPDEST PUSH1 0x40 MLOAD DUP1 SWAP2 SUB SWAP1 RETURN JUMPDEST PUSH2 0x177 PUSH2 0x368 JUMP JUMPDEST PUSH1 0x40 MLOAD PUSH2 0x184 SWAP2 SWAP1 PUSH2 0x6FD JUMP JUMPDEST PUSH1 0x40 MLOAD DUP1 SWAP2 SUB SWAP1 RETURN JUMPDEST PUSH2 0x1A7 PUSH1 0x4 DUP1 CALLDATASIZE SUB DUP2 ADD SWAP1 PUSH2 0x1A2 SWAP2 SWAP1 PUSH2 0x788 JUMP JUMPDEST PUSH2 0x36C JUMP JUMPDEST PUSH1 0x40 MLOAD PUSH2 0x1B7 SWAP5 SWAP4 SWAP3 SWAP2 SWAP1 PUSH2 0x801 JUMP JUMPDEST PUSH1 0x40 MLOAD DUP1 SWAP2 SUB SWAP1 RETURN JUMPDEST PUSH2 0x1C8 PUSH2 0x3CA JUMP JUMPDEST PUSH1 0x40 MLOAD PUSH2 0x1D5 SWAP2 SWAP1 PUSH2 0x72E JUMP JUMPDEST PUSH1 0x40 MLOAD DUP1 SWAP2 SUB SWAP1 RETURN JUMPDEST PUSH2 0x1F8 PUSH1 0x4 DUP1 CALLDATASIZE SUB DUP2 ADD SWAP1 PUSH2 0x1F3 SWAP2 SWAP1 PUSH2 0x86E JUMP JUMPDEST PUSH2 0x4F1 JUMP JUMPDEST PUSH1 0x40 MLOAD PUSH2 0x205 SWAP2 SWAP1 PUSH2 0x6FD JUMP JUMPDEST PUSH1 0x40 MLOAD DUP1 SWAP2 SUB SWAP1 RETURN JUMPDEST PUSH2 0x228 PUSH1 0x4 DUP1 CALLDATASIZE SUB DUP2 ADD SWAP1 PUSH2 0x223 SWAP2 SWAP1 PUSH2 0x86E JUMP JUMPDEST PUSH2 0x523 JUMP JUMPDEST PUSH1 0x40 MLOAD PUSH2 0x235 SWAP2 SWAP1 PUSH2 0x72E JUMP JUMPDEST PUSH1 0x40 MLOAD DUP1 SWAP2 SUB SWAP1 RETURN JUMPDEST PUSH2 0x246 PUSH2 0x538 JUMP JUMPDEST PUSH1 0x40 MLOAD PUSH2 0x253 SWAP2 SWAP1 PUSH2 0x6FD JUMP JUMPDEST PUSH1 0x40 MLOAD DUP1 SWAP2 SUB SWAP1 RETURN JUMPDEST PUSH2 0x264 PUSH2 0x53C JUMP JUMPDEST PUSH1 0x40 MLOAD PUSH2 0x271 SWAP2 SWAP1 PUSH2 0x91D JUMP JUMPDEST PUSH1 0x40 MLOAD DUP1 SWAP2 SUB SWAP1 RETURN JUMPDEST PUSH2 0x294 PUSH1 0x4 DUP1 CALLDATASIZE SUB DUP2 ADD SWAP1 PUSH2 0x28F SWAP2 SWAP1 PUSH2 0x86E JUMP JUMPDEST PUSH2 0x547 JUMP JUMPDEST PUSH1 0x40 MLOAD PUSH2 0x2A1 SWAP2 SWAP1 PUSH2 0x72E JUMP JUMPDEST PUSH1 0x40 MLOAD DUP1 SWAP2 SUB SWAP1 RETURN JUMPDEST PUSH2 0x2C4 PUSH1 0x4 DUP1 CALLDATASIZE SUB DUP2 ADD SWAP1 PUSH2 0x2BF SWAP2 SWAP1 PUSH2 0x86E JUMP JUMPDEST PUSH2 0x580 JUMP JUMPDEST PUSH1 0x40 MLOAD PUSH2 0x2D1 SWAP2 SWAP1 PUSH2 0x936 JUMP JUMPDEST PUSH1 0x40 MLOAD DUP1 SWAP2 SUB SWAP1 RETURN JUMPDEST PUSH2 0x2F4 PUSH1 0x4 DUP1 CALLDATASIZE SUB DUP2 ADD SWAP1 PUSH2 0x2EF SWAP2 SWAP1 PUSH2 0x979 JUMP JUMPDEST PUSH2 0x5BB JUMP JUMPDEST PUSH1 0x40 MLOAD PUSH2 0x301 SWAP2 SWAP1 PUSH2 0x936 JUMP JUMPDEST PUSH1 0x40 MLOAD DUP1 SWAP2 SUB SWAP1 RETURN JUMPDEST PUSH2 0x324 PUSH1 0x4 DUP1 CALLDATASIZE SUB DUP2 ADD SWAP1 PUSH2 0x31F SWAP2 SWAP1 PUSH2 0x86E JUMP JUMPDEST PUSH2 0x60E JUMP JUMPDEST PUSH1 0x40 MLOAD PUSH2 0x335 SWAP6 SWAP5 SWAP4 SWAP3 SWAP2 SWAP1 PUSH2 0x9C9 JUMP JUMPDEST PUSH1 0x40 MLOAD DUP1 SWAP2 SUB SWAP1 RETURN JUMPDEST PUSH1 0x3 PUSH0 SWAP1 SLOAD SWAP1 PUSH2 0x100 EXP SWAP1 DIV PUSH1 0xFF AND DUP2 JUMP JUMPDEST PUSH0 SWAP1 JUMP JUMPDEST PUSH0 PUSH2 0x35F PUSH1 0x1 PUSH2 0x67B JUMP JUMPDEST SWAP1 POP SWAP1 JUMP JUMPDEST PUSH0 SWAP1 JUMP JUMPDEST PUSH0 SWAP1 JUMP JUMPDEST PUSH1 0x8 PUSH1 0x20 MSTORE DUP1 PUSH0 MSTORE PUSH1 0x40 PUSH0 KECCAK256 PUSH0 SWAP2 POP SWAP1 POP DUP1 PUSH0 ADD PUSH0 SWAP1 SLOAD SWAP1 PUSH2 0x100 EXP SWAP1 DIV PUSH8 0xFFFFFFFFFFFFFFFF AND SWAP1 DUP1 PUSH0 ADD PUSH1 0x8 SWAP1 SLOAD SWAP1 PUSH2 0x100 EXP SWAP1 DIV PUSH20 0xFFFFFFFFFFFFFFFFFFFFFFFFFFFFFFFFFFFFFFFF AND SWAP1 DUP1 PUSH1 0x1 ADD SLOAD SWAP1 DUP1 PUSH1 0x2 ADD SLOAD SWAP1 POP DUP5 JUMP JUMPDEST PUSH0 PUSH2 0x3D5 PUSH1 0x1 PUSH2 0x687 JUMP JUMPDEST PUSH0 PUSH2 0x3E0 PUSH1 0x1 PUSH2 0x67B JUMP JUMPDEST SWAP1 POP PUSH1 0x40 MLOAD DUP1 PUSH1 0xA0 ADD PUSH1 0x40 MSTORE DUP1 DUP3 DUP2 MSTORE PUSH1 0x20 ADD PUSH2 0x3FC PUSH0 PUSH2 0x67B JUMP JUMPDEST PUSH8 0xFFFFFFFFFFFFFFFF AND DUP2 MSTORE PUSH1 0x20 ADD PUSH0 PUSH8 0xFFFFFFFFFFFFFFFF AND DUP2 MSTORE PUSH1 0x20 ADD PUSH0 PUSH8 0xFFFFFFFFFFFFFFFF AND DUP2 MSTORE PUSH1 0x20 ADD PUSH0 DUP2 MSTORE POP PUSH1 0x5 PUSH0 DUP4 DUP2 MSTORE PUSH1 0x20 ADD SWAP1 DUP2 MSTORE PUSH1 0x20 ADD PUSH0 KECCAK256 PUSH0 DUP3 ADD MLOAD DUP2 PUSH0 ADD SSTORE PUSH1 0x20 DUP3 ADD MLOAD DUP2 PUSH1 0x1 ADD PUSH0 PUSH2 0x100 EXP DUP2 SLOAD DUP2 PUSH8 0xFFFFFFFFFFFFFFFF MUL NOT AND SWAP1 DUP4 PUSH8 0xFFFFFFFFFFFFFFFF AND MUL OR SWAP1 SSTORE POP PUSH1 0x40 DUP3 ADD MLOAD DUP2 PUSH1 0x1 ADD PUSH1 0x8 PUSH2 0x100 EXP DUP2 SLOAD DUP2 PUSH8 0xFFFFFFFFFFFFFFFF MUL NOT AND SWAP1 DUP4 PUSH8 0xFFFFFFFFFFFFFFFF AND MUL OR SWAP1 SSTORE POP PUSH1 0x60 DUP3 ADD MLOAD DUP2 PUSH1 0x1 ADD PUSH1 0x10 PUSH2 0x100 EXP DUP2 SLOAD DUP2 PUSH8 0xFFFFFFFFFFFFFFFF MUL NOT AND SWAP1 DUP4 PUSH8 0xFFFFFFFFFFFFFFFF AND MUL OR SWAP1 SSTORE POP PUSH1 0x80 DUP3 ADD MLOAD DUP2 PUSH1 0x2 ADD SSTORE SWAP1 POP POP PUSH2 0x4EB PUSH1 0x1 PUSH2 0x67B JUMP JUMPDEST SWAP2 POP POP SWAP1 JUMP JUMPDEST PUSH0 PUSH2 0x4FB DUP3 PUSH2 0x547 JUMP JUMPDEST PUSH1 0x5 PUSH0 PUSH2 0x506 PUSH2 0x354 JUMP JUMPDEST DUP2 MSTORE PUSH1 0x20 ADD SWAP1 DUP2 MSTORE PUSH1 0x20 ADD PUSH0 KECCAK256 PUSH1 0x2 ADD DUP2 SWAP1 SSTORE POP PUSH1 0x1 SWAP1 POP SWAP2 SWAP1 POP JUMP JUMPDEST PUSH1 0x7 PUSH1 0x20 MSTORE DUP1 PUSH0 MSTORE PUSH1 0x40 PUSH0 KECCAK256 PUSH0 SWAP2 POP SWAP1 POP SLOAD DUP2 JUMP JUMPDEST PUSH0 SWAP1 JUMP JUMPDEST PUSH2 0x544 PUSH2 0x69B JUMP JUMPDEST SWAP1 JUMP JUMPDEST PUSH0 DUP1 PUSH3 0xF4240 DUP4 PUSH2 0x558 SWAP2 SWAP1 PUSH2 0xA47 JUMP JUMPDEST SWAP1 POP PUSH3 0x186A0 DUP2 LT ISZERO PUSH2 0x577 JUMPI PUSH3 0x186A0 DUP2 PUSH2 0x574 SWAP2 SWAP1 PUSH2 0xAA4 JUMP JUMPDEST SWAP1 POP JUMPDEST DUP1 SWAP2 POP POP SWAP2 SWAP1 POP JUMP JUMPDEST PUSH1 0x4 DUP2 DUP2 SLOAD DUP2 LT PUSH2 0x58F JUMPI PUSH0 DUP1 REVERT JUMPDEST SWAP1 PUSH0 MSTORE PUSH1 0x20 PUSH0 KECCAK256 SWAP1 PUSH1 0x4 SWAP2 DUP3 DUP3 DIV ADD SWAP2 SWAP1 MOD PUSH1 0x8 MUL SWAP2 POP SLOAD SWAP1 PUSH2 0x100 EXP SWAP1 DIV PUSH8 0xFFFFFFFFFFFFFFFF AND DUP2 JUMP JUMPDEST PUSH1 0x6 PUSH1 0x20 MSTORE DUP3 PUSH0 MSTORE PUSH1 0x40 PUSH0 KECCAK256 PUSH1 0x20 MSTORE DUP2 PUSH0 MSTORE PUSH1 0x40 PUSH0 KECCAK256 DUP2 DUP2 SLOAD DUP2 LT PUSH2 0x5DE JUMPI PUSH0 DUP1 REVERT JUMPDEST SWAP1 PUSH0 MSTORE PUSH1 0x20 PUSH0 KECCAK256 SWAP1 PUSH1 0x4 SWAP2 DUP3 DUP3 DIV ADD SWAP2 SWAP1 MOD PUSH1 0x8 MUL SWAP3 POP SWAP3 POP POP SWAP1 SLOAD SWAP1 PUSH2 0x100 EXP SWAP1 DIV PUSH8 0xFFFFFFFFFFFFFFFF AND DUP2 JUMP JUMPDEST PUSH1 0x5 PUSH1 0x20 MSTORE DUP1 PUSH0 MSTORE PUSH1 0x40 PUSH0 KECCAK256 PUSH0 SWAP2 POP SWAP1 POP DUP1 PUSH0 ADD SLOAD SWAP1 DUP1 PUSH1 0x1 ADD PUSH0 SWAP1 SLOAD SWAP1 PUSH2 0x100 EXP SWAP1 DIV PUSH8 0xFFFFFFFFFFFFFFFF AND SWAP1 DUP1 PUSH1 0x1 ADD PUSH1 0x8 SWAP1 SLOAD SWAP1 PUSH2 0x100 EXP SWAP1 DIV PUSH8 0xFFFFFFFFFFFFFFFF AND SWAP1 DUP1 PUSH1 0x1 ADD PUSH1 0x10 SWAP1 SLOAD SWAP1 PUSH2 0x100 EXP SWAP1 DIV PUSH8 0xFFFFFFFFFFFFFFFF AND SWAP1 DUP1 PUSH1 0x2 ADD SLOAD SWAP1 POP DUP6 JUMP JUMPDEST PUSH0 DUP2 PUSH0 ADD SLOAD SWAP1 POP SWAP2 SWAP1 POP JUMP JUMPDEST PUSH1 0x1 DUP2 PUSH0 ADD PUSH0 DUP3 DUP3 SLOAD ADD SWAP3 POP POP DUP2 SWAP1 SSTORE POP POP JUMP JUMPDEST PUSH1 0x40 MLOAD DUP1 PUSH1 0xA0 ADD PUSH1 0x40 MSTORE DUP1 PUSH0 DUP2 MSTORE PUSH1 0x20 ADD PUSH0 PUSH8 0xFFFFFFFFFFFFFFFF AND DUP2 MSTORE PUSH1 0x20 ADD PUSH0 PUSH8 0xFFFFFFFFFFFFFFFF AND DUP2 MSTORE PUSH1 0x20 ADD PUSH0 PUSH8 0xFFFFFFFFFFFFFFFF AND DUP2 MSTORE PUSH1 0x20 ADD PUSH0 DUP2 MSTORE POP SWAP1 JUMP JUMPDEST PUSH0 DUP2 ISZERO ISZERO SWAP1 POP SWAP2 SWAP1 POP JUMP JUMPDEST PUSH2 0x6F7 DUP2 PUSH2 0x6E3 JUMP JUMPDEST DUP3 MSTORE POP POP JUMP JUMPDEST PUSH0 PUSH1 0x20 DUP3 ADD SWAP1 POP PUSH2 0x710 PUSH0 DUP4 ADD DUP5 PUSH2 0x6EE JUMP JUMPDEST SWAP3 SWAP2 POP POP JUMP JUMPDEST PUSH0 DUP2 SWAP1 POP SWAP2 SWAP1 POP JUMP JUMPDEST PUSH2 0x728 DUP2 PUSH2 0x716 JUMP JUMPDEST DUP3 MSTORE POP POP JUMP JUMPDEST PUSH0 PUSH1 0x20 DUP3 ADD SWAP1 POP PUSH2 0x741 PUSH0 DUP4 ADD DUP5 PUSH2 0x71F JUMP JUMPDEST SWAP3 SWAP2 POP POP JUMP JUMPDEST PUSH0 DUP1 REVERT JUMPDEST PUSH0 PUSH8 0xFFFFFFFFFFFFFFFF DUP3 AND SWAP1 POP SWAP2 SWAP1 POP JUMP JUMPDEST PUSH2 0x767 DUP2 PUSH2 0x74B JUMP JUMPDEST DUP2 EQ PUSH2 0x771 JUMPI PUSH0 DUP1 REVERT JUMPDEST POP JUMP JUMPDEST PUSH0 DUP2 CALLDATALOAD SWAP1 POP PUSH2 0x782 DUP2 PUSH2 0x75E JUMP JUMPDEST SWAP3 SWAP2 POP POP JUMP JUMPDEST PUSH0 PUSH1 0x20 DUP3 DUP5 SUB SLT ISZERO PUSH2 0x79D JUMPI PUSH2 0x79C PUSH2 0x747 JUMP JUMPDEST JUMPDEST PUSH0 PUSH2 0x7AA DUP5 DUP3 DUP6 ADD PUSH2 0x774 JUMP JUMPDEST SWAP2 POP POP SWAP3 SWAP2 POP POP JUMP JUMPDEST PUSH2 0x7BC DUP2 PUSH2 0x74B JUMP JUMPDEST DUP3 MSTORE POP POP JUMP JUMPDEST PUSH0 PUSH20 0xFFFFFFFFFFFFFFFFFFFFFFFFFFFFFFFFFFFFFFFF DUP3 AND SWAP1 POP SWAP2 SWAP1 POP JUMP JUMPDEST PUSH0 PUSH2 0x7EB DUP3 PUSH2 0x7C2 JUMP JUMPDEST SWAP1 POP SWAP2 SWAP1 POP JUMP JUMPDEST PUSH2 0x7FB DUP2 PUSH2 0x7E1 JUMP JUMPDEST DUP3 MSTORE POP POP JUMP JUMPDEST PUSH0 PUSH1 0x80 DUP3 ADD SWAP1 POP PUSH2 0x814 PUSH0 DUP4 ADD DUP8 PUSH2 0x7B3 JUMP JUMPDEST PUSH2 0x821 PUSH1 0x20 DUP4 ADD DUP7 PUSH2 0x7F2 JUMP JUMPDEST PUSH2 0x82E PUSH1 0x40 DUP4 ADD DUP6 PUSH2 0x71F JUMP JUMPDEST PUSH2 0x83B PUSH1 0x60 DUP4 ADD DUP5 PUSH2 0x71F JUMP JUMPDEST SWAP6 SWAP5 POP POP POP POP POP JUMP JUMPDEST PUSH2 0x84D DUP2 PUSH2 0x716 JUMP JUMPDEST DUP2 EQ PUSH2 0x857 JUMPI PUSH0 DUP1 REVERT JUMPDEST POP JUMP JUMPDEST PUSH0 DUP2 CALLDATALOAD SWAP1 POP PUSH2 0x868 DUP2 PUSH2 0x844 JUMP JUMPDEST SWAP3 SWAP2 POP POP JUMP JUMPDEST PUSH0 PUSH1 0x20 DUP3 DUP5 SUB SLT ISZERO PUSH2 0x883 JUMPI PUSH2 0x882 PUSH2 0x747 JUMP JUMPDEST JUMPDEST PUSH0 PUSH2 0x890 DUP5 DUP3 DUP6 ADD PUSH2 0x85A JUMP JUMPDEST SWAP2 POP POP SWAP3 SWAP2 POP POP JUMP JUMPDEST PUSH2 0x8A2 DUP2 PUSH2 0x716 JUMP JUMPDEST DUP3 MSTORE POP POP JUMP JUMPDEST PUSH2 0x8B1 DUP2 PUSH2 0x74B JUMP JUMPDEST DUP3 MSTORE POP POP JUMP JUMPDEST PUSH1 0xA0 DUP3 ADD PUSH0 DUP3 ADD MLOAD PUSH2 0x8CB PUSH0 DUP6 ADD DUP3 PUSH2 0x899 JUMP JUMPDEST POP PUSH1 0x20 DUP3 ADD MLOAD PUSH2 0x8DE PUSH1 0x20 DUP6 ADD DUP3 PUSH2 0x8A8 JUMP JUMPDEST POP PUSH1 0x40 DUP3 ADD MLOAD PUSH2 0x8F1 PUSH1 0x40 DUP6 ADD DUP3 PUSH2 0x8A8 JUMP JUMPDEST POP PUSH1 0x60 DUP3 ADD MLOAD PUSH2 0x904 PUSH1 0x60 DUP6 ADD DUP3 PUSH2 0x8A8 JUMP JUMPDEST POP PUSH1 0x80 DUP3 ADD MLOAD PUSH2 0x917 PUSH1 0x80 DUP6 ADD DUP3 PUSH2 0x899 JUMP JUMPDEST POP POP POP POP JUMP JUMPDEST PUSH0 PUSH1 0xA0 DUP3 ADD SWAP1 POP PUSH2 0x930 PUSH0 DUP4 ADD DUP5 PUSH2 0x8B7 JUMP JUMPDEST SWAP3 SWAP2 POP POP JUMP JUMPDEST PUSH0 PUSH1 0x20 DUP3 ADD SWAP1 POP PUSH2 0x949 PUSH0 DUP4 ADD DUP5 PUSH2 0x7B3 JUMP JUMPDEST SWAP3 SWAP2 POP POP JUMP JUMPDEST PUSH2 0x958 DUP2 PUSH2 0x7E1 JUMP JUMPDEST DUP2 EQ PUSH2 0x962 JUMPI PUSH0 DUP1 REVERT JUMPDEST POP JUMP JUMPDEST PUSH0 DUP2 CALLDATALOAD SWAP1 POP PUSH2 0x973 DUP2 PUSH2 0x94F JUMP JUMPDEST SWAP3 SWAP2 POP POP JUMP JUMPDEST PUSH0 DUP1 PUSH0 PUSH1 0x60 DUP5 DUP7 SUB SLT ISZERO PUSH2 0x990 JUMPI PUSH2 0x98F PUSH2 0x747 JUMP JUMPDEST JUMPDEST PUSH0 PUSH2 0x99D DUP7 DUP3 DUP8 ADD PUSH2 0x965 JUMP JUMPDEST SWAP4 POP POP PUSH1 0x20 PUSH2 0x9AE DUP7 DUP3 DUP8 ADD PUSH2 0x85A JUMP JUMPDEST SWAP3 POP POP PUSH1 0x40 PUSH2 0x9BF DUP7 DUP3 DUP8 ADD PUSH2 0x85A JUMP JUMPDEST SWAP2 POP POP SWAP3 POP SWAP3 POP SWAP3 JUMP JUMPDEST PUSH0 PUSH1 0xA0 DUP3 ADD SWAP1 POP PUSH2 0x9DC PUSH0 DUP4 ADD DUP9 PUSH2 0x71F JUMP JUMPDEST PUSH2 0x9E9 PUSH1 0x20 DUP4 ADD DUP8 PUSH2 0x7B3 JUMP JUMPDEST PUSH2 0x9F6 PUSH1 0x40 DUP4 ADD DUP7 PUSH2 0x7B3 JUMP JUMPDEST PUSH2 0xA03 PUSH1 0x60 DUP4 ADD DUP6 PUSH2 0x7B3 JUMP JUMPDEST PUSH2 0xA10 PUSH1 0x80 DUP4 ADD DUP5 PUSH2 0x71F JUMP JUMPDEST SWAP7 SWAP6 POP POP POP POP POP POP JUMP JUMPDEST PUSH32 0x4E487B7100000000000000000000000000000000000000000000000000000000 PUSH0 MSTORE PUSH1 0x12 PUSH1 0x4 MSTORE PUSH1 0x24 PUSH0 REVERT JUMPDEST PUSH0 PUSH2 0xA51 DUP3 PUSH2 0x716 JUMP JUMPDEST SWAP2 POP PUSH2 0xA5C DUP4 PUSH2 0x716 JUMP JUMPDEST SWAP3 POP DUP3 PUSH2 0xA6C JUMPI PUSH2 0xA6B PUSH2 0xA1A JUMP JUMPDEST JUMPDEST DUP3 DUP3 MOD SWAP1 POP SWAP3 SWAP2 POP POP JUMP JUMPDEST PUSH32 0x4E487B7100000000000000000000000000000000000000000000000000000000 PUSH0 MSTORE PUSH1 0x11 PUSH1 0x4 MSTORE PUSH1 0x24 PUSH0 REVERT JUMPDEST PUSH0 PUSH2 0xAAE DUP3 PUSH2 0x716 JUMP JUMPDEST SWAP2 POP PUSH2 0xAB9 DUP4 PUSH2 0x716 JUMP JUMPDEST SWAP3 POP DUP3 DUP3 ADD SWAP1 POP DUP1 DUP3 GT ISZERO PUSH2 0xAD1 JUMPI PUSH2 0xAD0 PUSH2 0xA77 JUMP JUMPDEST JUMPDEST SWAP3 SWAP2 POP POP JUMP INVALID LOG2 PUSH5 0x6970667358 0x22 SLT KECCAK256 BYTE 0xD3 0xC6 LOG1 PUSH26 0xE4B527D6E1DC92D760B2BC2C33F49502F1EC271ACE45EEC11A83 PUSH16 0x64736F6C634300081400330000000000 "
				},
				"gasEstimates": {
					"creation": {
						"codeDepositCost": "565800",
						"executionCost": "infinite",
						"totalCost": "infinite"
					},
					"external": {
						"active()": "2490",
						"balls(uint64)": "infinite",
						"endSeason()": "347",
						"extractCode(uint256)": "infinite",
						"getCurrentSeansionId()": "2547",
						"getCurrentSeason()": "infinite",
						"issueBalls()": "376",
						"requestWinningBallId()": "397",
						"requestWinningCode()": "375",
						"revealGroupSeeds(uint256)": "infinite",
						"revealPending(uint256)": "6583",
						"seasons(uint256)": "infinite",
						"setSeasonWinningCode(uint256)": "infinite",
						"startSeason()": "infinite",
						"userBalls(address,uint256,uint256)": "infinite"
					}
				},
				"methodIdentifiers": {
					"active()": "02fb0c5e",
					"balls(uint64)": "63b6f065",
					"endSeason()": "3dcdb672",
					"extractCode(uint256)": "d6c38c7f",
					"getCurrentSeansionId()": "1821d77d",
					"getCurrentSeason()": "d3b30b75",
					"issueBalls()": "0bd8a117",
					"requestWinningBallId()": "c419857f",
					"requestWinningCode()": "4cd7184a",
					"revealGroupSeeds(uint256)": "b29e60ef",
					"revealPending(uint256)": "f2bdbc62",
					"seasons(uint256)": "f5d709a1",
					"setSeasonWinningCode(uint256)": "ad62b098",
					"startSeason()": "952a9633",
					"userBalls(address,uint256,uint256)": "f4225ee1"
				}
			},
			"storageLayout": {
				"storage": [
					{
						"astId": 160,
						"contract": "Lock.sol:LuckyBall",
						"label": "_ballIds",
						"offset": 0,
						"slot": "0",
						"type": "t_struct(Counter)5_storage"
					},
					{
						"astId": 163,
						"contract": "Lock.sol:LuckyBall",
						"label": "_seasonIds",
						"offset": 0,
						"slot": "1",
						"type": "t_struct(Counter)5_storage"
					},
					{
						"astId": 166,
						"contract": "Lock.sol:LuckyBall",
						"label": "_revealGroups",
						"offset": 0,
						"slot": "2",
						"type": "t_struct(Counter)5_storage"
					},
					{
						"astId": 169,
						"contract": "Lock.sol:LuckyBall",
						"label": "active",
						"offset": 0,
						"slot": "3",
						"type": "t_bool"
					},
					{
						"astId": 172,
						"contract": "Lock.sol:LuckyBall",
						"label": "revealPending",
						"offset": 0,
						"slot": "4",
						"type": "t_array(t_uint64)dyn_storage"
					},
					{
						"astId": 211,
						"contract": "Lock.sol:LuckyBall",
						"label": "seasons",
						"offset": 0,
						"slot": "5",
						"type": "t_mapping(t_uint256,t_struct(Season)183_storage)"
					},
					{
						"astId": 218,
						"contract": "Lock.sol:LuckyBall",
						"label": "userBalls",
						"offset": 0,
						"slot": "6",
						"type": "t_mapping(t_address,t_mapping(t_uint256,t_array(t_uint64)dyn_storage))"
					},
					{
						"astId": 222,
						"contract": "Lock.sol:LuckyBall",
						"label": "revealGroupSeeds",
						"offset": 0,
						"slot": "7",
						"type": "t_mapping(t_uint256,t_uint256)"
					},
					{
						"astId": 227,
						"contract": "Lock.sol:LuckyBall",
						"label": "balls",
						"offset": 0,
						"slot": "8",
						"type": "t_mapping(t_uint64,t_struct(Ball)192_storage)"
					}
				],
				"types": {
					"t_address": {
						"encoding": "inplace",
						"label": "address",
						"numberOfBytes": "20"
					},
					"t_array(t_uint64)dyn_storage": {
						"base": "t_uint64",
						"encoding": "dynamic_array",
						"label": "uint64[]",
						"numberOfBytes": "32"
					},
					"t_bool": {
						"encoding": "inplace",
						"label": "bool",
						"numberOfBytes": "1"
					},
					"t_mapping(t_address,t_mapping(t_uint256,t_array(t_uint64)dyn_storage))": {
						"encoding": "mapping",
						"key": "t_address",
						"label": "mapping(address => mapping(uint256 => uint64[]))",
						"numberOfBytes": "32",
						"value": "t_mapping(t_uint256,t_array(t_uint64)dyn_storage)"
					},
					"t_mapping(t_uint256,t_array(t_uint64)dyn_storage)": {
						"encoding": "mapping",
						"key": "t_uint256",
						"label": "mapping(uint256 => uint64[])",
						"numberOfBytes": "32",
						"value": "t_array(t_uint64)dyn_storage"
					},
					"t_mapping(t_uint256,t_struct(Season)183_storage)": {
						"encoding": "mapping",
						"key": "t_uint256",
						"label": "mapping(uint256 => struct LuckyBall.Season)",
						"numberOfBytes": "32",
						"value": "t_struct(Season)183_storage"
					},
					"t_mapping(t_uint256,t_uint256)": {
						"encoding": "mapping",
						"key": "t_uint256",
						"label": "mapping(uint256 => uint256)",
						"numberOfBytes": "32",
						"value": "t_uint256"
					},
					"t_mapping(t_uint64,t_struct(Ball)192_storage)": {
						"encoding": "mapping",
						"key": "t_uint64",
						"label": "mapping(uint64 => struct LuckyBall.Ball)",
						"numberOfBytes": "32",
						"value": "t_struct(Ball)192_storage"
					},
					"t_struct(Ball)192_storage": {
						"encoding": "inplace",
						"label": "struct LuckyBall.Ball",
						"members": [
							{
								"astId": 185,
								"contract": "Lock.sol:LuckyBall",
								"label": "ballId",
								"offset": 0,
								"slot": "0",
								"type": "t_uint64"
							},
							{
								"astId": 187,
								"contract": "Lock.sol:LuckyBall",
								"label": "owner",
								"offset": 8,
								"slot": "0",
								"type": "t_address"
							},
							{
								"astId": 189,
								"contract": "Lock.sol:LuckyBall",
								"label": "seasonId",
								"offset": 0,
								"slot": "1",
								"type": "t_uint256"
							},
							{
								"astId": 191,
								"contract": "Lock.sol:LuckyBall",
								"label": "revealGroup",
								"offset": 0,
								"slot": "2",
								"type": "t_uint256"
							}
						],
						"numberOfBytes": "96"
					},
					"t_struct(Counter)5_storage": {
						"encoding": "inplace",
						"label": "struct Counters.Counter",
						"members": [
							{
								"astId": 4,
								"contract": "Lock.sol:LuckyBall",
								"label": "_value",
								"offset": 0,
								"slot": "0",
								"type": "t_uint256"
							}
						],
						"numberOfBytes": "32"
					},
					"t_struct(Season)183_storage": {
						"encoding": "inplace",
						"label": "struct LuckyBall.Season",
						"members": [
							{
								"astId": 174,
								"contract": "Lock.sol:LuckyBall",
								"label": "seasonId",
								"offset": 0,
								"slot": "0",
								"type": "t_uint256"
							},
							{
								"astId": 176,
								"contract": "Lock.sol:LuckyBall",
								"label": "startBallId",
								"offset": 0,
								"slot": "1",
								"type": "t_uint64"
							},
							{
								"astId": 178,
								"contract": "Lock.sol:LuckyBall",
								"label": "endBallId",
								"offset": 8,
								"slot": "1",
								"type": "t_uint64"
							},
							{
								"astId": 180,
								"contract": "Lock.sol:LuckyBall",
								"label": "winningBallId",
								"offset": 16,
								"slot": "1",
								"type": "t_uint64"
							},
							{
								"astId": 182,
								"contract": "Lock.sol:LuckyBall",
								"label": "winningCode",
								"offset": 0,
								"slot": "2",
								"type": "t_uint256"
							}
						],
						"numberOfBytes": "96"
					},
					"t_uint256": {
						"encoding": "inplace",
						"label": "uint256",
						"numberOfBytes": "32"
					},
					"t_uint64": {
						"encoding": "inplace",
						"label": "uint64",
						"numberOfBytes": "8"
					}
				}
			},
			"userdoc": {
				"kind": "user",
				"methods": {},
				"version": 1
			}
		}
	}
}