{
	"LuckyBall_flattened.sol": {
		"LuckyBall": {
			"abi": [
				{
					"inputs": [
						{
							"internalType": "uint64",
							"name": "subscriptionId",
							"type": "uint64"
						},
						{
							"internalType": "address",
							"name": "vrfCoordinator",
							"type": "address"
						},
						{
							"internalType": "bytes32",
							"name": "keyHash",
							"type": "bytes32"
						}
					],
					"stateMutability": "nonpayable",
					"type": "constructor"
				},
				{
					"inputs": [
						{
							"internalType": "address",
							"name": "have",
							"type": "address"
						},
						{
							"internalType": "address",
							"name": "want",
							"type": "address"
						}
					],
					"name": "OnlyCoordinatorCanFulfill",
					"type": "error"
				},
				{
					"anonymous": false,
					"inputs": [
						{
							"indexed": false,
							"internalType": "uint256",
							"name": "seasonId",
							"type": "uint256"
						},
						{
							"indexed": true,
							"internalType": "address",
							"name": "recipient",
							"type": "address"
						},
						{
							"indexed": false,
							"internalType": "uint256",
							"name": "qty",
							"type": "uint256"
						},
						{
							"indexed": false,
							"internalType": "uint256",
							"name": "lastBallId",
							"type": "uint256"
						}
					],
					"name": "BallIssued",
					"type": "event"
				},
				{
					"anonymous": false,
					"inputs": [
						{
							"indexed": false,
							"internalType": "uint256",
							"name": "seasonId",
							"type": "uint256"
						},
						{
							"indexed": false,
							"internalType": "uint256",
							"name": "revealGroup",
							"type": "uint256"
						}
					],
					"name": "CodeSeedRevealed",
					"type": "event"
				},
				{
					"anonymous": false,
					"inputs": [
						{
							"indexed": false,
							"internalType": "uint256",
							"name": "seasonId",
							"type": "uint256"
						},
						{
							"indexed": true,
							"internalType": "address",
							"name": "requestor",
							"type": "address"
						}
					],
					"name": "RevealRequested",
					"type": "event"
				},
				{
					"anonymous": false,
					"inputs": [
						{
							"indexed": false,
							"internalType": "uint256",
							"name": "seasonId",
							"type": "uint256"
						}
					],
					"name": "SeasonEnded",
					"type": "event"
				},
				{
					"anonymous": false,
					"inputs": [
						{
							"indexed": false,
							"internalType": "uint256",
							"name": "seasonId",
							"type": "uint256"
						}
					],
					"name": "SeasonStarted",
					"type": "event"
				},
				{
					"anonymous": false,
					"inputs": [
						{
							"indexed": true,
							"internalType": "uint256",
							"name": "seasonId",
							"type": "uint256"
						},
						{
							"indexed": false,
							"internalType": "uint256",
							"name": "ballId",
							"type": "uint256"
						}
					],
					"name": "WinnerPicked",
					"type": "event"
				},
				{
					"inputs": [],
					"name": "DOMAIN_SEPARATOR",
					"outputs": [
						{
							"internalType": "bytes32",
							"name": "",
							"type": "bytes32"
						}
					],
					"stateMutability": "view",
					"type": "function"
				},
				{
					"inputs": [
						{
							"internalType": "uint256",
							"name": "",
							"type": "uint256"
						}
					],
					"name": "addrGroups",
					"outputs": [
						{
							"internalType": "address",
							"name": "",
							"type": "address"
						}
					],
					"stateMutability": "view",
					"type": "function"
				},
				{
					"inputs": [],
					"name": "ballCount",
					"outputs": [
						{
							"internalType": "uint256",
							"name": "",
							"type": "uint256"
						}
					],
					"stateMutability": "view",
					"type": "function"
				},
				{
					"inputs": [
						{
							"internalType": "uint256",
							"name": "",
							"type": "uint256"
						}
					],
					"name": "ballGroups",
					"outputs": [
						{
							"internalType": "uint256",
							"name": "",
							"type": "uint256"
						}
					],
					"stateMutability": "view",
					"type": "function"
				},
				{
					"inputs": [],
					"name": "endSeason",
					"outputs": [
						{
							"internalType": "bool",
							"name": "",
							"type": "bool"
						}
					],
					"stateMutability": "nonpayable",
					"type": "function"
				},
				{
					"inputs": [
						{
							"internalType": "uint256",
							"name": "ballId",
							"type": "uint256"
						}
					],
					"name": "getBallCode",
					"outputs": [
						{
							"internalType": "uint256",
							"name": "",
							"type": "uint256"
						}
					],
					"stateMutability": "view",
					"type": "function"
				},
				{
					"inputs": [
						{
							"internalType": "uint256",
							"name": "ballId",
							"type": "uint256"
						}
					],
					"name": "getBallGroupPos",
					"outputs": [
						{
							"internalType": "uint256",
							"name": "",
							"type": "uint256"
						}
					],
					"stateMutability": "view",
					"type": "function"
				},
				{
					"inputs": [],
					"name": "getBalls",
					"outputs": [
						{
							"internalType": "uint256[]",
							"name": "",
							"type": "uint256[]"
						}
					],
					"stateMutability": "view",
					"type": "function"
				},
				{
					"inputs": [
						{
							"internalType": "address",
							"name": "addr",
							"type": "address"
						},
						{
							"internalType": "uint256",
							"name": "seasonId",
							"type": "uint256"
						}
					],
					"name": "getBalls",
					"outputs": [
						{
							"internalType": "uint256[]",
							"name": "",
							"type": "uint256[]"
						}
					],
					"stateMutability": "view",
					"type": "function"
				},
				{
					"inputs": [],
					"name": "getCurrentBallGroupPos",
					"outputs": [
						{
							"internalType": "uint256",
							"name": "",
							"type": "uint256"
						}
					],
					"stateMutability": "view",
					"type": "function"
				},
				{
					"inputs": [],
					"name": "getCurrentRevealGroupId",
					"outputs": [
						{
							"internalType": "uint256",
							"name": "",
							"type": "uint256"
						}
					],
					"stateMutability": "view",
					"type": "function"
				},
				{
					"inputs": [],
					"name": "getCurrentSeasionId",
					"outputs": [
						{
							"internalType": "uint256",
							"name": "",
							"type": "uint256"
						}
					],
					"stateMutability": "view",
					"type": "function"
				},
				{
					"inputs": [],
					"name": "getDomainInfo",
					"outputs": [
						{
							"internalType": "string",
							"name": "",
							"type": "string"
						},
						{
							"internalType": "string",
							"name": "",
							"type": "string"
						},
						{
							"internalType": "uint256",
							"name": "",
							"type": "uint256"
						},
						{
							"internalType": "address",
							"name": "",
							"type": "address"
						}
					],
					"stateMutability": "view",
					"type": "function"
				},
				{
					"inputs": [
						{
							"internalType": "address",
							"name": "_user",
							"type": "address"
						},
						{
							"internalType": "uint256",
							"name": "_deadline",
							"type": "uint256"
						},
						{
							"internalType": "uint256",
							"name": "_nonce",
							"type": "uint256"
						}
					],
					"name": "getEIP712Hash",
					"outputs": [
						{
							"internalType": "bytes32",
							"name": "",
							"type": "bytes32"
						}
					],
					"stateMutability": "view",
					"type": "function"
				},
				{
					"inputs": [],
					"name": "getOperator",
					"outputs": [
						{
							"internalType": "address",
							"name": "",
							"type": "address"
						}
					],
					"stateMutability": "view",
					"type": "function"
				},
				{
					"inputs": [],
					"name": "getRelayMessageTypes",
					"outputs": [
						{
							"internalType": "string",
							"name": "",
							"type": "string"
						}
					],
					"stateMutability": "pure",
					"type": "function"
				},
				{
					"inputs": [
						{
							"internalType": "uint256",
							"name": "ballId",
							"type": "uint256"
						}
					],
					"name": "getRevealGroup",
					"outputs": [
						{
							"internalType": "uint256",
							"name": "",
							"type": "uint256"
						}
					],
					"stateMutability": "view",
					"type": "function"
				},
				{
					"inputs": [
						{
							"internalType": "address",
							"name": "addr",
							"type": "address"
						},
						{
							"internalType": "uint256",
							"name": "seasonId",
							"type": "uint256"
						}
					],
					"name": "getUserBallGroups",
					"outputs": [
						{
							"internalType": "uint256[]",
							"name": "",
							"type": "uint256[]"
						}
					],
					"stateMutability": "view",
					"type": "function"
				},
				{
					"inputs": [],
					"name": "isSeasonActive",
					"outputs": [
						{
							"internalType": "bool",
							"name": "",
							"type": "bool"
						}
					],
					"stateMutability": "view",
					"type": "function"
				},
				{
					"inputs": [
						{
							"internalType": "address[]",
							"name": "_tos",
							"type": "address[]"
						},
						{
							"internalType": "uint256[]",
							"name": "_qty",
							"type": "uint256[]"
						}
					],
					"name": "issueBalls",
					"outputs": [
						{
							"internalType": "bool",
							"name": "",
							"type": "bool"
						}
					],
					"stateMutability": "nonpayable",
					"type": "function"
				},
				{
					"inputs": [],
					"name": "lastRequestId",
					"outputs": [
						{
							"internalType": "uint256",
							"name": "",
							"type": "uint256"
						}
					],
					"stateMutability": "view",
					"type": "function"
				},
				{
					"inputs": [
						{
							"internalType": "address",
							"name": "",
							"type": "address"
						}
					],
					"name": "newRevealPos",
					"outputs": [
						{
							"internalType": "uint256",
							"name": "",
							"type": "uint256"
						}
					],
					"stateMutability": "view",
					"type": "function"
				},
				{
					"inputs": [
						{
							"internalType": "address",
							"name": "user",
							"type": "address"
						}
					],
					"name": "nonces",
					"outputs": [
						{
							"internalType": "uint256",
							"name": "",
							"type": "uint256"
						}
					],
					"stateMutability": "view",
					"type": "function"
				},
				{
					"inputs": [
						{
							"internalType": "uint256",
							"name": "ballId",
							"type": "uint256"
						}
					],
					"name": "ownerOf",
					"outputs": [
						{
							"internalType": "address",
							"name": "",
							"type": "address"
						}
					],
					"stateMutability": "view",
					"type": "function"
				},
				{
					"inputs": [
						{
							"internalType": "uint256",
							"name": "requestId",
							"type": "uint256"
						},
						{
							"internalType": "uint256[]",
							"name": "randomWords",
							"type": "uint256[]"
						}
					],
					"name": "rawFulfillRandomWords",
					"outputs": [],
					"stateMutability": "nonpayable",
					"type": "function"
				},
				{
					"inputs": [
						{
							"internalType": "address",
							"name": "user",
							"type": "address"
						},
						{
							"internalType": "uint256",
							"name": "deadline",
							"type": "uint256"
						},
						{
							"internalType": "uint8",
							"name": "v",
							"type": "uint8"
						},
						{
							"internalType": "bytes32",
							"name": "r",
							"type": "bytes32"
						},
						{
							"internalType": "bytes32",
							"name": "s",
							"type": "bytes32"
						}
					],
					"name": "relayRequestReveal",
					"outputs": [
						{
							"internalType": "bool",
							"name": "",
							"type": "bool"
						}
					],
					"stateMutability": "nonpayable",
					"type": "function"
				},
				{
					"inputs": [
						{
							"internalType": "address[]",
							"name": "users",
							"type": "address[]"
						},
						{
							"internalType": "uint256[]",
							"name": "deadlines",
							"type": "uint256[]"
						},
						{
							"internalType": "uint8[]",
							"name": "vs",
							"type": "uint8[]"
						},
						{
							"internalType": "bytes32[]",
							"name": "rs",
							"type": "bytes32[]"
						},
						{
							"internalType": "bytes32[]",
							"name": "ss",
							"type": "bytes32[]"
						}
					],
					"name": "relayRequestRevealBatch",
					"outputs": [
						{
							"internalType": "bool",
							"name": "",
							"type": "bool"
						}
					],
					"stateMutability": "nonpayable",
					"type": "function"
				},
				{
					"inputs": [],
					"name": "requestReveal",
					"outputs": [
						{
							"internalType": "bool",
							"name": "",
							"type": "bool"
						}
					],
					"stateMutability": "nonpayable",
					"type": "function"
				},
				{
					"inputs": [],
					"name": "requestRevealGroupSeed",
					"outputs": [
						{
							"internalType": "uint256",
							"name": "",
							"type": "uint256"
						}
					],
					"stateMutability": "nonpayable",
					"type": "function"
				},
				{
					"inputs": [
						{
							"internalType": "uint256",
							"name": "",
							"type": "uint256"
						}
					],
					"name": "revealGroupSeeds",
					"outputs": [
						{
							"internalType": "uint256",
							"name": "",
							"type": "uint256"
						}
					],
					"stateMutability": "view",
					"type": "function"
				},
				{
					"inputs": [
						{
							"internalType": "uint256",
							"name": "",
							"type": "uint256"
						}
					],
					"name": "revealGroups",
					"outputs": [
						{
							"internalType": "uint256",
							"name": "",
							"type": "uint256"
						}
					],
					"stateMutability": "view",
					"type": "function"
				},
				{
					"inputs": [],
					"name": "revealNeeded",
					"outputs": [
						{
							"internalType": "bool",
							"name": "",
							"type": "bool"
						}
					],
					"stateMutability": "view",
					"type": "function"
				},
				{
					"inputs": [
						{
							"internalType": "uint256",
							"name": "",
							"type": "uint256"
						}
					],
					"name": "s_requests",
					"outputs": [
						{
							"internalType": "bool",
							"name": "exists",
							"type": "bool"
						},
						{
							"internalType": "bool",
							"name": "isSeasonPick",
							"type": "bool"
						},
						{
							"internalType": "uint256",
							"name": "seed",
							"type": "uint256"
						}
					],
					"stateMutability": "view",
					"type": "function"
				},
				{
					"inputs": [
						{
							"internalType": "uint256",
							"name": "",
							"type": "uint256"
						}
					],
					"name": "seasons",
					"outputs": [
						{
							"internalType": "uint256",
							"name": "seasonId",
							"type": "uint256"
						},
						{
							"internalType": "uint256",
							"name": "startBallId",
							"type": "uint256"
						},
						{
							"internalType": "uint256",
							"name": "endBallId",
							"type": "uint256"
						},
						{
							"internalType": "uint256",
							"name": "winningBallId",
							"type": "uint256"
						},
						{
							"internalType": "uint256",
							"name": "winningCode",
							"type": "uint256"
						}
					],
					"stateMutability": "view",
					"type": "function"
				},
				{
					"inputs": [
						{
							"internalType": "address",
							"name": "_newOperator",
							"type": "address"
						}
					],
					"name": "setOperator",
					"outputs": [
						{
							"internalType": "bool",
							"name": "",
							"type": "bool"
						}
					],
					"stateMutability": "nonpayable",
					"type": "function"
				},
				{
					"inputs": [],
					"name": "startSeason",
					"outputs": [
						{
							"internalType": "uint256",
							"name": "",
							"type": "uint256"
						}
					],
					"stateMutability": "nonpayable",
					"type": "function"
				},
				{
					"inputs": [
						{
							"internalType": "address",
							"name": "",
							"type": "address"
						},
						{
							"internalType": "uint256",
							"name": "",
							"type": "uint256"
						}
					],
					"name": "userBallCounts",
					"outputs": [
						{
							"internalType": "uint256",
							"name": "",
							"type": "uint256"
						}
					],
					"stateMutability": "view",
					"type": "function"
				},
				{
					"inputs": [
						{
							"internalType": "address",
							"name": "",
							"type": "address"
						},
						{
							"internalType": "uint256",
							"name": "",
							"type": "uint256"
						},
						{
							"internalType": "uint256",
							"name": "",
							"type": "uint256"
						}
					],
					"name": "userBallGroups",
					"outputs": [
						{
							"internalType": "uint256",
							"name": "",
							"type": "uint256"
						}
					],
					"stateMutability": "view",
					"type": "function"
				},
				{
					"inputs": [
						{
							"internalType": "address",
							"name": "_user",
							"type": "address"
						},
						{
							"internalType": "uint256",
							"name": "_deadline",
							"type": "uint256"
						},
						{
							"internalType": "uint256",
							"name": "_nonce",
							"type": "uint256"
						},
						{
							"internalType": "uint8",
							"name": "v",
							"type": "uint8"
						},
						{
							"internalType": "bytes32",
							"name": "r",
							"type": "bytes32"
						},
						{
							"internalType": "bytes32",
							"name": "s",
							"type": "bytes32"
						}
					],
					"name": "verifySig",
					"outputs": [
						{
							"internalType": "bool",
							"name": "",
							"type": "bool"
						}
					],
					"stateMutability": "view",
					"type": "function"
				}
			],
			"devdoc": {
				"kind": "dev",
				"methods": {},
				"version": 1
			},
			"evm": {
				"assembly": "    /* \"LuckyBall_flattened.sol\":12128:26817  contract LuckyBall is VRFConsumerBaseV2{... */\n  mstore(0x40, 0x0100)\n    /* \"LuckyBall_flattened.sol\":14626:15037  constructor(... */\n  callvalue\n  dup1\n  iszero\n  tag_1\n  jumpi\n  0x00\n  dup1\n  revert\ntag_1:\n  pop\n  mload(0x40)\n  sub(codesize, bytecodeSize)\n  dup1\n  bytecodeSize\n  dup4\n  codecopy\n  dup2\n  dup2\n  add\n  0x40\n  mstore\n  dup2\n  add\n  swap1\n  tag_2\n  swap2\n  swap1\n  tag_3\n  jump\t// in\ntag_2:\n    /* \"LuckyBall_flattened.sol\":14750:14764  vrfCoordinator */\n  dup2\n    /* \"LuckyBall_flattened.sol\":5648:5663  _vrfCoordinator */\n  dup1\n    /* \"LuckyBall_flattened.sol\":5631:5663  vrfCoordinator = _vrfCoordinator */\n  0xffffffffffffffffffffffffffffffffffffffff\n  and\n  0x80\n  dup2\n  0xffffffffffffffffffffffffffffffffffffffff\n  and\n  dup2\n  mstore\n  pop\n  pop\n    /* \"LuckyBall_flattened.sol\":5588:5668  constructor(address _vrfCoordinator) {... */\n  pop\n    /* \"LuckyBall_flattened.sol\":14816:14830  vrfCoordinator */\n  dup2\n    /* \"LuckyBall_flattened.sol\":14776:14831  COORDINATOR = VRFCoordinatorV2Interface(vrfCoordinator) */\n  0xffffffffffffffffffffffffffffffffffffffff\n  and\n  0xa0\n  dup2\n  0xffffffffffffffffffffffffffffffffffffffff\n  and\n  dup2\n  mstore\n  pop\n  pop\n    /* \"LuckyBall_flattened.sol\":14853:14860  keyHash */\n  dup1\n    /* \"LuckyBall_flattened.sol\":14841:14860  s_keyHash = keyHash */\n  0xe0\n  dup2\n  dup2\n  mstore\n  pop\n  pop\n    /* \"LuckyBall_flattened.sol\":14889:14903  subscriptionId */\n  dup3\n    /* \"LuckyBall_flattened.sol\":14870:14903  s_subscriptionId = subscriptionId */\n  0xffffffffffffffff\n  and\n  0xc0\n  dup2\n  0xffffffffffffffff\n  and\n  dup2\n  mstore\n  pop\n  pop\n    /* \"LuckyBall_flattened.sol\":14913:14927  _revealGroupId */\n  0x02\n  0x00\n    /* \"LuckyBall_flattened.sol\":14913:14929  _revealGroupId++ */\n  dup2\n  sload\n  dup1\n  swap3\n  swap2\n  swap1\n  tag_8\n  swap1\n  tag_9\n  jump\t// in\ntag_8:\n  swap2\n  swap1\n  pop\n  sstore\n  pop\n    /* \"LuckyBall_flattened.sol\":14948:14958  msg.sender */\n  caller\n    /* \"LuckyBall_flattened.sol\":14939:14945  _owner */\n  0x03\n  0x00\n    /* \"LuckyBall_flattened.sol\":14939:14958  _owner = msg.sender */\n  0x0100\n  exp\n  dup2\n  sload\n  dup2\n  0xffffffffffffffffffffffffffffffffffffffff\n  mul\n  not\n  and\n  swap1\n  dup4\n  0xffffffffffffffffffffffffffffffffffffffff\n  and\n  mul\n  or\n  swap1\n  sstore\n  pop\n    /* \"LuckyBall_flattened.sol\":14980:14990  msg.sender */\n  caller\n    /* \"LuckyBall_flattened.sol\":14968:14977  _operator */\n  0x04\n  0x00\n    /* \"LuckyBall_flattened.sol\":14968:14990  _operator = msg.sender */\n  0x0100\n  exp\n  dup2\n  sload\n  dup2\n  0xffffffffffffffffffffffffffffffffffffffff\n  mul\n  not\n  and\n  swap1\n  dup4\n  0xffffffffffffffffffffffffffffffffffffffff\n  and\n  mul\n  or\n  swap1\n  sstore\n  pop\n    /* \"LuckyBall_flattened.sol\":15000:15021  _setDomainSeparator() */\n  tag_10\n    /* \"LuckyBall_flattened.sol\":15000:15019  _setDomainSeparator */\n  shl(0x20, tag_11)\n    /* \"LuckyBall_flattened.sol\":15000:15021  _setDomainSeparator() */\n  0x20\n  shr\n  jump\t// in\ntag_10:\n    /* \"LuckyBall_flattened.sol\":14626:15037  constructor(... */\n  pop\n  pop\n  pop\n    /* \"LuckyBall_flattened.sol\":12128:26817  contract LuckyBall is VRFConsumerBaseV2{... */\n  jump(tag_12)\n    /* \"LuckyBall_flattened.sol\":15720:16326  function _setDomainSeparator() internal {... */\ntag_11:\n    /* \"LuckyBall_flattened.sol\":15770:15802  string memory EIP712_DOMAIN_TYPE */\n  0x00\n    /* \"LuckyBall_flattened.sol\":15770:15889  string memory EIP712_DOMAIN_TYPE = \"EIP712Domain(string name,string version,uint256 chainId,address verifyingContract)\" */\n  mload(0x40)\n  dup1\n  0x80\n  add\n  0x40\n  mstore\n  dup1\n  0x52\n  dup2\n  mstore\n  0x20\n  add\n  data_8b73c3c69bb8fe3d512ecc4cf759cc79239f7b179b0ffacaa9a75d522b39400f\n  0x52\n  swap2\n  codecopy\n  swap1\n  pop\n    /* \"LuckyBall_flattened.sol\":15901:15919  string memory name */\n  0x00\n    /* \"LuckyBall_flattened.sol\":15921:15942  string memory version */\n  dup1\n    /* \"LuckyBall_flattened.sol\":15944:15956  uint chainId */\n  0x00\n    /* \"LuckyBall_flattened.sol\":15958:15983  address verifyingContract */\n  dup1\n    /* \"LuckyBall_flattened.sol\":15988:16003  getDomainInfo() */\n  tag_14\n    /* \"LuckyBall_flattened.sol\":15988:16001  getDomainInfo */\n  shl(0x20, tag_15)\n    /* \"LuckyBall_flattened.sol\":15988:16003  getDomainInfo() */\n  0x20\n  shr\n  jump\t// in\ntag_14:\n    /* \"LuckyBall_flattened.sol\":15899:16003  ( string memory name, string memory version, uint chainId, address verifyingContract ) = getDomainInfo() */\n  swap4\n  pop\n  swap4\n  pop\n  swap4\n  pop\n  swap4\n  pop\n    /* \"LuckyBall_flattened.sol\":16110:16128  EIP712_DOMAIN_TYPE */\n  dup5\n    /* \"LuckyBall_flattened.sol\":16093:16129  abi.encodePacked(EIP712_DOMAIN_TYPE) */\n  add(0x20, mload(0x40))\n  tag_16\n  swap2\n  swap1\n  tag_17\n  jump\t// in\ntag_16:\n  mload(0x40)\n  0x20\n  dup2\n  dup4\n  sub\n  sub\n  dup2\n  mstore\n  swap1\n  0x40\n  mstore\n    /* \"LuckyBall_flattened.sol\":16083:16130  keccak256(abi.encodePacked(EIP712_DOMAIN_TYPE)) */\n  dup1\n  mload\n  swap1\n  0x20\n  add\n  keccak256\n    /* \"LuckyBall_flattened.sol\":16175:16179  name */\n  dup5\n    /* \"LuckyBall_flattened.sol\":16158:16180  abi.encodePacked(name) */\n  add(0x20, mload(0x40))\n  tag_18\n  swap2\n  swap1\n  tag_17\n  jump\t// in\ntag_18:\n  mload(0x40)\n  0x20\n  dup2\n  dup4\n  sub\n  sub\n  dup2\n  mstore\n  swap1\n  0x40\n  mstore\n    /* \"LuckyBall_flattened.sol\":16148:16181  keccak256(abi.encodePacked(name)) */\n  dup1\n  mload\n  swap1\n  0x20\n  add\n  keccak256\n    /* \"LuckyBall_flattened.sol\":16226:16233  version */\n  dup5\n    /* \"LuckyBall_flattened.sol\":16209:16234  abi.encodePacked(version) */\n  add(0x20, mload(0x40))\n  tag_19\n  swap2\n  swap1\n  tag_17\n  jump\t// in\ntag_19:\n  mload(0x40)\n  0x20\n  dup2\n  dup4\n  sub\n  sub\n  dup2\n  mstore\n  swap1\n  0x40\n  mstore\n    /* \"LuckyBall_flattened.sol\":16199:16235  keccak256(abi.encodePacked(version)) */\n  dup1\n  mload\n  swap1\n  0x20\n  add\n  keccak256\n    /* \"LuckyBall_flattened.sol\":16253:16260  chainId */\n  dup5\n    /* \"LuckyBall_flattened.sol\":16278:16295  verifyingContract */\n  dup5\n    /* \"LuckyBall_flattened.sol\":16055:16309  abi.encode(... */\n  add(0x20, mload(0x40))\n  tag_20\n  swap6\n  swap5\n  swap4\n  swap3\n  swap2\n  swap1\n  tag_21\n  jump\t// in\ntag_20:\n  mload(0x40)\n  0x20\n  dup2\n  dup4\n  sub\n  sub\n  dup2\n  mstore\n  swap1\n  0x40\n  mstore\n    /* \"LuckyBall_flattened.sol\":16032:16319  keccak256(... */\n  dup1\n  mload\n  swap1\n  0x20\n  add\n  keccak256\n    /* \"LuckyBall_flattened.sol\":16013:16029  DOMAIN_SEPARATOR */\n  0x0b\n    /* \"LuckyBall_flattened.sol\":16013:16319  DOMAIN_SEPARATOR = keccak256(... */\n  dup2\n  swap1\n  sstore\n  pop\n    /* \"LuckyBall_flattened.sol\":15760:16326  {... */\n  pop\n  pop\n  pop\n  pop\n  pop\n    /* \"LuckyBall_flattened.sol\":15720:16326  function _setDomainSeparator() internal {... */\n  jump\t// out\n    /* \"LuckyBall_flattened.sol\":15184:15516  function getDomainInfo() public view returns (string memory, string memory, uint, address) {... */\ntag_15:\n    /* \"LuckyBall_flattened.sol\":15230:15243  string memory */\n  0x60\n    /* \"LuckyBall_flattened.sol\":15245:15258  string memory */\n  dup1\n    /* \"LuckyBall_flattened.sol\":15260:15264  uint */\n  0x00\n    /* \"LuckyBall_flattened.sol\":15266:15273  address */\n  dup1\n    /* \"LuckyBall_flattened.sol\":15285:15303  string memory name */\n  0x00\n    /* \"LuckyBall_flattened.sol\":15285:15323  string memory name = \"LuckyBall_Relay\" */\n  mload(0x40)\n  dup1\n  0x40\n  add\n  0x40\n  mstore\n  dup1\n  0x0f\n  dup2\n  mstore\n  0x20\n  add\n  0x4c75636b7942616c6c5f52656c61790000000000000000000000000000000000\n  dup2\n  mstore\n  pop\n  swap1\n  pop\n    /* \"LuckyBall_flattened.sol\":15333:15354  string memory version */\n  0x00\n    /* \"LuckyBall_flattened.sol\":15333:15360  string memory version = \"1\" */\n  mload(0x40)\n  dup1\n  0x40\n  add\n  0x40\n  mstore\n  dup1\n  0x01\n  dup2\n  mstore\n  0x20\n  add\n  0x3100000000000000000000000000000000000000000000000000000000000000\n  dup2\n  mstore\n  pop\n  swap1\n  pop\n    /* \"LuckyBall_flattened.sol\":15370:15382  uint chainId */\n  0x00\n    /* \"LuckyBall_flattened.sol\":15385:15398  block.chainid */\n  chainid\n    /* \"LuckyBall_flattened.sol\":15370:15398  uint chainId = block.chainid */\n  swap1\n  pop\n    /* \"LuckyBall_flattened.sol\":15408:15433  address verifyingContract */\n  0x00\n    /* \"LuckyBall_flattened.sol\":15444:15448  this */\n  address\n    /* \"LuckyBall_flattened.sol\":15408:15449  address verifyingContract = address(this) */\n  swap1\n  pop\n    /* \"LuckyBall_flattened.sol\":15467:15471  name */\n  dup4\n    /* \"LuckyBall_flattened.sol\":15473:15480  version */\n  dup4\n    /* \"LuckyBall_flattened.sol\":15482:15489  chainId */\n  dup4\n    /* \"LuckyBall_flattened.sol\":15491:15508  verifyingContract */\n  dup4\n    /* \"LuckyBall_flattened.sol\":15459:15509  return (name, version, chainId, verifyingContract) */\n  swap8\n  pop\n  swap8\n  pop\n  swap8\n  pop\n  swap8\n  pop\n  pop\n  pop\n  pop\n  pop\n    /* \"LuckyBall_flattened.sol\":15184:15516  function getDomainInfo() public view returns (string memory, string memory, uint, address) {... */\n  swap1\n  swap2\n  swap3\n  swap4\n  jump\t// out\n    /* \"#utility.yul\":88:205   */\ntag_24:\n    /* \"#utility.yul\":197:198   */\n  0x00\n    /* \"#utility.yul\":194:195   */\n  dup1\n    /* \"#utility.yul\":187:199   */\n  revert\n    /* \"#utility.yul\":334:435   */\ntag_26:\n    /* \"#utility.yul\":370:377   */\n  0x00\n    /* \"#utility.yul\":410:428   */\n  0xffffffffffffffff\n    /* \"#utility.yul\":403:408   */\n  dup3\n    /* \"#utility.yul\":399:429   */\n  and\n    /* \"#utility.yul\":388:429   */\n  swap1\n  pop\n    /* \"#utility.yul\":334:435   */\n  swap2\n  swap1\n  pop\n  jump\t// out\n    /* \"#utility.yul\":441:561   */\ntag_27:\n    /* \"#utility.yul\":513:536   */\n  tag_51\n    /* \"#utility.yul\":530:535   */\n  dup2\n    /* \"#utility.yul\":513:536   */\n  tag_26\n  jump\t// in\ntag_51:\n    /* \"#utility.yul\":506:511   */\n  dup2\n    /* \"#utility.yul\":503:537   */\n  eq\n    /* \"#utility.yul\":493:555   */\n  tag_52\n  jumpi\n    /* \"#utility.yul\":551:552   */\n  0x00\n    /* \"#utility.yul\":548:549   */\n  dup1\n    /* \"#utility.yul\":541:553   */\n  revert\n    /* \"#utility.yul\":493:555   */\ntag_52:\n    /* \"#utility.yul\":441:561   */\n  pop\n  jump\t// out\n    /* \"#utility.yul\":567:708   */\ntag_28:\n    /* \"#utility.yul\":623:628   */\n  0x00\n    /* \"#utility.yul\":654:660   */\n  dup2\n    /* \"#utility.yul\":648:661   */\n  mload\n    /* \"#utility.yul\":639:661   */\n  swap1\n  pop\n    /* \"#utility.yul\":670:702   */\n  tag_54\n    /* \"#utility.yul\":696:701   */\n  dup2\n    /* \"#utility.yul\":670:702   */\n  tag_27\n  jump\t// in\ntag_54:\n    /* \"#utility.yul\":567:708   */\n  swap3\n  swap2\n  pop\n  pop\n  jump\t// out\n    /* \"#utility.yul\":714:840   */\ntag_29:\n    /* \"#utility.yul\":751:758   */\n  0x00\n    /* \"#utility.yul\":791:833   */\n  0xffffffffffffffffffffffffffffffffffffffff\n    /* \"#utility.yul\":784:789   */\n  dup3\n    /* \"#utility.yul\":780:834   */\n  and\n    /* \"#utility.yul\":769:834   */\n  swap1\n  pop\n    /* \"#utility.yul\":714:840   */\n  swap2\n  swap1\n  pop\n  jump\t// out\n    /* \"#utility.yul\":846:942   */\ntag_30:\n    /* \"#utility.yul\":883:890   */\n  0x00\n    /* \"#utility.yul\":912:936   */\n  tag_57\n    /* \"#utility.yul\":930:935   */\n  dup3\n    /* \"#utility.yul\":912:936   */\n  tag_29\n  jump\t// in\ntag_57:\n    /* \"#utility.yul\":901:936   */\n  swap1\n  pop\n    /* \"#utility.yul\":846:942   */\n  swap2\n  swap1\n  pop\n  jump\t// out\n    /* \"#utility.yul\":948:1070   */\ntag_31:\n    /* \"#utility.yul\":1021:1045   */\n  tag_59\n    /* \"#utility.yul\":1039:1044   */\n  dup2\n    /* \"#utility.yul\":1021:1045   */\n  tag_30\n  jump\t// in\ntag_59:\n    /* \"#utility.yul\":1014:1019   */\n  dup2\n    /* \"#utility.yul\":1011:1046   */\n  eq\n    /* \"#utility.yul\":1001:1064   */\n  tag_60\n  jumpi\n    /* \"#utility.yul\":1060:1061   */\n  0x00\n    /* \"#utility.yul\":1057:1058   */\n  dup1\n    /* \"#utility.yul\":1050:1062   */\n  revert\n    /* \"#utility.yul\":1001:1064   */\ntag_60:\n    /* \"#utility.yul\":948:1070   */\n  pop\n  jump\t// out\n    /* \"#utility.yul\":1076:1219   */\ntag_32:\n    /* \"#utility.yul\":1133:1138   */\n  0x00\n    /* \"#utility.yul\":1164:1170   */\n  dup2\n    /* \"#utility.yul\":1158:1171   */\n  mload\n    /* \"#utility.yul\":1149:1171   */\n  swap1\n  pop\n    /* \"#utility.yul\":1180:1213   */\n  tag_62\n    /* \"#utility.yul\":1207:1212   */\n  dup2\n    /* \"#utility.yul\":1180:1213   */\n  tag_31\n  jump\t// in\ntag_62:\n    /* \"#utility.yul\":1076:1219   */\n  swap3\n  swap2\n  pop\n  pop\n  jump\t// out\n    /* \"#utility.yul\":1225:1302   */\ntag_33:\n    /* \"#utility.yul\":1262:1269   */\n  0x00\n    /* \"#utility.yul\":1291:1296   */\n  dup2\n    /* \"#utility.yul\":1280:1296   */\n  swap1\n  pop\n    /* \"#utility.yul\":1225:1302   */\n  swap2\n  swap1\n  pop\n  jump\t// out\n    /* \"#utility.yul\":1308:1430   */\ntag_34:\n    /* \"#utility.yul\":1381:1405   */\n  tag_65\n    /* \"#utility.yul\":1399:1404   */\n  dup2\n    /* \"#utility.yul\":1381:1405   */\n  tag_33\n  jump\t// in\ntag_65:\n    /* \"#utility.yul\":1374:1379   */\n  dup2\n    /* \"#utility.yul\":1371:1406   */\n  eq\n    /* \"#utility.yul\":1361:1424   */\n  tag_66\n  jumpi\n    /* \"#utility.yul\":1420:1421   */\n  0x00\n    /* \"#utility.yul\":1417:1418   */\n  dup1\n    /* \"#utility.yul\":1410:1422   */\n  revert\n    /* \"#utility.yul\":1361:1424   */\ntag_66:\n    /* \"#utility.yul\":1308:1430   */\n  pop\n  jump\t// out\n    /* \"#utility.yul\":1436:1579   */\ntag_35:\n    /* \"#utility.yul\":1493:1498   */\n  0x00\n    /* \"#utility.yul\":1524:1530   */\n  dup2\n    /* \"#utility.yul\":1518:1531   */\n  mload\n    /* \"#utility.yul\":1509:1531   */\n  swap1\n  pop\n    /* \"#utility.yul\":1540:1573   */\n  tag_68\n    /* \"#utility.yul\":1567:1572   */\n  dup2\n    /* \"#utility.yul\":1540:1573   */\n  tag_34\n  jump\t// in\ntag_68:\n    /* \"#utility.yul\":1436:1579   */\n  swap3\n  swap2\n  pop\n  pop\n  jump\t// out\n    /* \"#utility.yul\":1585:2246   */\ntag_3:\n    /* \"#utility.yul\":1672:1678   */\n  0x00\n    /* \"#utility.yul\":1680:1686   */\n  dup1\n    /* \"#utility.yul\":1688:1694   */\n  0x00\n    /* \"#utility.yul\":1737:1739   */\n  0x60\n    /* \"#utility.yul\":1725:1734   */\n  dup5\n    /* \"#utility.yul\":1716:1723   */\n  dup7\n    /* \"#utility.yul\":1712:1735   */\n  sub\n    /* \"#utility.yul\":1708:1740   */\n  slt\n    /* \"#utility.yul\":1705:1824   */\n  iszero\n  tag_70\n  jumpi\n    /* \"#utility.yul\":1743:1822   */\n  tag_71\n  tag_24\n  jump\t// in\ntag_71:\n    /* \"#utility.yul\":1705:1824   */\ntag_70:\n    /* \"#utility.yul\":1863:1864   */\n  0x00\n    /* \"#utility.yul\":1888:1951   */\n  tag_72\n    /* \"#utility.yul\":1943:1950   */\n  dup7\n    /* \"#utility.yul\":1934:1940   */\n  dup3\n    /* \"#utility.yul\":1923:1932   */\n  dup8\n    /* \"#utility.yul\":1919:1941   */\n  add\n    /* \"#utility.yul\":1888:1951   */\n  tag_28\n  jump\t// in\ntag_72:\n    /* \"#utility.yul\":1878:1951   */\n  swap4\n  pop\n    /* \"#utility.yul\":1834:1961   */\n  pop\n    /* \"#utility.yul\":2000:2002   */\n  0x20\n    /* \"#utility.yul\":2026:2090   */\n  tag_73\n    /* \"#utility.yul\":2082:2089   */\n  dup7\n    /* \"#utility.yul\":2073:2079   */\n  dup3\n    /* \"#utility.yul\":2062:2071   */\n  dup8\n    /* \"#utility.yul\":2058:2080   */\n  add\n    /* \"#utility.yul\":2026:2090   */\n  tag_32\n  jump\t// in\ntag_73:\n    /* \"#utility.yul\":2016:2090   */\n  swap3\n  pop\n    /* \"#utility.yul\":1971:2100   */\n  pop\n    /* \"#utility.yul\":2139:2141   */\n  0x40\n    /* \"#utility.yul\":2165:2229   */\n  tag_74\n    /* \"#utility.yul\":2221:2228   */\n  dup7\n    /* \"#utility.yul\":2212:2218   */\n  dup3\n    /* \"#utility.yul\":2201:2210   */\n  dup8\n    /* \"#utility.yul\":2197:2219   */\n  add\n    /* \"#utility.yul\":2165:2229   */\n  tag_35\n  jump\t// in\ntag_74:\n    /* \"#utility.yul\":2155:2229   */\n  swap2\n  pop\n    /* \"#utility.yul\":2110:2239   */\n  pop\n    /* \"#utility.yul\":1585:2246   */\n  swap3\n  pop\n  swap3\n  pop\n  swap3\n  jump\t// out\n    /* \"#utility.yul\":2252:2432   */\ntag_36:\n    /* \"#utility.yul\":2300:2377   */\n  0x4e487b7100000000000000000000000000000000000000000000000000000000\n    /* \"#utility.yul\":2297:2298   */\n  0x00\n    /* \"#utility.yul\":2290:2378   */\n  mstore\n    /* \"#utility.yul\":2397:2401   */\n  0x11\n    /* \"#utility.yul\":2394:2395   */\n  0x04\n    /* \"#utility.yul\":2387:2402   */\n  mstore\n    /* \"#utility.yul\":2421:2425   */\n  0x24\n    /* \"#utility.yul\":2418:2419   */\n  0x00\n    /* \"#utility.yul\":2411:2426   */\n  revert\n    /* \"#utility.yul\":2438:2515   */\ntag_37:\n    /* \"#utility.yul\":2475:2482   */\n  0x00\n    /* \"#utility.yul\":2504:2509   */\n  dup2\n    /* \"#utility.yul\":2493:2509   */\n  swap1\n  pop\n    /* \"#utility.yul\":2438:2515   */\n  swap2\n  swap1\n  pop\n  jump\t// out\n    /* \"#utility.yul\":2521:2754   */\ntag_9:\n    /* \"#utility.yul\":2560:2563   */\n  0x00\n    /* \"#utility.yul\":2583:2607   */\n  tag_78\n    /* \"#utility.yul\":2601:2606   */\n  dup3\n    /* \"#utility.yul\":2583:2607   */\n  tag_37\n  jump\t// in\ntag_78:\n    /* \"#utility.yul\":2574:2607   */\n  swap2\n  pop\n    /* \"#utility.yul\":2629:2695   */\n  0xffffffffffffffffffffffffffffffffffffffffffffffffffffffffffffffff\n    /* \"#utility.yul\":2622:2627   */\n  dup3\n    /* \"#utility.yul\":2619:2696   */\n  eq\n    /* \"#utility.yul\":2616:2719   */\n  iszero\n  tag_79\n  jumpi\n    /* \"#utility.yul\":2699:2717   */\n  tag_80\n  tag_36\n  jump\t// in\ntag_80:\n    /* \"#utility.yul\":2616:2719   */\ntag_79:\n    /* \"#utility.yul\":2746:2747   */\n  0x01\n    /* \"#utility.yul\":2739:2744   */\n  dup3\n    /* \"#utility.yul\":2735:2748   */\n  add\n    /* \"#utility.yul\":2728:2748   */\n  swap1\n  pop\n    /* \"#utility.yul\":2521:2754   */\n  swap2\n  swap1\n  pop\n  jump\t// out\n    /* \"#utility.yul\":2760:2859   */\ntag_38:\n    /* \"#utility.yul\":2812:2818   */\n  0x00\n    /* \"#utility.yul\":2846:2851   */\n  dup2\n    /* \"#utility.yul\":2840:2852   */\n  mload\n    /* \"#utility.yul\":2830:2852   */\n  swap1\n  pop\n    /* \"#utility.yul\":2760:2859   */\n  swap2\n  swap1\n  pop\n  jump\t// out\n    /* \"#utility.yul\":2865:3013   */\ntag_39:\n    /* \"#utility.yul\":2967:2978   */\n  0x00\n    /* \"#utility.yul\":3004:3007   */\n  dup2\n    /* \"#utility.yul\":2989:3007   */\n  swap1\n  pop\n    /* \"#utility.yul\":2865:3013   */\n  swap3\n  swap2\n  pop\n  pop\n  jump\t// out\n    /* \"#utility.yul\":3019:3326   */\ntag_40:\n    /* \"#utility.yul\":3087:3088   */\n  0x00\n    /* \"#utility.yul\":3097:3210   */\ntag_84:\n    /* \"#utility.yul\":3111:3117   */\n  dup4\n    /* \"#utility.yul\":3108:3109   */\n  dup2\n    /* \"#utility.yul\":3105:3118   */\n  lt\n    /* \"#utility.yul\":3097:3210   */\n  iszero\n  tag_86\n  jumpi\n    /* \"#utility.yul\":3196:3197   */\n  dup1\n    /* \"#utility.yul\":3191:3194   */\n  dup3\n    /* \"#utility.yul\":3187:3198   */\n  add\n    /* \"#utility.yul\":3181:3199   */\n  mload\n    /* \"#utility.yul\":3177:3178   */\n  dup2\n    /* \"#utility.yul\":3172:3175   */\n  dup5\n    /* \"#utility.yul\":3168:3179   */\n  add\n    /* \"#utility.yul\":3161:3200   */\n  mstore\n    /* \"#utility.yul\":3133:3135   */\n  0x20\n    /* \"#utility.yul\":3130:3131   */\n  dup2\n    /* \"#utility.yul\":3126:3136   */\n  add\n    /* \"#utility.yul\":3121:3136   */\n  swap1\n  pop\n    /* \"#utility.yul\":3097:3210   */\n  jump(tag_84)\ntag_86:\n    /* \"#utility.yul\":3228:3234   */\n  dup4\n    /* \"#utility.yul\":3225:3226   */\n  dup2\n    /* \"#utility.yul\":3222:3235   */\n  gt\n    /* \"#utility.yul\":3219:3320   */\n  iszero\n  tag_87\n  jumpi\n    /* \"#utility.yul\":3308:3309   */\n  0x00\n    /* \"#utility.yul\":3299:3305   */\n  dup5\n    /* \"#utility.yul\":3294:3297   */\n  dup5\n    /* \"#utility.yul\":3290:3306   */\n  add\n    /* \"#utility.yul\":3283:3310   */\n  mstore\n    /* \"#utility.yul\":3219:3320   */\ntag_87:\n    /* \"#utility.yul\":3068:3326   */\n  pop\n    /* \"#utility.yul\":3019:3326   */\n  pop\n  pop\n  pop\n  jump\t// out\n    /* \"#utility.yul\":3332:3709   */\ntag_41:\n    /* \"#utility.yul\":3438:3441   */\n  0x00\n    /* \"#utility.yul\":3466:3505   */\n  tag_89\n    /* \"#utility.yul\":3499:3504   */\n  dup3\n    /* \"#utility.yul\":3466:3505   */\n  tag_38\n  jump\t// in\ntag_89:\n    /* \"#utility.yul\":3521:3610   */\n  tag_90\n    /* \"#utility.yul\":3603:3609   */\n  dup2\n    /* \"#utility.yul\":3598:3601   */\n  dup6\n    /* \"#utility.yul\":3521:3610   */\n  tag_39\n  jump\t// in\ntag_90:\n    /* \"#utility.yul\":3514:3610   */\n  swap4\n  pop\n    /* \"#utility.yul\":3619:3671   */\n  tag_91\n    /* \"#utility.yul\":3664:3670   */\n  dup2\n    /* \"#utility.yul\":3659:3662   */\n  dup6\n    /* \"#utility.yul\":3652:3656   */\n  0x20\n    /* \"#utility.yul\":3645:3650   */\n  dup7\n    /* \"#utility.yul\":3641:3657   */\n  add\n    /* \"#utility.yul\":3619:3671   */\n  tag_40\n  jump\t// in\ntag_91:\n    /* \"#utility.yul\":3696:3702   */\n  dup1\n    /* \"#utility.yul\":3691:3694   */\n  dup5\n    /* \"#utility.yul\":3687:3703   */\n  add\n    /* \"#utility.yul\":3680:3703   */\n  swap2\n  pop\n    /* \"#utility.yul\":3442:3709   */\n  pop\n    /* \"#utility.yul\":3332:3709   */\n  swap3\n  swap2\n  pop\n  pop\n  jump\t// out\n    /* \"#utility.yul\":3715:3990   */\ntag_17:\n    /* \"#utility.yul\":3847:3850   */\n  0x00\n    /* \"#utility.yul\":3869:3964   */\n  tag_93\n    /* \"#utility.yul\":3960:3963   */\n  dup3\n    /* \"#utility.yul\":3951:3957   */\n  dup5\n    /* \"#utility.yul\":3869:3964   */\n  tag_41\n  jump\t// in\ntag_93:\n    /* \"#utility.yul\":3862:3964   */\n  swap2\n  pop\n    /* \"#utility.yul\":3981:3984   */\n  dup2\n    /* \"#utility.yul\":3974:3984   */\n  swap1\n  pop\n    /* \"#utility.yul\":3715:3990   */\n  swap3\n  swap2\n  pop\n  pop\n  jump\t// out\n    /* \"#utility.yul\":3996:4114   */\ntag_42:\n    /* \"#utility.yul\":4083:4107   */\n  tag_95\n    /* \"#utility.yul\":4101:4106   */\n  dup2\n    /* \"#utility.yul\":4083:4107   */\n  tag_33\n  jump\t// in\ntag_95:\n    /* \"#utility.yul\":4078:4081   */\n  dup3\n    /* \"#utility.yul\":4071:4108   */\n  mstore\n    /* \"#utility.yul\":3996:4114   */\n  pop\n  pop\n  jump\t// out\n    /* \"#utility.yul\":4120:4238   */\ntag_43:\n    /* \"#utility.yul\":4207:4231   */\n  tag_97\n    /* \"#utility.yul\":4225:4230   */\n  dup2\n    /* \"#utility.yul\":4207:4231   */\n  tag_37\n  jump\t// in\ntag_97:\n    /* \"#utility.yul\":4202:4205   */\n  dup3\n    /* \"#utility.yul\":4195:4232   */\n  mstore\n    /* \"#utility.yul\":4120:4238   */\n  pop\n  pop\n  jump\t// out\n    /* \"#utility.yul\":4244:4362   */\ntag_44:\n    /* \"#utility.yul\":4331:4355   */\n  tag_99\n    /* \"#utility.yul\":4349:4354   */\n  dup2\n    /* \"#utility.yul\":4331:4355   */\n  tag_30\n  jump\t// in\ntag_99:\n    /* \"#utility.yul\":4326:4329   */\n  dup3\n    /* \"#utility.yul\":4319:4356   */\n  mstore\n    /* \"#utility.yul\":4244:4362   */\n  pop\n  pop\n  jump\t// out\n    /* \"#utility.yul\":4368:5032   */\ntag_21:\n    /* \"#utility.yul\":4573:4577   */\n  0x00\n    /* \"#utility.yul\":4611:4614   */\n  0xa0\n    /* \"#utility.yul\":4600:4609   */\n  dup3\n    /* \"#utility.yul\":4596:4615   */\n  add\n    /* \"#utility.yul\":4588:4615   */\n  swap1\n  pop\n    /* \"#utility.yul\":4625:4696   */\n  tag_101\n    /* \"#utility.yul\":4693:4694   */\n  0x00\n    /* \"#utility.yul\":4682:4691   */\n  dup4\n    /* \"#utility.yul\":4678:4695   */\n  add\n    /* \"#utility.yul\":4669:4675   */\n  dup9\n    /* \"#utility.yul\":4625:4696   */\n  tag_42\n  jump\t// in\ntag_101:\n    /* \"#utility.yul\":4706:4778   */\n  tag_102\n    /* \"#utility.yul\":4774:4776   */\n  0x20\n    /* \"#utility.yul\":4763:4772   */\n  dup4\n    /* \"#utility.yul\":4759:4777   */\n  add\n    /* \"#utility.yul\":4750:4756   */\n  dup8\n    /* \"#utility.yul\":4706:4778   */\n  tag_42\n  jump\t// in\ntag_102:\n    /* \"#utility.yul\":4788:4860   */\n  tag_103\n    /* \"#utility.yul\":4856:4858   */\n  0x40\n    /* \"#utility.yul\":4845:4854   */\n  dup4\n    /* \"#utility.yul\":4841:4859   */\n  add\n    /* \"#utility.yul\":4832:4838   */\n  dup7\n    /* \"#utility.yul\":4788:4860   */\n  tag_42\n  jump\t// in\ntag_103:\n    /* \"#utility.yul\":4870:4942   */\n  tag_104\n    /* \"#utility.yul\":4938:4940   */\n  0x60\n    /* \"#utility.yul\":4927:4936   */\n  dup4\n    /* \"#utility.yul\":4923:4941   */\n  add\n    /* \"#utility.yul\":4914:4920   */\n  dup6\n    /* \"#utility.yul\":4870:4942   */\n  tag_43\n  jump\t// in\ntag_104:\n    /* \"#utility.yul\":4952:5025   */\n  tag_105\n    /* \"#utility.yul\":5020:5023   */\n  0x80\n    /* \"#utility.yul\":5009:5018   */\n  dup4\n    /* \"#utility.yul\":5005:5024   */\n  add\n    /* \"#utility.yul\":4996:5002   */\n  dup5\n    /* \"#utility.yul\":4952:5025   */\n  tag_44\n  jump\t// in\ntag_105:\n    /* \"#utility.yul\":4368:5032   */\n  swap7\n  swap6\n  pop\n  pop\n  pop\n  pop\n  pop\n  pop\n  jump\t// out\n    /* \"LuckyBall_flattened.sol\":12128:26817  contract LuckyBall is VRFConsumerBaseV2{... */\ntag_12:\n  mload(0x80)\n  mload(0xa0)\n  mload(0xc0)\n  mload(0xe0)\n  codecopy(0x00, dataOffset(sub_0), dataSize(sub_0))\n  0x00\n  assignImmutable(\"0x1a65db4f2ea95c4a38ef67ec9eb02656311df27569f1d2e5f15fb9ffe8498721\")\n  0x00\n  assignImmutable(\"0x4d9fac5dc90d70d79ceac3589bb998755cf60ab2ff110225b2bffe4b0c0e4742\")\n  0x00\n  assignImmutable(\"0x266b1640ade99b2f22d24bd1f0c6c2736890e0398a5a0b97b63a35856ae65c2b\")\n  0x00\n  assignImmutable(\"0x1a192fabce13988b84994d4296e6cdc418d55e2f1d7f942188d4040b94fc57ac\")\n  return(0x00, dataSize(sub_0))\nstop\ndata_8b73c3c69bb8fe3d512ecc4cf759cc79239f7b179b0ffacaa9a75d522b39400f 454950373132446f6d61696e28737472696e67206e616d652c737472696e672076657273696f6e2c75696e7432353620636861696e49642c6164647265737320766572696679696e67436f6e747261637429\n\nsub_0: assembly {\n        /* \"LuckyBall_flattened.sol\":12128:26817  contract LuckyBall is VRFConsumerBaseV2{... */\n      mstore(0x40, 0x80)\n      callvalue\n      dup1\n      iszero\n      tag_1\n      jumpi\n      0x00\n      dup1\n      revert\n    tag_1:\n      pop\n      jumpi(tag_2, lt(calldatasize, 0x04))\n      shr(0xe0, calldataload(0x00))\n      dup1\n      0xa168fa89\n      gt\n      tag_42\n      jumpi\n      dup1\n      0xd37431a6\n      gt\n      tag_43\n      jumpi\n      dup1\n      0xe7f43c68\n      gt\n      tag_44\n      jumpi\n      dup1\n      0xe7f43c68\n      eq\n      tag_37\n      jumpi\n      dup1\n      0xf5d709a1\n      eq\n      tag_38\n      jumpi\n      dup1\n      0xf9523b21\n      eq\n      tag_39\n      jumpi\n      dup1\n      0xfc2a88c3\n      eq\n      tag_40\n      jumpi\n      dup1\n      0xfe675307\n      eq\n      tag_41\n      jumpi\n      jump(tag_2)\n    tag_44:\n      dup1\n      0xd37431a6\n      eq\n      tag_32\n      jumpi\n      dup1\n      0xd3ba6f34\n      eq\n      tag_33\n      jumpi\n      dup1\n      0xd530f1b4\n      eq\n      tag_34\n      jumpi\n      dup1\n      0xdf6c8333\n      eq\n      tag_35\n      jumpi\n      dup1\n      0xdf6fba1d\n      eq\n      tag_36\n      jumpi\n      jump(tag_2)\n    tag_43:\n      dup1\n      0xb20aaaf5\n      gt\n      tag_45\n      jumpi\n      dup1\n      0xb20aaaf5\n      eq\n      tag_27\n      jumpi\n      dup1\n      0xb29e60ef\n      eq\n      tag_28\n      jumpi\n      dup1\n      0xb3ab15fb\n      eq\n      tag_29\n      jumpi\n      dup1\n      0xba732064\n      eq\n      tag_30\n      jumpi\n      dup1\n      0xc6b98e04\n      eq\n      tag_31\n      jumpi\n      jump(tag_2)\n    tag_45:\n      dup1\n      0xa168fa89\n      eq\n      tag_22\n      jumpi\n      dup1\n      0xa4049325\n      eq\n      tag_23\n      jumpi\n      dup1\n      0xa529d3b0\n      eq\n      tag_24\n      jumpi\n      dup1\n      0xae95234c\n      eq\n      tag_25\n      jumpi\n      dup1\n      0xb07870b5\n      eq\n      tag_26\n      jumpi\n      jump(tag_2)\n    tag_42:\n      dup1\n      0x5f4f79bb\n      gt\n      tag_46\n      jumpi\n      dup1\n      0x8504a01a\n      gt\n      tag_47\n      jumpi\n      dup1\n      0x8504a01a\n      eq\n      tag_17\n      jumpi\n      dup1\n      0x8c73da19\n      eq\n      tag_18\n      jumpi\n      dup1\n      0x952a9633\n      eq\n      tag_19\n      jumpi\n      dup1\n      0x9ceaddc9\n      eq\n      tag_20\n      jumpi\n      dup1\n      0x9d3db7db\n      eq\n      tag_21\n      jumpi\n      jump(tag_2)\n    tag_47:\n      dup1\n      0x5f4f79bb\n      eq\n      tag_12\n      jumpi\n      dup1\n      0x6352211e\n      eq\n      tag_13\n      jumpi\n      dup1\n      0x6999f376\n      eq\n      tag_14\n      jumpi\n      dup1\n      0x7a0da8d8\n      eq\n      tag_15\n      jumpi\n      dup1\n      0x7ecebe00\n      eq\n      tag_16\n      jumpi\n      jump(tag_2)\n    tag_46:\n      dup1\n      0x1fe543e3\n      gt\n      tag_48\n      jumpi\n      dup1\n      0x1fe543e3\n      eq\n      tag_7\n      jumpi\n      dup1\n      0x2ffb84dd\n      eq\n      tag_8\n      jumpi\n      dup1\n      0x3644e515\n      eq\n      tag_9\n      jumpi\n      dup1\n      0x3822aea4\n      eq\n      tag_10\n      jumpi\n      dup1\n      0x3dcdb672\n      eq\n      tag_11\n      jumpi\n      jump(tag_2)\n    tag_48:\n      dup1\n      0x04b1b2c2\n      eq\n      tag_3\n      jumpi\n      dup1\n      0x060ed27f\n      eq\n      tag_4\n      jumpi\n      dup1\n      0x0841ba30\n      eq\n      tag_5\n      jumpi\n      dup1\n      0x1022889c\n      eq\n      tag_6\n      jumpi\n    tag_2:\n      0x00\n      dup1\n      revert\n        /* \"LuckyBall_flattened.sol\":13683:13724  mapping(uint => uint) public revealGroups */\n    tag_3:\n      tag_49\n      0x04\n      dup1\n      calldatasize\n      sub\n      dup2\n      add\n      swap1\n      tag_50\n      swap2\n      swap1\n      tag_51\n      jump\t// in\n    tag_50:\n      tag_52\n      jump\t// in\n    tag_49:\n      mload(0x40)\n      tag_53\n      swap2\n      swap1\n      tag_54\n      jump\t// in\n    tag_53:\n      mload(0x40)\n      dup1\n      swap2\n      sub\n      swap1\n      return\n        /* \"LuckyBall_flattened.sol\":12415:12439  bool public revealNeeded */\n    tag_4:\n      tag_55\n      tag_56\n      jump\t// in\n    tag_55:\n      mload(0x40)\n      tag_57\n      swap2\n      swap1\n      tag_58\n      jump\t// in\n    tag_57:\n      mload(0x40)\n      dup1\n      swap2\n      sub\n      swap1\n      return\n        /* \"LuckyBall_flattened.sol\":17624:17726  function getCurrentBallGroupPos() public view returns (uint) {... */\n    tag_5:\n      tag_59\n      tag_60\n      jump\t// in\n    tag_59:\n      mload(0x40)\n      tag_61\n      swap2\n      swap1\n      tag_54\n      jump\t// in\n    tag_61:\n      mload(0x40)\n      dup1\n      swap2\n      sub\n      swap1\n      return\n        /* \"LuckyBall_flattened.sol\":18647:19398  function issueBalls(address[] calldata _tos, uint[] calldata _qty) external onlyOperators() returns (bool) {... */\n    tag_6:\n      tag_62\n      0x04\n      dup1\n      calldatasize\n      sub\n      dup2\n      add\n      swap1\n      tag_63\n      swap2\n      swap1\n      tag_64\n      jump\t// in\n    tag_63:\n      tag_65\n      jump\t// in\n    tag_62:\n      mload(0x40)\n      tag_66\n      swap2\n      swap1\n      tag_58\n      jump\t// in\n    tag_66:\n      mload(0x40)\n      dup1\n      swap2\n      sub\n      swap1\n      return\n        /* \"LuckyBall_flattened.sol\":6650:6906  function rawFulfillRandomWords(uint256 requestId, uint256[] memory randomWords) external {... */\n    tag_7:\n      tag_67\n      0x04\n      dup1\n      calldatasize\n      sub\n      dup2\n      add\n      swap1\n      tag_68\n      swap2\n      swap1\n      tag_69\n      jump\t// in\n    tag_68:\n      tag_70\n      jump\t// in\n    tag_67:\n      stop\n        /* \"LuckyBall_flattened.sol\":13811:13855  mapping(address => uint) public newRevealPos */\n    tag_8:\n      tag_71\n      0x04\n      dup1\n      calldatasize\n      sub\n      dup2\n      add\n      swap1\n      tag_72\n      swap2\n      swap1\n      tag_73\n      jump\t// in\n    tag_72:\n      tag_74\n      jump\t// in\n    tag_71:\n      mload(0x40)\n      tag_75\n      swap2\n      swap1\n      tag_54\n      jump\t// in\n    tag_75:\n      mload(0x40)\n      dup1\n      swap2\n      sub\n      swap1\n      return\n        /* \"LuckyBall_flattened.sol\":13436:13467  bytes32 public DOMAIN_SEPARATOR */\n    tag_9:\n      tag_76\n      tag_77\n      jump\t// in\n    tag_76:\n      mload(0x40)\n      tag_78\n      swap2\n      swap1\n      tag_79\n      jump\t// in\n    tag_78:\n      mload(0x40)\n      dup1\n      swap2\n      sub\n      swap1\n      return\n        /* \"LuckyBall_flattened.sol\":12355:12382  address[] public addrGroups */\n    tag_10:\n      tag_80\n      0x04\n      dup1\n      calldatasize\n      sub\n      dup2\n      add\n      swap1\n      tag_81\n      swap2\n      swap1\n      tag_51\n      jump\t// in\n    tag_81:\n      tag_82\n      jump\t// in\n    tag_80:\n      mload(0x40)\n      tag_83\n      swap2\n      swap1\n      tag_84\n      jump\t// in\n    tag_83:\n      mload(0x40)\n      dup1\n      swap2\n      sub\n      swap1\n      return\n        /* \"LuckyBall_flattened.sol\":24677:25152  function endSeason() external onlyOperators() returns (bool) {... */\n    tag_11:\n      tag_85\n      tag_86\n      jump\t// in\n    tag_85:\n      mload(0x40)\n      tag_87\n      swap2\n      swap1\n      tag_58\n      jump\t// in\n    tag_87:\n      mload(0x40)\n      dup1\n      swap2\n      sub\n      swap1\n      return\n        /* \"LuckyBall_flattened.sol\":23782:24273  function relayRequestReveal(        ... */\n    tag_12:\n      tag_88\n      0x04\n      dup1\n      calldatasize\n      sub\n      dup2\n      add\n      swap1\n      tag_89\n      swap2\n      swap1\n      tag_90\n      jump\t// in\n    tag_89:\n      tag_91\n      jump\t// in\n    tag_88:\n      mload(0x40)\n      tag_92\n      swap2\n      swap1\n      tag_58\n      jump\t// in\n    tag_92:\n      mload(0x40)\n      dup1\n      swap2\n      sub\n      swap1\n      return\n        /* \"LuckyBall_flattened.sol\":19982:20300  function ownerOf(uint ballId) public view returns (address) {... */\n    tag_13:\n      tag_93\n      0x04\n      dup1\n      calldatasize\n      sub\n      dup2\n      add\n      swap1\n      tag_94\n      swap2\n      swap1\n      tag_51\n      jump\t// in\n    tag_94:\n      tag_95\n      jump\t// in\n    tag_93:\n      mload(0x40)\n      tag_96\n      swap2\n      swap1\n      tag_84\n      jump\t// in\n    tag_96:\n      mload(0x40)\n      dup1\n      swap2\n      sub\n      swap1\n      return\n        /* \"LuckyBall_flattened.sol\":16985:17278  function verifySig(address _user, uint _deadline, uint _nonce,  uint8 v, bytes32 r,bytes32 s) public view returns (bool) {... */\n    tag_14:\n      tag_97\n      0x04\n      dup1\n      calldatasize\n      sub\n      dup2\n      add\n      swap1\n      tag_98\n      swap2\n      swap1\n      tag_99\n      jump\t// in\n    tag_98:\n      tag_100\n      jump\t// in\n    tag_97:\n      mload(0x40)\n      tag_101\n      swap2\n      swap1\n      tag_58\n      jump\t// in\n    tag_101:\n      mload(0x40)\n      dup1\n      swap2\n      sub\n      swap1\n      return\n        /* \"LuckyBall_flattened.sol\":19404:19593  function getUserBallGroups(address addr, uint seasonId) public view returns (uint[] memory) {... */\n    tag_15:\n      tag_102\n      0x04\n      dup1\n      calldatasize\n      sub\n      dup2\n      add\n      swap1\n      tag_103\n      swap2\n      swap1\n      tag_104\n      jump\t// in\n    tag_103:\n      tag_105\n      jump\t// in\n    tag_102:\n      mload(0x40)\n      tag_106\n      swap2\n      swap1\n      tag_107\n      jump\t// in\n    tag_106:\n      mload(0x40)\n      dup1\n      swap2\n      sub\n      swap1\n      return\n        /* \"LuckyBall_flattened.sol\":15078:15175  function nonces(address user) public view returns (uint256) {... */\n    tag_16:\n      tag_108\n      0x04\n      dup1\n      calldatasize\n      sub\n      dup2\n      add\n      swap1\n      tag_109\n      swap2\n      swap1\n      tag_73\n      jump\t// in\n    tag_109:\n      tag_110\n      jump\t// in\n    tag_108:\n      mload(0x40)\n      tag_111\n      swap2\n      swap1\n      tag_54\n      jump\t// in\n    tag_111:\n      mload(0x40)\n      dup1\n      swap2\n      sub\n      swap1\n      return\n        /* \"LuckyBall_flattened.sol\":13572:13637  mapping(address => mapping(uint => uint[])) public userBallGroups */\n    tag_17:\n      tag_112\n      0x04\n      dup1\n      calldatasize\n      sub\n      dup2\n      add\n      swap1\n      tag_113\n      swap2\n      swap1\n      tag_114\n      jump\t// in\n    tag_113:\n      tag_115\n      jump\t// in\n    tag_112:\n      mload(0x40)\n      tag_116\n      swap2\n      swap1\n      tag_54\n      jump\t// in\n    tag_116:\n      mload(0x40)\n      dup1\n      swap2\n      sub\n      swap1\n      return\n        /* \"LuckyBall_flattened.sol\":17527:17618  function getCurrentSeasionId() public view returns (uint) {... */\n    tag_18:\n      tag_117\n      tag_118\n      jump\t// in\n    tag_117:\n      mload(0x40)\n      tag_119\n      swap2\n      swap1\n      tag_54\n      jump\t// in\n    tag_119:\n      mload(0x40)\n      dup1\n      swap2\n      sub\n      swap1\n      return\n        /* \"LuckyBall_flattened.sol\":17843:18391  function startSeason() external onlyOperators() returns (uint) {... */\n    tag_19:\n      tag_120\n      tag_121\n      jump\t// in\n    tag_120:\n      mload(0x40)\n      tag_122\n      swap2\n      swap1\n      tag_54\n      jump\t// in\n    tag_122:\n      mload(0x40)\n      dup1\n      swap2\n      sub\n      swap1\n      return\n        /* \"LuckyBall_flattened.sol\":12388:12409  uint public ballCount */\n    tag_20:\n      tag_123\n      tag_124\n      jump\t// in\n    tag_123:\n      mload(0x40)\n      tag_125\n      swap2\n      swap1\n      tag_54\n      jump\t// in\n    tag_125:\n      mload(0x40)\n      dup1\n      swap2\n      sub\n      swap1\n      return\n        /* \"LuckyBall_flattened.sol\":17732:17832  function getCurrentRevealGroupId() public view returns (uint) {... */\n    tag_21:\n      tag_126\n      tag_127\n      jump\t// in\n    tag_126:\n      mload(0x40)\n      tag_128\n      swap2\n      swap1\n      tag_54\n      jump\t// in\n    tag_128:\n      mload(0x40)\n      dup1\n      swap2\n      sub\n      swap1\n      return\n        /* \"LuckyBall_flattened.sol\":13315:13363  mapping(uint => RequestStatus) public s_requests */\n    tag_22:\n      tag_129\n      0x04\n      dup1\n      calldatasize\n      sub\n      dup2\n      add\n      swap1\n      tag_130\n      swap2\n      swap1\n      tag_51\n      jump\t// in\n    tag_130:\n      tag_131\n      jump\t// in\n    tag_129:\n      mload(0x40)\n      tag_132\n      swap4\n      swap3\n      swap2\n      swap1\n      tag_133\n      jump\t// in\n    tag_132:\n      mload(0x40)\n      dup1\n      swap2\n      sub\n      swap1\n      return\n        /* \"LuckyBall_flattened.sol\":24279:24671  function relayRequestRevealBatch(... */\n    tag_23:\n      tag_134\n      0x04\n      dup1\n      calldatasize\n      sub\n      dup2\n      add\n      swap1\n      tag_135\n      swap2\n      swap1\n      tag_136\n      jump\t// in\n    tag_135:\n      tag_137\n      jump\t// in\n    tag_134:\n      mload(0x40)\n      tag_138\n      swap2\n      swap1\n      tag_58\n      jump\t// in\n    tag_138:\n      mload(0x40)\n      dup1\n      swap2\n      sub\n      swap1\n      return\n        /* \"LuckyBall_flattened.sol\":15522:15714  function getRelayMessageTypes() public pure returns (string memory) {... */\n    tag_24:\n      tag_139\n      tag_140\n      jump\t// in\n    tag_139:\n      mload(0x40)\n      tag_141\n      swap2\n      swap1\n      tag_142\n      jump\t// in\n    tag_141:\n      mload(0x40)\n      dup1\n      swap2\n      sub\n      swap1\n      return\n        /* \"LuckyBall_flattened.sol\":16332:16979  function getEIP712Hash(address _user, uint _deadline, uint _nonce) public view returns (bytes32) {... */\n    tag_25:\n      tag_143\n      0x04\n      dup1\n      calldatasize\n      sub\n      dup2\n      add\n      swap1\n      tag_144\n      swap2\n      swap1\n      tag_114\n      jump\t// in\n    tag_144:\n      tag_145\n      jump\t// in\n    tag_143:\n      mload(0x40)\n      tag_146\n      swap2\n      swap1\n      tag_79\n      jump\t// in\n    tag_146:\n      mload(0x40)\n      dup1\n      swap2\n      sub\n      swap1\n      return\n        /* \"LuckyBall_flattened.sol\":20852:20951  function requestReveal() external returns (bool) {... */\n    tag_26:\n      tag_147\n      tag_148\n      jump\t// in\n    tag_147:\n      mload(0x40)\n      tag_149\n      swap2\n      swap1\n      tag_58\n      jump\t// in\n    tag_149:\n      mload(0x40)\n      dup1\n      swap2\n      sub\n      swap1\n      return\n        /* \"LuckyBall_flattened.sol\":12325:12349  uint[] public ballGroups */\n    tag_27:\n      tag_150\n      0x04\n      dup1\n      calldatasize\n      sub\n      dup2\n      add\n      swap1\n      tag_151\n      swap2\n      swap1\n      tag_51\n      jump\t// in\n    tag_151:\n      tag_152\n      jump\t// in\n    tag_150:\n      mload(0x40)\n      tag_153\n      swap2\n      swap1\n      tag_54\n      jump\t// in\n    tag_153:\n      mload(0x40)\n      dup1\n      swap2\n      sub\n      swap1\n      return\n        /* \"LuckyBall_flattened.sol\":13730:13775  mapping(uint => uint) public revealGroupSeeds */\n    tag_28:\n      tag_154\n      0x04\n      dup1\n      calldatasize\n      sub\n      dup2\n      add\n      swap1\n      tag_155\n      swap2\n      swap1\n      tag_51\n      jump\t// in\n    tag_155:\n      tag_156\n      jump\t// in\n    tag_154:\n      mload(0x40)\n      tag_157\n      swap2\n      swap1\n      tag_54\n      jump\t// in\n    tag_157:\n      mload(0x40)\n      dup1\n      swap2\n      sub\n      swap1\n      return\n        /* \"LuckyBall_flattened.sol\":17292:17429  function setOperator(address _newOperator) public onlyOwner returns (bool) {... */\n    tag_29:\n      tag_158\n      0x04\n      dup1\n      calldatasize\n      sub\n      dup2\n      add\n      swap1\n      tag_159\n      swap2\n      swap1\n      tag_73\n      jump\t// in\n    tag_159:\n      tag_160\n      jump\t// in\n    tag_158:\n      mload(0x40)\n      tag_161\n      swap2\n      swap1\n      tag_58\n      jump\t// in\n    tag_161:\n      mload(0x40)\n      dup1\n      swap2\n      sub\n      swap1\n      return\n        /* \"LuckyBall_flattened.sol\":18397:18637  function isSeasonActive() public view returns (bool) {... */\n    tag_30:\n      tag_162\n      tag_163\n      jump\t// in\n    tag_162:\n      mload(0x40)\n      tag_164\n      swap2\n      swap1\n      tag_58\n      jump\t// in\n    tag_164:\n      mload(0x40)\n      dup1\n      swap2\n      sub\n      swap1\n      return\n        /* \"LuckyBall_flattened.sol\":22447:22734  function getBallCode(uint ballId) public view returns (uint) {... */\n    tag_31:\n      tag_165\n      0x04\n      dup1\n      calldatasize\n      sub\n      dup2\n      add\n      swap1\n      tag_166\n      swap2\n      swap1\n      tag_51\n      jump\t// in\n    tag_166:\n      tag_167\n      jump\t// in\n    tag_165:\n      mload(0x40)\n      tag_168\n      swap2\n      swap1\n      tag_54\n      jump\t// in\n    tag_168:\n      mload(0x40)\n      dup1\n      swap2\n      sub\n      swap1\n      return\n        /* \"LuckyBall_flattened.sol\":25158:25365  function requestRevealGroupSeed() public onlyOperators() returns (uint) {... */\n    tag_32:\n      tag_169\n      tag_170\n      jump\t// in\n    tag_169:\n      mload(0x40)\n      tag_171\n      swap2\n      swap1\n      tag_54\n      jump\t// in\n    tag_171:\n      mload(0x40)\n      dup1\n      swap2\n      sub\n      swap1\n      return\n        /* \"LuckyBall_flattened.sol\":21660:21785  function getRevealGroup(uint ballId) public view returns (uint) {... */\n    tag_33:\n      tag_172\n      0x04\n      dup1\n      calldatasize\n      sub\n      dup2\n      add\n      swap1\n      tag_173\n      swap2\n      swap1\n      tag_51\n      jump\t// in\n    tag_173:\n      tag_174\n      jump\t// in\n    tag_172:\n      mload(0x40)\n      tag_175\n      swap2\n      swap1\n      tag_54\n      jump\t// in\n    tag_175:\n      mload(0x40)\n      dup1\n      swap2\n      sub\n      swap1\n      return\n        /* \"LuckyBall_flattened.sol\":21791:22440  function getBallGroupPos(uint ballId) public view returns (uint) {... */\n    tag_34:\n      tag_176\n      0x04\n      dup1\n      calldatasize\n      sub\n      dup2\n      add\n      swap1\n      tag_177\n      swap2\n      swap1\n      tag_51\n      jump\t// in\n    tag_177:\n      tag_178\n      jump\t// in\n    tag_176:\n      mload(0x40)\n      tag_179\n      swap2\n      swap1\n      tag_54\n      jump\t// in\n    tag_179:\n      mload(0x40)\n      dup1\n      swap2\n      sub\n      swap1\n      return\n        /* \"LuckyBall_flattened.sol\":13861:13924  mapping(address => mapping(uint => uint)) public userBallCounts */\n    tag_35:\n      tag_180\n      0x04\n      dup1\n      calldatasize\n      sub\n      dup2\n      add\n      swap1\n      tag_181\n      swap2\n      swap1\n      tag_104\n      jump\t// in\n    tag_181:\n      tag_182\n      jump\t// in\n    tag_180:\n      mload(0x40)\n      tag_183\n      swap2\n      swap1\n      tag_54\n      jump\t// in\n    tag_183:\n      mload(0x40)\n      dup1\n      swap2\n      sub\n      swap1\n      return\n        /* \"LuckyBall_flattened.sol\":23666:23776  function getBalls() public view returns(uint[] memory) {... */\n    tag_36:\n      tag_184\n      tag_185\n      jump\t// in\n    tag_184:\n      mload(0x40)\n      tag_186\n      swap2\n      swap1\n      tag_107\n      jump\t// in\n    tag_186:\n      mload(0x40)\n      dup1\n      swap2\n      sub\n      swap1\n      return\n        /* \"LuckyBall_flattened.sol\":17435:17521  function getOperator() public view returns (address) {... */\n    tag_37:\n      tag_187\n      tag_188\n      jump\t// in\n    tag_187:\n      mload(0x40)\n      tag_189\n      swap2\n      swap1\n      tag_84\n      jump\t// in\n    tag_189:\n      mload(0x40)\n      dup1\n      swap2\n      sub\n      swap1\n      return\n        /* \"LuckyBall_flattened.sol\":13528:13566  mapping(uint => Season) public seasons */\n    tag_38:\n      tag_190\n      0x04\n      dup1\n      calldatasize\n      sub\n      dup2\n      add\n      swap1\n      tag_191\n      swap2\n      swap1\n      tag_51\n      jump\t// in\n    tag_191:\n      tag_192\n      jump\t// in\n    tag_190:\n      mload(0x40)\n      tag_193\n      swap6\n      swap5\n      swap4\n      swap3\n      swap2\n      swap1\n      tag_194\n      jump\t// in\n    tag_193:\n      mload(0x40)\n      dup1\n      swap2\n      sub\n      swap1\n      return\n        /* \"LuckyBall_flattened.sol\":15184:15516  function getDomainInfo() public view returns (string memory, string memory, uint, address) {... */\n    tag_39:\n      tag_195\n      tag_196\n      jump\t// in\n    tag_195:\n      mload(0x40)\n      tag_197\n      swap5\n      swap4\n      swap3\n      swap2\n      swap1\n      tag_198\n      jump\t// in\n    tag_197:\n      mload(0x40)\n      dup1\n      swap2\n      sub\n      swap1\n      return\n        /* \"LuckyBall_flattened.sol\":13076:13104  uint256 public lastRequestId */\n    tag_40:\n      tag_199\n      tag_200\n      jump\t// in\n    tag_199:\n      mload(0x40)\n      tag_201\n      swap2\n      swap1\n      tag_54\n      jump\t// in\n    tag_201:\n      mload(0x40)\n      dup1\n      swap2\n      sub\n      swap1\n      return\n        /* \"LuckyBall_flattened.sol\":22740:23660  function getBalls(address addr, uint seasonId) public view returns (uint[] memory) {... */\n    tag_41:\n      tag_202\n      0x04\n      dup1\n      calldatasize\n      sub\n      dup2\n      add\n      swap1\n      tag_203\n      swap2\n      swap1\n      tag_104\n      jump\t// in\n    tag_203:\n      tag_204\n      jump\t// in\n    tag_202:\n      mload(0x40)\n      tag_205\n      swap2\n      swap1\n      tag_107\n      jump\t// in\n    tag_205:\n      mload(0x40)\n      dup1\n      swap2\n      sub\n      swap1\n      return\n        /* \"LuckyBall_flattened.sol\":13683:13724  mapping(uint => uint) public revealGroups */\n    tag_52:\n      mstore(0x20, 0x0f)\n      dup1\n      0x00\n      mstore\n      keccak256(0x00, 0x40)\n      0x00\n      swap2\n      pop\n      swap1\n      pop\n      sload\n      dup2\n      jump\t// out\n        /* \"LuckyBall_flattened.sol\":12415:12439  bool public revealNeeded */\n    tag_56:\n      0x08\n      0x00\n      swap1\n      sload\n      swap1\n      0x0100\n      exp\n      swap1\n      div\n      0xff\n      and\n      dup2\n      jump\t// out\n        /* \"LuckyBall_flattened.sol\":17624:17726  function getCurrentBallGroupPos() public view returns (uint) {... */\n    tag_60:\n        /* \"LuckyBall_flattened.sol\":17679:17683  uint */\n      0x00\n        /* \"LuckyBall_flattened.sol\":17702:17712  ballGroups */\n      0x05\n        /* \"LuckyBall_flattened.sol\":17702:17719  ballGroups.length */\n      dup1\n      sload\n      swap1\n      pop\n        /* \"LuckyBall_flattened.sol\":17695:17719  return ballGroups.length */\n      swap1\n      pop\n        /* \"LuckyBall_flattened.sol\":17624:17726  function getCurrentBallGroupPos() public view returns (uint) {... */\n      swap1\n      jump\t// out\n        /* \"LuckyBall_flattened.sol\":18647:19398  function issueBalls(address[] calldata _tos, uint[] calldata _qty) external onlyOperators() returns (bool) {... */\n    tag_65:\n        /* \"LuckyBall_flattened.sol\":18748:18752  bool */\n      0x00\n        /* \"LuckyBall_flattened.sol\":14379:14389  msg.sender */\n      caller\n        /* \"LuckyBall_flattened.sol\":14366:14389  _operator == msg.sender */\n      0xffffffffffffffffffffffffffffffffffffffff\n      and\n        /* \"LuckyBall_flattened.sol\":14366:14375  _operator */\n      0x04\n      0x00\n      swap1\n      sload\n      swap1\n      0x0100\n      exp\n      swap1\n      div\n      0xffffffffffffffffffffffffffffffffffffffff\n      and\n        /* \"LuckyBall_flattened.sol\":14366:14389  _operator == msg.sender */\n      0xffffffffffffffffffffffffffffffffffffffff\n      and\n      eq\n        /* \"LuckyBall_flattened.sol\":14366:14413  _operator == msg.sender || _owner == msg.sender */\n      dup1\n      tag_208\n      jumpi\n      pop\n        /* \"LuckyBall_flattened.sol\":14403:14413  msg.sender */\n      caller\n        /* \"LuckyBall_flattened.sol\":14393:14413  _owner == msg.sender */\n      0xffffffffffffffffffffffffffffffffffffffff\n      and\n        /* \"LuckyBall_flattened.sol\":14393:14399  _owner */\n      0x03\n      0x00\n      swap1\n      sload\n      swap1\n      0x0100\n      exp\n      swap1\n      div\n      0xffffffffffffffffffffffffffffffffffffffff\n      and\n        /* \"LuckyBall_flattened.sol\":14393:14413  _owner == msg.sender */\n      0xffffffffffffffffffffffffffffffffffffffff\n      and\n      eq\n        /* \"LuckyBall_flattened.sol\":14366:14413  _operator == msg.sender || _owner == msg.sender */\n    tag_208:\n        /* \"LuckyBall_flattened.sol\":14358:14464  require(_operator == msg.sender || _owner == msg.sender, \"LuckyBall: caller is not the operator address!\") */\n      tag_209\n      jumpi\n      mload(0x40)\n      0x08c379a000000000000000000000000000000000000000000000000000000000\n      dup2\n      mstore\n      0x04\n      add\n      tag_210\n      swap1\n      tag_211\n      jump\t// in\n    tag_210:\n      mload(0x40)\n      dup1\n      swap2\n      sub\n      swap1\n      revert\n    tag_209:\n        /* \"LuckyBall_flattened.sol\":18787:18791  _qty */\n      dup3\n      dup3\n        /* \"LuckyBall_flattened.sol\":18787:18798  _qty.length */\n      swap1\n      pop\n        /* \"LuckyBall_flattened.sol\":18772:18776  _tos */\n      dup6\n      dup6\n        /* \"LuckyBall_flattened.sol\":18772:18783  _tos.length */\n      swap1\n      pop\n        /* \"LuckyBall_flattened.sol\":18772:18798  _tos.length == _qty.length */\n      eq\n        /* \"LuckyBall_flattened.sol\":18764:18848  require(_tos.length == _qty.length, \"LuckBall: address and qty counts do not match\") */\n      tag_213\n      jumpi\n      mload(0x40)\n      0x08c379a000000000000000000000000000000000000000000000000000000000\n      dup2\n      mstore\n      0x04\n      add\n      tag_214\n      swap1\n      tag_215\n      jump\t// in\n    tag_214:\n      mload(0x40)\n      dup1\n      swap2\n      sub\n      swap1\n      revert\n    tag_213:\n        /* \"LuckyBall_flattened.sol\":18866:18882  isSeasonActive() */\n      tag_216\n        /* \"LuckyBall_flattened.sol\":18866:18880  isSeasonActive */\n      tag_163\n        /* \"LuckyBall_flattened.sol\":18866:18882  isSeasonActive() */\n      jump\t// in\n    tag_216:\n        /* \"LuckyBall_flattened.sol\":18858:18918  require(isSeasonActive(), \"LuckyBall: Season is not active\") */\n      tag_217\n      jumpi\n      mload(0x40)\n      0x08c379a000000000000000000000000000000000000000000000000000000000\n      dup2\n      mstore\n      0x04\n      add\n      tag_218\n      swap1\n      tag_219\n      jump\t// in\n    tag_218:\n      mload(0x40)\n      dup1\n      swap2\n      sub\n      swap1\n      revert\n    tag_217:\n        /* \"LuckyBall_flattened.sol\":18932:18938  uint i */\n      0x00\n        /* \"LuckyBall_flattened.sol\":18928:19363  for(uint i=0; i<_tos.length; i++) {... */\n    tag_220:\n        /* \"LuckyBall_flattened.sol\":18944:18948  _tos */\n      dup6\n      dup6\n        /* \"LuckyBall_flattened.sol\":18944:18955  _tos.length */\n      swap1\n      pop\n        /* \"LuckyBall_flattened.sol\":18942:18943  i */\n      dup2\n        /* \"LuckyBall_flattened.sol\":18942:18955  i<_tos.length */\n      lt\n        /* \"LuckyBall_flattened.sol\":18928:19363  for(uint i=0; i<_tos.length; i++) {... */\n      iszero\n      tag_221\n      jumpi\n        /* \"LuckyBall_flattened.sol\":18994:18995  0 */\n      0x00\n        /* \"LuckyBall_flattened.sol\":18984:18988  _qty */\n      dup5\n      dup5\n        /* \"LuckyBall_flattened.sol\":18989:18990  i */\n      dup4\n        /* \"LuckyBall_flattened.sol\":18984:18991  _qty[i] */\n      dup2\n      dup2\n      lt\n      tag_223\n      jumpi\n      tag_224\n      tag_225\n      jump\t// in\n    tag_224:\n    tag_223:\n      swap1\n      pop\n      0x20\n      mul\n      add\n      calldataload\n        /* \"LuckyBall_flattened.sol\":18984:18995  _qty[i] > 0 */\n      gt\n        /* \"LuckyBall_flattened.sol\":18976:19038  require(_qty[i] > 0, \"LuckyBall: qty should be bigger than 0\") */\n      tag_226\n      jumpi\n      mload(0x40)\n      0x08c379a000000000000000000000000000000000000000000000000000000000\n      dup2\n      mstore\n      0x04\n      add\n      tag_227\n      swap1\n      tag_228\n      jump\t// in\n    tag_227:\n      mload(0x40)\n      dup1\n      swap2\n      sub\n      swap1\n      revert\n    tag_226:\n        /* \"LuckyBall_flattened.sol\":19065:19069  _qty */\n      dup4\n      dup4\n        /* \"LuckyBall_flattened.sol\":19070:19071  i */\n      dup3\n        /* \"LuckyBall_flattened.sol\":19065:19072  _qty[i] */\n      dup2\n      dup2\n      lt\n      tag_229\n      jumpi\n      tag_230\n      tag_225\n      jump\t// in\n    tag_230:\n    tag_229:\n      swap1\n      pop\n      0x20\n      mul\n      add\n      calldataload\n        /* \"LuckyBall_flattened.sol\":19052:19061  ballCount */\n      0x07\n      0x00\n        /* \"LuckyBall_flattened.sol\":19052:19072  ballCount += _qty[i] */\n      dup3\n      dup3\n      sload\n      tag_231\n      swap2\n      swap1\n      tag_232\n      jump\t// in\n    tag_231:\n      swap3\n      pop\n      pop\n      dup2\n      swap1\n      sstore\n      pop\n        /* \"LuckyBall_flattened.sol\":19086:19096  ballGroups */\n      0x05\n        /* \"LuckyBall_flattened.sol\":19102:19111  ballCount */\n      sload(0x07)\n        /* \"LuckyBall_flattened.sol\":19086:19112  ballGroups.push(ballCount) */\n      swap1\n      dup1\n      0x01\n      dup2\n      sload\n      add\n      dup1\n      dup3\n      sstore\n      dup1\n      swap2\n      pop\n      pop\n      0x01\n      swap1\n      sub\n      swap1\n      0x00\n      mstore\n      keccak256(0x00, 0x20)\n      add\n      0x00\n      swap1\n      swap2\n      swap1\n      swap2\n      swap1\n      swap2\n      pop\n      sstore\n        /* \"LuckyBall_flattened.sol\":19126:19136  addrGroups */\n      0x06\n        /* \"LuckyBall_flattened.sol\":19142:19146  _tos */\n      dup7\n      dup7\n        /* \"LuckyBall_flattened.sol\":19147:19148  i */\n      dup4\n        /* \"LuckyBall_flattened.sol\":19142:19149  _tos[i] */\n      dup2\n      dup2\n      lt\n      tag_234\n      jumpi\n      tag_235\n      tag_225\n      jump\t// in\n    tag_235:\n    tag_234:\n      swap1\n      pop\n      0x20\n      mul\n      add\n      0x20\n      dup2\n      add\n      swap1\n      tag_236\n      swap2\n      swap1\n      tag_73\n      jump\t// in\n    tag_236:\n        /* \"LuckyBall_flattened.sol\":19126:19150  addrGroups.push(_tos[i]) */\n      swap1\n      dup1\n      0x01\n      dup2\n      sload\n      add\n      dup1\n      dup3\n      sstore\n      dup1\n      swap2\n      pop\n      pop\n      0x01\n      swap1\n      sub\n      swap1\n      0x00\n      mstore\n      keccak256(0x00, 0x20)\n      add\n      0x00\n      swap1\n      swap2\n      swap1\n      swap2\n      swap1\n      swap2\n      0x0100\n      exp\n      dup2\n      sload\n      dup2\n      0xffffffffffffffffffffffffffffffffffffffff\n      mul\n      not\n      and\n      swap1\n      dup4\n      0xffffffffffffffffffffffffffffffffffffffff\n      and\n      mul\n      or\n      swap1\n      sstore\n      pop\n        /* \"LuckyBall_flattened.sol\":19164:19178  userBallGroups */\n      0x0e\n        /* \"LuckyBall_flattened.sol\":19164:19187  userBallGroups[_tos[i]] */\n      0x00\n        /* \"LuckyBall_flattened.sol\":19179:19183  _tos */\n      dup8\n      dup8\n        /* \"LuckyBall_flattened.sol\":19184:19185  i */\n      dup5\n        /* \"LuckyBall_flattened.sol\":19179:19186  _tos[i] */\n      dup2\n      dup2\n      lt\n      tag_238\n      jumpi\n      tag_239\n      tag_225\n      jump\t// in\n    tag_239:\n    tag_238:\n      swap1\n      pop\n      0x20\n      mul\n      add\n      0x20\n      dup2\n      add\n      swap1\n      tag_240\n      swap2\n      swap1\n      tag_73\n      jump\t// in\n    tag_240:\n        /* \"LuckyBall_flattened.sol\":19164:19187  userBallGroups[_tos[i]] */\n      0xffffffffffffffffffffffffffffffffffffffff\n      and\n      0xffffffffffffffffffffffffffffffffffffffff\n      and\n      dup2\n      mstore\n      0x20\n      add\n      swap1\n      dup2\n      mstore\n      0x20\n      add\n      0x00\n      keccak256\n        /* \"LuckyBall_flattened.sol\":19164:19198  userBallGroups[_tos[i]][_seasonId] */\n      0x00\n        /* \"LuckyBall_flattened.sol\":19188:19197  _seasonId */\n      sload(0x01)\n        /* \"LuckyBall_flattened.sol\":19164:19198  userBallGroups[_tos[i]][_seasonId] */\n      dup2\n      mstore\n      0x20\n      add\n      swap1\n      dup2\n      mstore\n      0x20\n      add\n      0x00\n      keccak256\n        /* \"LuckyBall_flattened.sol\":19222:19223  1 */\n      0x01\n        /* \"LuckyBall_flattened.sol\":19204:19214  ballGroups */\n      0x05\n        /* \"LuckyBall_flattened.sol\":19204:19221  ballGroups.length */\n      dup1\n      sload\n      swap1\n      pop\n        /* \"LuckyBall_flattened.sol\":19204:19223  ballGroups.length-1 */\n      tag_241\n      swap2\n      swap1\n      tag_242\n      jump\t// in\n    tag_241:\n        /* \"LuckyBall_flattened.sol\":19164:19224  userBallGroups[_tos[i]][_seasonId].push(ballGroups.length-1) */\n      swap1\n      dup1\n      0x01\n      dup2\n      sload\n      add\n      dup1\n      dup3\n      sstore\n      dup1\n      swap2\n      pop\n      pop\n      0x01\n      swap1\n      sub\n      swap1\n      0x00\n      mstore\n      keccak256(0x00, 0x20)\n      add\n      0x00\n      swap1\n      swap2\n      swap1\n      swap2\n      swap1\n      swap2\n      pop\n      sstore\n        /* \"LuckyBall_flattened.sol\":19276:19280  _qty */\n      dup4\n      dup4\n        /* \"LuckyBall_flattened.sol\":19281:19282  i */\n      dup3\n        /* \"LuckyBall_flattened.sol\":19276:19283  _qty[i] */\n      dup2\n      dup2\n      lt\n      tag_244\n      jumpi\n      tag_245\n      tag_225\n      jump\t// in\n    tag_245:\n    tag_244:\n      swap1\n      pop\n      0x20\n      mul\n      add\n      calldataload\n        /* \"LuckyBall_flattened.sol\":19238:19252  userBallCounts */\n      0x12\n        /* \"LuckyBall_flattened.sol\":19238:19261  userBallCounts[_tos[i]] */\n      0x00\n        /* \"LuckyBall_flattened.sol\":19253:19257  _tos */\n      dup9\n      dup9\n        /* \"LuckyBall_flattened.sol\":19258:19259  i */\n      dup6\n        /* \"LuckyBall_flattened.sol\":19253:19260  _tos[i] */\n      dup2\n      dup2\n      lt\n      tag_246\n      jumpi\n      tag_247\n      tag_225\n      jump\t// in\n    tag_247:\n    tag_246:\n      swap1\n      pop\n      0x20\n      mul\n      add\n      0x20\n      dup2\n      add\n      swap1\n      tag_248\n      swap2\n      swap1\n      tag_73\n      jump\t// in\n    tag_248:\n        /* \"LuckyBall_flattened.sol\":19238:19261  userBallCounts[_tos[i]] */\n      0xffffffffffffffffffffffffffffffffffffffff\n      and\n      0xffffffffffffffffffffffffffffffffffffffff\n      and\n      dup2\n      mstore\n      0x20\n      add\n      swap1\n      dup2\n      mstore\n      0x20\n      add\n      0x00\n      keccak256\n        /* \"LuckyBall_flattened.sol\":19238:19272  userBallCounts[_tos[i]][_seasonId] */\n      0x00\n        /* \"LuckyBall_flattened.sol\":19262:19271  _seasonId */\n      sload(0x01)\n        /* \"LuckyBall_flattened.sol\":19238:19272  userBallCounts[_tos[i]][_seasonId] */\n      dup2\n      mstore\n      0x20\n      add\n      swap1\n      dup2\n      mstore\n      0x20\n      add\n      0x00\n      keccak256\n      0x00\n        /* \"LuckyBall_flattened.sol\":19238:19283  userBallCounts[_tos[i]][_seasonId] += _qty[i] */\n      dup3\n      dup3\n      sload\n      tag_249\n      swap2\n      swap1\n      tag_232\n      jump\t// in\n    tag_249:\n      swap3\n      pop\n      pop\n      dup2\n      swap1\n      sstore\n      pop\n        /* \"LuckyBall_flattened.sol\":19324:19328  _tos */\n      dup6\n      dup6\n        /* \"LuckyBall_flattened.sol\":19329:19330  i */\n      dup3\n        /* \"LuckyBall_flattened.sol\":19324:19331  _tos[i] */\n      dup2\n      dup2\n      lt\n      tag_250\n      jumpi\n      tag_251\n      tag_225\n      jump\t// in\n    tag_251:\n    tag_250:\n      swap1\n      pop\n      0x20\n      mul\n      add\n      0x20\n      dup2\n      add\n      swap1\n      tag_252\n      swap2\n      swap1\n      tag_73\n      jump\t// in\n    tag_252:\n        /* \"LuckyBall_flattened.sol\":19302:19352  BallIssued(_seasonId, _tos[i], _qty[i], ballCount) */\n      0xffffffffffffffffffffffffffffffffffffffff\n      and\n      0xd7ede6383f46d0f3b406e1291de4c475b0b91222d1f8d31988d236445af00df1\n        /* \"LuckyBall_flattened.sol\":19313:19322  _seasonId */\n      sload(0x01)\n        /* \"LuckyBall_flattened.sol\":19333:19337  _qty */\n      dup7\n      dup7\n        /* \"LuckyBall_flattened.sol\":19338:19339  i */\n      dup6\n        /* \"LuckyBall_flattened.sol\":19333:19340  _qty[i] */\n      dup2\n      dup2\n      lt\n      tag_253\n      jumpi\n      tag_254\n      tag_225\n      jump\t// in\n    tag_254:\n    tag_253:\n      swap1\n      pop\n      0x20\n      mul\n      add\n      calldataload\n        /* \"LuckyBall_flattened.sol\":19342:19351  ballCount */\n      sload(0x07)\n        /* \"LuckyBall_flattened.sol\":19302:19352  BallIssued(_seasonId, _tos[i], _qty[i], ballCount) */\n      mload(0x40)\n      tag_255\n      swap4\n      swap3\n      swap2\n      swap1\n      tag_256\n      jump\t// in\n    tag_255:\n      mload(0x40)\n      dup1\n      swap2\n      sub\n      swap1\n      log2\n        /* \"LuckyBall_flattened.sol\":18957:18960  i++ */\n      dup1\n      dup1\n      tag_257\n      swap1\n      tag_258\n      jump\t// in\n    tag_257:\n      swap2\n      pop\n      pop\n        /* \"LuckyBall_flattened.sol\":18928:19363  for(uint i=0; i<_tos.length; i++) {... */\n      jump(tag_220)\n    tag_221:\n      pop\n        /* \"LuckyBall_flattened.sol\":19380:19384  true */\n      0x01\n        /* \"LuckyBall_flattened.sol\":19373:19384  return true */\n      swap1\n      pop\n        /* \"LuckyBall_flattened.sol\":18647:19398  function issueBalls(address[] calldata _tos, uint[] calldata _qty) external onlyOperators() returns (bool) {... */\n      swap5\n      swap4\n      pop\n      pop\n      pop\n      pop\n      jump\t// out\n        /* \"LuckyBall_flattened.sol\":6650:6906  function rawFulfillRandomWords(uint256 requestId, uint256[] memory randomWords) external {... */\n    tag_70:\n        /* \"LuckyBall_flattened.sol\":6763:6777  vrfCoordinator */\n      immutable(\"0x1a192fabce13988b84994d4296e6cdc418d55e2f1d7f942188d4040b94fc57ac\")\n        /* \"LuckyBall_flattened.sol\":6749:6777  msg.sender != vrfCoordinator */\n      0xffffffffffffffffffffffffffffffffffffffff\n      and\n        /* \"LuckyBall_flattened.sol\":6749:6759  msg.sender */\n      caller\n        /* \"LuckyBall_flattened.sol\":6749:6777  msg.sender != vrfCoordinator */\n      0xffffffffffffffffffffffffffffffffffffffff\n      and\n      eq\n        /* \"LuckyBall_flattened.sol\":6745:6854  if (msg.sender != vrfCoordinator) {... */\n      tag_260\n      jumpi\n        /* \"LuckyBall_flattened.sol\":6820:6830  msg.sender */\n      caller\n        /* \"LuckyBall_flattened.sol\":6832:6846  vrfCoordinator */\n      immutable(\"0x1a192fabce13988b84994d4296e6cdc418d55e2f1d7f942188d4040b94fc57ac\")\n        /* \"LuckyBall_flattened.sol\":6794:6847  OnlyCoordinatorCanFulfill(msg.sender, vrfCoordinator) */\n      mload(0x40)\n      0x1cf993f400000000000000000000000000000000000000000000000000000000\n      dup2\n      mstore\n      0x04\n      add\n      tag_261\n      swap3\n      swap2\n      swap1\n      tag_262\n      jump\t// in\n    tag_261:\n      mload(0x40)\n      dup1\n      swap2\n      sub\n      swap1\n      revert\n        /* \"LuckyBall_flattened.sol\":6745:6854  if (msg.sender != vrfCoordinator) {... */\n    tag_260:\n        /* \"LuckyBall_flattened.sol\":6859:6901  fulfillRandomWords(requestId, randomWords) */\n      tag_263\n        /* \"LuckyBall_flattened.sol\":6878:6887  requestId */\n      dup3\n        /* \"LuckyBall_flattened.sol\":6889:6900  randomWords */\n      dup3\n        /* \"LuckyBall_flattened.sol\":6859:6877  fulfillRandomWords */\n      tag_264\n        /* \"LuckyBall_flattened.sol\":6859:6901  fulfillRandomWords(requestId, randomWords) */\n      jump\t// in\n    tag_263:\n        /* \"LuckyBall_flattened.sol\":6650:6906  function rawFulfillRandomWords(uint256 requestId, uint256[] memory randomWords) external {... */\n      pop\n      pop\n      jump\t// out\n        /* \"LuckyBall_flattened.sol\":13811:13855  mapping(address => uint) public newRevealPos */\n    tag_74:\n      mstore(0x20, 0x11)\n      dup1\n      0x00\n      mstore\n      keccak256(0x00, 0x40)\n      0x00\n      swap2\n      pop\n      swap1\n      pop\n      sload\n      dup2\n      jump\t// out\n        /* \"LuckyBall_flattened.sol\":13436:13467  bytes32 public DOMAIN_SEPARATOR */\n    tag_77:\n      sload(0x0b)\n      dup2\n      jump\t// out\n        /* \"LuckyBall_flattened.sol\":12355:12382  address[] public addrGroups */\n    tag_82:\n      0x06\n      dup2\n      dup2\n      sload\n      dup2\n      lt\n      tag_265\n      jumpi\n      0x00\n      dup1\n      revert\n    tag_265:\n      swap1\n      0x00\n      mstore\n      keccak256(0x00, 0x20)\n      add\n      0x00\n      swap2\n      pop\n      sload\n      swap1\n      0x0100\n      exp\n      swap1\n      div\n      0xffffffffffffffffffffffffffffffffffffffff\n      and\n      dup2\n      jump\t// out\n        /* \"LuckyBall_flattened.sol\":24677:25152  function endSeason() external onlyOperators() returns (bool) {... */\n    tag_86:\n        /* \"LuckyBall_flattened.sol\":24732:24736  bool */\n      0x00\n        /* \"LuckyBall_flattened.sol\":14379:14389  msg.sender */\n      caller\n        /* \"LuckyBall_flattened.sol\":14366:14389  _operator == msg.sender */\n      0xffffffffffffffffffffffffffffffffffffffff\n      and\n        /* \"LuckyBall_flattened.sol\":14366:14375  _operator */\n      0x04\n      0x00\n      swap1\n      sload\n      swap1\n      0x0100\n      exp\n      swap1\n      div\n      0xffffffffffffffffffffffffffffffffffffffff\n      and\n        /* \"LuckyBall_flattened.sol\":14366:14389  _operator == msg.sender */\n      0xffffffffffffffffffffffffffffffffffffffff\n      and\n      eq\n        /* \"LuckyBall_flattened.sol\":14366:14413  _operator == msg.sender || _owner == msg.sender */\n      dup1\n      tag_268\n      jumpi\n      pop\n        /* \"LuckyBall_flattened.sol\":14403:14413  msg.sender */\n      caller\n        /* \"LuckyBall_flattened.sol\":14393:14413  _owner == msg.sender */\n      0xffffffffffffffffffffffffffffffffffffffff\n      and\n        /* \"LuckyBall_flattened.sol\":14393:14399  _owner */\n      0x03\n      0x00\n      swap1\n      sload\n      swap1\n      0x0100\n      exp\n      swap1\n      div\n      0xffffffffffffffffffffffffffffffffffffffff\n      and\n        /* \"LuckyBall_flattened.sol\":14393:14413  _owner == msg.sender */\n      0xffffffffffffffffffffffffffffffffffffffff\n      and\n      eq\n        /* \"LuckyBall_flattened.sol\":14366:14413  _operator == msg.sender || _owner == msg.sender */\n    tag_268:\n        /* \"LuckyBall_flattened.sol\":14358:14464  require(_operator == msg.sender || _owner == msg.sender, \"LuckyBall: caller is not the operator address!\") */\n      tag_269\n      jumpi\n      mload(0x40)\n      0x08c379a000000000000000000000000000000000000000000000000000000000\n      dup2\n      mstore\n      0x04\n      add\n      tag_270\n      swap1\n      tag_211\n      jump\t// in\n    tag_270:\n      mload(0x40)\n      dup1\n      swap2\n      sub\n      swap1\n      revert\n    tag_269:\n        /* \"LuckyBall_flattened.sol\":24773:24774  0 */\n      0x00\n        /* \"LuckyBall_flattened.sol\":24752:24762  ballGroups */\n      0x05\n        /* \"LuckyBall_flattened.sol\":24752:24769  ballGroups.length */\n      dup1\n      sload\n      swap1\n      pop\n        /* \"LuckyBall_flattened.sol\":24752:24774  ballGroups.length == 0 */\n      eq\n        /* \"LuckyBall_flattened.sol\":24748:24813  if (ballGroups.length == 0) {... */\n      iszero\n      tag_272\n      jumpi\n        /* \"LuckyBall_flattened.sol\":24797:24802  false */\n      0x00\n        /* \"LuckyBall_flattened.sol\":24790:24802  return false */\n      swap1\n      pop\n      jump(tag_271)\n        /* \"LuckyBall_flattened.sol\":24748:24813  if (ballGroups.length == 0) {... */\n    tag_272:\n        /* \"LuckyBall_flattened.sol\":24826:24838  revealNeeded */\n      0x08\n      0x00\n      swap1\n      sload\n      swap1\n      0x0100\n      exp\n      swap1\n      div\n      0xff\n      and\n        /* \"LuckyBall_flattened.sol\":24822:24889  if (revealNeeded) {... */\n      iszero\n      tag_273\n      jumpi\n        /* \"LuckyBall_flattened.sol\":24854:24878  requestRevealGroupSeed() */\n      tag_274\n        /* \"LuckyBall_flattened.sol\":24854:24876  requestRevealGroupSeed */\n      tag_170\n        /* \"LuckyBall_flattened.sol\":24854:24878  requestRevealGroupSeed() */\n      jump\t// in\n    tag_274:\n      pop\n        /* \"LuckyBall_flattened.sol\":24822:24889  if (revealNeeded) {... */\n    tag_273:\n        /* \"LuckyBall_flattened.sol\":24898:24912  uint endBallId */\n      0x00\n        /* \"LuckyBall_flattened.sol\":24915:24925  ballGroups */\n      0x05\n        /* \"LuckyBall_flattened.sol\":24944:24945  1 */\n      0x01\n        /* \"LuckyBall_flattened.sol\":24926:24936  ballGroups */\n      0x05\n        /* \"LuckyBall_flattened.sol\":24926:24943  ballGroups.length */\n      dup1\n      sload\n      swap1\n      pop\n        /* \"LuckyBall_flattened.sol\":24926:24945  ballGroups.length-1 */\n      tag_275\n      swap2\n      swap1\n      tag_242\n      jump\t// in\n    tag_275:\n        /* \"LuckyBall_flattened.sol\":24915:24946  ballGroups[ballGroups.length-1] */\n      dup2\n      sload\n      dup2\n      lt\n      tag_276\n      jumpi\n      tag_277\n      tag_225\n      jump\t// in\n    tag_277:\n    tag_276:\n      swap1\n      0x00\n      mstore\n      keccak256(0x00, 0x20)\n      add\n      sload\n        /* \"LuckyBall_flattened.sol\":24898:24946  uint endBallId = ballGroups[ballGroups.length-1] */\n      swap1\n      pop\n        /* \"LuckyBall_flattened.sol\":24973:24980  seasons */\n      0x0d\n        /* \"LuckyBall_flattened.sol\":24973:24991  seasons[_seasonId] */\n      0x00\n        /* \"LuckyBall_flattened.sol\":24981:24990  _seasonId */\n      sload(0x01)\n        /* \"LuckyBall_flattened.sol\":24973:24991  seasons[_seasonId] */\n      dup2\n      mstore\n      0x20\n      add\n      swap1\n      dup2\n      mstore\n      0x20\n      add\n      0x00\n      keccak256\n        /* \"LuckyBall_flattened.sol\":24973:25001  seasons[_seasonId].endBallId */\n      0x02\n      add\n      sload\n        /* \"LuckyBall_flattened.sol\":24960:24969  endBallId */\n      dup2\n        /* \"LuckyBall_flattened.sol\":24960:25001  endBallId == seasons[_seasonId].endBallId */\n      eq\n        /* \"LuckyBall_flattened.sol\":24956:25041  if (endBallId == seasons[_seasonId].endBallId ) {... */\n      iszero\n      tag_279\n      jumpi\n        /* \"LuckyBall_flattened.sol\":25025:25030  false */\n      0x00\n        /* \"LuckyBall_flattened.sol\":25018:25030  return false */\n      swap2\n      pop\n      pop\n      jump(tag_271)\n        /* \"LuckyBall_flattened.sol\":24956:25041  if (endBallId == seasons[_seasonId].endBallId ) {... */\n    tag_279:\n        /* \"LuckyBall_flattened.sol\":25081:25090  endBallId */\n      dup1\n        /* \"LuckyBall_flattened.sol\":25050:25057  seasons */\n      0x0d\n        /* \"LuckyBall_flattened.sol\":25050:25068  seasons[_seasonId] */\n      0x00\n        /* \"LuckyBall_flattened.sol\":25058:25067  _seasonId */\n      sload(0x01)\n        /* \"LuckyBall_flattened.sol\":25050:25068  seasons[_seasonId] */\n      dup2\n      mstore\n      0x20\n      add\n      swap1\n      dup2\n      mstore\n      0x20\n      add\n      0x00\n      keccak256\n        /* \"LuckyBall_flattened.sol\":25050:25078  seasons[_seasonId].endBallId */\n      0x02\n      add\n        /* \"LuckyBall_flattened.sol\":25050:25090  seasons[_seasonId].endBallId = endBallId */\n      dup2\n      swap1\n      sstore\n      pop\n        /* \"LuckyBall_flattened.sol\":25100:25123  requestRandomSeed(true) */\n      tag_280\n        /* \"LuckyBall_flattened.sol\":25118:25122  true */\n      0x01\n        /* \"LuckyBall_flattened.sol\":25100:25117  requestRandomSeed */\n      tag_281\n        /* \"LuckyBall_flattened.sol\":25100:25123  requestRandomSeed(true) */\n      jump\t// in\n    tag_280:\n      pop\n        /* \"LuckyBall_flattened.sol\":25141:25145  true */\n      0x01\n        /* \"LuckyBall_flattened.sol\":25134:25145  return true */\n      swap2\n      pop\n      pop\n        /* \"LuckyBall_flattened.sol\":14474:14475  _ */\n    tag_271:\n        /* \"LuckyBall_flattened.sol\":24677:25152  function endSeason() external onlyOperators() returns (bool) {... */\n      swap1\n      jump\t// out\n        /* \"LuckyBall_flattened.sol\":23782:24273  function relayRequestReveal(        ... */\n    tag_91:\n        /* \"LuckyBall_flattened.sol\":23944:23948  bool */\n      0x00\n        /* \"LuckyBall_flattened.sol\":23981:23996  block.timestamp */\n      timestamp\n        /* \"LuckyBall_flattened.sol\":23969:23977  deadline */\n      dup6\n        /* \"LuckyBall_flattened.sol\":23969:23996  deadline >= block.timestamp */\n      lt\n      iszero\n        /* \"LuckyBall_flattened.sol\":23961:24028  require(deadline >= block.timestamp, \"LuckyBall: expired deadline\") */\n      tag_283\n      jumpi\n      mload(0x40)\n      0x08c379a000000000000000000000000000000000000000000000000000000000\n      dup2\n      mstore\n      0x04\n      add\n      tag_284\n      swap1\n      tag_285\n      jump\t// in\n    tag_284:\n      mload(0x40)\n      dup1\n      swap2\n      sub\n      swap1\n      revert\n    tag_283:\n        /* \"LuckyBall_flattened.sol\":24046:24095  verifySig(user, deadline, _nonces[user], v, r, s) */\n      tag_286\n        /* \"LuckyBall_flattened.sol\":24056:24060  user */\n      dup7\n        /* \"LuckyBall_flattened.sol\":24062:24070  deadline */\n      dup7\n        /* \"LuckyBall_flattened.sol\":24072:24079  _nonces */\n      0x0c\n        /* \"LuckyBall_flattened.sol\":24072:24085  _nonces[user] */\n      0x00\n        /* \"LuckyBall_flattened.sol\":24080:24084  user */\n      dup11\n        /* \"LuckyBall_flattened.sol\":24072:24085  _nonces[user] */\n      0xffffffffffffffffffffffffffffffffffffffff\n      and\n      0xffffffffffffffffffffffffffffffffffffffff\n      and\n      dup2\n      mstore\n      0x20\n      add\n      swap1\n      dup2\n      mstore\n      0x20\n      add\n      0x00\n      keccak256\n      sload\n        /* \"LuckyBall_flattened.sol\":24087:24088  v */\n      dup8\n        /* \"LuckyBall_flattened.sol\":24090:24091  r */\n      dup8\n        /* \"LuckyBall_flattened.sol\":24093:24094  s */\n      dup8\n        /* \"LuckyBall_flattened.sol\":24046:24055  verifySig */\n      tag_100\n        /* \"LuckyBall_flattened.sol\":24046:24095  verifySig(user, deadline, _nonces[user], v, r, s) */\n      jump\t// in\n    tag_286:\n        /* \"LuckyBall_flattened.sol\":24038:24134  require(verifySig(user, deadline, _nonces[user], v, r, s), \"LuckyBall: user sig does not match\") */\n      tag_287\n      jumpi\n      mload(0x40)\n      0x08c379a000000000000000000000000000000000000000000000000000000000\n      dup2\n      mstore\n      0x04\n      add\n      tag_288\n      swap1\n      tag_289\n      jump\t// in\n    tag_288:\n      mload(0x40)\n      dup1\n      swap2\n      sub\n      swap1\n      revert\n    tag_287:\n        /* \"LuckyBall_flattened.sol\":24153:24173  _requestReveal(user) */\n      tag_290\n        /* \"LuckyBall_flattened.sol\":24168:24172  user */\n      dup7\n        /* \"LuckyBall_flattened.sol\":24153:24167  _requestReveal */\n      tag_291\n        /* \"LuckyBall_flattened.sol\":24153:24173  _requestReveal(user) */\n      jump\t// in\n    tag_290:\n      pop\n        /* \"LuckyBall_flattened.sol\":24215:24219  user */\n      dup6\n        /* \"LuckyBall_flattened.sol\":24188:24220  RevealRequested(_seasonId, user) */\n      0xffffffffffffffffffffffffffffffffffffffff\n      and\n      0xa202ebfe1c0b55b9f79fe93552e9c6e90996eef6d399adc87d083ade6c0a9278\n        /* \"LuckyBall_flattened.sol\":24204:24213  _seasonId */\n      sload(0x01)\n        /* \"LuckyBall_flattened.sol\":24188:24220  RevealRequested(_seasonId, user) */\n      mload(0x40)\n      tag_292\n      swap2\n      swap1\n      tag_54\n      jump\t// in\n    tag_292:\n      mload(0x40)\n      dup1\n      swap2\n      sub\n      swap1\n      log2\n        /* \"LuckyBall_flattened.sol\":24230:24237  _nonces */\n      0x0c\n        /* \"LuckyBall_flattened.sol\":24230:24243  _nonces[user] */\n      0x00\n        /* \"LuckyBall_flattened.sol\":24238:24242  user */\n      dup8\n        /* \"LuckyBall_flattened.sol\":24230:24243  _nonces[user] */\n      0xffffffffffffffffffffffffffffffffffffffff\n      and\n      0xffffffffffffffffffffffffffffffffffffffff\n      and\n      dup2\n      mstore\n      0x20\n      add\n      swap1\n      dup2\n      mstore\n      0x20\n      add\n      0x00\n      keccak256\n      0x00\n        /* \"LuckyBall_flattened.sol\":24230:24245  _nonces[user]++ */\n      dup2\n      sload\n      dup1\n      swap3\n      swap2\n      swap1\n      tag_293\n      swap1\n      tag_258\n      jump\t// in\n    tag_293:\n      swap2\n      swap1\n      pop\n      sstore\n      pop\n        /* \"LuckyBall_flattened.sol\":24262:24266  true */\n      0x01\n        /* \"LuckyBall_flattened.sol\":24255:24266  return true */\n      swap1\n      pop\n        /* \"LuckyBall_flattened.sol\":23782:24273  function relayRequestReveal(        ... */\n      swap6\n      swap5\n      pop\n      pop\n      pop\n      pop\n      pop\n      jump\t// out\n        /* \"LuckyBall_flattened.sol\":19982:20300  function ownerOf(uint ballId) public view returns (address) {... */\n    tag_95:\n        /* \"LuckyBall_flattened.sol\":20033:20040  address */\n      0x00\n        /* \"LuckyBall_flattened.sol\":20066:20067  0 */\n      dup1\n        /* \"LuckyBall_flattened.sol\":20056:20062  ballId */\n      dup3\n        /* \"LuckyBall_flattened.sol\":20056:20067  ballId == 0 */\n      eq\n        /* \"LuckyBall_flattened.sol\":20052:20111  if (ballId == 0) {... */\n      iszero\n      tag_295\n      jumpi\n        /* \"LuckyBall_flattened.sol\":20098:20099  0 */\n      0x00\n        /* \"LuckyBall_flattened.sol\":20083:20100  return address(0) */\n      swap1\n      pop\n      jump(tag_294)\n        /* \"LuckyBall_flattened.sol\":20052:20111  if (ballId == 0) {... */\n    tag_295:\n        /* \"LuckyBall_flattened.sol\":20124:20130  uint i */\n      0x00\n        /* \"LuckyBall_flattened.sol\":20120:20267  for(uint i=0; i < ballGroups.length; i++) {... */\n    tag_296:\n        /* \"LuckyBall_flattened.sol\":20138:20148  ballGroups */\n      0x05\n        /* \"LuckyBall_flattened.sol\":20138:20155  ballGroups.length */\n      dup1\n      sload\n      swap1\n      pop\n        /* \"LuckyBall_flattened.sol\":20134:20135  i */\n      dup2\n        /* \"LuckyBall_flattened.sol\":20134:20155  i < ballGroups.length */\n      lt\n        /* \"LuckyBall_flattened.sol\":20120:20267  for(uint i=0; i < ballGroups.length; i++) {... */\n      iszero\n      tag_297\n      jumpi\n        /* \"LuckyBall_flattened.sol\":20189:20199  ballGroups */\n      0x05\n        /* \"LuckyBall_flattened.sol\":20200:20201  i */\n      dup2\n        /* \"LuckyBall_flattened.sol\":20189:20202  ballGroups[i] */\n      dup2\n      sload\n      dup2\n      lt\n      tag_299\n      jumpi\n      tag_300\n      tag_225\n      jump\t// in\n    tag_300:\n    tag_299:\n      swap1\n      0x00\n      mstore\n      keccak256(0x00, 0x20)\n      add\n      sload\n        /* \"LuckyBall_flattened.sol\":20179:20185  ballId */\n      dup4\n        /* \"LuckyBall_flattened.sol\":20179:20202  ballId <= ballGroups[i] */\n      gt\n        /* \"LuckyBall_flattened.sol\":20176:20257  if(ballId <= ballGroups[i]) {... */\n      tag_302\n      jumpi\n        /* \"LuckyBall_flattened.sol\":20229:20239  addrGroups */\n      0x06\n        /* \"LuckyBall_flattened.sol\":20240:20241  i */\n      dup2\n        /* \"LuckyBall_flattened.sol\":20229:20242  addrGroups[i] */\n      dup2\n      sload\n      dup2\n      lt\n      tag_303\n      jumpi\n      tag_304\n      tag_225\n      jump\t// in\n    tag_304:\n    tag_303:\n      swap1\n      0x00\n      mstore\n      keccak256(0x00, 0x20)\n      add\n      0x00\n      swap1\n      sload\n      swap1\n      0x0100\n      exp\n      swap1\n      div\n      0xffffffffffffffffffffffffffffffffffffffff\n      and\n        /* \"LuckyBall_flattened.sol\":20222:20242  return addrGroups[i] */\n      swap2\n      pop\n      pop\n      jump(tag_294)\n        /* \"LuckyBall_flattened.sol\":20176:20257  if(ballId <= ballGroups[i]) {... */\n    tag_302:\n        /* \"LuckyBall_flattened.sol\":20157:20160  i++ */\n      dup1\n      dup1\n      tag_306\n      swap1\n      tag_258\n      jump\t// in\n    tag_306:\n      swap2\n      pop\n      pop\n        /* \"LuckyBall_flattened.sol\":20120:20267  for(uint i=0; i < ballGroups.length; i++) {... */\n      jump(tag_296)\n    tag_297:\n      pop\n        /* \"LuckyBall_flattened.sol\":20291:20292  0 */\n      0x00\n        /* \"LuckyBall_flattened.sol\":20276:20293  return address(0) */\n      swap1\n      pop\n        /* \"LuckyBall_flattened.sol\":19982:20300  function ownerOf(uint ballId) public view returns (address) {... */\n    tag_294:\n      swap2\n      swap1\n      pop\n      jump\t// out\n        /* \"LuckyBall_flattened.sol\":16985:17278  function verifySig(address _user, uint _deadline, uint _nonce,  uint8 v, bytes32 r,bytes32 s) public view returns (bool) {... */\n    tag_100:\n        /* \"LuckyBall_flattened.sol\":17100:17104  bool */\n      0x00\n        /* \"LuckyBall_flattened.sol\":17116:17128  bytes32 hash */\n      dup1\n        /* \"LuckyBall_flattened.sol\":17131:17170  getEIP712Hash(_user, _deadline, _nonce) */\n      tag_308\n        /* \"LuckyBall_flattened.sol\":17145:17150  _user */\n      dup9\n        /* \"LuckyBall_flattened.sol\":17152:17161  _deadline */\n      dup9\n        /* \"LuckyBall_flattened.sol\":17163:17169  _nonce */\n      dup9\n        /* \"LuckyBall_flattened.sol\":17131:17144  getEIP712Hash */\n      tag_145\n        /* \"LuckyBall_flattened.sol\":17131:17170  getEIP712Hash(_user, _deadline, _nonce) */\n      jump\t// in\n    tag_308:\n        /* \"LuckyBall_flattened.sol\":17116:17170  bytes32 hash = getEIP712Hash(_user, _deadline, _nonce) */\n      swap1\n      pop\n        /* \"LuckyBall_flattened.sol\":17188:17190  27 */\n      0x1b\n        /* \"LuckyBall_flattened.sol\":17184:17185  v */\n      dup6\n        /* \"LuckyBall_flattened.sol\":17184:17190  v < 27 */\n      0xff\n      and\n      lt\n        /* \"LuckyBall_flattened.sol\":17180:17222  if (v < 27) {... */\n      iszero\n      tag_309\n      jumpi\n        /* \"LuckyBall_flattened.sol\":17209:17211  27 */\n      0x1b\n        /* \"LuckyBall_flattened.sol\":17204:17211  v += 27 */\n      dup6\n      tag_310\n      swap2\n      swap1\n      tag_311\n      jump\t// in\n    tag_310:\n      swap5\n      pop\n        /* \"LuckyBall_flattened.sol\":17180:17222  if (v < 27) {... */\n    tag_309:\n        /* \"LuckyBall_flattened.sol\":17247:17271  ecrecover(hash, v, r, s) */\n      0x01\n        /* \"LuckyBall_flattened.sol\":17257:17261  hash */\n      dup2\n        /* \"LuckyBall_flattened.sol\":17263:17264  v */\n      dup7\n        /* \"LuckyBall_flattened.sol\":17266:17267  r */\n      dup7\n        /* \"LuckyBall_flattened.sol\":17269:17270  s */\n      dup7\n        /* \"LuckyBall_flattened.sol\":17247:17271  ecrecover(hash, v, r, s) */\n      mload(0x40)\n      0x00\n      dup2\n      mstore\n      0x20\n      add\n      0x40\n      mstore\n      mload(0x40)\n      tag_312\n      swap5\n      swap4\n      swap3\n      swap2\n      swap1\n      tag_313\n      jump\t// in\n    tag_312:\n      0x20\n      mload(0x40)\n      0x20\n      dup2\n      sub\n      swap1\n      dup1\n      dup5\n      sub\n      swap1\n      dup6\n      gas\n      staticcall\n      iszero\n      dup1\n      iszero\n      tag_315\n      jumpi\n      returndatasize\n      0x00\n      dup1\n      returndatacopy\n      revert(0x00, returndatasize)\n    tag_315:\n      pop\n      pop\n      pop\n      mload(sub(mload(0x40), 0x20))\n        /* \"LuckyBall_flattened.sol\":17238:17271  _user == ecrecover(hash, v, r, s) */\n      0xffffffffffffffffffffffffffffffffffffffff\n      and\n        /* \"LuckyBall_flattened.sol\":17238:17243  _user */\n      dup9\n        /* \"LuckyBall_flattened.sol\":17238:17271  _user == ecrecover(hash, v, r, s) */\n      0xffffffffffffffffffffffffffffffffffffffff\n      and\n      eq\n        /* \"LuckyBall_flattened.sol\":17231:17271  return _user == ecrecover(hash, v, r, s) */\n      swap2\n      pop\n      pop\n        /* \"LuckyBall_flattened.sol\":16985:17278  function verifySig(address _user, uint _deadline, uint _nonce,  uint8 v, bytes32 r,bytes32 s) public view returns (bool) {... */\n      swap7\n      swap6\n      pop\n      pop\n      pop\n      pop\n      pop\n      pop\n      jump\t// out\n        /* \"LuckyBall_flattened.sol\":19404:19593  function getUserBallGroups(address addr, uint seasonId) public view returns (uint[] memory) {... */\n    tag_105:\n        /* \"LuckyBall_flattened.sol\":19481:19494  uint[] memory */\n      0x60\n        /* \"LuckyBall_flattened.sol\":19506:19528  uint[] memory myGroups */\n      0x00\n        /* \"LuckyBall_flattened.sol\":19531:19545  userBallGroups */\n      0x0e\n        /* \"LuckyBall_flattened.sol\":19531:19551  userBallGroups[addr] */\n      0x00\n        /* \"LuckyBall_flattened.sol\":19546:19550  addr */\n      dup6\n        /* \"LuckyBall_flattened.sol\":19531:19551  userBallGroups[addr] */\n      0xffffffffffffffffffffffffffffffffffffffff\n      and\n      0xffffffffffffffffffffffffffffffffffffffff\n      and\n      dup2\n      mstore\n      0x20\n      add\n      swap1\n      dup2\n      mstore\n      0x20\n      add\n      0x00\n      keccak256\n        /* \"LuckyBall_flattened.sol\":19531:19561  userBallGroups[addr][seasonId] */\n      0x00\n        /* \"LuckyBall_flattened.sol\":19552:19560  seasonId */\n      dup5\n        /* \"LuckyBall_flattened.sol\":19531:19561  userBallGroups[addr][seasonId] */\n      dup2\n      mstore\n      0x20\n      add\n      swap1\n      dup2\n      mstore\n      0x20\n      add\n      0x00\n      keccak256\n        /* \"LuckyBall_flattened.sol\":19506:19561  uint[] memory myGroups = userBallGroups[addr][seasonId] */\n      dup1\n      sload\n      dup1\n      0x20\n      mul\n      0x20\n      add\n      mload(0x40)\n      swap1\n      dup2\n      add\n      0x40\n      mstore\n      dup1\n      swap3\n      swap2\n      swap1\n      dup2\n      dup2\n      mstore\n      0x20\n      add\n      dup3\n      dup1\n      sload\n      dup1\n      iszero\n      tag_317\n      jumpi\n      0x20\n      mul\n      dup3\n      add\n      swap2\n      swap1\n      0x00\n      mstore\n      keccak256(0x00, 0x20)\n      swap1\n    tag_318:\n      dup2\n      sload\n      dup2\n      mstore\n      0x20\n      add\n      swap1\n      0x01\n      add\n      swap1\n      dup1\n      dup4\n      gt\n      tag_318\n      jumpi\n    tag_317:\n      pop\n      pop\n      pop\n      pop\n      pop\n      swap1\n      pop\n        /* \"LuckyBall_flattened.sol\":19578:19586  myGroups */\n      dup1\n        /* \"LuckyBall_flattened.sol\":19571:19586  return myGroups */\n      swap2\n      pop\n      pop\n        /* \"LuckyBall_flattened.sol\":19404:19593  function getUserBallGroups(address addr, uint seasonId) public view returns (uint[] memory) {... */\n      swap3\n      swap2\n      pop\n      pop\n      jump\t// out\n        /* \"LuckyBall_flattened.sol\":15078:15175  function nonces(address user) public view returns (uint256) {... */\n    tag_110:\n        /* \"LuckyBall_flattened.sol\":15129:15136  uint256 */\n      0x00\n        /* \"LuckyBall_flattened.sol\":15155:15162  _nonces */\n      0x0c\n        /* \"LuckyBall_flattened.sol\":15155:15168  _nonces[user] */\n      0x00\n        /* \"LuckyBall_flattened.sol\":15163:15167  user */\n      dup4\n        /* \"LuckyBall_flattened.sol\":15155:15168  _nonces[user] */\n      0xffffffffffffffffffffffffffffffffffffffff\n      and\n      0xffffffffffffffffffffffffffffffffffffffff\n      and\n      dup2\n      mstore\n      0x20\n      add\n      swap1\n      dup2\n      mstore\n      0x20\n      add\n      0x00\n      keccak256\n      sload\n        /* \"LuckyBall_flattened.sol\":15148:15168  return _nonces[user] */\n      swap1\n      pop\n        /* \"LuckyBall_flattened.sol\":15078:15175  function nonces(address user) public view returns (uint256) {... */\n      swap2\n      swap1\n      pop\n      jump\t// out\n        /* \"LuckyBall_flattened.sol\":13572:13637  mapping(address => mapping(uint => uint[])) public userBallGroups */\n    tag_115:\n      mstore(0x20, 0x0e)\n      dup3\n      0x00\n      mstore\n      mstore(0x20, keccak256(0x00, 0x40))\n      dup2\n      0x00\n      mstore\n      keccak256(0x00, 0x40)\n      dup2\n      dup2\n      sload\n      dup2\n      lt\n      tag_320\n      jumpi\n      0x00\n      dup1\n      revert\n    tag_320:\n      swap1\n      0x00\n      mstore\n      keccak256(0x00, 0x20)\n      add\n      0x00\n      swap3\n      pop\n      swap3\n      pop\n      pop\n      pop\n      sload\n      dup2\n      jump\t// out\n        /* \"LuckyBall_flattened.sol\":17527:17618  function getCurrentSeasionId() public view returns (uint) {... */\n    tag_118:\n        /* \"LuckyBall_flattened.sol\":17579:17583  uint */\n      0x00\n        /* \"LuckyBall_flattened.sol\":17602:17611  _seasonId */\n      sload(0x01)\n        /* \"LuckyBall_flattened.sol\":17595:17611  return _seasonId */\n      swap1\n      pop\n        /* \"LuckyBall_flattened.sol\":17527:17618  function getCurrentSeasionId() public view returns (uint) {... */\n      swap1\n      jump\t// out\n        /* \"LuckyBall_flattened.sol\":17843:18391  function startSeason() external onlyOperators() returns (uint) {... */\n    tag_121:\n        /* \"LuckyBall_flattened.sol\":17900:17904  uint */\n      0x00\n        /* \"LuckyBall_flattened.sol\":14379:14389  msg.sender */\n      caller\n        /* \"LuckyBall_flattened.sol\":14366:14389  _operator == msg.sender */\n      0xffffffffffffffffffffffffffffffffffffffff\n      and\n        /* \"LuckyBall_flattened.sol\":14366:14375  _operator */\n      0x04\n      0x00\n      swap1\n      sload\n      swap1\n      0x0100\n      exp\n      swap1\n      div\n      0xffffffffffffffffffffffffffffffffffffffff\n      and\n        /* \"LuckyBall_flattened.sol\":14366:14389  _operator == msg.sender */\n      0xffffffffffffffffffffffffffffffffffffffff\n      and\n      eq\n        /* \"LuckyBall_flattened.sol\":14366:14413  _operator == msg.sender || _owner == msg.sender */\n      dup1\n      tag_324\n      jumpi\n      pop\n        /* \"LuckyBall_flattened.sol\":14403:14413  msg.sender */\n      caller\n        /* \"LuckyBall_flattened.sol\":14393:14413  _owner == msg.sender */\n      0xffffffffffffffffffffffffffffffffffffffff\n      and\n        /* \"LuckyBall_flattened.sol\":14393:14399  _owner */\n      0x03\n      0x00\n      swap1\n      sload\n      swap1\n      0x0100\n      exp\n      swap1\n      div\n      0xffffffffffffffffffffffffffffffffffffffff\n      and\n        /* \"LuckyBall_flattened.sol\":14393:14413  _owner == msg.sender */\n      0xffffffffffffffffffffffffffffffffffffffff\n      and\n      eq\n        /* \"LuckyBall_flattened.sol\":14366:14413  _operator == msg.sender || _owner == msg.sender */\n    tag_324:\n        /* \"LuckyBall_flattened.sol\":14358:14464  require(_operator == msg.sender || _owner == msg.sender, \"LuckyBall: caller is not the operator address!\") */\n      tag_325\n      jumpi\n      mload(0x40)\n      0x08c379a000000000000000000000000000000000000000000000000000000000\n      dup2\n      mstore\n      0x04\n      add\n      tag_326\n      swap1\n      tag_211\n      jump\t// in\n    tag_326:\n      mload(0x40)\n      dup1\n      swap2\n      sub\n      swap1\n      revert\n    tag_325:\n        /* \"LuckyBall_flattened.sol\":17916:17925  _seasonId */\n      0x01\n      0x00\n        /* \"LuckyBall_flattened.sol\":17916:17927  _seasonId++ */\n      dup2\n      sload\n      dup1\n      swap3\n      swap2\n      swap1\n      tag_328\n      swap1\n      tag_258\n      jump\t// in\n    tag_328:\n      swap2\n      swap1\n      pop\n      sstore\n      pop\n        /* \"LuckyBall_flattened.sol\":17937:17947  uint start */\n      0x00\n        /* \"LuckyBall_flattened.sol\":17982:17983  0 */\n      dup1\n        /* \"LuckyBall_flattened.sol\":17961:17971  ballGroups */\n      0x05\n        /* \"LuckyBall_flattened.sol\":17961:17978  ballGroups.length */\n      dup1\n      sload\n      swap1\n      pop\n        /* \"LuckyBall_flattened.sol\":17961:17983  ballGroups.length == 0 */\n      eq\n        /* \"LuckyBall_flattened.sol\":17957:18102  if (ballGroups.length == 0) {... */\n      iszero\n      tag_329\n      jumpi\n        /* \"LuckyBall_flattened.sol\":18007:18008  1 */\n      0x01\n        /* \"LuckyBall_flattened.sol\":17999:18008  start = 1 */\n      swap1\n      pop\n        /* \"LuckyBall_flattened.sol\":17957:18102  if (ballGroups.length == 0) {... */\n      jump(tag_330)\n    tag_329:\n        /* \"LuckyBall_flattened.sol\":18090:18091  1 */\n      0x01\n        /* \"LuckyBall_flattened.sol\":18051:18061  ballGroups */\n      0x05\n        /* \"LuckyBall_flattened.sol\":18087:18088  1 */\n      0x01\n        /* \"LuckyBall_flattened.sol\":18062:18086  getCurrentBallGroupPos() */\n      tag_331\n        /* \"LuckyBall_flattened.sol\":18062:18084  getCurrentBallGroupPos */\n      tag_60\n        /* \"LuckyBall_flattened.sol\":18062:18086  getCurrentBallGroupPos() */\n      jump\t// in\n    tag_331:\n        /* \"LuckyBall_flattened.sol\":18062:18088  getCurrentBallGroupPos()-1 */\n      tag_332\n      swap2\n      swap1\n      tag_242\n      jump\t// in\n    tag_332:\n        /* \"LuckyBall_flattened.sol\":18051:18089  ballGroups[getCurrentBallGroupPos()-1] */\n      dup2\n      sload\n      dup2\n      lt\n      tag_333\n      jumpi\n      tag_334\n      tag_225\n      jump\t// in\n    tag_334:\n    tag_333:\n      swap1\n      0x00\n      mstore\n      keccak256(0x00, 0x20)\n      add\n      sload\n        /* \"LuckyBall_flattened.sol\":18051:18091  ballGroups[getCurrentBallGroupPos()-1]+1 */\n      tag_336\n      swap2\n      swap1\n      tag_232\n      jump\t// in\n    tag_336:\n        /* \"LuckyBall_flattened.sol\":18043:18091  start = ballGroups[getCurrentBallGroupPos()-1]+1 */\n      swap1\n      pop\n        /* \"LuckyBall_flattened.sol\":17957:18102  if (ballGroups.length == 0) {... */\n    tag_330:\n        /* \"LuckyBall_flattened.sol\":18154:18318  Season(_seasonId, ... */\n      mload(0x40)\n      dup1\n      0xa0\n      add\n      0x40\n      mstore\n      dup1\n        /* \"LuckyBall_flattened.sol\":18161:18170  _seasonId */\n      sload(0x01)\n        /* \"LuckyBall_flattened.sol\":18154:18318  Season(_seasonId, ... */\n      dup2\n      mstore\n      0x20\n      add\n        /* \"LuckyBall_flattened.sol\":18197:18202  start */\n      dup3\n        /* \"LuckyBall_flattened.sol\":18154:18318  Season(_seasonId, ... */\n      dup2\n      mstore\n      0x20\n      add\n        /* \"LuckyBall_flattened.sol\":18234:18235  0 */\n      0x00\n        /* \"LuckyBall_flattened.sol\":18154:18318  Season(_seasonId, ... */\n      dup2\n      mstore\n      0x20\n      add\n        /* \"LuckyBall_flattened.sol\":18268:18269  0 */\n      0x00\n        /* \"LuckyBall_flattened.sol\":18154:18318  Season(_seasonId, ... */\n      dup2\n      mstore\n      0x20\n      add\n        /* \"LuckyBall_flattened.sol\":18296:18317  generateWinningCode() */\n      tag_337\n        /* \"LuckyBall_flattened.sol\":18296:18315  generateWinningCode */\n      tag_338\n        /* \"LuckyBall_flattened.sol\":18296:18317  generateWinningCode() */\n      jump\t// in\n    tag_337:\n        /* \"LuckyBall_flattened.sol\":18154:18318  Season(_seasonId, ... */\n      dup2\n      mstore\n      pop\n        /* \"LuckyBall_flattened.sol\":18116:18123  seasons */\n      0x0d\n        /* \"LuckyBall_flattened.sol\":18116:18134  seasons[_seasonId] */\n      0x00\n        /* \"LuckyBall_flattened.sol\":18124:18133  _seasonId */\n      sload(0x01)\n        /* \"LuckyBall_flattened.sol\":18116:18134  seasons[_seasonId] */\n      dup2\n      mstore\n      0x20\n      add\n      swap1\n      dup2\n      mstore\n      0x20\n      add\n      0x00\n      keccak256\n        /* \"LuckyBall_flattened.sol\":18116:18318  seasons[_seasonId] = ... */\n      0x00\n      dup3\n      add\n      mload\n      dup2\n      0x00\n      add\n      sstore\n      0x20\n      dup3\n      add\n      mload\n      dup2\n      0x01\n      add\n      sstore\n      0x40\n      dup3\n      add\n      mload\n      dup2\n      0x02\n      add\n      sstore\n      0x60\n      dup3\n      add\n      mload\n      dup2\n      0x03\n      add\n      sstore\n      0x80\n      dup3\n      add\n      mload\n      dup2\n      0x04\n      add\n      sstore\n      swap1\n      pop\n      pop\n        /* \"LuckyBall_flattened.sol\":18334:18358  SeasonStarted(_seasonId) */\n      0xe2046d333900871694b2fb421975b907ac5d93052201a0e259fa0664d9dbdf1d\n        /* \"LuckyBall_flattened.sol\":18348:18357  _seasonId */\n      sload(0x01)\n        /* \"LuckyBall_flattened.sol\":18334:18358  SeasonStarted(_seasonId) */\n      mload(0x40)\n      tag_339\n      swap2\n      swap1\n      tag_54\n      jump\t// in\n    tag_339:\n      mload(0x40)\n      dup1\n      swap2\n      sub\n      swap1\n      log1\n        /* \"LuckyBall_flattened.sol\":18375:18384  _seasonId */\n      sload(0x01)\n        /* \"LuckyBall_flattened.sol\":18368:18384  return _seasonId */\n      swap2\n      pop\n      pop\n        /* \"LuckyBall_flattened.sol\":17843:18391  function startSeason() external onlyOperators() returns (uint) {... */\n      swap1\n      jump\t// out\n        /* \"LuckyBall_flattened.sol\":12388:12409  uint public ballCount */\n    tag_124:\n      sload(0x07)\n      dup2\n      jump\t// out\n        /* \"LuckyBall_flattened.sol\":17732:17832  function getCurrentRevealGroupId() public view returns (uint) {... */\n    tag_127:\n        /* \"LuckyBall_flattened.sol\":17788:17792  uint */\n      0x00\n        /* \"LuckyBall_flattened.sol\":17811:17825  _revealGroupId */\n      sload(0x02)\n        /* \"LuckyBall_flattened.sol\":17804:17825  return _revealGroupId */\n      swap1\n      pop\n        /* \"LuckyBall_flattened.sol\":17732:17832  function getCurrentRevealGroupId() public view returns (uint) {... */\n      swap1\n      jump\t// out\n        /* \"LuckyBall_flattened.sol\":13315:13363  mapping(uint => RequestStatus) public s_requests */\n    tag_131:\n      mstore(0x20, 0x0a)\n      dup1\n      0x00\n      mstore\n      keccak256(0x00, 0x40)\n      0x00\n      swap2\n      pop\n      swap1\n      pop\n      dup1\n      0x00\n      add\n      0x00\n      swap1\n      sload\n      swap1\n      0x0100\n      exp\n      swap1\n      div\n      0xff\n      and\n      swap1\n      dup1\n      0x00\n      add\n      0x01\n      swap1\n      sload\n      swap1\n      0x0100\n      exp\n      swap1\n      div\n      0xff\n      and\n      swap1\n      dup1\n      0x01\n      add\n      sload\n      swap1\n      pop\n      dup4\n      jump\t// out\n        /* \"LuckyBall_flattened.sol\":24279:24671  function relayRequestRevealBatch(... */\n    tag_137:\n        /* \"LuckyBall_flattened.sol\":24497:24501  bool */\n      0x00\n        /* \"LuckyBall_flattened.sol\":24526:24532  uint i */\n      dup1\n        /* \"LuckyBall_flattened.sol\":24533:24534  0 */\n      0x00\n        /* \"LuckyBall_flattened.sol\":24526:24534  uint i=0 */\n      swap1\n      pop\n        /* \"LuckyBall_flattened.sol\":24522:24644  for(uint i=0; i<users.length; i++) {... */\n    tag_342:\n        /* \"LuckyBall_flattened.sol\":24538:24543  users */\n      dup12\n      dup12\n        /* \"LuckyBall_flattened.sol\":24538:24550  users.length */\n      swap1\n      pop\n        /* \"LuckyBall_flattened.sol\":24536:24537  i */\n      dup2\n        /* \"LuckyBall_flattened.sol\":24536:24550  i<users.length */\n      lt\n        /* \"LuckyBall_flattened.sol\":24522:24644  for(uint i=0; i<users.length; i++) {... */\n      iszero\n      tag_343\n      jumpi\n        /* \"LuckyBall_flattened.sol\":24571:24633  relayRequestReveal(users[i],deadlines[i], vs[i], rs[i], ss[i]) */\n      tag_345\n        /* \"LuckyBall_flattened.sol\":24590:24595  users */\n      dup13\n      dup13\n        /* \"LuckyBall_flattened.sol\":24596:24597  i */\n      dup4\n        /* \"LuckyBall_flattened.sol\":24590:24598  users[i] */\n      dup2\n      dup2\n      lt\n      tag_346\n      jumpi\n      tag_347\n      tag_225\n      jump\t// in\n    tag_347:\n    tag_346:\n      swap1\n      pop\n      0x20\n      mul\n      add\n      0x20\n      dup2\n      add\n      swap1\n      tag_348\n      swap2\n      swap1\n      tag_73\n      jump\t// in\n    tag_348:\n        /* \"LuckyBall_flattened.sol\":24599:24608  deadlines */\n      dup12\n      dup12\n        /* \"LuckyBall_flattened.sol\":24609:24610  i */\n      dup5\n        /* \"LuckyBall_flattened.sol\":24599:24611  deadlines[i] */\n      dup2\n      dup2\n      lt\n      tag_349\n      jumpi\n      tag_350\n      tag_225\n      jump\t// in\n    tag_350:\n    tag_349:\n      swap1\n      pop\n      0x20\n      mul\n      add\n      calldataload\n        /* \"LuckyBall_flattened.sol\":24613:24615  vs */\n      dup11\n      dup11\n        /* \"LuckyBall_flattened.sol\":24616:24617  i */\n      dup6\n        /* \"LuckyBall_flattened.sol\":24613:24618  vs[i] */\n      dup2\n      dup2\n      lt\n      tag_351\n      jumpi\n      tag_352\n      tag_225\n      jump\t// in\n    tag_352:\n    tag_351:\n      swap1\n      pop\n      0x20\n      mul\n      add\n      0x20\n      dup2\n      add\n      swap1\n      tag_353\n      swap2\n      swap1\n      tag_354\n      jump\t// in\n    tag_353:\n        /* \"LuckyBall_flattened.sol\":24620:24622  rs */\n      dup10\n      dup10\n        /* \"LuckyBall_flattened.sol\":24623:24624  i */\n      dup7\n        /* \"LuckyBall_flattened.sol\":24620:24625  rs[i] */\n      dup2\n      dup2\n      lt\n      tag_355\n      jumpi\n      tag_356\n      tag_225\n      jump\t// in\n    tag_356:\n    tag_355:\n      swap1\n      pop\n      0x20\n      mul\n      add\n      calldataload\n        /* \"LuckyBall_flattened.sol\":24627:24629  ss */\n      dup9\n      dup9\n        /* \"LuckyBall_flattened.sol\":24630:24631  i */\n      dup8\n        /* \"LuckyBall_flattened.sol\":24627:24632  ss[i] */\n      dup2\n      dup2\n      lt\n      tag_357\n      jumpi\n      tag_358\n      tag_225\n      jump\t// in\n    tag_358:\n    tag_357:\n      swap1\n      pop\n      0x20\n      mul\n      add\n      calldataload\n        /* \"LuckyBall_flattened.sol\":24571:24589  relayRequestReveal */\n      tag_91\n        /* \"LuckyBall_flattened.sol\":24571:24633  relayRequestReveal(users[i],deadlines[i], vs[i], rs[i], ss[i]) */\n      jump\t// in\n    tag_345:\n      pop\n        /* \"LuckyBall_flattened.sol\":24552:24555  i++ */\n      dup1\n      dup1\n      tag_359\n      swap1\n      tag_258\n      jump\t// in\n    tag_359:\n      swap2\n      pop\n      pop\n        /* \"LuckyBall_flattened.sol\":24522:24644  for(uint i=0; i<users.length; i++) {... */\n      jump(tag_342)\n    tag_343:\n      pop\n        /* \"LuckyBall_flattened.sol\":24660:24664  true */\n      0x01\n        /* \"LuckyBall_flattened.sol\":24653:24664  return true */\n      swap1\n      pop\n        /* \"LuckyBall_flattened.sol\":24279:24671  function relayRequestRevealBatch(... */\n      swap11\n      swap10\n      pop\n      pop\n      pop\n      pop\n      pop\n      pop\n      pop\n      pop\n      pop\n      pop\n      jump\t// out\n        /* \"LuckyBall_flattened.sol\":15522:15714  function getRelayMessageTypes() public pure returns (string memory) {... */\n    tag_140:\n        /* \"LuckyBall_flattened.sol\":15575:15588  string memory */\n      0x60\n        /* \"LuckyBall_flattened.sol\":15598:15621  string memory dataTypes */\n      0x00\n        /* \"LuckyBall_flattened.sol\":15598:15677  string memory dataTypes = \"Relay(address owner,uint256 deadline,uint256 nonce)\" */\n      mload(0x40)\n      dup1\n      0x60\n      add\n      0x40\n      mstore\n      dup1\n      0x33\n      dup2\n      mstore\n      0x20\n      add\n      data_e95589e053fe17c341ad5ca40774b7b3f217df7a9a96044b4118e562d2d313c2\n      0x33\n      swap2\n      codecopy\n      swap1\n      pop\n        /* \"LuckyBall_flattened.sol\":15692:15701  dataTypes */\n      dup1\n        /* \"LuckyBall_flattened.sol\":15685:15701  return dataTypes */\n      swap2\n      pop\n      pop\n        /* \"LuckyBall_flattened.sol\":15522:15714  function getRelayMessageTypes() public pure returns (string memory) {... */\n      swap1\n      jump\t// out\n        /* \"LuckyBall_flattened.sol\":16332:16979  function getEIP712Hash(address _user, uint _deadline, uint _nonce) public view returns (bytes32) {... */\n    tag_145:\n        /* \"LuckyBall_flattened.sol\":16420:16427  bytes32 */\n      0x00\n        /* \"LuckyBall_flattened.sol\":16439:16465  string memory MESSAGE_TYPE */\n      dup1\n        /* \"LuckyBall_flattened.sol\":16468:16490  getRelayMessageTypes() */\n      tag_362\n        /* \"LuckyBall_flattened.sol\":16468:16488  getRelayMessageTypes */\n      tag_140\n        /* \"LuckyBall_flattened.sol\":16468:16490  getRelayMessageTypes() */\n      jump\t// in\n    tag_362:\n        /* \"LuckyBall_flattened.sol\":16439:16490  string memory MESSAGE_TYPE = getRelayMessageTypes() */\n      swap1\n      pop\n        /* \"LuckyBall_flattened.sol\":16500:16512  bytes32 hash */\n      0x00\n        /* \"LuckyBall_flattened.sol\":16647:16663  DOMAIN_SEPARATOR */\n      sload(0x0b)\n        /* \"LuckyBall_flattened.sol\":16775:16787  MESSAGE_TYPE */\n      dup3\n        /* \"LuckyBall_flattened.sol\":16758:16788  abi.encodePacked(MESSAGE_TYPE) */\n      add(0x20, mload(0x40))\n      tag_363\n      swap2\n      swap1\n      tag_364\n      jump\t// in\n    tag_363:\n      mload(0x40)\n      0x20\n      dup2\n      dup4\n      sub\n      sub\n      dup2\n      mstore\n      swap1\n      0x40\n      mstore\n        /* \"LuckyBall_flattened.sol\":16748:16789  keccak256(abi.encodePacked(MESSAGE_TYPE)) */\n      dup1\n      mload\n      swap1\n      0x20\n      add\n      keccak256\n        /* \"LuckyBall_flattened.sol\":16815:16820  _user */\n      dup8\n        /* \"LuckyBall_flattened.sol\":16846:16855  _deadline */\n      dup8\n        /* \"LuckyBall_flattened.sol\":16881:16887  _nonce */\n      dup8\n        /* \"LuckyBall_flattened.sol\":16712:16909  abi.encode(... */\n      add(0x20, mload(0x40))\n      tag_365\n      swap5\n      swap4\n      swap3\n      swap2\n      swap1\n      tag_366\n      jump\t// in\n    tag_365:\n      mload(0x40)\n      0x20\n      dup2\n      dup4\n      sub\n      sub\n      dup2\n      mstore\n      swap1\n      0x40\n      mstore\n        /* \"LuckyBall_flattened.sol\":16681:16927  keccak256(... */\n      dup1\n      mload\n      swap1\n      0x20\n      add\n      keccak256\n        /* \"LuckyBall_flattened.sol\":16538:16941  abi.encodePacked(... */\n      add(0x20, mload(0x40))\n      tag_367\n      swap3\n      swap2\n      swap1\n      tag_368\n      jump\t// in\n    tag_367:\n      mload(0x40)\n      0x20\n      dup2\n      dup4\n      sub\n      sub\n      dup2\n      mstore\n      swap1\n      0x40\n      mstore\n        /* \"LuckyBall_flattened.sol\":16515:16951  keccak256(... */\n      dup1\n      mload\n      swap1\n      0x20\n      add\n      keccak256\n        /* \"LuckyBall_flattened.sol\":16500:16951  bytes32 hash = keccak256(... */\n      swap1\n      pop\n        /* \"LuckyBall_flattened.sol\":16968:16972  hash */\n      dup1\n        /* \"LuckyBall_flattened.sol\":16961:16972  return hash */\n      swap3\n      pop\n      pop\n      pop\n        /* \"LuckyBall_flattened.sol\":16332:16979  function getEIP712Hash(address _user, uint _deadline, uint _nonce) public view returns (bytes32) {... */\n      swap4\n      swap3\n      pop\n      pop\n      pop\n      jump\t// out\n        /* \"LuckyBall_flattened.sol\":20852:20951  function requestReveal() external returns (bool) {... */\n    tag_148:\n        /* \"LuckyBall_flattened.sol\":20895:20899  bool */\n      0x00\n        /* \"LuckyBall_flattened.sol\":20918:20944  _requestReveal(msg.sender) */\n      tag_370\n        /* \"LuckyBall_flattened.sol\":20933:20943  msg.sender */\n      caller\n        /* \"LuckyBall_flattened.sol\":20918:20932  _requestReveal */\n      tag_291\n        /* \"LuckyBall_flattened.sol\":20918:20944  _requestReveal(msg.sender) */\n      jump\t// in\n    tag_370:\n        /* \"LuckyBall_flattened.sol\":20911:20944  return _requestReveal(msg.sender) */\n      swap1\n      pop\n        /* \"LuckyBall_flattened.sol\":20852:20951  function requestReveal() external returns (bool) {... */\n      swap1\n      jump\t// out\n        /* \"LuckyBall_flattened.sol\":12325:12349  uint[] public ballGroups */\n    tag_152:\n      0x05\n      dup2\n      dup2\n      sload\n      dup2\n      lt\n      tag_371\n      jumpi\n      0x00\n      dup1\n      revert\n    tag_371:\n      swap1\n      0x00\n      mstore\n      keccak256(0x00, 0x20)\n      add\n      0x00\n      swap2\n      pop\n      swap1\n      pop\n      sload\n      dup2\n      jump\t// out\n        /* \"LuckyBall_flattened.sol\":13730:13775  mapping(uint => uint) public revealGroupSeeds */\n    tag_156:\n      mstore(0x20, 0x10)\n      dup1\n      0x00\n      mstore\n      keccak256(0x00, 0x40)\n      0x00\n      swap2\n      pop\n      swap1\n      pop\n      sload\n      dup2\n      jump\t// out\n        /* \"LuckyBall_flattened.sol\":17292:17429  function setOperator(address _newOperator) public onlyOwner returns (bool) {... */\n    tag_160:\n        /* \"LuckyBall_flattened.sol\":17361:17365  bool */\n      0x00\n        /* \"LuckyBall_flattened.sol\":14537:14547  msg.sender */\n      caller\n        /* \"LuckyBall_flattened.sol\":14527:14547  _owner == msg.sender */\n      0xffffffffffffffffffffffffffffffffffffffff\n      and\n        /* \"LuckyBall_flattened.sol\":14527:14533  _owner */\n      0x03\n      0x00\n      swap1\n      sload\n      swap1\n      0x0100\n      exp\n      swap1\n      div\n      0xffffffffffffffffffffffffffffffffffffffff\n      and\n        /* \"LuckyBall_flattened.sol\":14527:14547  _owner == msg.sender */\n      0xffffffffffffffffffffffffffffffffffffffff\n      and\n      eq\n        /* \"LuckyBall_flattened.sol\":14519:14595  require(_owner == msg.sender, \"LuckyBall: caller is not the owner address!\") */\n      tag_374\n      jumpi\n      mload(0x40)\n      0x08c379a000000000000000000000000000000000000000000000000000000000\n      dup2\n      mstore\n      0x04\n      add\n      tag_375\n      swap1\n      tag_376\n      jump\t// in\n    tag_375:\n      mload(0x40)\n      dup1\n      swap2\n      sub\n      swap1\n      revert\n    tag_374:\n        /* \"LuckyBall_flattened.sol\":17389:17401  _newOperator */\n      dup2\n        /* \"LuckyBall_flattened.sol\":17377:17386  _operator */\n      0x04\n      0x00\n        /* \"LuckyBall_flattened.sol\":17377:17401  _operator = _newOperator */\n      0x0100\n      exp\n      dup2\n      sload\n      dup2\n      0xffffffffffffffffffffffffffffffffffffffff\n      mul\n      not\n      and\n      swap1\n      dup4\n      0xffffffffffffffffffffffffffffffffffffffff\n      and\n      mul\n      or\n      swap1\n      sstore\n      pop\n        /* \"LuckyBall_flattened.sol\":17418:17422  true */\n      0x01\n        /* \"LuckyBall_flattened.sol\":17411:17422  return true */\n      swap1\n      pop\n        /* \"LuckyBall_flattened.sol\":17292:17429  function setOperator(address _newOperator) public onlyOwner returns (bool) {... */\n      swap2\n      swap1\n      pop\n      jump\t// out\n        /* \"LuckyBall_flattened.sol\":18397:18637  function isSeasonActive() public view returns (bool) {... */\n    tag_163:\n        /* \"LuckyBall_flattened.sol\":18444:18448  bool */\n      0x00\n        /* \"LuckyBall_flattened.sol\":18498:18499  0 */\n      dup1\n        /* \"LuckyBall_flattened.sol\":18463:18470  seasons */\n      0x0d\n        /* \"LuckyBall_flattened.sol\":18463:18481  seasons[_seasonId] */\n      0x00\n        /* \"LuckyBall_flattened.sol\":18471:18480  _seasonId */\n      sload(0x01)\n        /* \"LuckyBall_flattened.sol\":18463:18481  seasons[_seasonId] */\n      dup2\n      mstore\n      0x20\n      add\n      swap1\n      dup2\n      mstore\n      0x20\n      add\n      0x00\n      keccak256\n        /* \"LuckyBall_flattened.sol\":18463:18495  seasons[_seasonId].winningBallId */\n      0x03\n      add\n      sload\n        /* \"LuckyBall_flattened.sol\":18463:18499  seasons[_seasonId].winningBallId > 0 */\n      gt\n        /* \"LuckyBall_flattened.sol\":18460:18538  if(seasons[_seasonId].winningBallId > 0) {... */\n      iszero\n      tag_379\n      jumpi\n        /* \"LuckyBall_flattened.sol\":18522:18527  false */\n      0x00\n        /* \"LuckyBall_flattened.sol\":18515:18527  return false */\n      swap1\n      pop\n      jump(tag_378)\n        /* \"LuckyBall_flattened.sol\":18460:18538  if(seasons[_seasonId].winningBallId > 0) {... */\n    tag_379:\n        /* \"LuckyBall_flattened.sol\":18569:18570  0 */\n      0x00\n        /* \"LuckyBall_flattened.sol\":18551:18560  _seasonId */\n      sload(0x01)\n        /* \"LuckyBall_flattened.sol\":18551:18571  _seasonId == uint(0) */\n      eq\n        /* \"LuckyBall_flattened.sol\":18547:18610  if (_seasonId == uint(0)) {... */\n      iszero\n      tag_380\n      jumpi\n        /* \"LuckyBall_flattened.sol\":18594:18599  false */\n      0x00\n        /* \"LuckyBall_flattened.sol\":18587:18599  return false */\n      swap1\n      pop\n      jump(tag_378)\n        /* \"LuckyBall_flattened.sol\":18547:18610  if (_seasonId == uint(0)) {... */\n    tag_380:\n        /* \"LuckyBall_flattened.sol\":18626:18630  true */\n      0x01\n        /* \"LuckyBall_flattened.sol\":18619:18630  return true */\n      swap1\n      pop\n        /* \"LuckyBall_flattened.sol\":18397:18637  function isSeasonActive() public view returns (bool) {... */\n    tag_378:\n      swap1\n      jump\t// out\n        /* \"LuckyBall_flattened.sol\":22447:22734  function getBallCode(uint ballId) public view returns (uint) {... */\n    tag_167:\n        /* \"LuckyBall_flattened.sol\":22502:22506  uint */\n      0x00\n        /* \"LuckyBall_flattened.sol\":22518:22531  uint randSeed */\n      dup1\n        /* \"LuckyBall_flattened.sol\":22534:22550  revealGroupSeeds */\n      0x10\n        /* \"LuckyBall_flattened.sol\":22534:22574  revealGroupSeeds[getRevealGroup(ballId)] */\n      0x00\n        /* \"LuckyBall_flattened.sol\":22551:22573  getRevealGroup(ballId) */\n      tag_382\n        /* \"LuckyBall_flattened.sol\":22566:22572  ballId */\n      dup6\n        /* \"LuckyBall_flattened.sol\":22551:22565  getRevealGroup */\n      tag_174\n        /* \"LuckyBall_flattened.sol\":22551:22573  getRevealGroup(ballId) */\n      jump\t// in\n    tag_382:\n        /* \"LuckyBall_flattened.sol\":22534:22574  revealGroupSeeds[getRevealGroup(ballId)] */\n      dup2\n      mstore\n      0x20\n      add\n      swap1\n      dup2\n      mstore\n      0x20\n      add\n      0x00\n      keccak256\n      sload\n        /* \"LuckyBall_flattened.sol\":22518:22574  uint randSeed = revealGroupSeeds[getRevealGroup(ballId)] */\n      swap1\n      pop\n        /* \"LuckyBall_flattened.sol\":22604:22605  0 */\n      0x00\n        /* \"LuckyBall_flattened.sol\":22588:22596  randSeed */\n      dup2\n        /* \"LuckyBall_flattened.sol\":22588:22606  randSeed > uint(0) */\n      gt\n        /* \"LuckyBall_flattened.sol\":22584:22704  if (randSeed > uint(0)) {... */\n      iszero\n      tag_383\n      jumpi\n        /* \"LuckyBall_flattened.sol\":22629:22693  extractCode(uint(keccak256(abi.encodePacked(randSeed, ballId)))) */\n      tag_384\n        /* \"LuckyBall_flattened.sol\":22673:22681  randSeed */\n      dup2\n        /* \"LuckyBall_flattened.sol\":22683:22689  ballId */\n      dup5\n        /* \"LuckyBall_flattened.sol\":22656:22690  abi.encodePacked(randSeed, ballId) */\n      add(0x20, mload(0x40))\n      tag_385\n      swap3\n      swap2\n      swap1\n      tag_386\n      jump\t// in\n    tag_385:\n      mload(0x40)\n      0x20\n      dup2\n      dup4\n      sub\n      sub\n      dup2\n      mstore\n      swap1\n      0x40\n      mstore\n        /* \"LuckyBall_flattened.sol\":22646:22691  keccak256(abi.encodePacked(randSeed, ballId)) */\n      dup1\n      mload\n      swap1\n      0x20\n      add\n      keccak256\n        /* \"LuckyBall_flattened.sol\":22641:22692  uint(keccak256(abi.encodePacked(randSeed, ballId))) */\n      0x00\n      shr\n        /* \"LuckyBall_flattened.sol\":22629:22640  extractCode */\n      tag_387\n        /* \"LuckyBall_flattened.sol\":22629:22693  extractCode(uint(keccak256(abi.encodePacked(randSeed, ballId)))) */\n      jump\t// in\n    tag_384:\n        /* \"LuckyBall_flattened.sol\":22622:22693  return extractCode(uint(keccak256(abi.encodePacked(randSeed, ballId)))) */\n      swap2\n      pop\n      pop\n      jump(tag_381)\n        /* \"LuckyBall_flattened.sol\":22584:22704  if (randSeed > uint(0)) {... */\n    tag_383:\n        /* \"LuckyBall_flattened.sol\":22725:22726  0 */\n      0x00\n        /* \"LuckyBall_flattened.sol\":22713:22727  return uint(0) */\n      swap2\n      pop\n      pop\n        /* \"LuckyBall_flattened.sol\":22447:22734  function getBallCode(uint ballId) public view returns (uint) {... */\n    tag_381:\n      swap2\n      swap1\n      pop\n      jump\t// out\n        /* \"LuckyBall_flattened.sol\":25158:25365  function requestRevealGroupSeed() public onlyOperators() returns (uint) {... */\n    tag_170:\n        /* \"LuckyBall_flattened.sol\":25224:25228  uint */\n      0x00\n        /* \"LuckyBall_flattened.sol\":14379:14389  msg.sender */\n      caller\n        /* \"LuckyBall_flattened.sol\":14366:14389  _operator == msg.sender */\n      0xffffffffffffffffffffffffffffffffffffffff\n      and\n        /* \"LuckyBall_flattened.sol\":14366:14375  _operator */\n      0x04\n      0x00\n      swap1\n      sload\n      swap1\n      0x0100\n      exp\n      swap1\n      div\n      0xffffffffffffffffffffffffffffffffffffffff\n      and\n        /* \"LuckyBall_flattened.sol\":14366:14389  _operator == msg.sender */\n      0xffffffffffffffffffffffffffffffffffffffff\n      and\n      eq\n        /* \"LuckyBall_flattened.sol\":14366:14413  _operator == msg.sender || _owner == msg.sender */\n      dup1\n      tag_389\n      jumpi\n      pop\n        /* \"LuckyBall_flattened.sol\":14403:14413  msg.sender */\n      caller\n        /* \"LuckyBall_flattened.sol\":14393:14413  _owner == msg.sender */\n      0xffffffffffffffffffffffffffffffffffffffff\n      and\n        /* \"LuckyBall_flattened.sol\":14393:14399  _owner */\n      0x03\n      0x00\n      swap1\n      sload\n      swap1\n      0x0100\n      exp\n      swap1\n      div\n      0xffffffffffffffffffffffffffffffffffffffff\n      and\n        /* \"LuckyBall_flattened.sol\":14393:14413  _owner == msg.sender */\n      0xffffffffffffffffffffffffffffffffffffffff\n      and\n      eq\n        /* \"LuckyBall_flattened.sol\":14366:14413  _operator == msg.sender || _owner == msg.sender */\n    tag_389:\n        /* \"LuckyBall_flattened.sol\":14358:14464  require(_operator == msg.sender || _owner == msg.sender, \"LuckyBall: caller is not the operator address!\") */\n      tag_390\n      jumpi\n      mload(0x40)\n      0x08c379a000000000000000000000000000000000000000000000000000000000\n      dup2\n      mstore\n      0x04\n      add\n      tag_391\n      swap1\n      tag_211\n      jump\t// in\n    tag_391:\n      mload(0x40)\n      dup1\n      swap2\n      sub\n      swap1\n      revert\n    tag_390:\n        /* \"LuckyBall_flattened.sol\":25244:25256  revealNeeded */\n      0x08\n      0x00\n      swap1\n      sload\n      swap1\n      0x0100\n      exp\n      swap1\n      div\n      0xff\n      and\n        /* \"LuckyBall_flattened.sol\":25240:25359  if (revealNeeded) {... */\n      iszero\n      tag_393\n      jumpi\n        /* \"LuckyBall_flattened.sol\":25279:25303  requestRandomSeed(false) */\n      tag_394\n        /* \"LuckyBall_flattened.sol\":25297:25302  false */\n      0x00\n        /* \"LuckyBall_flattened.sol\":25279:25296  requestRandomSeed */\n      tag_281\n        /* \"LuckyBall_flattened.sol\":25279:25303  requestRandomSeed(false) */\n      jump\t// in\n    tag_394:\n        /* \"LuckyBall_flattened.sol\":25272:25303  return requestRandomSeed(false) */\n      swap1\n      pop\n      jump(tag_392)\n        /* \"LuckyBall_flattened.sol\":25240:25359  if (revealNeeded) {... */\n    tag_393:\n        /* \"LuckyBall_flattened.sol\":25341:25342  0 */\n      0x00\n        /* \"LuckyBall_flattened.sol\":25334:25342  return 0 */\n      swap1\n      pop\n        /* \"LuckyBall_flattened.sol\":14474:14475  _ */\n    tag_392:\n        /* \"LuckyBall_flattened.sol\":25158:25365  function requestRevealGroupSeed() public onlyOperators() returns (uint) {... */\n      swap1\n      jump\t// out\n        /* \"LuckyBall_flattened.sol\":21660:21785  function getRevealGroup(uint ballId) public view returns (uint) {... */\n    tag_174:\n        /* \"LuckyBall_flattened.sol\":21718:21722  uint */\n      0x00\n        /* \"LuckyBall_flattened.sol\":21741:21753  revealGroups */\n      0x0f\n        /* \"LuckyBall_flattened.sol\":21741:21778  revealGroups[getBallGroupPos(ballId)] */\n      0x00\n        /* \"LuckyBall_flattened.sol\":21754:21777  getBallGroupPos(ballId) */\n      tag_397\n        /* \"LuckyBall_flattened.sol\":21770:21776  ballId */\n      dup5\n        /* \"LuckyBall_flattened.sol\":21754:21769  getBallGroupPos */\n      tag_178\n        /* \"LuckyBall_flattened.sol\":21754:21777  getBallGroupPos(ballId) */\n      jump\t// in\n    tag_397:\n        /* \"LuckyBall_flattened.sol\":21741:21778  revealGroups[getBallGroupPos(ballId)] */\n      dup2\n      mstore\n      0x20\n      add\n      swap1\n      dup2\n      mstore\n      0x20\n      add\n      0x00\n      keccak256\n      sload\n        /* \"LuckyBall_flattened.sol\":21734:21778  return revealGroups[getBallGroupPos(ballId)] */\n      swap1\n      pop\n        /* \"LuckyBall_flattened.sol\":21660:21785  function getRevealGroup(uint ballId) public view returns (uint) {... */\n      swap2\n      swap1\n      pop\n      jump\t// out\n        /* \"LuckyBall_flattened.sol\":21791:22440  function getBallGroupPos(uint ballId) public view returns (uint) {... */\n    tag_178:\n        /* \"LuckyBall_flattened.sol\":21850:21854  uint */\n      0x00\n        /* \"LuckyBall_flattened.sol\":21884:21885  0 */\n      dup1\n        /* \"LuckyBall_flattened.sol\":21875:21881  ballId */\n      dup3\n        /* \"LuckyBall_flattened.sol\":21875:21885  ballId > 0 */\n      gt\n        /* \"LuckyBall_flattened.sol\":21875:21908  ballId > 0 && ballId <= ballCount */\n      dup1\n      iszero\n      tag_399\n      jumpi\n      pop\n        /* \"LuckyBall_flattened.sol\":21899:21908  ballCount */\n      sload(0x07)\n        /* \"LuckyBall_flattened.sol\":21889:21895  ballId */\n      dup3\n        /* \"LuckyBall_flattened.sol\":21889:21908  ballId <= ballCount */\n      gt\n      iszero\n        /* \"LuckyBall_flattened.sol\":21875:21908  ballId > 0 && ballId <= ballCount */\n    tag_399:\n        /* \"LuckyBall_flattened.sol\":21866:21946  require (ballId > 0 && ballId <= ballCount, \"LuckyBall: ballId is out of range\") */\n      tag_400\n      jumpi\n      mload(0x40)\n      0x08c379a000000000000000000000000000000000000000000000000000000000\n      dup2\n      mstore\n      0x04\n      add\n      tag_401\n      swap1\n      tag_402\n      jump\t// in\n    tag_401:\n      mload(0x40)\n      dup1\n      swap2\n      sub\n      swap1\n      revert\n    tag_400:\n        /* \"LuckyBall_flattened.sol\":21985:21986  0 */\n      0x00\n        /* \"LuckyBall_flattened.sol\":21965:21975  ballGroups */\n      0x05\n        /* \"LuckyBall_flattened.sol\":21965:21982  ballGroups.length */\n      dup1\n      sload\n      swap1\n      pop\n        /* \"LuckyBall_flattened.sol\":21965:21986  ballGroups.length > 0 */\n      gt\n        /* \"LuckyBall_flattened.sol\":21956:22015  require (ballGroups.length > 0, \"LuckBall: No ball issued\") */\n      tag_403\n      jumpi\n      mload(0x40)\n      0x08c379a000000000000000000000000000000000000000000000000000000000\n      dup2\n      mstore\n      0x04\n      add\n      tag_404\n      swap1\n      tag_405\n      jump\t// in\n    tag_404:\n      mload(0x40)\n      dup1\n      swap2\n      sub\n      swap1\n      revert\n    tag_403:\n        /* \"LuckyBall_flattened.sol\":22035:22041  uint i */\n      0x00\n        /* \"LuckyBall_flattened.sol\":22060:22061  1 */\n      0x01\n        /* \"LuckyBall_flattened.sol\":22042:22052  ballGroups */\n      0x05\n        /* \"LuckyBall_flattened.sol\":22042:22059  ballGroups.length */\n      dup1\n      sload\n      swap1\n      pop\n        /* \"LuckyBall_flattened.sol\":22042:22061  ballGroups.length-1 */\n      tag_409\n      swap2\n      swap1\n      tag_242\n      jump\t// in\n    tag_409:\n        /* \"LuckyBall_flattened.sol\":22035:22061  uint i=ballGroups.length-1 */\n      swap1\n      pop\n        /* \"LuckyBall_flattened.sol\":22030:22395  for (uint i=ballGroups.length-1; i >= 0; i--) {... */\n    tag_406:\n        /* \"LuckyBall_flattened.sol\":22068:22069  0 */\n      0x00\n        /* \"LuckyBall_flattened.sol\":22063:22064  i */\n      dup2\n        /* \"LuckyBall_flattened.sol\":22063:22069  i >= 0 */\n      lt\n        /* \"LuckyBall_flattened.sol\":22030:22395  for (uint i=ballGroups.length-1; i >= 0; i--) {... */\n      tag_407\n      jumpi\n        /* \"LuckyBall_flattened.sol\":22090:22100  uint start */\n      0x00\n        /* \"LuckyBall_flattened.sol\":22123:22124  0 */\n      dup1\n        /* \"LuckyBall_flattened.sol\":22118:22119  i */\n      dup3\n        /* \"LuckyBall_flattened.sol\":22118:22124  i == 0 */\n      eq\n        /* \"LuckyBall_flattened.sol\":22114:22232  if (i == 0) {... */\n      iszero\n      tag_410\n      jumpi\n        /* \"LuckyBall_flattened.sol\":22152:22153  1 */\n      0x01\n        /* \"LuckyBall_flattened.sol\":22144:22153  start = 1 */\n      swap1\n      pop\n        /* \"LuckyBall_flattened.sol\":22114:22232  if (i == 0) {... */\n      jump(tag_411)\n    tag_410:\n        /* \"LuckyBall_flattened.sol\":22216:22217  1 */\n      0x01\n        /* \"LuckyBall_flattened.sol\":22200:22210  ballGroups */\n      0x05\n        /* \"LuckyBall_flattened.sol\":22213:22214  1 */\n      0x01\n        /* \"LuckyBall_flattened.sol\":22211:22212  i */\n      dup5\n        /* \"LuckyBall_flattened.sol\":22211:22214  i-1 */\n      tag_412\n      swap2\n      swap1\n      tag_242\n      jump\t// in\n    tag_412:\n        /* \"LuckyBall_flattened.sol\":22200:22215  ballGroups[i-1] */\n      dup2\n      sload\n      dup2\n      lt\n      tag_413\n      jumpi\n      tag_414\n      tag_225\n      jump\t// in\n    tag_414:\n    tag_413:\n      swap1\n      0x00\n      mstore\n      keccak256(0x00, 0x20)\n      add\n      sload\n        /* \"LuckyBall_flattened.sol\":22200:22217  ballGroups[i-1]+1 */\n      tag_416\n      swap2\n      swap1\n      tag_232\n      jump\t// in\n    tag_416:\n        /* \"LuckyBall_flattened.sol\":22192:22217  start = ballGroups[i-1]+1 */\n      swap1\n      pop\n        /* \"LuckyBall_flattened.sol\":22114:22232  if (i == 0) {... */\n    tag_411:\n        /* \"LuckyBall_flattened.sol\":22245:22253  uint end */\n      0x00\n        /* \"LuckyBall_flattened.sol\":22256:22266  ballGroups */\n      0x05\n        /* \"LuckyBall_flattened.sol\":22267:22268  i */\n      dup4\n        /* \"LuckyBall_flattened.sol\":22256:22269  ballGroups[i] */\n      dup2\n      sload\n      dup2\n      lt\n      tag_417\n      jumpi\n      tag_418\n      tag_225\n      jump\t// in\n    tag_418:\n    tag_417:\n      swap1\n      0x00\n      mstore\n      keccak256(0x00, 0x20)\n      add\n      sload\n        /* \"LuckyBall_flattened.sol\":22245:22269  uint end = ballGroups[i] */\n      swap1\n      pop\n        /* \"LuckyBall_flattened.sol\":22298:22301  end */\n      dup1\n        /* \"LuckyBall_flattened.sol\":22288:22294  ballId */\n      dup6\n        /* \"LuckyBall_flattened.sol\":22288:22301  ballId <= end */\n      gt\n      iszero\n        /* \"LuckyBall_flattened.sol\":22288:22320  ballId <= end && ballId >= start */\n      dup1\n      iszero\n      tag_420\n      jumpi\n      pop\n        /* \"LuckyBall_flattened.sol\":22315:22320  start */\n      dup2\n        /* \"LuckyBall_flattened.sol\":22305:22311  ballId */\n      dup6\n        /* \"LuckyBall_flattened.sol\":22305:22320  ballId >= start */\n      lt\n      iszero\n        /* \"LuckyBall_flattened.sol\":22288:22320  ballId <= end && ballId >= start */\n    tag_420:\n        /* \"LuckyBall_flattened.sol\":22284:22363  if (ballId <= end && ballId >= start) {... */\n      iszero\n      tag_421\n      jumpi\n        /* \"LuckyBall_flattened.sol\":22347:22348  i */\n      dup3\n        /* \"LuckyBall_flattened.sol\":22340:22348  return i */\n      swap4\n      pop\n      pop\n      pop\n      pop\n      jump(tag_398)\n        /* \"LuckyBall_flattened.sol\":22284:22363  if (ballId <= end && ballId >= start) {... */\n    tag_421:\n        /* \"LuckyBall_flattened.sol\":22376:22384  continue */\n      pop\n      pop\n        /* \"LuckyBall_flattened.sol\":22071:22074  i-- */\n      dup1\n      dup1\n      tag_422\n      swap1\n      tag_423\n      jump\t// in\n    tag_422:\n      swap2\n      pop\n      pop\n        /* \"LuckyBall_flattened.sol\":22030:22395  for (uint i=ballGroups.length-1; i >= 0; i--) {... */\n      jump(tag_406)\n    tag_407:\n      pop\n        /* \"LuckyBall_flattened.sol\":22404:22433  revert(\"BallId is not found\") */\n      mload(0x40)\n      0x08c379a000000000000000000000000000000000000000000000000000000000\n      dup2\n      mstore\n      0x04\n      add\n      tag_424\n      swap1\n      tag_425\n      jump\t// in\n    tag_424:\n      mload(0x40)\n      dup1\n      swap2\n      sub\n      swap1\n      revert\n        /* \"LuckyBall_flattened.sol\":21791:22440  function getBallGroupPos(uint ballId) public view returns (uint) {... */\n    tag_398:\n      swap2\n      swap1\n      pop\n      jump\t// out\n        /* \"LuckyBall_flattened.sol\":13861:13924  mapping(address => mapping(uint => uint)) public userBallCounts */\n    tag_182:\n      mstore(0x20, 0x12)\n      dup2\n      0x00\n      mstore\n      mstore(0x20, keccak256(0x00, 0x40))\n      dup1\n      0x00\n      mstore\n      keccak256(0x00, 0x40)\n      0x00\n      swap2\n      pop\n      swap2\n      pop\n      pop\n      sload\n      dup2\n      jump\t// out\n        /* \"LuckyBall_flattened.sol\":23666:23776  function getBalls() public view returns(uint[] memory) {... */\n    tag_185:\n        /* \"LuckyBall_flattened.sol\":23706:23719  uint[] memory */\n      0x60\n        /* \"LuckyBall_flattened.sol\":23738:23769  getBalls(msg.sender, _seasonId) */\n      tag_427\n        /* \"LuckyBall_flattened.sol\":23747:23757  msg.sender */\n      caller\n        /* \"LuckyBall_flattened.sol\":23759:23768  _seasonId */\n      sload(0x01)\n        /* \"LuckyBall_flattened.sol\":23738:23746  getBalls */\n      tag_204\n        /* \"LuckyBall_flattened.sol\":23738:23769  getBalls(msg.sender, _seasonId) */\n      jump\t// in\n    tag_427:\n        /* \"LuckyBall_flattened.sol\":23731:23769  return getBalls(msg.sender, _seasonId) */\n      swap1\n      pop\n        /* \"LuckyBall_flattened.sol\":23666:23776  function getBalls() public view returns(uint[] memory) {... */\n      swap1\n      jump\t// out\n        /* \"LuckyBall_flattened.sol\":17435:17521  function getOperator() public view returns (address) {... */\n    tag_188:\n        /* \"LuckyBall_flattened.sol\":17479:17486  address */\n      0x00\n        /* \"LuckyBall_flattened.sol\":17505:17514  _operator */\n      0x04\n      0x00\n      swap1\n      sload\n      swap1\n      0x0100\n      exp\n      swap1\n      div\n      0xffffffffffffffffffffffffffffffffffffffff\n      and\n        /* \"LuckyBall_flattened.sol\":17498:17514  return _operator */\n      swap1\n      pop\n        /* \"LuckyBall_flattened.sol\":17435:17521  function getOperator() public view returns (address) {... */\n      swap1\n      jump\t// out\n        /* \"LuckyBall_flattened.sol\":13528:13566  mapping(uint => Season) public seasons */\n    tag_192:\n      mstore(0x20, 0x0d)\n      dup1\n      0x00\n      mstore\n      keccak256(0x00, 0x40)\n      0x00\n      swap2\n      pop\n      swap1\n      pop\n      dup1\n      0x00\n      add\n      sload\n      swap1\n      dup1\n      0x01\n      add\n      sload\n      swap1\n      dup1\n      0x02\n      add\n      sload\n      swap1\n      dup1\n      0x03\n      add\n      sload\n      swap1\n      dup1\n      0x04\n      add\n      sload\n      swap1\n      pop\n      dup6\n      jump\t// out\n        /* \"LuckyBall_flattened.sol\":15184:15516  function getDomainInfo() public view returns (string memory, string memory, uint, address) {... */\n    tag_196:\n        /* \"LuckyBall_flattened.sol\":15230:15243  string memory */\n      0x60\n        /* \"LuckyBall_flattened.sol\":15245:15258  string memory */\n      dup1\n        /* \"LuckyBall_flattened.sol\":15260:15264  uint */\n      0x00\n        /* \"LuckyBall_flattened.sol\":15266:15273  address */\n      dup1\n        /* \"LuckyBall_flattened.sol\":15285:15303  string memory name */\n      0x00\n        /* \"LuckyBall_flattened.sol\":15285:15323  string memory name = \"LuckyBall_Relay\" */\n      mload(0x40)\n      dup1\n      0x40\n      add\n      0x40\n      mstore\n      dup1\n      0x0f\n      dup2\n      mstore\n      0x20\n      add\n      0x4c75636b7942616c6c5f52656c61790000000000000000000000000000000000\n      dup2\n      mstore\n      pop\n      swap1\n      pop\n        /* \"LuckyBall_flattened.sol\":15333:15354  string memory version */\n      0x00\n        /* \"LuckyBall_flattened.sol\":15333:15360  string memory version = \"1\" */\n      mload(0x40)\n      dup1\n      0x40\n      add\n      0x40\n      mstore\n      dup1\n      0x01\n      dup2\n      mstore\n      0x20\n      add\n      0x3100000000000000000000000000000000000000000000000000000000000000\n      dup2\n      mstore\n      pop\n      swap1\n      pop\n        /* \"LuckyBall_flattened.sol\":15370:15382  uint chainId */\n      0x00\n        /* \"LuckyBall_flattened.sol\":15385:15398  block.chainid */\n      chainid\n        /* \"LuckyBall_flattened.sol\":15370:15398  uint chainId = block.chainid */\n      swap1\n      pop\n        /* \"LuckyBall_flattened.sol\":15408:15433  address verifyingContract */\n      0x00\n        /* \"LuckyBall_flattened.sol\":15444:15448  this */\n      address\n        /* \"LuckyBall_flattened.sol\":15408:15449  address verifyingContract = address(this) */\n      swap1\n      pop\n        /* \"LuckyBall_flattened.sol\":15467:15471  name */\n      dup4\n        /* \"LuckyBall_flattened.sol\":15473:15480  version */\n      dup4\n        /* \"LuckyBall_flattened.sol\":15482:15489  chainId */\n      dup4\n        /* \"LuckyBall_flattened.sol\":15491:15508  verifyingContract */\n      dup4\n        /* \"LuckyBall_flattened.sol\":15459:15509  return (name, version, chainId, verifyingContract) */\n      swap8\n      pop\n      swap8\n      pop\n      swap8\n      pop\n      swap8\n      pop\n      pop\n      pop\n      pop\n      pop\n        /* \"LuckyBall_flattened.sol\":15184:15516  function getDomainInfo() public view returns (string memory, string memory, uint, address) {... */\n      swap1\n      swap2\n      swap3\n      swap4\n      jump\t// out\n        /* \"LuckyBall_flattened.sol\":13076:13104  uint256 public lastRequestId */\n    tag_200:\n      sload(0x09)\n      dup2\n      jump\t// out\n        /* \"LuckyBall_flattened.sol\":22740:23660  function getBalls(address addr, uint seasonId) public view returns (uint[] memory) {... */\n    tag_204:\n        /* \"LuckyBall_flattened.sol\":22808:22821  uint[] memory */\n      0x60\n        /* \"LuckyBall_flattened.sol\":22833:22855  uint[] memory myGroups */\n      0x00\n        /* \"LuckyBall_flattened.sol\":22858:22872  userBallGroups */\n      0x0e\n        /* \"LuckyBall_flattened.sol\":22858:22878  userBallGroups[addr] */\n      0x00\n        /* \"LuckyBall_flattened.sol\":22873:22877  addr */\n      dup6\n        /* \"LuckyBall_flattened.sol\":22858:22878  userBallGroups[addr] */\n      0xffffffffffffffffffffffffffffffffffffffff\n      and\n      0xffffffffffffffffffffffffffffffffffffffff\n      and\n      dup2\n      mstore\n      0x20\n      add\n      swap1\n      dup2\n      mstore\n      0x20\n      add\n      0x00\n      keccak256\n        /* \"LuckyBall_flattened.sol\":22858:22888  userBallGroups[addr][seasonId] */\n      0x00\n        /* \"LuckyBall_flattened.sol\":22879:22887  seasonId */\n      dup5\n        /* \"LuckyBall_flattened.sol\":22858:22888  userBallGroups[addr][seasonId] */\n      dup2\n      mstore\n      0x20\n      add\n      swap1\n      dup2\n      mstore\n      0x20\n      add\n      0x00\n      keccak256\n        /* \"LuckyBall_flattened.sol\":22833:22888  uint[] memory myGroups = userBallGroups[addr][seasonId] */\n      dup1\n      sload\n      dup1\n      0x20\n      mul\n      0x20\n      add\n      mload(0x40)\n      swap1\n      dup2\n      add\n      0x40\n      mstore\n      dup1\n      swap3\n      swap2\n      swap1\n      dup2\n      dup2\n      mstore\n      0x20\n      add\n      dup3\n      dup1\n      sload\n      dup1\n      iszero\n      tag_431\n      jumpi\n      0x20\n      mul\n      dup3\n      add\n      swap2\n      swap1\n      0x00\n      mstore\n      keccak256(0x00, 0x20)\n      swap1\n    tag_432:\n      dup2\n      sload\n      dup2\n      mstore\n      0x20\n      add\n      swap1\n      0x01\n      add\n      swap1\n      dup1\n      dup4\n      gt\n      tag_432\n      jumpi\n    tag_431:\n      pop\n      pop\n      pop\n      pop\n      pop\n      swap1\n      pop\n        /* \"LuckyBall_flattened.sol\":23001:23022  uint[] memory ballIds */\n      0x00\n        /* \"LuckyBall_flattened.sol\":23036:23050  userBallCounts */\n      0x12\n        /* \"LuckyBall_flattened.sol\":23036:23056  userBallCounts[addr] */\n      0x00\n        /* \"LuckyBall_flattened.sol\":23051:23055  addr */\n      dup7\n        /* \"LuckyBall_flattened.sol\":23036:23056  userBallCounts[addr] */\n      0xffffffffffffffffffffffffffffffffffffffff\n      and\n      0xffffffffffffffffffffffffffffffffffffffff\n      and\n      dup2\n      mstore\n      0x20\n      add\n      swap1\n      dup2\n      mstore\n      0x20\n      add\n      0x00\n      keccak256\n        /* \"LuckyBall_flattened.sol\":23036:23066  userBallCounts[addr][seasonId] */\n      0x00\n        /* \"LuckyBall_flattened.sol\":23057:23065  seasonId */\n      dup6\n        /* \"LuckyBall_flattened.sol\":23036:23066  userBallCounts[addr][seasonId] */\n      dup2\n      mstore\n      0x20\n      add\n      swap1\n      dup2\n      mstore\n      0x20\n      add\n      0x00\n      keccak256\n      sload\n        /* \"LuckyBall_flattened.sol\":23025:23067  new uint[](userBallCounts[addr][seasonId]) */\n      0xffffffffffffffff\n      dup2\n      gt\n      iszero\n      tag_433\n      jumpi\n      tag_434\n      tag_435\n      jump\t// in\n    tag_434:\n    tag_433:\n      mload(0x40)\n      swap1\n      dup1\n      dup3\n      mstore\n      dup1\n      0x20\n      mul\n      0x20\n      add\n      dup3\n      add\n      0x40\n      mstore\n      dup1\n      iszero\n      tag_436\n      jumpi\n      dup2\n      0x20\n      add\n      0x20\n      dup3\n      mul\n      dup1\n      calldatasize\n      dup4\n      calldatacopy\n      dup1\n      dup3\n      add\n      swap2\n      pop\n      pop\n      swap1\n      pop\n    tag_436:\n      pop\n        /* \"LuckyBall_flattened.sol\":23001:23067  uint[] memory ballIds = new uint[](userBallCounts[addr][seasonId]) */\n      swap1\n      pop\n        /* \"LuckyBall_flattened.sol\":23181:23189  uint pos */\n      0x00\n        /* \"LuckyBall_flattened.sol\":23208:23214  uint i */\n      dup1\n        /* \"LuckyBall_flattened.sol\":23203:23630  for (uint i=0; i < myGroups.length; i++) {... */\n    tag_437:\n        /* \"LuckyBall_flattened.sol\":23222:23230  myGroups */\n      dup4\n        /* \"LuckyBall_flattened.sol\":23222:23237  myGroups.length */\n      mload\n        /* \"LuckyBall_flattened.sol\":23218:23219  i */\n      dup2\n        /* \"LuckyBall_flattened.sol\":23218:23237  i < myGroups.length */\n      lt\n        /* \"LuckyBall_flattened.sol\":23203:23630  for (uint i=0; i < myGroups.length; i++) {... */\n      iszero\n      tag_438\n      jumpi\n        /* \"LuckyBall_flattened.sol\":23258:23266  uint end */\n      0x00\n        /* \"LuckyBall_flattened.sol\":23269:23279  ballGroups */\n      0x05\n        /* \"LuckyBall_flattened.sol\":23280:23288  myGroups */\n      dup6\n        /* \"LuckyBall_flattened.sol\":23289:23290  i */\n      dup4\n        /* \"LuckyBall_flattened.sol\":23280:23291  myGroups[i] */\n      dup2\n      mload\n      dup2\n      lt\n      tag_440\n      jumpi\n      tag_441\n      tag_225\n      jump\t// in\n    tag_441:\n    tag_440:\n      0x20\n      mul\n      0x20\n      add\n      add\n      mload\n        /* \"LuckyBall_flattened.sol\":23269:23292  ballGroups[myGroups[i]] */\n      dup2\n      sload\n      dup2\n      lt\n      tag_442\n      jumpi\n      tag_443\n      tag_225\n      jump\t// in\n    tag_443:\n    tag_442:\n      swap1\n      0x00\n      mstore\n      keccak256(0x00, 0x20)\n      add\n      sload\n        /* \"LuckyBall_flattened.sol\":23258:23292  uint end = ballGroups[myGroups[i]] */\n      swap1\n      pop\n        /* \"LuckyBall_flattened.sol\":23306:23316  uint start */\n      0x00\n        /* \"LuckyBall_flattened.sol\":23349:23350  0 */\n      dup1\n        /* \"LuckyBall_flattened.sol\":23334:23342  myGroups */\n      dup7\n        /* \"LuckyBall_flattened.sol\":23343:23344  i */\n      dup5\n        /* \"LuckyBall_flattened.sol\":23334:23345  myGroups[i] */\n      dup2\n      mload\n      dup2\n      lt\n      tag_445\n      jumpi\n      tag_446\n      tag_225\n      jump\t// in\n    tag_446:\n    tag_445:\n      0x20\n      mul\n      0x20\n      add\n      add\n      mload\n        /* \"LuckyBall_flattened.sol\":23334:23350  myGroups[i] == 0 */\n      eq\n        /* \"LuckyBall_flattened.sol\":23330:23476  if (myGroups[i] == 0) {... */\n      iszero\n      tag_447\n      jumpi\n        /* \"LuckyBall_flattened.sol\":23378:23379  1 */\n      0x01\n        /* \"LuckyBall_flattened.sol\":23370:23379  start = 1 */\n      swap1\n      pop\n        /* \"LuckyBall_flattened.sol\":23330:23476  if (myGroups[i] == 0) {... */\n      jump(tag_448)\n    tag_447:\n        /* \"LuckyBall_flattened.sol\":23460:23461  1 */\n      0x01\n        /* \"LuckyBall_flattened.sol\":23430:23440  ballGroups */\n      0x05\n        /* \"LuckyBall_flattened.sol\":23455:23456  1 */\n      0x01\n        /* \"LuckyBall_flattened.sol\":23441:23449  myGroups */\n      dup9\n        /* \"LuckyBall_flattened.sol\":23450:23451  i */\n      dup7\n        /* \"LuckyBall_flattened.sol\":23441:23452  myGroups[i] */\n      dup2\n      mload\n      dup2\n      lt\n      tag_449\n      jumpi\n      tag_450\n      tag_225\n      jump\t// in\n    tag_450:\n    tag_449:\n      0x20\n      mul\n      0x20\n      add\n      add\n      mload\n        /* \"LuckyBall_flattened.sol\":23441:23456  myGroups[i] - 1 */\n      tag_451\n      swap2\n      swap1\n      tag_242\n      jump\t// in\n    tag_451:\n        /* \"LuckyBall_flattened.sol\":23430:23457  ballGroups[myGroups[i] - 1] */\n      dup2\n      sload\n      dup2\n      lt\n      tag_452\n      jumpi\n      tag_453\n      tag_225\n      jump\t// in\n    tag_453:\n    tag_452:\n      swap1\n      0x00\n      mstore\n      keccak256(0x00, 0x20)\n      add\n      sload\n        /* \"LuckyBall_flattened.sol\":23430:23461  ballGroups[myGroups[i] - 1] + 1 */\n      tag_455\n      swap2\n      swap1\n      tag_232\n      jump\t// in\n    tag_455:\n        /* \"LuckyBall_flattened.sol\":23422:23461  start = ballGroups[myGroups[i] - 1] + 1 */\n      swap1\n      pop\n        /* \"LuckyBall_flattened.sol\":23330:23476  if (myGroups[i] == 0) {... */\n    tag_448:\n        /* \"LuckyBall_flattened.sol\":23494:23500  uint j */\n      0x00\n        /* \"LuckyBall_flattened.sol\":23501:23506  start */\n      dup2\n        /* \"LuckyBall_flattened.sol\":23494:23506  uint j=start */\n      swap1\n      pop\n        /* \"LuckyBall_flattened.sol\":23489:23593  for (uint j=start; j<=end; j++) {... */\n    tag_456:\n        /* \"LuckyBall_flattened.sol\":23511:23514  end */\n      dup3\n        /* \"LuckyBall_flattened.sol\":23508:23509  j */\n      dup2\n        /* \"LuckyBall_flattened.sol\":23508:23514  j<=end */\n      gt\n        /* \"LuckyBall_flattened.sol\":23489:23593  for (uint j=start; j<=end; j++) {... */\n      tag_457\n      jumpi\n        /* \"LuckyBall_flattened.sol\":23554:23555  j */\n      dup1\n        /* \"LuckyBall_flattened.sol\":23539:23546  ballIds */\n      dup7\n        /* \"LuckyBall_flattened.sol\":23547:23550  pos */\n      dup7\n        /* \"LuckyBall_flattened.sol\":23539:23551  ballIds[pos] */\n      dup2\n      mload\n      dup2\n      lt\n      tag_459\n      jumpi\n      tag_460\n      tag_225\n      jump\t// in\n    tag_460:\n    tag_459:\n      0x20\n      mul\n      0x20\n      add\n      add\n        /* \"LuckyBall_flattened.sol\":23539:23555  ballIds[pos] = j */\n      dup2\n      dup2\n      mstore\n      pop\n      pop\n        /* \"LuckyBall_flattened.sol\":23573:23578  pos++ */\n      dup5\n      dup1\n      tag_461\n      swap1\n      tag_258\n      jump\t// in\n    tag_461:\n      swap6\n      pop\n      pop\n        /* \"LuckyBall_flattened.sol\":23516:23519  j++ */\n      dup1\n      dup1\n      tag_462\n      swap1\n      tag_258\n      jump\t// in\n    tag_462:\n      swap2\n      pop\n      pop\n        /* \"LuckyBall_flattened.sol\":23489:23593  for (uint j=start; j<=end; j++) {... */\n      jump(tag_456)\n    tag_457:\n      pop\n        /* \"LuckyBall_flattened.sol\":23244:23630  {... */\n      pop\n      pop\n        /* \"LuckyBall_flattened.sol\":23239:23242  i++ */\n      dup1\n      dup1\n      tag_463\n      swap1\n      tag_258\n      jump\t// in\n    tag_463:\n      swap2\n      pop\n      pop\n        /* \"LuckyBall_flattened.sol\":23203:23630  for (uint i=0; i < myGroups.length; i++) {... */\n      jump(tag_437)\n    tag_438:\n      pop\n        /* \"LuckyBall_flattened.sol\":23646:23653  ballIds */\n      dup2\n        /* \"LuckyBall_flattened.sol\":23639:23653  return ballIds */\n      swap4\n      pop\n      pop\n      pop\n      pop\n        /* \"LuckyBall_flattened.sol\":22740:23660  function getBalls(address addr, uint seasonId) public view returns (uint[] memory) {... */\n      swap3\n      swap2\n      pop\n      pop\n      jump\t// out\n        /* \"LuckyBall_flattened.sol\":26409:26815  function fulfillRandomWords(... */\n    tag_264:\n        /* \"LuckyBall_flattened.sol\":26536:26545  uint seed */\n      0x00\n        /* \"LuckyBall_flattened.sol\":26581:26592  randomWords */\n      dup2\n        /* \"LuckyBall_flattened.sol\":26593:26594  0 */\n      0x00\n        /* \"LuckyBall_flattened.sol\":26581:26595  randomWords[0] */\n      dup2\n      mload\n      dup2\n      lt\n      tag_465\n      jumpi\n      tag_466\n      tag_225\n      jump\t// in\n    tag_466:\n    tag_465:\n      0x20\n      mul\n      0x20\n      add\n      add\n      mload\n        /* \"LuckyBall_flattened.sol\":26597:26612  block.timestamp */\n      timestamp\n        /* \"LuckyBall_flattened.sol\":26564:26613  abi.encodePacked(randomWords[0], block.timestamp) */\n      add(0x20, mload(0x40))\n      tag_467\n      swap3\n      swap2\n      swap1\n      tag_386\n      jump\t// in\n    tag_467:\n      mload(0x40)\n      0x20\n      dup2\n      dup4\n      sub\n      sub\n      dup2\n      mstore\n      swap1\n      0x40\n      mstore\n        /* \"LuckyBall_flattened.sol\":26554:26614  keccak256(abi.encodePacked(randomWords[0], block.timestamp)) */\n      dup1\n      mload\n      swap1\n      0x20\n      add\n      keccak256\n        /* \"LuckyBall_flattened.sol\":26549:26615  uint(keccak256(abi.encodePacked(randomWords[0], block.timestamp))) */\n      0x00\n      shr\n        /* \"LuckyBall_flattened.sol\":26536:26615  uint seed =  uint(keccak256(abi.encodePacked(randomWords[0], block.timestamp))) */\n      swap1\n      pop\n        /* \"LuckyBall_flattened.sol\":26654:26658  seed */\n      dup1\n        /* \"LuckyBall_flattened.sol\":26625:26635  s_requests */\n      0x0a\n        /* \"LuckyBall_flattened.sol\":26625:26646  s_requests[requestId] */\n      0x00\n        /* \"LuckyBall_flattened.sol\":26636:26645  requestId */\n      dup6\n        /* \"LuckyBall_flattened.sol\":26625:26646  s_requests[requestId] */\n      dup2\n      mstore\n      0x20\n      add\n      swap1\n      dup2\n      mstore\n      0x20\n      add\n      0x00\n      keccak256\n        /* \"LuckyBall_flattened.sol\":26625:26651  s_requests[requestId].seed */\n      0x01\n      add\n        /* \"LuckyBall_flattened.sol\":26625:26658  s_requests[requestId].seed = seed */\n      dup2\n      swap1\n      sstore\n      pop\n        /* \"LuckyBall_flattened.sol\":26672:26682  s_requests */\n      0x0a\n        /* \"LuckyBall_flattened.sol\":26672:26693  s_requests[requestId] */\n      0x00\n        /* \"LuckyBall_flattened.sol\":26683:26692  requestId */\n      dup5\n        /* \"LuckyBall_flattened.sol\":26672:26693  s_requests[requestId] */\n      dup2\n      mstore\n      0x20\n      add\n      swap1\n      dup2\n      mstore\n      0x20\n      add\n      0x00\n      keccak256\n        /* \"LuckyBall_flattened.sol\":26672:26706  s_requests[requestId].isSeasonPick */\n      0x00\n      add\n      0x01\n      swap1\n      sload\n      swap1\n      0x0100\n      exp\n      swap1\n      div\n      0xff\n      and\n        /* \"LuckyBall_flattened.sol\":26668:26809  if (s_requests[requestId].isSeasonPick) {... */\n      iszero\n      tag_468\n      jumpi\n        /* \"LuckyBall_flattened.sol\":26722:26743  setSeasonWinner(seed) */\n      tag_469\n        /* \"LuckyBall_flattened.sol\":26738:26742  seed */\n      dup2\n        /* \"LuckyBall_flattened.sol\":26722:26737  setSeasonWinner */\n      tag_470\n        /* \"LuckyBall_flattened.sol\":26722:26743  setSeasonWinner(seed) */\n      jump\t// in\n    tag_469:\n        /* \"LuckyBall_flattened.sol\":26668:26809  if (s_requests[requestId].isSeasonPick) {... */\n      jump(tag_471)\n    tag_468:\n        /* \"LuckyBall_flattened.sol\":26774:26798  setRevealGroupSeed(seed) */\n      tag_472\n        /* \"LuckyBall_flattened.sol\":26793:26797  seed */\n      dup2\n        /* \"LuckyBall_flattened.sol\":26774:26792  setRevealGroupSeed */\n      tag_473\n        /* \"LuckyBall_flattened.sol\":26774:26798  setRevealGroupSeed(seed) */\n      jump\t// in\n    tag_472:\n        /* \"LuckyBall_flattened.sol\":26668:26809  if (s_requests[requestId].isSeasonPick) {... */\n    tag_471:\n        /* \"LuckyBall_flattened.sol\":26526:26815  {... */\n      pop\n        /* \"LuckyBall_flattened.sol\":26409:26815  function fulfillRandomWords(... */\n      pop\n      pop\n      jump\t// out\n        /* \"LuckyBall_flattened.sol\":25611:26031  function requestRandomSeed(bool _isSeasonPick) internal returns (uint) {... */\n    tag_281:\n        /* \"LuckyBall_flattened.sol\":25676:25680  uint */\n      0x00\n        /* \"LuckyBall_flattened.sol\":25692:25706  uint requestId */\n      dup1\n        /* \"LuckyBall_flattened.sol\":25709:25720  COORDINATOR */\n      immutable(\"0x266b1640ade99b2f22d24bd1f0c6c2736890e0398a5a0b97b63a35856ae65c2b\")\n        /* \"LuckyBall_flattened.sol\":25709:25739  COORDINATOR.requestRandomWords */\n      0xffffffffffffffffffffffffffffffffffffffff\n      and\n      0x5d3b1d30\n        /* \"LuckyBall_flattened.sol\":25753:25762  s_keyHash */\n      immutable(\"0x1a65db4f2ea95c4a38ef67ec9eb02656311df27569f1d2e5f15fb9ffe8498721\")\n        /* \"LuckyBall_flattened.sol\":25776:25792  s_subscriptionId */\n      immutable(\"0x4d9fac5dc90d70d79ceac3589bb998755cf60ab2ff110225b2bffe4b0c0e4742\")\n        /* \"LuckyBall_flattened.sol\":13034:13035  3 */\n      0x03\n        /* \"LuckyBall_flattened.sol\":12983:12989  400000 */\n      0x061a80\n        /* \"LuckyBall_flattened.sol\":13069:13070  1 */\n      0x01\n        /* \"LuckyBall_flattened.sol\":25709:25888  COORDINATOR.requestRandomWords(... */\n      mload(0x40)\n      dup7\n      0xffffffff\n      and\n      0xe0\n      shl\n      dup2\n      mstore\n      0x04\n      add\n      tag_475\n      swap6\n      swap5\n      swap4\n      swap3\n      swap2\n      swap1\n      tag_476\n      jump\t// in\n    tag_475:\n      0x20\n      mload(0x40)\n      dup1\n      dup4\n      sub\n      dup2\n      0x00\n      dup8\n      gas\n      call\n      iszero\n      dup1\n      iszero\n      tag_478\n      jumpi\n      returndatasize\n      0x00\n      dup1\n      returndatacopy\n      revert(0x00, returndatasize)\n    tag_478:\n      pop\n      pop\n      pop\n      pop\n      mload(0x40)\n      returndatasize\n      not(0x1f)\n      0x1f\n      dup3\n      add\n      and\n      dup3\n      add\n      dup1\n      0x40\n      mstore\n      pop\n      dup2\n      add\n      swap1\n      tag_479\n      swap2\n      swap1\n      tag_480\n      jump\t// in\n    tag_479:\n        /* \"LuckyBall_flattened.sol\":25692:25888  uint requestId = COORDINATOR.requestRandomWords(... */\n      swap1\n      pop\n        /* \"LuckyBall_flattened.sol\":25914:25923  requestId */\n      dup1\n        /* \"LuckyBall_flattened.sol\":25898:25911  lastRequestId */\n      0x09\n        /* \"LuckyBall_flattened.sol\":25898:25923  lastRequestId = requestId */\n      dup2\n      swap1\n      sstore\n      pop\n        /* \"LuckyBall_flattened.sol\":25957:25994  RequestStatus(true, _isSeasonPick, 0) */\n      mload(0x40)\n      dup1\n      0x60\n      add\n      0x40\n      mstore\n      dup1\n        /* \"LuckyBall_flattened.sol\":25971:25975  true */\n      0x01\n        /* \"LuckyBall_flattened.sol\":25957:25994  RequestStatus(true, _isSeasonPick, 0) */\n      iszero\n      iszero\n      dup2\n      mstore\n      0x20\n      add\n        /* \"LuckyBall_flattened.sol\":25977:25990  _isSeasonPick */\n      dup5\n        /* \"LuckyBall_flattened.sol\":25957:25994  RequestStatus(true, _isSeasonPick, 0) */\n      iszero\n      iszero\n      dup2\n      mstore\n      0x20\n      add\n        /* \"LuckyBall_flattened.sol\":25992:25993  0 */\n      0x00\n        /* \"LuckyBall_flattened.sol\":25957:25994  RequestStatus(true, _isSeasonPick, 0) */\n      dup2\n      mstore\n      pop\n        /* \"LuckyBall_flattened.sol\":25933:25943  s_requests */\n      0x0a\n        /* \"LuckyBall_flattened.sol\":25933:25954  s_requests[requestId] */\n      0x00\n        /* \"LuckyBall_flattened.sol\":25944:25953  requestId */\n      dup4\n        /* \"LuckyBall_flattened.sol\":25933:25954  s_requests[requestId] */\n      dup2\n      mstore\n      0x20\n      add\n      swap1\n      dup2\n      mstore\n      0x20\n      add\n      0x00\n      keccak256\n        /* \"LuckyBall_flattened.sol\":25933:25994  s_requests[requestId] = RequestStatus(true, _isSeasonPick, 0) */\n      0x00\n      dup3\n      add\n      mload\n      dup2\n      0x00\n      add\n      exp(0x0100, 0x00)\n      dup2\n      sload\n      dup2\n      0xff\n      mul\n      not\n      and\n      swap1\n      dup4\n      iszero\n      iszero\n      mul\n      or\n      swap1\n      sstore\n      pop\n      0x20\n      dup3\n      add\n      mload\n      dup2\n      0x00\n      add\n      exp(0x0100, 0x01)\n      dup2\n      sload\n      dup2\n      0xff\n      mul\n      not\n      and\n      swap1\n      dup4\n      iszero\n      iszero\n      mul\n      or\n      swap1\n      sstore\n      pop\n      0x40\n      dup3\n      add\n      mload\n      dup2\n      0x01\n      add\n      sstore\n      swap1\n      pop\n      pop\n        /* \"LuckyBall_flattened.sol\":26011:26020  requestId */\n      dup1\n        /* \"LuckyBall_flattened.sol\":26004:26020  return requestId */\n      swap2\n      pop\n      pop\n        /* \"LuckyBall_flattened.sol\":25611:26031  function requestRandomSeed(bool _isSeasonPick) internal returns (uint) {... */\n      swap2\n      swap1\n      pop\n      jump\t// out\n        /* \"LuckyBall_flattened.sol\":20957:21654  function _requestReveal(address _addr) internal returns (bool) {... */\n    tag_291:\n        /* \"LuckyBall_flattened.sol\":21014:21018  bool */\n      0x00\n        /* \"LuckyBall_flattened.sol\":21030:21052  uint[] memory myGroups */\n      dup1\n        /* \"LuckyBall_flattened.sol\":21055:21069  userBallGroups */\n      0x0e\n        /* \"LuckyBall_flattened.sol\":21055:21076  userBallGroups[_addr] */\n      0x00\n        /* \"LuckyBall_flattened.sol\":21070:21075  _addr */\n      dup5\n        /* \"LuckyBall_flattened.sol\":21055:21076  userBallGroups[_addr] */\n      0xffffffffffffffffffffffffffffffffffffffff\n      and\n      0xffffffffffffffffffffffffffffffffffffffff\n      and\n      dup2\n      mstore\n      0x20\n      add\n      swap1\n      dup2\n      mstore\n      0x20\n      add\n      0x00\n      keccak256\n        /* \"LuckyBall_flattened.sol\":21055:21087  userBallGroups[_addr][_seasonId] */\n      0x00\n        /* \"LuckyBall_flattened.sol\":21077:21086  _seasonId */\n      sload(0x01)\n        /* \"LuckyBall_flattened.sol\":21055:21087  userBallGroups[_addr][_seasonId] */\n      dup2\n      mstore\n      0x20\n      add\n      swap1\n      dup2\n      mstore\n      0x20\n      add\n      0x00\n      keccak256\n        /* \"LuckyBall_flattened.sol\":21030:21087  uint[] memory myGroups = userBallGroups[_addr][_seasonId] */\n      dup1\n      sload\n      dup1\n      0x20\n      mul\n      0x20\n      add\n      mload(0x40)\n      swap1\n      dup2\n      add\n      0x40\n      mstore\n      dup1\n      swap3\n      swap2\n      swap1\n      dup2\n      dup2\n      mstore\n      0x20\n      add\n      dup3\n      dup1\n      sload\n      dup1\n      iszero\n      tag_482\n      jumpi\n      0x20\n      mul\n      dup3\n      add\n      swap2\n      swap1\n      0x00\n      mstore\n      keccak256(0x00, 0x20)\n      swap1\n    tag_483:\n      dup2\n      sload\n      dup2\n      mstore\n      0x20\n      add\n      swap1\n      0x01\n      add\n      swap1\n      dup1\n      dup4\n      gt\n      tag_483\n      jumpi\n    tag_482:\n      pop\n      pop\n      pop\n      pop\n      pop\n      swap1\n      pop\n        /* \"LuckyBall_flattened.sol\":21097:21115  uint revealGroupId */\n      0x00\n        /* \"LuckyBall_flattened.sol\":21118:21132  _revealGroupId */\n      sload(0x02)\n        /* \"LuckyBall_flattened.sol\":21097:21132  uint revealGroupId = _revealGroupId */\n      swap1\n      pop\n        /* \"LuckyBall_flattened.sol\":21142:21153  uint newPos */\n      0x00\n        /* \"LuckyBall_flattened.sol\":21156:21168  newRevealPos */\n      0x11\n        /* \"LuckyBall_flattened.sol\":21156:21175  newRevealPos[_addr] */\n      0x00\n        /* \"LuckyBall_flattened.sol\":21169:21174  _addr */\n      dup7\n        /* \"LuckyBall_flattened.sol\":21156:21175  newRevealPos[_addr] */\n      0xffffffffffffffffffffffffffffffffffffffff\n      and\n      0xffffffffffffffffffffffffffffffffffffffff\n      and\n      dup2\n      mstore\n      0x20\n      add\n      swap1\n      dup2\n      mstore\n      0x20\n      add\n      0x00\n      keccak256\n      sload\n        /* \"LuckyBall_flattened.sol\":21142:21175  uint newPos = newRevealPos[_addr] */\n      swap1\n      pop\n        /* \"LuckyBall_flattened.sol\":21211:21212  0 */\n      0x00\n        /* \"LuckyBall_flattened.sol\":21193:21201  myGroups */\n      dup4\n        /* \"LuckyBall_flattened.sol\":21193:21208  myGroups.length */\n      mload\n        /* \"LuckyBall_flattened.sol\":21193:21212  myGroups.length > 0 */\n      gt\n        /* \"LuckyBall_flattened.sol\":21185:21246  require(myGroups.length > 0, \"LuckyBall: No balls to reveal\") */\n      tag_484\n      jumpi\n      mload(0x40)\n      0x08c379a000000000000000000000000000000000000000000000000000000000\n      dup2\n      mstore\n      0x04\n      add\n      tag_485\n      swap1\n      tag_486\n      jump\t// in\n    tag_485:\n      mload(0x40)\n      dup1\n      swap2\n      sub\n      swap1\n      revert\n    tag_484:\n        /* \"LuckyBall_flattened.sol\":21283:21289  newPos */\n      dup1\n        /* \"LuckyBall_flattened.sol\":21264:21272  myGroups */\n      dup4\n        /* \"LuckyBall_flattened.sol\":21264:21279  myGroups.length */\n      mload\n        /* \"LuckyBall_flattened.sol\":21264:21289  myGroups.length >= newPos */\n      lt\n      iszero\n        /* \"LuckyBall_flattened.sol\":21256:21327  require(myGroups.length >= newPos, \"LuckyBall: No new balls to reveal\") */\n      tag_487\n      jumpi\n      mload(0x40)\n      0x08c379a000000000000000000000000000000000000000000000000000000000\n      dup2\n      mstore\n      0x04\n      add\n      tag_488\n      swap1\n      tag_489\n      jump\t// in\n    tag_488:\n      mload(0x40)\n      dup1\n      swap2\n      sub\n      swap1\n      revert\n    tag_487:\n        /* \"LuckyBall_flattened.sol\":21342:21348  uint i */\n      0x00\n        /* \"LuckyBall_flattened.sol\":21349:21355  newPos */\n      dup2\n        /* \"LuckyBall_flattened.sol\":21342:21355  uint i=newPos */\n      swap1\n      pop\n        /* \"LuckyBall_flattened.sol\":21337:21447  for (uint i=newPos; i<myGroups.length; i++) {... */\n    tag_490:\n        /* \"LuckyBall_flattened.sol\":21359:21367  myGroups */\n      dup4\n        /* \"LuckyBall_flattened.sol\":21359:21374  myGroups.length */\n      mload\n        /* \"LuckyBall_flattened.sol\":21357:21358  i */\n      dup2\n        /* \"LuckyBall_flattened.sol\":21357:21374  i<myGroups.length */\n      lt\n        /* \"LuckyBall_flattened.sol\":21337:21447  for (uint i=newPos; i<myGroups.length; i++) {... */\n      iszero\n      tag_491\n      jumpi\n        /* \"LuckyBall_flattened.sol\":21423:21436  revealGroupId */\n      dup3\n        /* \"LuckyBall_flattened.sol\":21395:21407  revealGroups */\n      0x0f\n        /* \"LuckyBall_flattened.sol\":21395:21420  revealGroups[myGroups[i]] */\n      0x00\n        /* \"LuckyBall_flattened.sol\":21408:21416  myGroups */\n      dup7\n        /* \"LuckyBall_flattened.sol\":21417:21418  i */\n      dup5\n        /* \"LuckyBall_flattened.sol\":21408:21419  myGroups[i] */\n      dup2\n      mload\n      dup2\n      lt\n      tag_493\n      jumpi\n      tag_494\n      tag_225\n      jump\t// in\n    tag_494:\n    tag_493:\n      0x20\n      mul\n      0x20\n      add\n      add\n      mload\n        /* \"LuckyBall_flattened.sol\":21395:21420  revealGroups[myGroups[i]] */\n      dup2\n      mstore\n      0x20\n      add\n      swap1\n      dup2\n      mstore\n      0x20\n      add\n      0x00\n      keccak256\n        /* \"LuckyBall_flattened.sol\":21395:21436  revealGroups[myGroups[i]] = revealGroupId */\n      dup2\n      swap1\n      sstore\n      pop\n        /* \"LuckyBall_flattened.sol\":21376:21379  i++ */\n      dup1\n      dup1\n      tag_495\n      swap1\n      tag_258\n      jump\t// in\n    tag_495:\n      swap2\n      pop\n      pop\n        /* \"LuckyBall_flattened.sol\":21337:21447  for (uint i=newPos; i<myGroups.length; i++) {... */\n      jump(tag_490)\n    tag_491:\n      pop\n        /* \"LuckyBall_flattened.sol\":21490:21498  myGroups */\n      dup3\n        /* \"LuckyBall_flattened.sol\":21490:21505  myGroups.length */\n      mload\n        /* \"LuckyBall_flattened.sol\":21468:21480  newRevealPos */\n      0x11\n        /* \"LuckyBall_flattened.sol\":21468:21487  newRevealPos[_addr] */\n      0x00\n        /* \"LuckyBall_flattened.sol\":21481:21486  _addr */\n      dup8\n        /* \"LuckyBall_flattened.sol\":21468:21487  newRevealPos[_addr] */\n      0xffffffffffffffffffffffffffffffffffffffff\n      and\n      0xffffffffffffffffffffffffffffffffffffffff\n      and\n      dup2\n      mstore\n      0x20\n      add\n      swap1\n      dup2\n      mstore\n      0x20\n      add\n      0x00\n      keccak256\n        /* \"LuckyBall_flattened.sol\":21468:21505  newRevealPos[_addr] = myGroups.length */\n      dup2\n      swap1\n      sstore\n      pop\n        /* \"LuckyBall_flattened.sol\":21520:21532  revealNeeded */\n      0x08\n      0x00\n      swap1\n      sload\n      swap1\n      0x0100\n      exp\n      swap1\n      div\n      0xff\n      and\n        /* \"LuckyBall_flattened.sol\":21515:21578  if (!revealNeeded) {... */\n      tag_496\n      jumpi\n        /* \"LuckyBall_flattened.sol\":21563:21567  true */\n      0x01\n        /* \"LuckyBall_flattened.sol\":21548:21560  revealNeeded */\n      0x08\n      0x00\n        /* \"LuckyBall_flattened.sol\":21548:21567  revealNeeded = true */\n      0x0100\n      exp\n      dup2\n      sload\n      dup2\n      0xff\n      mul\n      not\n      and\n      swap1\n      dup4\n      iszero\n      iszero\n      mul\n      or\n      swap1\n      sstore\n      pop\n        /* \"LuckyBall_flattened.sol\":21515:21578  if (!revealNeeded) {... */\n    tag_496:\n        /* \"LuckyBall_flattened.sol\":21619:21624  _addr */\n      dup5\n        /* \"LuckyBall_flattened.sol\":21592:21625  RevealRequested(_seasonId, _addr) */\n      0xffffffffffffffffffffffffffffffffffffffff\n      and\n      0xa202ebfe1c0b55b9f79fe93552e9c6e90996eef6d399adc87d083ade6c0a9278\n        /* \"LuckyBall_flattened.sol\":21608:21617  _seasonId */\n      sload(0x01)\n        /* \"LuckyBall_flattened.sol\":21592:21625  RevealRequested(_seasonId, _addr) */\n      mload(0x40)\n      tag_497\n      swap2\n      swap1\n      tag_54\n      jump\t// in\n    tag_497:\n      mload(0x40)\n      dup1\n      swap2\n      sub\n      swap1\n      log2\n        /* \"LuckyBall_flattened.sol\":21642:21647  false */\n      0x00\n        /* \"LuckyBall_flattened.sol\":21635:21647  return false */\n      swap4\n      pop\n      pop\n      pop\n      pop\n        /* \"LuckyBall_flattened.sol\":20957:21654  function _requestReveal(address _addr) internal returns (bool) {... */\n      swap2\n      swap1\n      pop\n      jump\t// out\n        /* \"LuckyBall_flattened.sol\":20315:20498  function generateWinningCode() internal view returns (uint) {... */\n    tag_338:\n        /* \"LuckyBall_flattened.sol\":20369:20373  uint */\n      0x00\n        /* \"LuckyBall_flattened.sol\":20392:20483  extractCode(uint(keccak256(abi.encodePacked(blockhash(block.number -1), block.timestamp)))) */\n      tag_499\n        /* \"LuckyBall_flattened.sol\":20460:20461  1 */\n      0x01\n        /* \"LuckyBall_flattened.sol\":20446:20458  block.number */\n      number\n        /* \"LuckyBall_flattened.sol\":20446:20461  block.number -1 */\n      tag_500\n      swap2\n      swap1\n      tag_242\n      jump\t// in\n    tag_500:\n        /* \"LuckyBall_flattened.sol\":20436:20462  blockhash(block.number -1) */\n      blockhash\n        /* \"LuckyBall_flattened.sol\":20464:20479  block.timestamp */\n      timestamp\n        /* \"LuckyBall_flattened.sol\":20419:20480  abi.encodePacked(blockhash(block.number -1), block.timestamp) */\n      add(0x20, mload(0x40))\n      tag_501\n      swap3\n      swap2\n      swap1\n      tag_502\n      jump\t// in\n    tag_501:\n      mload(0x40)\n      0x20\n      dup2\n      dup4\n      sub\n      sub\n      dup2\n      mstore\n      swap1\n      0x40\n      mstore\n        /* \"LuckyBall_flattened.sol\":20409:20481  keccak256(abi.encodePacked(blockhash(block.number -1), block.timestamp)) */\n      dup1\n      mload\n      swap1\n      0x20\n      add\n      keccak256\n        /* \"LuckyBall_flattened.sol\":20404:20482  uint(keccak256(abi.encodePacked(blockhash(block.number -1), block.timestamp))) */\n      0x00\n      shr\n        /* \"LuckyBall_flattened.sol\":20392:20403  extractCode */\n      tag_387\n        /* \"LuckyBall_flattened.sol\":20392:20483  extractCode(uint(keccak256(abi.encodePacked(blockhash(block.number -1), block.timestamp)))) */\n      jump\t// in\n    tag_499:\n        /* \"LuckyBall_flattened.sol\":20385:20483  return extractCode(uint(keccak256(abi.encodePacked(blockhash(block.number -1), block.timestamp)))) */\n      swap1\n      pop\n        /* \"LuckyBall_flattened.sol\":20315:20498  function generateWinningCode() internal view returns (uint) {... */\n      swap1\n      jump\t// out\n        /* \"LuckyBall_flattened.sol\":20691:20845  function extractCode(uint n) internal pure returns (uint) {... */\n    tag_387:\n        /* \"LuckyBall_flattened.sol\":20743:20747  uint */\n      0x00\n        /* \"LuckyBall_flattened.sol\":20759:20765  uint r */\n      dup1\n        /* \"LuckyBall_flattened.sol\":20772:20779  1000000 */\n      0x0f4240\n        /* \"LuckyBall_flattened.sol\":20768:20769  n */\n      dup4\n        /* \"LuckyBall_flattened.sol\":20768:20779  n % 1000000 */\n      tag_504\n      swap2\n      swap1\n      tag_505\n      jump\t// in\n    tag_504:\n        /* \"LuckyBall_flattened.sol\":20759:20779  uint r = n % 1000000 */\n      swap1\n      pop\n        /* \"LuckyBall_flattened.sol\":20797:20803  100000 */\n      0x0186a0\n        /* \"LuckyBall_flattened.sol\":20793:20794  r */\n      dup2\n        /* \"LuckyBall_flattened.sol\":20793:20803  r < 100000 */\n      lt\n        /* \"LuckyBall_flattened.sol\":20789:20821  if (r < 100000) { r += 100000; } */\n      iszero\n      tag_506\n      jumpi\n        /* \"LuckyBall_flattened.sol\":20812:20818  100000 */\n      0x0186a0\n        /* \"LuckyBall_flattened.sol\":20807:20818  r += 100000 */\n      dup2\n      tag_507\n      swap2\n      swap1\n      tag_232\n      jump\t// in\n    tag_507:\n      swap1\n      pop\n        /* \"LuckyBall_flattened.sol\":20789:20821  if (r < 100000) { r += 100000; } */\n    tag_506:\n        /* \"LuckyBall_flattened.sol\":20837:20838  r */\n      dup1\n        /* \"LuckyBall_flattened.sol\":20830:20838  return r */\n      swap2\n      pop\n      pop\n        /* \"LuckyBall_flattened.sol\":20691:20845  function extractCode(uint n) internal pure returns (uint) {... */\n      swap2\n      swap1\n      pop\n      jump\t// out\n        /* \"LuckyBall_flattened.sol\":26037:26399  function setSeasonWinner(uint randSeed) internal {... */\n    tag_470:\n        /* \"LuckyBall_flattened.sol\":26096:26117  Season storage season */\n      0x00\n        /* \"LuckyBall_flattened.sol\":26120:26127  seasons */\n      0x0d\n        /* \"LuckyBall_flattened.sol\":26120:26138  seasons[_seasonId] */\n      0x00\n        /* \"LuckyBall_flattened.sol\":26128:26137  _seasonId */\n      sload(0x01)\n        /* \"LuckyBall_flattened.sol\":26120:26138  seasons[_seasonId] */\n      dup2\n      mstore\n      0x20\n      add\n      swap1\n      dup2\n      mstore\n      0x20\n      add\n      0x00\n      keccak256\n        /* \"LuckyBall_flattened.sol\":26096:26138  Season storage season = seasons[_seasonId] */\n      swap1\n      pop\n        /* \"LuckyBall_flattened.sol\":26148:26168  uint seasonBallCount */\n      0x00\n        /* \"LuckyBall_flattened.sol\":26211:26212  1 */\n      0x01\n        /* \"LuckyBall_flattened.sol\":26190:26196  season */\n      dup3\n        /* \"LuckyBall_flattened.sol\":26190:26208  season.startBallId */\n      0x01\n      add\n      sload\n        /* \"LuckyBall_flattened.sol\":26171:26177  season */\n      dup4\n        /* \"LuckyBall_flattened.sol\":26171:26187  season.endBallId */\n      0x02\n      add\n      sload\n        /* \"LuckyBall_flattened.sol\":26171:26208  season.endBallId - season.startBallId */\n      tag_509\n      swap2\n      swap1\n      tag_242\n      jump\t// in\n    tag_509:\n        /* \"LuckyBall_flattened.sol\":26171:26212  season.endBallId - season.startBallId + 1 */\n      tag_510\n      swap2\n      swap1\n      tag_232\n      jump\t// in\n    tag_510:\n        /* \"LuckyBall_flattened.sol\":26148:26212  uint seasonBallCount = season.endBallId - season.startBallId + 1 */\n      swap1\n      pop\n        /* \"LuckyBall_flattened.sol\":26278:26293  seasonBallCount */\n      dup1\n        /* \"LuckyBall_flattened.sol\":26267:26275  randSeed */\n      dup4\n        /* \"LuckyBall_flattened.sol\":26267:26293  randSeed % seasonBallCount */\n      tag_511\n      swap2\n      swap1\n      tag_505\n      jump\t// in\n    tag_511:\n        /* \"LuckyBall_flattened.sol\":26245:26251  season */\n      dup3\n        /* \"LuckyBall_flattened.sol\":26245:26263  season.startBallId */\n      0x01\n      add\n      sload\n        /* \"LuckyBall_flattened.sol\":26245:26294  season.startBallId + (randSeed % seasonBallCount) */\n      tag_512\n      swap2\n      swap1\n      tag_232\n      jump\t// in\n    tag_512:\n        /* \"LuckyBall_flattened.sol\":26222:26228  season */\n      dup3\n        /* \"LuckyBall_flattened.sol\":26222:26242  season.winningBallId */\n      0x03\n      add\n        /* \"LuckyBall_flattened.sol\":26222:26294  season.winningBallId = season.startBallId + (randSeed % seasonBallCount) */\n      dup2\n      swap1\n      sstore\n      pop\n        /* \"LuckyBall_flattened.sol\":26322:26331  _seasonId */\n      sload(0x01)\n        /* \"LuckyBall_flattened.sol\":26309:26354  WinnerPicked(_seasonId, season.winningBallId) */\n      0x77fe960e6800d82f6d4de0fe98ffd2265aacb1c49020951062bba292f804def8\n        /* \"LuckyBall_flattened.sol\":26333:26339  season */\n      dup4\n        /* \"LuckyBall_flattened.sol\":26333:26353  season.winningBallId */\n      0x03\n      add\n      sload\n        /* \"LuckyBall_flattened.sol\":26309:26354  WinnerPicked(_seasonId, season.winningBallId) */\n      mload(0x40)\n      tag_513\n      swap2\n      swap1\n      tag_54\n      jump\t// in\n    tag_513:\n      mload(0x40)\n      dup1\n      swap2\n      sub\n      swap1\n      log2\n        /* \"LuckyBall_flattened.sol\":26370:26392  SeasonEnded(_seasonId) */\n      0x71b1ed1af5dc112f73a5ec9d0960e84a848b781220620ccc8fb91814ab3047be\n        /* \"LuckyBall_flattened.sol\":26382:26391  _seasonId */\n      sload(0x01)\n        /* \"LuckyBall_flattened.sol\":26370:26392  SeasonEnded(_seasonId) */\n      mload(0x40)\n      tag_514\n      swap2\n      swap1\n      tag_54\n      jump\t// in\n    tag_514:\n      mload(0x40)\n      dup1\n      swap2\n      sub\n      swap1\n      log1\n        /* \"LuckyBall_flattened.sol\":26086:26399  {... */\n      pop\n      pop\n        /* \"LuckyBall_flattened.sol\":26037:26399  function setSeasonWinner(uint randSeed) internal {... */\n      pop\n      jump\t// out\n        /* \"LuckyBall_flattened.sol\":25371:25605  function setRevealGroupSeed(uint randSeed) internal {... */\n    tag_473:\n        /* \"LuckyBall_flattened.sol\":25468:25476  randSeed */\n      dup1\n        /* \"LuckyBall_flattened.sol\":25433:25449  revealGroupSeeds */\n      0x10\n        /* \"LuckyBall_flattened.sol\":25433:25465  revealGroupSeeds[_revealGroupId] */\n      0x00\n        /* \"LuckyBall_flattened.sol\":25450:25464  _revealGroupId */\n      sload(0x02)\n        /* \"LuckyBall_flattened.sol\":25433:25465  revealGroupSeeds[_revealGroupId] */\n      dup2\n      mstore\n      0x20\n      add\n      swap1\n      dup2\n      mstore\n      0x20\n      add\n      0x00\n      keccak256\n        /* \"LuckyBall_flattened.sol\":25433:25476  revealGroupSeeds[_revealGroupId] = randSeed */\n      dup2\n      swap1\n      sstore\n      pop\n        /* \"LuckyBall_flattened.sol\":25491:25534  CodeSeedRevealed(_seasonId, _revealGroupId) */\n      0xdbf0db347834a4a20f04be58d476eefc7e831a5328fac4b75fae72ada1028243\n        /* \"LuckyBall_flattened.sol\":25508:25517  _seasonId */\n      sload(0x01)\n        /* \"LuckyBall_flattened.sol\":25519:25533  _revealGroupId */\n      sload(0x02)\n        /* \"LuckyBall_flattened.sol\":25491:25534  CodeSeedRevealed(_seasonId, _revealGroupId) */\n      mload(0x40)\n      tag_516\n      swap3\n      swap2\n      swap1\n      tag_517\n      jump\t// in\n    tag_516:\n      mload(0x40)\n      dup1\n      swap2\n      sub\n      swap1\n      log1\n        /* \"LuckyBall_flattened.sol\":25559:25564  false */\n      0x00\n        /* \"LuckyBall_flattened.sol\":25544:25556  revealNeeded */\n      0x08\n      0x00\n        /* \"LuckyBall_flattened.sol\":25544:25564  revealNeeded = false */\n      0x0100\n      exp\n      dup2\n      sload\n      dup2\n      0xff\n      mul\n      not\n      and\n      swap1\n      dup4\n      iszero\n      iszero\n      mul\n      or\n      swap1\n      sstore\n      pop\n        /* \"LuckyBall_flattened.sol\":25582:25596  _revealGroupId */\n      0x02\n      0x00\n        /* \"LuckyBall_flattened.sol\":25582:25598  _revealGroupId++ */\n      dup2\n      sload\n      dup1\n      swap3\n      swap2\n      swap1\n      tag_518\n      swap1\n      tag_258\n      jump\t// in\n    tag_518:\n      swap2\n      swap1\n      pop\n      sstore\n      pop\n        /* \"LuckyBall_flattened.sol\":25371:25605  function setRevealGroupSeed(uint randSeed) internal {... */\n      pop\n      jump\t// out\n        /* \"#utility.yul\":7:82   */\n    tag_519:\n        /* \"#utility.yul\":40:46   */\n      0x00\n        /* \"#utility.yul\":73:75   */\n      0x40\n        /* \"#utility.yul\":67:76   */\n      mload\n        /* \"#utility.yul\":57:76   */\n      swap1\n      pop\n        /* \"#utility.yul\":7:82   */\n      swap1\n      jump\t// out\n        /* \"#utility.yul\":88:205   */\n    tag_520:\n        /* \"#utility.yul\":197:198   */\n      0x00\n        /* \"#utility.yul\":194:195   */\n      dup1\n        /* \"#utility.yul\":187:199   */\n      revert\n        /* \"#utility.yul\":211:328   */\n    tag_521:\n        /* \"#utility.yul\":320:321   */\n      0x00\n        /* \"#utility.yul\":317:318   */\n      dup1\n        /* \"#utility.yul\":310:322   */\n      revert\n        /* \"#utility.yul\":334:411   */\n    tag_522:\n        /* \"#utility.yul\":371:378   */\n      0x00\n        /* \"#utility.yul\":400:405   */\n      dup2\n        /* \"#utility.yul\":389:405   */\n      swap1\n      pop\n        /* \"#utility.yul\":334:411   */\n      swap2\n      swap1\n      pop\n      jump\t// out\n        /* \"#utility.yul\":417:539   */\n    tag_523:\n        /* \"#utility.yul\":490:514   */\n      tag_612\n        /* \"#utility.yul\":508:513   */\n      dup2\n        /* \"#utility.yul\":490:514   */\n      tag_522\n      jump\t// in\n    tag_612:\n        /* \"#utility.yul\":483:488   */\n      dup2\n        /* \"#utility.yul\":480:515   */\n      eq\n        /* \"#utility.yul\":470:533   */\n      tag_613\n      jumpi\n        /* \"#utility.yul\":529:530   */\n      0x00\n        /* \"#utility.yul\":526:527   */\n      dup1\n        /* \"#utility.yul\":519:531   */\n      revert\n        /* \"#utility.yul\":470:533   */\n    tag_613:\n        /* \"#utility.yul\":417:539   */\n      pop\n      jump\t// out\n        /* \"#utility.yul\":545:684   */\n    tag_524:\n        /* \"#utility.yul\":591:596   */\n      0x00\n        /* \"#utility.yul\":629:635   */\n      dup2\n        /* \"#utility.yul\":616:636   */\n      calldataload\n        /* \"#utility.yul\":607:636   */\n      swap1\n      pop\n        /* \"#utility.yul\":645:678   */\n      tag_615\n        /* \"#utility.yul\":672:677   */\n      dup2\n        /* \"#utility.yul\":645:678   */\n      tag_523\n      jump\t// in\n    tag_615:\n        /* \"#utility.yul\":545:684   */\n      swap3\n      swap2\n      pop\n      pop\n      jump\t// out\n        /* \"#utility.yul\":690:1019   */\n    tag_51:\n        /* \"#utility.yul\":749:755   */\n      0x00\n        /* \"#utility.yul\":798:800   */\n      0x20\n        /* \"#utility.yul\":786:795   */\n      dup3\n        /* \"#utility.yul\":777:784   */\n      dup5\n        /* \"#utility.yul\":773:796   */\n      sub\n        /* \"#utility.yul\":769:801   */\n      slt\n        /* \"#utility.yul\":766:885   */\n      iszero\n      tag_617\n      jumpi\n        /* \"#utility.yul\":804:883   */\n      tag_618\n      tag_520\n      jump\t// in\n    tag_618:\n        /* \"#utility.yul\":766:885   */\n    tag_617:\n        /* \"#utility.yul\":924:925   */\n      0x00\n        /* \"#utility.yul\":949:1002   */\n      tag_619\n        /* \"#utility.yul\":994:1001   */\n      dup5\n        /* \"#utility.yul\":985:991   */\n      dup3\n        /* \"#utility.yul\":974:983   */\n      dup6\n        /* \"#utility.yul\":970:992   */\n      add\n        /* \"#utility.yul\":949:1002   */\n      tag_524\n      jump\t// in\n    tag_619:\n        /* \"#utility.yul\":939:1002   */\n      swap2\n      pop\n        /* \"#utility.yul\":895:1012   */\n      pop\n        /* \"#utility.yul\":690:1019   */\n      swap3\n      swap2\n      pop\n      pop\n      jump\t// out\n        /* \"#utility.yul\":1025:1143   */\n    tag_525:\n        /* \"#utility.yul\":1112:1136   */\n      tag_621\n        /* \"#utility.yul\":1130:1135   */\n      dup2\n        /* \"#utility.yul\":1112:1136   */\n      tag_522\n      jump\t// in\n    tag_621:\n        /* \"#utility.yul\":1107:1110   */\n      dup3\n        /* \"#utility.yul\":1100:1137   */\n      mstore\n        /* \"#utility.yul\":1025:1143   */\n      pop\n      pop\n      jump\t// out\n        /* \"#utility.yul\":1149:1371   */\n    tag_54:\n        /* \"#utility.yul\":1242:1246   */\n      0x00\n        /* \"#utility.yul\":1280:1282   */\n      0x20\n        /* \"#utility.yul\":1269:1278   */\n      dup3\n        /* \"#utility.yul\":1265:1283   */\n      add\n        /* \"#utility.yul\":1257:1283   */\n      swap1\n      pop\n        /* \"#utility.yul\":1293:1364   */\n      tag_623\n        /* \"#utility.yul\":1361:1362   */\n      0x00\n        /* \"#utility.yul\":1350:1359   */\n      dup4\n        /* \"#utility.yul\":1346:1363   */\n      add\n        /* \"#utility.yul\":1337:1343   */\n      dup5\n        /* \"#utility.yul\":1293:1364   */\n      tag_525\n      jump\t// in\n    tag_623:\n        /* \"#utility.yul\":1149:1371   */\n      swap3\n      swap2\n      pop\n      pop\n      jump\t// out\n        /* \"#utility.yul\":1377:1467   */\n    tag_526:\n        /* \"#utility.yul\":1411:1418   */\n      0x00\n        /* \"#utility.yul\":1454:1459   */\n      dup2\n        /* \"#utility.yul\":1447:1460   */\n      iszero\n        /* \"#utility.yul\":1440:1461   */\n      iszero\n        /* \"#utility.yul\":1429:1461   */\n      swap1\n      pop\n        /* \"#utility.yul\":1377:1467   */\n      swap2\n      swap1\n      pop\n      jump\t// out\n        /* \"#utility.yul\":1473:1582   */\n    tag_527:\n        /* \"#utility.yul\":1554:1575   */\n      tag_626\n        /* \"#utility.yul\":1569:1574   */\n      dup2\n        /* \"#utility.yul\":1554:1575   */\n      tag_526\n      jump\t// in\n    tag_626:\n        /* \"#utility.yul\":1549:1552   */\n      dup3\n        /* \"#utility.yul\":1542:1576   */\n      mstore\n        /* \"#utility.yul\":1473:1582   */\n      pop\n      pop\n      jump\t// out\n        /* \"#utility.yul\":1588:1798   */\n    tag_58:\n        /* \"#utility.yul\":1675:1679   */\n      0x00\n        /* \"#utility.yul\":1713:1715   */\n      0x20\n        /* \"#utility.yul\":1702:1711   */\n      dup3\n        /* \"#utility.yul\":1698:1716   */\n      add\n        /* \"#utility.yul\":1690:1716   */\n      swap1\n      pop\n        /* \"#utility.yul\":1726:1791   */\n      tag_628\n        /* \"#utility.yul\":1788:1789   */\n      0x00\n        /* \"#utility.yul\":1777:1786   */\n      dup4\n        /* \"#utility.yul\":1773:1790   */\n      add\n        /* \"#utility.yul\":1764:1770   */\n      dup5\n        /* \"#utility.yul\":1726:1791   */\n      tag_527\n      jump\t// in\n    tag_628:\n        /* \"#utility.yul\":1588:1798   */\n      swap3\n      swap2\n      pop\n      pop\n      jump\t// out\n        /* \"#utility.yul\":1804:1921   */\n    tag_528:\n        /* \"#utility.yul\":1913:1914   */\n      0x00\n        /* \"#utility.yul\":1910:1911   */\n      dup1\n        /* \"#utility.yul\":1903:1915   */\n      revert\n        /* \"#utility.yul\":1927:2044   */\n    tag_529:\n        /* \"#utility.yul\":2036:2037   */\n      0x00\n        /* \"#utility.yul\":2033:2034   */\n      dup1\n        /* \"#utility.yul\":2026:2038   */\n      revert\n        /* \"#utility.yul\":2050:2167   */\n    tag_530:\n        /* \"#utility.yul\":2159:2160   */\n      0x00\n        /* \"#utility.yul\":2156:2157   */\n      dup1\n        /* \"#utility.yul\":2149:2161   */\n      revert\n        /* \"#utility.yul\":2190:2758   */\n    tag_531:\n        /* \"#utility.yul\":2263:2271   */\n      0x00\n        /* \"#utility.yul\":2273:2279   */\n      dup1\n        /* \"#utility.yul\":2323:2326   */\n      dup4\n        /* \"#utility.yul\":2316:2320   */\n      0x1f\n        /* \"#utility.yul\":2308:2314   */\n      dup5\n        /* \"#utility.yul\":2304:2321   */\n      add\n        /* \"#utility.yul\":2300:2327   */\n      slt\n        /* \"#utility.yul\":2290:2412   */\n      tag_633\n      jumpi\n        /* \"#utility.yul\":2331:2410   */\n      tag_634\n      tag_528\n      jump\t// in\n    tag_634:\n        /* \"#utility.yul\":2290:2412   */\n    tag_633:\n        /* \"#utility.yul\":2444:2450   */\n      dup3\n        /* \"#utility.yul\":2431:2451   */\n      calldataload\n        /* \"#utility.yul\":2421:2451   */\n      swap1\n      pop\n        /* \"#utility.yul\":2474:2492   */\n      0xffffffffffffffff\n        /* \"#utility.yul\":2466:2472   */\n      dup2\n        /* \"#utility.yul\":2463:2493   */\n      gt\n        /* \"#utility.yul\":2460:2577   */\n      iszero\n      tag_635\n      jumpi\n        /* \"#utility.yul\":2496:2575   */\n      tag_636\n      tag_529\n      jump\t// in\n    tag_636:\n        /* \"#utility.yul\":2460:2577   */\n    tag_635:\n        /* \"#utility.yul\":2610:2614   */\n      0x20\n        /* \"#utility.yul\":2602:2608   */\n      dup4\n        /* \"#utility.yul\":2598:2615   */\n      add\n        /* \"#utility.yul\":2586:2615   */\n      swap2\n      pop\n        /* \"#utility.yul\":2664:2667   */\n      dup4\n        /* \"#utility.yul\":2656:2660   */\n      0x20\n        /* \"#utility.yul\":2648:2654   */\n      dup3\n        /* \"#utility.yul\":2644:2661   */\n      mul\n        /* \"#utility.yul\":2634:2642   */\n      dup4\n        /* \"#utility.yul\":2630:2662   */\n      add\n        /* \"#utility.yul\":2627:2668   */\n      gt\n        /* \"#utility.yul\":2624:2752   */\n      iszero\n      tag_637\n      jumpi\n        /* \"#utility.yul\":2671:2750   */\n      tag_638\n      tag_530\n      jump\t// in\n    tag_638:\n        /* \"#utility.yul\":2624:2752   */\n    tag_637:\n        /* \"#utility.yul\":2190:2758   */\n      swap3\n      pop\n      swap3\n      swap1\n      pop\n      jump\t// out\n        /* \"#utility.yul\":2781:3349   */\n    tag_532:\n        /* \"#utility.yul\":2854:2862   */\n      0x00\n        /* \"#utility.yul\":2864:2870   */\n      dup1\n        /* \"#utility.yul\":2914:2917   */\n      dup4\n        /* \"#utility.yul\":2907:2911   */\n      0x1f\n        /* \"#utility.yul\":2899:2905   */\n      dup5\n        /* \"#utility.yul\":2895:2912   */\n      add\n        /* \"#utility.yul\":2891:2918   */\n      slt\n        /* \"#utility.yul\":2881:3003   */\n      tag_640\n      jumpi\n        /* \"#utility.yul\":2922:3001   */\n      tag_641\n      tag_528\n      jump\t// in\n    tag_641:\n        /* \"#utility.yul\":2881:3003   */\n    tag_640:\n        /* \"#utility.yul\":3035:3041   */\n      dup3\n        /* \"#utility.yul\":3022:3042   */\n      calldataload\n        /* \"#utility.yul\":3012:3042   */\n      swap1\n      pop\n        /* \"#utility.yul\":3065:3083   */\n      0xffffffffffffffff\n        /* \"#utility.yul\":3057:3063   */\n      dup2\n        /* \"#utility.yul\":3054:3084   */\n      gt\n        /* \"#utility.yul\":3051:3168   */\n      iszero\n      tag_642\n      jumpi\n        /* \"#utility.yul\":3087:3166   */\n      tag_643\n      tag_529\n      jump\t// in\n    tag_643:\n        /* \"#utility.yul\":3051:3168   */\n    tag_642:\n        /* \"#utility.yul\":3201:3205   */\n      0x20\n        /* \"#utility.yul\":3193:3199   */\n      dup4\n        /* \"#utility.yul\":3189:3206   */\n      add\n        /* \"#utility.yul\":3177:3206   */\n      swap2\n      pop\n        /* \"#utility.yul\":3255:3258   */\n      dup4\n        /* \"#utility.yul\":3247:3251   */\n      0x20\n        /* \"#utility.yul\":3239:3245   */\n      dup3\n        /* \"#utility.yul\":3235:3252   */\n      mul\n        /* \"#utility.yul\":3225:3233   */\n      dup4\n        /* \"#utility.yul\":3221:3253   */\n      add\n        /* \"#utility.yul\":3218:3259   */\n      gt\n        /* \"#utility.yul\":3215:3343   */\n      iszero\n      tag_644\n      jumpi\n        /* \"#utility.yul\":3262:3341   */\n      tag_645\n      tag_530\n      jump\t// in\n    tag_645:\n        /* \"#utility.yul\":3215:3343   */\n    tag_644:\n        /* \"#utility.yul\":2781:3349   */\n      swap3\n      pop\n      swap3\n      swap1\n      pop\n      jump\t// out\n        /* \"#utility.yul\":3355:4289   */\n    tag_64:\n        /* \"#utility.yul\":3477:3483   */\n      0x00\n        /* \"#utility.yul\":3485:3491   */\n      dup1\n        /* \"#utility.yul\":3493:3499   */\n      0x00\n        /* \"#utility.yul\":3501:3507   */\n      dup1\n        /* \"#utility.yul\":3550:3552   */\n      0x40\n        /* \"#utility.yul\":3538:3547   */\n      dup6\n        /* \"#utility.yul\":3529:3536   */\n      dup8\n        /* \"#utility.yul\":3525:3548   */\n      sub\n        /* \"#utility.yul\":3521:3553   */\n      slt\n        /* \"#utility.yul\":3518:3637   */\n      iszero\n      tag_647\n      jumpi\n        /* \"#utility.yul\":3556:3635   */\n      tag_648\n      tag_520\n      jump\t// in\n    tag_648:\n        /* \"#utility.yul\":3518:3637   */\n    tag_647:\n        /* \"#utility.yul\":3704:3705   */\n      0x00\n        /* \"#utility.yul\":3693:3702   */\n      dup6\n        /* \"#utility.yul\":3689:3706   */\n      add\n        /* \"#utility.yul\":3676:3707   */\n      calldataload\n        /* \"#utility.yul\":3734:3752   */\n      0xffffffffffffffff\n        /* \"#utility.yul\":3726:3732   */\n      dup2\n        /* \"#utility.yul\":3723:3753   */\n      gt\n        /* \"#utility.yul\":3720:3837   */\n      iszero\n      tag_649\n      jumpi\n        /* \"#utility.yul\":3756:3835   */\n      tag_650\n      tag_521\n      jump\t// in\n    tag_650:\n        /* \"#utility.yul\":3720:3837   */\n    tag_649:\n        /* \"#utility.yul\":3869:3949   */\n      tag_651\n        /* \"#utility.yul\":3941:3948   */\n      dup8\n        /* \"#utility.yul\":3932:3938   */\n      dup3\n        /* \"#utility.yul\":3921:3930   */\n      dup9\n        /* \"#utility.yul\":3917:3939   */\n      add\n        /* \"#utility.yul\":3869:3949   */\n      tag_531\n      jump\t// in\n    tag_651:\n        /* \"#utility.yul\":3851:3949   */\n      swap5\n      pop\n      swap5\n      pop\n        /* \"#utility.yul\":3647:3959   */\n      pop\n        /* \"#utility.yul\":4026:4028   */\n      0x20\n        /* \"#utility.yul\":4015:4024   */\n      dup6\n        /* \"#utility.yul\":4011:4029   */\n      add\n        /* \"#utility.yul\":3998:4030   */\n      calldataload\n        /* \"#utility.yul\":4057:4075   */\n      0xffffffffffffffff\n        /* \"#utility.yul\":4049:4055   */\n      dup2\n        /* \"#utility.yul\":4046:4076   */\n      gt\n        /* \"#utility.yul\":4043:4160   */\n      iszero\n      tag_652\n      jumpi\n        /* \"#utility.yul\":4079:4158   */\n      tag_653\n      tag_521\n      jump\t// in\n    tag_653:\n        /* \"#utility.yul\":4043:4160   */\n    tag_652:\n        /* \"#utility.yul\":4192:4272   */\n      tag_654\n        /* \"#utility.yul\":4264:4271   */\n      dup8\n        /* \"#utility.yul\":4255:4261   */\n      dup3\n        /* \"#utility.yul\":4244:4253   */\n      dup9\n        /* \"#utility.yul\":4240:4262   */\n      add\n        /* \"#utility.yul\":4192:4272   */\n      tag_532\n      jump\t// in\n    tag_654:\n        /* \"#utility.yul\":4174:4272   */\n      swap3\n      pop\n      swap3\n      pop\n        /* \"#utility.yul\":3969:4282   */\n      pop\n        /* \"#utility.yul\":3355:4289   */\n      swap3\n      swap6\n      swap2\n      swap5\n      pop\n      swap3\n      pop\n      jump\t// out\n        /* \"#utility.yul\":4295:4397   */\n    tag_533:\n        /* \"#utility.yul\":4336:4342   */\n      0x00\n        /* \"#utility.yul\":4387:4389   */\n      0x1f\n        /* \"#utility.yul\":4383:4390   */\n      not\n        /* \"#utility.yul\":4378:4380   */\n      0x1f\n        /* \"#utility.yul\":4371:4376   */\n      dup4\n        /* \"#utility.yul\":4367:4381   */\n      add\n        /* \"#utility.yul\":4363:4391   */\n      and\n        /* \"#utility.yul\":4353:4391   */\n      swap1\n      pop\n        /* \"#utility.yul\":4295:4397   */\n      swap2\n      swap1\n      pop\n      jump\t// out\n        /* \"#utility.yul\":4403:4583   */\n    tag_435:\n        /* \"#utility.yul\":4451:4528   */\n      0x4e487b7100000000000000000000000000000000000000000000000000000000\n        /* \"#utility.yul\":4448:4449   */\n      0x00\n        /* \"#utility.yul\":4441:4529   */\n      mstore\n        /* \"#utility.yul\":4548:4552   */\n      0x41\n        /* \"#utility.yul\":4545:4546   */\n      0x04\n        /* \"#utility.yul\":4538:4553   */\n      mstore\n        /* \"#utility.yul\":4572:4576   */\n      0x24\n        /* \"#utility.yul\":4569:4570   */\n      0x00\n        /* \"#utility.yul\":4562:4577   */\n      revert\n        /* \"#utility.yul\":4589:4870   */\n    tag_534:\n        /* \"#utility.yul\":4672:4699   */\n      tag_658\n        /* \"#utility.yul\":4694:4698   */\n      dup3\n        /* \"#utility.yul\":4672:4699   */\n      tag_533\n      jump\t// in\n    tag_658:\n        /* \"#utility.yul\":4664:4670   */\n      dup2\n        /* \"#utility.yul\":4660:4700   */\n      add\n        /* \"#utility.yul\":4802:4808   */\n      dup2\n        /* \"#utility.yul\":4790:4800   */\n      dup2\n        /* \"#utility.yul\":4787:4809   */\n      lt\n        /* \"#utility.yul\":4766:4784   */\n      0xffffffffffffffff\n        /* \"#utility.yul\":4754:4764   */\n      dup3\n        /* \"#utility.yul\":4751:4785   */\n      gt\n        /* \"#utility.yul\":4748:4810   */\n      or\n        /* \"#utility.yul\":4745:4833   */\n      iszero\n      tag_659\n      jumpi\n        /* \"#utility.yul\":4813:4831   */\n      tag_660\n      tag_435\n      jump\t// in\n    tag_660:\n        /* \"#utility.yul\":4745:4833   */\n    tag_659:\n        /* \"#utility.yul\":4853:4863   */\n      dup1\n        /* \"#utility.yul\":4849:4851   */\n      0x40\n        /* \"#utility.yul\":4842:4864   */\n      mstore\n        /* \"#utility.yul\":4632:4870   */\n      pop\n        /* \"#utility.yul\":4589:4870   */\n      pop\n      pop\n      jump\t// out\n        /* \"#utility.yul\":4876:5005   */\n    tag_535:\n        /* \"#utility.yul\":4910:4916   */\n      0x00\n        /* \"#utility.yul\":4937:4957   */\n      tag_662\n      tag_519\n      jump\t// in\n    tag_662:\n        /* \"#utility.yul\":4927:4957   */\n      swap1\n      pop\n        /* \"#utility.yul\":4966:4999   */\n      tag_663\n        /* \"#utility.yul\":4994:4998   */\n      dup3\n        /* \"#utility.yul\":4986:4992   */\n      dup3\n        /* \"#utility.yul\":4966:4999   */\n      tag_534\n      jump\t// in\n    tag_663:\n        /* \"#utility.yul\":4876:5005   */\n      swap2\n      swap1\n      pop\n      jump\t// out\n        /* \"#utility.yul\":5011:5322   */\n    tag_536:\n        /* \"#utility.yul\":5088:5092   */\n      0x00\n        /* \"#utility.yul\":5178:5196   */\n      0xffffffffffffffff\n        /* \"#utility.yul\":5170:5176   */\n      dup3\n        /* \"#utility.yul\":5167:5197   */\n      gt\n        /* \"#utility.yul\":5164:5220   */\n      iszero\n      tag_665\n      jumpi\n        /* \"#utility.yul\":5200:5218   */\n      tag_666\n      tag_435\n      jump\t// in\n    tag_666:\n        /* \"#utility.yul\":5164:5220   */\n    tag_665:\n        /* \"#utility.yul\":5250:5254   */\n      0x20\n        /* \"#utility.yul\":5242:5248   */\n      dup3\n        /* \"#utility.yul\":5238:5255   */\n      mul\n        /* \"#utility.yul\":5230:5255   */\n      swap1\n      pop\n        /* \"#utility.yul\":5310:5314   */\n      0x20\n        /* \"#utility.yul\":5304:5308   */\n      dup2\n        /* \"#utility.yul\":5300:5315   */\n      add\n        /* \"#utility.yul\":5292:5315   */\n      swap1\n      pop\n        /* \"#utility.yul\":5011:5322   */\n      swap2\n      swap1\n      pop\n      jump\t// out\n        /* \"#utility.yul\":5345:6055   */\n    tag_537:\n        /* \"#utility.yul\":5441:5446   */\n      0x00\n        /* \"#utility.yul\":5466:5547   */\n      tag_668\n        /* \"#utility.yul\":5482:5546   */\n      tag_669\n        /* \"#utility.yul\":5539:5545   */\n      dup5\n        /* \"#utility.yul\":5482:5546   */\n      tag_536\n      jump\t// in\n    tag_669:\n        /* \"#utility.yul\":5466:5547   */\n      tag_535\n      jump\t// in\n    tag_668:\n        /* \"#utility.yul\":5457:5547   */\n      swap1\n      pop\n        /* \"#utility.yul\":5567:5572   */\n      dup1\n        /* \"#utility.yul\":5596:5602   */\n      dup4\n        /* \"#utility.yul\":5589:5594   */\n      dup3\n        /* \"#utility.yul\":5582:5603   */\n      mstore\n        /* \"#utility.yul\":5630:5634   */\n      0x20\n        /* \"#utility.yul\":5623:5628   */\n      dup3\n        /* \"#utility.yul\":5619:5635   */\n      add\n        /* \"#utility.yul\":5612:5635   */\n      swap1\n      pop\n        /* \"#utility.yul\":5683:5687   */\n      0x20\n        /* \"#utility.yul\":5675:5681   */\n      dup5\n        /* \"#utility.yul\":5671:5688   */\n      mul\n        /* \"#utility.yul\":5663:5669   */\n      dup4\n        /* \"#utility.yul\":5659:5689   */\n      add\n        /* \"#utility.yul\":5712:5715   */\n      dup6\n        /* \"#utility.yul\":5704:5710   */\n      dup2\n        /* \"#utility.yul\":5701:5716   */\n      gt\n        /* \"#utility.yul\":5698:5820   */\n      iszero\n      tag_670\n      jumpi\n        /* \"#utility.yul\":5731:5810   */\n      tag_671\n      tag_530\n      jump\t// in\n    tag_671:\n        /* \"#utility.yul\":5698:5820   */\n    tag_670:\n        /* \"#utility.yul\":5846:5852   */\n      dup4\n        /* \"#utility.yul\":5829:6049   */\n    tag_672:\n        /* \"#utility.yul\":5863:5869   */\n      dup2\n        /* \"#utility.yul\":5858:5861   */\n      dup2\n        /* \"#utility.yul\":5855:5870   */\n      lt\n        /* \"#utility.yul\":5829:6049   */\n      iszero\n      tag_674\n      jumpi\n        /* \"#utility.yul\":5938:5941   */\n      dup1\n        /* \"#utility.yul\":5967:6004   */\n      tag_675\n        /* \"#utility.yul\":6000:6003   */\n      dup9\n        /* \"#utility.yul\":5988:5998   */\n      dup3\n        /* \"#utility.yul\":5967:6004   */\n      tag_524\n      jump\t// in\n    tag_675:\n        /* \"#utility.yul\":5962:5965   */\n      dup5\n        /* \"#utility.yul\":5955:6005   */\n      mstore\n        /* \"#utility.yul\":6034:6038   */\n      0x20\n        /* \"#utility.yul\":6029:6032   */\n      dup5\n        /* \"#utility.yul\":6025:6039   */\n      add\n        /* \"#utility.yul\":6018:6039   */\n      swap4\n      pop\n        /* \"#utility.yul\":5905:6049   */\n      pop\n        /* \"#utility.yul\":5889:5893   */\n      0x20\n        /* \"#utility.yul\":5884:5887   */\n      dup2\n        /* \"#utility.yul\":5880:5894   */\n      add\n        /* \"#utility.yul\":5873:5894   */\n      swap1\n      pop\n        /* \"#utility.yul\":5829:6049   */\n      jump(tag_672)\n    tag_674:\n        /* \"#utility.yul\":5833:5854   */\n      pop\n        /* \"#utility.yul\":5447:6055   */\n      pop\n      pop\n        /* \"#utility.yul\":5345:6055   */\n      swap4\n      swap3\n      pop\n      pop\n      pop\n      jump\t// out\n        /* \"#utility.yul\":6078:6448   */\n    tag_538:\n        /* \"#utility.yul\":6149:6154   */\n      0x00\n        /* \"#utility.yul\":6198:6201   */\n      dup3\n        /* \"#utility.yul\":6191:6195   */\n      0x1f\n        /* \"#utility.yul\":6183:6189   */\n      dup4\n        /* \"#utility.yul\":6179:6196   */\n      add\n        /* \"#utility.yul\":6175:6202   */\n      slt\n        /* \"#utility.yul\":6165:6287   */\n      tag_677\n      jumpi\n        /* \"#utility.yul\":6206:6285   */\n      tag_678\n      tag_528\n      jump\t// in\n    tag_678:\n        /* \"#utility.yul\":6165:6287   */\n    tag_677:\n        /* \"#utility.yul\":6323:6329   */\n      dup2\n        /* \"#utility.yul\":6310:6330   */\n      calldataload\n        /* \"#utility.yul\":6348:6442   */\n      tag_679\n        /* \"#utility.yul\":6438:6441   */\n      dup5\n        /* \"#utility.yul\":6430:6436   */\n      dup3\n        /* \"#utility.yul\":6423:6427   */\n      0x20\n        /* \"#utility.yul\":6415:6421   */\n      dup7\n        /* \"#utility.yul\":6411:6428   */\n      add\n        /* \"#utility.yul\":6348:6442   */\n      tag_537\n      jump\t// in\n    tag_679:\n        /* \"#utility.yul\":6339:6442   */\n      swap2\n      pop\n        /* \"#utility.yul\":6155:6448   */\n      pop\n        /* \"#utility.yul\":6078:6448   */\n      swap3\n      swap2\n      pop\n      pop\n      jump\t// out\n        /* \"#utility.yul\":6454:7138   */\n    tag_69:\n        /* \"#utility.yul\":6547:6553   */\n      0x00\n        /* \"#utility.yul\":6555:6561   */\n      dup1\n        /* \"#utility.yul\":6604:6606   */\n      0x40\n        /* \"#utility.yul\":6592:6601   */\n      dup4\n        /* \"#utility.yul\":6583:6590   */\n      dup6\n        /* \"#utility.yul\":6579:6602   */\n      sub\n        /* \"#utility.yul\":6575:6607   */\n      slt\n        /* \"#utility.yul\":6572:6691   */\n      iszero\n      tag_681\n      jumpi\n        /* \"#utility.yul\":6610:6689   */\n      tag_682\n      tag_520\n      jump\t// in\n    tag_682:\n        /* \"#utility.yul\":6572:6691   */\n    tag_681:\n        /* \"#utility.yul\":6730:6731   */\n      0x00\n        /* \"#utility.yul\":6755:6808   */\n      tag_683\n        /* \"#utility.yul\":6800:6807   */\n      dup6\n        /* \"#utility.yul\":6791:6797   */\n      dup3\n        /* \"#utility.yul\":6780:6789   */\n      dup7\n        /* \"#utility.yul\":6776:6798   */\n      add\n        /* \"#utility.yul\":6755:6808   */\n      tag_524\n      jump\t// in\n    tag_683:\n        /* \"#utility.yul\":6745:6808   */\n      swap3\n      pop\n        /* \"#utility.yul\":6701:6818   */\n      pop\n        /* \"#utility.yul\":6885:6887   */\n      0x20\n        /* \"#utility.yul\":6874:6883   */\n      dup4\n        /* \"#utility.yul\":6870:6888   */\n      add\n        /* \"#utility.yul\":6857:6889   */\n      calldataload\n        /* \"#utility.yul\":6916:6934   */\n      0xffffffffffffffff\n        /* \"#utility.yul\":6908:6914   */\n      dup2\n        /* \"#utility.yul\":6905:6935   */\n      gt\n        /* \"#utility.yul\":6902:7019   */\n      iszero\n      tag_684\n      jumpi\n        /* \"#utility.yul\":6938:7017   */\n      tag_685\n      tag_521\n      jump\t// in\n    tag_685:\n        /* \"#utility.yul\":6902:7019   */\n    tag_684:\n        /* \"#utility.yul\":7043:7121   */\n      tag_686\n        /* \"#utility.yul\":7113:7120   */\n      dup6\n        /* \"#utility.yul\":7104:7110   */\n      dup3\n        /* \"#utility.yul\":7093:7102   */\n      dup7\n        /* \"#utility.yul\":7089:7111   */\n      add\n        /* \"#utility.yul\":7043:7121   */\n      tag_538\n      jump\t// in\n    tag_686:\n        /* \"#utility.yul\":7033:7121   */\n      swap2\n      pop\n        /* \"#utility.yul\":6828:7131   */\n      pop\n        /* \"#utility.yul\":6454:7138   */\n      swap3\n      pop\n      swap3\n      swap1\n      pop\n      jump\t// out\n        /* \"#utility.yul\":7144:7270   */\n    tag_539:\n        /* \"#utility.yul\":7181:7188   */\n      0x00\n        /* \"#utility.yul\":7221:7263   */\n      0xffffffffffffffffffffffffffffffffffffffff\n        /* \"#utility.yul\":7214:7219   */\n      dup3\n        /* \"#utility.yul\":7210:7264   */\n      and\n        /* \"#utility.yul\":7199:7264   */\n      swap1\n      pop\n        /* \"#utility.yul\":7144:7270   */\n      swap2\n      swap1\n      pop\n      jump\t// out\n        /* \"#utility.yul\":7276:7372   */\n    tag_540:\n        /* \"#utility.yul\":7313:7320   */\n      0x00\n        /* \"#utility.yul\":7342:7366   */\n      tag_689\n        /* \"#utility.yul\":7360:7365   */\n      dup3\n        /* \"#utility.yul\":7342:7366   */\n      tag_539\n      jump\t// in\n    tag_689:\n        /* \"#utility.yul\":7331:7366   */\n      swap1\n      pop\n        /* \"#utility.yul\":7276:7372   */\n      swap2\n      swap1\n      pop\n      jump\t// out\n        /* \"#utility.yul\":7378:7500   */\n    tag_541:\n        /* \"#utility.yul\":7451:7475   */\n      tag_691\n        /* \"#utility.yul\":7469:7474   */\n      dup2\n        /* \"#utility.yul\":7451:7475   */\n      tag_540\n      jump\t// in\n    tag_691:\n        /* \"#utility.yul\":7444:7449   */\n      dup2\n        /* \"#utility.yul\":7441:7476   */\n      eq\n        /* \"#utility.yul\":7431:7494   */\n      tag_692\n      jumpi\n        /* \"#utility.yul\":7490:7491   */\n      0x00\n        /* \"#utility.yul\":7487:7488   */\n      dup1\n        /* \"#utility.yul\":7480:7492   */\n      revert\n        /* \"#utility.yul\":7431:7494   */\n    tag_692:\n        /* \"#utility.yul\":7378:7500   */\n      pop\n      jump\t// out\n        /* \"#utility.yul\":7506:7645   */\n    tag_542:\n        /* \"#utility.yul\":7552:7557   */\n      0x00\n        /* \"#utility.yul\":7590:7596   */\n      dup2\n        /* \"#utility.yul\":7577:7597   */\n      calldataload\n        /* \"#utility.yul\":7568:7597   */\n      swap1\n      pop\n        /* \"#utility.yul\":7606:7639   */\n      tag_694\n        /* \"#utility.yul\":7633:7638   */\n      dup2\n        /* \"#utility.yul\":7606:7639   */\n      tag_541\n      jump\t// in\n    tag_694:\n        /* \"#utility.yul\":7506:7645   */\n      swap3\n      swap2\n      pop\n      pop\n      jump\t// out\n        /* \"#utility.yul\":7651:7980   */\n    tag_73:\n        /* \"#utility.yul\":7710:7716   */\n      0x00\n        /* \"#utility.yul\":7759:7761   */\n      0x20\n        /* \"#utility.yul\":7747:7756   */\n      dup3\n        /* \"#utility.yul\":7738:7745   */\n      dup5\n        /* \"#utility.yul\":7734:7757   */\n      sub\n        /* \"#utility.yul\":7730:7762   */\n      slt\n        /* \"#utility.yul\":7727:7846   */\n      iszero\n      tag_696\n      jumpi\n        /* \"#utility.yul\":7765:7844   */\n      tag_697\n      tag_520\n      jump\t// in\n    tag_697:\n        /* \"#utility.yul\":7727:7846   */\n    tag_696:\n        /* \"#utility.yul\":7885:7886   */\n      0x00\n        /* \"#utility.yul\":7910:7963   */\n      tag_698\n        /* \"#utility.yul\":7955:7962   */\n      dup5\n        /* \"#utility.yul\":7946:7952   */\n      dup3\n        /* \"#utility.yul\":7935:7944   */\n      dup6\n        /* \"#utility.yul\":7931:7953   */\n      add\n        /* \"#utility.yul\":7910:7963   */\n      tag_542\n      jump\t// in\n    tag_698:\n        /* \"#utility.yul\":7900:7963   */\n      swap2\n      pop\n        /* \"#utility.yul\":7856:7973   */\n      pop\n        /* \"#utility.yul\":7651:7980   */\n      swap3\n      swap2\n      pop\n      pop\n      jump\t// out\n        /* \"#utility.yul\":7986:8063   */\n    tag_543:\n        /* \"#utility.yul\":8023:8030   */\n      0x00\n        /* \"#utility.yul\":8052:8057   */\n      dup2\n        /* \"#utility.yul\":8041:8057   */\n      swap1\n      pop\n        /* \"#utility.yul\":7986:8063   */\n      swap2\n      swap1\n      pop\n      jump\t// out\n        /* \"#utility.yul\":8069:8187   */\n    tag_544:\n        /* \"#utility.yul\":8156:8180   */\n      tag_701\n        /* \"#utility.yul\":8174:8179   */\n      dup2\n        /* \"#utility.yul\":8156:8180   */\n      tag_543\n      jump\t// in\n    tag_701:\n        /* \"#utility.yul\":8151:8154   */\n      dup3\n        /* \"#utility.yul\":8144:8181   */\n      mstore\n        /* \"#utility.yul\":8069:8187   */\n      pop\n      pop\n      jump\t// out\n        /* \"#utility.yul\":8193:8415   */\n    tag_79:\n        /* \"#utility.yul\":8286:8290   */\n      0x00\n        /* \"#utility.yul\":8324:8326   */\n      0x20\n        /* \"#utility.yul\":8313:8322   */\n      dup3\n        /* \"#utility.yul\":8309:8327   */\n      add\n        /* \"#utility.yul\":8301:8327   */\n      swap1\n      pop\n        /* \"#utility.yul\":8337:8408   */\n      tag_703\n        /* \"#utility.yul\":8405:8406   */\n      0x00\n        /* \"#utility.yul\":8394:8403   */\n      dup4\n        /* \"#utility.yul\":8390:8407   */\n      add\n        /* \"#utility.yul\":8381:8387   */\n      dup5\n        /* \"#utility.yul\":8337:8408   */\n      tag_544\n      jump\t// in\n    tag_703:\n        /* \"#utility.yul\":8193:8415   */\n      swap3\n      swap2\n      pop\n      pop\n      jump\t// out\n        /* \"#utility.yul\":8421:8539   */\n    tag_545:\n        /* \"#utility.yul\":8508:8532   */\n      tag_705\n        /* \"#utility.yul\":8526:8531   */\n      dup2\n        /* \"#utility.yul\":8508:8532   */\n      tag_540\n      jump\t// in\n    tag_705:\n        /* \"#utility.yul\":8503:8506   */\n      dup3\n        /* \"#utility.yul\":8496:8533   */\n      mstore\n        /* \"#utility.yul\":8421:8539   */\n      pop\n      pop\n      jump\t// out\n        /* \"#utility.yul\":8545:8767   */\n    tag_84:\n        /* \"#utility.yul\":8638:8642   */\n      0x00\n        /* \"#utility.yul\":8676:8678   */\n      0x20\n        /* \"#utility.yul\":8665:8674   */\n      dup3\n        /* \"#utility.yul\":8661:8679   */\n      add\n        /* \"#utility.yul\":8653:8679   */\n      swap1\n      pop\n        /* \"#utility.yul\":8689:8760   */\n      tag_707\n        /* \"#utility.yul\":8757:8758   */\n      0x00\n        /* \"#utility.yul\":8746:8755   */\n      dup4\n        /* \"#utility.yul\":8742:8759   */\n      add\n        /* \"#utility.yul\":8733:8739   */\n      dup5\n        /* \"#utility.yul\":8689:8760   */\n      tag_545\n      jump\t// in\n    tag_707:\n        /* \"#utility.yul\":8545:8767   */\n      swap3\n      swap2\n      pop\n      pop\n      jump\t// out\n        /* \"#utility.yul\":8773:8859   */\n    tag_546:\n        /* \"#utility.yul\":8808:8815   */\n      0x00\n        /* \"#utility.yul\":8848:8852   */\n      0xff\n        /* \"#utility.yul\":8841:8846   */\n      dup3\n        /* \"#utility.yul\":8837:8853   */\n      and\n        /* \"#utility.yul\":8826:8853   */\n      swap1\n      pop\n        /* \"#utility.yul\":8773:8859   */\n      swap2\n      swap1\n      pop\n      jump\t// out\n        /* \"#utility.yul\":8865:8983   */\n    tag_547:\n        /* \"#utility.yul\":8936:8958   */\n      tag_710\n        /* \"#utility.yul\":8952:8957   */\n      dup2\n        /* \"#utility.yul\":8936:8958   */\n      tag_546\n      jump\t// in\n    tag_710:\n        /* \"#utility.yul\":8929:8934   */\n      dup2\n        /* \"#utility.yul\":8926:8959   */\n      eq\n        /* \"#utility.yul\":8916:8977   */\n      tag_711\n      jumpi\n        /* \"#utility.yul\":8973:8974   */\n      0x00\n        /* \"#utility.yul\":8970:8971   */\n      dup1\n        /* \"#utility.yul\":8963:8975   */\n      revert\n        /* \"#utility.yul\":8916:8977   */\n    tag_711:\n        /* \"#utility.yul\":8865:8983   */\n      pop\n      jump\t// out\n        /* \"#utility.yul\":8989:9124   */\n    tag_548:\n        /* \"#utility.yul\":9033:9038   */\n      0x00\n        /* \"#utility.yul\":9071:9077   */\n      dup2\n        /* \"#utility.yul\":9058:9078   */\n      calldataload\n        /* \"#utility.yul\":9049:9078   */\n      swap1\n      pop\n        /* \"#utility.yul\":9087:9118   */\n      tag_713\n        /* \"#utility.yul\":9112:9117   */\n      dup2\n        /* \"#utility.yul\":9087:9118   */\n      tag_547\n      jump\t// in\n    tag_713:\n        /* \"#utility.yul\":8989:9124   */\n      swap3\n      swap2\n      pop\n      pop\n      jump\t// out\n        /* \"#utility.yul\":9130:9252   */\n    tag_549:\n        /* \"#utility.yul\":9203:9227   */\n      tag_715\n        /* \"#utility.yul\":9221:9226   */\n      dup2\n        /* \"#utility.yul\":9203:9227   */\n      tag_543\n      jump\t// in\n    tag_715:\n        /* \"#utility.yul\":9196:9201   */\n      dup2\n        /* \"#utility.yul\":9193:9228   */\n      eq\n        /* \"#utility.yul\":9183:9246   */\n      tag_716\n      jumpi\n        /* \"#utility.yul\":9242:9243   */\n      0x00\n        /* \"#utility.yul\":9239:9240   */\n      dup1\n        /* \"#utility.yul\":9232:9244   */\n      revert\n        /* \"#utility.yul\":9183:9246   */\n    tag_716:\n        /* \"#utility.yul\":9130:9252   */\n      pop\n      jump\t// out\n        /* \"#utility.yul\":9258:9397   */\n    tag_550:\n        /* \"#utility.yul\":9304:9309   */\n      0x00\n        /* \"#utility.yul\":9342:9348   */\n      dup2\n        /* \"#utility.yul\":9329:9349   */\n      calldataload\n        /* \"#utility.yul\":9320:9349   */\n      swap1\n      pop\n        /* \"#utility.yul\":9358:9391   */\n      tag_718\n        /* \"#utility.yul\":9385:9390   */\n      dup2\n        /* \"#utility.yul\":9358:9391   */\n      tag_549\n      jump\t// in\n    tag_718:\n        /* \"#utility.yul\":9258:9397   */\n      swap3\n      swap2\n      pop\n      pop\n      jump\t// out\n        /* \"#utility.yul\":9403:10310   */\n    tag_90:\n        /* \"#utility.yul\":9496:9502   */\n      0x00\n        /* \"#utility.yul\":9504:9510   */\n      dup1\n        /* \"#utility.yul\":9512:9518   */\n      0x00\n        /* \"#utility.yul\":9520:9526   */\n      dup1\n        /* \"#utility.yul\":9528:9534   */\n      0x00\n        /* \"#utility.yul\":9577:9580   */\n      0xa0\n        /* \"#utility.yul\":9565:9574   */\n      dup7\n        /* \"#utility.yul\":9556:9563   */\n      dup9\n        /* \"#utility.yul\":9552:9575   */\n      sub\n        /* \"#utility.yul\":9548:9581   */\n      slt\n        /* \"#utility.yul\":9545:9665   */\n      iszero\n      tag_720\n      jumpi\n        /* \"#utility.yul\":9584:9663   */\n      tag_721\n      tag_520\n      jump\t// in\n    tag_721:\n        /* \"#utility.yul\":9545:9665   */\n    tag_720:\n        /* \"#utility.yul\":9704:9705   */\n      0x00\n        /* \"#utility.yul\":9729:9782   */\n      tag_722\n        /* \"#utility.yul\":9774:9781   */\n      dup9\n        /* \"#utility.yul\":9765:9771   */\n      dup3\n        /* \"#utility.yul\":9754:9763   */\n      dup10\n        /* \"#utility.yul\":9750:9772   */\n      add\n        /* \"#utility.yul\":9729:9782   */\n      tag_542\n      jump\t// in\n    tag_722:\n        /* \"#utility.yul\":9719:9782   */\n      swap6\n      pop\n        /* \"#utility.yul\":9675:9792   */\n      pop\n        /* \"#utility.yul\":9831:9833   */\n      0x20\n        /* \"#utility.yul\":9857:9910   */\n      tag_723\n        /* \"#utility.yul\":9902:9909   */\n      dup9\n        /* \"#utility.yul\":9893:9899   */\n      dup3\n        /* \"#utility.yul\":9882:9891   */\n      dup10\n        /* \"#utility.yul\":9878:9900   */\n      add\n        /* \"#utility.yul\":9857:9910   */\n      tag_524\n      jump\t// in\n    tag_723:\n        /* \"#utility.yul\":9847:9910   */\n      swap5\n      pop\n        /* \"#utility.yul\":9802:9920   */\n      pop\n        /* \"#utility.yul\":9959:9961   */\n      0x40\n        /* \"#utility.yul\":9985:10036   */\n      tag_724\n        /* \"#utility.yul\":10028:10035   */\n      dup9\n        /* \"#utility.yul\":10019:10025   */\n      dup3\n        /* \"#utility.yul\":10008:10017   */\n      dup10\n        /* \"#utility.yul\":10004:10026   */\n      add\n        /* \"#utility.yul\":9985:10036   */\n      tag_548\n      jump\t// in\n    tag_724:\n        /* \"#utility.yul\":9975:10036   */\n      swap4\n      pop\n        /* \"#utility.yul\":9930:10046   */\n      pop\n        /* \"#utility.yul\":10085:10087   */\n      0x60\n        /* \"#utility.yul\":10111:10164   */\n      tag_725\n        /* \"#utility.yul\":10156:10163   */\n      dup9\n        /* \"#utility.yul\":10147:10153   */\n      dup3\n        /* \"#utility.yul\":10136:10145   */\n      dup10\n        /* \"#utility.yul\":10132:10154   */\n      add\n        /* \"#utility.yul\":10111:10164   */\n      tag_550\n      jump\t// in\n    tag_725:\n        /* \"#utility.yul\":10101:10164   */\n      swap3\n      pop\n        /* \"#utility.yul\":10056:10174   */\n      pop\n        /* \"#utility.yul\":10213:10216   */\n      0x80\n        /* \"#utility.yul\":10240:10293   */\n      tag_726\n        /* \"#utility.yul\":10285:10292   */\n      dup9\n        /* \"#utility.yul\":10276:10282   */\n      dup3\n        /* \"#utility.yul\":10265:10274   */\n      dup10\n        /* \"#utility.yul\":10261:10283   */\n      add\n        /* \"#utility.yul\":10240:10293   */\n      tag_550\n      jump\t// in\n    tag_726:\n        /* \"#utility.yul\":10230:10293   */\n      swap2\n      pop\n        /* \"#utility.yul\":10184:10303   */\n      pop\n        /* \"#utility.yul\":9403:10310   */\n      swap3\n      swap6\n      pop\n      swap3\n      swap6\n      swap1\n      swap4\n      pop\n      jump\t// out\n        /* \"#utility.yul\":10316:11369   */\n    tag_99:\n        /* \"#utility.yul\":10418:10424   */\n      0x00\n        /* \"#utility.yul\":10426:10432   */\n      dup1\n        /* \"#utility.yul\":10434:10440   */\n      0x00\n        /* \"#utility.yul\":10442:10448   */\n      dup1\n        /* \"#utility.yul\":10450:10456   */\n      0x00\n        /* \"#utility.yul\":10458:10464   */\n      dup1\n        /* \"#utility.yul\":10507:10510   */\n      0xc0\n        /* \"#utility.yul\":10495:10504   */\n      dup8\n        /* \"#utility.yul\":10486:10493   */\n      dup10\n        /* \"#utility.yul\":10482:10505   */\n      sub\n        /* \"#utility.yul\":10478:10511   */\n      slt\n        /* \"#utility.yul\":10475:10595   */\n      iszero\n      tag_728\n      jumpi\n        /* \"#utility.yul\":10514:10593   */\n      tag_729\n      tag_520\n      jump\t// in\n    tag_729:\n        /* \"#utility.yul\":10475:10595   */\n    tag_728:\n        /* \"#utility.yul\":10634:10635   */\n      0x00\n        /* \"#utility.yul\":10659:10712   */\n      tag_730\n        /* \"#utility.yul\":10704:10711   */\n      dup10\n        /* \"#utility.yul\":10695:10701   */\n      dup3\n        /* \"#utility.yul\":10684:10693   */\n      dup11\n        /* \"#utility.yul\":10680:10702   */\n      add\n        /* \"#utility.yul\":10659:10712   */\n      tag_542\n      jump\t// in\n    tag_730:\n        /* \"#utility.yul\":10649:10712   */\n      swap7\n      pop\n        /* \"#utility.yul\":10605:10722   */\n      pop\n        /* \"#utility.yul\":10761:10763   */\n      0x20\n        /* \"#utility.yul\":10787:10840   */\n      tag_731\n        /* \"#utility.yul\":10832:10839   */\n      dup10\n        /* \"#utility.yul\":10823:10829   */\n      dup3\n        /* \"#utility.yul\":10812:10821   */\n      dup11\n        /* \"#utility.yul\":10808:10830   */\n      add\n        /* \"#utility.yul\":10787:10840   */\n      tag_524\n      jump\t// in\n    tag_731:\n        /* \"#utility.yul\":10777:10840   */\n      swap6\n      pop\n        /* \"#utility.yul\":10732:10850   */\n      pop\n        /* \"#utility.yul\":10889:10891   */\n      0x40\n        /* \"#utility.yul\":10915:10968   */\n      tag_732\n        /* \"#utility.yul\":10960:10967   */\n      dup10\n        /* \"#utility.yul\":10951:10957   */\n      dup3\n        /* \"#utility.yul\":10940:10949   */\n      dup11\n        /* \"#utility.yul\":10936:10958   */\n      add\n        /* \"#utility.yul\":10915:10968   */\n      tag_524\n      jump\t// in\n    tag_732:\n        /* \"#utility.yul\":10905:10968   */\n      swap5\n      pop\n        /* \"#utility.yul\":10860:10978   */\n      pop\n        /* \"#utility.yul\":11017:11019   */\n      0x60\n        /* \"#utility.yul\":11043:11094   */\n      tag_733\n        /* \"#utility.yul\":11086:11093   */\n      dup10\n        /* \"#utility.yul\":11077:11083   */\n      dup3\n        /* \"#utility.yul\":11066:11075   */\n      dup11\n        /* \"#utility.yul\":11062:11084   */\n      add\n        /* \"#utility.yul\":11043:11094   */\n      tag_548\n      jump\t// in\n    tag_733:\n        /* \"#utility.yul\":11033:11094   */\n      swap4\n      pop\n        /* \"#utility.yul\":10988:11104   */\n      pop\n        /* \"#utility.yul\":11143:11146   */\n      0x80\n        /* \"#utility.yul\":11170:11223   */\n      tag_734\n        /* \"#utility.yul\":11215:11222   */\n      dup10\n        /* \"#utility.yul\":11206:11212   */\n      dup3\n        /* \"#utility.yul\":11195:11204   */\n      dup11\n        /* \"#utility.yul\":11191:11213   */\n      add\n        /* \"#utility.yul\":11170:11223   */\n      tag_550\n      jump\t// in\n    tag_734:\n        /* \"#utility.yul\":11160:11223   */\n      swap3\n      pop\n        /* \"#utility.yul\":11114:11233   */\n      pop\n        /* \"#utility.yul\":11272:11275   */\n      0xa0\n        /* \"#utility.yul\":11299:11352   */\n      tag_735\n        /* \"#utility.yul\":11344:11351   */\n      dup10\n        /* \"#utility.yul\":11335:11341   */\n      dup3\n        /* \"#utility.yul\":11324:11333   */\n      dup11\n        /* \"#utility.yul\":11320:11342   */\n      add\n        /* \"#utility.yul\":11299:11352   */\n      tag_550\n      jump\t// in\n    tag_735:\n        /* \"#utility.yul\":11289:11352   */\n      swap2\n      pop\n        /* \"#utility.yul\":11243:11362   */\n      pop\n        /* \"#utility.yul\":10316:11369   */\n      swap3\n      swap6\n      pop\n      swap3\n      swap6\n      pop\n      swap3\n      swap6\n      jump\t// out\n        /* \"#utility.yul\":11375:11849   */\n    tag_104:\n        /* \"#utility.yul\":11443:11449   */\n      0x00\n        /* \"#utility.yul\":11451:11457   */\n      dup1\n        /* \"#utility.yul\":11500:11502   */\n      0x40\n        /* \"#utility.yul\":11488:11497   */\n      dup4\n        /* \"#utility.yul\":11479:11486   */\n      dup6\n        /* \"#utility.yul\":11475:11498   */\n      sub\n        /* \"#utility.yul\":11471:11503   */\n      slt\n        /* \"#utility.yul\":11468:11587   */\n      iszero\n      tag_737\n      jumpi\n        /* \"#utility.yul\":11506:11585   */\n      tag_738\n      tag_520\n      jump\t// in\n    tag_738:\n        /* \"#utility.yul\":11468:11587   */\n    tag_737:\n        /* \"#utility.yul\":11626:11627   */\n      0x00\n        /* \"#utility.yul\":11651:11704   */\n      tag_739\n        /* \"#utility.yul\":11696:11703   */\n      dup6\n        /* \"#utility.yul\":11687:11693   */\n      dup3\n        /* \"#utility.yul\":11676:11685   */\n      dup7\n        /* \"#utility.yul\":11672:11694   */\n      add\n        /* \"#utility.yul\":11651:11704   */\n      tag_542\n      jump\t// in\n    tag_739:\n        /* \"#utility.yul\":11641:11704   */\n      swap3\n      pop\n        /* \"#utility.yul\":11597:11714   */\n      pop\n        /* \"#utility.yul\":11753:11755   */\n      0x20\n        /* \"#utility.yul\":11779:11832   */\n      tag_740\n        /* \"#utility.yul\":11824:11831   */\n      dup6\n        /* \"#utility.yul\":11815:11821   */\n      dup3\n        /* \"#utility.yul\":11804:11813   */\n      dup7\n        /* \"#utility.yul\":11800:11822   */\n      add\n        /* \"#utility.yul\":11779:11832   */\n      tag_524\n      jump\t// in\n    tag_740:\n        /* \"#utility.yul\":11769:11832   */\n      swap2\n      pop\n        /* \"#utility.yul\":11724:11842   */\n      pop\n        /* \"#utility.yul\":11375:11849   */\n      swap3\n      pop\n      swap3\n      swap1\n      pop\n      jump\t// out\n        /* \"#utility.yul\":11855:11969   */\n    tag_551:\n        /* \"#utility.yul\":11922:11928   */\n      0x00\n        /* \"#utility.yul\":11956:11961   */\n      dup2\n        /* \"#utility.yul\":11950:11962   */\n      mload\n        /* \"#utility.yul\":11940:11962   */\n      swap1\n      pop\n        /* \"#utility.yul\":11855:11969   */\n      swap2\n      swap1\n      pop\n      jump\t// out\n        /* \"#utility.yul\":11975:12159   */\n    tag_552:\n        /* \"#utility.yul\":12074:12085   */\n      0x00\n        /* \"#utility.yul\":12108:12114   */\n      dup3\n        /* \"#utility.yul\":12103:12106   */\n      dup3\n        /* \"#utility.yul\":12096:12115   */\n      mstore\n        /* \"#utility.yul\":12148:12152   */\n      0x20\n        /* \"#utility.yul\":12143:12146   */\n      dup3\n        /* \"#utility.yul\":12139:12153   */\n      add\n        /* \"#utility.yul\":12124:12153   */\n      swap1\n      pop\n        /* \"#utility.yul\":11975:12159   */\n      swap3\n      swap2\n      pop\n      pop\n      jump\t// out\n        /* \"#utility.yul\":12165:12297   */\n    tag_553:\n        /* \"#utility.yul\":12232:12236   */\n      0x00\n        /* \"#utility.yul\":12255:12258   */\n      dup2\n        /* \"#utility.yul\":12247:12258   */\n      swap1\n      pop\n        /* \"#utility.yul\":12285:12289   */\n      0x20\n        /* \"#utility.yul\":12280:12283   */\n      dup3\n        /* \"#utility.yul\":12276:12290   */\n      add\n        /* \"#utility.yul\":12268:12290   */\n      swap1\n      pop\n        /* \"#utility.yul\":12165:12297   */\n      swap2\n      swap1\n      pop\n      jump\t// out\n        /* \"#utility.yul\":12303:12411   */\n    tag_554:\n        /* \"#utility.yul\":12380:12404   */\n      tag_745\n        /* \"#utility.yul\":12398:12403   */\n      dup2\n        /* \"#utility.yul\":12380:12404   */\n      tag_522\n      jump\t// in\n    tag_745:\n        /* \"#utility.yul\":12375:12378   */\n      dup3\n        /* \"#utility.yul\":12368:12405   */\n      mstore\n        /* \"#utility.yul\":12303:12411   */\n      pop\n      pop\n      jump\t// out\n        /* \"#utility.yul\":12417:12596   */\n    tag_555:\n        /* \"#utility.yul\":12486:12496   */\n      0x00\n        /* \"#utility.yul\":12507:12553   */\n      tag_747\n        /* \"#utility.yul\":12549:12552   */\n      dup4\n        /* \"#utility.yul\":12541:12547   */\n      dup4\n        /* \"#utility.yul\":12507:12553   */\n      tag_554\n      jump\t// in\n    tag_747:\n        /* \"#utility.yul\":12585:12589   */\n      0x20\n        /* \"#utility.yul\":12580:12583   */\n      dup4\n        /* \"#utility.yul\":12576:12590   */\n      add\n        /* \"#utility.yul\":12562:12590   */\n      swap1\n      pop\n        /* \"#utility.yul\":12417:12596   */\n      swap3\n      swap2\n      pop\n      pop\n      jump\t// out\n        /* \"#utility.yul\":12602:12715   */\n    tag_556:\n        /* \"#utility.yul\":12672:12676   */\n      0x00\n        /* \"#utility.yul\":12704:12708   */\n      0x20\n        /* \"#utility.yul\":12699:12702   */\n      dup3\n        /* \"#utility.yul\":12695:12709   */\n      add\n        /* \"#utility.yul\":12687:12709   */\n      swap1\n      pop\n        /* \"#utility.yul\":12602:12715   */\n      swap2\n      swap1\n      pop\n      jump\t// out\n        /* \"#utility.yul\":12751:13483   */\n    tag_557:\n        /* \"#utility.yul\":12870:12873   */\n      0x00\n        /* \"#utility.yul\":12899:12953   */\n      tag_750\n        /* \"#utility.yul\":12947:12952   */\n      dup3\n        /* \"#utility.yul\":12899:12953   */\n      tag_551\n      jump\t// in\n    tag_750:\n        /* \"#utility.yul\":12969:13055   */\n      tag_751\n        /* \"#utility.yul\":13048:13054   */\n      dup2\n        /* \"#utility.yul\":13043:13046   */\n      dup6\n        /* \"#utility.yul\":12969:13055   */\n      tag_552\n      jump\t// in\n    tag_751:\n        /* \"#utility.yul\":12962:13055   */\n      swap4\n      pop\n        /* \"#utility.yul\":13079:13135   */\n      tag_752\n        /* \"#utility.yul\":13129:13134   */\n      dup4\n        /* \"#utility.yul\":13079:13135   */\n      tag_553\n      jump\t// in\n    tag_752:\n        /* \"#utility.yul\":13158:13165   */\n      dup1\n        /* \"#utility.yul\":13189:13190   */\n      0x00\n        /* \"#utility.yul\":13174:13458   */\n    tag_753:\n        /* \"#utility.yul\":13199:13205   */\n      dup4\n        /* \"#utility.yul\":13196:13197   */\n      dup2\n        /* \"#utility.yul\":13193:13206   */\n      lt\n        /* \"#utility.yul\":13174:13458   */\n      iszero\n      tag_755\n      jumpi\n        /* \"#utility.yul\":13275:13281   */\n      dup2\n        /* \"#utility.yul\":13269:13282   */\n      mload\n        /* \"#utility.yul\":13302:13365   */\n      tag_756\n        /* \"#utility.yul\":13361:13364   */\n      dup9\n        /* \"#utility.yul\":13346:13359   */\n      dup3\n        /* \"#utility.yul\":13302:13365   */\n      tag_555\n      jump\t// in\n    tag_756:\n        /* \"#utility.yul\":13295:13365   */\n      swap8\n      pop\n        /* \"#utility.yul\":13388:13448   */\n      tag_757\n        /* \"#utility.yul\":13441:13447   */\n      dup4\n        /* \"#utility.yul\":13388:13448   */\n      tag_556\n      jump\t// in\n    tag_757:\n        /* \"#utility.yul\":13378:13448   */\n      swap3\n      pop\n        /* \"#utility.yul\":13234:13458   */\n      pop\n        /* \"#utility.yul\":13221:13222   */\n      0x01\n        /* \"#utility.yul\":13218:13219   */\n      dup2\n        /* \"#utility.yul\":13214:13223   */\n      add\n        /* \"#utility.yul\":13209:13223   */\n      swap1\n      pop\n        /* \"#utility.yul\":13174:13458   */\n      jump(tag_753)\n    tag_755:\n        /* \"#utility.yul\":13178:13192   */\n      pop\n        /* \"#utility.yul\":13474:13477   */\n      dup6\n        /* \"#utility.yul\":13467:13477   */\n      swap4\n      pop\n        /* \"#utility.yul\":12875:13483   */\n      pop\n      pop\n      pop\n        /* \"#utility.yul\":12751:13483   */\n      swap3\n      swap2\n      pop\n      pop\n      jump\t// out\n        /* \"#utility.yul\":13489:13862   */\n    tag_107:\n        /* \"#utility.yul\":13632:13636   */\n      0x00\n        /* \"#utility.yul\":13670:13672   */\n      0x20\n        /* \"#utility.yul\":13659:13668   */\n      dup3\n        /* \"#utility.yul\":13655:13673   */\n      add\n        /* \"#utility.yul\":13647:13673   */\n      swap1\n      pop\n        /* \"#utility.yul\":13719:13728   */\n      dup2\n        /* \"#utility.yul\":13713:13717   */\n      dup2\n        /* \"#utility.yul\":13709:13729   */\n      sub\n        /* \"#utility.yul\":13705:13706   */\n      0x00\n        /* \"#utility.yul\":13694:13703   */\n      dup4\n        /* \"#utility.yul\":13690:13707   */\n      add\n        /* \"#utility.yul\":13683:13730   */\n      mstore\n        /* \"#utility.yul\":13747:13855   */\n      tag_759\n        /* \"#utility.yul\":13850:13854   */\n      dup2\n        /* \"#utility.yul\":13841:13847   */\n      dup5\n        /* \"#utility.yul\":13747:13855   */\n      tag_557\n      jump\t// in\n    tag_759:\n        /* \"#utility.yul\":13739:13855   */\n      swap1\n      pop\n        /* \"#utility.yul\":13489:13862   */\n      swap3\n      swap2\n      pop\n      pop\n      jump\t// out\n        /* \"#utility.yul\":13868:14487   */\n    tag_114:\n        /* \"#utility.yul\":13945:13951   */\n      0x00\n        /* \"#utility.yul\":13953:13959   */\n      dup1\n        /* \"#utility.yul\":13961:13967   */\n      0x00\n        /* \"#utility.yul\":14010:14012   */\n      0x60\n        /* \"#utility.yul\":13998:14007   */\n      dup5\n        /* \"#utility.yul\":13989:13996   */\n      dup7\n        /* \"#utility.yul\":13985:14008   */\n      sub\n        /* \"#utility.yul\":13981:14013   */\n      slt\n        /* \"#utility.yul\":13978:14097   */\n      iszero\n      tag_761\n      jumpi\n        /* \"#utility.yul\":14016:14095   */\n      tag_762\n      tag_520\n      jump\t// in\n    tag_762:\n        /* \"#utility.yul\":13978:14097   */\n    tag_761:\n        /* \"#utility.yul\":14136:14137   */\n      0x00\n        /* \"#utility.yul\":14161:14214   */\n      tag_763\n        /* \"#utility.yul\":14206:14213   */\n      dup7\n        /* \"#utility.yul\":14197:14203   */\n      dup3\n        /* \"#utility.yul\":14186:14195   */\n      dup8\n        /* \"#utility.yul\":14182:14204   */\n      add\n        /* \"#utility.yul\":14161:14214   */\n      tag_542\n      jump\t// in\n    tag_763:\n        /* \"#utility.yul\":14151:14214   */\n      swap4\n      pop\n        /* \"#utility.yul\":14107:14224   */\n      pop\n        /* \"#utility.yul\":14263:14265   */\n      0x20\n        /* \"#utility.yul\":14289:14342   */\n      tag_764\n        /* \"#utility.yul\":14334:14341   */\n      dup7\n        /* \"#utility.yul\":14325:14331   */\n      dup3\n        /* \"#utility.yul\":14314:14323   */\n      dup8\n        /* \"#utility.yul\":14310:14332   */\n      add\n        /* \"#utility.yul\":14289:14342   */\n      tag_524\n      jump\t// in\n    tag_764:\n        /* \"#utility.yul\":14279:14342   */\n      swap3\n      pop\n        /* \"#utility.yul\":14234:14352   */\n      pop\n        /* \"#utility.yul\":14391:14393   */\n      0x40\n        /* \"#utility.yul\":14417:14470   */\n      tag_765\n        /* \"#utility.yul\":14462:14469   */\n      dup7\n        /* \"#utility.yul\":14453:14459   */\n      dup3\n        /* \"#utility.yul\":14442:14451   */\n      dup8\n        /* \"#utility.yul\":14438:14460   */\n      add\n        /* \"#utility.yul\":14417:14470   */\n      tag_524\n      jump\t// in\n    tag_765:\n        /* \"#utility.yul\":14407:14470   */\n      swap2\n      pop\n        /* \"#utility.yul\":14362:14480   */\n      pop\n        /* \"#utility.yul\":13868:14487   */\n      swap3\n      pop\n      swap3\n      pop\n      swap3\n      jump\t// out\n        /* \"#utility.yul\":14493:14911   */\n    tag_133:\n        /* \"#utility.yul\":14630:14634   */\n      0x00\n        /* \"#utility.yul\":14668:14670   */\n      0x60\n        /* \"#utility.yul\":14657:14666   */\n      dup3\n        /* \"#utility.yul\":14653:14671   */\n      add\n        /* \"#utility.yul\":14645:14671   */\n      swap1\n      pop\n        /* \"#utility.yul\":14681:14746   */\n      tag_767\n        /* \"#utility.yul\":14743:14744   */\n      0x00\n        /* \"#utility.yul\":14732:14741   */\n      dup4\n        /* \"#utility.yul\":14728:14745   */\n      add\n        /* \"#utility.yul\":14719:14725   */\n      dup7\n        /* \"#utility.yul\":14681:14746   */\n      tag_527\n      jump\t// in\n    tag_767:\n        /* \"#utility.yul\":14756:14822   */\n      tag_768\n        /* \"#utility.yul\":14818:14820   */\n      0x20\n        /* \"#utility.yul\":14807:14816   */\n      dup4\n        /* \"#utility.yul\":14803:14821   */\n      add\n        /* \"#utility.yul\":14794:14800   */\n      dup6\n        /* \"#utility.yul\":14756:14822   */\n      tag_527\n      jump\t// in\n    tag_768:\n        /* \"#utility.yul\":14832:14904   */\n      tag_769\n        /* \"#utility.yul\":14900:14902   */\n      0x40\n        /* \"#utility.yul\":14889:14898   */\n      dup4\n        /* \"#utility.yul\":14885:14903   */\n      add\n        /* \"#utility.yul\":14876:14882   */\n      dup5\n        /* \"#utility.yul\":14832:14904   */\n      tag_525\n      jump\t// in\n    tag_769:\n        /* \"#utility.yul\":14493:14911   */\n      swap5\n      swap4\n      pop\n      pop\n      pop\n      pop\n      jump\t// out\n        /* \"#utility.yul\":14932:15498   */\n    tag_558:\n        /* \"#utility.yul\":15003:15011   */\n      0x00\n        /* \"#utility.yul\":15013:15019   */\n      dup1\n        /* \"#utility.yul\":15063:15066   */\n      dup4\n        /* \"#utility.yul\":15056:15060   */\n      0x1f\n        /* \"#utility.yul\":15048:15054   */\n      dup5\n        /* \"#utility.yul\":15044:15061   */\n      add\n        /* \"#utility.yul\":15040:15067   */\n      slt\n        /* \"#utility.yul\":15030:15152   */\n      tag_771\n      jumpi\n        /* \"#utility.yul\":15071:15150   */\n      tag_772\n      tag_528\n      jump\t// in\n    tag_772:\n        /* \"#utility.yul\":15030:15152   */\n    tag_771:\n        /* \"#utility.yul\":15184:15190   */\n      dup3\n        /* \"#utility.yul\":15171:15191   */\n      calldataload\n        /* \"#utility.yul\":15161:15191   */\n      swap1\n      pop\n        /* \"#utility.yul\":15214:15232   */\n      0xffffffffffffffff\n        /* \"#utility.yul\":15206:15212   */\n      dup2\n        /* \"#utility.yul\":15203:15233   */\n      gt\n        /* \"#utility.yul\":15200:15317   */\n      iszero\n      tag_773\n      jumpi\n        /* \"#utility.yul\":15236:15315   */\n      tag_774\n      tag_529\n      jump\t// in\n    tag_774:\n        /* \"#utility.yul\":15200:15317   */\n    tag_773:\n        /* \"#utility.yul\":15350:15354   */\n      0x20\n        /* \"#utility.yul\":15342:15348   */\n      dup4\n        /* \"#utility.yul\":15338:15355   */\n      add\n        /* \"#utility.yul\":15326:15355   */\n      swap2\n      pop\n        /* \"#utility.yul\":15404:15407   */\n      dup4\n        /* \"#utility.yul\":15396:15400   */\n      0x20\n        /* \"#utility.yul\":15388:15394   */\n      dup3\n        /* \"#utility.yul\":15384:15401   */\n      mul\n        /* \"#utility.yul\":15374:15382   */\n      dup4\n        /* \"#utility.yul\":15370:15402   */\n      add\n        /* \"#utility.yul\":15367:15408   */\n      gt\n        /* \"#utility.yul\":15364:15492   */\n      iszero\n      tag_775\n      jumpi\n        /* \"#utility.yul\":15411:15490   */\n      tag_776\n      tag_530\n      jump\t// in\n    tag_776:\n        /* \"#utility.yul\":15364:15492   */\n    tag_775:\n        /* \"#utility.yul\":14932:15498   */\n      swap3\n      pop\n      swap3\n      swap1\n      pop\n      jump\t// out\n        /* \"#utility.yul\":15521:16089   */\n    tag_559:\n        /* \"#utility.yul\":15594:15602   */\n      0x00\n        /* \"#utility.yul\":15604:15610   */\n      dup1\n        /* \"#utility.yul\":15654:15657   */\n      dup4\n        /* \"#utility.yul\":15647:15651   */\n      0x1f\n        /* \"#utility.yul\":15639:15645   */\n      dup5\n        /* \"#utility.yul\":15635:15652   */\n      add\n        /* \"#utility.yul\":15631:15658   */\n      slt\n        /* \"#utility.yul\":15621:15743   */\n      tag_778\n      jumpi\n        /* \"#utility.yul\":15662:15741   */\n      tag_779\n      tag_528\n      jump\t// in\n    tag_779:\n        /* \"#utility.yul\":15621:15743   */\n    tag_778:\n        /* \"#utility.yul\":15775:15781   */\n      dup3\n        /* \"#utility.yul\":15762:15782   */\n      calldataload\n        /* \"#utility.yul\":15752:15782   */\n      swap1\n      pop\n        /* \"#utility.yul\":15805:15823   */\n      0xffffffffffffffff\n        /* \"#utility.yul\":15797:15803   */\n      dup2\n        /* \"#utility.yul\":15794:15824   */\n      gt\n        /* \"#utility.yul\":15791:15908   */\n      iszero\n      tag_780\n      jumpi\n        /* \"#utility.yul\":15827:15906   */\n      tag_781\n      tag_529\n      jump\t// in\n    tag_781:\n        /* \"#utility.yul\":15791:15908   */\n    tag_780:\n        /* \"#utility.yul\":15941:15945   */\n      0x20\n        /* \"#utility.yul\":15933:15939   */\n      dup4\n        /* \"#utility.yul\":15929:15946   */\n      add\n        /* \"#utility.yul\":15917:15946   */\n      swap2\n      pop\n        /* \"#utility.yul\":15995:15998   */\n      dup4\n        /* \"#utility.yul\":15987:15991   */\n      0x20\n        /* \"#utility.yul\":15979:15985   */\n      dup3\n        /* \"#utility.yul\":15975:15992   */\n      mul\n        /* \"#utility.yul\":15965:15973   */\n      dup4\n        /* \"#utility.yul\":15961:15993   */\n      add\n        /* \"#utility.yul\":15958:15999   */\n      gt\n        /* \"#utility.yul\":15955:16083   */\n      iszero\n      tag_782\n      jumpi\n        /* \"#utility.yul\":16002:16081   */\n      tag_783\n      tag_530\n      jump\t// in\n    tag_783:\n        /* \"#utility.yul\":15955:16083   */\n    tag_782:\n        /* \"#utility.yul\":15521:16089   */\n      swap3\n      pop\n      swap3\n      swap1\n      pop\n      jump\t// out\n        /* \"#utility.yul\":16095:18152   */\n    tag_136:\n        /* \"#utility.yul\":16323:16329   */\n      0x00\n        /* \"#utility.yul\":16331:16337   */\n      dup1\n        /* \"#utility.yul\":16339:16345   */\n      0x00\n        /* \"#utility.yul\":16347:16353   */\n      dup1\n        /* \"#utility.yul\":16355:16361   */\n      0x00\n        /* \"#utility.yul\":16363:16369   */\n      dup1\n        /* \"#utility.yul\":16371:16377   */\n      0x00\n        /* \"#utility.yul\":16379:16385   */\n      dup1\n        /* \"#utility.yul\":16387:16393   */\n      0x00\n        /* \"#utility.yul\":16395:16401   */\n      dup1\n        /* \"#utility.yul\":16444:16447   */\n      0xa0\n        /* \"#utility.yul\":16432:16441   */\n      dup12\n        /* \"#utility.yul\":16423:16430   */\n      dup14\n        /* \"#utility.yul\":16419:16442   */\n      sub\n        /* \"#utility.yul\":16415:16448   */\n      slt\n        /* \"#utility.yul\":16412:16532   */\n      iszero\n      tag_785\n      jumpi\n        /* \"#utility.yul\":16451:16530   */\n      tag_786\n      tag_520\n      jump\t// in\n    tag_786:\n        /* \"#utility.yul\":16412:16532   */\n    tag_785:\n        /* \"#utility.yul\":16599:16600   */\n      0x00\n        /* \"#utility.yul\":16588:16597   */\n      dup12\n        /* \"#utility.yul\":16584:16601   */\n      add\n        /* \"#utility.yul\":16571:16602   */\n      calldataload\n        /* \"#utility.yul\":16629:16647   */\n      0xffffffffffffffff\n        /* \"#utility.yul\":16621:16627   */\n      dup2\n        /* \"#utility.yul\":16618:16648   */\n      gt\n        /* \"#utility.yul\":16615:16732   */\n      iszero\n      tag_787\n      jumpi\n        /* \"#utility.yul\":16651:16730   */\n      tag_788\n      tag_521\n      jump\t// in\n    tag_788:\n        /* \"#utility.yul\":16615:16732   */\n    tag_787:\n        /* \"#utility.yul\":16764:16844   */\n      tag_789\n        /* \"#utility.yul\":16836:16843   */\n      dup14\n        /* \"#utility.yul\":16827:16833   */\n      dup3\n        /* \"#utility.yul\":16816:16825   */\n      dup15\n        /* \"#utility.yul\":16812:16834   */\n      add\n        /* \"#utility.yul\":16764:16844   */\n      tag_531\n      jump\t// in\n    tag_789:\n        /* \"#utility.yul\":16746:16844   */\n      swap11\n      pop\n      swap11\n      pop\n        /* \"#utility.yul\":16542:16854   */\n      pop\n        /* \"#utility.yul\":16921:16923   */\n      0x20\n        /* \"#utility.yul\":16910:16919   */\n      dup12\n        /* \"#utility.yul\":16906:16924   */\n      add\n        /* \"#utility.yul\":16893:16925   */\n      calldataload\n        /* \"#utility.yul\":16952:16970   */\n      0xffffffffffffffff\n        /* \"#utility.yul\":16944:16950   */\n      dup2\n        /* \"#utility.yul\":16941:16971   */\n      gt\n        /* \"#utility.yul\":16938:17055   */\n      iszero\n      tag_790\n      jumpi\n        /* \"#utility.yul\":16974:17053   */\n      tag_791\n      tag_521\n      jump\t// in\n    tag_791:\n        /* \"#utility.yul\":16938:17055   */\n    tag_790:\n        /* \"#utility.yul\":17087:17167   */\n      tag_792\n        /* \"#utility.yul\":17159:17166   */\n      dup14\n        /* \"#utility.yul\":17150:17156   */\n      dup3\n        /* \"#utility.yul\":17139:17148   */\n      dup15\n        /* \"#utility.yul\":17135:17157   */\n      add\n        /* \"#utility.yul\":17087:17167   */\n      tag_532\n      jump\t// in\n    tag_792:\n        /* \"#utility.yul\":17069:17167   */\n      swap9\n      pop\n      swap9\n      pop\n        /* \"#utility.yul\":16864:17177   */\n      pop\n        /* \"#utility.yul\":17244:17246   */\n      0x40\n        /* \"#utility.yul\":17233:17242   */\n      dup12\n        /* \"#utility.yul\":17229:17247   */\n      add\n        /* \"#utility.yul\":17216:17248   */\n      calldataload\n        /* \"#utility.yul\":17275:17293   */\n      0xffffffffffffffff\n        /* \"#utility.yul\":17267:17273   */\n      dup2\n        /* \"#utility.yul\":17264:17294   */\n      gt\n        /* \"#utility.yul\":17261:17378   */\n      iszero\n      tag_793\n      jumpi\n        /* \"#utility.yul\":17297:17376   */\n      tag_794\n      tag_521\n      jump\t// in\n    tag_794:\n        /* \"#utility.yul\":17261:17378   */\n    tag_793:\n        /* \"#utility.yul\":17410:17488   */\n      tag_795\n        /* \"#utility.yul\":17480:17487   */\n      dup14\n        /* \"#utility.yul\":17471:17477   */\n      dup3\n        /* \"#utility.yul\":17460:17469   */\n      dup15\n        /* \"#utility.yul\":17456:17478   */\n      add\n        /* \"#utility.yul\":17410:17488   */\n      tag_558\n      jump\t// in\n    tag_795:\n        /* \"#utility.yul\":17392:17488   */\n      swap7\n      pop\n      swap7\n      pop\n        /* \"#utility.yul\":17187:17498   */\n      pop\n        /* \"#utility.yul\":17565:17567   */\n      0x60\n        /* \"#utility.yul\":17554:17563   */\n      dup12\n        /* \"#utility.yul\":17550:17568   */\n      add\n        /* \"#utility.yul\":17537:17569   */\n      calldataload\n        /* \"#utility.yul\":17596:17614   */\n      0xffffffffffffffff\n        /* \"#utility.yul\":17588:17594   */\n      dup2\n        /* \"#utility.yul\":17585:17615   */\n      gt\n        /* \"#utility.yul\":17582:17699   */\n      iszero\n      tag_796\n      jumpi\n        /* \"#utility.yul\":17618:17697   */\n      tag_797\n      tag_521\n      jump\t// in\n    tag_797:\n        /* \"#utility.yul\":17582:17699   */\n    tag_796:\n        /* \"#utility.yul\":17731:17811   */\n      tag_798\n        /* \"#utility.yul\":17803:17810   */\n      dup14\n        /* \"#utility.yul\":17794:17800   */\n      dup3\n        /* \"#utility.yul\":17783:17792   */\n      dup15\n        /* \"#utility.yul\":17779:17801   */\n      add\n        /* \"#utility.yul\":17731:17811   */\n      tag_559\n      jump\t// in\n    tag_798:\n        /* \"#utility.yul\":17713:17811   */\n      swap5\n      pop\n      swap5\n      pop\n        /* \"#utility.yul\":17508:17821   */\n      pop\n        /* \"#utility.yul\":17888:17891   */\n      0x80\n        /* \"#utility.yul\":17877:17886   */\n      dup12\n        /* \"#utility.yul\":17873:17892   */\n      add\n        /* \"#utility.yul\":17860:17893   */\n      calldataload\n        /* \"#utility.yul\":17920:17938   */\n      0xffffffffffffffff\n        /* \"#utility.yul\":17912:17918   */\n      dup2\n        /* \"#utility.yul\":17909:17939   */\n      gt\n        /* \"#utility.yul\":17906:18023   */\n      iszero\n      tag_799\n      jumpi\n        /* \"#utility.yul\":17942:18021   */\n      tag_800\n      tag_521\n      jump\t// in\n    tag_800:\n        /* \"#utility.yul\":17906:18023   */\n    tag_799:\n        /* \"#utility.yul\":18055:18135   */\n      tag_801\n        /* \"#utility.yul\":18127:18134   */\n      dup14\n        /* \"#utility.yul\":18118:18124   */\n      dup3\n        /* \"#utility.yul\":18107:18116   */\n      dup15\n        /* \"#utility.yul\":18103:18125   */\n      add\n        /* \"#utility.yul\":18055:18135   */\n      tag_559\n      jump\t// in\n    tag_801:\n        /* \"#utility.yul\":18037:18135   */\n      swap3\n      pop\n      swap3\n      pop\n        /* \"#utility.yul\":17831:18145   */\n      pop\n        /* \"#utility.yul\":16095:18152   */\n      swap3\n      swap6\n      swap9\n      swap12\n      swap2\n      swap5\n      swap8\n      swap11\n      pop\n      swap3\n      swap6\n      swap9\n      pop\n      jump\t// out\n        /* \"#utility.yul\":18158:18257   */\n    tag_560:\n        /* \"#utility.yul\":18210:18216   */\n      0x00\n        /* \"#utility.yul\":18244:18249   */\n      dup2\n        /* \"#utility.yul\":18238:18250   */\n      mload\n        /* \"#utility.yul\":18228:18250   */\n      swap1\n      pop\n        /* \"#utility.yul\":18158:18257   */\n      swap2\n      swap1\n      pop\n      jump\t// out\n        /* \"#utility.yul\":18263:18432   */\n    tag_561:\n        /* \"#utility.yul\":18347:18358   */\n      0x00\n        /* \"#utility.yul\":18381:18387   */\n      dup3\n        /* \"#utility.yul\":18376:18379   */\n      dup3\n        /* \"#utility.yul\":18369:18388   */\n      mstore\n        /* \"#utility.yul\":18421:18425   */\n      0x20\n        /* \"#utility.yul\":18416:18419   */\n      dup3\n        /* \"#utility.yul\":18412:18426   */\n      add\n        /* \"#utility.yul\":18397:18426   */\n      swap1\n      pop\n        /* \"#utility.yul\":18263:18432   */\n      swap3\n      swap2\n      pop\n      pop\n      jump\t// out\n        /* \"#utility.yul\":18438:18745   */\n    tag_562:\n        /* \"#utility.yul\":18506:18507   */\n      0x00\n        /* \"#utility.yul\":18516:18629   */\n    tag_805:\n        /* \"#utility.yul\":18530:18536   */\n      dup4\n        /* \"#utility.yul\":18527:18528   */\n      dup2\n        /* \"#utility.yul\":18524:18537   */\n      lt\n        /* \"#utility.yul\":18516:18629   */\n      iszero\n      tag_807\n      jumpi\n        /* \"#utility.yul\":18615:18616   */\n      dup1\n        /* \"#utility.yul\":18610:18613   */\n      dup3\n        /* \"#utility.yul\":18606:18617   */\n      add\n        /* \"#utility.yul\":18600:18618   */\n      mload\n        /* \"#utility.yul\":18596:18597   */\n      dup2\n        /* \"#utility.yul\":18591:18594   */\n      dup5\n        /* \"#utility.yul\":18587:18598   */\n      add\n        /* \"#utility.yul\":18580:18619   */\n      mstore\n        /* \"#utility.yul\":18552:18554   */\n      0x20\n        /* \"#utility.yul\":18549:18550   */\n      dup2\n        /* \"#utility.yul\":18545:18555   */\n      add\n        /* \"#utility.yul\":18540:18555   */\n      swap1\n      pop\n        /* \"#utility.yul\":18516:18629   */\n      jump(tag_805)\n    tag_807:\n        /* \"#utility.yul\":18647:18653   */\n      dup4\n        /* \"#utility.yul\":18644:18645   */\n      dup2\n        /* \"#utility.yul\":18641:18654   */\n      gt\n        /* \"#utility.yul\":18638:18739   */\n      iszero\n      tag_808\n      jumpi\n        /* \"#utility.yul\":18727:18728   */\n      0x00\n        /* \"#utility.yul\":18718:18724   */\n      dup5\n        /* \"#utility.yul\":18713:18716   */\n      dup5\n        /* \"#utility.yul\":18709:18725   */\n      add\n        /* \"#utility.yul\":18702:18729   */\n      mstore\n        /* \"#utility.yul\":18638:18739   */\n    tag_808:\n        /* \"#utility.yul\":18487:18745   */\n      pop\n        /* \"#utility.yul\":18438:18745   */\n      pop\n      pop\n      pop\n      jump\t// out\n        /* \"#utility.yul\":18751:19115   */\n    tag_563:\n        /* \"#utility.yul\":18839:18842   */\n      0x00\n        /* \"#utility.yul\":18867:18906   */\n      tag_810\n        /* \"#utility.yul\":18900:18905   */\n      dup3\n        /* \"#utility.yul\":18867:18906   */\n      tag_560\n      jump\t// in\n    tag_810:\n        /* \"#utility.yul\":18922:18993   */\n      tag_811\n        /* \"#utility.yul\":18986:18992   */\n      dup2\n        /* \"#utility.yul\":18981:18984   */\n      dup6\n        /* \"#utility.yul\":18922:18993   */\n      tag_561\n      jump\t// in\n    tag_811:\n        /* \"#utility.yul\":18915:18993   */\n      swap4\n      pop\n        /* \"#utility.yul\":19002:19054   */\n      tag_812\n        /* \"#utility.yul\":19047:19053   */\n      dup2\n        /* \"#utility.yul\":19042:19045   */\n      dup6\n        /* \"#utility.yul\":19035:19039   */\n      0x20\n        /* \"#utility.yul\":19028:19033   */\n      dup7\n        /* \"#utility.yul\":19024:19040   */\n      add\n        /* \"#utility.yul\":19002:19054   */\n      tag_562\n      jump\t// in\n    tag_812:\n        /* \"#utility.yul\":19079:19108   */\n      tag_813\n        /* \"#utility.yul\":19101:19107   */\n      dup2\n        /* \"#utility.yul\":19079:19108   */\n      tag_533\n      jump\t// in\n    tag_813:\n        /* \"#utility.yul\":19074:19077   */\n      dup5\n        /* \"#utility.yul\":19070:19109   */\n      add\n        /* \"#utility.yul\":19063:19109   */\n      swap2\n      pop\n        /* \"#utility.yul\":18843:19115   */\n      pop\n        /* \"#utility.yul\":18751:19115   */\n      swap3\n      swap2\n      pop\n      pop\n      jump\t// out\n        /* \"#utility.yul\":19121:19434   */\n    tag_142:\n        /* \"#utility.yul\":19234:19238   */\n      0x00\n        /* \"#utility.yul\":19272:19274   */\n      0x20\n        /* \"#utility.yul\":19261:19270   */\n      dup3\n        /* \"#utility.yul\":19257:19275   */\n      add\n        /* \"#utility.yul\":19249:19275   */\n      swap1\n      pop\n        /* \"#utility.yul\":19321:19330   */\n      dup2\n        /* \"#utility.yul\":19315:19319   */\n      dup2\n        /* \"#utility.yul\":19311:19331   */\n      sub\n        /* \"#utility.yul\":19307:19308   */\n      0x00\n        /* \"#utility.yul\":19296:19305   */\n      dup4\n        /* \"#utility.yul\":19292:19309   */\n      add\n        /* \"#utility.yul\":19285:19332   */\n      mstore\n        /* \"#utility.yul\":19349:19427   */\n      tag_815\n        /* \"#utility.yul\":19422:19426   */\n      dup2\n        /* \"#utility.yul\":19413:19419   */\n      dup5\n        /* \"#utility.yul\":19349:19427   */\n      tag_563\n      jump\t// in\n    tag_815:\n        /* \"#utility.yul\":19341:19427   */\n      swap1\n      pop\n        /* \"#utility.yul\":19121:19434   */\n      swap3\n      swap2\n      pop\n      pop\n      jump\t// out\n        /* \"#utility.yul\":19440:20104   */\n    tag_194:\n        /* \"#utility.yul\":19645:19649   */\n      0x00\n        /* \"#utility.yul\":19683:19686   */\n      0xa0\n        /* \"#utility.yul\":19672:19681   */\n      dup3\n        /* \"#utility.yul\":19668:19687   */\n      add\n        /* \"#utility.yul\":19660:19687   */\n      swap1\n      pop\n        /* \"#utility.yul\":19697:19768   */\n      tag_817\n        /* \"#utility.yul\":19765:19766   */\n      0x00\n        /* \"#utility.yul\":19754:19763   */\n      dup4\n        /* \"#utility.yul\":19750:19767   */\n      add\n        /* \"#utility.yul\":19741:19747   */\n      dup9\n        /* \"#utility.yul\":19697:19768   */\n      tag_525\n      jump\t// in\n    tag_817:\n        /* \"#utility.yul\":19778:19850   */\n      tag_818\n        /* \"#utility.yul\":19846:19848   */\n      0x20\n        /* \"#utility.yul\":19835:19844   */\n      dup4\n        /* \"#utility.yul\":19831:19849   */\n      add\n        /* \"#utility.yul\":19822:19828   */\n      dup8\n        /* \"#utility.yul\":19778:19850   */\n      tag_525\n      jump\t// in\n    tag_818:\n        /* \"#utility.yul\":19860:19932   */\n      tag_819\n        /* \"#utility.yul\":19928:19930   */\n      0x40\n        /* \"#utility.yul\":19917:19926   */\n      dup4\n        /* \"#utility.yul\":19913:19931   */\n      add\n        /* \"#utility.yul\":19904:19910   */\n      dup7\n        /* \"#utility.yul\":19860:19932   */\n      tag_525\n      jump\t// in\n    tag_819:\n        /* \"#utility.yul\":19942:20014   */\n      tag_820\n        /* \"#utility.yul\":20010:20012   */\n      0x60\n        /* \"#utility.yul\":19999:20008   */\n      dup4\n        /* \"#utility.yul\":19995:20013   */\n      add\n        /* \"#utility.yul\":19986:19992   */\n      dup6\n        /* \"#utility.yul\":19942:20014   */\n      tag_525\n      jump\t// in\n    tag_820:\n        /* \"#utility.yul\":20024:20097   */\n      tag_821\n        /* \"#utility.yul\":20092:20095   */\n      0x80\n        /* \"#utility.yul\":20081:20090   */\n      dup4\n        /* \"#utility.yul\":20077:20096   */\n      add\n        /* \"#utility.yul\":20068:20074   */\n      dup5\n        /* \"#utility.yul\":20024:20097   */\n      tag_525\n      jump\t// in\n    tag_821:\n        /* \"#utility.yul\":19440:20104   */\n      swap7\n      swap6\n      pop\n      pop\n      pop\n      pop\n      pop\n      pop\n      jump\t// out\n        /* \"#utility.yul\":20110:20845   */\n    tag_198:\n        /* \"#utility.yul\":20327:20331   */\n      0x00\n        /* \"#utility.yul\":20365:20368   */\n      0x80\n        /* \"#utility.yul\":20354:20363   */\n      dup3\n        /* \"#utility.yul\":20350:20369   */\n      add\n        /* \"#utility.yul\":20342:20369   */\n      swap1\n      pop\n        /* \"#utility.yul\":20415:20424   */\n      dup2\n        /* \"#utility.yul\":20409:20413   */\n      dup2\n        /* \"#utility.yul\":20405:20425   */\n      sub\n        /* \"#utility.yul\":20401:20402   */\n      0x00\n        /* \"#utility.yul\":20390:20399   */\n      dup4\n        /* \"#utility.yul\":20386:20403   */\n      add\n        /* \"#utility.yul\":20379:20426   */\n      mstore\n        /* \"#utility.yul\":20443:20521   */\n      tag_823\n        /* \"#utility.yul\":20516:20520   */\n      dup2\n        /* \"#utility.yul\":20507:20513   */\n      dup8\n        /* \"#utility.yul\":20443:20521   */\n      tag_563\n      jump\t// in\n    tag_823:\n        /* \"#utility.yul\":20435:20521   */\n      swap1\n      pop\n        /* \"#utility.yul\":20568:20577   */\n      dup2\n        /* \"#utility.yul\":20562:20566   */\n      dup2\n        /* \"#utility.yul\":20558:20578   */\n      sub\n        /* \"#utility.yul\":20553:20555   */\n      0x20\n        /* \"#utility.yul\":20542:20551   */\n      dup4\n        /* \"#utility.yul\":20538:20556   */\n      add\n        /* \"#utility.yul\":20531:20579   */\n      mstore\n        /* \"#utility.yul\":20596:20674   */\n      tag_824\n        /* \"#utility.yul\":20669:20673   */\n      dup2\n        /* \"#utility.yul\":20660:20666   */\n      dup7\n        /* \"#utility.yul\":20596:20674   */\n      tag_563\n      jump\t// in\n    tag_824:\n        /* \"#utility.yul\":20588:20674   */\n      swap1\n      pop\n        /* \"#utility.yul\":20684:20756   */\n      tag_825\n        /* \"#utility.yul\":20752:20754   */\n      0x40\n        /* \"#utility.yul\":20741:20750   */\n      dup4\n        /* \"#utility.yul\":20737:20755   */\n      add\n        /* \"#utility.yul\":20728:20734   */\n      dup6\n        /* \"#utility.yul\":20684:20756   */\n      tag_525\n      jump\t// in\n    tag_825:\n        /* \"#utility.yul\":20766:20838   */\n      tag_826\n        /* \"#utility.yul\":20834:20836   */\n      0x60\n        /* \"#utility.yul\":20823:20832   */\n      dup4\n        /* \"#utility.yul\":20819:20837   */\n      add\n        /* \"#utility.yul\":20810:20816   */\n      dup5\n        /* \"#utility.yul\":20766:20838   */\n      tag_545\n      jump\t// in\n    tag_826:\n        /* \"#utility.yul\":20110:20845   */\n      swap6\n      swap5\n      pop\n      pop\n      pop\n      pop\n      pop\n      jump\t// out\n        /* \"#utility.yul\":20851:21084   */\n    tag_564:\n        /* \"#utility.yul\":20991:21025   */\n      0x4c75636b7942616c6c3a2063616c6c6572206973206e6f7420746865206f7065\n        /* \"#utility.yul\":20987:20988   */\n      0x00\n        /* \"#utility.yul\":20979:20985   */\n      dup3\n        /* \"#utility.yul\":20975:20989   */\n      add\n        /* \"#utility.yul\":20968:21026   */\n      mstore\n        /* \"#utility.yul\":21060:21076   */\n      0x7261746f72206164647265737321000000000000000000000000000000000000\n        /* \"#utility.yul\":21055:21057   */\n      0x20\n        /* \"#utility.yul\":21047:21053   */\n      dup3\n        /* \"#utility.yul\":21043:21058   */\n      add\n        /* \"#utility.yul\":21036:21077   */\n      mstore\n        /* \"#utility.yul\":20851:21084   */\n      pop\n      jump\t// out\n        /* \"#utility.yul\":21090:21456   */\n    tag_565:\n        /* \"#utility.yul\":21232:21235   */\n      0x00\n        /* \"#utility.yul\":21253:21320   */\n      tag_829\n        /* \"#utility.yul\":21317:21319   */\n      0x2e\n        /* \"#utility.yul\":21312:21315   */\n      dup4\n        /* \"#utility.yul\":21253:21320   */\n      tag_561\n      jump\t// in\n    tag_829:\n        /* \"#utility.yul\":21246:21320   */\n      swap2\n      pop\n        /* \"#utility.yul\":21329:21422   */\n      tag_830\n        /* \"#utility.yul\":21418:21421   */\n      dup3\n        /* \"#utility.yul\":21329:21422   */\n      tag_564\n      jump\t// in\n    tag_830:\n        /* \"#utility.yul\":21447:21449   */\n      0x40\n        /* \"#utility.yul\":21442:21445   */\n      dup3\n        /* \"#utility.yul\":21438:21450   */\n      add\n        /* \"#utility.yul\":21431:21450   */\n      swap1\n      pop\n        /* \"#utility.yul\":21090:21456   */\n      swap2\n      swap1\n      pop\n      jump\t// out\n        /* \"#utility.yul\":21462:21881   */\n    tag_211:\n        /* \"#utility.yul\":21628:21632   */\n      0x00\n        /* \"#utility.yul\":21666:21668   */\n      0x20\n        /* \"#utility.yul\":21655:21664   */\n      dup3\n        /* \"#utility.yul\":21651:21669   */\n      add\n        /* \"#utility.yul\":21643:21669   */\n      swap1\n      pop\n        /* \"#utility.yul\":21715:21724   */\n      dup2\n        /* \"#utility.yul\":21709:21713   */\n      dup2\n        /* \"#utility.yul\":21705:21725   */\n      sub\n        /* \"#utility.yul\":21701:21702   */\n      0x00\n        /* \"#utility.yul\":21690:21699   */\n      dup4\n        /* \"#utility.yul\":21686:21703   */\n      add\n        /* \"#utility.yul\":21679:21726   */\n      mstore\n        /* \"#utility.yul\":21743:21874   */\n      tag_832\n        /* \"#utility.yul\":21869:21873   */\n      dup2\n        /* \"#utility.yul\":21743:21874   */\n      tag_565\n      jump\t// in\n    tag_832:\n        /* \"#utility.yul\":21735:21874   */\n      swap1\n      pop\n        /* \"#utility.yul\":21462:21881   */\n      swap2\n      swap1\n      pop\n      jump\t// out\n        /* \"#utility.yul\":21887:22119   */\n    tag_566:\n        /* \"#utility.yul\":22027:22061   */\n      0x4c75636b42616c6c3a206164647265737320616e642071747920636f756e7473\n        /* \"#utility.yul\":22023:22024   */\n      0x00\n        /* \"#utility.yul\":22015:22021   */\n      dup3\n        /* \"#utility.yul\":22011:22025   */\n      add\n        /* \"#utility.yul\":22004:22062   */\n      mstore\n        /* \"#utility.yul\":22096:22111   */\n      0x20646f206e6f74206d6174636800000000000000000000000000000000000000\n        /* \"#utility.yul\":22091:22093   */\n      0x20\n        /* \"#utility.yul\":22083:22089   */\n      dup3\n        /* \"#utility.yul\":22079:22094   */\n      add\n        /* \"#utility.yul\":22072:22112   */\n      mstore\n        /* \"#utility.yul\":21887:22119   */\n      pop\n      jump\t// out\n        /* \"#utility.yul\":22125:22491   */\n    tag_567:\n        /* \"#utility.yul\":22267:22270   */\n      0x00\n        /* \"#utility.yul\":22288:22355   */\n      tag_835\n        /* \"#utility.yul\":22352:22354   */\n      0x2d\n        /* \"#utility.yul\":22347:22350   */\n      dup4\n        /* \"#utility.yul\":22288:22355   */\n      tag_561\n      jump\t// in\n    tag_835:\n        /* \"#utility.yul\":22281:22355   */\n      swap2\n      pop\n        /* \"#utility.yul\":22364:22457   */\n      tag_836\n        /* \"#utility.yul\":22453:22456   */\n      dup3\n        /* \"#utility.yul\":22364:22457   */\n      tag_566\n      jump\t// in\n    tag_836:\n        /* \"#utility.yul\":22482:22484   */\n      0x40\n        /* \"#utility.yul\":22477:22480   */\n      dup3\n        /* \"#utility.yul\":22473:22485   */\n      add\n        /* \"#utility.yul\":22466:22485   */\n      swap1\n      pop\n        /* \"#utility.yul\":22125:22491   */\n      swap2\n      swap1\n      pop\n      jump\t// out\n        /* \"#utility.yul\":22497:22916   */\n    tag_215:\n        /* \"#utility.yul\":22663:22667   */\n      0x00\n        /* \"#utility.yul\":22701:22703   */\n      0x20\n        /* \"#utility.yul\":22690:22699   */\n      dup3\n        /* \"#utility.yul\":22686:22704   */\n      add\n        /* \"#utility.yul\":22678:22704   */\n      swap1\n      pop\n        /* \"#utility.yul\":22750:22759   */\n      dup2\n        /* \"#utility.yul\":22744:22748   */\n      dup2\n        /* \"#utility.yul\":22740:22760   */\n      sub\n        /* \"#utility.yul\":22736:22737   */\n      0x00\n        /* \"#utility.yul\":22725:22734   */\n      dup4\n        /* \"#utility.yul\":22721:22738   */\n      add\n        /* \"#utility.yul\":22714:22761   */\n      mstore\n        /* \"#utility.yul\":22778:22909   */\n      tag_838\n        /* \"#utility.yul\":22904:22908   */\n      dup2\n        /* \"#utility.yul\":22778:22909   */\n      tag_567\n      jump\t// in\n    tag_838:\n        /* \"#utility.yul\":22770:22909   */\n      swap1\n      pop\n        /* \"#utility.yul\":22497:22916   */\n      swap2\n      swap1\n      pop\n      jump\t// out\n        /* \"#utility.yul\":22922:23103   */\n    tag_568:\n        /* \"#utility.yul\":23062:23095   */\n      0x4c75636b7942616c6c3a20536561736f6e206973206e6f742061637469766500\n        /* \"#utility.yul\":23058:23059   */\n      0x00\n        /* \"#utility.yul\":23050:23056   */\n      dup3\n        /* \"#utility.yul\":23046:23060   */\n      add\n        /* \"#utility.yul\":23039:23096   */\n      mstore\n        /* \"#utility.yul\":22922:23103   */\n      pop\n      jump\t// out\n        /* \"#utility.yul\":23109:23475   */\n    tag_569:\n        /* \"#utility.yul\":23251:23254   */\n      0x00\n        /* \"#utility.yul\":23272:23339   */\n      tag_841\n        /* \"#utility.yul\":23336:23338   */\n      0x1f\n        /* \"#utility.yul\":23331:23334   */\n      dup4\n        /* \"#utility.yul\":23272:23339   */\n      tag_561\n      jump\t// in\n    tag_841:\n        /* \"#utility.yul\":23265:23339   */\n      swap2\n      pop\n        /* \"#utility.yul\":23348:23441   */\n      tag_842\n        /* \"#utility.yul\":23437:23440   */\n      dup3\n        /* \"#utility.yul\":23348:23441   */\n      tag_568\n      jump\t// in\n    tag_842:\n        /* \"#utility.yul\":23466:23468   */\n      0x20\n        /* \"#utility.yul\":23461:23464   */\n      dup3\n        /* \"#utility.yul\":23457:23469   */\n      add\n        /* \"#utility.yul\":23450:23469   */\n      swap1\n      pop\n        /* \"#utility.yul\":23109:23475   */\n      swap2\n      swap1\n      pop\n      jump\t// out\n        /* \"#utility.yul\":23481:23900   */\n    tag_219:\n        /* \"#utility.yul\":23647:23651   */\n      0x00\n        /* \"#utility.yul\":23685:23687   */\n      0x20\n        /* \"#utility.yul\":23674:23683   */\n      dup3\n        /* \"#utility.yul\":23670:23688   */\n      add\n        /* \"#utility.yul\":23662:23688   */\n      swap1\n      pop\n        /* \"#utility.yul\":23734:23743   */\n      dup2\n        /* \"#utility.yul\":23728:23732   */\n      dup2\n        /* \"#utility.yul\":23724:23744   */\n      sub\n        /* \"#utility.yul\":23720:23721   */\n      0x00\n        /* \"#utility.yul\":23709:23718   */\n      dup4\n        /* \"#utility.yul\":23705:23722   */\n      add\n        /* \"#utility.yul\":23698:23745   */\n      mstore\n        /* \"#utility.yul\":23762:23893   */\n      tag_844\n        /* \"#utility.yul\":23888:23892   */\n      dup2\n        /* \"#utility.yul\":23762:23893   */\n      tag_569\n      jump\t// in\n    tag_844:\n        /* \"#utility.yul\":23754:23893   */\n      swap1\n      pop\n        /* \"#utility.yul\":23481:23900   */\n      swap2\n      swap1\n      pop\n      jump\t// out\n        /* \"#utility.yul\":23906:24086   */\n    tag_225:\n        /* \"#utility.yul\":23954:24031   */\n      0x4e487b7100000000000000000000000000000000000000000000000000000000\n        /* \"#utility.yul\":23951:23952   */\n      0x00\n        /* \"#utility.yul\":23944:24032   */\n      mstore\n        /* \"#utility.yul\":24051:24055   */\n      0x32\n        /* \"#utility.yul\":24048:24049   */\n      0x04\n        /* \"#utility.yul\":24041:24056   */\n      mstore\n        /* \"#utility.yul\":24075:24079   */\n      0x24\n        /* \"#utility.yul\":24072:24073   */\n      0x00\n        /* \"#utility.yul\":24065:24080   */\n      revert\n        /* \"#utility.yul\":24092:24317   */\n    tag_570:\n        /* \"#utility.yul\":24232:24266   */\n      0x4c75636b7942616c6c3a207174792073686f756c642062652062696767657220\n        /* \"#utility.yul\":24228:24229   */\n      0x00\n        /* \"#utility.yul\":24220:24226   */\n      dup3\n        /* \"#utility.yul\":24216:24230   */\n      add\n        /* \"#utility.yul\":24209:24267   */\n      mstore\n        /* \"#utility.yul\":24301:24309   */\n      0x7468616e20300000000000000000000000000000000000000000000000000000\n        /* \"#utility.yul\":24296:24298   */\n      0x20\n        /* \"#utility.yul\":24288:24294   */\n      dup3\n        /* \"#utility.yul\":24284:24299   */\n      add\n        /* \"#utility.yul\":24277:24310   */\n      mstore\n        /* \"#utility.yul\":24092:24317   */\n      pop\n      jump\t// out\n        /* \"#utility.yul\":24323:24689   */\n    tag_571:\n        /* \"#utility.yul\":24465:24468   */\n      0x00\n        /* \"#utility.yul\":24486:24553   */\n      tag_848\n        /* \"#utility.yul\":24550:24552   */\n      0x26\n        /* \"#utility.yul\":24545:24548   */\n      dup4\n        /* \"#utility.yul\":24486:24553   */\n      tag_561\n      jump\t// in\n    tag_848:\n        /* \"#utility.yul\":24479:24553   */\n      swap2\n      pop\n        /* \"#utility.yul\":24562:24655   */\n      tag_849\n        /* \"#utility.yul\":24651:24654   */\n      dup3\n        /* \"#utility.yul\":24562:24655   */\n      tag_570\n      jump\t// in\n    tag_849:\n        /* \"#utility.yul\":24680:24682   */\n      0x40\n        /* \"#utility.yul\":24675:24678   */\n      dup3\n        /* \"#utility.yul\":24671:24683   */\n      add\n        /* \"#utility.yul\":24664:24683   */\n      swap1\n      pop\n        /* \"#utility.yul\":24323:24689   */\n      swap2\n      swap1\n      pop\n      jump\t// out\n        /* \"#utility.yul\":24695:25114   */\n    tag_228:\n        /* \"#utility.yul\":24861:24865   */\n      0x00\n        /* \"#utility.yul\":24899:24901   */\n      0x20\n        /* \"#utility.yul\":24888:24897   */\n      dup3\n        /* \"#utility.yul\":24884:24902   */\n      add\n        /* \"#utility.yul\":24876:24902   */\n      swap1\n      pop\n        /* \"#utility.yul\":24948:24957   */\n      dup2\n        /* \"#utility.yul\":24942:24946   */\n      dup2\n        /* \"#utility.yul\":24938:24958   */\n      sub\n        /* \"#utility.yul\":24934:24935   */\n      0x00\n        /* \"#utility.yul\":24923:24932   */\n      dup4\n        /* \"#utility.yul\":24919:24936   */\n      add\n        /* \"#utility.yul\":24912:24959   */\n      mstore\n        /* \"#utility.yul\":24976:25107   */\n      tag_851\n        /* \"#utility.yul\":25102:25106   */\n      dup2\n        /* \"#utility.yul\":24976:25107   */\n      tag_571\n      jump\t// in\n    tag_851:\n        /* \"#utility.yul\":24968:25107   */\n      swap1\n      pop\n        /* \"#utility.yul\":24695:25114   */\n      swap2\n      swap1\n      pop\n      jump\t// out\n        /* \"#utility.yul\":25120:25300   */\n    tag_572:\n        /* \"#utility.yul\":25168:25245   */\n      0x4e487b7100000000000000000000000000000000000000000000000000000000\n        /* \"#utility.yul\":25165:25166   */\n      0x00\n        /* \"#utility.yul\":25158:25246   */\n      mstore\n        /* \"#utility.yul\":25265:25269   */\n      0x11\n        /* \"#utility.yul\":25262:25263   */\n      0x04\n        /* \"#utility.yul\":25255:25270   */\n      mstore\n        /* \"#utility.yul\":25289:25293   */\n      0x24\n        /* \"#utility.yul\":25286:25287   */\n      0x00\n        /* \"#utility.yul\":25279:25294   */\n      revert\n        /* \"#utility.yul\":25306:25611   */\n    tag_232:\n        /* \"#utility.yul\":25346:25349   */\n      0x00\n        /* \"#utility.yul\":25365:25385   */\n      tag_854\n        /* \"#utility.yul\":25383:25384   */\n      dup3\n        /* \"#utility.yul\":25365:25385   */\n      tag_522\n      jump\t// in\n    tag_854:\n        /* \"#utility.yul\":25360:25385   */\n      swap2\n      pop\n        /* \"#utility.yul\":25399:25419   */\n      tag_855\n        /* \"#utility.yul\":25417:25418   */\n      dup4\n        /* \"#utility.yul\":25399:25419   */\n      tag_522\n      jump\t// in\n    tag_855:\n        /* \"#utility.yul\":25394:25419   */\n      swap3\n      pop\n        /* \"#utility.yul\":25553:25554   */\n      dup3\n        /* \"#utility.yul\":25485:25551   */\n      0xffffffffffffffffffffffffffffffffffffffffffffffffffffffffffffffff\n        /* \"#utility.yul\":25481:25555   */\n      sub\n        /* \"#utility.yul\":25478:25479   */\n      dup3\n        /* \"#utility.yul\":25475:25556   */\n      gt\n        /* \"#utility.yul\":25472:25579   */\n      iszero\n      tag_856\n      jumpi\n        /* \"#utility.yul\":25559:25577   */\n      tag_857\n      tag_572\n      jump\t// in\n    tag_857:\n        /* \"#utility.yul\":25472:25579   */\n    tag_856:\n        /* \"#utility.yul\":25603:25604   */\n      dup3\n        /* \"#utility.yul\":25600:25601   */\n      dup3\n        /* \"#utility.yul\":25596:25605   */\n      add\n        /* \"#utility.yul\":25589:25605   */\n      swap1\n      pop\n        /* \"#utility.yul\":25306:25611   */\n      swap3\n      swap2\n      pop\n      pop\n      jump\t// out\n        /* \"#utility.yul\":25617:25808   */\n    tag_242:\n        /* \"#utility.yul\":25657:25661   */\n      0x00\n        /* \"#utility.yul\":25677:25697   */\n      tag_859\n        /* \"#utility.yul\":25695:25696   */\n      dup3\n        /* \"#utility.yul\":25677:25697   */\n      tag_522\n      jump\t// in\n    tag_859:\n        /* \"#utility.yul\":25672:25697   */\n      swap2\n      pop\n        /* \"#utility.yul\":25711:25731   */\n      tag_860\n        /* \"#utility.yul\":25729:25730   */\n      dup4\n        /* \"#utility.yul\":25711:25731   */\n      tag_522\n      jump\t// in\n    tag_860:\n        /* \"#utility.yul\":25706:25731   */\n      swap3\n      pop\n        /* \"#utility.yul\":25750:25751   */\n      dup3\n        /* \"#utility.yul\":25747:25748   */\n      dup3\n        /* \"#utility.yul\":25744:25752   */\n      lt\n        /* \"#utility.yul\":25741:25775   */\n      iszero\n      tag_861\n      jumpi\n        /* \"#utility.yul\":25755:25773   */\n      tag_862\n      tag_572\n      jump\t// in\n    tag_862:\n        /* \"#utility.yul\":25741:25775   */\n    tag_861:\n        /* \"#utility.yul\":25800:25801   */\n      dup3\n        /* \"#utility.yul\":25797:25798   */\n      dup3\n        /* \"#utility.yul\":25793:25802   */\n      sub\n        /* \"#utility.yul\":25785:25802   */\n      swap1\n      pop\n        /* \"#utility.yul\":25617:25808   */\n      swap3\n      swap2\n      pop\n      pop\n      jump\t// out\n        /* \"#utility.yul\":25814:26256   */\n    tag_256:\n        /* \"#utility.yul\":25963:25967   */\n      0x00\n        /* \"#utility.yul\":26001:26003   */\n      0x60\n        /* \"#utility.yul\":25990:25999   */\n      dup3\n        /* \"#utility.yul\":25986:26004   */\n      add\n        /* \"#utility.yul\":25978:26004   */\n      swap1\n      pop\n        /* \"#utility.yul\":26014:26085   */\n      tag_864\n        /* \"#utility.yul\":26082:26083   */\n      0x00\n        /* \"#utility.yul\":26071:26080   */\n      dup4\n        /* \"#utility.yul\":26067:26084   */\n      add\n        /* \"#utility.yul\":26058:26064   */\n      dup7\n        /* \"#utility.yul\":26014:26085   */\n      tag_525\n      jump\t// in\n    tag_864:\n        /* \"#utility.yul\":26095:26167   */\n      tag_865\n        /* \"#utility.yul\":26163:26165   */\n      0x20\n        /* \"#utility.yul\":26152:26161   */\n      dup4\n        /* \"#utility.yul\":26148:26166   */\n      add\n        /* \"#utility.yul\":26139:26145   */\n      dup6\n        /* \"#utility.yul\":26095:26167   */\n      tag_525\n      jump\t// in\n    tag_865:\n        /* \"#utility.yul\":26177:26249   */\n      tag_866\n        /* \"#utility.yul\":26245:26247   */\n      0x40\n        /* \"#utility.yul\":26234:26243   */\n      dup4\n        /* \"#utility.yul\":26230:26248   */\n      add\n        /* \"#utility.yul\":26221:26227   */\n      dup5\n        /* \"#utility.yul\":26177:26249   */\n      tag_525\n      jump\t// in\n    tag_866:\n        /* \"#utility.yul\":25814:26256   */\n      swap5\n      swap4\n      pop\n      pop\n      pop\n      pop\n      jump\t// out\n        /* \"#utility.yul\":26262:26495   */\n    tag_258:\n        /* \"#utility.yul\":26301:26304   */\n      0x00\n        /* \"#utility.yul\":26324:26348   */\n      tag_868\n        /* \"#utility.yul\":26342:26347   */\n      dup3\n        /* \"#utility.yul\":26324:26348   */\n      tag_522\n      jump\t// in\n    tag_868:\n        /* \"#utility.yul\":26315:26348   */\n      swap2\n      pop\n        /* \"#utility.yul\":26370:26436   */\n      0xffffffffffffffffffffffffffffffffffffffffffffffffffffffffffffffff\n        /* \"#utility.yul\":26363:26368   */\n      dup3\n        /* \"#utility.yul\":26360:26437   */\n      eq\n        /* \"#utility.yul\":26357:26460   */\n      iszero\n      tag_869\n      jumpi\n        /* \"#utility.yul\":26440:26458   */\n      tag_870\n      tag_572\n      jump\t// in\n    tag_870:\n        /* \"#utility.yul\":26357:26460   */\n    tag_869:\n        /* \"#utility.yul\":26487:26488   */\n      0x01\n        /* \"#utility.yul\":26480:26485   */\n      dup3\n        /* \"#utility.yul\":26476:26489   */\n      add\n        /* \"#utility.yul\":26469:26489   */\n      swap1\n      pop\n        /* \"#utility.yul\":26262:26495   */\n      swap2\n      swap1\n      pop\n      jump\t// out\n        /* \"#utility.yul\":26501:26833   */\n    tag_262:\n        /* \"#utility.yul\":26622:26626   */\n      0x00\n        /* \"#utility.yul\":26660:26662   */\n      0x40\n        /* \"#utility.yul\":26649:26658   */\n      dup3\n        /* \"#utility.yul\":26645:26663   */\n      add\n        /* \"#utility.yul\":26637:26663   */\n      swap1\n      pop\n        /* \"#utility.yul\":26673:26744   */\n      tag_872\n        /* \"#utility.yul\":26741:26742   */\n      0x00\n        /* \"#utility.yul\":26730:26739   */\n      dup4\n        /* \"#utility.yul\":26726:26743   */\n      add\n        /* \"#utility.yul\":26717:26723   */\n      dup6\n        /* \"#utility.yul\":26673:26744   */\n      tag_545\n      jump\t// in\n    tag_872:\n        /* \"#utility.yul\":26754:26826   */\n      tag_873\n        /* \"#utility.yul\":26822:26824   */\n      0x20\n        /* \"#utility.yul\":26811:26820   */\n      dup4\n        /* \"#utility.yul\":26807:26825   */\n      add\n        /* \"#utility.yul\":26798:26804   */\n      dup5\n        /* \"#utility.yul\":26754:26826   */\n      tag_545\n      jump\t// in\n    tag_873:\n        /* \"#utility.yul\":26501:26833   */\n      swap4\n      swap3\n      pop\n      pop\n      pop\n      jump\t// out\n        /* \"#utility.yul\":26839:27016   */\n    tag_573:\n        /* \"#utility.yul\":26979:27008   */\n      0x4c75636b7942616c6c3a206578706972656420646561646c696e650000000000\n        /* \"#utility.yul\":26975:26976   */\n      0x00\n        /* \"#utility.yul\":26967:26973   */\n      dup3\n        /* \"#utility.yul\":26963:26977   */\n      add\n        /* \"#utility.yul\":26956:27009   */\n      mstore\n        /* \"#utility.yul\":26839:27016   */\n      pop\n      jump\t// out\n        /* \"#utility.yul\":27022:27388   */\n    tag_574:\n        /* \"#utility.yul\":27164:27167   */\n      0x00\n        /* \"#utility.yul\":27185:27252   */\n      tag_876\n        /* \"#utility.yul\":27249:27251   */\n      0x1b\n        /* \"#utility.yul\":27244:27247   */\n      dup4\n        /* \"#utility.yul\":27185:27252   */\n      tag_561\n      jump\t// in\n    tag_876:\n        /* \"#utility.yul\":27178:27252   */\n      swap2\n      pop\n        /* \"#utility.yul\":27261:27354   */\n      tag_877\n        /* \"#utility.yul\":27350:27353   */\n      dup3\n        /* \"#utility.yul\":27261:27354   */\n      tag_573\n      jump\t// in\n    tag_877:\n        /* \"#utility.yul\":27379:27381   */\n      0x20\n        /* \"#utility.yul\":27374:27377   */\n      dup3\n        /* \"#utility.yul\":27370:27382   */\n      add\n        /* \"#utility.yul\":27363:27382   */\n      swap1\n      pop\n        /* \"#utility.yul\":27022:27388   */\n      swap2\n      swap1\n      pop\n      jump\t// out\n        /* \"#utility.yul\":27394:27813   */\n    tag_285:\n        /* \"#utility.yul\":27560:27564   */\n      0x00\n        /* \"#utility.yul\":27598:27600   */\n      0x20\n        /* \"#utility.yul\":27587:27596   */\n      dup3\n        /* \"#utility.yul\":27583:27601   */\n      add\n        /* \"#utility.yul\":27575:27601   */\n      swap1\n      pop\n        /* \"#utility.yul\":27647:27656   */\n      dup2\n        /* \"#utility.yul\":27641:27645   */\n      dup2\n        /* \"#utility.yul\":27637:27657   */\n      sub\n        /* \"#utility.yul\":27633:27634   */\n      0x00\n        /* \"#utility.yul\":27622:27631   */\n      dup4\n        /* \"#utility.yul\":27618:27635   */\n      add\n        /* \"#utility.yul\":27611:27658   */\n      mstore\n        /* \"#utility.yul\":27675:27806   */\n      tag_879\n        /* \"#utility.yul\":27801:27805   */\n      dup2\n        /* \"#utility.yul\":27675:27806   */\n      tag_574\n      jump\t// in\n    tag_879:\n        /* \"#utility.yul\":27667:27806   */\n      swap1\n      pop\n        /* \"#utility.yul\":27394:27813   */\n      swap2\n      swap1\n      pop\n      jump\t// out\n        /* \"#utility.yul\":27819:28040   */\n    tag_575:\n        /* \"#utility.yul\":27959:27993   */\n      0x4c75636b7942616c6c3a20757365722073696720646f6573206e6f74206d6174\n        /* \"#utility.yul\":27955:27956   */\n      0x00\n        /* \"#utility.yul\":27947:27953   */\n      dup3\n        /* \"#utility.yul\":27943:27957   */\n      add\n        /* \"#utility.yul\":27936:27994   */\n      mstore\n        /* \"#utility.yul\":28028:28032   */\n      0x6368000000000000000000000000000000000000000000000000000000000000\n        /* \"#utility.yul\":28023:28025   */\n      0x20\n        /* \"#utility.yul\":28015:28021   */\n      dup3\n        /* \"#utility.yul\":28011:28026   */\n      add\n        /* \"#utility.yul\":28004:28033   */\n      mstore\n        /* \"#utility.yul\":27819:28040   */\n      pop\n      jump\t// out\n        /* \"#utility.yul\":28046:28412   */\n    tag_576:\n        /* \"#utility.yul\":28188:28191   */\n      0x00\n        /* \"#utility.yul\":28209:28276   */\n      tag_882\n        /* \"#utility.yul\":28273:28275   */\n      0x22\n        /* \"#utility.yul\":28268:28271   */\n      dup4\n        /* \"#utility.yul\":28209:28276   */\n      tag_561\n      jump\t// in\n    tag_882:\n        /* \"#utility.yul\":28202:28276   */\n      swap2\n      pop\n        /* \"#utility.yul\":28285:28378   */\n      tag_883\n        /* \"#utility.yul\":28374:28377   */\n      dup3\n        /* \"#utility.yul\":28285:28378   */\n      tag_575\n      jump\t// in\n    tag_883:\n        /* \"#utility.yul\":28403:28405   */\n      0x40\n        /* \"#utility.yul\":28398:28401   */\n      dup3\n        /* \"#utility.yul\":28394:28406   */\n      add\n        /* \"#utility.yul\":28387:28406   */\n      swap1\n      pop\n        /* \"#utility.yul\":28046:28412   */\n      swap2\n      swap1\n      pop\n      jump\t// out\n        /* \"#utility.yul\":28418:28837   */\n    tag_289:\n        /* \"#utility.yul\":28584:28588   */\n      0x00\n        /* \"#utility.yul\":28622:28624   */\n      0x20\n        /* \"#utility.yul\":28611:28620   */\n      dup3\n        /* \"#utility.yul\":28607:28625   */\n      add\n        /* \"#utility.yul\":28599:28625   */\n      swap1\n      pop\n        /* \"#utility.yul\":28671:28680   */\n      dup2\n        /* \"#utility.yul\":28665:28669   */\n      dup2\n        /* \"#utility.yul\":28661:28681   */\n      sub\n        /* \"#utility.yul\":28657:28658   */\n      0x00\n        /* \"#utility.yul\":28646:28655   */\n      dup4\n        /* \"#utility.yul\":28642:28659   */\n      add\n        /* \"#utility.yul\":28635:28682   */\n      mstore\n        /* \"#utility.yul\":28699:28830   */\n      tag_885\n        /* \"#utility.yul\":28825:28829   */\n      dup2\n        /* \"#utility.yul\":28699:28830   */\n      tag_576\n      jump\t// in\n    tag_885:\n        /* \"#utility.yul\":28691:28830   */\n      swap1\n      pop\n        /* \"#utility.yul\":28418:28837   */\n      swap2\n      swap1\n      pop\n      jump\t// out\n        /* \"#utility.yul\":28843:29080   */\n    tag_311:\n        /* \"#utility.yul\":28881:28884   */\n      0x00\n        /* \"#utility.yul\":28900:28918   */\n      tag_887\n        /* \"#utility.yul\":28916:28917   */\n      dup3\n        /* \"#utility.yul\":28900:28918   */\n      tag_546\n      jump\t// in\n    tag_887:\n        /* \"#utility.yul\":28895:28918   */\n      swap2\n      pop\n        /* \"#utility.yul\":28932:28950   */\n      tag_888\n        /* \"#utility.yul\":28948:28949   */\n      dup4\n        /* \"#utility.yul\":28932:28950   */\n      tag_546\n      jump\t// in\n    tag_888:\n        /* \"#utility.yul\":28927:28950   */\n      swap3\n      pop\n        /* \"#utility.yul\":29022:29023   */\n      dup3\n        /* \"#utility.yul\":29016:29020   */\n      0xff\n        /* \"#utility.yul\":29012:29024   */\n      sub\n        /* \"#utility.yul\":29009:29010   */\n      dup3\n        /* \"#utility.yul\":29006:29025   */\n      gt\n        /* \"#utility.yul\":29003:29048   */\n      iszero\n      tag_889\n      jumpi\n        /* \"#utility.yul\":29028:29046   */\n      tag_890\n      tag_572\n      jump\t// in\n    tag_890:\n        /* \"#utility.yul\":29003:29048   */\n    tag_889:\n        /* \"#utility.yul\":29072:29073   */\n      dup3\n        /* \"#utility.yul\":29069:29070   */\n      dup3\n        /* \"#utility.yul\":29065:29074   */\n      add\n        /* \"#utility.yul\":29058:29074   */\n      swap1\n      pop\n        /* \"#utility.yul\":28843:29080   */\n      swap3\n      swap2\n      pop\n      pop\n      jump\t// out\n        /* \"#utility.yul\":29086:29198   */\n    tag_577:\n        /* \"#utility.yul\":29169:29191   */\n      tag_892\n        /* \"#utility.yul\":29185:29190   */\n      dup2\n        /* \"#utility.yul\":29169:29191   */\n      tag_546\n      jump\t// in\n    tag_892:\n        /* \"#utility.yul\":29164:29167   */\n      dup3\n        /* \"#utility.yul\":29157:29192   */\n      mstore\n        /* \"#utility.yul\":29086:29198   */\n      pop\n      pop\n      jump\t// out\n        /* \"#utility.yul\":29204:29749   */\n    tag_313:\n        /* \"#utility.yul\":29377:29381   */\n      0x00\n        /* \"#utility.yul\":29415:29418   */\n      0x80\n        /* \"#utility.yul\":29404:29413   */\n      dup3\n        /* \"#utility.yul\":29400:29419   */\n      add\n        /* \"#utility.yul\":29392:29419   */\n      swap1\n      pop\n        /* \"#utility.yul\":29429:29500   */\n      tag_894\n        /* \"#utility.yul\":29497:29498   */\n      0x00\n        /* \"#utility.yul\":29486:29495   */\n      dup4\n        /* \"#utility.yul\":29482:29499   */\n      add\n        /* \"#utility.yul\":29473:29479   */\n      dup8\n        /* \"#utility.yul\":29429:29500   */\n      tag_544\n      jump\t// in\n    tag_894:\n        /* \"#utility.yul\":29510:29578   */\n      tag_895\n        /* \"#utility.yul\":29574:29576   */\n      0x20\n        /* \"#utility.yul\":29563:29572   */\n      dup4\n        /* \"#utility.yul\":29559:29577   */\n      add\n        /* \"#utility.yul\":29550:29556   */\n      dup7\n        /* \"#utility.yul\":29510:29578   */\n      tag_577\n      jump\t// in\n    tag_895:\n        /* \"#utility.yul\":29588:29660   */\n      tag_896\n        /* \"#utility.yul\":29656:29658   */\n      0x40\n        /* \"#utility.yul\":29645:29654   */\n      dup4\n        /* \"#utility.yul\":29641:29659   */\n      add\n        /* \"#utility.yul\":29632:29638   */\n      dup6\n        /* \"#utility.yul\":29588:29660   */\n      tag_544\n      jump\t// in\n    tag_896:\n        /* \"#utility.yul\":29670:29742   */\n      tag_897\n        /* \"#utility.yul\":29738:29740   */\n      0x60\n        /* \"#utility.yul\":29727:29736   */\n      dup4\n        /* \"#utility.yul\":29723:29741   */\n      add\n        /* \"#utility.yul\":29714:29720   */\n      dup5\n        /* \"#utility.yul\":29670:29742   */\n      tag_544\n      jump\t// in\n    tag_897:\n        /* \"#utility.yul\":29204:29749   */\n      swap6\n      swap5\n      pop\n      pop\n      pop\n      pop\n      pop\n      jump\t// out\n        /* \"#utility.yul\":29755:30080   */\n    tag_354:\n        /* \"#utility.yul\":29812:29818   */\n      0x00\n        /* \"#utility.yul\":29861:29863   */\n      0x20\n        /* \"#utility.yul\":29849:29858   */\n      dup3\n        /* \"#utility.yul\":29840:29847   */\n      dup5\n        /* \"#utility.yul\":29836:29859   */\n      sub\n        /* \"#utility.yul\":29832:29864   */\n      slt\n        /* \"#utility.yul\":29829:29948   */\n      iszero\n      tag_899\n      jumpi\n        /* \"#utility.yul\":29867:29946   */\n      tag_900\n      tag_520\n      jump\t// in\n    tag_900:\n        /* \"#utility.yul\":29829:29948   */\n    tag_899:\n        /* \"#utility.yul\":29987:29988   */\n      0x00\n        /* \"#utility.yul\":30012:30063   */\n      tag_901\n        /* \"#utility.yul\":30055:30062   */\n      dup5\n        /* \"#utility.yul\":30046:30052   */\n      dup3\n        /* \"#utility.yul\":30035:30044   */\n      dup6\n        /* \"#utility.yul\":30031:30053   */\n      add\n        /* \"#utility.yul\":30012:30063   */\n      tag_548\n      jump\t// in\n    tag_901:\n        /* \"#utility.yul\":30002:30063   */\n      swap2\n      pop\n        /* \"#utility.yul\":29958:30073   */\n      pop\n        /* \"#utility.yul\":29755:30080   */\n      swap3\n      swap2\n      pop\n      pop\n      jump\t// out\n        /* \"#utility.yul\":30086:30234   */\n    tag_578:\n        /* \"#utility.yul\":30188:30199   */\n      0x00\n        /* \"#utility.yul\":30225:30228   */\n      dup2\n        /* \"#utility.yul\":30210:30228   */\n      swap1\n      pop\n        /* \"#utility.yul\":30086:30234   */\n      swap3\n      swap2\n      pop\n      pop\n      jump\t// out\n        /* \"#utility.yul\":30240:30617   */\n    tag_579:\n        /* \"#utility.yul\":30346:30349   */\n      0x00\n        /* \"#utility.yul\":30374:30413   */\n      tag_904\n        /* \"#utility.yul\":30407:30412   */\n      dup3\n        /* \"#utility.yul\":30374:30413   */\n      tag_560\n      jump\t// in\n    tag_904:\n        /* \"#utility.yul\":30429:30518   */\n      tag_905\n        /* \"#utility.yul\":30511:30517   */\n      dup2\n        /* \"#utility.yul\":30506:30509   */\n      dup6\n        /* \"#utility.yul\":30429:30518   */\n      tag_578\n      jump\t// in\n    tag_905:\n        /* \"#utility.yul\":30422:30518   */\n      swap4\n      pop\n        /* \"#utility.yul\":30527:30579   */\n      tag_906\n        /* \"#utility.yul\":30572:30578   */\n      dup2\n        /* \"#utility.yul\":30567:30570   */\n      dup6\n        /* \"#utility.yul\":30560:30564   */\n      0x20\n        /* \"#utility.yul\":30553:30558   */\n      dup7\n        /* \"#utility.yul\":30549:30565   */\n      add\n        /* \"#utility.yul\":30527:30579   */\n      tag_562\n      jump\t// in\n    tag_906:\n        /* \"#utility.yul\":30604:30610   */\n      dup1\n        /* \"#utility.yul\":30599:30602   */\n      dup5\n        /* \"#utility.yul\":30595:30611   */\n      add\n        /* \"#utility.yul\":30588:30611   */\n      swap2\n      pop\n        /* \"#utility.yul\":30350:30617   */\n      pop\n        /* \"#utility.yul\":30240:30617   */\n      swap3\n      swap2\n      pop\n      pop\n      jump\t// out\n        /* \"#utility.yul\":30623:30898   */\n    tag_364:\n        /* \"#utility.yul\":30755:30758   */\n      0x00\n        /* \"#utility.yul\":30777:30872   */\n      tag_908\n        /* \"#utility.yul\":30868:30871   */\n      dup3\n        /* \"#utility.yul\":30859:30865   */\n      dup5\n        /* \"#utility.yul\":30777:30872   */\n      tag_579\n      jump\t// in\n    tag_908:\n        /* \"#utility.yul\":30770:30872   */\n      swap2\n      pop\n        /* \"#utility.yul\":30889:30892   */\n      dup2\n        /* \"#utility.yul\":30882:30892   */\n      swap1\n      pop\n        /* \"#utility.yul\":30623:30898   */\n      swap3\n      swap2\n      pop\n      pop\n      jump\t// out\n        /* \"#utility.yul\":30904:31457   */\n    tag_366:\n        /* \"#utility.yul\":31081:31085   */\n      0x00\n        /* \"#utility.yul\":31119:31122   */\n      0x80\n        /* \"#utility.yul\":31108:31117   */\n      dup3\n        /* \"#utility.yul\":31104:31123   */\n      add\n        /* \"#utility.yul\":31096:31123   */\n      swap1\n      pop\n        /* \"#utility.yul\":31133:31204   */\n      tag_910\n        /* \"#utility.yul\":31201:31202   */\n      0x00\n        /* \"#utility.yul\":31190:31199   */\n      dup4\n        /* \"#utility.yul\":31186:31203   */\n      add\n        /* \"#utility.yul\":31177:31183   */\n      dup8\n        /* \"#utility.yul\":31133:31204   */\n      tag_544\n      jump\t// in\n    tag_910:\n        /* \"#utility.yul\":31214:31286   */\n      tag_911\n        /* \"#utility.yul\":31282:31284   */\n      0x20\n        /* \"#utility.yul\":31271:31280   */\n      dup4\n        /* \"#utility.yul\":31267:31285   */\n      add\n        /* \"#utility.yul\":31258:31264   */\n      dup7\n        /* \"#utility.yul\":31214:31286   */\n      tag_545\n      jump\t// in\n    tag_911:\n        /* \"#utility.yul\":31296:31368   */\n      tag_912\n        /* \"#utility.yul\":31364:31366   */\n      0x40\n        /* \"#utility.yul\":31353:31362   */\n      dup4\n        /* \"#utility.yul\":31349:31367   */\n      add\n        /* \"#utility.yul\":31340:31346   */\n      dup6\n        /* \"#utility.yul\":31296:31368   */\n      tag_525\n      jump\t// in\n    tag_912:\n        /* \"#utility.yul\":31378:31450   */\n      tag_913\n        /* \"#utility.yul\":31446:31448   */\n      0x60\n        /* \"#utility.yul\":31435:31444   */\n      dup4\n        /* \"#utility.yul\":31431:31449   */\n      add\n        /* \"#utility.yul\":31422:31428   */\n      dup5\n        /* \"#utility.yul\":31378:31450   */\n      tag_525\n      jump\t// in\n    tag_913:\n        /* \"#utility.yul\":30904:31457   */\n      swap6\n      swap5\n      pop\n      pop\n      pop\n      pop\n      pop\n      jump\t// out\n        /* \"#utility.yul\":31463:31677   */\n    tag_580:\n        /* \"#utility.yul\":31603:31669   */\n      0x1901000000000000000000000000000000000000000000000000000000000000\n        /* \"#utility.yul\":31599:31600   */\n      0x00\n        /* \"#utility.yul\":31591:31597   */\n      dup3\n        /* \"#utility.yul\":31587:31601   */\n      add\n        /* \"#utility.yul\":31580:31670   */\n      mstore\n        /* \"#utility.yul\":31463:31677   */\n      pop\n      jump\t// out\n        /* \"#utility.yul\":31683:32083   */\n    tag_581:\n        /* \"#utility.yul\":31843:31846   */\n      0x00\n        /* \"#utility.yul\":31864:31948   */\n      tag_916\n        /* \"#utility.yul\":31946:31947   */\n      0x02\n        /* \"#utility.yul\":31941:31944   */\n      dup4\n        /* \"#utility.yul\":31864:31948   */\n      tag_578\n      jump\t// in\n    tag_916:\n        /* \"#utility.yul\":31857:31948   */\n      swap2\n      pop\n        /* \"#utility.yul\":31957:32050   */\n      tag_917\n        /* \"#utility.yul\":32046:32049   */\n      dup3\n        /* \"#utility.yul\":31957:32050   */\n      tag_580\n      jump\t// in\n    tag_917:\n        /* \"#utility.yul\":32075:32076   */\n      0x02\n        /* \"#utility.yul\":32070:32073   */\n      dup3\n        /* \"#utility.yul\":32066:32077   */\n      add\n        /* \"#utility.yul\":32059:32077   */\n      swap1\n      pop\n        /* \"#utility.yul\":31683:32083   */\n      swap2\n      swap1\n      pop\n      jump\t// out\n        /* \"#utility.yul\":32089:32168   */\n    tag_582:\n        /* \"#utility.yul\":32128:32135   */\n      0x00\n        /* \"#utility.yul\":32157:32162   */\n      dup2\n        /* \"#utility.yul\":32146:32162   */\n      swap1\n      pop\n        /* \"#utility.yul\":32089:32168   */\n      swap2\n      swap1\n      pop\n      jump\t// out\n        /* \"#utility.yul\":32174:32331   */\n    tag_583:\n        /* \"#utility.yul\":32279:32324   */\n      tag_920\n        /* \"#utility.yul\":32299:32323   */\n      tag_921\n        /* \"#utility.yul\":32317:32322   */\n      dup3\n        /* \"#utility.yul\":32299:32323   */\n      tag_543\n      jump\t// in\n    tag_921:\n        /* \"#utility.yul\":32279:32324   */\n      tag_582\n      jump\t// in\n    tag_920:\n        /* \"#utility.yul\":32274:32277   */\n      dup3\n        /* \"#utility.yul\":32267:32325   */\n      mstore\n        /* \"#utility.yul\":32174:32331   */\n      pop\n      pop\n      jump\t// out\n        /* \"#utility.yul\":32337:33000   */\n    tag_368:\n        /* \"#utility.yul\":32578:32581   */\n      0x00\n        /* \"#utility.yul\":32600:32748   */\n      tag_923\n        /* \"#utility.yul\":32744:32747   */\n      dup3\n        /* \"#utility.yul\":32600:32748   */\n      tag_581\n      jump\t// in\n    tag_923:\n        /* \"#utility.yul\":32593:32748   */\n      swap2\n      pop\n        /* \"#utility.yul\":32758:32833   */\n      tag_924\n        /* \"#utility.yul\":32829:32832   */\n      dup3\n        /* \"#utility.yul\":32820:32826   */\n      dup6\n        /* \"#utility.yul\":32758:32833   */\n      tag_583\n      jump\t// in\n    tag_924:\n        /* \"#utility.yul\":32858:32860   */\n      0x20\n        /* \"#utility.yul\":32853:32856   */\n      dup3\n        /* \"#utility.yul\":32849:32861   */\n      add\n        /* \"#utility.yul\":32842:32861   */\n      swap2\n      pop\n        /* \"#utility.yul\":32871:32946   */\n      tag_925\n        /* \"#utility.yul\":32942:32945   */\n      dup3\n        /* \"#utility.yul\":32933:32939   */\n      dup5\n        /* \"#utility.yul\":32871:32946   */\n      tag_583\n      jump\t// in\n    tag_925:\n        /* \"#utility.yul\":32971:32973   */\n      0x20\n        /* \"#utility.yul\":32966:32969   */\n      dup3\n        /* \"#utility.yul\":32962:32974   */\n      add\n        /* \"#utility.yul\":32955:32974   */\n      swap2\n      pop\n        /* \"#utility.yul\":32991:32994   */\n      dup2\n        /* \"#utility.yul\":32984:32994   */\n      swap1\n      pop\n        /* \"#utility.yul\":32337:33000   */\n      swap4\n      swap3\n      pop\n      pop\n      pop\n      jump\t// out\n        /* \"#utility.yul\":33006:33236   */\n    tag_584:\n        /* \"#utility.yul\":33146:33180   */\n      0x4c75636b7942616c6c3a2063616c6c6572206973206e6f7420746865206f776e\n        /* \"#utility.yul\":33142:33143   */\n      0x00\n        /* \"#utility.yul\":33134:33140   */\n      dup3\n        /* \"#utility.yul\":33130:33144   */\n      add\n        /* \"#utility.yul\":33123:33181   */\n      mstore\n        /* \"#utility.yul\":33215:33228   */\n      0x6572206164647265737321000000000000000000000000000000000000000000\n        /* \"#utility.yul\":33210:33212   */\n      0x20\n        /* \"#utility.yul\":33202:33208   */\n      dup3\n        /* \"#utility.yul\":33198:33213   */\n      add\n        /* \"#utility.yul\":33191:33229   */\n      mstore\n        /* \"#utility.yul\":33006:33236   */\n      pop\n      jump\t// out\n        /* \"#utility.yul\":33242:33608   */\n    tag_585:\n        /* \"#utility.yul\":33384:33387   */\n      0x00\n        /* \"#utility.yul\":33405:33472   */\n      tag_928\n        /* \"#utility.yul\":33469:33471   */\n      0x2b\n        /* \"#utility.yul\":33464:33467   */\n      dup4\n        /* \"#utility.yul\":33405:33472   */\n      tag_561\n      jump\t// in\n    tag_928:\n        /* \"#utility.yul\":33398:33472   */\n      swap2\n      pop\n        /* \"#utility.yul\":33481:33574   */\n      tag_929\n        /* \"#utility.yul\":33570:33573   */\n      dup3\n        /* \"#utility.yul\":33481:33574   */\n      tag_584\n      jump\t// in\n    tag_929:\n        /* \"#utility.yul\":33599:33601   */\n      0x40\n        /* \"#utility.yul\":33594:33597   */\n      dup3\n        /* \"#utility.yul\":33590:33602   */\n      add\n        /* \"#utility.yul\":33583:33602   */\n      swap1\n      pop\n        /* \"#utility.yul\":33242:33608   */\n      swap2\n      swap1\n      pop\n      jump\t// out\n        /* \"#utility.yul\":33614:34033   */\n    tag_376:\n        /* \"#utility.yul\":33780:33784   */\n      0x00\n        /* \"#utility.yul\":33818:33820   */\n      0x20\n        /* \"#utility.yul\":33807:33816   */\n      dup3\n        /* \"#utility.yul\":33803:33821   */\n      add\n        /* \"#utility.yul\":33795:33821   */\n      swap1\n      pop\n        /* \"#utility.yul\":33867:33876   */\n      dup2\n        /* \"#utility.yul\":33861:33865   */\n      dup2\n        /* \"#utility.yul\":33857:33877   */\n      sub\n        /* \"#utility.yul\":33853:33854   */\n      0x00\n        /* \"#utility.yul\":33842:33851   */\n      dup4\n        /* \"#utility.yul\":33838:33855   */\n      add\n        /* \"#utility.yul\":33831:33878   */\n      mstore\n        /* \"#utility.yul\":33895:34026   */\n      tag_931\n        /* \"#utility.yul\":34021:34025   */\n      dup2\n        /* \"#utility.yul\":33895:34026   */\n      tag_585\n      jump\t// in\n    tag_931:\n        /* \"#utility.yul\":33887:34026   */\n      swap1\n      pop\n        /* \"#utility.yul\":33614:34033   */\n      swap2\n      swap1\n      pop\n      jump\t// out\n        /* \"#utility.yul\":34039:34118   */\n    tag_586:\n        /* \"#utility.yul\":34078:34085   */\n      0x00\n        /* \"#utility.yul\":34107:34112   */\n      dup2\n        /* \"#utility.yul\":34096:34112   */\n      swap1\n      pop\n        /* \"#utility.yul\":34039:34118   */\n      swap2\n      swap1\n      pop\n      jump\t// out\n        /* \"#utility.yul\":34124:34281   */\n    tag_587:\n        /* \"#utility.yul\":34229:34274   */\n      tag_934\n        /* \"#utility.yul\":34249:34273   */\n      tag_935\n        /* \"#utility.yul\":34267:34272   */\n      dup3\n        /* \"#utility.yul\":34249:34273   */\n      tag_522\n      jump\t// in\n    tag_935:\n        /* \"#utility.yul\":34229:34274   */\n      tag_586\n      jump\t// in\n    tag_934:\n        /* \"#utility.yul\":34224:34227   */\n      dup3\n        /* \"#utility.yul\":34217:34275   */\n      mstore\n        /* \"#utility.yul\":34124:34281   */\n      pop\n      pop\n      jump\t// out\n        /* \"#utility.yul\":34287:34684   */\n    tag_386:\n        /* \"#utility.yul\":34427:34430   */\n      0x00\n        /* \"#utility.yul\":34442:34517   */\n      tag_937\n        /* \"#utility.yul\":34513:34516   */\n      dup3\n        /* \"#utility.yul\":34504:34510   */\n      dup6\n        /* \"#utility.yul\":34442:34517   */\n      tag_587\n      jump\t// in\n    tag_937:\n        /* \"#utility.yul\":34542:34544   */\n      0x20\n        /* \"#utility.yul\":34537:34540   */\n      dup3\n        /* \"#utility.yul\":34533:34545   */\n      add\n        /* \"#utility.yul\":34526:34545   */\n      swap2\n      pop\n        /* \"#utility.yul\":34555:34630   */\n      tag_938\n        /* \"#utility.yul\":34626:34629   */\n      dup3\n        /* \"#utility.yul\":34617:34623   */\n      dup5\n        /* \"#utility.yul\":34555:34630   */\n      tag_587\n      jump\t// in\n    tag_938:\n        /* \"#utility.yul\":34655:34657   */\n      0x20\n        /* \"#utility.yul\":34650:34653   */\n      dup3\n        /* \"#utility.yul\":34646:34658   */\n      add\n        /* \"#utility.yul\":34639:34658   */\n      swap2\n      pop\n        /* \"#utility.yul\":34675:34678   */\n      dup2\n        /* \"#utility.yul\":34668:34678   */\n      swap1\n      pop\n        /* \"#utility.yul\":34287:34684   */\n      swap4\n      swap3\n      pop\n      pop\n      pop\n      jump\t// out\n        /* \"#utility.yul\":34690:34910   */\n    tag_588:\n        /* \"#utility.yul\":34830:34864   */\n      0x4c75636b7942616c6c3a2062616c6c4964206973206f7574206f662072616e67\n        /* \"#utility.yul\":34826:34827   */\n      0x00\n        /* \"#utility.yul\":34818:34824   */\n      dup3\n        /* \"#utility.yul\":34814:34828   */\n      add\n        /* \"#utility.yul\":34807:34865   */\n      mstore\n        /* \"#utility.yul\":34899:34902   */\n      0x6500000000000000000000000000000000000000000000000000000000000000\n        /* \"#utility.yul\":34894:34896   */\n      0x20\n        /* \"#utility.yul\":34886:34892   */\n      dup3\n        /* \"#utility.yul\":34882:34897   */\n      add\n        /* \"#utility.yul\":34875:34903   */\n      mstore\n        /* \"#utility.yul\":34690:34910   */\n      pop\n      jump\t// out\n        /* \"#utility.yul\":34916:35282   */\n    tag_589:\n        /* \"#utility.yul\":35058:35061   */\n      0x00\n        /* \"#utility.yul\":35079:35146   */\n      tag_941\n        /* \"#utility.yul\":35143:35145   */\n      0x21\n        /* \"#utility.yul\":35138:35141   */\n      dup4\n        /* \"#utility.yul\":35079:35146   */\n      tag_561\n      jump\t// in\n    tag_941:\n        /* \"#utility.yul\":35072:35146   */\n      swap2\n      pop\n        /* \"#utility.yul\":35155:35248   */\n      tag_942\n        /* \"#utility.yul\":35244:35247   */\n      dup3\n        /* \"#utility.yul\":35155:35248   */\n      tag_588\n      jump\t// in\n    tag_942:\n        /* \"#utility.yul\":35273:35275   */\n      0x40\n        /* \"#utility.yul\":35268:35271   */\n      dup3\n        /* \"#utility.yul\":35264:35276   */\n      add\n        /* \"#utility.yul\":35257:35276   */\n      swap1\n      pop\n        /* \"#utility.yul\":34916:35282   */\n      swap2\n      swap1\n      pop\n      jump\t// out\n        /* \"#utility.yul\":35288:35707   */\n    tag_402:\n        /* \"#utility.yul\":35454:35458   */\n      0x00\n        /* \"#utility.yul\":35492:35494   */\n      0x20\n        /* \"#utility.yul\":35481:35490   */\n      dup3\n        /* \"#utility.yul\":35477:35495   */\n      add\n        /* \"#utility.yul\":35469:35495   */\n      swap1\n      pop\n        /* \"#utility.yul\":35541:35550   */\n      dup2\n        /* \"#utility.yul\":35535:35539   */\n      dup2\n        /* \"#utility.yul\":35531:35551   */\n      sub\n        /* \"#utility.yul\":35527:35528   */\n      0x00\n        /* \"#utility.yul\":35516:35525   */\n      dup4\n        /* \"#utility.yul\":35512:35529   */\n      add\n        /* \"#utility.yul\":35505:35552   */\n      mstore\n        /* \"#utility.yul\":35569:35700   */\n      tag_944\n        /* \"#utility.yul\":35695:35699   */\n      dup2\n        /* \"#utility.yul\":35569:35700   */\n      tag_589\n      jump\t// in\n    tag_944:\n        /* \"#utility.yul\":35561:35700   */\n      swap1\n      pop\n        /* \"#utility.yul\":35288:35707   */\n      swap2\n      swap1\n      pop\n      jump\t// out\n        /* \"#utility.yul\":35713:35887   */\n    tag_590:\n        /* \"#utility.yul\":35853:35879   */\n      0x4c75636b42616c6c3a204e6f2062616c6c206973737565640000000000000000\n        /* \"#utility.yul\":35849:35850   */\n      0x00\n        /* \"#utility.yul\":35841:35847   */\n      dup3\n        /* \"#utility.yul\":35837:35851   */\n      add\n        /* \"#utility.yul\":35830:35880   */\n      mstore\n        /* \"#utility.yul\":35713:35887   */\n      pop\n      jump\t// out\n        /* \"#utility.yul\":35893:36259   */\n    tag_591:\n        /* \"#utility.yul\":36035:36038   */\n      0x00\n        /* \"#utility.yul\":36056:36123   */\n      tag_947\n        /* \"#utility.yul\":36120:36122   */\n      0x18\n        /* \"#utility.yul\":36115:36118   */\n      dup4\n        /* \"#utility.yul\":36056:36123   */\n      tag_561\n      jump\t// in\n    tag_947:\n        /* \"#utility.yul\":36049:36123   */\n      swap2\n      pop\n        /* \"#utility.yul\":36132:36225   */\n      tag_948\n        /* \"#utility.yul\":36221:36224   */\n      dup3\n        /* \"#utility.yul\":36132:36225   */\n      tag_590\n      jump\t// in\n    tag_948:\n        /* \"#utility.yul\":36250:36252   */\n      0x20\n        /* \"#utility.yul\":36245:36248   */\n      dup3\n        /* \"#utility.yul\":36241:36253   */\n      add\n        /* \"#utility.yul\":36234:36253   */\n      swap1\n      pop\n        /* \"#utility.yul\":35893:36259   */\n      swap2\n      swap1\n      pop\n      jump\t// out\n        /* \"#utility.yul\":36265:36684   */\n    tag_405:\n        /* \"#utility.yul\":36431:36435   */\n      0x00\n        /* \"#utility.yul\":36469:36471   */\n      0x20\n        /* \"#utility.yul\":36458:36467   */\n      dup3\n        /* \"#utility.yul\":36454:36472   */\n      add\n        /* \"#utility.yul\":36446:36472   */\n      swap1\n      pop\n        /* \"#utility.yul\":36518:36527   */\n      dup2\n        /* \"#utility.yul\":36512:36516   */\n      dup2\n        /* \"#utility.yul\":36508:36528   */\n      sub\n        /* \"#utility.yul\":36504:36505   */\n      0x00\n        /* \"#utility.yul\":36493:36502   */\n      dup4\n        /* \"#utility.yul\":36489:36506   */\n      add\n        /* \"#utility.yul\":36482:36529   */\n      mstore\n        /* \"#utility.yul\":36546:36677   */\n      tag_950\n        /* \"#utility.yul\":36672:36676   */\n      dup2\n        /* \"#utility.yul\":36546:36677   */\n      tag_591\n      jump\t// in\n    tag_950:\n        /* \"#utility.yul\":36538:36677   */\n      swap1\n      pop\n        /* \"#utility.yul\":36265:36684   */\n      swap2\n      swap1\n      pop\n      jump\t// out\n        /* \"#utility.yul\":36690:36861   */\n    tag_423:\n        /* \"#utility.yul\":36729:36732   */\n      0x00\n        /* \"#utility.yul\":36752:36776   */\n      tag_952\n        /* \"#utility.yul\":36770:36775   */\n      dup3\n        /* \"#utility.yul\":36752:36776   */\n      tag_522\n      jump\t// in\n    tag_952:\n        /* \"#utility.yul\":36743:36776   */\n      swap2\n      pop\n        /* \"#utility.yul\":36798:36802   */\n      0x00\n        /* \"#utility.yul\":36791:36796   */\n      dup3\n        /* \"#utility.yul\":36788:36803   */\n      eq\n        /* \"#utility.yul\":36785:36826   */\n      iszero\n      tag_953\n      jumpi\n        /* \"#utility.yul\":36806:36824   */\n      tag_954\n      tag_572\n      jump\t// in\n    tag_954:\n        /* \"#utility.yul\":36785:36826   */\n    tag_953:\n        /* \"#utility.yul\":36853:36854   */\n      0x01\n        /* \"#utility.yul\":36846:36851   */\n      dup3\n        /* \"#utility.yul\":36842:36855   */\n      sub\n        /* \"#utility.yul\":36835:36855   */\n      swap1\n      pop\n        /* \"#utility.yul\":36690:36861   */\n      swap2\n      swap1\n      pop\n      jump\t// out\n        /* \"#utility.yul\":36867:37036   */\n    tag_592:\n        /* \"#utility.yul\":37007:37028   */\n      0x42616c6c4964206973206e6f7420666f756e6400000000000000000000000000\n        /* \"#utility.yul\":37003:37004   */\n      0x00\n        /* \"#utility.yul\":36995:37001   */\n      dup3\n        /* \"#utility.yul\":36991:37005   */\n      add\n        /* \"#utility.yul\":36984:37029   */\n      mstore\n        /* \"#utility.yul\":36867:37036   */\n      pop\n      jump\t// out\n        /* \"#utility.yul\":37042:37408   */\n    tag_593:\n        /* \"#utility.yul\":37184:37187   */\n      0x00\n        /* \"#utility.yul\":37205:37272   */\n      tag_957\n        /* \"#utility.yul\":37269:37271   */\n      0x13\n        /* \"#utility.yul\":37264:37267   */\n      dup4\n        /* \"#utility.yul\":37205:37272   */\n      tag_561\n      jump\t// in\n    tag_957:\n        /* \"#utility.yul\":37198:37272   */\n      swap2\n      pop\n        /* \"#utility.yul\":37281:37374   */\n      tag_958\n        /* \"#utility.yul\":37370:37373   */\n      dup3\n        /* \"#utility.yul\":37281:37374   */\n      tag_592\n      jump\t// in\n    tag_958:\n        /* \"#utility.yul\":37399:37401   */\n      0x20\n        /* \"#utility.yul\":37394:37397   */\n      dup3\n        /* \"#utility.yul\":37390:37402   */\n      add\n        /* \"#utility.yul\":37383:37402   */\n      swap1\n      pop\n        /* \"#utility.yul\":37042:37408   */\n      swap2\n      swap1\n      pop\n      jump\t// out\n        /* \"#utility.yul\":37414:37833   */\n    tag_425:\n        /* \"#utility.yul\":37580:37584   */\n      0x00\n        /* \"#utility.yul\":37618:37620   */\n      0x20\n        /* \"#utility.yul\":37607:37616   */\n      dup3\n        /* \"#utility.yul\":37603:37621   */\n      add\n        /* \"#utility.yul\":37595:37621   */\n      swap1\n      pop\n        /* \"#utility.yul\":37667:37676   */\n      dup2\n        /* \"#utility.yul\":37661:37665   */\n      dup2\n        /* \"#utility.yul\":37657:37677   */\n      sub\n        /* \"#utility.yul\":37653:37654   */\n      0x00\n        /* \"#utility.yul\":37642:37651   */\n      dup4\n        /* \"#utility.yul\":37638:37655   */\n      add\n        /* \"#utility.yul\":37631:37678   */\n      mstore\n        /* \"#utility.yul\":37695:37826   */\n      tag_960\n        /* \"#utility.yul\":37821:37825   */\n      dup2\n        /* \"#utility.yul\":37695:37826   */\n      tag_593\n      jump\t// in\n    tag_960:\n        /* \"#utility.yul\":37687:37826   */\n      swap1\n      pop\n        /* \"#utility.yul\":37414:37833   */\n      swap2\n      swap1\n      pop\n      jump\t// out\n        /* \"#utility.yul\":37839:37940   */\n    tag_594:\n        /* \"#utility.yul\":37875:37882   */\n      0x00\n        /* \"#utility.yul\":37915:37933   */\n      0xffffffffffffffff\n        /* \"#utility.yul\":37908:37913   */\n      dup3\n        /* \"#utility.yul\":37904:37934   */\n      and\n        /* \"#utility.yul\":37893:37934   */\n      swap1\n      pop\n        /* \"#utility.yul\":37839:37940   */\n      swap2\n      swap1\n      pop\n      jump\t// out\n        /* \"#utility.yul\":37946:38061   */\n    tag_595:\n        /* \"#utility.yul\":38031:38054   */\n      tag_963\n        /* \"#utility.yul\":38048:38053   */\n      dup2\n        /* \"#utility.yul\":38031:38054   */\n      tag_594\n      jump\t// in\n    tag_963:\n        /* \"#utility.yul\":38026:38029   */\n      dup3\n        /* \"#utility.yul\":38019:38055   */\n      mstore\n        /* \"#utility.yul\":37946:38061   */\n      pop\n      pop\n      jump\t// out\n        /* \"#utility.yul\":38067:38156   */\n    tag_596:\n        /* \"#utility.yul\":38103:38110   */\n      0x00\n        /* \"#utility.yul\":38143:38149   */\n      0xffff\n        /* \"#utility.yul\":38136:38141   */\n      dup3\n        /* \"#utility.yul\":38132:38150   */\n      and\n        /* \"#utility.yul\":38121:38150   */\n      swap1\n      pop\n        /* \"#utility.yul\":38067:38156   */\n      swap2\n      swap1\n      pop\n      jump\t// out\n        /* \"#utility.yul\":38162:38277   */\n    tag_597:\n        /* \"#utility.yul\":38247:38270   */\n      tag_966\n        /* \"#utility.yul\":38264:38269   */\n      dup2\n        /* \"#utility.yul\":38247:38270   */\n      tag_596\n      jump\t// in\n    tag_966:\n        /* \"#utility.yul\":38242:38245   */\n      dup3\n        /* \"#utility.yul\":38235:38271   */\n      mstore\n        /* \"#utility.yul\":38162:38277   */\n      pop\n      pop\n      jump\t// out\n        /* \"#utility.yul\":38283:38376   */\n    tag_598:\n        /* \"#utility.yul\":38319:38326   */\n      0x00\n        /* \"#utility.yul\":38359:38369   */\n      0xffffffff\n        /* \"#utility.yul\":38352:38357   */\n      dup3\n        /* \"#utility.yul\":38348:38370   */\n      and\n        /* \"#utility.yul\":38337:38370   */\n      swap1\n      pop\n        /* \"#utility.yul\":38283:38376   */\n      swap2\n      swap1\n      pop\n      jump\t// out\n        /* \"#utility.yul\":38382:38497   */\n    tag_599:\n        /* \"#utility.yul\":38467:38490   */\n      tag_969\n        /* \"#utility.yul\":38484:38489   */\n      dup2\n        /* \"#utility.yul\":38467:38490   */\n      tag_598\n      jump\t// in\n    tag_969:\n        /* \"#utility.yul\":38462:38465   */\n      dup3\n        /* \"#utility.yul\":38455:38491   */\n      mstore\n        /* \"#utility.yul\":38382:38497   */\n      pop\n      pop\n      jump\t// out\n        /* \"#utility.yul\":38503:39151   */\n    tag_476:\n        /* \"#utility.yul\":38700:38704   */\n      0x00\n        /* \"#utility.yul\":38738:38741   */\n      0xa0\n        /* \"#utility.yul\":38727:38736   */\n      dup3\n        /* \"#utility.yul\":38723:38742   */\n      add\n        /* \"#utility.yul\":38715:38742   */\n      swap1\n      pop\n        /* \"#utility.yul\":38752:38823   */\n      tag_971\n        /* \"#utility.yul\":38820:38821   */\n      0x00\n        /* \"#utility.yul\":38809:38818   */\n      dup4\n        /* \"#utility.yul\":38805:38822   */\n      add\n        /* \"#utility.yul\":38796:38802   */\n      dup9\n        /* \"#utility.yul\":38752:38823   */\n      tag_544\n      jump\t// in\n    tag_971:\n        /* \"#utility.yul\":38833:38903   */\n      tag_972\n        /* \"#utility.yul\":38899:38901   */\n      0x20\n        /* \"#utility.yul\":38888:38897   */\n      dup4\n        /* \"#utility.yul\":38884:38902   */\n      add\n        /* \"#utility.yul\":38875:38881   */\n      dup8\n        /* \"#utility.yul\":38833:38903   */\n      tag_595\n      jump\t// in\n    tag_972:\n        /* \"#utility.yul\":38913:38983   */\n      tag_973\n        /* \"#utility.yul\":38979:38981   */\n      0x40\n        /* \"#utility.yul\":38968:38977   */\n      dup4\n        /* \"#utility.yul\":38964:38982   */\n      add\n        /* \"#utility.yul\":38955:38961   */\n      dup7\n        /* \"#utility.yul\":38913:38983   */\n      tag_597\n      jump\t// in\n    tag_973:\n        /* \"#utility.yul\":38993:39063   */\n      tag_974\n        /* \"#utility.yul\":39059:39061   */\n      0x60\n        /* \"#utility.yul\":39048:39057   */\n      dup4\n        /* \"#utility.yul\":39044:39062   */\n      add\n        /* \"#utility.yul\":39035:39041   */\n      dup6\n        /* \"#utility.yul\":38993:39063   */\n      tag_599\n      jump\t// in\n    tag_974:\n        /* \"#utility.yul\":39073:39144   */\n      tag_975\n        /* \"#utility.yul\":39139:39142   */\n      0x80\n        /* \"#utility.yul\":39128:39137   */\n      dup4\n        /* \"#utility.yul\":39124:39143   */\n      add\n        /* \"#utility.yul\":39115:39121   */\n      dup5\n        /* \"#utility.yul\":39073:39144   */\n      tag_599\n      jump\t// in\n    tag_975:\n        /* \"#utility.yul\":38503:39151   */\n      swap7\n      swap6\n      pop\n      pop\n      pop\n      pop\n      pop\n      pop\n      jump\t// out\n        /* \"#utility.yul\":39157:39300   */\n    tag_600:\n        /* \"#utility.yul\":39214:39219   */\n      0x00\n        /* \"#utility.yul\":39245:39251   */\n      dup2\n        /* \"#utility.yul\":39239:39252   */\n      mload\n        /* \"#utility.yul\":39230:39252   */\n      swap1\n      pop\n        /* \"#utility.yul\":39261:39294   */\n      tag_977\n        /* \"#utility.yul\":39288:39293   */\n      dup2\n        /* \"#utility.yul\":39261:39294   */\n      tag_523\n      jump\t// in\n    tag_977:\n        /* \"#utility.yul\":39157:39300   */\n      swap3\n      swap2\n      pop\n      pop\n      jump\t// out\n        /* \"#utility.yul\":39306:39657   */\n    tag_480:\n        /* \"#utility.yul\":39376:39382   */\n      0x00\n        /* \"#utility.yul\":39425:39427   */\n      0x20\n        /* \"#utility.yul\":39413:39422   */\n      dup3\n        /* \"#utility.yul\":39404:39411   */\n      dup5\n        /* \"#utility.yul\":39400:39423   */\n      sub\n        /* \"#utility.yul\":39396:39428   */\n      slt\n        /* \"#utility.yul\":39393:39512   */\n      iszero\n      tag_979\n      jumpi\n        /* \"#utility.yul\":39431:39510   */\n      tag_980\n      tag_520\n      jump\t// in\n    tag_980:\n        /* \"#utility.yul\":39393:39512   */\n    tag_979:\n        /* \"#utility.yul\":39551:39552   */\n      0x00\n        /* \"#utility.yul\":39576:39640   */\n      tag_981\n        /* \"#utility.yul\":39632:39639   */\n      dup5\n        /* \"#utility.yul\":39623:39629   */\n      dup3\n        /* \"#utility.yul\":39612:39621   */\n      dup6\n        /* \"#utility.yul\":39608:39630   */\n      add\n        /* \"#utility.yul\":39576:39640   */\n      tag_600\n      jump\t// in\n    tag_981:\n        /* \"#utility.yul\":39566:39640   */\n      swap2\n      pop\n        /* \"#utility.yul\":39522:39650   */\n      pop\n        /* \"#utility.yul\":39306:39657   */\n      swap3\n      swap2\n      pop\n      pop\n      jump\t// out\n        /* \"#utility.yul\":39663:39842   */\n    tag_601:\n        /* \"#utility.yul\":39803:39834   */\n      0x4c75636b7942616c6c3a204e6f2062616c6c7320746f2072657665616c000000\n        /* \"#utility.yul\":39799:39800   */\n      0x00\n        /* \"#utility.yul\":39791:39797   */\n      dup3\n        /* \"#utility.yul\":39787:39801   */\n      add\n        /* \"#utility.yul\":39780:39835   */\n      mstore\n        /* \"#utility.yul\":39663:39842   */\n      pop\n      jump\t// out\n        /* \"#utility.yul\":39848:40214   */\n    tag_602:\n        /* \"#utility.yul\":39990:39993   */\n      0x00\n        /* \"#utility.yul\":40011:40078   */\n      tag_984\n        /* \"#utility.yul\":40075:40077   */\n      0x1d\n        /* \"#utility.yul\":40070:40073   */\n      dup4\n        /* \"#utility.yul\":40011:40078   */\n      tag_561\n      jump\t// in\n    tag_984:\n        /* \"#utility.yul\":40004:40078   */\n      swap2\n      pop\n        /* \"#utility.yul\":40087:40180   */\n      tag_985\n        /* \"#utility.yul\":40176:40179   */\n      dup3\n        /* \"#utility.yul\":40087:40180   */\n      tag_601\n      jump\t// in\n    tag_985:\n        /* \"#utility.yul\":40205:40207   */\n      0x20\n        /* \"#utility.yul\":40200:40203   */\n      dup3\n        /* \"#utility.yul\":40196:40208   */\n      add\n        /* \"#utility.yul\":40189:40208   */\n      swap1\n      pop\n        /* \"#utility.yul\":39848:40214   */\n      swap2\n      swap1\n      pop\n      jump\t// out\n        /* \"#utility.yul\":40220:40639   */\n    tag_486:\n        /* \"#utility.yul\":40386:40390   */\n      0x00\n        /* \"#utility.yul\":40424:40426   */\n      0x20\n        /* \"#utility.yul\":40413:40422   */\n      dup3\n        /* \"#utility.yul\":40409:40427   */\n      add\n        /* \"#utility.yul\":40401:40427   */\n      swap1\n      pop\n        /* \"#utility.yul\":40473:40482   */\n      dup2\n        /* \"#utility.yul\":40467:40471   */\n      dup2\n        /* \"#utility.yul\":40463:40483   */\n      sub\n        /* \"#utility.yul\":40459:40460   */\n      0x00\n        /* \"#utility.yul\":40448:40457   */\n      dup4\n        /* \"#utility.yul\":40444:40461   */\n      add\n        /* \"#utility.yul\":40437:40484   */\n      mstore\n        /* \"#utility.yul\":40501:40632   */\n      tag_987\n        /* \"#utility.yul\":40627:40631   */\n      dup2\n        /* \"#utility.yul\":40501:40632   */\n      tag_602\n      jump\t// in\n    tag_987:\n        /* \"#utility.yul\":40493:40632   */\n      swap1\n      pop\n        /* \"#utility.yul\":40220:40639   */\n      swap2\n      swap1\n      pop\n      jump\t// out\n        /* \"#utility.yul\":40645:40865   */\n    tag_603:\n        /* \"#utility.yul\":40785:40819   */\n      0x4c75636b7942616c6c3a204e6f206e65772062616c6c7320746f207265766561\n        /* \"#utility.yul\":40781:40782   */\n      0x00\n        /* \"#utility.yul\":40773:40779   */\n      dup3\n        /* \"#utility.yul\":40769:40783   */\n      add\n        /* \"#utility.yul\":40762:40820   */\n      mstore\n        /* \"#utility.yul\":40854:40857   */\n      0x6c00000000000000000000000000000000000000000000000000000000000000\n        /* \"#utility.yul\":40849:40851   */\n      0x20\n        /* \"#utility.yul\":40841:40847   */\n      dup3\n        /* \"#utility.yul\":40837:40852   */\n      add\n        /* \"#utility.yul\":40830:40858   */\n      mstore\n        /* \"#utility.yul\":40645:40865   */\n      pop\n      jump\t// out\n        /* \"#utility.yul\":40871:41237   */\n    tag_604:\n        /* \"#utility.yul\":41013:41016   */\n      0x00\n        /* \"#utility.yul\":41034:41101   */\n      tag_990\n        /* \"#utility.yul\":41098:41100   */\n      0x21\n        /* \"#utility.yul\":41093:41096   */\n      dup4\n        /* \"#utility.yul\":41034:41101   */\n      tag_561\n      jump\t// in\n    tag_990:\n        /* \"#utility.yul\":41027:41101   */\n      swap2\n      pop\n        /* \"#utility.yul\":41110:41203   */\n      tag_991\n        /* \"#utility.yul\":41199:41202   */\n      dup3\n        /* \"#utility.yul\":41110:41203   */\n      tag_603\n      jump\t// in\n    tag_991:\n        /* \"#utility.yul\":41228:41230   */\n      0x40\n        /* \"#utility.yul\":41223:41226   */\n      dup3\n        /* \"#utility.yul\":41219:41231   */\n      add\n        /* \"#utility.yul\":41212:41231   */\n      swap1\n      pop\n        /* \"#utility.yul\":40871:41237   */\n      swap2\n      swap1\n      pop\n      jump\t// out\n        /* \"#utility.yul\":41243:41662   */\n    tag_489:\n        /* \"#utility.yul\":41409:41413   */\n      0x00\n        /* \"#utility.yul\":41447:41449   */\n      0x20\n        /* \"#utility.yul\":41436:41445   */\n      dup3\n        /* \"#utility.yul\":41432:41450   */\n      add\n        /* \"#utility.yul\":41424:41450   */\n      swap1\n      pop\n        /* \"#utility.yul\":41496:41505   */\n      dup2\n        /* \"#utility.yul\":41490:41494   */\n      dup2\n        /* \"#utility.yul\":41486:41506   */\n      sub\n        /* \"#utility.yul\":41482:41483   */\n      0x00\n        /* \"#utility.yul\":41471:41480   */\n      dup4\n        /* \"#utility.yul\":41467:41484   */\n      add\n        /* \"#utility.yul\":41460:41507   */\n      mstore\n        /* \"#utility.yul\":41524:41655   */\n      tag_993\n        /* \"#utility.yul\":41650:41654   */\n      dup2\n        /* \"#utility.yul\":41524:41655   */\n      tag_604\n      jump\t// in\n    tag_993:\n        /* \"#utility.yul\":41516:41655   */\n      swap1\n      pop\n        /* \"#utility.yul\":41243:41662   */\n      swap2\n      swap1\n      pop\n      jump\t// out\n        /* \"#utility.yul\":41668:42065   */\n    tag_502:\n        /* \"#utility.yul\":41808:41811   */\n      0x00\n        /* \"#utility.yul\":41823:41898   */\n      tag_995\n        /* \"#utility.yul\":41894:41897   */\n      dup3\n        /* \"#utility.yul\":41885:41891   */\n      dup6\n        /* \"#utility.yul\":41823:41898   */\n      tag_583\n      jump\t// in\n    tag_995:\n        /* \"#utility.yul\":41923:41925   */\n      0x20\n        /* \"#utility.yul\":41918:41921   */\n      dup3\n        /* \"#utility.yul\":41914:41926   */\n      add\n        /* \"#utility.yul\":41907:41926   */\n      swap2\n      pop\n        /* \"#utility.yul\":41936:42011   */\n      tag_996\n        /* \"#utility.yul\":42007:42010   */\n      dup3\n        /* \"#utility.yul\":41998:42004   */\n      dup5\n        /* \"#utility.yul\":41936:42011   */\n      tag_587\n      jump\t// in\n    tag_996:\n        /* \"#utility.yul\":42036:42038   */\n      0x20\n        /* \"#utility.yul\":42031:42034   */\n      dup3\n        /* \"#utility.yul\":42027:42039   */\n      add\n        /* \"#utility.yul\":42020:42039   */\n      swap2\n      pop\n        /* \"#utility.yul\":42056:42059   */\n      dup2\n        /* \"#utility.yul\":42049:42059   */\n      swap1\n      pop\n        /* \"#utility.yul\":41668:42065   */\n      swap4\n      swap3\n      pop\n      pop\n      pop\n      jump\t// out\n        /* \"#utility.yul\":42071:42251   */\n    tag_605:\n        /* \"#utility.yul\":42119:42196   */\n      0x4e487b7100000000000000000000000000000000000000000000000000000000\n        /* \"#utility.yul\":42116:42117   */\n      0x00\n        /* \"#utility.yul\":42109:42197   */\n      mstore\n        /* \"#utility.yul\":42216:42220   */\n      0x12\n        /* \"#utility.yul\":42213:42214   */\n      0x04\n        /* \"#utility.yul\":42206:42221   */\n      mstore\n        /* \"#utility.yul\":42240:42244   */\n      0x24\n        /* \"#utility.yul\":42237:42238   */\n      0x00\n        /* \"#utility.yul\":42230:42245   */\n      revert\n        /* \"#utility.yul\":42257:42433   */\n    tag_505:\n        /* \"#utility.yul\":42289:42290   */\n      0x00\n        /* \"#utility.yul\":42306:42326   */\n      tag_999\n        /* \"#utility.yul\":42324:42325   */\n      dup3\n        /* \"#utility.yul\":42306:42326   */\n      tag_522\n      jump\t// in\n    tag_999:\n        /* \"#utility.yul\":42301:42326   */\n      swap2\n      pop\n        /* \"#utility.yul\":42340:42360   */\n      tag_1000\n        /* \"#utility.yul\":42358:42359   */\n      dup4\n        /* \"#utility.yul\":42340:42360   */\n      tag_522\n      jump\t// in\n    tag_1000:\n        /* \"#utility.yul\":42335:42360   */\n      swap3\n      pop\n        /* \"#utility.yul\":42379:42380   */\n      dup3\n        /* \"#utility.yul\":42369:42404   */\n      tag_1001\n      jumpi\n        /* \"#utility.yul\":42384:42402   */\n      tag_1002\n      tag_605\n      jump\t// in\n    tag_1002:\n        /* \"#utility.yul\":42369:42404   */\n    tag_1001:\n        /* \"#utility.yul\":42425:42426   */\n      dup3\n        /* \"#utility.yul\":42422:42423   */\n      dup3\n        /* \"#utility.yul\":42418:42427   */\n      mod\n        /* \"#utility.yul\":42413:42427   */\n      swap1\n      pop\n        /* \"#utility.yul\":42257:42433   */\n      swap3\n      swap2\n      pop\n      pop\n      jump\t// out\n        /* \"#utility.yul\":42439:42771   */\n    tag_517:\n        /* \"#utility.yul\":42560:42564   */\n      0x00\n        /* \"#utility.yul\":42598:42600   */\n      0x40\n        /* \"#utility.yul\":42587:42596   */\n      dup3\n        /* \"#utility.yul\":42583:42601   */\n      add\n        /* \"#utility.yul\":42575:42601   */\n      swap1\n      pop\n        /* \"#utility.yul\":42611:42682   */\n      tag_1004\n        /* \"#utility.yul\":42679:42680   */\n      0x00\n        /* \"#utility.yul\":42668:42677   */\n      dup4\n        /* \"#utility.yul\":42664:42681   */\n      add\n        /* \"#utility.yul\":42655:42661   */\n      dup6\n        /* \"#utility.yul\":42611:42682   */\n      tag_525\n      jump\t// in\n    tag_1004:\n        /* \"#utility.yul\":42692:42764   */\n      tag_1005\n        /* \"#utility.yul\":42760:42762   */\n      0x20\n        /* \"#utility.yul\":42749:42758   */\n      dup4\n        /* \"#utility.yul\":42745:42763   */\n      add\n        /* \"#utility.yul\":42736:42742   */\n      dup5\n        /* \"#utility.yul\":42692:42764   */\n      tag_525\n      jump\t// in\n    tag_1005:\n        /* \"#utility.yul\":42439:42771   */\n      swap4\n      swap3\n      pop\n      pop\n      pop\n      jump\t// out\n    stop\n    data_e95589e053fe17c341ad5ca40774b7b3f217df7a9a96044b4118e562d2d313c2 52656c61792861646472657373206f776e65722c75696e7432353620646561646c696e652c75696e74323536206e6f6e636529\n\n    auxdata: 0xa264697066735822122006ffdb7b3a8f9dab9f431e5f7e0049050ca1891e916627901810ae9714193b5664736f6c634300080a0033\n}\n",
				"bytecode": {
					"linkReferences": {},
					"object": "6101006040523480156200001257600080fd5b506040516200453b3803806200453b8339818101604052810190620000389190620003f1565b818073ffffffffffffffffffffffffffffffffffffffff1660808173ffffffffffffffffffffffffffffffffffffffff1681525050508173ffffffffffffffffffffffffffffffffffffffff1660a08173ffffffffffffffffffffffffffffffffffffffff16815250508060e081815250508267ffffffffffffffff1660c08167ffffffffffffffff168152505060026000815480929190620000db9062000486565b919050555033600360006101000a81548173ffffffffffffffffffffffffffffffffffffffff021916908373ffffffffffffffffffffffffffffffffffffffff16021790555033600460006101000a81548173ffffffffffffffffffffffffffffffffffffffff021916908373ffffffffffffffffffffffffffffffffffffffff160217905550620001726200017b60201b60201c565b50505062000600565b6000604051806080016040528060528152602001620044e9605291399050600080600080620001af6200026d60201b60201c565b935093509350935084604051602001620001ca919062000557565b6040516020818303038152906040528051906020012084604051602001620001f3919062000557565b60405160208183030381529060405280519060200120846040516020016200021c919062000557565b6040516020818303038152906040528051906020012084846040516020016200024a959493929190620005a3565b60405160208183030381529060405280519060200120600b819055505050505050565b60608060008060006040518060400160405280600f81526020017f4c75636b7942616c6c5f52656c61790000000000000000000000000000000000815250905060006040518060400160405280600181526020017f31000000000000000000000000000000000000000000000000000000000000008152509050600046905060003090508383838397509750975097505050505090919293565b600080fd5b600067ffffffffffffffff82169050919050565b6200032b816200030c565b81146200033757600080fd5b50565b6000815190506200034b8162000320565b92915050565b600073ffffffffffffffffffffffffffffffffffffffff82169050919050565b60006200037e8262000351565b9050919050565b620003908162000371565b81146200039c57600080fd5b50565b600081519050620003b08162000385565b92915050565b6000819050919050565b620003cb81620003b6565b8114620003d757600080fd5b50565b600081519050620003eb81620003c0565b92915050565b6000806000606084860312156200040d576200040c62000307565b5b60006200041d868287016200033a565b935050602062000430868287016200039f565b92505060406200044386828701620003da565b9150509250925092565b7f4e487b7100000000000000000000000000000000000000000000000000000000600052601160045260246000fd5b6000819050919050565b600062000493826200047c565b91507fffffffffffffffffffffffffffffffffffffffffffffffffffffffffffffffff821415620004c957620004c86200044d565b5b600182019050919050565b600081519050919050565b600081905092915050565b60005b838110156200050a578082015181840152602081019050620004ed565b838111156200051a576000848401525b50505050565b60006200052d82620004d4565b620005398185620004df565b93506200054b818560208601620004ea565b80840191505092915050565b600062000565828462000520565b915081905092915050565b6200057b81620003b6565b82525050565b6200058c816200047c565b82525050565b6200059d8162000371565b82525050565b600060a082019050620005ba600083018862000570565b620005c9602083018762000570565b620005d8604083018662000570565b620005e7606083018562000581565b620005f6608083018462000592565b9695505050505050565b60805160a05160c05160e051613ea86200064160003960006121e101526000612202015260006121a5015260008181610d7b0152610dcf0152613ea86000f3fe608060405234801561001057600080fd5b506004361061023d5760003560e01c8063a168fa891161013b578063d37431a6116100b8578063e7f43c681161007c578063e7f43c68146107a6578063f5d709a1146107c4578063f9523b21146107f8578063fc2a88c314610819578063fe675307146108375761023d565b8063d37431a6146106da578063d3ba6f34146106f8578063d530f1b414610728578063df6c833314610758578063df6fba1d146107885761023d565b8063b20aaaf5116100ff578063b20aaaf5146105fc578063b29e60ef1461062c578063b3ab15fb1461065c578063ba7320641461068c578063c6b98e04146106aa5761023d565b8063a168fa891461052e578063a404932514610560578063a529d3b014610590578063ae95234c146105ae578063b07870b5146105de5761023d565b80635f4f79bb116101c95780638504a01a1161018d5780638504a01a146104865780638c73da19146104b6578063952a9633146104d45780639ceaddc9146104f25780639d3db7db146105105761023d565b80635f4f79bb146103965780636352211e146103c65780636999f376146103f65780637a0da8d8146104265780637ecebe00146104565761023d565b80631fe543e3116102105780631fe543e3146102de5780632ffb84dd146102fa5780633644e5151461032a5780633822aea4146103485780633dcdb672146103785761023d565b806304b1b2c214610242578063060ed27f146102725780630841ba30146102905780631022889c146102ae575b600080fd5b61025c600480360381019061025791906127f3565b610867565b604051610269919061282f565b60405180910390f35b61027a61087f565b6040516102879190612865565b60405180910390f35b610298610892565b6040516102a5919061282f565b60405180910390f35b6102c860048036038101906102c3919061293b565b61089f565b6040516102d59190612865565b60405180910390f35b6102f860048036038101906102f39190612b0b565b610d79565b005b610314600480360381019061030f9190612bc5565b610e39565b604051610321919061282f565b60405180910390f35b610332610e51565b60405161033f9190612c0b565b60405180910390f35b610362600480360381019061035d91906127f3565b610e57565b60405161036f9190612c35565b60405180910390f35b610380610e96565b60405161038d9190612865565b60405180910390f35b6103b060048036038101906103ab9190612cb5565b611045565b6040516103bd9190612865565b60405180910390f35b6103e060048036038101906103db91906127f3565b6111d2565b6040516103ed9190612c35565b60405180910390f35b610410600480360381019061040b9190612d30565b61127f565b60405161041d9190612865565b60405180910390f35b610440600480360381019061043b9190612dbd565b611335565b60405161044d9190612ebb565b60405180910390f35b610470600480360381019061046b9190612bc5565b6113e4565b60405161047d919061282f565b60405180910390f35b6104a0600480360381019061049b9190612edd565b61142d565b6040516104ad919061282f565b60405180910390f35b6104be61146b565b6040516104cb919061282f565b60405180910390f35b6104dc611475565b6040516104e9919061282f565b60405180910390f35b6104fa61168e565b604051610507919061282f565b60405180910390f35b610518611694565b604051610525919061282f565b60405180910390f35b610548600480360381019061054391906127f3565b61169e565b60405161055793929190612f30565b60405180910390f35b61057a60048036038101906105759190613013565b6116e2565b6040516105879190612865565b60405180910390f35b6105986117c2565b6040516105a591906131b8565b60405180910390f35b6105c860048036038101906105c39190612edd565b6117e8565b6040516105d59190612c0b565b60405180910390f35b6105e6611882565b6040516105f39190612865565b60405180910390f35b610616600480360381019061061191906127f3565b611892565b604051610623919061282f565b60405180910390f35b610646600480360381019061064191906127f3565b6118b6565b604051610653919061282f565b60405180910390f35b61067660048036038101906106719190612bc5565b6118ce565b6040516106839190612865565b60405180910390f35b6106946119aa565b6040516106a19190612865565b60405180910390f35b6106c460048036038101906106bf91906127f3565b6119f1565b6040516106d1919061282f565b60405180910390f35b6106e2611a62565b6040516106ef919061282f565b60405180910390f35b610712600480360381019061070d91906127f3565b611b7a565b60405161071f919061282f565b60405180910390f35b610742600480360381019061073d91906127f3565b611b9f565b60405161074f919061282f565b60405180910390f35b610772600480360381019061076d9190612dbd565b611d3e565b60405161077f919061282f565b60405180910390f35b610790611d63565b60405161079d9190612ebb565b60405180910390f35b6107ae611d76565b6040516107bb9190612c35565b60405180910390f35b6107de60048036038101906107d991906127f3565b611da0565b6040516107ef9594939291906131da565b60405180910390f35b610800611dd6565b604051610810949392919061322d565b60405180910390f35b610821611e70565b60405161082e919061282f565b60405180910390f35b610851600480360381019061084c9190612dbd565b611e76565b60405161085e9190612ebb565b60405180910390f35b600f6020528060005260406000206000915090505481565b600860009054906101000a900460ff1681565b6000600580549050905090565b60003373ffffffffffffffffffffffffffffffffffffffff16600460009054906101000a900473ffffffffffffffffffffffffffffffffffffffff1673ffffffffffffffffffffffffffffffffffffffff16148061094a57503373ffffffffffffffffffffffffffffffffffffffff16600360009054906101000a900473ffffffffffffffffffffffffffffffffffffffff1673ffffffffffffffffffffffffffffffffffffffff16145b610989576040517f08c379a0000000000000000000000000000000000000000000000000000000008152600401610980906132f2565b60405180910390fd5b8282905085859050146109d1576040517f08c379a00000000000000000000000000000000000000000000000000000000081526004016109c890613384565b60405180910390fd5b6109d96119aa565b610a18576040517f08c379a0000000000000000000000000000000000000000000000000000000008152600401610a0f906133f0565b60405180910390fd5b60005b85859050811015610d6c576000848483818110610a3b57610a3a613410565b5b9050602002013511610a82576040517f08c379a0000000000000000000000000000000000000000000000000000000008152600401610a79906134b1565b60405180910390fd5b838382818110610a9557610a94613410565b5b9050602002013560076000828254610aad9190613500565b92505081905550600560075490806001815401808255809150506001900390600052602060002001600090919091909150556006868683818110610af457610af3613410565b5b9050602002016020810190610b099190612bc5565b9080600181540180825580915050600190039060005260206000200160009091909190916101000a81548173ffffffffffffffffffffffffffffffffffffffff021916908373ffffffffffffffffffffffffffffffffffffffff160217905550600e6000878784818110610b8057610b7f613410565b5b9050602002016020810190610b959190612bc5565b73ffffffffffffffffffffffffffffffffffffffff1673ffffffffffffffffffffffffffffffffffffffff168152602001908152602001600020600060015481526020019081526020016000206001600580549050610bf49190613556565b9080600181540180825580915050600190039060005260206000200160009091909190915055838382818110610c2d57610c2c613410565b5b9050602002013560126000888885818110610c4b57610c4a613410565b5b9050602002016020810190610c609190612bc5565b73ffffffffffffffffffffffffffffffffffffffff1673ffffffffffffffffffffffffffffffffffffffff168152602001908152602001600020600060015481526020019081526020016000206000828254610cbc9190613500565b92505081905550858582818110610cd657610cd5613410565b5b9050602002016020810190610ceb9190612bc5565b73ffffffffffffffffffffffffffffffffffffffff167fd7ede6383f46d0f3b406e1291de4c475b0b91222d1f8d31988d236445af00df1600154868685818110610d3857610d37613410565b5b90506020020135600754604051610d519392919061358a565b60405180910390a28080610d64906135c1565b915050610a1b565b5060019050949350505050565b7f000000000000000000000000000000000000000000000000000000000000000073ffffffffffffffffffffffffffffffffffffffff163373ffffffffffffffffffffffffffffffffffffffff1614610e2b57337f00000000000000000000000000000000000000000000000000000000000000006040517f1cf993f4000000000000000000000000000000000000000000000000000000008152600401610e2292919061360a565b60405180910390fd5b610e3582826120f4565b5050565b60116020528060005260406000206000915090505481565b600b5481565b60068181548110610e6757600080fd5b906000526020600020016000915054906101000a900473ffffffffffffffffffffffffffffffffffffffff1681565b60003373ffffffffffffffffffffffffffffffffffffffff16600460009054906101000a900473ffffffffffffffffffffffffffffffffffffffff1673ffffffffffffffffffffffffffffffffffffffff161480610f4157503373ffffffffffffffffffffffffffffffffffffffff16600360009054906101000a900473ffffffffffffffffffffffffffffffffffffffff1673ffffffffffffffffffffffffffffffffffffffff16145b610f80576040517f08c379a0000000000000000000000000000000000000000000000000000000008152600401610f77906132f2565b60405180910390fd5b60006005805490501415610f975760009050611042565b600860009054906101000a900460ff1615610fb657610fb4611a62565b505b600060056001600580549050610fcc9190613556565b81548110610fdd57610fdc613410565b5b90600052602060002001549050600d6000600154815260200190815260200160002060020154811415611014576000915050611042565b80600d600060015481526020019081526020016000206002018190555061103b60016121a0565b5060019150505b90565b60004285101561108a576040517f08c379a00000000000000000000000000000000000000000000000000000000081526004016110819061367f565b60405180910390fd5b6110d78686600c60008a73ffffffffffffffffffffffffffffffffffffffff1673ffffffffffffffffffffffffffffffffffffffff1681526020019081526020016000205487878761127f565b611116576040517f08c379a000000000000000000000000000000000000000000000000000000000815260040161110d90613711565b60405180910390fd5b61111f8661231f565b508573ffffffffffffffffffffffffffffffffffffffff167fa202ebfe1c0b55b9f79fe93552e9c6e90996eef6d399adc87d083ade6c0a9278600154604051611168919061282f565b60405180910390a2600c60008773ffffffffffffffffffffffffffffffffffffffff1673ffffffffffffffffffffffffffffffffffffffff16815260200190815260200160002060008154809291906111c0906135c1565b91905055506001905095945050505050565b6000808214156111e5576000905061127a565b60005b600580549050811015611274576005818154811061120957611208613410565b5b90600052602060002001548311611261576006818154811061122e5761122d613410565b5b9060005260206000200160009054906101000a900473ffffffffffffffffffffffffffffffffffffffff1691505061127a565b808061126c906135c1565b9150506111e8565b50600090505b919050565b60008061128d8888886117e8565b9050601b8560ff1610156112ab57601b856112a89190613731565b94505b600181868686604051600081526020016040526040516112ce9493929190613777565b6020604051602081039080840390855afa1580156112f0573d6000803e3d6000fd5b5050506020604051035173ffffffffffffffffffffffffffffffffffffffff168873ffffffffffffffffffffffffffffffffffffffff16149150509695505050505050565b60606000600e60008573ffffffffffffffffffffffffffffffffffffffff1673ffffffffffffffffffffffffffffffffffffffff16815260200190815260200160002060008481526020019081526020016000208054806020026020016040519081016040528092919081815260200182805480156113d357602002820191906000526020600020905b8154815260200190600101908083116113bf575b505050505090508091505092915050565b6000600c60008373ffffffffffffffffffffffffffffffffffffffff1673ffffffffffffffffffffffffffffffffffffffff168152602001908152602001600020549050919050565b600e602052826000526040600020602052816000526040600020818154811061145557600080fd5b9060005260206000200160009250925050505481565b6000600154905090565b60003373ffffffffffffffffffffffffffffffffffffffff16600460009054906101000a900473ffffffffffffffffffffffffffffffffffffffff1673ffffffffffffffffffffffffffffffffffffffff16148061152057503373ffffffffffffffffffffffffffffffffffffffff16600360009054906101000a900473ffffffffffffffffffffffffffffffffffffffff1673ffffffffffffffffffffffffffffffffffffffff16145b61155f576040517f08c379a0000000000000000000000000000000000000000000000000000000008152600401611556906132f2565b60405180910390fd5b60016000815480929190611572906135c1565b9190505550600080600580549050141561158f57600190506115d0565b60016005600161159d610892565b6115a79190613556565b815481106115b8576115b7613410565b5b90600052602060002001546115cd9190613500565b90505b6040518060a00160405280600154815260200182815260200160008152602001600081526020016115ff6125be565b815250600d6000600154815260200190815260200160002060008201518160000155602082015181600101556040820151816002015560608201518160030155608082015181600401559050507fe2046d333900871694b2fb421975b907ac5d93052201a0e259fa0664d9dbdf1d60015460405161167d919061282f565b60405180910390a160015491505090565b60075481565b6000600254905090565b600a6020528060005260406000206000915090508060000160009054906101000a900460ff16908060000160019054906101000a900460ff16908060010154905083565b600080600090505b8b8b90508110156117af5761179b8c8c8381811061170b5761170a613410565b5b90506020020160208101906117209190612bc5565b8b8b8481811061173357611732613410565b5b905060200201358a8a8581811061174d5761174c613410565b5b905060200201602081019061176291906137bc565b89898681811061177557611774613410565b5b9050602002013588888781811061178f5761178e613410565b5b90506020020135611045565b5080806117a7906135c1565b9150506116ea565b50600190509a9950505050505050505050565b60606000604051806060016040528060338152602001613e406033913990508091505090565b6000806117f36117c2565b90506000600b548260405160200161180b9190613825565b60405160208183030381529060405280519060200120878787604051602001611837949392919061383c565b6040516020818303038152906040528051906020012060405160200161185e9291906138ee565b60405160208183030381529060405280519060200120905080925050509392505050565b600061188d3361231f565b905090565b600581815481106118a257600080fd5b906000526020600020016000915090505481565b60106020528060005260406000206000915090505481565b60003373ffffffffffffffffffffffffffffffffffffffff16600360009054906101000a900473ffffffffffffffffffffffffffffffffffffffff1673ffffffffffffffffffffffffffffffffffffffff1614611960576040517f08c379a000000000000000000000000000000000000000000000000000000000815260040161195790613997565b60405180910390fd5b81600460006101000a81548173ffffffffffffffffffffffffffffffffffffffff021916908373ffffffffffffffffffffffffffffffffffffffff16021790555060019050919050565b600080600d600060015481526020019081526020016000206003015411156119d557600090506119ee565b600060015414156119e957600090506119ee565b600190505b90565b60008060106000611a0185611b7a565b81526020019081526020016000205490506000811115611a5757611a4f8184604051602001611a319291906139d8565b6040516020818303038152906040528051906020012060001c612606565b915050611a5d565b60009150505b919050565b60003373ffffffffffffffffffffffffffffffffffffffff16600460009054906101000a900473ffffffffffffffffffffffffffffffffffffffff1673ffffffffffffffffffffffffffffffffffffffff161480611b0d57503373ffffffffffffffffffffffffffffffffffffffff16600360009054906101000a900473ffffffffffffffffffffffffffffffffffffffff1673ffffffffffffffffffffffffffffffffffffffff16145b611b4c576040517f08c379a0000000000000000000000000000000000000000000000000000000008152600401611b43906132f2565b60405180910390fd5b600860009054906101000a900460ff1615611b7257611b6b60006121a0565b9050611b77565b600090505b90565b6000600f6000611b8984611b9f565b8152602001908152602001600020549050919050565b60008082118015611bb257506007548211155b611bf1576040517f08c379a0000000000000000000000000000000000000000000000000000000008152600401611be890613a76565b60405180910390fd5b600060058054905011611c39576040517f08c379a0000000000000000000000000000000000000000000000000000000008152600401611c3090613ae2565b60405180910390fd5b60006001600580549050611c4d9190613556565b90505b60008110611cfd57600080821415611c6b5760019050611ca5565b60016005600184611c7c9190613556565b81548110611c8d57611c8c613410565b5b9060005260206000200154611ca29190613500565b90505b600060058381548110611cbb57611cba613410565b5b90600052602060002001549050808511158015611cd85750818510155b15611ce857829350505050611d39565b50508080611cf590613b02565b915050611c50565b506040517f08c379a0000000000000000000000000000000000000000000000000000000008152600401611d3090613b78565b60405180910390fd5b919050565b6012602052816000526040600020602052806000526040600020600091509150505481565b6060611d7133600154611e76565b905090565b6000600460009054906101000a900473ffffffffffffffffffffffffffffffffffffffff16905090565b600d6020528060005260406000206000915090508060000154908060010154908060020154908060030154908060040154905085565b60608060008060006040518060400160405280600f81526020017f4c75636b7942616c6c5f52656c61790000000000000000000000000000000000815250905060006040518060400160405280600181526020017f31000000000000000000000000000000000000000000000000000000000000008152509050600046905060003090508383838397509750975097505050505090919293565b60095481565b60606000600e60008573ffffffffffffffffffffffffffffffffffffffff1673ffffffffffffffffffffffffffffffffffffffff1681526020019081526020016000206000848152602001908152602001600020805480602002602001604051908101604052809291908181526020018280548015611f1457602002820191906000526020600020905b815481526020019060010190808311611f00575b505050505090506000601260008673ffffffffffffffffffffffffffffffffffffffff1673ffffffffffffffffffffffffffffffffffffffff16815260200190815260200160002060008581526020019081526020016000205467ffffffffffffffff811115611f8757611f866129cd565b5b604051908082528060200260200182016040528015611fb55781602001602082028036833780820191505090505b5090506000805b83518110156120e75760006005858381518110611fdc57611fdb613410565b5b602002602001015181548110611ff557611ff4613410565b5b9060005260206000200154905060008086848151811061201857612017613410565b5b6020026020010151141561202f5760019050612083565b60016005600188868151811061204857612047613410565b5b602002602001015161205a9190613556565b8154811061206b5761206a613410565b5b90600052602060002001546120809190613500565b90505b60008190505b8281116120d157808686815181106120a4576120a3613410565b5b60200260200101818152505084806120bb906135c1565b95505080806120c9906135c1565b915050612089565b50505080806120df906135c1565b915050611fbc565b5081935050505092915050565b60008160008151811061210a57612109613410565b5b6020026020010151426040516020016121249291906139d8565b6040516020818303038152906040528051906020012060001c905080600a600085815260200190815260200160002060010181905550600a600084815260200190815260200160002060000160019054906101000a900460ff16156121915761218c81612640565b61219b565b61219a8161271c565b5b505050565b6000807f000000000000000000000000000000000000000000000000000000000000000073ffffffffffffffffffffffffffffffffffffffff16635d3b1d307f00000000000000000000000000000000000000000000000000000000000000007f0000000000000000000000000000000000000000000000000000000000000000600362061a8060016040518663ffffffff1660e01b8152600401612249959493929190613bf7565b6020604051808303816000875af1158015612268573d6000803e3d6000fd5b505050506040513d601f19601f8201168201806040525081019061228c9190613c5f565b905080600981905550604051806060016040528060011515815260200184151581526020016000815250600a600083815260200190815260200160002060008201518160000160006101000a81548160ff02191690831515021790555060208201518160000160016101000a81548160ff0219169083151502179055506040820151816001015590505080915050919050565b600080600e60008473ffffffffffffffffffffffffffffffffffffffff1673ffffffffffffffffffffffffffffffffffffffff168152602001908152602001600020600060015481526020019081526020016000208054806020026020016040519081016040528092919081815260200182805480156123be57602002820191906000526020600020905b8154815260200190600101908083116123aa575b50505050509050600060025490506000601160008673ffffffffffffffffffffffffffffffffffffffff1673ffffffffffffffffffffffffffffffffffffffff1681526020019081526020016000205490506000835111612454576040517f08c379a000000000000000000000000000000000000000000000000000000000815260040161244b90613cd8565b60405180910390fd5b8083511015612498576040517f08c379a000000000000000000000000000000000000000000000000000000000815260040161248f90613d6a565b60405180910390fd5b60008190505b83518110156124ec5782600f60008684815181106124bf576124be613410565b5b602002602001015181526020019081526020016000208190555080806124e4906135c1565b91505061249e565b508251601160008773ffffffffffffffffffffffffffffffffffffffff1673ffffffffffffffffffffffffffffffffffffffff16815260200190815260200160002081905550600860009054906101000a900460ff16612562576001600860006101000a81548160ff0219169083151502179055505b8473ffffffffffffffffffffffffffffffffffffffff167fa202ebfe1c0b55b9f79fe93552e9c6e90996eef6d399adc87d083ade6c0a92786001546040516125aa919061282f565b60405180910390a260009350505050919050565b60006126016001436125d09190613556565b40426040516020016125e3929190613d8a565b6040516020818303038152906040528051906020012060001c612606565b905090565b600080620f4240836126189190613de5565b9050620186a081101561263757620186a0816126349190613500565b90505b80915050919050565b6000600d60006001548152602001908152602001600020905060006001826001015483600201546126719190613556565b61267b9190613500565b905080836126899190613de5565b82600101546126989190613500565b82600301819055506001547f77fe960e6800d82f6d4de0fe98ffd2265aacb1c49020951062bba292f804def883600301546040516126d6919061282f565b60405180910390a27f71b1ed1af5dc112f73a5ec9d0960e84a848b781220620ccc8fb91814ab3047be60015460405161270f919061282f565b60405180910390a1505050565b80601060006002548152602001908152602001600020819055507fdbf0db347834a4a20f04be58d476eefc7e831a5328fac4b75fae72ada102824360015460025460405161276b929190613e16565b60405180910390a16000600860006101000a81548160ff021916908315150217905550600260008154809291906127a1906135c1565b919050555050565b6000604051905090565b600080fd5b600080fd5b6000819050919050565b6127d0816127bd565b81146127db57600080fd5b50565b6000813590506127ed816127c7565b92915050565b600060208284031215612809576128086127b3565b5b6000612817848285016127de565b91505092915050565b612829816127bd565b82525050565b60006020820190506128446000830184612820565b92915050565b60008115159050919050565b61285f8161284a565b82525050565b600060208201905061287a6000830184612856565b92915050565b600080fd5b600080fd5b600080fd5b60008083601f8401126128a5576128a4612880565b5b8235905067ffffffffffffffff8111156128c2576128c1612885565b5b6020830191508360208202830111156128de576128dd61288a565b5b9250929050565b60008083601f8401126128fb576128fa612880565b5b8235905067ffffffffffffffff81111561291857612917612885565b5b6020830191508360208202830111156129345761293361288a565b5b9250929050565b60008060008060408587031215612955576129546127b3565b5b600085013567ffffffffffffffff811115612973576129726127b8565b5b61297f8782880161288f565b9450945050602085013567ffffffffffffffff8111156129a2576129a16127b8565b5b6129ae878288016128e5565b925092505092959194509250565b6000601f19601f8301169050919050565b7f4e487b7100000000000000000000000000000000000000000000000000000000600052604160045260246000fd5b612a05826129bc565b810181811067ffffffffffffffff82111715612a2457612a236129cd565b5b80604052505050565b6000612a376127a9565b9050612a4382826129fc565b919050565b600067ffffffffffffffff821115612a6357612a626129cd565b5b602082029050602081019050919050565b6000612a87612a8284612a48565b612a2d565b90508083825260208201905060208402830185811115612aaa57612aa961288a565b5b835b81811015612ad35780612abf88826127de565b845260208401935050602081019050612aac565b5050509392505050565b600082601f830112612af257612af1612880565b5b8135612b02848260208601612a74565b91505092915050565b60008060408385031215612b2257612b216127b3565b5b6000612b30858286016127de565b925050602083013567ffffffffffffffff811115612b5157612b506127b8565b5b612b5d85828601612add565b9150509250929050565b600073ffffffffffffffffffffffffffffffffffffffff82169050919050565b6000612b9282612b67565b9050919050565b612ba281612b87565b8114612bad57600080fd5b50565b600081359050612bbf81612b99565b92915050565b600060208284031215612bdb57612bda6127b3565b5b6000612be984828501612bb0565b91505092915050565b6000819050919050565b612c0581612bf2565b82525050565b6000602082019050612c206000830184612bfc565b92915050565b612c2f81612b87565b82525050565b6000602082019050612c4a6000830184612c26565b92915050565b600060ff82169050919050565b612c6681612c50565b8114612c7157600080fd5b50565b600081359050612c8381612c5d565b92915050565b612c9281612bf2565b8114612c9d57600080fd5b50565b600081359050612caf81612c89565b92915050565b600080600080600060a08688031215612cd157612cd06127b3565b5b6000612cdf88828901612bb0565b9550506020612cf0888289016127de565b9450506040612d0188828901612c74565b9350506060612d1288828901612ca0565b9250506080612d2388828901612ca0565b9150509295509295909350565b60008060008060008060c08789031215612d4d57612d4c6127b3565b5b6000612d5b89828a01612bb0565b9650506020612d6c89828a016127de565b9550506040612d7d89828a016127de565b9450506060612d8e89828a01612c74565b9350506080612d9f89828a01612ca0565b92505060a0612db089828a01612ca0565b9150509295509295509295565b60008060408385031215612dd457612dd36127b3565b5b6000612de285828601612bb0565b9250506020612df3858286016127de565b9150509250929050565b600081519050919050565b600082825260208201905092915050565b6000819050602082019050919050565b612e32816127bd565b82525050565b6000612e448383612e29565b60208301905092915050565b6000602082019050919050565b6000612e6882612dfd565b612e728185612e08565b9350612e7d83612e19565b8060005b83811015612eae578151612e958882612e38565b9750612ea083612e50565b925050600181019050612e81565b5085935050505092915050565b60006020820190508181036000830152612ed58184612e5d565b905092915050565b600080600060608486031215612ef657612ef56127b3565b5b6000612f0486828701612bb0565b9350506020612f15868287016127de565b9250506040612f26868287016127de565b9150509250925092565b6000606082019050612f456000830186612856565b612f526020830185612856565b612f5f6040830184612820565b949350505050565b60008083601f840112612f7d57612f7c612880565b5b8235905067ffffffffffffffff811115612f9a57612f99612885565b5b602083019150836020820283011115612fb657612fb561288a565b5b9250929050565b60008083601f840112612fd357612fd2612880565b5b8235905067ffffffffffffffff811115612ff057612fef612885565b5b60208301915083602082028301111561300c5761300b61288a565b5b9250929050565b60008060008060008060008060008060a08b8d031215613036576130356127b3565b5b60008b013567ffffffffffffffff811115613054576130536127b8565b5b6130608d828e0161288f565b9a509a505060208b013567ffffffffffffffff811115613083576130826127b8565b5b61308f8d828e016128e5565b985098505060408b013567ffffffffffffffff8111156130b2576130b16127b8565b5b6130be8d828e01612f67565b965096505060608b013567ffffffffffffffff8111156130e1576130e06127b8565b5b6130ed8d828e01612fbd565b945094505060808b013567ffffffffffffffff8111156131105761310f6127b8565b5b61311c8d828e01612fbd565b92509250509295989b9194979a5092959850565b600081519050919050565b600082825260208201905092915050565b60005b8381101561316a57808201518184015260208101905061314f565b83811115613179576000848401525b50505050565b600061318a82613130565b613194818561313b565b93506131a481856020860161314c565b6131ad816129bc565b840191505092915050565b600060208201905081810360008301526131d2818461317f565b905092915050565b600060a0820190506131ef6000830188612820565b6131fc6020830187612820565b6132096040830186612820565b6132166060830185612820565b6132236080830184612820565b9695505050505050565b60006080820190508181036000830152613247818761317f565b9050818103602083015261325b818661317f565b905061326a6040830185612820565b6132776060830184612c26565b95945050505050565b7f4c75636b7942616c6c3a2063616c6c6572206973206e6f7420746865206f706560008201527f7261746f72206164647265737321000000000000000000000000000000000000602082015250565b60006132dc602e8361313b565b91506132e782613280565b604082019050919050565b6000602082019050818103600083015261330b816132cf565b9050919050565b7f4c75636b42616c6c3a206164647265737320616e642071747920636f756e747360008201527f20646f206e6f74206d6174636800000000000000000000000000000000000000602082015250565b600061336e602d8361313b565b915061337982613312565b604082019050919050565b6000602082019050818103600083015261339d81613361565b9050919050565b7f4c75636b7942616c6c3a20536561736f6e206973206e6f742061637469766500600082015250565b60006133da601f8361313b565b91506133e5826133a4565b602082019050919050565b60006020820190508181036000830152613409816133cd565b9050919050565b7f4e487b7100000000000000000000000000000000000000000000000000000000600052603260045260246000fd5b7f4c75636b7942616c6c3a207174792073686f756c64206265206269676765722060008201527f7468616e20300000000000000000000000000000000000000000000000000000602082015250565b600061349b60268361313b565b91506134a68261343f565b604082019050919050565b600060208201905081810360008301526134ca8161348e565b9050919050565b7f4e487b7100000000000000000000000000000000000000000000000000000000600052601160045260246000fd5b600061350b826127bd565b9150613516836127bd565b9250827fffffffffffffffffffffffffffffffffffffffffffffffffffffffffffffffff0382111561354b5761354a6134d1565b5b828201905092915050565b6000613561826127bd565b915061356c836127bd565b92508282101561357f5761357e6134d1565b5b828203905092915050565b600060608201905061359f6000830186612820565b6135ac6020830185612820565b6135b96040830184612820565b949350505050565b60006135cc826127bd565b91507fffffffffffffffffffffffffffffffffffffffffffffffffffffffffffffffff8214156135ff576135fe6134d1565b5b600182019050919050565b600060408201905061361f6000830185612c26565b61362c6020830184612c26565b9392505050565b7f4c75636b7942616c6c3a206578706972656420646561646c696e650000000000600082015250565b6000613669601b8361313b565b915061367482613633565b602082019050919050565b600060208201905081810360008301526136988161365c565b9050919050565b7f4c75636b7942616c6c3a20757365722073696720646f6573206e6f74206d617460008201527f6368000000000000000000000000000000000000000000000000000000000000602082015250565b60006136fb60228361313b565b91506137068261369f565b604082019050919050565b6000602082019050818103600083015261372a816136ee565b9050919050565b600061373c82612c50565b915061374783612c50565b92508260ff0382111561375d5761375c6134d1565b5b828201905092915050565b61377181612c50565b82525050565b600060808201905061378c6000830187612bfc565b6137996020830186613768565b6137a66040830185612bfc565b6137b36060830184612bfc565b95945050505050565b6000602082840312156137d2576137d16127b3565b5b60006137e084828501612c74565b91505092915050565b600081905092915050565b60006137ff82613130565b61380981856137e9565b935061381981856020860161314c565b80840191505092915050565b600061383182846137f4565b915081905092915050565b60006080820190506138516000830187612bfc565b61385e6020830186612c26565b61386b6040830185612820565b6138786060830184612820565b95945050505050565b7f1901000000000000000000000000000000000000000000000000000000000000600082015250565b60006138b76002836137e9565b91506138c282613881565b600282019050919050565b6000819050919050565b6138e86138e382612bf2565b6138cd565b82525050565b60006138f9826138aa565b915061390582856138d7565b60208201915061391582846138d7565b6020820191508190509392505050565b7f4c75636b7942616c6c3a2063616c6c6572206973206e6f7420746865206f776e60008201527f6572206164647265737321000000000000000000000000000000000000000000602082015250565b6000613981602b8361313b565b915061398c82613925565b604082019050919050565b600060208201905081810360008301526139b081613974565b9050919050565b6000819050919050565b6139d26139cd826127bd565b6139b7565b82525050565b60006139e482856139c1565b6020820191506139f482846139c1565b6020820191508190509392505050565b7f4c75636b7942616c6c3a2062616c6c4964206973206f7574206f662072616e6760008201527f6500000000000000000000000000000000000000000000000000000000000000602082015250565b6000613a6060218361313b565b9150613a6b82613a04565b604082019050919050565b60006020820190508181036000830152613a8f81613a53565b9050919050565b7f4c75636b42616c6c3a204e6f2062616c6c206973737565640000000000000000600082015250565b6000613acc60188361313b565b9150613ad782613a96565b602082019050919050565b60006020820190508181036000830152613afb81613abf565b9050919050565b6000613b0d826127bd565b91506000821415613b2157613b206134d1565b5b600182039050919050565b7f42616c6c4964206973206e6f7420666f756e6400000000000000000000000000600082015250565b6000613b6260138361313b565b9150613b6d82613b2c565b602082019050919050565b60006020820190508181036000830152613b9181613b55565b9050919050565b600067ffffffffffffffff82169050919050565b613bb581613b98565b82525050565b600061ffff82169050919050565b613bd281613bbb565b82525050565b600063ffffffff82169050919050565b613bf181613bd8565b82525050565b600060a082019050613c0c6000830188612bfc565b613c196020830187613bac565b613c266040830186613bc9565b613c336060830185613be8565b613c406080830184613be8565b9695505050505050565b600081519050613c59816127c7565b92915050565b600060208284031215613c7557613c746127b3565b5b6000613c8384828501613c4a565b91505092915050565b7f4c75636b7942616c6c3a204e6f2062616c6c7320746f2072657665616c000000600082015250565b6000613cc2601d8361313b565b9150613ccd82613c8c565b602082019050919050565b60006020820190508181036000830152613cf181613cb5565b9050919050565b7f4c75636b7942616c6c3a204e6f206e65772062616c6c7320746f20726576656160008201527f6c00000000000000000000000000000000000000000000000000000000000000602082015250565b6000613d5460218361313b565b9150613d5f82613cf8565b604082019050919050565b60006020820190508181036000830152613d8381613d47565b9050919050565b6000613d9682856138d7565b602082019150613da682846139c1565b6020820191508190509392505050565b7f4e487b7100000000000000000000000000000000000000000000000000000000600052601260045260246000fd5b6000613df0826127bd565b9150613dfb836127bd565b925082613e0b57613e0a613db6565b5b828206905092915050565b6000604082019050613e2b6000830185612820565b613e386020830184612820565b939250505056fe52656c61792861646472657373206f776e65722c75696e7432353620646561646c696e652c75696e74323536206e6f6e636529a264697066735822122006ffdb7b3a8f9dab9f431e5f7e0049050ca1891e916627901810ae9714193b5664736f6c634300080a0033454950373132446f6d61696e28737472696e67206e616d652c737472696e672076657273696f6e2c75696e7432353620636861696e49642c6164647265737320766572696679696e67436f6e747261637429",
					"opcodes": "PUSH2 0x100 PUSH1 0x40 MSTORE CALLVALUE DUP1 ISZERO PUSH3 0x12 JUMPI PUSH1 0x0 DUP1 REVERT JUMPDEST POP PUSH1 0x40 MLOAD PUSH3 0x453B CODESIZE SUB DUP1 PUSH3 0x453B DUP4 CODECOPY DUP2 DUP2 ADD PUSH1 0x40 MSTORE DUP2 ADD SWAP1 PUSH3 0x38 SWAP2 SWAP1 PUSH3 0x3F1 JUMP JUMPDEST DUP2 DUP1 PUSH20 0xFFFFFFFFFFFFFFFFFFFFFFFFFFFFFFFFFFFFFFFF AND PUSH1 0x80 DUP2 PUSH20 0xFFFFFFFFFFFFFFFFFFFFFFFFFFFFFFFFFFFFFFFF AND DUP2 MSTORE POP POP POP DUP2 PUSH20 0xFFFFFFFFFFFFFFFFFFFFFFFFFFFFFFFFFFFFFFFF AND PUSH1 0xA0 DUP2 PUSH20 0xFFFFFFFFFFFFFFFFFFFFFFFFFFFFFFFFFFFFFFFF AND DUP2 MSTORE POP POP DUP1 PUSH1 0xE0 DUP2 DUP2 MSTORE POP POP DUP3 PUSH8 0xFFFFFFFFFFFFFFFF AND PUSH1 0xC0 DUP2 PUSH8 0xFFFFFFFFFFFFFFFF AND DUP2 MSTORE POP POP PUSH1 0x2 PUSH1 0x0 DUP2 SLOAD DUP1 SWAP3 SWAP2 SWAP1 PUSH3 0xDB SWAP1 PUSH3 0x486 JUMP JUMPDEST SWAP2 SWAP1 POP SSTORE POP CALLER PUSH1 0x3 PUSH1 0x0 PUSH2 0x100 EXP DUP2 SLOAD DUP2 PUSH20 0xFFFFFFFFFFFFFFFFFFFFFFFFFFFFFFFFFFFFFFFF MUL NOT AND SWAP1 DUP4 PUSH20 0xFFFFFFFFFFFFFFFFFFFFFFFFFFFFFFFFFFFFFFFF AND MUL OR SWAP1 SSTORE POP CALLER PUSH1 0x4 PUSH1 0x0 PUSH2 0x100 EXP DUP2 SLOAD DUP2 PUSH20 0xFFFFFFFFFFFFFFFFFFFFFFFFFFFFFFFFFFFFFFFF MUL NOT AND SWAP1 DUP4 PUSH20 0xFFFFFFFFFFFFFFFFFFFFFFFFFFFFFFFFFFFFFFFF AND MUL OR SWAP1 SSTORE POP PUSH3 0x172 PUSH3 0x17B PUSH1 0x20 SHL PUSH1 0x20 SHR JUMP JUMPDEST POP POP POP PUSH3 0x600 JUMP JUMPDEST PUSH1 0x0 PUSH1 0x40 MLOAD DUP1 PUSH1 0x80 ADD PUSH1 0x40 MSTORE DUP1 PUSH1 0x52 DUP2 MSTORE PUSH1 0x20 ADD PUSH3 0x44E9 PUSH1 0x52 SWAP2 CODECOPY SWAP1 POP PUSH1 0x0 DUP1 PUSH1 0x0 DUP1 PUSH3 0x1AF PUSH3 0x26D PUSH1 0x20 SHL PUSH1 0x20 SHR JUMP JUMPDEST SWAP4 POP SWAP4 POP SWAP4 POP SWAP4 POP DUP5 PUSH1 0x40 MLOAD PUSH1 0x20 ADD PUSH3 0x1CA SWAP2 SWAP1 PUSH3 0x557 JUMP JUMPDEST PUSH1 0x40 MLOAD PUSH1 0x20 DUP2 DUP4 SUB SUB DUP2 MSTORE SWAP1 PUSH1 0x40 MSTORE DUP1 MLOAD SWAP1 PUSH1 0x20 ADD KECCAK256 DUP5 PUSH1 0x40 MLOAD PUSH1 0x20 ADD PUSH3 0x1F3 SWAP2 SWAP1 PUSH3 0x557 JUMP JUMPDEST PUSH1 0x40 MLOAD PUSH1 0x20 DUP2 DUP4 SUB SUB DUP2 MSTORE SWAP1 PUSH1 0x40 MSTORE DUP1 MLOAD SWAP1 PUSH1 0x20 ADD KECCAK256 DUP5 PUSH1 0x40 MLOAD PUSH1 0x20 ADD PUSH3 0x21C SWAP2 SWAP1 PUSH3 0x557 JUMP JUMPDEST PUSH1 0x40 MLOAD PUSH1 0x20 DUP2 DUP4 SUB SUB DUP2 MSTORE SWAP1 PUSH1 0x40 MSTORE DUP1 MLOAD SWAP1 PUSH1 0x20 ADD KECCAK256 DUP5 DUP5 PUSH1 0x40 MLOAD PUSH1 0x20 ADD PUSH3 0x24A SWAP6 SWAP5 SWAP4 SWAP3 SWAP2 SWAP1 PUSH3 0x5A3 JUMP JUMPDEST PUSH1 0x40 MLOAD PUSH1 0x20 DUP2 DUP4 SUB SUB DUP2 MSTORE SWAP1 PUSH1 0x40 MSTORE DUP1 MLOAD SWAP1 PUSH1 0x20 ADD KECCAK256 PUSH1 0xB DUP2 SWAP1 SSTORE POP POP POP POP POP POP JUMP JUMPDEST PUSH1 0x60 DUP1 PUSH1 0x0 DUP1 PUSH1 0x0 PUSH1 0x40 MLOAD DUP1 PUSH1 0x40 ADD PUSH1 0x40 MSTORE DUP1 PUSH1 0xF DUP2 MSTORE PUSH1 0x20 ADD PUSH32 0x4C75636B7942616C6C5F52656C61790000000000000000000000000000000000 DUP2 MSTORE POP SWAP1 POP PUSH1 0x0 PUSH1 0x40 MLOAD DUP1 PUSH1 0x40 ADD PUSH1 0x40 MSTORE DUP1 PUSH1 0x1 DUP2 MSTORE PUSH1 0x20 ADD PUSH32 0x3100000000000000000000000000000000000000000000000000000000000000 DUP2 MSTORE POP SWAP1 POP PUSH1 0x0 CHAINID SWAP1 POP PUSH1 0x0 ADDRESS SWAP1 POP DUP4 DUP4 DUP4 DUP4 SWAP8 POP SWAP8 POP SWAP8 POP SWAP8 POP POP POP POP POP SWAP1 SWAP2 SWAP3 SWAP4 JUMP JUMPDEST PUSH1 0x0 DUP1 REVERT JUMPDEST PUSH1 0x0 PUSH8 0xFFFFFFFFFFFFFFFF DUP3 AND SWAP1 POP SWAP2 SWAP1 POP JUMP JUMPDEST PUSH3 0x32B DUP2 PUSH3 0x30C JUMP JUMPDEST DUP2 EQ PUSH3 0x337 JUMPI PUSH1 0x0 DUP1 REVERT JUMPDEST POP JUMP JUMPDEST PUSH1 0x0 DUP2 MLOAD SWAP1 POP PUSH3 0x34B DUP2 PUSH3 0x320 JUMP JUMPDEST SWAP3 SWAP2 POP POP JUMP JUMPDEST PUSH1 0x0 PUSH20 0xFFFFFFFFFFFFFFFFFFFFFFFFFFFFFFFFFFFFFFFF DUP3 AND SWAP1 POP SWAP2 SWAP1 POP JUMP JUMPDEST PUSH1 0x0 PUSH3 0x37E DUP3 PUSH3 0x351 JUMP JUMPDEST SWAP1 POP SWAP2 SWAP1 POP JUMP JUMPDEST PUSH3 0x390 DUP2 PUSH3 0x371 JUMP JUMPDEST DUP2 EQ PUSH3 0x39C JUMPI PUSH1 0x0 DUP1 REVERT JUMPDEST POP JUMP JUMPDEST PUSH1 0x0 DUP2 MLOAD SWAP1 POP PUSH3 0x3B0 DUP2 PUSH3 0x385 JUMP JUMPDEST SWAP3 SWAP2 POP POP JUMP JUMPDEST PUSH1 0x0 DUP2 SWAP1 POP SWAP2 SWAP1 POP JUMP JUMPDEST PUSH3 0x3CB DUP2 PUSH3 0x3B6 JUMP JUMPDEST DUP2 EQ PUSH3 0x3D7 JUMPI PUSH1 0x0 DUP1 REVERT JUMPDEST POP JUMP JUMPDEST PUSH1 0x0 DUP2 MLOAD SWAP1 POP PUSH3 0x3EB DUP2 PUSH3 0x3C0 JUMP JUMPDEST SWAP3 SWAP2 POP POP JUMP JUMPDEST PUSH1 0x0 DUP1 PUSH1 0x0 PUSH1 0x60 DUP5 DUP7 SUB SLT ISZERO PUSH3 0x40D JUMPI PUSH3 0x40C PUSH3 0x307 JUMP JUMPDEST JUMPDEST PUSH1 0x0 PUSH3 0x41D DUP7 DUP3 DUP8 ADD PUSH3 0x33A JUMP JUMPDEST SWAP4 POP POP PUSH1 0x20 PUSH3 0x430 DUP7 DUP3 DUP8 ADD PUSH3 0x39F JUMP JUMPDEST SWAP3 POP POP PUSH1 0x40 PUSH3 0x443 DUP7 DUP3 DUP8 ADD PUSH3 0x3DA JUMP JUMPDEST SWAP2 POP POP SWAP3 POP SWAP3 POP SWAP3 JUMP JUMPDEST PUSH32 0x4E487B7100000000000000000000000000000000000000000000000000000000 PUSH1 0x0 MSTORE PUSH1 0x11 PUSH1 0x4 MSTORE PUSH1 0x24 PUSH1 0x0 REVERT JUMPDEST PUSH1 0x0 DUP2 SWAP1 POP SWAP2 SWAP1 POP JUMP JUMPDEST PUSH1 0x0 PUSH3 0x493 DUP3 PUSH3 0x47C JUMP JUMPDEST SWAP2 POP PUSH32 0xFFFFFFFFFFFFFFFFFFFFFFFFFFFFFFFFFFFFFFFFFFFFFFFFFFFFFFFFFFFFFFFF DUP3 EQ ISZERO PUSH3 0x4C9 JUMPI PUSH3 0x4C8 PUSH3 0x44D JUMP JUMPDEST JUMPDEST PUSH1 0x1 DUP3 ADD SWAP1 POP SWAP2 SWAP1 POP JUMP JUMPDEST PUSH1 0x0 DUP2 MLOAD SWAP1 POP SWAP2 SWAP1 POP JUMP JUMPDEST PUSH1 0x0 DUP2 SWAP1 POP SWAP3 SWAP2 POP POP JUMP JUMPDEST PUSH1 0x0 JUMPDEST DUP4 DUP2 LT ISZERO PUSH3 0x50A JUMPI DUP1 DUP3 ADD MLOAD DUP2 DUP5 ADD MSTORE PUSH1 0x20 DUP2 ADD SWAP1 POP PUSH3 0x4ED JUMP JUMPDEST DUP4 DUP2 GT ISZERO PUSH3 0x51A JUMPI PUSH1 0x0 DUP5 DUP5 ADD MSTORE JUMPDEST POP POP POP POP JUMP JUMPDEST PUSH1 0x0 PUSH3 0x52D DUP3 PUSH3 0x4D4 JUMP JUMPDEST PUSH3 0x539 DUP2 DUP6 PUSH3 0x4DF JUMP JUMPDEST SWAP4 POP PUSH3 0x54B DUP2 DUP6 PUSH1 0x20 DUP7 ADD PUSH3 0x4EA JUMP JUMPDEST DUP1 DUP5 ADD SWAP2 POP POP SWAP3 SWAP2 POP POP JUMP JUMPDEST PUSH1 0x0 PUSH3 0x565 DUP3 DUP5 PUSH3 0x520 JUMP JUMPDEST SWAP2 POP DUP2 SWAP1 POP SWAP3 SWAP2 POP POP JUMP JUMPDEST PUSH3 0x57B DUP2 PUSH3 0x3B6 JUMP JUMPDEST DUP3 MSTORE POP POP JUMP JUMPDEST PUSH3 0x58C DUP2 PUSH3 0x47C JUMP JUMPDEST DUP3 MSTORE POP POP JUMP JUMPDEST PUSH3 0x59D DUP2 PUSH3 0x371 JUMP JUMPDEST DUP3 MSTORE POP POP JUMP JUMPDEST PUSH1 0x0 PUSH1 0xA0 DUP3 ADD SWAP1 POP PUSH3 0x5BA PUSH1 0x0 DUP4 ADD DUP9 PUSH3 0x570 JUMP JUMPDEST PUSH3 0x5C9 PUSH1 0x20 DUP4 ADD DUP8 PUSH3 0x570 JUMP JUMPDEST PUSH3 0x5D8 PUSH1 0x40 DUP4 ADD DUP7 PUSH3 0x570 JUMP JUMPDEST PUSH3 0x5E7 PUSH1 0x60 DUP4 ADD DUP6 PUSH3 0x581 JUMP JUMPDEST PUSH3 0x5F6 PUSH1 0x80 DUP4 ADD DUP5 PUSH3 0x592 JUMP JUMPDEST SWAP7 SWAP6 POP POP POP POP POP POP JUMP JUMPDEST PUSH1 0x80 MLOAD PUSH1 0xA0 MLOAD PUSH1 0xC0 MLOAD PUSH1 0xE0 MLOAD PUSH2 0x3EA8 PUSH3 0x641 PUSH1 0x0 CODECOPY PUSH1 0x0 PUSH2 0x21E1 ADD MSTORE PUSH1 0x0 PUSH2 0x2202 ADD MSTORE PUSH1 0x0 PUSH2 0x21A5 ADD MSTORE PUSH1 0x0 DUP2 DUP2 PUSH2 0xD7B ADD MSTORE PUSH2 0xDCF ADD MSTORE PUSH2 0x3EA8 PUSH1 0x0 RETURN INVALID PUSH1 0x80 PUSH1 0x40 MSTORE CALLVALUE DUP1 ISZERO PUSH2 0x10 JUMPI PUSH1 0x0 DUP1 REVERT JUMPDEST POP PUSH1 0x4 CALLDATASIZE LT PUSH2 0x23D JUMPI PUSH1 0x0 CALLDATALOAD PUSH1 0xE0 SHR DUP1 PUSH4 0xA168FA89 GT PUSH2 0x13B JUMPI DUP1 PUSH4 0xD37431A6 GT PUSH2 0xB8 JUMPI DUP1 PUSH4 0xE7F43C68 GT PUSH2 0x7C JUMPI DUP1 PUSH4 0xE7F43C68 EQ PUSH2 0x7A6 JUMPI DUP1 PUSH4 0xF5D709A1 EQ PUSH2 0x7C4 JUMPI DUP1 PUSH4 0xF9523B21 EQ PUSH2 0x7F8 JUMPI DUP1 PUSH4 0xFC2A88C3 EQ PUSH2 0x819 JUMPI DUP1 PUSH4 0xFE675307 EQ PUSH2 0x837 JUMPI PUSH2 0x23D JUMP JUMPDEST DUP1 PUSH4 0xD37431A6 EQ PUSH2 0x6DA JUMPI DUP1 PUSH4 0xD3BA6F34 EQ PUSH2 0x6F8 JUMPI DUP1 PUSH4 0xD530F1B4 EQ PUSH2 0x728 JUMPI DUP1 PUSH4 0xDF6C8333 EQ PUSH2 0x758 JUMPI DUP1 PUSH4 0xDF6FBA1D EQ PUSH2 0x788 JUMPI PUSH2 0x23D JUMP JUMPDEST DUP1 PUSH4 0xB20AAAF5 GT PUSH2 0xFF JUMPI DUP1 PUSH4 0xB20AAAF5 EQ PUSH2 0x5FC JUMPI DUP1 PUSH4 0xB29E60EF EQ PUSH2 0x62C JUMPI DUP1 PUSH4 0xB3AB15FB EQ PUSH2 0x65C JUMPI DUP1 PUSH4 0xBA732064 EQ PUSH2 0x68C JUMPI DUP1 PUSH4 0xC6B98E04 EQ PUSH2 0x6AA JUMPI PUSH2 0x23D JUMP JUMPDEST DUP1 PUSH4 0xA168FA89 EQ PUSH2 0x52E JUMPI DUP1 PUSH4 0xA4049325 EQ PUSH2 0x560 JUMPI DUP1 PUSH4 0xA529D3B0 EQ PUSH2 0x590 JUMPI DUP1 PUSH4 0xAE95234C EQ PUSH2 0x5AE JUMPI DUP1 PUSH4 0xB07870B5 EQ PUSH2 0x5DE JUMPI PUSH2 0x23D JUMP JUMPDEST DUP1 PUSH4 0x5F4F79BB GT PUSH2 0x1C9 JUMPI DUP1 PUSH4 0x8504A01A GT PUSH2 0x18D JUMPI DUP1 PUSH4 0x8504A01A EQ PUSH2 0x486 JUMPI DUP1 PUSH4 0x8C73DA19 EQ PUSH2 0x4B6 JUMPI DUP1 PUSH4 0x952A9633 EQ PUSH2 0x4D4 JUMPI DUP1 PUSH4 0x9CEADDC9 EQ PUSH2 0x4F2 JUMPI DUP1 PUSH4 0x9D3DB7DB EQ PUSH2 0x510 JUMPI PUSH2 0x23D JUMP JUMPDEST DUP1 PUSH4 0x5F4F79BB EQ PUSH2 0x396 JUMPI DUP1 PUSH4 0x6352211E EQ PUSH2 0x3C6 JUMPI DUP1 PUSH4 0x6999F376 EQ PUSH2 0x3F6 JUMPI DUP1 PUSH4 0x7A0DA8D8 EQ PUSH2 0x426 JUMPI DUP1 PUSH4 0x7ECEBE00 EQ PUSH2 0x456 JUMPI PUSH2 0x23D JUMP JUMPDEST DUP1 PUSH4 0x1FE543E3 GT PUSH2 0x210 JUMPI DUP1 PUSH4 0x1FE543E3 EQ PUSH2 0x2DE JUMPI DUP1 PUSH4 0x2FFB84DD EQ PUSH2 0x2FA JUMPI DUP1 PUSH4 0x3644E515 EQ PUSH2 0x32A JUMPI DUP1 PUSH4 0x3822AEA4 EQ PUSH2 0x348 JUMPI DUP1 PUSH4 0x3DCDB672 EQ PUSH2 0x378 JUMPI PUSH2 0x23D JUMP JUMPDEST DUP1 PUSH4 0x4B1B2C2 EQ PUSH2 0x242 JUMPI DUP1 PUSH4 0x60ED27F EQ PUSH2 0x272 JUMPI DUP1 PUSH4 0x841BA30 EQ PUSH2 0x290 JUMPI DUP1 PUSH4 0x1022889C EQ PUSH2 0x2AE JUMPI JUMPDEST PUSH1 0x0 DUP1 REVERT JUMPDEST PUSH2 0x25C PUSH1 0x4 DUP1 CALLDATASIZE SUB DUP2 ADD SWAP1 PUSH2 0x257 SWAP2 SWAP1 PUSH2 0x27F3 JUMP JUMPDEST PUSH2 0x867 JUMP JUMPDEST PUSH1 0x40 MLOAD PUSH2 0x269 SWAP2 SWAP1 PUSH2 0x282F JUMP JUMPDEST PUSH1 0x40 MLOAD DUP1 SWAP2 SUB SWAP1 RETURN JUMPDEST PUSH2 0x27A PUSH2 0x87F JUMP JUMPDEST PUSH1 0x40 MLOAD PUSH2 0x287 SWAP2 SWAP1 PUSH2 0x2865 JUMP JUMPDEST PUSH1 0x40 MLOAD DUP1 SWAP2 SUB SWAP1 RETURN JUMPDEST PUSH2 0x298 PUSH2 0x892 JUMP JUMPDEST PUSH1 0x40 MLOAD PUSH2 0x2A5 SWAP2 SWAP1 PUSH2 0x282F JUMP JUMPDEST PUSH1 0x40 MLOAD DUP1 SWAP2 SUB SWAP1 RETURN JUMPDEST PUSH2 0x2C8 PUSH1 0x4 DUP1 CALLDATASIZE SUB DUP2 ADD SWAP1 PUSH2 0x2C3 SWAP2 SWAP1 PUSH2 0x293B JUMP JUMPDEST PUSH2 0x89F JUMP JUMPDEST PUSH1 0x40 MLOAD PUSH2 0x2D5 SWAP2 SWAP1 PUSH2 0x2865 JUMP JUMPDEST PUSH1 0x40 MLOAD DUP1 SWAP2 SUB SWAP1 RETURN JUMPDEST PUSH2 0x2F8 PUSH1 0x4 DUP1 CALLDATASIZE SUB DUP2 ADD SWAP1 PUSH2 0x2F3 SWAP2 SWAP1 PUSH2 0x2B0B JUMP JUMPDEST PUSH2 0xD79 JUMP JUMPDEST STOP JUMPDEST PUSH2 0x314 PUSH1 0x4 DUP1 CALLDATASIZE SUB DUP2 ADD SWAP1 PUSH2 0x30F SWAP2 SWAP1 PUSH2 0x2BC5 JUMP JUMPDEST PUSH2 0xE39 JUMP JUMPDEST PUSH1 0x40 MLOAD PUSH2 0x321 SWAP2 SWAP1 PUSH2 0x282F JUMP JUMPDEST PUSH1 0x40 MLOAD DUP1 SWAP2 SUB SWAP1 RETURN JUMPDEST PUSH2 0x332 PUSH2 0xE51 JUMP JUMPDEST PUSH1 0x40 MLOAD PUSH2 0x33F SWAP2 SWAP1 PUSH2 0x2C0B JUMP JUMPDEST PUSH1 0x40 MLOAD DUP1 SWAP2 SUB SWAP1 RETURN JUMPDEST PUSH2 0x362 PUSH1 0x4 DUP1 CALLDATASIZE SUB DUP2 ADD SWAP1 PUSH2 0x35D SWAP2 SWAP1 PUSH2 0x27F3 JUMP JUMPDEST PUSH2 0xE57 JUMP JUMPDEST PUSH1 0x40 MLOAD PUSH2 0x36F SWAP2 SWAP1 PUSH2 0x2C35 JUMP JUMPDEST PUSH1 0x40 MLOAD DUP1 SWAP2 SUB SWAP1 RETURN JUMPDEST PUSH2 0x380 PUSH2 0xE96 JUMP JUMPDEST PUSH1 0x40 MLOAD PUSH2 0x38D SWAP2 SWAP1 PUSH2 0x2865 JUMP JUMPDEST PUSH1 0x40 MLOAD DUP1 SWAP2 SUB SWAP1 RETURN JUMPDEST PUSH2 0x3B0 PUSH1 0x4 DUP1 CALLDATASIZE SUB DUP2 ADD SWAP1 PUSH2 0x3AB SWAP2 SWAP1 PUSH2 0x2CB5 JUMP JUMPDEST PUSH2 0x1045 JUMP JUMPDEST PUSH1 0x40 MLOAD PUSH2 0x3BD SWAP2 SWAP1 PUSH2 0x2865 JUMP JUMPDEST PUSH1 0x40 MLOAD DUP1 SWAP2 SUB SWAP1 RETURN JUMPDEST PUSH2 0x3E0 PUSH1 0x4 DUP1 CALLDATASIZE SUB DUP2 ADD SWAP1 PUSH2 0x3DB SWAP2 SWAP1 PUSH2 0x27F3 JUMP JUMPDEST PUSH2 0x11D2 JUMP JUMPDEST PUSH1 0x40 MLOAD PUSH2 0x3ED SWAP2 SWAP1 PUSH2 0x2C35 JUMP JUMPDEST PUSH1 0x40 MLOAD DUP1 SWAP2 SUB SWAP1 RETURN JUMPDEST PUSH2 0x410 PUSH1 0x4 DUP1 CALLDATASIZE SUB DUP2 ADD SWAP1 PUSH2 0x40B SWAP2 SWAP1 PUSH2 0x2D30 JUMP JUMPDEST PUSH2 0x127F JUMP JUMPDEST PUSH1 0x40 MLOAD PUSH2 0x41D SWAP2 SWAP1 PUSH2 0x2865 JUMP JUMPDEST PUSH1 0x40 MLOAD DUP1 SWAP2 SUB SWAP1 RETURN JUMPDEST PUSH2 0x440 PUSH1 0x4 DUP1 CALLDATASIZE SUB DUP2 ADD SWAP1 PUSH2 0x43B SWAP2 SWAP1 PUSH2 0x2DBD JUMP JUMPDEST PUSH2 0x1335 JUMP JUMPDEST PUSH1 0x40 MLOAD PUSH2 0x44D SWAP2 SWAP1 PUSH2 0x2EBB JUMP JUMPDEST PUSH1 0x40 MLOAD DUP1 SWAP2 SUB SWAP1 RETURN JUMPDEST PUSH2 0x470 PUSH1 0x4 DUP1 CALLDATASIZE SUB DUP2 ADD SWAP1 PUSH2 0x46B SWAP2 SWAP1 PUSH2 0x2BC5 JUMP JUMPDEST PUSH2 0x13E4 JUMP JUMPDEST PUSH1 0x40 MLOAD PUSH2 0x47D SWAP2 SWAP1 PUSH2 0x282F JUMP JUMPDEST PUSH1 0x40 MLOAD DUP1 SWAP2 SUB SWAP1 RETURN JUMPDEST PUSH2 0x4A0 PUSH1 0x4 DUP1 CALLDATASIZE SUB DUP2 ADD SWAP1 PUSH2 0x49B SWAP2 SWAP1 PUSH2 0x2EDD JUMP JUMPDEST PUSH2 0x142D JUMP JUMPDEST PUSH1 0x40 MLOAD PUSH2 0x4AD SWAP2 SWAP1 PUSH2 0x282F JUMP JUMPDEST PUSH1 0x40 MLOAD DUP1 SWAP2 SUB SWAP1 RETURN JUMPDEST PUSH2 0x4BE PUSH2 0x146B JUMP JUMPDEST PUSH1 0x40 MLOAD PUSH2 0x4CB SWAP2 SWAP1 PUSH2 0x282F JUMP JUMPDEST PUSH1 0x40 MLOAD DUP1 SWAP2 SUB SWAP1 RETURN JUMPDEST PUSH2 0x4DC PUSH2 0x1475 JUMP JUMPDEST PUSH1 0x40 MLOAD PUSH2 0x4E9 SWAP2 SWAP1 PUSH2 0x282F JUMP JUMPDEST PUSH1 0x40 MLOAD DUP1 SWAP2 SUB SWAP1 RETURN JUMPDEST PUSH2 0x4FA PUSH2 0x168E JUMP JUMPDEST PUSH1 0x40 MLOAD PUSH2 0x507 SWAP2 SWAP1 PUSH2 0x282F JUMP JUMPDEST PUSH1 0x40 MLOAD DUP1 SWAP2 SUB SWAP1 RETURN JUMPDEST PUSH2 0x518 PUSH2 0x1694 JUMP JUMPDEST PUSH1 0x40 MLOAD PUSH2 0x525 SWAP2 SWAP1 PUSH2 0x282F JUMP JUMPDEST PUSH1 0x40 MLOAD DUP1 SWAP2 SUB SWAP1 RETURN JUMPDEST PUSH2 0x548 PUSH1 0x4 DUP1 CALLDATASIZE SUB DUP2 ADD SWAP1 PUSH2 0x543 SWAP2 SWAP1 PUSH2 0x27F3 JUMP JUMPDEST PUSH2 0x169E JUMP JUMPDEST PUSH1 0x40 MLOAD PUSH2 0x557 SWAP4 SWAP3 SWAP2 SWAP1 PUSH2 0x2F30 JUMP JUMPDEST PUSH1 0x40 MLOAD DUP1 SWAP2 SUB SWAP1 RETURN JUMPDEST PUSH2 0x57A PUSH1 0x4 DUP1 CALLDATASIZE SUB DUP2 ADD SWAP1 PUSH2 0x575 SWAP2 SWAP1 PUSH2 0x3013 JUMP JUMPDEST PUSH2 0x16E2 JUMP JUMPDEST PUSH1 0x40 MLOAD PUSH2 0x587 SWAP2 SWAP1 PUSH2 0x2865 JUMP JUMPDEST PUSH1 0x40 MLOAD DUP1 SWAP2 SUB SWAP1 RETURN JUMPDEST PUSH2 0x598 PUSH2 0x17C2 JUMP JUMPDEST PUSH1 0x40 MLOAD PUSH2 0x5A5 SWAP2 SWAP1 PUSH2 0x31B8 JUMP JUMPDEST PUSH1 0x40 MLOAD DUP1 SWAP2 SUB SWAP1 RETURN JUMPDEST PUSH2 0x5C8 PUSH1 0x4 DUP1 CALLDATASIZE SUB DUP2 ADD SWAP1 PUSH2 0x5C3 SWAP2 SWAP1 PUSH2 0x2EDD JUMP JUMPDEST PUSH2 0x17E8 JUMP JUMPDEST PUSH1 0x40 MLOAD PUSH2 0x5D5 SWAP2 SWAP1 PUSH2 0x2C0B JUMP JUMPDEST PUSH1 0x40 MLOAD DUP1 SWAP2 SUB SWAP1 RETURN JUMPDEST PUSH2 0x5E6 PUSH2 0x1882 JUMP JUMPDEST PUSH1 0x40 MLOAD PUSH2 0x5F3 SWAP2 SWAP1 PUSH2 0x2865 JUMP JUMPDEST PUSH1 0x40 MLOAD DUP1 SWAP2 SUB SWAP1 RETURN JUMPDEST PUSH2 0x616 PUSH1 0x4 DUP1 CALLDATASIZE SUB DUP2 ADD SWAP1 PUSH2 0x611 SWAP2 SWAP1 PUSH2 0x27F3 JUMP JUMPDEST PUSH2 0x1892 JUMP JUMPDEST PUSH1 0x40 MLOAD PUSH2 0x623 SWAP2 SWAP1 PUSH2 0x282F JUMP JUMPDEST PUSH1 0x40 MLOAD DUP1 SWAP2 SUB SWAP1 RETURN JUMPDEST PUSH2 0x646 PUSH1 0x4 DUP1 CALLDATASIZE SUB DUP2 ADD SWAP1 PUSH2 0x641 SWAP2 SWAP1 PUSH2 0x27F3 JUMP JUMPDEST PUSH2 0x18B6 JUMP JUMPDEST PUSH1 0x40 MLOAD PUSH2 0x653 SWAP2 SWAP1 PUSH2 0x282F JUMP JUMPDEST PUSH1 0x40 MLOAD DUP1 SWAP2 SUB SWAP1 RETURN JUMPDEST PUSH2 0x676 PUSH1 0x4 DUP1 CALLDATASIZE SUB DUP2 ADD SWAP1 PUSH2 0x671 SWAP2 SWAP1 PUSH2 0x2BC5 JUMP JUMPDEST PUSH2 0x18CE JUMP JUMPDEST PUSH1 0x40 MLOAD PUSH2 0x683 SWAP2 SWAP1 PUSH2 0x2865 JUMP JUMPDEST PUSH1 0x40 MLOAD DUP1 SWAP2 SUB SWAP1 RETURN JUMPDEST PUSH2 0x694 PUSH2 0x19AA JUMP JUMPDEST PUSH1 0x40 MLOAD PUSH2 0x6A1 SWAP2 SWAP1 PUSH2 0x2865 JUMP JUMPDEST PUSH1 0x40 MLOAD DUP1 SWAP2 SUB SWAP1 RETURN JUMPDEST PUSH2 0x6C4 PUSH1 0x4 DUP1 CALLDATASIZE SUB DUP2 ADD SWAP1 PUSH2 0x6BF SWAP2 SWAP1 PUSH2 0x27F3 JUMP JUMPDEST PUSH2 0x19F1 JUMP JUMPDEST PUSH1 0x40 MLOAD PUSH2 0x6D1 SWAP2 SWAP1 PUSH2 0x282F JUMP JUMPDEST PUSH1 0x40 MLOAD DUP1 SWAP2 SUB SWAP1 RETURN JUMPDEST PUSH2 0x6E2 PUSH2 0x1A62 JUMP JUMPDEST PUSH1 0x40 MLOAD PUSH2 0x6EF SWAP2 SWAP1 PUSH2 0x282F JUMP JUMPDEST PUSH1 0x40 MLOAD DUP1 SWAP2 SUB SWAP1 RETURN JUMPDEST PUSH2 0x712 PUSH1 0x4 DUP1 CALLDATASIZE SUB DUP2 ADD SWAP1 PUSH2 0x70D SWAP2 SWAP1 PUSH2 0x27F3 JUMP JUMPDEST PUSH2 0x1B7A JUMP JUMPDEST PUSH1 0x40 MLOAD PUSH2 0x71F SWAP2 SWAP1 PUSH2 0x282F JUMP JUMPDEST PUSH1 0x40 MLOAD DUP1 SWAP2 SUB SWAP1 RETURN JUMPDEST PUSH2 0x742 PUSH1 0x4 DUP1 CALLDATASIZE SUB DUP2 ADD SWAP1 PUSH2 0x73D SWAP2 SWAP1 PUSH2 0x27F3 JUMP JUMPDEST PUSH2 0x1B9F JUMP JUMPDEST PUSH1 0x40 MLOAD PUSH2 0x74F SWAP2 SWAP1 PUSH2 0x282F JUMP JUMPDEST PUSH1 0x40 MLOAD DUP1 SWAP2 SUB SWAP1 RETURN JUMPDEST PUSH2 0x772 PUSH1 0x4 DUP1 CALLDATASIZE SUB DUP2 ADD SWAP1 PUSH2 0x76D SWAP2 SWAP1 PUSH2 0x2DBD JUMP JUMPDEST PUSH2 0x1D3E JUMP JUMPDEST PUSH1 0x40 MLOAD PUSH2 0x77F SWAP2 SWAP1 PUSH2 0x282F JUMP JUMPDEST PUSH1 0x40 MLOAD DUP1 SWAP2 SUB SWAP1 RETURN JUMPDEST PUSH2 0x790 PUSH2 0x1D63 JUMP JUMPDEST PUSH1 0x40 MLOAD PUSH2 0x79D SWAP2 SWAP1 PUSH2 0x2EBB JUMP JUMPDEST PUSH1 0x40 MLOAD DUP1 SWAP2 SUB SWAP1 RETURN JUMPDEST PUSH2 0x7AE PUSH2 0x1D76 JUMP JUMPDEST PUSH1 0x40 MLOAD PUSH2 0x7BB SWAP2 SWAP1 PUSH2 0x2C35 JUMP JUMPDEST PUSH1 0x40 MLOAD DUP1 SWAP2 SUB SWAP1 RETURN JUMPDEST PUSH2 0x7DE PUSH1 0x4 DUP1 CALLDATASIZE SUB DUP2 ADD SWAP1 PUSH2 0x7D9 SWAP2 SWAP1 PUSH2 0x27F3 JUMP JUMPDEST PUSH2 0x1DA0 JUMP JUMPDEST PUSH1 0x40 MLOAD PUSH2 0x7EF SWAP6 SWAP5 SWAP4 SWAP3 SWAP2 SWAP1 PUSH2 0x31DA JUMP JUMPDEST PUSH1 0x40 MLOAD DUP1 SWAP2 SUB SWAP1 RETURN JUMPDEST PUSH2 0x800 PUSH2 0x1DD6 JUMP JUMPDEST PUSH1 0x40 MLOAD PUSH2 0x810 SWAP5 SWAP4 SWAP3 SWAP2 SWAP1 PUSH2 0x322D JUMP JUMPDEST PUSH1 0x40 MLOAD DUP1 SWAP2 SUB SWAP1 RETURN JUMPDEST PUSH2 0x821 PUSH2 0x1E70 JUMP JUMPDEST PUSH1 0x40 MLOAD PUSH2 0x82E SWAP2 SWAP1 PUSH2 0x282F JUMP JUMPDEST PUSH1 0x40 MLOAD DUP1 SWAP2 SUB SWAP1 RETURN JUMPDEST PUSH2 0x851 PUSH1 0x4 DUP1 CALLDATASIZE SUB DUP2 ADD SWAP1 PUSH2 0x84C SWAP2 SWAP1 PUSH2 0x2DBD JUMP JUMPDEST PUSH2 0x1E76 JUMP JUMPDEST PUSH1 0x40 MLOAD PUSH2 0x85E SWAP2 SWAP1 PUSH2 0x2EBB JUMP JUMPDEST PUSH1 0x40 MLOAD DUP1 SWAP2 SUB SWAP1 RETURN JUMPDEST PUSH1 0xF PUSH1 0x20 MSTORE DUP1 PUSH1 0x0 MSTORE PUSH1 0x40 PUSH1 0x0 KECCAK256 PUSH1 0x0 SWAP2 POP SWAP1 POP SLOAD DUP2 JUMP JUMPDEST PUSH1 0x8 PUSH1 0x0 SWAP1 SLOAD SWAP1 PUSH2 0x100 EXP SWAP1 DIV PUSH1 0xFF AND DUP2 JUMP JUMPDEST PUSH1 0x0 PUSH1 0x5 DUP1 SLOAD SWAP1 POP SWAP1 POP SWAP1 JUMP JUMPDEST PUSH1 0x0 CALLER PUSH20 0xFFFFFFFFFFFFFFFFFFFFFFFFFFFFFFFFFFFFFFFF AND PUSH1 0x4 PUSH1 0x0 SWAP1 SLOAD SWAP1 PUSH2 0x100 EXP SWAP1 DIV PUSH20 0xFFFFFFFFFFFFFFFFFFFFFFFFFFFFFFFFFFFFFFFF AND PUSH20 0xFFFFFFFFFFFFFFFFFFFFFFFFFFFFFFFFFFFFFFFF AND EQ DUP1 PUSH2 0x94A JUMPI POP CALLER PUSH20 0xFFFFFFFFFFFFFFFFFFFFFFFFFFFFFFFFFFFFFFFF AND PUSH1 0x3 PUSH1 0x0 SWAP1 SLOAD SWAP1 PUSH2 0x100 EXP SWAP1 DIV PUSH20 0xFFFFFFFFFFFFFFFFFFFFFFFFFFFFFFFFFFFFFFFF AND PUSH20 0xFFFFFFFFFFFFFFFFFFFFFFFFFFFFFFFFFFFFFFFF AND EQ JUMPDEST PUSH2 0x989 JUMPI PUSH1 0x40 MLOAD PUSH32 0x8C379A000000000000000000000000000000000000000000000000000000000 DUP2 MSTORE PUSH1 0x4 ADD PUSH2 0x980 SWAP1 PUSH2 0x32F2 JUMP JUMPDEST PUSH1 0x40 MLOAD DUP1 SWAP2 SUB SWAP1 REVERT JUMPDEST DUP3 DUP3 SWAP1 POP DUP6 DUP6 SWAP1 POP EQ PUSH2 0x9D1 JUMPI PUSH1 0x40 MLOAD PUSH32 0x8C379A000000000000000000000000000000000000000000000000000000000 DUP2 MSTORE PUSH1 0x4 ADD PUSH2 0x9C8 SWAP1 PUSH2 0x3384 JUMP JUMPDEST PUSH1 0x40 MLOAD DUP1 SWAP2 SUB SWAP1 REVERT JUMPDEST PUSH2 0x9D9 PUSH2 0x19AA JUMP JUMPDEST PUSH2 0xA18 JUMPI PUSH1 0x40 MLOAD PUSH32 0x8C379A000000000000000000000000000000000000000000000000000000000 DUP2 MSTORE PUSH1 0x4 ADD PUSH2 0xA0F SWAP1 PUSH2 0x33F0 JUMP JUMPDEST PUSH1 0x40 MLOAD DUP1 SWAP2 SUB SWAP1 REVERT JUMPDEST PUSH1 0x0 JUMPDEST DUP6 DUP6 SWAP1 POP DUP2 LT ISZERO PUSH2 0xD6C JUMPI PUSH1 0x0 DUP5 DUP5 DUP4 DUP2 DUP2 LT PUSH2 0xA3B JUMPI PUSH2 0xA3A PUSH2 0x3410 JUMP JUMPDEST JUMPDEST SWAP1 POP PUSH1 0x20 MUL ADD CALLDATALOAD GT PUSH2 0xA82 JUMPI PUSH1 0x40 MLOAD PUSH32 0x8C379A000000000000000000000000000000000000000000000000000000000 DUP2 MSTORE PUSH1 0x4 ADD PUSH2 0xA79 SWAP1 PUSH2 0x34B1 JUMP JUMPDEST PUSH1 0x40 MLOAD DUP1 SWAP2 SUB SWAP1 REVERT JUMPDEST DUP4 DUP4 DUP3 DUP2 DUP2 LT PUSH2 0xA95 JUMPI PUSH2 0xA94 PUSH2 0x3410 JUMP JUMPDEST JUMPDEST SWAP1 POP PUSH1 0x20 MUL ADD CALLDATALOAD PUSH1 0x7 PUSH1 0x0 DUP3 DUP3 SLOAD PUSH2 0xAAD SWAP2 SWAP1 PUSH2 0x3500 JUMP JUMPDEST SWAP3 POP POP DUP2 SWAP1 SSTORE POP PUSH1 0x5 PUSH1 0x7 SLOAD SWAP1 DUP1 PUSH1 0x1 DUP2 SLOAD ADD DUP1 DUP3 SSTORE DUP1 SWAP2 POP POP PUSH1 0x1 SWAP1 SUB SWAP1 PUSH1 0x0 MSTORE PUSH1 0x20 PUSH1 0x0 KECCAK256 ADD PUSH1 0x0 SWAP1 SWAP2 SWAP1 SWAP2 SWAP1 SWAP2 POP SSTORE PUSH1 0x6 DUP7 DUP7 DUP4 DUP2 DUP2 LT PUSH2 0xAF4 JUMPI PUSH2 0xAF3 PUSH2 0x3410 JUMP JUMPDEST JUMPDEST SWAP1 POP PUSH1 0x20 MUL ADD PUSH1 0x20 DUP2 ADD SWAP1 PUSH2 0xB09 SWAP2 SWAP1 PUSH2 0x2BC5 JUMP JUMPDEST SWAP1 DUP1 PUSH1 0x1 DUP2 SLOAD ADD DUP1 DUP3 SSTORE DUP1 SWAP2 POP POP PUSH1 0x1 SWAP1 SUB SWAP1 PUSH1 0x0 MSTORE PUSH1 0x20 PUSH1 0x0 KECCAK256 ADD PUSH1 0x0 SWAP1 SWAP2 SWAP1 SWAP2 SWAP1 SWAP2 PUSH2 0x100 EXP DUP2 SLOAD DUP2 PUSH20 0xFFFFFFFFFFFFFFFFFFFFFFFFFFFFFFFFFFFFFFFF MUL NOT AND SWAP1 DUP4 PUSH20 0xFFFFFFFFFFFFFFFFFFFFFFFFFFFFFFFFFFFFFFFF AND MUL OR SWAP1 SSTORE POP PUSH1 0xE PUSH1 0x0 DUP8 DUP8 DUP5 DUP2 DUP2 LT PUSH2 0xB80 JUMPI PUSH2 0xB7F PUSH2 0x3410 JUMP JUMPDEST JUMPDEST SWAP1 POP PUSH1 0x20 MUL ADD PUSH1 0x20 DUP2 ADD SWAP1 PUSH2 0xB95 SWAP2 SWAP1 PUSH2 0x2BC5 JUMP JUMPDEST PUSH20 0xFFFFFFFFFFFFFFFFFFFFFFFFFFFFFFFFFFFFFFFF AND PUSH20 0xFFFFFFFFFFFFFFFFFFFFFFFFFFFFFFFFFFFFFFFF AND DUP2 MSTORE PUSH1 0x20 ADD SWAP1 DUP2 MSTORE PUSH1 0x20 ADD PUSH1 0x0 KECCAK256 PUSH1 0x0 PUSH1 0x1 SLOAD DUP2 MSTORE PUSH1 0x20 ADD SWAP1 DUP2 MSTORE PUSH1 0x20 ADD PUSH1 0x0 KECCAK256 PUSH1 0x1 PUSH1 0x5 DUP1 SLOAD SWAP1 POP PUSH2 0xBF4 SWAP2 SWAP1 PUSH2 0x3556 JUMP JUMPDEST SWAP1 DUP1 PUSH1 0x1 DUP2 SLOAD ADD DUP1 DUP3 SSTORE DUP1 SWAP2 POP POP PUSH1 0x1 SWAP1 SUB SWAP1 PUSH1 0x0 MSTORE PUSH1 0x20 PUSH1 0x0 KECCAK256 ADD PUSH1 0x0 SWAP1 SWAP2 SWAP1 SWAP2 SWAP1 SWAP2 POP SSTORE DUP4 DUP4 DUP3 DUP2 DUP2 LT PUSH2 0xC2D JUMPI PUSH2 0xC2C PUSH2 0x3410 JUMP JUMPDEST JUMPDEST SWAP1 POP PUSH1 0x20 MUL ADD CALLDATALOAD PUSH1 0x12 PUSH1 0x0 DUP9 DUP9 DUP6 DUP2 DUP2 LT PUSH2 0xC4B JUMPI PUSH2 0xC4A PUSH2 0x3410 JUMP JUMPDEST JUMPDEST SWAP1 POP PUSH1 0x20 MUL ADD PUSH1 0x20 DUP2 ADD SWAP1 PUSH2 0xC60 SWAP2 SWAP1 PUSH2 0x2BC5 JUMP JUMPDEST PUSH20 0xFFFFFFFFFFFFFFFFFFFFFFFFFFFFFFFFFFFFFFFF AND PUSH20 0xFFFFFFFFFFFFFFFFFFFFFFFFFFFFFFFFFFFFFFFF AND DUP2 MSTORE PUSH1 0x20 ADD SWAP1 DUP2 MSTORE PUSH1 0x20 ADD PUSH1 0x0 KECCAK256 PUSH1 0x0 PUSH1 0x1 SLOAD DUP2 MSTORE PUSH1 0x20 ADD SWAP1 DUP2 MSTORE PUSH1 0x20 ADD PUSH1 0x0 KECCAK256 PUSH1 0x0 DUP3 DUP3 SLOAD PUSH2 0xCBC SWAP2 SWAP1 PUSH2 0x3500 JUMP JUMPDEST SWAP3 POP POP DUP2 SWAP1 SSTORE POP DUP6 DUP6 DUP3 DUP2 DUP2 LT PUSH2 0xCD6 JUMPI PUSH2 0xCD5 PUSH2 0x3410 JUMP JUMPDEST JUMPDEST SWAP1 POP PUSH1 0x20 MUL ADD PUSH1 0x20 DUP2 ADD SWAP1 PUSH2 0xCEB SWAP2 SWAP1 PUSH2 0x2BC5 JUMP JUMPDEST PUSH20 0xFFFFFFFFFFFFFFFFFFFFFFFFFFFFFFFFFFFFFFFF AND PUSH32 0xD7EDE6383F46D0F3B406E1291DE4C475B0B91222D1F8D31988D236445AF00DF1 PUSH1 0x1 SLOAD DUP7 DUP7 DUP6 DUP2 DUP2 LT PUSH2 0xD38 JUMPI PUSH2 0xD37 PUSH2 0x3410 JUMP JUMPDEST JUMPDEST SWAP1 POP PUSH1 0x20 MUL ADD CALLDATALOAD PUSH1 0x7 SLOAD PUSH1 0x40 MLOAD PUSH2 0xD51 SWAP4 SWAP3 SWAP2 SWAP1 PUSH2 0x358A JUMP JUMPDEST PUSH1 0x40 MLOAD DUP1 SWAP2 SUB SWAP1 LOG2 DUP1 DUP1 PUSH2 0xD64 SWAP1 PUSH2 0x35C1 JUMP JUMPDEST SWAP2 POP POP PUSH2 0xA1B JUMP JUMPDEST POP PUSH1 0x1 SWAP1 POP SWAP5 SWAP4 POP POP POP POP JUMP JUMPDEST PUSH32 0x0 PUSH20 0xFFFFFFFFFFFFFFFFFFFFFFFFFFFFFFFFFFFFFFFF AND CALLER PUSH20 0xFFFFFFFFFFFFFFFFFFFFFFFFFFFFFFFFFFFFFFFF AND EQ PUSH2 0xE2B JUMPI CALLER PUSH32 0x0 PUSH1 0x40 MLOAD PUSH32 0x1CF993F400000000000000000000000000000000000000000000000000000000 DUP2 MSTORE PUSH1 0x4 ADD PUSH2 0xE22 SWAP3 SWAP2 SWAP1 PUSH2 0x360A JUMP JUMPDEST PUSH1 0x40 MLOAD DUP1 SWAP2 SUB SWAP1 REVERT JUMPDEST PUSH2 0xE35 DUP3 DUP3 PUSH2 0x20F4 JUMP JUMPDEST POP POP JUMP JUMPDEST PUSH1 0x11 PUSH1 0x20 MSTORE DUP1 PUSH1 0x0 MSTORE PUSH1 0x40 PUSH1 0x0 KECCAK256 PUSH1 0x0 SWAP2 POP SWAP1 POP SLOAD DUP2 JUMP JUMPDEST PUSH1 0xB SLOAD DUP2 JUMP JUMPDEST PUSH1 0x6 DUP2 DUP2 SLOAD DUP2 LT PUSH2 0xE67 JUMPI PUSH1 0x0 DUP1 REVERT JUMPDEST SWAP1 PUSH1 0x0 MSTORE PUSH1 0x20 PUSH1 0x0 KECCAK256 ADD PUSH1 0x0 SWAP2 POP SLOAD SWAP1 PUSH2 0x100 EXP SWAP1 DIV PUSH20 0xFFFFFFFFFFFFFFFFFFFFFFFFFFFFFFFFFFFFFFFF AND DUP2 JUMP JUMPDEST PUSH1 0x0 CALLER PUSH20 0xFFFFFFFFFFFFFFFFFFFFFFFFFFFFFFFFFFFFFFFF AND PUSH1 0x4 PUSH1 0x0 SWAP1 SLOAD SWAP1 PUSH2 0x100 EXP SWAP1 DIV PUSH20 0xFFFFFFFFFFFFFFFFFFFFFFFFFFFFFFFFFFFFFFFF AND PUSH20 0xFFFFFFFFFFFFFFFFFFFFFFFFFFFFFFFFFFFFFFFF AND EQ DUP1 PUSH2 0xF41 JUMPI POP CALLER PUSH20 0xFFFFFFFFFFFFFFFFFFFFFFFFFFFFFFFFFFFFFFFF AND PUSH1 0x3 PUSH1 0x0 SWAP1 SLOAD SWAP1 PUSH2 0x100 EXP SWAP1 DIV PUSH20 0xFFFFFFFFFFFFFFFFFFFFFFFFFFFFFFFFFFFFFFFF AND PUSH20 0xFFFFFFFFFFFFFFFFFFFFFFFFFFFFFFFFFFFFFFFF AND EQ JUMPDEST PUSH2 0xF80 JUMPI PUSH1 0x40 MLOAD PUSH32 0x8C379A000000000000000000000000000000000000000000000000000000000 DUP2 MSTORE PUSH1 0x4 ADD PUSH2 0xF77 SWAP1 PUSH2 0x32F2 JUMP JUMPDEST PUSH1 0x40 MLOAD DUP1 SWAP2 SUB SWAP1 REVERT JUMPDEST PUSH1 0x0 PUSH1 0x5 DUP1 SLOAD SWAP1 POP EQ ISZERO PUSH2 0xF97 JUMPI PUSH1 0x0 SWAP1 POP PUSH2 0x1042 JUMP JUMPDEST PUSH1 0x8 PUSH1 0x0 SWAP1 SLOAD SWAP1 PUSH2 0x100 EXP SWAP1 DIV PUSH1 0xFF AND ISZERO PUSH2 0xFB6 JUMPI PUSH2 0xFB4 PUSH2 0x1A62 JUMP JUMPDEST POP JUMPDEST PUSH1 0x0 PUSH1 0x5 PUSH1 0x1 PUSH1 0x5 DUP1 SLOAD SWAP1 POP PUSH2 0xFCC SWAP2 SWAP1 PUSH2 0x3556 JUMP JUMPDEST DUP2 SLOAD DUP2 LT PUSH2 0xFDD JUMPI PUSH2 0xFDC PUSH2 0x3410 JUMP JUMPDEST JUMPDEST SWAP1 PUSH1 0x0 MSTORE PUSH1 0x20 PUSH1 0x0 KECCAK256 ADD SLOAD SWAP1 POP PUSH1 0xD PUSH1 0x0 PUSH1 0x1 SLOAD DUP2 MSTORE PUSH1 0x20 ADD SWAP1 DUP2 MSTORE PUSH1 0x20 ADD PUSH1 0x0 KECCAK256 PUSH1 0x2 ADD SLOAD DUP2 EQ ISZERO PUSH2 0x1014 JUMPI PUSH1 0x0 SWAP2 POP POP PUSH2 0x1042 JUMP JUMPDEST DUP1 PUSH1 0xD PUSH1 0x0 PUSH1 0x1 SLOAD DUP2 MSTORE PUSH1 0x20 ADD SWAP1 DUP2 MSTORE PUSH1 0x20 ADD PUSH1 0x0 KECCAK256 PUSH1 0x2 ADD DUP2 SWAP1 SSTORE POP PUSH2 0x103B PUSH1 0x1 PUSH2 0x21A0 JUMP JUMPDEST POP PUSH1 0x1 SWAP2 POP POP JUMPDEST SWAP1 JUMP JUMPDEST PUSH1 0x0 TIMESTAMP DUP6 LT ISZERO PUSH2 0x108A JUMPI PUSH1 0x40 MLOAD PUSH32 0x8C379A000000000000000000000000000000000000000000000000000000000 DUP2 MSTORE PUSH1 0x4 ADD PUSH2 0x1081 SWAP1 PUSH2 0x367F JUMP JUMPDEST PUSH1 0x40 MLOAD DUP1 SWAP2 SUB SWAP1 REVERT JUMPDEST PUSH2 0x10D7 DUP7 DUP7 PUSH1 0xC PUSH1 0x0 DUP11 PUSH20 0xFFFFFFFFFFFFFFFFFFFFFFFFFFFFFFFFFFFFFFFF AND PUSH20 0xFFFFFFFFFFFFFFFFFFFFFFFFFFFFFFFFFFFFFFFF AND DUP2 MSTORE PUSH1 0x20 ADD SWAP1 DUP2 MSTORE PUSH1 0x20 ADD PUSH1 0x0 KECCAK256 SLOAD DUP8 DUP8 DUP8 PUSH2 0x127F JUMP JUMPDEST PUSH2 0x1116 JUMPI PUSH1 0x40 MLOAD PUSH32 0x8C379A000000000000000000000000000000000000000000000000000000000 DUP2 MSTORE PUSH1 0x4 ADD PUSH2 0x110D SWAP1 PUSH2 0x3711 JUMP JUMPDEST PUSH1 0x40 MLOAD DUP1 SWAP2 SUB SWAP1 REVERT JUMPDEST PUSH2 0x111F DUP7 PUSH2 0x231F JUMP JUMPDEST POP DUP6 PUSH20 0xFFFFFFFFFFFFFFFFFFFFFFFFFFFFFFFFFFFFFFFF AND PUSH32 0xA202EBFE1C0B55B9F79FE93552E9C6E90996EEF6D399ADC87D083ADE6C0A9278 PUSH1 0x1 SLOAD PUSH1 0x40 MLOAD PUSH2 0x1168 SWAP2 SWAP1 PUSH2 0x282F JUMP JUMPDEST PUSH1 0x40 MLOAD DUP1 SWAP2 SUB SWAP1 LOG2 PUSH1 0xC PUSH1 0x0 DUP8 PUSH20 0xFFFFFFFFFFFFFFFFFFFFFFFFFFFFFFFFFFFFFFFF AND PUSH20 0xFFFFFFFFFFFFFFFFFFFFFFFFFFFFFFFFFFFFFFFF AND DUP2 MSTORE PUSH1 0x20 ADD SWAP1 DUP2 MSTORE PUSH1 0x20 ADD PUSH1 0x0 KECCAK256 PUSH1 0x0 DUP2 SLOAD DUP1 SWAP3 SWAP2 SWAP1 PUSH2 0x11C0 SWAP1 PUSH2 0x35C1 JUMP JUMPDEST SWAP2 SWAP1 POP SSTORE POP PUSH1 0x1 SWAP1 POP SWAP6 SWAP5 POP POP POP POP POP JUMP JUMPDEST PUSH1 0x0 DUP1 DUP3 EQ ISZERO PUSH2 0x11E5 JUMPI PUSH1 0x0 SWAP1 POP PUSH2 0x127A JUMP JUMPDEST PUSH1 0x0 JUMPDEST PUSH1 0x5 DUP1 SLOAD SWAP1 POP DUP2 LT ISZERO PUSH2 0x1274 JUMPI PUSH1 0x5 DUP2 DUP2 SLOAD DUP2 LT PUSH2 0x1209 JUMPI PUSH2 0x1208 PUSH2 0x3410 JUMP JUMPDEST JUMPDEST SWAP1 PUSH1 0x0 MSTORE PUSH1 0x20 PUSH1 0x0 KECCAK256 ADD SLOAD DUP4 GT PUSH2 0x1261 JUMPI PUSH1 0x6 DUP2 DUP2 SLOAD DUP2 LT PUSH2 0x122E JUMPI PUSH2 0x122D PUSH2 0x3410 JUMP JUMPDEST JUMPDEST SWAP1 PUSH1 0x0 MSTORE PUSH1 0x20 PUSH1 0x0 KECCAK256 ADD PUSH1 0x0 SWAP1 SLOAD SWAP1 PUSH2 0x100 EXP SWAP1 DIV PUSH20 0xFFFFFFFFFFFFFFFFFFFFFFFFFFFFFFFFFFFFFFFF AND SWAP2 POP POP PUSH2 0x127A JUMP JUMPDEST DUP1 DUP1 PUSH2 0x126C SWAP1 PUSH2 0x35C1 JUMP JUMPDEST SWAP2 POP POP PUSH2 0x11E8 JUMP JUMPDEST POP PUSH1 0x0 SWAP1 POP JUMPDEST SWAP2 SWAP1 POP JUMP JUMPDEST PUSH1 0x0 DUP1 PUSH2 0x128D DUP9 DUP9 DUP9 PUSH2 0x17E8 JUMP JUMPDEST SWAP1 POP PUSH1 0x1B DUP6 PUSH1 0xFF AND LT ISZERO PUSH2 0x12AB JUMPI PUSH1 0x1B DUP6 PUSH2 0x12A8 SWAP2 SWAP1 PUSH2 0x3731 JUMP JUMPDEST SWAP5 POP JUMPDEST PUSH1 0x1 DUP2 DUP7 DUP7 DUP7 PUSH1 0x40 MLOAD PUSH1 0x0 DUP2 MSTORE PUSH1 0x20 ADD PUSH1 0x40 MSTORE PUSH1 0x40 MLOAD PUSH2 0x12CE SWAP5 SWAP4 SWAP3 SWAP2 SWAP1 PUSH2 0x3777 JUMP JUMPDEST PUSH1 0x20 PUSH1 0x40 MLOAD PUSH1 0x20 DUP2 SUB SWAP1 DUP1 DUP5 SUB SWAP1 DUP6 GAS STATICCALL ISZERO DUP1 ISZERO PUSH2 0x12F0 JUMPI RETURNDATASIZE PUSH1 0x0 DUP1 RETURNDATACOPY RETURNDATASIZE PUSH1 0x0 REVERT JUMPDEST POP POP POP PUSH1 0x20 PUSH1 0x40 MLOAD SUB MLOAD PUSH20 0xFFFFFFFFFFFFFFFFFFFFFFFFFFFFFFFFFFFFFFFF AND DUP9 PUSH20 0xFFFFFFFFFFFFFFFFFFFFFFFFFFFFFFFFFFFFFFFF AND EQ SWAP2 POP POP SWAP7 SWAP6 POP POP POP POP POP POP JUMP JUMPDEST PUSH1 0x60 PUSH1 0x0 PUSH1 0xE PUSH1 0x0 DUP6 PUSH20 0xFFFFFFFFFFFFFFFFFFFFFFFFFFFFFFFFFFFFFFFF AND PUSH20 0xFFFFFFFFFFFFFFFFFFFFFFFFFFFFFFFFFFFFFFFF AND DUP2 MSTORE PUSH1 0x20 ADD SWAP1 DUP2 MSTORE PUSH1 0x20 ADD PUSH1 0x0 KECCAK256 PUSH1 0x0 DUP5 DUP2 MSTORE PUSH1 0x20 ADD SWAP1 DUP2 MSTORE PUSH1 0x20 ADD PUSH1 0x0 KECCAK256 DUP1 SLOAD DUP1 PUSH1 0x20 MUL PUSH1 0x20 ADD PUSH1 0x40 MLOAD SWAP1 DUP2 ADD PUSH1 0x40 MSTORE DUP1 SWAP3 SWAP2 SWAP1 DUP2 DUP2 MSTORE PUSH1 0x20 ADD DUP3 DUP1 SLOAD DUP1 ISZERO PUSH2 0x13D3 JUMPI PUSH1 0x20 MUL DUP3 ADD SWAP2 SWAP1 PUSH1 0x0 MSTORE PUSH1 0x20 PUSH1 0x0 KECCAK256 SWAP1 JUMPDEST DUP2 SLOAD DUP2 MSTORE PUSH1 0x20 ADD SWAP1 PUSH1 0x1 ADD SWAP1 DUP1 DUP4 GT PUSH2 0x13BF JUMPI JUMPDEST POP POP POP POP POP SWAP1 POP DUP1 SWAP2 POP POP SWAP3 SWAP2 POP POP JUMP JUMPDEST PUSH1 0x0 PUSH1 0xC PUSH1 0x0 DUP4 PUSH20 0xFFFFFFFFFFFFFFFFFFFFFFFFFFFFFFFFFFFFFFFF AND PUSH20 0xFFFFFFFFFFFFFFFFFFFFFFFFFFFFFFFFFFFFFFFF AND DUP2 MSTORE PUSH1 0x20 ADD SWAP1 DUP2 MSTORE PUSH1 0x20 ADD PUSH1 0x0 KECCAK256 SLOAD SWAP1 POP SWAP2 SWAP1 POP JUMP JUMPDEST PUSH1 0xE PUSH1 0x20 MSTORE DUP3 PUSH1 0x0 MSTORE PUSH1 0x40 PUSH1 0x0 KECCAK256 PUSH1 0x20 MSTORE DUP2 PUSH1 0x0 MSTORE PUSH1 0x40 PUSH1 0x0 KECCAK256 DUP2 DUP2 SLOAD DUP2 LT PUSH2 0x1455 JUMPI PUSH1 0x0 DUP1 REVERT JUMPDEST SWAP1 PUSH1 0x0 MSTORE PUSH1 0x20 PUSH1 0x0 KECCAK256 ADD PUSH1 0x0 SWAP3 POP SWAP3 POP POP POP SLOAD DUP2 JUMP JUMPDEST PUSH1 0x0 PUSH1 0x1 SLOAD SWAP1 POP SWAP1 JUMP JUMPDEST PUSH1 0x0 CALLER PUSH20 0xFFFFFFFFFFFFFFFFFFFFFFFFFFFFFFFFFFFFFFFF AND PUSH1 0x4 PUSH1 0x0 SWAP1 SLOAD SWAP1 PUSH2 0x100 EXP SWAP1 DIV PUSH20 0xFFFFFFFFFFFFFFFFFFFFFFFFFFFFFFFFFFFFFFFF AND PUSH20 0xFFFFFFFFFFFFFFFFFFFFFFFFFFFFFFFFFFFFFFFF AND EQ DUP1 PUSH2 0x1520 JUMPI POP CALLER PUSH20 0xFFFFFFFFFFFFFFFFFFFFFFFFFFFFFFFFFFFFFFFF AND PUSH1 0x3 PUSH1 0x0 SWAP1 SLOAD SWAP1 PUSH2 0x100 EXP SWAP1 DIV PUSH20 0xFFFFFFFFFFFFFFFFFFFFFFFFFFFFFFFFFFFFFFFF AND PUSH20 0xFFFFFFFFFFFFFFFFFFFFFFFFFFFFFFFFFFFFFFFF AND EQ JUMPDEST PUSH2 0x155F JUMPI PUSH1 0x40 MLOAD PUSH32 0x8C379A000000000000000000000000000000000000000000000000000000000 DUP2 MSTORE PUSH1 0x4 ADD PUSH2 0x1556 SWAP1 PUSH2 0x32F2 JUMP JUMPDEST PUSH1 0x40 MLOAD DUP1 SWAP2 SUB SWAP1 REVERT JUMPDEST PUSH1 0x1 PUSH1 0x0 DUP2 SLOAD DUP1 SWAP3 SWAP2 SWAP1 PUSH2 0x1572 SWAP1 PUSH2 0x35C1 JUMP JUMPDEST SWAP2 SWAP1 POP SSTORE POP PUSH1 0x0 DUP1 PUSH1 0x5 DUP1 SLOAD SWAP1 POP EQ ISZERO PUSH2 0x158F JUMPI PUSH1 0x1 SWAP1 POP PUSH2 0x15D0 JUMP JUMPDEST PUSH1 0x1 PUSH1 0x5 PUSH1 0x1 PUSH2 0x159D PUSH2 0x892 JUMP JUMPDEST PUSH2 0x15A7 SWAP2 SWAP1 PUSH2 0x3556 JUMP JUMPDEST DUP2 SLOAD DUP2 LT PUSH2 0x15B8 JUMPI PUSH2 0x15B7 PUSH2 0x3410 JUMP JUMPDEST JUMPDEST SWAP1 PUSH1 0x0 MSTORE PUSH1 0x20 PUSH1 0x0 KECCAK256 ADD SLOAD PUSH2 0x15CD SWAP2 SWAP1 PUSH2 0x3500 JUMP JUMPDEST SWAP1 POP JUMPDEST PUSH1 0x40 MLOAD DUP1 PUSH1 0xA0 ADD PUSH1 0x40 MSTORE DUP1 PUSH1 0x1 SLOAD DUP2 MSTORE PUSH1 0x20 ADD DUP3 DUP2 MSTORE PUSH1 0x20 ADD PUSH1 0x0 DUP2 MSTORE PUSH1 0x20 ADD PUSH1 0x0 DUP2 MSTORE PUSH1 0x20 ADD PUSH2 0x15FF PUSH2 0x25BE JUMP JUMPDEST DUP2 MSTORE POP PUSH1 0xD PUSH1 0x0 PUSH1 0x1 SLOAD DUP2 MSTORE PUSH1 0x20 ADD SWAP1 DUP2 MSTORE PUSH1 0x20 ADD PUSH1 0x0 KECCAK256 PUSH1 0x0 DUP3 ADD MLOAD DUP2 PUSH1 0x0 ADD SSTORE PUSH1 0x20 DUP3 ADD MLOAD DUP2 PUSH1 0x1 ADD SSTORE PUSH1 0x40 DUP3 ADD MLOAD DUP2 PUSH1 0x2 ADD SSTORE PUSH1 0x60 DUP3 ADD MLOAD DUP2 PUSH1 0x3 ADD SSTORE PUSH1 0x80 DUP3 ADD MLOAD DUP2 PUSH1 0x4 ADD SSTORE SWAP1 POP POP PUSH32 0xE2046D333900871694B2FB421975B907AC5D93052201A0E259FA0664D9DBDF1D PUSH1 0x1 SLOAD PUSH1 0x40 MLOAD PUSH2 0x167D SWAP2 SWAP1 PUSH2 0x282F JUMP JUMPDEST PUSH1 0x40 MLOAD DUP1 SWAP2 SUB SWAP1 LOG1 PUSH1 0x1 SLOAD SWAP2 POP POP SWAP1 JUMP JUMPDEST PUSH1 0x7 SLOAD DUP2 JUMP JUMPDEST PUSH1 0x0 PUSH1 0x2 SLOAD SWAP1 POP SWAP1 JUMP JUMPDEST PUSH1 0xA PUSH1 0x20 MSTORE DUP1 PUSH1 0x0 MSTORE PUSH1 0x40 PUSH1 0x0 KECCAK256 PUSH1 0x0 SWAP2 POP SWAP1 POP DUP1 PUSH1 0x0 ADD PUSH1 0x0 SWAP1 SLOAD SWAP1 PUSH2 0x100 EXP SWAP1 DIV PUSH1 0xFF AND SWAP1 DUP1 PUSH1 0x0 ADD PUSH1 0x1 SWAP1 SLOAD SWAP1 PUSH2 0x100 EXP SWAP1 DIV PUSH1 0xFF AND SWAP1 DUP1 PUSH1 0x1 ADD SLOAD SWAP1 POP DUP4 JUMP JUMPDEST PUSH1 0x0 DUP1 PUSH1 0x0 SWAP1 POP JUMPDEST DUP12 DUP12 SWAP1 POP DUP2 LT ISZERO PUSH2 0x17AF JUMPI PUSH2 0x179B DUP13 DUP13 DUP4 DUP2 DUP2 LT PUSH2 0x170B JUMPI PUSH2 0x170A PUSH2 0x3410 JUMP JUMPDEST JUMPDEST SWAP1 POP PUSH1 0x20 MUL ADD PUSH1 0x20 DUP2 ADD SWAP1 PUSH2 0x1720 SWAP2 SWAP1 PUSH2 0x2BC5 JUMP JUMPDEST DUP12 DUP12 DUP5 DUP2 DUP2 LT PUSH2 0x1733 JUMPI PUSH2 0x1732 PUSH2 0x3410 JUMP JUMPDEST JUMPDEST SWAP1 POP PUSH1 0x20 MUL ADD CALLDATALOAD DUP11 DUP11 DUP6 DUP2 DUP2 LT PUSH2 0x174D JUMPI PUSH2 0x174C PUSH2 0x3410 JUMP JUMPDEST JUMPDEST SWAP1 POP PUSH1 0x20 MUL ADD PUSH1 0x20 DUP2 ADD SWAP1 PUSH2 0x1762 SWAP2 SWAP1 PUSH2 0x37BC JUMP JUMPDEST DUP10 DUP10 DUP7 DUP2 DUP2 LT PUSH2 0x1775 JUMPI PUSH2 0x1774 PUSH2 0x3410 JUMP JUMPDEST JUMPDEST SWAP1 POP PUSH1 0x20 MUL ADD CALLDATALOAD DUP9 DUP9 DUP8 DUP2 DUP2 LT PUSH2 0x178F JUMPI PUSH2 0x178E PUSH2 0x3410 JUMP JUMPDEST JUMPDEST SWAP1 POP PUSH1 0x20 MUL ADD CALLDATALOAD PUSH2 0x1045 JUMP JUMPDEST POP DUP1 DUP1 PUSH2 0x17A7 SWAP1 PUSH2 0x35C1 JUMP JUMPDEST SWAP2 POP POP PUSH2 0x16EA JUMP JUMPDEST POP PUSH1 0x1 SWAP1 POP SWAP11 SWAP10 POP POP POP POP POP POP POP POP POP POP JUMP JUMPDEST PUSH1 0x60 PUSH1 0x0 PUSH1 0x40 MLOAD DUP1 PUSH1 0x60 ADD PUSH1 0x40 MSTORE DUP1 PUSH1 0x33 DUP2 MSTORE PUSH1 0x20 ADD PUSH2 0x3E40 PUSH1 0x33 SWAP2 CODECOPY SWAP1 POP DUP1 SWAP2 POP POP SWAP1 JUMP JUMPDEST PUSH1 0x0 DUP1 PUSH2 0x17F3 PUSH2 0x17C2 JUMP JUMPDEST SWAP1 POP PUSH1 0x0 PUSH1 0xB SLOAD DUP3 PUSH1 0x40 MLOAD PUSH1 0x20 ADD PUSH2 0x180B SWAP2 SWAP1 PUSH2 0x3825 JUMP JUMPDEST PUSH1 0x40 MLOAD PUSH1 0x20 DUP2 DUP4 SUB SUB DUP2 MSTORE SWAP1 PUSH1 0x40 MSTORE DUP1 MLOAD SWAP1 PUSH1 0x20 ADD KECCAK256 DUP8 DUP8 DUP8 PUSH1 0x40 MLOAD PUSH1 0x20 ADD PUSH2 0x1837 SWAP5 SWAP4 SWAP3 SWAP2 SWAP1 PUSH2 0x383C JUMP JUMPDEST PUSH1 0x40 MLOAD PUSH1 0x20 DUP2 DUP4 SUB SUB DUP2 MSTORE SWAP1 PUSH1 0x40 MSTORE DUP1 MLOAD SWAP1 PUSH1 0x20 ADD KECCAK256 PUSH1 0x40 MLOAD PUSH1 0x20 ADD PUSH2 0x185E SWAP3 SWAP2 SWAP1 PUSH2 0x38EE JUMP JUMPDEST PUSH1 0x40 MLOAD PUSH1 0x20 DUP2 DUP4 SUB SUB DUP2 MSTORE SWAP1 PUSH1 0x40 MSTORE DUP1 MLOAD SWAP1 PUSH1 0x20 ADD KECCAK256 SWAP1 POP DUP1 SWAP3 POP POP POP SWAP4 SWAP3 POP POP POP JUMP JUMPDEST PUSH1 0x0 PUSH2 0x188D CALLER PUSH2 0x231F JUMP JUMPDEST SWAP1 POP SWAP1 JUMP JUMPDEST PUSH1 0x5 DUP2 DUP2 SLOAD DUP2 LT PUSH2 0x18A2 JUMPI PUSH1 0x0 DUP1 REVERT JUMPDEST SWAP1 PUSH1 0x0 MSTORE PUSH1 0x20 PUSH1 0x0 KECCAK256 ADD PUSH1 0x0 SWAP2 POP SWAP1 POP SLOAD DUP2 JUMP JUMPDEST PUSH1 0x10 PUSH1 0x20 MSTORE DUP1 PUSH1 0x0 MSTORE PUSH1 0x40 PUSH1 0x0 KECCAK256 PUSH1 0x0 SWAP2 POP SWAP1 POP SLOAD DUP2 JUMP JUMPDEST PUSH1 0x0 CALLER PUSH20 0xFFFFFFFFFFFFFFFFFFFFFFFFFFFFFFFFFFFFFFFF AND PUSH1 0x3 PUSH1 0x0 SWAP1 SLOAD SWAP1 PUSH2 0x100 EXP SWAP1 DIV PUSH20 0xFFFFFFFFFFFFFFFFFFFFFFFFFFFFFFFFFFFFFFFF AND PUSH20 0xFFFFFFFFFFFFFFFFFFFFFFFFFFFFFFFFFFFFFFFF AND EQ PUSH2 0x1960 JUMPI PUSH1 0x40 MLOAD PUSH32 0x8C379A000000000000000000000000000000000000000000000000000000000 DUP2 MSTORE PUSH1 0x4 ADD PUSH2 0x1957 SWAP1 PUSH2 0x3997 JUMP JUMPDEST PUSH1 0x40 MLOAD DUP1 SWAP2 SUB SWAP1 REVERT JUMPDEST DUP2 PUSH1 0x4 PUSH1 0x0 PUSH2 0x100 EXP DUP2 SLOAD DUP2 PUSH20 0xFFFFFFFFFFFFFFFFFFFFFFFFFFFFFFFFFFFFFFFF MUL NOT AND SWAP1 DUP4 PUSH20 0xFFFFFFFFFFFFFFFFFFFFFFFFFFFFFFFFFFFFFFFF AND MUL OR SWAP1 SSTORE POP PUSH1 0x1 SWAP1 POP SWAP2 SWAP1 POP JUMP JUMPDEST PUSH1 0x0 DUP1 PUSH1 0xD PUSH1 0x0 PUSH1 0x1 SLOAD DUP2 MSTORE PUSH1 0x20 ADD SWAP1 DUP2 MSTORE PUSH1 0x20 ADD PUSH1 0x0 KECCAK256 PUSH1 0x3 ADD SLOAD GT ISZERO PUSH2 0x19D5 JUMPI PUSH1 0x0 SWAP1 POP PUSH2 0x19EE JUMP JUMPDEST PUSH1 0x0 PUSH1 0x1 SLOAD EQ ISZERO PUSH2 0x19E9 JUMPI PUSH1 0x0 SWAP1 POP PUSH2 0x19EE JUMP JUMPDEST PUSH1 0x1 SWAP1 POP JUMPDEST SWAP1 JUMP JUMPDEST PUSH1 0x0 DUP1 PUSH1 0x10 PUSH1 0x0 PUSH2 0x1A01 DUP6 PUSH2 0x1B7A JUMP JUMPDEST DUP2 MSTORE PUSH1 0x20 ADD SWAP1 DUP2 MSTORE PUSH1 0x20 ADD PUSH1 0x0 KECCAK256 SLOAD SWAP1 POP PUSH1 0x0 DUP2 GT ISZERO PUSH2 0x1A57 JUMPI PUSH2 0x1A4F DUP2 DUP5 PUSH1 0x40 MLOAD PUSH1 0x20 ADD PUSH2 0x1A31 SWAP3 SWAP2 SWAP1 PUSH2 0x39D8 JUMP JUMPDEST PUSH1 0x40 MLOAD PUSH1 0x20 DUP2 DUP4 SUB SUB DUP2 MSTORE SWAP1 PUSH1 0x40 MSTORE DUP1 MLOAD SWAP1 PUSH1 0x20 ADD KECCAK256 PUSH1 0x0 SHR PUSH2 0x2606 JUMP JUMPDEST SWAP2 POP POP PUSH2 0x1A5D JUMP JUMPDEST PUSH1 0x0 SWAP2 POP POP JUMPDEST SWAP2 SWAP1 POP JUMP JUMPDEST PUSH1 0x0 CALLER PUSH20 0xFFFFFFFFFFFFFFFFFFFFFFFFFFFFFFFFFFFFFFFF AND PUSH1 0x4 PUSH1 0x0 SWAP1 SLOAD SWAP1 PUSH2 0x100 EXP SWAP1 DIV PUSH20 0xFFFFFFFFFFFFFFFFFFFFFFFFFFFFFFFFFFFFFFFF AND PUSH20 0xFFFFFFFFFFFFFFFFFFFFFFFFFFFFFFFFFFFFFFFF AND EQ DUP1 PUSH2 0x1B0D JUMPI POP CALLER PUSH20 0xFFFFFFFFFFFFFFFFFFFFFFFFFFFFFFFFFFFFFFFF AND PUSH1 0x3 PUSH1 0x0 SWAP1 SLOAD SWAP1 PUSH2 0x100 EXP SWAP1 DIV PUSH20 0xFFFFFFFFFFFFFFFFFFFFFFFFFFFFFFFFFFFFFFFF AND PUSH20 0xFFFFFFFFFFFFFFFFFFFFFFFFFFFFFFFFFFFFFFFF AND EQ JUMPDEST PUSH2 0x1B4C JUMPI PUSH1 0x40 MLOAD PUSH32 0x8C379A000000000000000000000000000000000000000000000000000000000 DUP2 MSTORE PUSH1 0x4 ADD PUSH2 0x1B43 SWAP1 PUSH2 0x32F2 JUMP JUMPDEST PUSH1 0x40 MLOAD DUP1 SWAP2 SUB SWAP1 REVERT JUMPDEST PUSH1 0x8 PUSH1 0x0 SWAP1 SLOAD SWAP1 PUSH2 0x100 EXP SWAP1 DIV PUSH1 0xFF AND ISZERO PUSH2 0x1B72 JUMPI PUSH2 0x1B6B PUSH1 0x0 PUSH2 0x21A0 JUMP JUMPDEST SWAP1 POP PUSH2 0x1B77 JUMP JUMPDEST PUSH1 0x0 SWAP1 POP JUMPDEST SWAP1 JUMP JUMPDEST PUSH1 0x0 PUSH1 0xF PUSH1 0x0 PUSH2 0x1B89 DUP5 PUSH2 0x1B9F JUMP JUMPDEST DUP2 MSTORE PUSH1 0x20 ADD SWAP1 DUP2 MSTORE PUSH1 0x20 ADD PUSH1 0x0 KECCAK256 SLOAD SWAP1 POP SWAP2 SWAP1 POP JUMP JUMPDEST PUSH1 0x0 DUP1 DUP3 GT DUP1 ISZERO PUSH2 0x1BB2 JUMPI POP PUSH1 0x7 SLOAD DUP3 GT ISZERO JUMPDEST PUSH2 0x1BF1 JUMPI PUSH1 0x40 MLOAD PUSH32 0x8C379A000000000000000000000000000000000000000000000000000000000 DUP2 MSTORE PUSH1 0x4 ADD PUSH2 0x1BE8 SWAP1 PUSH2 0x3A76 JUMP JUMPDEST PUSH1 0x40 MLOAD DUP1 SWAP2 SUB SWAP1 REVERT JUMPDEST PUSH1 0x0 PUSH1 0x5 DUP1 SLOAD SWAP1 POP GT PUSH2 0x1C39 JUMPI PUSH1 0x40 MLOAD PUSH32 0x8C379A000000000000000000000000000000000000000000000000000000000 DUP2 MSTORE PUSH1 0x4 ADD PUSH2 0x1C30 SWAP1 PUSH2 0x3AE2 JUMP JUMPDEST PUSH1 0x40 MLOAD DUP1 SWAP2 SUB SWAP1 REVERT JUMPDEST PUSH1 0x0 PUSH1 0x1 PUSH1 0x5 DUP1 SLOAD SWAP1 POP PUSH2 0x1C4D SWAP2 SWAP1 PUSH2 0x3556 JUMP JUMPDEST SWAP1 POP JUMPDEST PUSH1 0x0 DUP2 LT PUSH2 0x1CFD JUMPI PUSH1 0x0 DUP1 DUP3 EQ ISZERO PUSH2 0x1C6B JUMPI PUSH1 0x1 SWAP1 POP PUSH2 0x1CA5 JUMP JUMPDEST PUSH1 0x1 PUSH1 0x5 PUSH1 0x1 DUP5 PUSH2 0x1C7C SWAP2 SWAP1 PUSH2 0x3556 JUMP JUMPDEST DUP2 SLOAD DUP2 LT PUSH2 0x1C8D JUMPI PUSH2 0x1C8C PUSH2 0x3410 JUMP JUMPDEST JUMPDEST SWAP1 PUSH1 0x0 MSTORE PUSH1 0x20 PUSH1 0x0 KECCAK256 ADD SLOAD PUSH2 0x1CA2 SWAP2 SWAP1 PUSH2 0x3500 JUMP JUMPDEST SWAP1 POP JUMPDEST PUSH1 0x0 PUSH1 0x5 DUP4 DUP2 SLOAD DUP2 LT PUSH2 0x1CBB JUMPI PUSH2 0x1CBA PUSH2 0x3410 JUMP JUMPDEST JUMPDEST SWAP1 PUSH1 0x0 MSTORE PUSH1 0x20 PUSH1 0x0 KECCAK256 ADD SLOAD SWAP1 POP DUP1 DUP6 GT ISZERO DUP1 ISZERO PUSH2 0x1CD8 JUMPI POP DUP2 DUP6 LT ISZERO JUMPDEST ISZERO PUSH2 0x1CE8 JUMPI DUP3 SWAP4 POP POP POP POP PUSH2 0x1D39 JUMP JUMPDEST POP POP DUP1 DUP1 PUSH2 0x1CF5 SWAP1 PUSH2 0x3B02 JUMP JUMPDEST SWAP2 POP POP PUSH2 0x1C50 JUMP JUMPDEST POP PUSH1 0x40 MLOAD PUSH32 0x8C379A000000000000000000000000000000000000000000000000000000000 DUP2 MSTORE PUSH1 0x4 ADD PUSH2 0x1D30 SWAP1 PUSH2 0x3B78 JUMP JUMPDEST PUSH1 0x40 MLOAD DUP1 SWAP2 SUB SWAP1 REVERT JUMPDEST SWAP2 SWAP1 POP JUMP JUMPDEST PUSH1 0x12 PUSH1 0x20 MSTORE DUP2 PUSH1 0x0 MSTORE PUSH1 0x40 PUSH1 0x0 KECCAK256 PUSH1 0x20 MSTORE DUP1 PUSH1 0x0 MSTORE PUSH1 0x40 PUSH1 0x0 KECCAK256 PUSH1 0x0 SWAP2 POP SWAP2 POP POP SLOAD DUP2 JUMP JUMPDEST PUSH1 0x60 PUSH2 0x1D71 CALLER PUSH1 0x1 SLOAD PUSH2 0x1E76 JUMP JUMPDEST SWAP1 POP SWAP1 JUMP JUMPDEST PUSH1 0x0 PUSH1 0x4 PUSH1 0x0 SWAP1 SLOAD SWAP1 PUSH2 0x100 EXP SWAP1 DIV PUSH20 0xFFFFFFFFFFFFFFFFFFFFFFFFFFFFFFFFFFFFFFFF AND SWAP1 POP SWAP1 JUMP JUMPDEST PUSH1 0xD PUSH1 0x20 MSTORE DUP1 PUSH1 0x0 MSTORE PUSH1 0x40 PUSH1 0x0 KECCAK256 PUSH1 0x0 SWAP2 POP SWAP1 POP DUP1 PUSH1 0x0 ADD SLOAD SWAP1 DUP1 PUSH1 0x1 ADD SLOAD SWAP1 DUP1 PUSH1 0x2 ADD SLOAD SWAP1 DUP1 PUSH1 0x3 ADD SLOAD SWAP1 DUP1 PUSH1 0x4 ADD SLOAD SWAP1 POP DUP6 JUMP JUMPDEST PUSH1 0x60 DUP1 PUSH1 0x0 DUP1 PUSH1 0x0 PUSH1 0x40 MLOAD DUP1 PUSH1 0x40 ADD PUSH1 0x40 MSTORE DUP1 PUSH1 0xF DUP2 MSTORE PUSH1 0x20 ADD PUSH32 0x4C75636B7942616C6C5F52656C61790000000000000000000000000000000000 DUP2 MSTORE POP SWAP1 POP PUSH1 0x0 PUSH1 0x40 MLOAD DUP1 PUSH1 0x40 ADD PUSH1 0x40 MSTORE DUP1 PUSH1 0x1 DUP2 MSTORE PUSH1 0x20 ADD PUSH32 0x3100000000000000000000000000000000000000000000000000000000000000 DUP2 MSTORE POP SWAP1 POP PUSH1 0x0 CHAINID SWAP1 POP PUSH1 0x0 ADDRESS SWAP1 POP DUP4 DUP4 DUP4 DUP4 SWAP8 POP SWAP8 POP SWAP8 POP SWAP8 POP POP POP POP POP SWAP1 SWAP2 SWAP3 SWAP4 JUMP JUMPDEST PUSH1 0x9 SLOAD DUP2 JUMP JUMPDEST PUSH1 0x60 PUSH1 0x0 PUSH1 0xE PUSH1 0x0 DUP6 PUSH20 0xFFFFFFFFFFFFFFFFFFFFFFFFFFFFFFFFFFFFFFFF AND PUSH20 0xFFFFFFFFFFFFFFFFFFFFFFFFFFFFFFFFFFFFFFFF AND DUP2 MSTORE PUSH1 0x20 ADD SWAP1 DUP2 MSTORE PUSH1 0x20 ADD PUSH1 0x0 KECCAK256 PUSH1 0x0 DUP5 DUP2 MSTORE PUSH1 0x20 ADD SWAP1 DUP2 MSTORE PUSH1 0x20 ADD PUSH1 0x0 KECCAK256 DUP1 SLOAD DUP1 PUSH1 0x20 MUL PUSH1 0x20 ADD PUSH1 0x40 MLOAD SWAP1 DUP2 ADD PUSH1 0x40 MSTORE DUP1 SWAP3 SWAP2 SWAP1 DUP2 DUP2 MSTORE PUSH1 0x20 ADD DUP3 DUP1 SLOAD DUP1 ISZERO PUSH2 0x1F14 JUMPI PUSH1 0x20 MUL DUP3 ADD SWAP2 SWAP1 PUSH1 0x0 MSTORE PUSH1 0x20 PUSH1 0x0 KECCAK256 SWAP1 JUMPDEST DUP2 SLOAD DUP2 MSTORE PUSH1 0x20 ADD SWAP1 PUSH1 0x1 ADD SWAP1 DUP1 DUP4 GT PUSH2 0x1F00 JUMPI JUMPDEST POP POP POP POP POP SWAP1 POP PUSH1 0x0 PUSH1 0x12 PUSH1 0x0 DUP7 PUSH20 0xFFFFFFFFFFFFFFFFFFFFFFFFFFFFFFFFFFFFFFFF AND PUSH20 0xFFFFFFFFFFFFFFFFFFFFFFFFFFFFFFFFFFFFFFFF AND DUP2 MSTORE PUSH1 0x20 ADD SWAP1 DUP2 MSTORE PUSH1 0x20 ADD PUSH1 0x0 KECCAK256 PUSH1 0x0 DUP6 DUP2 MSTORE PUSH1 0x20 ADD SWAP1 DUP2 MSTORE PUSH1 0x20 ADD PUSH1 0x0 KECCAK256 SLOAD PUSH8 0xFFFFFFFFFFFFFFFF DUP2 GT ISZERO PUSH2 0x1F87 JUMPI PUSH2 0x1F86 PUSH2 0x29CD JUMP JUMPDEST JUMPDEST PUSH1 0x40 MLOAD SWAP1 DUP1 DUP3 MSTORE DUP1 PUSH1 0x20 MUL PUSH1 0x20 ADD DUP3 ADD PUSH1 0x40 MSTORE DUP1 ISZERO PUSH2 0x1FB5 JUMPI DUP2 PUSH1 0x20 ADD PUSH1 0x20 DUP3 MUL DUP1 CALLDATASIZE DUP4 CALLDATACOPY DUP1 DUP3 ADD SWAP2 POP POP SWAP1 POP JUMPDEST POP SWAP1 POP PUSH1 0x0 DUP1 JUMPDEST DUP4 MLOAD DUP2 LT ISZERO PUSH2 0x20E7 JUMPI PUSH1 0x0 PUSH1 0x5 DUP6 DUP4 DUP2 MLOAD DUP2 LT PUSH2 0x1FDC JUMPI PUSH2 0x1FDB PUSH2 0x3410 JUMP JUMPDEST JUMPDEST PUSH1 0x20 MUL PUSH1 0x20 ADD ADD MLOAD DUP2 SLOAD DUP2 LT PUSH2 0x1FF5 JUMPI PUSH2 0x1FF4 PUSH2 0x3410 JUMP JUMPDEST JUMPDEST SWAP1 PUSH1 0x0 MSTORE PUSH1 0x20 PUSH1 0x0 KECCAK256 ADD SLOAD SWAP1 POP PUSH1 0x0 DUP1 DUP7 DUP5 DUP2 MLOAD DUP2 LT PUSH2 0x2018 JUMPI PUSH2 0x2017 PUSH2 0x3410 JUMP JUMPDEST JUMPDEST PUSH1 0x20 MUL PUSH1 0x20 ADD ADD MLOAD EQ ISZERO PUSH2 0x202F JUMPI PUSH1 0x1 SWAP1 POP PUSH2 0x2083 JUMP JUMPDEST PUSH1 0x1 PUSH1 0x5 PUSH1 0x1 DUP9 DUP7 DUP2 MLOAD DUP2 LT PUSH2 0x2048 JUMPI PUSH2 0x2047 PUSH2 0x3410 JUMP JUMPDEST JUMPDEST PUSH1 0x20 MUL PUSH1 0x20 ADD ADD MLOAD PUSH2 0x205A SWAP2 SWAP1 PUSH2 0x3556 JUMP JUMPDEST DUP2 SLOAD DUP2 LT PUSH2 0x206B JUMPI PUSH2 0x206A PUSH2 0x3410 JUMP JUMPDEST JUMPDEST SWAP1 PUSH1 0x0 MSTORE PUSH1 0x20 PUSH1 0x0 KECCAK256 ADD SLOAD PUSH2 0x2080 SWAP2 SWAP1 PUSH2 0x3500 JUMP JUMPDEST SWAP1 POP JUMPDEST PUSH1 0x0 DUP2 SWAP1 POP JUMPDEST DUP3 DUP2 GT PUSH2 0x20D1 JUMPI DUP1 DUP7 DUP7 DUP2 MLOAD DUP2 LT PUSH2 0x20A4 JUMPI PUSH2 0x20A3 PUSH2 0x3410 JUMP JUMPDEST JUMPDEST PUSH1 0x20 MUL PUSH1 0x20 ADD ADD DUP2 DUP2 MSTORE POP POP DUP5 DUP1 PUSH2 0x20BB SWAP1 PUSH2 0x35C1 JUMP JUMPDEST SWAP6 POP POP DUP1 DUP1 PUSH2 0x20C9 SWAP1 PUSH2 0x35C1 JUMP JUMPDEST SWAP2 POP POP PUSH2 0x2089 JUMP JUMPDEST POP POP POP DUP1 DUP1 PUSH2 0x20DF SWAP1 PUSH2 0x35C1 JUMP JUMPDEST SWAP2 POP POP PUSH2 0x1FBC JUMP JUMPDEST POP DUP2 SWAP4 POP POP POP POP SWAP3 SWAP2 POP POP JUMP JUMPDEST PUSH1 0x0 DUP2 PUSH1 0x0 DUP2 MLOAD DUP2 LT PUSH2 0x210A JUMPI PUSH2 0x2109 PUSH2 0x3410 JUMP JUMPDEST JUMPDEST PUSH1 0x20 MUL PUSH1 0x20 ADD ADD MLOAD TIMESTAMP PUSH1 0x40 MLOAD PUSH1 0x20 ADD PUSH2 0x2124 SWAP3 SWAP2 SWAP1 PUSH2 0x39D8 JUMP JUMPDEST PUSH1 0x40 MLOAD PUSH1 0x20 DUP2 DUP4 SUB SUB DUP2 MSTORE SWAP1 PUSH1 0x40 MSTORE DUP1 MLOAD SWAP1 PUSH1 0x20 ADD KECCAK256 PUSH1 0x0 SHR SWAP1 POP DUP1 PUSH1 0xA PUSH1 0x0 DUP6 DUP2 MSTORE PUSH1 0x20 ADD SWAP1 DUP2 MSTORE PUSH1 0x20 ADD PUSH1 0x0 KECCAK256 PUSH1 0x1 ADD DUP2 SWAP1 SSTORE POP PUSH1 0xA PUSH1 0x0 DUP5 DUP2 MSTORE PUSH1 0x20 ADD SWAP1 DUP2 MSTORE PUSH1 0x20 ADD PUSH1 0x0 KECCAK256 PUSH1 0x0 ADD PUSH1 0x1 SWAP1 SLOAD SWAP1 PUSH2 0x100 EXP SWAP1 DIV PUSH1 0xFF AND ISZERO PUSH2 0x2191 JUMPI PUSH2 0x218C DUP2 PUSH2 0x2640 JUMP JUMPDEST PUSH2 0x219B JUMP JUMPDEST PUSH2 0x219A DUP2 PUSH2 0x271C JUMP JUMPDEST JUMPDEST POP POP POP JUMP JUMPDEST PUSH1 0x0 DUP1 PUSH32 0x0 PUSH20 0xFFFFFFFFFFFFFFFFFFFFFFFFFFFFFFFFFFFFFFFF AND PUSH4 0x5D3B1D30 PUSH32 0x0 PUSH32 0x0 PUSH1 0x3 PUSH3 0x61A80 PUSH1 0x1 PUSH1 0x40 MLOAD DUP7 PUSH4 0xFFFFFFFF AND PUSH1 0xE0 SHL DUP2 MSTORE PUSH1 0x4 ADD PUSH2 0x2249 SWAP6 SWAP5 SWAP4 SWAP3 SWAP2 SWAP1 PUSH2 0x3BF7 JUMP JUMPDEST PUSH1 0x20 PUSH1 0x40 MLOAD DUP1 DUP4 SUB DUP2 PUSH1 0x0 DUP8 GAS CALL ISZERO DUP1 ISZERO PUSH2 0x2268 JUMPI RETURNDATASIZE PUSH1 0x0 DUP1 RETURNDATACOPY RETURNDATASIZE PUSH1 0x0 REVERT JUMPDEST POP POP POP POP PUSH1 0x40 MLOAD RETURNDATASIZE PUSH1 0x1F NOT PUSH1 0x1F DUP3 ADD AND DUP3 ADD DUP1 PUSH1 0x40 MSTORE POP DUP2 ADD SWAP1 PUSH2 0x228C SWAP2 SWAP1 PUSH2 0x3C5F JUMP JUMPDEST SWAP1 POP DUP1 PUSH1 0x9 DUP2 SWAP1 SSTORE POP PUSH1 0x40 MLOAD DUP1 PUSH1 0x60 ADD PUSH1 0x40 MSTORE DUP1 PUSH1 0x1 ISZERO ISZERO DUP2 MSTORE PUSH1 0x20 ADD DUP5 ISZERO ISZERO DUP2 MSTORE PUSH1 0x20 ADD PUSH1 0x0 DUP2 MSTORE POP PUSH1 0xA PUSH1 0x0 DUP4 DUP2 MSTORE PUSH1 0x20 ADD SWAP1 DUP2 MSTORE PUSH1 0x20 ADD PUSH1 0x0 KECCAK256 PUSH1 0x0 DUP3 ADD MLOAD DUP2 PUSH1 0x0 ADD PUSH1 0x0 PUSH2 0x100 EXP DUP2 SLOAD DUP2 PUSH1 0xFF MUL NOT AND SWAP1 DUP4 ISZERO ISZERO MUL OR SWAP1 SSTORE POP PUSH1 0x20 DUP3 ADD MLOAD DUP2 PUSH1 0x0 ADD PUSH1 0x1 PUSH2 0x100 EXP DUP2 SLOAD DUP2 PUSH1 0xFF MUL NOT AND SWAP1 DUP4 ISZERO ISZERO MUL OR SWAP1 SSTORE POP PUSH1 0x40 DUP3 ADD MLOAD DUP2 PUSH1 0x1 ADD SSTORE SWAP1 POP POP DUP1 SWAP2 POP POP SWAP2 SWAP1 POP JUMP JUMPDEST PUSH1 0x0 DUP1 PUSH1 0xE PUSH1 0x0 DUP5 PUSH20 0xFFFFFFFFFFFFFFFFFFFFFFFFFFFFFFFFFFFFFFFF AND PUSH20 0xFFFFFFFFFFFFFFFFFFFFFFFFFFFFFFFFFFFFFFFF AND DUP2 MSTORE PUSH1 0x20 ADD SWAP1 DUP2 MSTORE PUSH1 0x20 ADD PUSH1 0x0 KECCAK256 PUSH1 0x0 PUSH1 0x1 SLOAD DUP2 MSTORE PUSH1 0x20 ADD SWAP1 DUP2 MSTORE PUSH1 0x20 ADD PUSH1 0x0 KECCAK256 DUP1 SLOAD DUP1 PUSH1 0x20 MUL PUSH1 0x20 ADD PUSH1 0x40 MLOAD SWAP1 DUP2 ADD PUSH1 0x40 MSTORE DUP1 SWAP3 SWAP2 SWAP1 DUP2 DUP2 MSTORE PUSH1 0x20 ADD DUP3 DUP1 SLOAD DUP1 ISZERO PUSH2 0x23BE JUMPI PUSH1 0x20 MUL DUP3 ADD SWAP2 SWAP1 PUSH1 0x0 MSTORE PUSH1 0x20 PUSH1 0x0 KECCAK256 SWAP1 JUMPDEST DUP2 SLOAD DUP2 MSTORE PUSH1 0x20 ADD SWAP1 PUSH1 0x1 ADD SWAP1 DUP1 DUP4 GT PUSH2 0x23AA JUMPI JUMPDEST POP POP POP POP POP SWAP1 POP PUSH1 0x0 PUSH1 0x2 SLOAD SWAP1 POP PUSH1 0x0 PUSH1 0x11 PUSH1 0x0 DUP7 PUSH20 0xFFFFFFFFFFFFFFFFFFFFFFFFFFFFFFFFFFFFFFFF AND PUSH20 0xFFFFFFFFFFFFFFFFFFFFFFFFFFFFFFFFFFFFFFFF AND DUP2 MSTORE PUSH1 0x20 ADD SWAP1 DUP2 MSTORE PUSH1 0x20 ADD PUSH1 0x0 KECCAK256 SLOAD SWAP1 POP PUSH1 0x0 DUP4 MLOAD GT PUSH2 0x2454 JUMPI PUSH1 0x40 MLOAD PUSH32 0x8C379A000000000000000000000000000000000000000000000000000000000 DUP2 MSTORE PUSH1 0x4 ADD PUSH2 0x244B SWAP1 PUSH2 0x3CD8 JUMP JUMPDEST PUSH1 0x40 MLOAD DUP1 SWAP2 SUB SWAP1 REVERT JUMPDEST DUP1 DUP4 MLOAD LT ISZERO PUSH2 0x2498 JUMPI PUSH1 0x40 MLOAD PUSH32 0x8C379A000000000000000000000000000000000000000000000000000000000 DUP2 MSTORE PUSH1 0x4 ADD PUSH2 0x248F SWAP1 PUSH2 0x3D6A JUMP JUMPDEST PUSH1 0x40 MLOAD DUP1 SWAP2 SUB SWAP1 REVERT JUMPDEST PUSH1 0x0 DUP2 SWAP1 POP JUMPDEST DUP4 MLOAD DUP2 LT ISZERO PUSH2 0x24EC JUMPI DUP3 PUSH1 0xF PUSH1 0x0 DUP7 DUP5 DUP2 MLOAD DUP2 LT PUSH2 0x24BF JUMPI PUSH2 0x24BE PUSH2 0x3410 JUMP JUMPDEST JUMPDEST PUSH1 0x20 MUL PUSH1 0x20 ADD ADD MLOAD DUP2 MSTORE PUSH1 0x20 ADD SWAP1 DUP2 MSTORE PUSH1 0x20 ADD PUSH1 0x0 KECCAK256 DUP2 SWAP1 SSTORE POP DUP1 DUP1 PUSH2 0x24E4 SWAP1 PUSH2 0x35C1 JUMP JUMPDEST SWAP2 POP POP PUSH2 0x249E JUMP JUMPDEST POP DUP3 MLOAD PUSH1 0x11 PUSH1 0x0 DUP8 PUSH20 0xFFFFFFFFFFFFFFFFFFFFFFFFFFFFFFFFFFFFFFFF AND PUSH20 0xFFFFFFFFFFFFFFFFFFFFFFFFFFFFFFFFFFFFFFFF AND DUP2 MSTORE PUSH1 0x20 ADD SWAP1 DUP2 MSTORE PUSH1 0x20 ADD PUSH1 0x0 KECCAK256 DUP2 SWAP1 SSTORE POP PUSH1 0x8 PUSH1 0x0 SWAP1 SLOAD SWAP1 PUSH2 0x100 EXP SWAP1 DIV PUSH1 0xFF AND PUSH2 0x2562 JUMPI PUSH1 0x1 PUSH1 0x8 PUSH1 0x0 PUSH2 0x100 EXP DUP2 SLOAD DUP2 PUSH1 0xFF MUL NOT AND SWAP1 DUP4 ISZERO ISZERO MUL OR SWAP1 SSTORE POP JUMPDEST DUP5 PUSH20 0xFFFFFFFFFFFFFFFFFFFFFFFFFFFFFFFFFFFFFFFF AND PUSH32 0xA202EBFE1C0B55B9F79FE93552E9C6E90996EEF6D399ADC87D083ADE6C0A9278 PUSH1 0x1 SLOAD PUSH1 0x40 MLOAD PUSH2 0x25AA SWAP2 SWAP1 PUSH2 0x282F JUMP JUMPDEST PUSH1 0x40 MLOAD DUP1 SWAP2 SUB SWAP1 LOG2 PUSH1 0x0 SWAP4 POP POP POP POP SWAP2 SWAP1 POP JUMP JUMPDEST PUSH1 0x0 PUSH2 0x2601 PUSH1 0x1 NUMBER PUSH2 0x25D0 SWAP2 SWAP1 PUSH2 0x3556 JUMP JUMPDEST BLOCKHASH TIMESTAMP PUSH1 0x40 MLOAD PUSH1 0x20 ADD PUSH2 0x25E3 SWAP3 SWAP2 SWAP1 PUSH2 0x3D8A JUMP JUMPDEST PUSH1 0x40 MLOAD PUSH1 0x20 DUP2 DUP4 SUB SUB DUP2 MSTORE SWAP1 PUSH1 0x40 MSTORE DUP1 MLOAD SWAP1 PUSH1 0x20 ADD KECCAK256 PUSH1 0x0 SHR PUSH2 0x2606 JUMP JUMPDEST SWAP1 POP SWAP1 JUMP JUMPDEST PUSH1 0x0 DUP1 PUSH3 0xF4240 DUP4 PUSH2 0x2618 SWAP2 SWAP1 PUSH2 0x3DE5 JUMP JUMPDEST SWAP1 POP PUSH3 0x186A0 DUP2 LT ISZERO PUSH2 0x2637 JUMPI PUSH3 0x186A0 DUP2 PUSH2 0x2634 SWAP2 SWAP1 PUSH2 0x3500 JUMP JUMPDEST SWAP1 POP JUMPDEST DUP1 SWAP2 POP POP SWAP2 SWAP1 POP JUMP JUMPDEST PUSH1 0x0 PUSH1 0xD PUSH1 0x0 PUSH1 0x1 SLOAD DUP2 MSTORE PUSH1 0x20 ADD SWAP1 DUP2 MSTORE PUSH1 0x20 ADD PUSH1 0x0 KECCAK256 SWAP1 POP PUSH1 0x0 PUSH1 0x1 DUP3 PUSH1 0x1 ADD SLOAD DUP4 PUSH1 0x2 ADD SLOAD PUSH2 0x2671 SWAP2 SWAP1 PUSH2 0x3556 JUMP JUMPDEST PUSH2 0x267B SWAP2 SWAP1 PUSH2 0x3500 JUMP JUMPDEST SWAP1 POP DUP1 DUP4 PUSH2 0x2689 SWAP2 SWAP1 PUSH2 0x3DE5 JUMP JUMPDEST DUP3 PUSH1 0x1 ADD SLOAD PUSH2 0x2698 SWAP2 SWAP1 PUSH2 0x3500 JUMP JUMPDEST DUP3 PUSH1 0x3 ADD DUP2 SWAP1 SSTORE POP PUSH1 0x1 SLOAD PUSH32 0x77FE960E6800D82F6D4DE0FE98FFD2265AACB1C49020951062BBA292F804DEF8 DUP4 PUSH1 0x3 ADD SLOAD PUSH1 0x40 MLOAD PUSH2 0x26D6 SWAP2 SWAP1 PUSH2 0x282F JUMP JUMPDEST PUSH1 0x40 MLOAD DUP1 SWAP2 SUB SWAP1 LOG2 PUSH32 0x71B1ED1AF5DC112F73A5EC9D0960E84A848B781220620CCC8FB91814AB3047BE PUSH1 0x1 SLOAD PUSH1 0x40 MLOAD PUSH2 0x270F SWAP2 SWAP1 PUSH2 0x282F JUMP JUMPDEST PUSH1 0x40 MLOAD DUP1 SWAP2 SUB SWAP1 LOG1 POP POP POP JUMP JUMPDEST DUP1 PUSH1 0x10 PUSH1 0x0 PUSH1 0x2 SLOAD DUP2 MSTORE PUSH1 0x20 ADD SWAP1 DUP2 MSTORE PUSH1 0x20 ADD PUSH1 0x0 KECCAK256 DUP2 SWAP1 SSTORE POP PUSH32 0xDBF0DB347834A4A20F04BE58D476EEFC7E831A5328FAC4B75FAE72ADA1028243 PUSH1 0x1 SLOAD PUSH1 0x2 SLOAD PUSH1 0x40 MLOAD PUSH2 0x276B SWAP3 SWAP2 SWAP1 PUSH2 0x3E16 JUMP JUMPDEST PUSH1 0x40 MLOAD DUP1 SWAP2 SUB SWAP1 LOG1 PUSH1 0x0 PUSH1 0x8 PUSH1 0x0 PUSH2 0x100 EXP DUP2 SLOAD DUP2 PUSH1 0xFF MUL NOT AND SWAP1 DUP4 ISZERO ISZERO MUL OR SWAP1 SSTORE POP PUSH1 0x2 PUSH1 0x0 DUP2 SLOAD DUP1 SWAP3 SWAP2 SWAP1 PUSH2 0x27A1 SWAP1 PUSH2 0x35C1 JUMP JUMPDEST SWAP2 SWAP1 POP SSTORE POP POP JUMP JUMPDEST PUSH1 0x0 PUSH1 0x40 MLOAD SWAP1 POP SWAP1 JUMP JUMPDEST PUSH1 0x0 DUP1 REVERT JUMPDEST PUSH1 0x0 DUP1 REVERT JUMPDEST PUSH1 0x0 DUP2 SWAP1 POP SWAP2 SWAP1 POP JUMP JUMPDEST PUSH2 0x27D0 DUP2 PUSH2 0x27BD JUMP JUMPDEST DUP2 EQ PUSH2 0x27DB JUMPI PUSH1 0x0 DUP1 REVERT JUMPDEST POP JUMP JUMPDEST PUSH1 0x0 DUP2 CALLDATALOAD SWAP1 POP PUSH2 0x27ED DUP2 PUSH2 0x27C7 JUMP JUMPDEST SWAP3 SWAP2 POP POP JUMP JUMPDEST PUSH1 0x0 PUSH1 0x20 DUP3 DUP5 SUB SLT ISZERO PUSH2 0x2809 JUMPI PUSH2 0x2808 PUSH2 0x27B3 JUMP JUMPDEST JUMPDEST PUSH1 0x0 PUSH2 0x2817 DUP5 DUP3 DUP6 ADD PUSH2 0x27DE JUMP JUMPDEST SWAP2 POP POP SWAP3 SWAP2 POP POP JUMP JUMPDEST PUSH2 0x2829 DUP2 PUSH2 0x27BD JUMP JUMPDEST DUP3 MSTORE POP POP JUMP JUMPDEST PUSH1 0x0 PUSH1 0x20 DUP3 ADD SWAP1 POP PUSH2 0x2844 PUSH1 0x0 DUP4 ADD DUP5 PUSH2 0x2820 JUMP JUMPDEST SWAP3 SWAP2 POP POP JUMP JUMPDEST PUSH1 0x0 DUP2 ISZERO ISZERO SWAP1 POP SWAP2 SWAP1 POP JUMP JUMPDEST PUSH2 0x285F DUP2 PUSH2 0x284A JUMP JUMPDEST DUP3 MSTORE POP POP JUMP JUMPDEST PUSH1 0x0 PUSH1 0x20 DUP3 ADD SWAP1 POP PUSH2 0x287A PUSH1 0x0 DUP4 ADD DUP5 PUSH2 0x2856 JUMP JUMPDEST SWAP3 SWAP2 POP POP JUMP JUMPDEST PUSH1 0x0 DUP1 REVERT JUMPDEST PUSH1 0x0 DUP1 REVERT JUMPDEST PUSH1 0x0 DUP1 REVERT JUMPDEST PUSH1 0x0 DUP1 DUP4 PUSH1 0x1F DUP5 ADD SLT PUSH2 0x28A5 JUMPI PUSH2 0x28A4 PUSH2 0x2880 JUMP JUMPDEST JUMPDEST DUP3 CALLDATALOAD SWAP1 POP PUSH8 0xFFFFFFFFFFFFFFFF DUP2 GT ISZERO PUSH2 0x28C2 JUMPI PUSH2 0x28C1 PUSH2 0x2885 JUMP JUMPDEST JUMPDEST PUSH1 0x20 DUP4 ADD SWAP2 POP DUP4 PUSH1 0x20 DUP3 MUL DUP4 ADD GT ISZERO PUSH2 0x28DE JUMPI PUSH2 0x28DD PUSH2 0x288A JUMP JUMPDEST JUMPDEST SWAP3 POP SWAP3 SWAP1 POP JUMP JUMPDEST PUSH1 0x0 DUP1 DUP4 PUSH1 0x1F DUP5 ADD SLT PUSH2 0x28FB JUMPI PUSH2 0x28FA PUSH2 0x2880 JUMP JUMPDEST JUMPDEST DUP3 CALLDATALOAD SWAP1 POP PUSH8 0xFFFFFFFFFFFFFFFF DUP2 GT ISZERO PUSH2 0x2918 JUMPI PUSH2 0x2917 PUSH2 0x2885 JUMP JUMPDEST JUMPDEST PUSH1 0x20 DUP4 ADD SWAP2 POP DUP4 PUSH1 0x20 DUP3 MUL DUP4 ADD GT ISZERO PUSH2 0x2934 JUMPI PUSH2 0x2933 PUSH2 0x288A JUMP JUMPDEST JUMPDEST SWAP3 POP SWAP3 SWAP1 POP JUMP JUMPDEST PUSH1 0x0 DUP1 PUSH1 0x0 DUP1 PUSH1 0x40 DUP6 DUP8 SUB SLT ISZERO PUSH2 0x2955 JUMPI PUSH2 0x2954 PUSH2 0x27B3 JUMP JUMPDEST JUMPDEST PUSH1 0x0 DUP6 ADD CALLDATALOAD PUSH8 0xFFFFFFFFFFFFFFFF DUP2 GT ISZERO PUSH2 0x2973 JUMPI PUSH2 0x2972 PUSH2 0x27B8 JUMP JUMPDEST JUMPDEST PUSH2 0x297F DUP8 DUP3 DUP9 ADD PUSH2 0x288F JUMP JUMPDEST SWAP5 POP SWAP5 POP POP PUSH1 0x20 DUP6 ADD CALLDATALOAD PUSH8 0xFFFFFFFFFFFFFFFF DUP2 GT ISZERO PUSH2 0x29A2 JUMPI PUSH2 0x29A1 PUSH2 0x27B8 JUMP JUMPDEST JUMPDEST PUSH2 0x29AE DUP8 DUP3 DUP9 ADD PUSH2 0x28E5 JUMP JUMPDEST SWAP3 POP SWAP3 POP POP SWAP3 SWAP6 SWAP2 SWAP5 POP SWAP3 POP JUMP JUMPDEST PUSH1 0x0 PUSH1 0x1F NOT PUSH1 0x1F DUP4 ADD AND SWAP1 POP SWAP2 SWAP1 POP JUMP JUMPDEST PUSH32 0x4E487B7100000000000000000000000000000000000000000000000000000000 PUSH1 0x0 MSTORE PUSH1 0x41 PUSH1 0x4 MSTORE PUSH1 0x24 PUSH1 0x0 REVERT JUMPDEST PUSH2 0x2A05 DUP3 PUSH2 0x29BC JUMP JUMPDEST DUP2 ADD DUP2 DUP2 LT PUSH8 0xFFFFFFFFFFFFFFFF DUP3 GT OR ISZERO PUSH2 0x2A24 JUMPI PUSH2 0x2A23 PUSH2 0x29CD JUMP JUMPDEST JUMPDEST DUP1 PUSH1 0x40 MSTORE POP POP POP JUMP JUMPDEST PUSH1 0x0 PUSH2 0x2A37 PUSH2 0x27A9 JUMP JUMPDEST SWAP1 POP PUSH2 0x2A43 DUP3 DUP3 PUSH2 0x29FC JUMP JUMPDEST SWAP2 SWAP1 POP JUMP JUMPDEST PUSH1 0x0 PUSH8 0xFFFFFFFFFFFFFFFF DUP3 GT ISZERO PUSH2 0x2A63 JUMPI PUSH2 0x2A62 PUSH2 0x29CD JUMP JUMPDEST JUMPDEST PUSH1 0x20 DUP3 MUL SWAP1 POP PUSH1 0x20 DUP2 ADD SWAP1 POP SWAP2 SWAP1 POP JUMP JUMPDEST PUSH1 0x0 PUSH2 0x2A87 PUSH2 0x2A82 DUP5 PUSH2 0x2A48 JUMP JUMPDEST PUSH2 0x2A2D JUMP JUMPDEST SWAP1 POP DUP1 DUP4 DUP3 MSTORE PUSH1 0x20 DUP3 ADD SWAP1 POP PUSH1 0x20 DUP5 MUL DUP4 ADD DUP6 DUP2 GT ISZERO PUSH2 0x2AAA JUMPI PUSH2 0x2AA9 PUSH2 0x288A JUMP JUMPDEST JUMPDEST DUP4 JUMPDEST DUP2 DUP2 LT ISZERO PUSH2 0x2AD3 JUMPI DUP1 PUSH2 0x2ABF DUP9 DUP3 PUSH2 0x27DE JUMP JUMPDEST DUP5 MSTORE PUSH1 0x20 DUP5 ADD SWAP4 POP POP PUSH1 0x20 DUP2 ADD SWAP1 POP PUSH2 0x2AAC JUMP JUMPDEST POP POP POP SWAP4 SWAP3 POP POP POP JUMP JUMPDEST PUSH1 0x0 DUP3 PUSH1 0x1F DUP4 ADD SLT PUSH2 0x2AF2 JUMPI PUSH2 0x2AF1 PUSH2 0x2880 JUMP JUMPDEST JUMPDEST DUP2 CALLDATALOAD PUSH2 0x2B02 DUP5 DUP3 PUSH1 0x20 DUP7 ADD PUSH2 0x2A74 JUMP JUMPDEST SWAP2 POP POP SWAP3 SWAP2 POP POP JUMP JUMPDEST PUSH1 0x0 DUP1 PUSH1 0x40 DUP4 DUP6 SUB SLT ISZERO PUSH2 0x2B22 JUMPI PUSH2 0x2B21 PUSH2 0x27B3 JUMP JUMPDEST JUMPDEST PUSH1 0x0 PUSH2 0x2B30 DUP6 DUP3 DUP7 ADD PUSH2 0x27DE JUMP JUMPDEST SWAP3 POP POP PUSH1 0x20 DUP4 ADD CALLDATALOAD PUSH8 0xFFFFFFFFFFFFFFFF DUP2 GT ISZERO PUSH2 0x2B51 JUMPI PUSH2 0x2B50 PUSH2 0x27B8 JUMP JUMPDEST JUMPDEST PUSH2 0x2B5D DUP6 DUP3 DUP7 ADD PUSH2 0x2ADD JUMP JUMPDEST SWAP2 POP POP SWAP3 POP SWAP3 SWAP1 POP JUMP JUMPDEST PUSH1 0x0 PUSH20 0xFFFFFFFFFFFFFFFFFFFFFFFFFFFFFFFFFFFFFFFF DUP3 AND SWAP1 POP SWAP2 SWAP1 POP JUMP JUMPDEST PUSH1 0x0 PUSH2 0x2B92 DUP3 PUSH2 0x2B67 JUMP JUMPDEST SWAP1 POP SWAP2 SWAP1 POP JUMP JUMPDEST PUSH2 0x2BA2 DUP2 PUSH2 0x2B87 JUMP JUMPDEST DUP2 EQ PUSH2 0x2BAD JUMPI PUSH1 0x0 DUP1 REVERT JUMPDEST POP JUMP JUMPDEST PUSH1 0x0 DUP2 CALLDATALOAD SWAP1 POP PUSH2 0x2BBF DUP2 PUSH2 0x2B99 JUMP JUMPDEST SWAP3 SWAP2 POP POP JUMP JUMPDEST PUSH1 0x0 PUSH1 0x20 DUP3 DUP5 SUB SLT ISZERO PUSH2 0x2BDB JUMPI PUSH2 0x2BDA PUSH2 0x27B3 JUMP JUMPDEST JUMPDEST PUSH1 0x0 PUSH2 0x2BE9 DUP5 DUP3 DUP6 ADD PUSH2 0x2BB0 JUMP JUMPDEST SWAP2 POP POP SWAP3 SWAP2 POP POP JUMP JUMPDEST PUSH1 0x0 DUP2 SWAP1 POP SWAP2 SWAP1 POP JUMP JUMPDEST PUSH2 0x2C05 DUP2 PUSH2 0x2BF2 JUMP JUMPDEST DUP3 MSTORE POP POP JUMP JUMPDEST PUSH1 0x0 PUSH1 0x20 DUP3 ADD SWAP1 POP PUSH2 0x2C20 PUSH1 0x0 DUP4 ADD DUP5 PUSH2 0x2BFC JUMP JUMPDEST SWAP3 SWAP2 POP POP JUMP JUMPDEST PUSH2 0x2C2F DUP2 PUSH2 0x2B87 JUMP JUMPDEST DUP3 MSTORE POP POP JUMP JUMPDEST PUSH1 0x0 PUSH1 0x20 DUP3 ADD SWAP1 POP PUSH2 0x2C4A PUSH1 0x0 DUP4 ADD DUP5 PUSH2 0x2C26 JUMP JUMPDEST SWAP3 SWAP2 POP POP JUMP JUMPDEST PUSH1 0x0 PUSH1 0xFF DUP3 AND SWAP1 POP SWAP2 SWAP1 POP JUMP JUMPDEST PUSH2 0x2C66 DUP2 PUSH2 0x2C50 JUMP JUMPDEST DUP2 EQ PUSH2 0x2C71 JUMPI PUSH1 0x0 DUP1 REVERT JUMPDEST POP JUMP JUMPDEST PUSH1 0x0 DUP2 CALLDATALOAD SWAP1 POP PUSH2 0x2C83 DUP2 PUSH2 0x2C5D JUMP JUMPDEST SWAP3 SWAP2 POP POP JUMP JUMPDEST PUSH2 0x2C92 DUP2 PUSH2 0x2BF2 JUMP JUMPDEST DUP2 EQ PUSH2 0x2C9D JUMPI PUSH1 0x0 DUP1 REVERT JUMPDEST POP JUMP JUMPDEST PUSH1 0x0 DUP2 CALLDATALOAD SWAP1 POP PUSH2 0x2CAF DUP2 PUSH2 0x2C89 JUMP JUMPDEST SWAP3 SWAP2 POP POP JUMP JUMPDEST PUSH1 0x0 DUP1 PUSH1 0x0 DUP1 PUSH1 0x0 PUSH1 0xA0 DUP7 DUP9 SUB SLT ISZERO PUSH2 0x2CD1 JUMPI PUSH2 0x2CD0 PUSH2 0x27B3 JUMP JUMPDEST JUMPDEST PUSH1 0x0 PUSH2 0x2CDF DUP9 DUP3 DUP10 ADD PUSH2 0x2BB0 JUMP JUMPDEST SWAP6 POP POP PUSH1 0x20 PUSH2 0x2CF0 DUP9 DUP3 DUP10 ADD PUSH2 0x27DE JUMP JUMPDEST SWAP5 POP POP PUSH1 0x40 PUSH2 0x2D01 DUP9 DUP3 DUP10 ADD PUSH2 0x2C74 JUMP JUMPDEST SWAP4 POP POP PUSH1 0x60 PUSH2 0x2D12 DUP9 DUP3 DUP10 ADD PUSH2 0x2CA0 JUMP JUMPDEST SWAP3 POP POP PUSH1 0x80 PUSH2 0x2D23 DUP9 DUP3 DUP10 ADD PUSH2 0x2CA0 JUMP JUMPDEST SWAP2 POP POP SWAP3 SWAP6 POP SWAP3 SWAP6 SWAP1 SWAP4 POP JUMP JUMPDEST PUSH1 0x0 DUP1 PUSH1 0x0 DUP1 PUSH1 0x0 DUP1 PUSH1 0xC0 DUP8 DUP10 SUB SLT ISZERO PUSH2 0x2D4D JUMPI PUSH2 0x2D4C PUSH2 0x27B3 JUMP JUMPDEST JUMPDEST PUSH1 0x0 PUSH2 0x2D5B DUP10 DUP3 DUP11 ADD PUSH2 0x2BB0 JUMP JUMPDEST SWAP7 POP POP PUSH1 0x20 PUSH2 0x2D6C DUP10 DUP3 DUP11 ADD PUSH2 0x27DE JUMP JUMPDEST SWAP6 POP POP PUSH1 0x40 PUSH2 0x2D7D DUP10 DUP3 DUP11 ADD PUSH2 0x27DE JUMP JUMPDEST SWAP5 POP POP PUSH1 0x60 PUSH2 0x2D8E DUP10 DUP3 DUP11 ADD PUSH2 0x2C74 JUMP JUMPDEST SWAP4 POP POP PUSH1 0x80 PUSH2 0x2D9F DUP10 DUP3 DUP11 ADD PUSH2 0x2CA0 JUMP JUMPDEST SWAP3 POP POP PUSH1 0xA0 PUSH2 0x2DB0 DUP10 DUP3 DUP11 ADD PUSH2 0x2CA0 JUMP JUMPDEST SWAP2 POP POP SWAP3 SWAP6 POP SWAP3 SWAP6 POP SWAP3 SWAP6 JUMP JUMPDEST PUSH1 0x0 DUP1 PUSH1 0x40 DUP4 DUP6 SUB SLT ISZERO PUSH2 0x2DD4 JUMPI PUSH2 0x2DD3 PUSH2 0x27B3 JUMP JUMPDEST JUMPDEST PUSH1 0x0 PUSH2 0x2DE2 DUP6 DUP3 DUP7 ADD PUSH2 0x2BB0 JUMP JUMPDEST SWAP3 POP POP PUSH1 0x20 PUSH2 0x2DF3 DUP6 DUP3 DUP7 ADD PUSH2 0x27DE JUMP JUMPDEST SWAP2 POP POP SWAP3 POP SWAP3 SWAP1 POP JUMP JUMPDEST PUSH1 0x0 DUP2 MLOAD SWAP1 POP SWAP2 SWAP1 POP JUMP JUMPDEST PUSH1 0x0 DUP3 DUP3 MSTORE PUSH1 0x20 DUP3 ADD SWAP1 POP SWAP3 SWAP2 POP POP JUMP JUMPDEST PUSH1 0x0 DUP2 SWAP1 POP PUSH1 0x20 DUP3 ADD SWAP1 POP SWAP2 SWAP1 POP JUMP JUMPDEST PUSH2 0x2E32 DUP2 PUSH2 0x27BD JUMP JUMPDEST DUP3 MSTORE POP POP JUMP JUMPDEST PUSH1 0x0 PUSH2 0x2E44 DUP4 DUP4 PUSH2 0x2E29 JUMP JUMPDEST PUSH1 0x20 DUP4 ADD SWAP1 POP SWAP3 SWAP2 POP POP JUMP JUMPDEST PUSH1 0x0 PUSH1 0x20 DUP3 ADD SWAP1 POP SWAP2 SWAP1 POP JUMP JUMPDEST PUSH1 0x0 PUSH2 0x2E68 DUP3 PUSH2 0x2DFD JUMP JUMPDEST PUSH2 0x2E72 DUP2 DUP6 PUSH2 0x2E08 JUMP JUMPDEST SWAP4 POP PUSH2 0x2E7D DUP4 PUSH2 0x2E19 JUMP JUMPDEST DUP1 PUSH1 0x0 JUMPDEST DUP4 DUP2 LT ISZERO PUSH2 0x2EAE JUMPI DUP2 MLOAD PUSH2 0x2E95 DUP9 DUP3 PUSH2 0x2E38 JUMP JUMPDEST SWAP8 POP PUSH2 0x2EA0 DUP4 PUSH2 0x2E50 JUMP JUMPDEST SWAP3 POP POP PUSH1 0x1 DUP2 ADD SWAP1 POP PUSH2 0x2E81 JUMP JUMPDEST POP DUP6 SWAP4 POP POP POP POP SWAP3 SWAP2 POP POP JUMP JUMPDEST PUSH1 0x0 PUSH1 0x20 DUP3 ADD SWAP1 POP DUP2 DUP2 SUB PUSH1 0x0 DUP4 ADD MSTORE PUSH2 0x2ED5 DUP2 DUP5 PUSH2 0x2E5D JUMP JUMPDEST SWAP1 POP SWAP3 SWAP2 POP POP JUMP JUMPDEST PUSH1 0x0 DUP1 PUSH1 0x0 PUSH1 0x60 DUP5 DUP7 SUB SLT ISZERO PUSH2 0x2EF6 JUMPI PUSH2 0x2EF5 PUSH2 0x27B3 JUMP JUMPDEST JUMPDEST PUSH1 0x0 PUSH2 0x2F04 DUP7 DUP3 DUP8 ADD PUSH2 0x2BB0 JUMP JUMPDEST SWAP4 POP POP PUSH1 0x20 PUSH2 0x2F15 DUP7 DUP3 DUP8 ADD PUSH2 0x27DE JUMP JUMPDEST SWAP3 POP POP PUSH1 0x40 PUSH2 0x2F26 DUP7 DUP3 DUP8 ADD PUSH2 0x27DE JUMP JUMPDEST SWAP2 POP POP SWAP3 POP SWAP3 POP SWAP3 JUMP JUMPDEST PUSH1 0x0 PUSH1 0x60 DUP3 ADD SWAP1 POP PUSH2 0x2F45 PUSH1 0x0 DUP4 ADD DUP7 PUSH2 0x2856 JUMP JUMPDEST PUSH2 0x2F52 PUSH1 0x20 DUP4 ADD DUP6 PUSH2 0x2856 JUMP JUMPDEST PUSH2 0x2F5F PUSH1 0x40 DUP4 ADD DUP5 PUSH2 0x2820 JUMP JUMPDEST SWAP5 SWAP4 POP POP POP POP JUMP JUMPDEST PUSH1 0x0 DUP1 DUP4 PUSH1 0x1F DUP5 ADD SLT PUSH2 0x2F7D JUMPI PUSH2 0x2F7C PUSH2 0x2880 JUMP JUMPDEST JUMPDEST DUP3 CALLDATALOAD SWAP1 POP PUSH8 0xFFFFFFFFFFFFFFFF DUP2 GT ISZERO PUSH2 0x2F9A JUMPI PUSH2 0x2F99 PUSH2 0x2885 JUMP JUMPDEST JUMPDEST PUSH1 0x20 DUP4 ADD SWAP2 POP DUP4 PUSH1 0x20 DUP3 MUL DUP4 ADD GT ISZERO PUSH2 0x2FB6 JUMPI PUSH2 0x2FB5 PUSH2 0x288A JUMP JUMPDEST JUMPDEST SWAP3 POP SWAP3 SWAP1 POP JUMP JUMPDEST PUSH1 0x0 DUP1 DUP4 PUSH1 0x1F DUP5 ADD SLT PUSH2 0x2FD3 JUMPI PUSH2 0x2FD2 PUSH2 0x2880 JUMP JUMPDEST JUMPDEST DUP3 CALLDATALOAD SWAP1 POP PUSH8 0xFFFFFFFFFFFFFFFF DUP2 GT ISZERO PUSH2 0x2FF0 JUMPI PUSH2 0x2FEF PUSH2 0x2885 JUMP JUMPDEST JUMPDEST PUSH1 0x20 DUP4 ADD SWAP2 POP DUP4 PUSH1 0x20 DUP3 MUL DUP4 ADD GT ISZERO PUSH2 0x300C JUMPI PUSH2 0x300B PUSH2 0x288A JUMP JUMPDEST JUMPDEST SWAP3 POP SWAP3 SWAP1 POP JUMP JUMPDEST PUSH1 0x0 DUP1 PUSH1 0x0 DUP1 PUSH1 0x0 DUP1 PUSH1 0x0 DUP1 PUSH1 0x0 DUP1 PUSH1 0xA0 DUP12 DUP14 SUB SLT ISZERO PUSH2 0x3036 JUMPI PUSH2 0x3035 PUSH2 0x27B3 JUMP JUMPDEST JUMPDEST PUSH1 0x0 DUP12 ADD CALLDATALOAD PUSH8 0xFFFFFFFFFFFFFFFF DUP2 GT ISZERO PUSH2 0x3054 JUMPI PUSH2 0x3053 PUSH2 0x27B8 JUMP JUMPDEST JUMPDEST PUSH2 0x3060 DUP14 DUP3 DUP15 ADD PUSH2 0x288F JUMP JUMPDEST SWAP11 POP SWAP11 POP POP PUSH1 0x20 DUP12 ADD CALLDATALOAD PUSH8 0xFFFFFFFFFFFFFFFF DUP2 GT ISZERO PUSH2 0x3083 JUMPI PUSH2 0x3082 PUSH2 0x27B8 JUMP JUMPDEST JUMPDEST PUSH2 0x308F DUP14 DUP3 DUP15 ADD PUSH2 0x28E5 JUMP JUMPDEST SWAP9 POP SWAP9 POP POP PUSH1 0x40 DUP12 ADD CALLDATALOAD PUSH8 0xFFFFFFFFFFFFFFFF DUP2 GT ISZERO PUSH2 0x30B2 JUMPI PUSH2 0x30B1 PUSH2 0x27B8 JUMP JUMPDEST JUMPDEST PUSH2 0x30BE DUP14 DUP3 DUP15 ADD PUSH2 0x2F67 JUMP JUMPDEST SWAP7 POP SWAP7 POP POP PUSH1 0x60 DUP12 ADD CALLDATALOAD PUSH8 0xFFFFFFFFFFFFFFFF DUP2 GT ISZERO PUSH2 0x30E1 JUMPI PUSH2 0x30E0 PUSH2 0x27B8 JUMP JUMPDEST JUMPDEST PUSH2 0x30ED DUP14 DUP3 DUP15 ADD PUSH2 0x2FBD JUMP JUMPDEST SWAP5 POP SWAP5 POP POP PUSH1 0x80 DUP12 ADD CALLDATALOAD PUSH8 0xFFFFFFFFFFFFFFFF DUP2 GT ISZERO PUSH2 0x3110 JUMPI PUSH2 0x310F PUSH2 0x27B8 JUMP JUMPDEST JUMPDEST PUSH2 0x311C DUP14 DUP3 DUP15 ADD PUSH2 0x2FBD JUMP JUMPDEST SWAP3 POP SWAP3 POP POP SWAP3 SWAP6 SWAP9 SWAP12 SWAP2 SWAP5 SWAP8 SWAP11 POP SWAP3 SWAP6 SWAP9 POP JUMP JUMPDEST PUSH1 0x0 DUP2 MLOAD SWAP1 POP SWAP2 SWAP1 POP JUMP JUMPDEST PUSH1 0x0 DUP3 DUP3 MSTORE PUSH1 0x20 DUP3 ADD SWAP1 POP SWAP3 SWAP2 POP POP JUMP JUMPDEST PUSH1 0x0 JUMPDEST DUP4 DUP2 LT ISZERO PUSH2 0x316A JUMPI DUP1 DUP3 ADD MLOAD DUP2 DUP5 ADD MSTORE PUSH1 0x20 DUP2 ADD SWAP1 POP PUSH2 0x314F JUMP JUMPDEST DUP4 DUP2 GT ISZERO PUSH2 0x3179 JUMPI PUSH1 0x0 DUP5 DUP5 ADD MSTORE JUMPDEST POP POP POP POP JUMP JUMPDEST PUSH1 0x0 PUSH2 0x318A DUP3 PUSH2 0x3130 JUMP JUMPDEST PUSH2 0x3194 DUP2 DUP6 PUSH2 0x313B JUMP JUMPDEST SWAP4 POP PUSH2 0x31A4 DUP2 DUP6 PUSH1 0x20 DUP7 ADD PUSH2 0x314C JUMP JUMPDEST PUSH2 0x31AD DUP2 PUSH2 0x29BC JUMP JUMPDEST DUP5 ADD SWAP2 POP POP SWAP3 SWAP2 POP POP JUMP JUMPDEST PUSH1 0x0 PUSH1 0x20 DUP3 ADD SWAP1 POP DUP2 DUP2 SUB PUSH1 0x0 DUP4 ADD MSTORE PUSH2 0x31D2 DUP2 DUP5 PUSH2 0x317F JUMP JUMPDEST SWAP1 POP SWAP3 SWAP2 POP POP JUMP JUMPDEST PUSH1 0x0 PUSH1 0xA0 DUP3 ADD SWAP1 POP PUSH2 0x31EF PUSH1 0x0 DUP4 ADD DUP9 PUSH2 0x2820 JUMP JUMPDEST PUSH2 0x31FC PUSH1 0x20 DUP4 ADD DUP8 PUSH2 0x2820 JUMP JUMPDEST PUSH2 0x3209 PUSH1 0x40 DUP4 ADD DUP7 PUSH2 0x2820 JUMP JUMPDEST PUSH2 0x3216 PUSH1 0x60 DUP4 ADD DUP6 PUSH2 0x2820 JUMP JUMPDEST PUSH2 0x3223 PUSH1 0x80 DUP4 ADD DUP5 PUSH2 0x2820 JUMP JUMPDEST SWAP7 SWAP6 POP POP POP POP POP POP JUMP JUMPDEST PUSH1 0x0 PUSH1 0x80 DUP3 ADD SWAP1 POP DUP2 DUP2 SUB PUSH1 0x0 DUP4 ADD MSTORE PUSH2 0x3247 DUP2 DUP8 PUSH2 0x317F JUMP JUMPDEST SWAP1 POP DUP2 DUP2 SUB PUSH1 0x20 DUP4 ADD MSTORE PUSH2 0x325B DUP2 DUP7 PUSH2 0x317F JUMP JUMPDEST SWAP1 POP PUSH2 0x326A PUSH1 0x40 DUP4 ADD DUP6 PUSH2 0x2820 JUMP JUMPDEST PUSH2 0x3277 PUSH1 0x60 DUP4 ADD DUP5 PUSH2 0x2C26 JUMP JUMPDEST SWAP6 SWAP5 POP POP POP POP POP JUMP JUMPDEST PUSH32 0x4C75636B7942616C6C3A2063616C6C6572206973206E6F7420746865206F7065 PUSH1 0x0 DUP3 ADD MSTORE PUSH32 0x7261746F72206164647265737321000000000000000000000000000000000000 PUSH1 0x20 DUP3 ADD MSTORE POP JUMP JUMPDEST PUSH1 0x0 PUSH2 0x32DC PUSH1 0x2E DUP4 PUSH2 0x313B JUMP JUMPDEST SWAP2 POP PUSH2 0x32E7 DUP3 PUSH2 0x3280 JUMP JUMPDEST PUSH1 0x40 DUP3 ADD SWAP1 POP SWAP2 SWAP1 POP JUMP JUMPDEST PUSH1 0x0 PUSH1 0x20 DUP3 ADD SWAP1 POP DUP2 DUP2 SUB PUSH1 0x0 DUP4 ADD MSTORE PUSH2 0x330B DUP2 PUSH2 0x32CF JUMP JUMPDEST SWAP1 POP SWAP2 SWAP1 POP JUMP JUMPDEST PUSH32 0x4C75636B42616C6C3A206164647265737320616E642071747920636F756E7473 PUSH1 0x0 DUP3 ADD MSTORE PUSH32 0x20646F206E6F74206D6174636800000000000000000000000000000000000000 PUSH1 0x20 DUP3 ADD MSTORE POP JUMP JUMPDEST PUSH1 0x0 PUSH2 0x336E PUSH1 0x2D DUP4 PUSH2 0x313B JUMP JUMPDEST SWAP2 POP PUSH2 0x3379 DUP3 PUSH2 0x3312 JUMP JUMPDEST PUSH1 0x40 DUP3 ADD SWAP1 POP SWAP2 SWAP1 POP JUMP JUMPDEST PUSH1 0x0 PUSH1 0x20 DUP3 ADD SWAP1 POP DUP2 DUP2 SUB PUSH1 0x0 DUP4 ADD MSTORE PUSH2 0x339D DUP2 PUSH2 0x3361 JUMP JUMPDEST SWAP1 POP SWAP2 SWAP1 POP JUMP JUMPDEST PUSH32 0x4C75636B7942616C6C3A20536561736F6E206973206E6F742061637469766500 PUSH1 0x0 DUP3 ADD MSTORE POP JUMP JUMPDEST PUSH1 0x0 PUSH2 0x33DA PUSH1 0x1F DUP4 PUSH2 0x313B JUMP JUMPDEST SWAP2 POP PUSH2 0x33E5 DUP3 PUSH2 0x33A4 JUMP JUMPDEST PUSH1 0x20 DUP3 ADD SWAP1 POP SWAP2 SWAP1 POP JUMP JUMPDEST PUSH1 0x0 PUSH1 0x20 DUP3 ADD SWAP1 POP DUP2 DUP2 SUB PUSH1 0x0 DUP4 ADD MSTORE PUSH2 0x3409 DUP2 PUSH2 0x33CD JUMP JUMPDEST SWAP1 POP SWAP2 SWAP1 POP JUMP JUMPDEST PUSH32 0x4E487B7100000000000000000000000000000000000000000000000000000000 PUSH1 0x0 MSTORE PUSH1 0x32 PUSH1 0x4 MSTORE PUSH1 0x24 PUSH1 0x0 REVERT JUMPDEST PUSH32 0x4C75636B7942616C6C3A207174792073686F756C642062652062696767657220 PUSH1 0x0 DUP3 ADD MSTORE PUSH32 0x7468616E20300000000000000000000000000000000000000000000000000000 PUSH1 0x20 DUP3 ADD MSTORE POP JUMP JUMPDEST PUSH1 0x0 PUSH2 0x349B PUSH1 0x26 DUP4 PUSH2 0x313B JUMP JUMPDEST SWAP2 POP PUSH2 0x34A6 DUP3 PUSH2 0x343F JUMP JUMPDEST PUSH1 0x40 DUP3 ADD SWAP1 POP SWAP2 SWAP1 POP JUMP JUMPDEST PUSH1 0x0 PUSH1 0x20 DUP3 ADD SWAP1 POP DUP2 DUP2 SUB PUSH1 0x0 DUP4 ADD MSTORE PUSH2 0x34CA DUP2 PUSH2 0x348E JUMP JUMPDEST SWAP1 POP SWAP2 SWAP1 POP JUMP JUMPDEST PUSH32 0x4E487B7100000000000000000000000000000000000000000000000000000000 PUSH1 0x0 MSTORE PUSH1 0x11 PUSH1 0x4 MSTORE PUSH1 0x24 PUSH1 0x0 REVERT JUMPDEST PUSH1 0x0 PUSH2 0x350B DUP3 PUSH2 0x27BD JUMP JUMPDEST SWAP2 POP PUSH2 0x3516 DUP4 PUSH2 0x27BD JUMP JUMPDEST SWAP3 POP DUP3 PUSH32 0xFFFFFFFFFFFFFFFFFFFFFFFFFFFFFFFFFFFFFFFFFFFFFFFFFFFFFFFFFFFFFFFF SUB DUP3 GT ISZERO PUSH2 0x354B JUMPI PUSH2 0x354A PUSH2 0x34D1 JUMP JUMPDEST JUMPDEST DUP3 DUP3 ADD SWAP1 POP SWAP3 SWAP2 POP POP JUMP JUMPDEST PUSH1 0x0 PUSH2 0x3561 DUP3 PUSH2 0x27BD JUMP JUMPDEST SWAP2 POP PUSH2 0x356C DUP4 PUSH2 0x27BD JUMP JUMPDEST SWAP3 POP DUP3 DUP3 LT ISZERO PUSH2 0x357F JUMPI PUSH2 0x357E PUSH2 0x34D1 JUMP JUMPDEST JUMPDEST DUP3 DUP3 SUB SWAP1 POP SWAP3 SWAP2 POP POP JUMP JUMPDEST PUSH1 0x0 PUSH1 0x60 DUP3 ADD SWAP1 POP PUSH2 0x359F PUSH1 0x0 DUP4 ADD DUP7 PUSH2 0x2820 JUMP JUMPDEST PUSH2 0x35AC PUSH1 0x20 DUP4 ADD DUP6 PUSH2 0x2820 JUMP JUMPDEST PUSH2 0x35B9 PUSH1 0x40 DUP4 ADD DUP5 PUSH2 0x2820 JUMP JUMPDEST SWAP5 SWAP4 POP POP POP POP JUMP JUMPDEST PUSH1 0x0 PUSH2 0x35CC DUP3 PUSH2 0x27BD JUMP JUMPDEST SWAP2 POP PUSH32 0xFFFFFFFFFFFFFFFFFFFFFFFFFFFFFFFFFFFFFFFFFFFFFFFFFFFFFFFFFFFFFFFF DUP3 EQ ISZERO PUSH2 0x35FF JUMPI PUSH2 0x35FE PUSH2 0x34D1 JUMP JUMPDEST JUMPDEST PUSH1 0x1 DUP3 ADD SWAP1 POP SWAP2 SWAP1 POP JUMP JUMPDEST PUSH1 0x0 PUSH1 0x40 DUP3 ADD SWAP1 POP PUSH2 0x361F PUSH1 0x0 DUP4 ADD DUP6 PUSH2 0x2C26 JUMP JUMPDEST PUSH2 0x362C PUSH1 0x20 DUP4 ADD DUP5 PUSH2 0x2C26 JUMP JUMPDEST SWAP4 SWAP3 POP POP POP JUMP JUMPDEST PUSH32 0x4C75636B7942616C6C3A206578706972656420646561646C696E650000000000 PUSH1 0x0 DUP3 ADD MSTORE POP JUMP JUMPDEST PUSH1 0x0 PUSH2 0x3669 PUSH1 0x1B DUP4 PUSH2 0x313B JUMP JUMPDEST SWAP2 POP PUSH2 0x3674 DUP3 PUSH2 0x3633 JUMP JUMPDEST PUSH1 0x20 DUP3 ADD SWAP1 POP SWAP2 SWAP1 POP JUMP JUMPDEST PUSH1 0x0 PUSH1 0x20 DUP3 ADD SWAP1 POP DUP2 DUP2 SUB PUSH1 0x0 DUP4 ADD MSTORE PUSH2 0x3698 DUP2 PUSH2 0x365C JUMP JUMPDEST SWAP1 POP SWAP2 SWAP1 POP JUMP JUMPDEST PUSH32 0x4C75636B7942616C6C3A20757365722073696720646F6573206E6F74206D6174 PUSH1 0x0 DUP3 ADD MSTORE PUSH32 0x6368000000000000000000000000000000000000000000000000000000000000 PUSH1 0x20 DUP3 ADD MSTORE POP JUMP JUMPDEST PUSH1 0x0 PUSH2 0x36FB PUSH1 0x22 DUP4 PUSH2 0x313B JUMP JUMPDEST SWAP2 POP PUSH2 0x3706 DUP3 PUSH2 0x369F JUMP JUMPDEST PUSH1 0x40 DUP3 ADD SWAP1 POP SWAP2 SWAP1 POP JUMP JUMPDEST PUSH1 0x0 PUSH1 0x20 DUP3 ADD SWAP1 POP DUP2 DUP2 SUB PUSH1 0x0 DUP4 ADD MSTORE PUSH2 0x372A DUP2 PUSH2 0x36EE JUMP JUMPDEST SWAP1 POP SWAP2 SWAP1 POP JUMP JUMPDEST PUSH1 0x0 PUSH2 0x373C DUP3 PUSH2 0x2C50 JUMP JUMPDEST SWAP2 POP PUSH2 0x3747 DUP4 PUSH2 0x2C50 JUMP JUMPDEST SWAP3 POP DUP3 PUSH1 0xFF SUB DUP3 GT ISZERO PUSH2 0x375D JUMPI PUSH2 0x375C PUSH2 0x34D1 JUMP JUMPDEST JUMPDEST DUP3 DUP3 ADD SWAP1 POP SWAP3 SWAP2 POP POP JUMP JUMPDEST PUSH2 0x3771 DUP2 PUSH2 0x2C50 JUMP JUMPDEST DUP3 MSTORE POP POP JUMP JUMPDEST PUSH1 0x0 PUSH1 0x80 DUP3 ADD SWAP1 POP PUSH2 0x378C PUSH1 0x0 DUP4 ADD DUP8 PUSH2 0x2BFC JUMP JUMPDEST PUSH2 0x3799 PUSH1 0x20 DUP4 ADD DUP7 PUSH2 0x3768 JUMP JUMPDEST PUSH2 0x37A6 PUSH1 0x40 DUP4 ADD DUP6 PUSH2 0x2BFC JUMP JUMPDEST PUSH2 0x37B3 PUSH1 0x60 DUP4 ADD DUP5 PUSH2 0x2BFC JUMP JUMPDEST SWAP6 SWAP5 POP POP POP POP POP JUMP JUMPDEST PUSH1 0x0 PUSH1 0x20 DUP3 DUP5 SUB SLT ISZERO PUSH2 0x37D2 JUMPI PUSH2 0x37D1 PUSH2 0x27B3 JUMP JUMPDEST JUMPDEST PUSH1 0x0 PUSH2 0x37E0 DUP5 DUP3 DUP6 ADD PUSH2 0x2C74 JUMP JUMPDEST SWAP2 POP POP SWAP3 SWAP2 POP POP JUMP JUMPDEST PUSH1 0x0 DUP2 SWAP1 POP SWAP3 SWAP2 POP POP JUMP JUMPDEST PUSH1 0x0 PUSH2 0x37FF DUP3 PUSH2 0x3130 JUMP JUMPDEST PUSH2 0x3809 DUP2 DUP6 PUSH2 0x37E9 JUMP JUMPDEST SWAP4 POP PUSH2 0x3819 DUP2 DUP6 PUSH1 0x20 DUP7 ADD PUSH2 0x314C JUMP JUMPDEST DUP1 DUP5 ADD SWAP2 POP POP SWAP3 SWAP2 POP POP JUMP JUMPDEST PUSH1 0x0 PUSH2 0x3831 DUP3 DUP5 PUSH2 0x37F4 JUMP JUMPDEST SWAP2 POP DUP2 SWAP1 POP SWAP3 SWAP2 POP POP JUMP JUMPDEST PUSH1 0x0 PUSH1 0x80 DUP3 ADD SWAP1 POP PUSH2 0x3851 PUSH1 0x0 DUP4 ADD DUP8 PUSH2 0x2BFC JUMP JUMPDEST PUSH2 0x385E PUSH1 0x20 DUP4 ADD DUP7 PUSH2 0x2C26 JUMP JUMPDEST PUSH2 0x386B PUSH1 0x40 DUP4 ADD DUP6 PUSH2 0x2820 JUMP JUMPDEST PUSH2 0x3878 PUSH1 0x60 DUP4 ADD DUP5 PUSH2 0x2820 JUMP JUMPDEST SWAP6 SWAP5 POP POP POP POP POP JUMP JUMPDEST PUSH32 0x1901000000000000000000000000000000000000000000000000000000000000 PUSH1 0x0 DUP3 ADD MSTORE POP JUMP JUMPDEST PUSH1 0x0 PUSH2 0x38B7 PUSH1 0x2 DUP4 PUSH2 0x37E9 JUMP JUMPDEST SWAP2 POP PUSH2 0x38C2 DUP3 PUSH2 0x3881 JUMP JUMPDEST PUSH1 0x2 DUP3 ADD SWAP1 POP SWAP2 SWAP1 POP JUMP JUMPDEST PUSH1 0x0 DUP2 SWAP1 POP SWAP2 SWAP1 POP JUMP JUMPDEST PUSH2 0x38E8 PUSH2 0x38E3 DUP3 PUSH2 0x2BF2 JUMP JUMPDEST PUSH2 0x38CD JUMP JUMPDEST DUP3 MSTORE POP POP JUMP JUMPDEST PUSH1 0x0 PUSH2 0x38F9 DUP3 PUSH2 0x38AA JUMP JUMPDEST SWAP2 POP PUSH2 0x3905 DUP3 DUP6 PUSH2 0x38D7 JUMP JUMPDEST PUSH1 0x20 DUP3 ADD SWAP2 POP PUSH2 0x3915 DUP3 DUP5 PUSH2 0x38D7 JUMP JUMPDEST PUSH1 0x20 DUP3 ADD SWAP2 POP DUP2 SWAP1 POP SWAP4 SWAP3 POP POP POP JUMP JUMPDEST PUSH32 0x4C75636B7942616C6C3A2063616C6C6572206973206E6F7420746865206F776E PUSH1 0x0 DUP3 ADD MSTORE PUSH32 0x6572206164647265737321000000000000000000000000000000000000000000 PUSH1 0x20 DUP3 ADD MSTORE POP JUMP JUMPDEST PUSH1 0x0 PUSH2 0x3981 PUSH1 0x2B DUP4 PUSH2 0x313B JUMP JUMPDEST SWAP2 POP PUSH2 0x398C DUP3 PUSH2 0x3925 JUMP JUMPDEST PUSH1 0x40 DUP3 ADD SWAP1 POP SWAP2 SWAP1 POP JUMP JUMPDEST PUSH1 0x0 PUSH1 0x20 DUP3 ADD SWAP1 POP DUP2 DUP2 SUB PUSH1 0x0 DUP4 ADD MSTORE PUSH2 0x39B0 DUP2 PUSH2 0x3974 JUMP JUMPDEST SWAP1 POP SWAP2 SWAP1 POP JUMP JUMPDEST PUSH1 0x0 DUP2 SWAP1 POP SWAP2 SWAP1 POP JUMP JUMPDEST PUSH2 0x39D2 PUSH2 0x39CD DUP3 PUSH2 0x27BD JUMP JUMPDEST PUSH2 0x39B7 JUMP JUMPDEST DUP3 MSTORE POP POP JUMP JUMPDEST PUSH1 0x0 PUSH2 0x39E4 DUP3 DUP6 PUSH2 0x39C1 JUMP JUMPDEST PUSH1 0x20 DUP3 ADD SWAP2 POP PUSH2 0x39F4 DUP3 DUP5 PUSH2 0x39C1 JUMP JUMPDEST PUSH1 0x20 DUP3 ADD SWAP2 POP DUP2 SWAP1 POP SWAP4 SWAP3 POP POP POP JUMP JUMPDEST PUSH32 0x4C75636B7942616C6C3A2062616C6C4964206973206F7574206F662072616E67 PUSH1 0x0 DUP3 ADD MSTORE PUSH32 0x6500000000000000000000000000000000000000000000000000000000000000 PUSH1 0x20 DUP3 ADD MSTORE POP JUMP JUMPDEST PUSH1 0x0 PUSH2 0x3A60 PUSH1 0x21 DUP4 PUSH2 0x313B JUMP JUMPDEST SWAP2 POP PUSH2 0x3A6B DUP3 PUSH2 0x3A04 JUMP JUMPDEST PUSH1 0x40 DUP3 ADD SWAP1 POP SWAP2 SWAP1 POP JUMP JUMPDEST PUSH1 0x0 PUSH1 0x20 DUP3 ADD SWAP1 POP DUP2 DUP2 SUB PUSH1 0x0 DUP4 ADD MSTORE PUSH2 0x3A8F DUP2 PUSH2 0x3A53 JUMP JUMPDEST SWAP1 POP SWAP2 SWAP1 POP JUMP JUMPDEST PUSH32 0x4C75636B42616C6C3A204E6F2062616C6C206973737565640000000000000000 PUSH1 0x0 DUP3 ADD MSTORE POP JUMP JUMPDEST PUSH1 0x0 PUSH2 0x3ACC PUSH1 0x18 DUP4 PUSH2 0x313B JUMP JUMPDEST SWAP2 POP PUSH2 0x3AD7 DUP3 PUSH2 0x3A96 JUMP JUMPDEST PUSH1 0x20 DUP3 ADD SWAP1 POP SWAP2 SWAP1 POP JUMP JUMPDEST PUSH1 0x0 PUSH1 0x20 DUP3 ADD SWAP1 POP DUP2 DUP2 SUB PUSH1 0x0 DUP4 ADD MSTORE PUSH2 0x3AFB DUP2 PUSH2 0x3ABF JUMP JUMPDEST SWAP1 POP SWAP2 SWAP1 POP JUMP JUMPDEST PUSH1 0x0 PUSH2 0x3B0D DUP3 PUSH2 0x27BD JUMP JUMPDEST SWAP2 POP PUSH1 0x0 DUP3 EQ ISZERO PUSH2 0x3B21 JUMPI PUSH2 0x3B20 PUSH2 0x34D1 JUMP JUMPDEST JUMPDEST PUSH1 0x1 DUP3 SUB SWAP1 POP SWAP2 SWAP1 POP JUMP JUMPDEST PUSH32 0x42616C6C4964206973206E6F7420666F756E6400000000000000000000000000 PUSH1 0x0 DUP3 ADD MSTORE POP JUMP JUMPDEST PUSH1 0x0 PUSH2 0x3B62 PUSH1 0x13 DUP4 PUSH2 0x313B JUMP JUMPDEST SWAP2 POP PUSH2 0x3B6D DUP3 PUSH2 0x3B2C JUMP JUMPDEST PUSH1 0x20 DUP3 ADD SWAP1 POP SWAP2 SWAP1 POP JUMP JUMPDEST PUSH1 0x0 PUSH1 0x20 DUP3 ADD SWAP1 POP DUP2 DUP2 SUB PUSH1 0x0 DUP4 ADD MSTORE PUSH2 0x3B91 DUP2 PUSH2 0x3B55 JUMP JUMPDEST SWAP1 POP SWAP2 SWAP1 POP JUMP JUMPDEST PUSH1 0x0 PUSH8 0xFFFFFFFFFFFFFFFF DUP3 AND SWAP1 POP SWAP2 SWAP1 POP JUMP JUMPDEST PUSH2 0x3BB5 DUP2 PUSH2 0x3B98 JUMP JUMPDEST DUP3 MSTORE POP POP JUMP JUMPDEST PUSH1 0x0 PUSH2 0xFFFF DUP3 AND SWAP1 POP SWAP2 SWAP1 POP JUMP JUMPDEST PUSH2 0x3BD2 DUP2 PUSH2 0x3BBB JUMP JUMPDEST DUP3 MSTORE POP POP JUMP JUMPDEST PUSH1 0x0 PUSH4 0xFFFFFFFF DUP3 AND SWAP1 POP SWAP2 SWAP1 POP JUMP JUMPDEST PUSH2 0x3BF1 DUP2 PUSH2 0x3BD8 JUMP JUMPDEST DUP3 MSTORE POP POP JUMP JUMPDEST PUSH1 0x0 PUSH1 0xA0 DUP3 ADD SWAP1 POP PUSH2 0x3C0C PUSH1 0x0 DUP4 ADD DUP9 PUSH2 0x2BFC JUMP JUMPDEST PUSH2 0x3C19 PUSH1 0x20 DUP4 ADD DUP8 PUSH2 0x3BAC JUMP JUMPDEST PUSH2 0x3C26 PUSH1 0x40 DUP4 ADD DUP7 PUSH2 0x3BC9 JUMP JUMPDEST PUSH2 0x3C33 PUSH1 0x60 DUP4 ADD DUP6 PUSH2 0x3BE8 JUMP JUMPDEST PUSH2 0x3C40 PUSH1 0x80 DUP4 ADD DUP5 PUSH2 0x3BE8 JUMP JUMPDEST SWAP7 SWAP6 POP POP POP POP POP POP JUMP JUMPDEST PUSH1 0x0 DUP2 MLOAD SWAP1 POP PUSH2 0x3C59 DUP2 PUSH2 0x27C7 JUMP JUMPDEST SWAP3 SWAP2 POP POP JUMP JUMPDEST PUSH1 0x0 PUSH1 0x20 DUP3 DUP5 SUB SLT ISZERO PUSH2 0x3C75 JUMPI PUSH2 0x3C74 PUSH2 0x27B3 JUMP JUMPDEST JUMPDEST PUSH1 0x0 PUSH2 0x3C83 DUP5 DUP3 DUP6 ADD PUSH2 0x3C4A JUMP JUMPDEST SWAP2 POP POP SWAP3 SWAP2 POP POP JUMP JUMPDEST PUSH32 0x4C75636B7942616C6C3A204E6F2062616C6C7320746F2072657665616C000000 PUSH1 0x0 DUP3 ADD MSTORE POP JUMP JUMPDEST PUSH1 0x0 PUSH2 0x3CC2 PUSH1 0x1D DUP4 PUSH2 0x313B JUMP JUMPDEST SWAP2 POP PUSH2 0x3CCD DUP3 PUSH2 0x3C8C JUMP JUMPDEST PUSH1 0x20 DUP3 ADD SWAP1 POP SWAP2 SWAP1 POP JUMP JUMPDEST PUSH1 0x0 PUSH1 0x20 DUP3 ADD SWAP1 POP DUP2 DUP2 SUB PUSH1 0x0 DUP4 ADD MSTORE PUSH2 0x3CF1 DUP2 PUSH2 0x3CB5 JUMP JUMPDEST SWAP1 POP SWAP2 SWAP1 POP JUMP JUMPDEST PUSH32 0x4C75636B7942616C6C3A204E6F206E65772062616C6C7320746F207265766561 PUSH1 0x0 DUP3 ADD MSTORE PUSH32 0x6C00000000000000000000000000000000000000000000000000000000000000 PUSH1 0x20 DUP3 ADD MSTORE POP JUMP JUMPDEST PUSH1 0x0 PUSH2 0x3D54 PUSH1 0x21 DUP4 PUSH2 0x313B JUMP JUMPDEST SWAP2 POP PUSH2 0x3D5F DUP3 PUSH2 0x3CF8 JUMP JUMPDEST PUSH1 0x40 DUP3 ADD SWAP1 POP SWAP2 SWAP1 POP JUMP JUMPDEST PUSH1 0x0 PUSH1 0x20 DUP3 ADD SWAP1 POP DUP2 DUP2 SUB PUSH1 0x0 DUP4 ADD MSTORE PUSH2 0x3D83 DUP2 PUSH2 0x3D47 JUMP JUMPDEST SWAP1 POP SWAP2 SWAP1 POP JUMP JUMPDEST PUSH1 0x0 PUSH2 0x3D96 DUP3 DUP6 PUSH2 0x38D7 JUMP JUMPDEST PUSH1 0x20 DUP3 ADD SWAP2 POP PUSH2 0x3DA6 DUP3 DUP5 PUSH2 0x39C1 JUMP JUMPDEST PUSH1 0x20 DUP3 ADD SWAP2 POP DUP2 SWAP1 POP SWAP4 SWAP3 POP POP POP JUMP JUMPDEST PUSH32 0x4E487B7100000000000000000000000000000000000000000000000000000000 PUSH1 0x0 MSTORE PUSH1 0x12 PUSH1 0x4 MSTORE PUSH1 0x24 PUSH1 0x0 REVERT JUMPDEST PUSH1 0x0 PUSH2 0x3DF0 DUP3 PUSH2 0x27BD JUMP JUMPDEST SWAP2 POP PUSH2 0x3DFB DUP4 PUSH2 0x27BD JUMP JUMPDEST SWAP3 POP DUP3 PUSH2 0x3E0B JUMPI PUSH2 0x3E0A PUSH2 0x3DB6 JUMP JUMPDEST JUMPDEST DUP3 DUP3 MOD SWAP1 POP SWAP3 SWAP2 POP POP JUMP JUMPDEST PUSH1 0x0 PUSH1 0x40 DUP3 ADD SWAP1 POP PUSH2 0x3E2B PUSH1 0x0 DUP4 ADD DUP6 PUSH2 0x2820 JUMP JUMPDEST PUSH2 0x3E38 PUSH1 0x20 DUP4 ADD DUP5 PUSH2 0x2820 JUMP JUMPDEST SWAP4 SWAP3 POP POP POP JUMP INVALID MSTORE PUSH6 0x6C6179286164 PUSH5 0x7265737320 PUSH16 0x776E65722C75696E7432353620646561 PUSH5 0x6C696E652C PUSH22 0x696E74323536206E6F6E636529A26469706673582212 KECCAK256 MOD SELFDESTRUCT 0xDB PUSH28 0x3A8F9DAB9F431E5F7E0049050CA1891E916627901810AE9714193B56 PUSH5 0x736F6C6343 STOP ADDMOD EXP STOP CALLER GASLIMIT 0x49 POP CALLDATACOPY BALANCE ORIGIN DIFFICULTY PUSH16 0x6D61696E28737472696E67206E616D65 0x2C PUSH20 0x7472696E672076657273696F6E2C75696E743235 CALLDATASIZE KECCAK256 PUSH4 0x6861696E 0x49 PUSH5 0x2C61646472 PUSH6 0x737320766572 PUSH10 0x6679696E67436F6E7472 PUSH2 0x6374 0x29 "
				},
				"gasEstimates": {
					"creation": {
						"codeDepositCost": "3208000",
						"executionCost": "infinite",
						"totalCost": "infinite"
					},
					"external": {
						"DOMAIN_SEPARATOR()": "2519",
						"addrGroups(uint256)": "5068",
						"ballCount()": "2540",
						"ballGroups(uint256)": "infinite",
						"endSeason()": "infinite",
						"getBallCode(uint256)": "infinite",
						"getBallGroupPos(uint256)": "infinite",
						"getBalls()": "infinite",
						"getBalls(address,uint256)": "infinite",
						"getCurrentBallGroupPos()": "2536",
						"getCurrentRevealGroupId()": "2570",
						"getCurrentSeasionId()": "2504",
						"getDomainInfo()": "infinite",
						"getEIP712Hash(address,uint256,uint256)": "infinite",
						"getOperator()": "2566",
						"getRelayMessageTypes()": "infinite",
						"getRevealGroup(uint256)": "infinite",
						"getUserBallGroups(address,uint256)": "infinite",
						"isSeasonActive()": "6901",
						"issueBalls(address[],uint256[])": "11995",
						"lastRequestId()": "2539",
						"newRevealPos(address)": "2882",
						"nonces(address)": "2975",
						"ownerOf(uint256)": "infinite",
						"rawFulfillRandomWords(uint256,uint256[])": "infinite",
						"relayRequestReveal(address,uint256,uint8,bytes32,bytes32)": "infinite",
						"relayRequestRevealBatch(address[],uint256[],uint8[],bytes32[],bytes32[])": "infinite",
						"requestReveal()": "infinite",
						"requestRevealGroupSeed()": "infinite",
						"revealGroupSeeds(uint256)": "infinite",
						"revealGroups(uint256)": "infinite",
						"revealNeeded()": "2540",
						"s_requests(uint256)": "infinite",
						"seasons(uint256)": "infinite",
						"setOperator(address)": "27183",
						"startSeason()": "infinite",
						"userBallCounts(address,uint256)": "infinite",
						"userBallGroups(address,uint256,uint256)": "infinite",
						"verifySig(address,uint256,uint256,uint8,bytes32,bytes32)": "infinite"
					},
					"internal": {
						"_requestReveal(address)": "infinite",
						"_setDomainSeparator()": "infinite",
						"extractCode(uint256)": "infinite",
						"fulfillRandomWords(uint256,uint256[] memory)": "infinite",
						"generateWinningCode()": "infinite",
						"requestRandomSeed(bool)": "infinite",
						"setRevealGroupSeed(uint256)": "infinite",
						"setSeasonWinner(uint256)": "infinite"
					}
				},
				"methodIdentifiers": {
					"DOMAIN_SEPARATOR()": "3644e515",
					"addrGroups(uint256)": "3822aea4",
					"ballCount()": "9ceaddc9",
					"ballGroups(uint256)": "b20aaaf5",
					"endSeason()": "3dcdb672",
					"getBallCode(uint256)": "c6b98e04",
					"getBallGroupPos(uint256)": "d530f1b4",
					"getBalls()": "df6fba1d",
					"getBalls(address,uint256)": "fe675307",
					"getCurrentBallGroupPos()": "0841ba30",
					"getCurrentRevealGroupId()": "9d3db7db",
					"getCurrentSeasionId()": "8c73da19",
					"getDomainInfo()": "f9523b21",
					"getEIP712Hash(address,uint256,uint256)": "ae95234c",
					"getOperator()": "e7f43c68",
					"getRelayMessageTypes()": "a529d3b0",
					"getRevealGroup(uint256)": "d3ba6f34",
					"getUserBallGroups(address,uint256)": "7a0da8d8",
					"isSeasonActive()": "ba732064",
					"issueBalls(address[],uint256[])": "1022889c",
					"lastRequestId()": "fc2a88c3",
					"newRevealPos(address)": "2ffb84dd",
					"nonces(address)": "7ecebe00",
					"ownerOf(uint256)": "6352211e",
					"rawFulfillRandomWords(uint256,uint256[])": "1fe543e3",
					"relayRequestReveal(address,uint256,uint8,bytes32,bytes32)": "5f4f79bb",
					"relayRequestRevealBatch(address[],uint256[],uint8[],bytes32[],bytes32[])": "a4049325",
					"requestReveal()": "b07870b5",
					"requestRevealGroupSeed()": "d37431a6",
					"revealGroupSeeds(uint256)": "b29e60ef",
					"revealGroups(uint256)": "04b1b2c2",
					"revealNeeded()": "060ed27f",
					"s_requests(uint256)": "a168fa89",
					"seasons(uint256)": "f5d709a1",
					"setOperator(address)": "b3ab15fb",
					"startSeason()": "952a9633",
					"userBallCounts(address,uint256)": "df6c8333",
					"userBallGroups(address,uint256,uint256)": "8504a01a",
					"verifySig(address,uint256,uint256,uint8,bytes32,bytes32)": "6999f376"
				}
			},
			"storageLayout": {
				"storage": [
					{
						"astId": 157,
						"contract": "LuckyBall_flattened.sol:LuckyBall",
						"label": "_ballId",
						"offset": 0,
						"slot": "0",
						"type": "t_uint256"
					},
					{
						"astId": 159,
						"contract": "LuckyBall_flattened.sol:LuckyBall",
						"label": "_seasonId",
						"offset": 0,
						"slot": "1",
						"type": "t_uint256"
					},
					{
						"astId": 161,
						"contract": "LuckyBall_flattened.sol:LuckyBall",
						"label": "_revealGroupId",
						"offset": 0,
						"slot": "2",
						"type": "t_uint256"
					},
					{
						"astId": 163,
						"contract": "LuckyBall_flattened.sol:LuckyBall",
						"label": "_owner",
						"offset": 0,
						"slot": "3",
						"type": "t_address"
					},
					{
						"astId": 165,
						"contract": "LuckyBall_flattened.sol:LuckyBall",
						"label": "_operator",
						"offset": 0,
						"slot": "4",
						"type": "t_address"
					},
					{
						"astId": 168,
						"contract": "LuckyBall_flattened.sol:LuckyBall",
						"label": "ballGroups",
						"offset": 0,
						"slot": "5",
						"type": "t_array(t_uint256)dyn_storage"
					},
					{
						"astId": 171,
						"contract": "LuckyBall_flattened.sol:LuckyBall",
						"label": "addrGroups",
						"offset": 0,
						"slot": "6",
						"type": "t_array(t_address)dyn_storage"
					},
					{
						"astId": 173,
						"contract": "LuckyBall_flattened.sol:LuckyBall",
						"label": "ballCount",
						"offset": 0,
						"slot": "7",
						"type": "t_uint256"
					},
					{
						"astId": 175,
						"contract": "LuckyBall_flattened.sol:LuckyBall",
						"label": "revealNeeded",
						"offset": 0,
						"slot": "8",
						"type": "t_bool"
					},
					{
						"astId": 204,
						"contract": "LuckyBall_flattened.sol:LuckyBall",
						"label": "lastRequestId",
						"offset": 0,
						"slot": "9",
						"type": "t_uint256"
					},
					{
						"astId": 216,
						"contract": "LuckyBall_flattened.sol:LuckyBall",
						"label": "s_requests",
						"offset": 0,
						"slot": "10",
						"type": "t_mapping(t_uint256,t_struct(RequestStatus)211_storage)"
					},
					{
						"astId": 218,
						"contract": "LuckyBall_flattened.sol:LuckyBall",
						"label": "DOMAIN_SEPARATOR",
						"offset": 0,
						"slot": "11",
						"type": "t_bytes32"
					},
					{
						"astId": 222,
						"contract": "LuckyBall_flattened.sol:LuckyBall",
						"label": "_nonces",
						"offset": 0,
						"slot": "12",
						"type": "t_mapping(t_address,t_uint256)"
					},
					{
						"astId": 227,
						"contract": "LuckyBall_flattened.sol:LuckyBall",
						"label": "seasons",
						"offset": 0,
						"slot": "13",
						"type": "t_mapping(t_uint256,t_struct(Season)186_storage)"
					},
					{
						"astId": 234,
						"contract": "LuckyBall_flattened.sol:LuckyBall",
						"label": "userBallGroups",
						"offset": 0,
						"slot": "14",
						"type": "t_mapping(t_address,t_mapping(t_uint256,t_array(t_uint256)dyn_storage))"
					},
					{
						"astId": 238,
						"contract": "LuckyBall_flattened.sol:LuckyBall",
						"label": "revealGroups",
						"offset": 0,
						"slot": "15",
						"type": "t_mapping(t_uint256,t_uint256)"
					},
					{
						"astId": 242,
						"contract": "LuckyBall_flattened.sol:LuckyBall",
						"label": "revealGroupSeeds",
						"offset": 0,
						"slot": "16",
						"type": "t_mapping(t_uint256,t_uint256)"
					},
					{
						"astId": 246,
						"contract": "LuckyBall_flattened.sol:LuckyBall",
						"label": "newRevealPos",
						"offset": 0,
						"slot": "17",
						"type": "t_mapping(t_address,t_uint256)"
					},
					{
						"astId": 252,
						"contract": "LuckyBall_flattened.sol:LuckyBall",
						"label": "userBallCounts",
						"offset": 0,
						"slot": "18",
						"type": "t_mapping(t_address,t_mapping(t_uint256,t_uint256))"
					}
				],
				"types": {
					"t_address": {
						"encoding": "inplace",
						"label": "address",
						"numberOfBytes": "20"
					},
					"t_array(t_address)dyn_storage": {
						"base": "t_address",
						"encoding": "dynamic_array",
						"label": "address[]",
						"numberOfBytes": "32"
					},
					"t_array(t_uint256)dyn_storage": {
						"base": "t_uint256",
						"encoding": "dynamic_array",
						"label": "uint256[]",
						"numberOfBytes": "32"
					},
					"t_bool": {
						"encoding": "inplace",
						"label": "bool",
						"numberOfBytes": "1"
					},
					"t_bytes32": {
						"encoding": "inplace",
						"label": "bytes32",
						"numberOfBytes": "32"
					},
					"t_mapping(t_address,t_mapping(t_uint256,t_array(t_uint256)dyn_storage))": {
						"encoding": "mapping",
						"key": "t_address",
						"label": "mapping(address => mapping(uint256 => uint256[]))",
						"numberOfBytes": "32",
						"value": "t_mapping(t_uint256,t_array(t_uint256)dyn_storage)"
					},
					"t_mapping(t_address,t_mapping(t_uint256,t_uint256))": {
						"encoding": "mapping",
						"key": "t_address",
						"label": "mapping(address => mapping(uint256 => uint256))",
						"numberOfBytes": "32",
						"value": "t_mapping(t_uint256,t_uint256)"
					},
					"t_mapping(t_address,t_uint256)": {
						"encoding": "mapping",
						"key": "t_address",
						"label": "mapping(address => uint256)",
						"numberOfBytes": "32",
						"value": "t_uint256"
					},
					"t_mapping(t_uint256,t_array(t_uint256)dyn_storage)": {
						"encoding": "mapping",
						"key": "t_uint256",
						"label": "mapping(uint256 => uint256[])",
						"numberOfBytes": "32",
						"value": "t_array(t_uint256)dyn_storage"
					},
					"t_mapping(t_uint256,t_struct(RequestStatus)211_storage)": {
						"encoding": "mapping",
						"key": "t_uint256",
						"label": "mapping(uint256 => struct LuckyBall.RequestStatus)",
						"numberOfBytes": "32",
						"value": "t_struct(RequestStatus)211_storage"
					},
					"t_mapping(t_uint256,t_struct(Season)186_storage)": {
						"encoding": "mapping",
						"key": "t_uint256",
						"label": "mapping(uint256 => struct LuckyBall.Season)",
						"numberOfBytes": "32",
						"value": "t_struct(Season)186_storage"
					},
					"t_mapping(t_uint256,t_uint256)": {
						"encoding": "mapping",
						"key": "t_uint256",
						"label": "mapping(uint256 => uint256)",
						"numberOfBytes": "32",
						"value": "t_uint256"
					},
					"t_struct(RequestStatus)211_storage": {
						"encoding": "inplace",
						"label": "struct LuckyBall.RequestStatus",
						"members": [
							{
								"astId": 206,
								"contract": "LuckyBall_flattened.sol:LuckyBall",
								"label": "exists",
								"offset": 0,
								"slot": "0",
								"type": "t_bool"
							},
							{
								"astId": 208,
								"contract": "LuckyBall_flattened.sol:LuckyBall",
								"label": "isSeasonPick",
								"offset": 1,
								"slot": "0",
								"type": "t_bool"
							},
							{
								"astId": 210,
								"contract": "LuckyBall_flattened.sol:LuckyBall",
								"label": "seed",
								"offset": 0,
								"slot": "1",
								"type": "t_uint256"
							}
						],
						"numberOfBytes": "64"
					},
					"t_struct(Season)186_storage": {
						"encoding": "inplace",
						"label": "struct LuckyBall.Season",
						"members": [
							{
								"astId": 177,
								"contract": "LuckyBall_flattened.sol:LuckyBall",
								"label": "seasonId",
								"offset": 0,
								"slot": "0",
								"type": "t_uint256"
							},
							{
								"astId": 179,
								"contract": "LuckyBall_flattened.sol:LuckyBall",
								"label": "startBallId",
								"offset": 0,
								"slot": "1",
								"type": "t_uint256"
							},
							{
								"astId": 181,
								"contract": "LuckyBall_flattened.sol:LuckyBall",
								"label": "endBallId",
								"offset": 0,
								"slot": "2",
								"type": "t_uint256"
							},
							{
								"astId": 183,
								"contract": "LuckyBall_flattened.sol:LuckyBall",
								"label": "winningBallId",
								"offset": 0,
								"slot": "3",
								"type": "t_uint256"
							},
							{
								"astId": 185,
								"contract": "LuckyBall_flattened.sol:LuckyBall",
								"label": "winningCode",
								"offset": 0,
								"slot": "4",
								"type": "t_uint256"
							}
						],
						"numberOfBytes": "160"
					},
					"t_uint256": {
						"encoding": "inplace",
						"label": "uint256",
						"numberOfBytes": "32"
					}
				}
			},
			"userdoc": {
				"kind": "user",
				"methods": {},
				"version": 1
			}
		}
	}
}