{
	"LuckyBall.sol": {
		"LuckyBall": {
			"abi": [
				{
					"inputs": [],
					"stateMutability": "nonpayable",
					"type": "constructor"
				},
				{
					"anonymous": false,
					"inputs": [
						{
							"indexed": false,
							"internalType": "address",
							"name": "recipient",
							"type": "address"
						},
						{
							"indexed": false,
							"internalType": "uint256",
							"name": "qty",
							"type": "uint256"
						}
					],
					"name": "BallIssued",
					"type": "event"
				},
				{
					"anonymous": false,
					"inputs": [
						{
							"indexed": true,
							"internalType": "address",
							"name": "previousOwner",
							"type": "address"
						},
						{
							"indexed": true,
							"internalType": "address",
							"name": "newOwner",
							"type": "address"
						}
					],
					"name": "OwnershipTransferred",
					"type": "event"
				},
				{
					"anonymous": false,
					"inputs": [
						{
							"indexed": false,
							"internalType": "address",
							"name": "requestor",
							"type": "address"
						}
					],
					"name": "RevealRequested",
					"type": "event"
				},
				{
					"anonymous": false,
					"inputs": [
						{
							"indexed": false,
							"internalType": "uint256",
							"name": "revealGroup",
							"type": "uint256"
						}
					],
					"name": "Revealed",
					"type": "event"
				},
				{
					"anonymous": false,
					"inputs": [],
					"name": "SeasonClosed",
					"type": "event"
				},
				{
					"anonymous": false,
					"inputs": [],
					"name": "SeasonStarted",
					"type": "event"
				},
				{
					"anonymous": false,
					"inputs": [
						{
							"indexed": false,
							"internalType": "uint256",
							"name": "season",
							"type": "uint256"
						},
						{
							"indexed": false,
							"internalType": "uint256",
							"name": "ballId",
							"type": "uint256"
						}
					],
					"name": "WinnerPicked",
					"type": "event"
				},
				{
					"inputs": [
						{
							"internalType": "uint256",
							"name": "",
							"type": "uint256"
						}
					],
					"name": "addrGroups",
					"outputs": [
						{
							"internalType": "address",
							"name": "",
							"type": "address"
						}
					],
					"stateMutability": "view",
					"type": "function"
				},
				{
					"inputs": [],
					"name": "ballCount",
					"outputs": [
						{
							"internalType": "uint256",
							"name": "",
							"type": "uint256"
						}
					],
					"stateMutability": "view",
					"type": "function"
				},
				{
					"inputs": [
						{
							"internalType": "uint256",
							"name": "",
							"type": "uint256"
						}
					],
					"name": "ballGroups",
					"outputs": [
						{
							"internalType": "uint256",
							"name": "",
							"type": "uint256"
						}
					],
					"stateMutability": "view",
					"type": "function"
				},
				{
					"inputs": [],
					"name": "endSeason",
					"outputs": [
						{
							"internalType": "bool",
							"name": "",
							"type": "bool"
						}
					],
					"stateMutability": "nonpayable",
					"type": "function"
				},
				{
					"inputs": [
						{
							"internalType": "uint256",
							"name": "n",
							"type": "uint256"
						}
					],
					"name": "extractCode",
					"outputs": [
						{
							"internalType": "uint256",
							"name": "",
							"type": "uint256"
						}
					],
					"stateMutability": "pure",
					"type": "function"
				},
				{
					"inputs": [
						{
							"internalType": "uint256",
							"name": "ballId",
							"type": "uint256"
						}
					],
					"name": "getBallCode",
					"outputs": [
						{
							"internalType": "uint256",
							"name": "",
							"type": "uint256"
						}
					],
					"stateMutability": "view",
					"type": "function"
				},
				{
					"inputs": [
						{
							"internalType": "uint256",
							"name": "ballId",
							"type": "uint256"
						}
					],
					"name": "getBallGroupPos",
					"outputs": [
						{
							"internalType": "uint256",
							"name": "",
							"type": "uint256"
						}
					],
					"stateMutability": "view",
					"type": "function"
				},
				{
					"inputs": [],
					"name": "getBalls",
					"outputs": [
						{
							"internalType": "uint256[]",
							"name": "",
							"type": "uint256[]"
						}
					],
					"stateMutability": "view",
					"type": "function"
				},
				{
					"inputs": [
						{
							"internalType": "address",
							"name": "_addr",
							"type": "address"
						},
						{
							"internalType": "uint256",
							"name": "_seasonId",
							"type": "uint256"
						}
					],
					"name": "getBalls",
					"outputs": [
						{
							"internalType": "uint256[]",
							"name": "",
							"type": "uint256[]"
						}
					],
					"stateMutability": "view",
					"type": "function"
				},
				{
					"inputs": [],
					"name": "getChainId",
					"outputs": [
						{
							"internalType": "uint256",
							"name": "",
							"type": "uint256"
						}
					],
					"stateMutability": "view",
					"type": "function"
				},
				{
					"inputs": [],
					"name": "getCurrentBallGroupPos",
					"outputs": [
						{
							"internalType": "uint256",
							"name": "",
							"type": "uint256"
						}
					],
					"stateMutability": "view",
					"type": "function"
				},
				{
					"inputs": [],
					"name": "getCurrentRevealGroupId",
					"outputs": [
						{
							"internalType": "uint256",
							"name": "",
							"type": "uint256"
						}
					],
					"stateMutability": "view",
					"type": "function"
				},
				{
					"inputs": [],
					"name": "getCurrentSeasionId",
					"outputs": [
						{
							"internalType": "uint256",
							"name": "",
							"type": "uint256"
						}
					],
					"stateMutability": "view",
					"type": "function"
				},
				{
					"inputs": [
						{
							"internalType": "uint256",
							"name": "chainId",
							"type": "uint256"
						},
						{
							"internalType": "address",
							"name": "_this",
							"type": "address"
						},
						{
							"internalType": "address",
							"name": "user",
							"type": "address"
						},
						{
							"internalType": "uint256",
							"name": "deadline",
							"type": "uint256"
						},
						{
							"internalType": "uint256",
							"name": "nonce",
							"type": "uint256"
						},
						{
							"internalType": "string",
							"name": "method",
							"type": "string"
						}
					],
					"name": "getHash",
					"outputs": [
						{
							"internalType": "bytes32",
							"name": "",
							"type": "bytes32"
						}
					],
					"stateMutability": "pure",
					"type": "function"
				},
				{
					"inputs": [
						{
							"internalType": "uint256",
							"name": "ballId",
							"type": "uint256"
						}
					],
					"name": "getRevealGroup",
					"outputs": [
						{
							"internalType": "uint256",
							"name": "",
							"type": "uint256"
						}
					],
					"stateMutability": "view",
					"type": "function"
				},
				{
					"inputs": [],
					"name": "isActive",
					"outputs": [
						{
							"internalType": "bool",
							"name": "",
							"type": "bool"
						}
					],
					"stateMutability": "view",
					"type": "function"
				},
				{
					"inputs": [],
					"name": "isSeansonActive",
					"outputs": [
						{
							"internalType": "bool",
							"name": "",
							"type": "bool"
						}
					],
					"stateMutability": "view",
					"type": "function"
				},
				{
					"inputs": [
						{
							"internalType": "address[]",
							"name": "_tos",
							"type": "address[]"
						},
						{
							"internalType": "uint256[]",
							"name": "_qty",
							"type": "uint256[]"
						}
					],
					"name": "issueBalls",
					"outputs": [
						{
							"internalType": "bool",
							"name": "",
							"type": "bool"
						}
					],
					"stateMutability": "nonpayable",
					"type": "function"
				},
				{
					"inputs": [],
					"name": "issueTest",
					"outputs": [],
					"stateMutability": "nonpayable",
					"type": "function"
				},
				{
					"inputs": [
						{
							"internalType": "address",
							"name": "",
							"type": "address"
						}
					],
					"name": "newRevealPos",
					"outputs": [
						{
							"internalType": "uint256",
							"name": "",
							"type": "uint256"
						}
					],
					"stateMutability": "view",
					"type": "function"
				},
				{
					"inputs": [
						{
							"internalType": "address",
							"name": "user",
							"type": "address"
						}
					],
					"name": "nonces",
					"outputs": [
						{
							"internalType": "uint256",
							"name": "",
							"type": "uint256"
						}
					],
					"stateMutability": "view",
					"type": "function"
				},
				{
					"inputs": [],
					"name": "owner",
					"outputs": [
						{
							"internalType": "address",
							"name": "",
							"type": "address"
						}
					],
					"stateMutability": "view",
					"type": "function"
				},
				{
					"inputs": [
						{
							"internalType": "uint256",
							"name": "ballId",
							"type": "uint256"
						}
					],
					"name": "ownerOf",
					"outputs": [
						{
							"internalType": "address",
							"name": "",
							"type": "address"
						}
					],
					"stateMutability": "view",
					"type": "function"
				},
				{
					"inputs": [
						{
							"internalType": "address",
							"name": "user",
							"type": "address"
						},
						{
							"internalType": "uint256",
							"name": "deadline",
							"type": "uint256"
						},
						{
							"internalType": "uint8",
							"name": "v",
							"type": "uint8"
						},
						{
							"internalType": "bytes32",
							"name": "r",
							"type": "bytes32"
						},
						{
							"internalType": "bytes32",
							"name": "s",
							"type": "bytes32"
						}
					],
					"name": "relayRequestReveal",
					"outputs": [
						{
							"internalType": "bool",
							"name": "",
							"type": "bool"
						}
					],
					"stateMutability": "nonpayable",
					"type": "function"
				},
				{
					"inputs": [],
					"name": "renounceOwnership",
					"outputs": [],
					"stateMutability": "nonpayable",
					"type": "function"
				},
				{
					"inputs": [],
					"name": "requestReveal",
					"outputs": [
						{
							"internalType": "bool",
							"name": "",
							"type": "bool"
						}
					],
					"stateMutability": "nonpayable",
					"type": "function"
				},
				{
					"inputs": [],
					"name": "requestWinningBallId",
					"outputs": [
						{
							"internalType": "bool",
							"name": "",
							"type": "bool"
						}
					],
					"stateMutability": "pure",
					"type": "function"
				},
				{
					"inputs": [
						{
							"internalType": "uint256",
							"name": "",
							"type": "uint256"
						}
					],
					"name": "revealGroupSeeds",
					"outputs": [
						{
							"internalType": "uint256",
							"name": "",
							"type": "uint256"
						}
					],
					"stateMutability": "view",
					"type": "function"
				},
				{
					"inputs": [
						{
							"internalType": "uint256",
							"name": "",
							"type": "uint256"
						}
					],
					"name": "revealGroups",
					"outputs": [
						{
							"internalType": "uint256",
							"name": "",
							"type": "uint256"
						}
					],
					"stateMutability": "view",
					"type": "function"
				},
				{
					"inputs": [
						{
							"internalType": "uint256",
							"name": "",
							"type": "uint256"
						}
					],
					"name": "seasons",
					"outputs": [
						{
							"internalType": "uint256",
							"name": "seasonId",
							"type": "uint256"
						},
						{
							"internalType": "uint256",
							"name": "startBallGroupPos",
							"type": "uint256"
						},
						{
							"internalType": "uint256",
							"name": "endBallGroupPos",
							"type": "uint256"
						},
						{
							"internalType": "uint256",
							"name": "winningBallId",
							"type": "uint256"
						},
						{
							"internalType": "uint256",
							"name": "winningCode",
							"type": "uint256"
						}
					],
					"stateMutability": "view",
					"type": "function"
				},
				{
					"inputs": [
						{
							"internalType": "address",
							"name": "_newOperator",
							"type": "address"
						}
					],
					"name": "setOperator",
					"outputs": [
						{
							"internalType": "bool",
							"name": "",
							"type": "bool"
						}
					],
					"stateMutability": "nonpayable",
					"type": "function"
				},
				{
					"inputs": [
						{
							"internalType": "uint256",
							"name": "seed",
							"type": "uint256"
						}
					],
					"name": "setRevealGroupSeed",
					"outputs": [
						{
							"internalType": "bool",
							"name": "",
							"type": "bool"
						}
					],
					"stateMutability": "nonpayable",
					"type": "function"
				},
				{
					"inputs": [
						{
							"internalType": "uint256",
							"name": "winner",
							"type": "uint256"
						}
					],
					"name": "setWinningBallId",
					"outputs": [
						{
							"internalType": "bool",
							"name": "",
							"type": "bool"
						}
					],
					"stateMutability": "nonpayable",
					"type": "function"
				},
				{
					"inputs": [],
					"name": "startSeason",
					"outputs": [
						{
							"internalType": "uint256",
							"name": "",
							"type": "uint256"
						}
					],
					"stateMutability": "nonpayable",
					"type": "function"
				},
				{
					"inputs": [
						{
							"internalType": "address",
							"name": "newOwner",
							"type": "address"
						}
					],
					"name": "transferOwnership",
					"outputs": [],
					"stateMutability": "nonpayable",
					"type": "function"
				},
				{
					"inputs": [
						{
							"internalType": "address",
							"name": "",
							"type": "address"
						},
						{
							"internalType": "uint256",
							"name": "",
							"type": "uint256"
						}
					],
					"name": "userBallCounts",
					"outputs": [
						{
							"internalType": "uint256",
							"name": "",
							"type": "uint256"
						}
					],
					"stateMutability": "view",
					"type": "function"
				},
				{
					"inputs": [
						{
							"internalType": "address",
							"name": "",
							"type": "address"
						},
						{
							"internalType": "uint256",
							"name": "",
							"type": "uint256"
						},
						{
							"internalType": "uint256",
							"name": "",
							"type": "uint256"
						}
					],
					"name": "userBallGroups",
					"outputs": [
						{
							"internalType": "uint256",
							"name": "",
							"type": "uint256"
						}
					],
					"stateMutability": "view",
					"type": "function"
				},
				{
					"inputs": [
						{
							"internalType": "address",
							"name": "addr",
							"type": "address"
						},
						{
							"internalType": "bytes32",
							"name": "_hash",
							"type": "bytes32"
						},
						{
							"internalType": "uint8",
							"name": "v",
							"type": "uint8"
						},
						{
							"internalType": "bytes32",
							"name": "r",
							"type": "bytes32"
						},
						{
							"internalType": "bytes32",
							"name": "s",
							"type": "bytes32"
						}
					],
					"name": "verifySig",
					"outputs": [
						{
							"internalType": "bool",
							"name": "",
							"type": "bool"
						}
					],
					"stateMutability": "pure",
					"type": "function"
				}
			],
			"devdoc": {
				"kind": "dev",
				"methods": {
					"owner()": {
						"details": "Returns the address of the current owner."
					},
					"renounceOwnership()": {
						"details": "Leaves the contract without owner. It will not be possible to call `onlyOwner` functions. Can only be called by the current owner. NOTE: Renouncing ownership will leave the contract without an owner, thereby disabling any functionality that is only available to the owner."
					},
					"transferOwnership(address)": {
						"details": "Transfers ownership of the contract to a new account (`newOwner`). Can only be called by the current owner."
					}
				},
				"version": 1
			},
			"evm": {
				"assembly": "    /* \"LuckyBall.sol\":248:9438  contract LuckyBall is Ownable {... */\n  mstore(0x40, 0x80)\n    /* \"LuckyBall.sol\":434:439  false */\n  0x00\n    /* \"LuckyBall.sol\":411:439  bool public isActive = false */\n  0x04\n  exp(0x0100, 0x14)\n  dup2\n  sload\n  dup2\n  0xff\n  mul\n  not\n  and\n  swap1\n  dup4\n  iszero\n  iszero\n  mul\n  or\n  swap1\n  sstore\n  pop\n    /* \"LuckyBall.sol\":532:533  0 */\n  0x00\n    /* \"LuckyBall.sol\":508:533  uint public ballCount = 0 */\n  0x07\n  sstore\n    /* \"LuckyBall.sol\":1576:1653  constructor() {... */\n  callvalue\n  dup1\n  iszero\n  tag_1\n  jumpi\n  0x00\n  dup1\n  revert\ntag_1:\n  pop\n    /* \"@openzeppelin/contracts/access/Ownable.sol\":936:968  _transferOwnership(_msgSender()) */\n  tag_5\n    /* \"@openzeppelin/contracts/access/Ownable.sol\":955:967  _msgSender() */\n  tag_6\n    /* \"@openzeppelin/contracts/access/Ownable.sol\":955:965  _msgSender */\n  shl(0x20, tag_7)\n    /* \"@openzeppelin/contracts/access/Ownable.sol\":955:967  _msgSender() */\n  0x20\n  shr\n  jump\t// in\ntag_6:\n    /* \"@openzeppelin/contracts/access/Ownable.sol\":936:954  _transferOwnership */\n  shl(0x20, tag_8)\n    /* \"@openzeppelin/contracts/access/Ownable.sol\":936:968  _transferOwnership(_msgSender()) */\n  0x20\n  shr\n  jump\t// in\ntag_5:\n    /* \"LuckyBall.sol\":1600:1615  _revealGroupIds */\n  0x03\n  0x00\n    /* \"LuckyBall.sol\":1600:1617  _revealGroupIds++ */\n  dup2\n  sload\n  dup1\n  swap3\n  swap2\n  swap1\n  tag_10\n  swap1\n  tag_11\n  jump\t// in\ntag_10:\n  swap2\n  swap1\n  pop\n  sstore\n  pop\n    /* \"LuckyBall.sol\":1639:1646  owner() */\n  tag_12\n    /* \"LuckyBall.sol\":1639:1644  owner */\n  shl(0x20, tag_13)\n    /* \"LuckyBall.sol\":1639:1646  owner() */\n  0x20\n  shr\n  jump\t// in\ntag_12:\n    /* \"LuckyBall.sol\":1627:1636  _operator */\n  0x04\n  0x00\n    /* \"LuckyBall.sol\":1627:1646  _operator = owner() */\n  0x0100\n  exp\n  dup2\n  sload\n  dup2\n  0xffffffffffffffffffffffffffffffffffffffff\n  mul\n  not\n  and\n  swap1\n  dup4\n  0xffffffffffffffffffffffffffffffffffffffff\n  and\n  mul\n  or\n  swap1\n  sstore\n  pop\n    /* \"LuckyBall.sol\":248:9438  contract LuckyBall is Ownable {... */\n  jump(tag_14)\n    /* \"@openzeppelin/contracts/utils/Context.sol\":640:736  function _msgSender() internal view virtual returns (address) {... */\ntag_7:\n    /* \"@openzeppelin/contracts/utils/Context.sol\":693:700  address */\n  0x00\n    /* \"@openzeppelin/contracts/utils/Context.sol\":719:729  msg.sender */\n  caller\n    /* \"@openzeppelin/contracts/utils/Context.sol\":712:729  return msg.sender */\n  swap1\n  pop\n    /* \"@openzeppelin/contracts/utils/Context.sol\":640:736  function _msgSender() internal view virtual returns (address) {... */\n  swap1\n  jump\t// out\n    /* \"@openzeppelin/contracts/access/Ownable.sol\":2426:2613  function _transferOwnership(address newOwner) internal virtual {... */\ntag_8:\n    /* \"@openzeppelin/contracts/access/Ownable.sol\":2499:2515  address oldOwner */\n  0x00\n    /* \"@openzeppelin/contracts/access/Ownable.sol\":2518:2524  _owner */\n  dup1\n  0x00\n  swap1\n  sload\n  swap1\n  0x0100\n  exp\n  swap1\n  div\n  0xffffffffffffffffffffffffffffffffffffffff\n  and\n    /* \"@openzeppelin/contracts/access/Ownable.sol\":2499:2524  address oldOwner = _owner */\n  swap1\n  pop\n    /* \"@openzeppelin/contracts/access/Ownable.sol\":2543:2551  newOwner */\n  dup2\n    /* \"@openzeppelin/contracts/access/Ownable.sol\":2534:2540  _owner */\n  0x00\n  dup1\n    /* \"@openzeppelin/contracts/access/Ownable.sol\":2534:2551  _owner = newOwner */\n  0x0100\n  exp\n  dup2\n  sload\n  dup2\n  0xffffffffffffffffffffffffffffffffffffffff\n  mul\n  not\n  and\n  swap1\n  dup4\n  0xffffffffffffffffffffffffffffffffffffffff\n  and\n  mul\n  or\n  swap1\n  sstore\n  pop\n    /* \"@openzeppelin/contracts/access/Ownable.sol\":2597:2605  newOwner */\n  dup2\n    /* \"@openzeppelin/contracts/access/Ownable.sol\":2566:2606  OwnershipTransferred(oldOwner, newOwner) */\n  0xffffffffffffffffffffffffffffffffffffffff\n  and\n    /* \"@openzeppelin/contracts/access/Ownable.sol\":2587:2595  oldOwner */\n  dup2\n    /* \"@openzeppelin/contracts/access/Ownable.sol\":2566:2606  OwnershipTransferred(oldOwner, newOwner) */\n  0xffffffffffffffffffffffffffffffffffffffff\n  and\n  0x8be0079c531659141344cd1fd0a4f28419497f9722a3daafe3b4186f6b6457e0\n  mload(0x40)\n  mload(0x40)\n  dup1\n  swap2\n  sub\n  swap1\n  log3\n    /* \"@openzeppelin/contracts/access/Ownable.sol\":2489:2613  {... */\n  pop\n    /* \"@openzeppelin/contracts/access/Ownable.sol\":2426:2613  function _transferOwnership(address newOwner) internal virtual {... */\n  pop\n  jump\t// out\n    /* \"@openzeppelin/contracts/access/Ownable.sol\":1201:1286  function owner() public view virtual returns (address) {... */\ntag_13:\n    /* \"@openzeppelin/contracts/access/Ownable.sol\":1247:1254  address */\n  0x00\n    /* \"@openzeppelin/contracts/access/Ownable.sol\":1273:1279  _owner */\n  dup1\n  0x00\n  swap1\n  sload\n  swap1\n  0x0100\n  exp\n  swap1\n  div\n  0xffffffffffffffffffffffffffffffffffffffff\n  and\n    /* \"@openzeppelin/contracts/access/Ownable.sol\":1266:1279  return _owner */\n  swap1\n  pop\n    /* \"@openzeppelin/contracts/access/Ownable.sol\":1201:1286  function owner() public view virtual returns (address) {... */\n  swap1\n  jump\t// out\n    /* \"#utility.yul\":7:187   */\ntag_18:\n    /* \"#utility.yul\":55:132   */\n  0x4e487b7100000000000000000000000000000000000000000000000000000000\n    /* \"#utility.yul\":52:53   */\n  0x00\n    /* \"#utility.yul\":45:133   */\n  mstore\n    /* \"#utility.yul\":152:156   */\n  0x11\n    /* \"#utility.yul\":149:150   */\n  0x04\n    /* \"#utility.yul\":142:157   */\n  mstore\n    /* \"#utility.yul\":176:180   */\n  0x24\n    /* \"#utility.yul\":173:174   */\n  0x00\n    /* \"#utility.yul\":166:181   */\n  revert\n    /* \"#utility.yul\":193:270   */\ntag_19:\n    /* \"#utility.yul\":230:237   */\n  0x00\n    /* \"#utility.yul\":259:264   */\n  dup2\n    /* \"#utility.yul\":248:264   */\n  swap1\n  pop\n    /* \"#utility.yul\":193:270   */\n  swap2\n  swap1\n  pop\n  jump\t// out\n    /* \"#utility.yul\":276:509   */\ntag_11:\n    /* \"#utility.yul\":315:318   */\n  0x00\n    /* \"#utility.yul\":338:362   */\n  tag_24\n    /* \"#utility.yul\":356:361   */\n  dup3\n    /* \"#utility.yul\":338:362   */\n  tag_19\n  jump\t// in\ntag_24:\n    /* \"#utility.yul\":329:362   */\n  swap2\n  pop\n    /* \"#utility.yul\":384:450   */\n  0xffffffffffffffffffffffffffffffffffffffffffffffffffffffffffffffff\n    /* \"#utility.yul\":377:382   */\n  dup3\n    /* \"#utility.yul\":374:451   */\n  sub\n    /* \"#utility.yul\":371:474   */\n  tag_25\n  jumpi\n    /* \"#utility.yul\":454:472   */\n  tag_26\n  tag_18\n  jump\t// in\ntag_26:\n    /* \"#utility.yul\":371:474   */\ntag_25:\n    /* \"#utility.yul\":501:502   */\n  0x01\n    /* \"#utility.yul\":494:499   */\n  dup3\n    /* \"#utility.yul\":490:503   */\n  add\n    /* \"#utility.yul\":483:503   */\n  swap1\n  pop\n    /* \"#utility.yul\":276:509   */\n  swap2\n  swap1\n  pop\n  jump\t// out\n    /* \"LuckyBall.sol\":248:9438  contract LuckyBall is Ownable {... */\ntag_14:\n  dataSize(sub_0)\n  dup1\n  dataOffset(sub_0)\n  0x00\n  codecopy\n  0x00\n  return\nstop\n\nsub_0: assembly {\n        /* \"LuckyBall.sol\":248:9438  contract LuckyBall is Ownable {... */\n      mstore(0x40, 0x80)\n      callvalue\n      dup1\n      iszero\n      tag_1\n      jumpi\n      0x00\n      dup1\n      revert\n    tag_1:\n      pop\n      jumpi(tag_2, lt(calldatasize, 0x04))\n      shr(0xe0, calldataload(0x00))\n      dup1\n      0x990366d4\n      gt\n      tag_41\n      jumpi\n      dup1\n      0xc6b98e04\n      gt\n      tag_42\n      jumpi\n      dup1\n      0xdf6c8333\n      gt\n      tag_43\n      jumpi\n      dup1\n      0xdf6c8333\n      eq\n      tag_36\n      jumpi\n      dup1\n      0xdf6fba1d\n      eq\n      tag_37\n      jumpi\n      dup1\n      0xf2fde38b\n      eq\n      tag_38\n      jumpi\n      dup1\n      0xf5d709a1\n      eq\n      tag_39\n      jumpi\n      dup1\n      0xfe675307\n      eq\n      tag_40\n      jumpi\n      jump(tag_2)\n    tag_43:\n      dup1\n      0xc6b98e04\n      eq\n      tag_31\n      jumpi\n      dup1\n      0xd3ba6f34\n      eq\n      tag_32\n      jumpi\n      dup1\n      0xd530f1b4\n      eq\n      tag_33\n      jumpi\n      dup1\n      0xd6c38c7f\n      eq\n      tag_34\n      jumpi\n      dup1\n      0xd8601c0f\n      eq\n      tag_35\n      jumpi\n      jump(tag_2)\n    tag_42:\n      dup1\n      0xb07870b5\n      gt\n      tag_44\n      jumpi\n      dup1\n      0xb07870b5\n      eq\n      tag_26\n      jumpi\n      dup1\n      0xb20aaaf5\n      eq\n      tag_27\n      jumpi\n      dup1\n      0xb29e60ef\n      eq\n      tag_28\n      jumpi\n      dup1\n      0xb3ab15fb\n      eq\n      tag_29\n      jumpi\n      dup1\n      0xc419857f\n      eq\n      tag_30\n      jumpi\n      jump(tag_2)\n    tag_44:\n      dup1\n      0x990366d4\n      eq\n      tag_22\n      jumpi\n      dup1\n      0x9ceaddc9\n      eq\n      tag_23\n      jumpi\n      dup1\n      0x9d3b6d97\n      eq\n      tag_24\n      jumpi\n      dup1\n      0x9d3db7db\n      eq\n      tag_25\n      jumpi\n      jump(tag_2)\n    tag_41:\n      dup1\n      0x3822aea4\n      gt\n      tag_45\n      jumpi\n      dup1\n      0x7ecebe00\n      gt\n      tag_46\n      jumpi\n      dup1\n      0x7ecebe00\n      eq\n      tag_17\n      jumpi\n      dup1\n      0x8504a01a\n      eq\n      tag_18\n      jumpi\n      dup1\n      0x8c73da19\n      eq\n      tag_19\n      jumpi\n      dup1\n      0x8da5cb5b\n      eq\n      tag_20\n      jumpi\n      dup1\n      0x952a9633\n      eq\n      tag_21\n      jumpi\n      jump(tag_2)\n    tag_46:\n      dup1\n      0x3822aea4\n      eq\n      tag_12\n      jumpi\n      dup1\n      0x3dcdb672\n      eq\n      tag_13\n      jumpi\n      dup1\n      0x5f4f79bb\n      eq\n      tag_14\n      jumpi\n      dup1\n      0x6352211e\n      eq\n      tag_15\n      jumpi\n      dup1\n      0x715018a6\n      eq\n      tag_16\n      jumpi\n      jump(tag_2)\n    tag_45:\n      dup1\n      0x1345774e\n      gt\n      tag_47\n      jumpi\n      dup1\n      0x1345774e\n      eq\n      tag_7\n      jumpi\n      dup1\n      0x22f3e2d4\n      eq\n      tag_8\n      jumpi\n      dup1\n      0x2e0ec88f\n      eq\n      tag_9\n      jumpi\n      dup1\n      0x2ffb84dd\n      eq\n      tag_10\n      jumpi\n      dup1\n      0x3408e470\n      eq\n      tag_11\n      jumpi\n      jump(tag_2)\n    tag_47:\n      dup1\n      0x04b1b2c2\n      eq\n      tag_3\n      jumpi\n      dup1\n      0x0841ba30\n      eq\n      tag_4\n      jumpi\n      dup1\n      0x0e75a71f\n      eq\n      tag_5\n      jumpi\n      dup1\n      0x1022889c\n      eq\n      tag_6\n      jumpi\n    tag_2:\n      0x00\n      dup1\n      revert\n        /* \"LuckyBall.sol\":910:951  mapping(uint => uint) public revealGroups */\n    tag_3:\n      tag_48\n      0x04\n      dup1\n      calldatasize\n      sub\n      dup2\n      add\n      swap1\n      tag_49\n      swap2\n      swap1\n      tag_50\n      jump\t// in\n    tag_49:\n      tag_51\n      jump\t// in\n    tag_48:\n      mload(0x40)\n      tag_52\n      swap2\n      swap1\n      tag_53\n      jump\t// in\n    tag_52:\n      mload(0x40)\n      dup1\n      swap2\n      sub\n      swap1\n      return\n        /* \"LuckyBall.sol\":2008:2110  function getCurrentBallGroupPos() public view returns (uint) {... */\n    tag_4:\n      tag_54\n      tag_55\n      jump\t// in\n    tag_54:\n      mload(0x40)\n      tag_56\n      swap2\n      swap1\n      tag_53\n      jump\t// in\n    tag_56:\n      mload(0x40)\n      dup1\n      swap2\n      sub\n      swap1\n      return\n        /* \"LuckyBall.sol\":2627:2808  function isSeansonActive() public view returns (bool) {... */\n    tag_5:\n      tag_57\n      tag_58\n      jump\t// in\n    tag_57:\n      mload(0x40)\n      tag_59\n      swap2\n      swap1\n      tag_60\n      jump\t// in\n    tag_59:\n      mload(0x40)\n      dup1\n      swap2\n      sub\n      swap1\n      return\n        /* \"LuckyBall.sol\":2818:3497  function issueBalls(address[] calldata _tos, uint[] calldata _qty) public onlyOperator() returns (bool) {... */\n    tag_6:\n      tag_61\n      0x04\n      dup1\n      calldatasize\n      sub\n      dup2\n      add\n      swap1\n      tag_62\n      swap2\n      swap1\n      tag_63\n      jump\t// in\n    tag_62:\n      tag_64\n      jump\t// in\n    tag_61:\n      mload(0x40)\n      tag_65\n      swap2\n      swap1\n      tag_60\n      jump\t// in\n    tag_65:\n      mload(0x40)\n      dup1\n      swap2\n      sub\n      swap1\n      return\n        /* \"LuckyBall.sol\":8061:8368  function getHash(... */\n    tag_7:\n      tag_66\n      0x04\n      dup1\n      calldatasize\n      sub\n      dup2\n      add\n      swap1\n      tag_67\n      swap2\n      swap1\n      tag_68\n      jump\t// in\n    tag_67:\n      tag_69\n      jump\t// in\n    tag_66:\n      mload(0x40)\n      tag_70\n      swap2\n      swap1\n      tag_71\n      jump\t// in\n    tag_70:\n      mload(0x40)\n      dup1\n      swap2\n      sub\n      swap1\n      return\n        /* \"LuckyBall.sol\":411:439  bool public isActive = false */\n    tag_8:\n      tag_72\n      tag_73\n      jump\t// in\n    tag_72:\n      mload(0x40)\n      tag_74\n      swap2\n      swap1\n      tag_60\n      jump\t// in\n    tag_74:\n      mload(0x40)\n      dup1\n      swap2\n      sub\n      swap1\n      return\n        /* \"LuckyBall.sol\":4669:4845  function setWinningBallId(uint winner) public onlyOperator() returns (bool) {... */\n    tag_9:\n      tag_75\n      0x04\n      dup1\n      calldatasize\n      sub\n      dup2\n      add\n      swap1\n      tag_76\n      swap2\n      swap1\n      tag_50\n      jump\t// in\n    tag_76:\n      tag_77\n      jump\t// in\n    tag_75:\n      mload(0x40)\n      tag_78\n      swap2\n      swap1\n      tag_60\n      jump\t// in\n    tag_78:\n      mload(0x40)\n      dup1\n      swap2\n      sub\n      swap1\n      return\n        /* \"LuckyBall.sol\":1038:1082  mapping(address => uint) public newRevealPos */\n    tag_10:\n      tag_79\n      0x04\n      dup1\n      calldatasize\n      sub\n      dup2\n      add\n      swap1\n      tag_80\n      swap2\n      swap1\n      tag_81\n      jump\t// in\n    tag_80:\n      tag_82\n      jump\t// in\n    tag_79:\n      mload(0x40)\n      tag_83\n      swap2\n      swap1\n      tag_53\n      jump\t// in\n    tag_83:\n      mload(0x40)\n      dup1\n      swap2\n      sub\n      swap1\n      return\n        /* \"LuckyBall.sol\":8561:8733  function getChainId() public view returns (uint) {... */\n    tag_11:\n      tag_84\n      tag_85\n      jump\t// in\n    tag_84:\n      mload(0x40)\n      tag_86\n      swap2\n      swap1\n      tag_53\n      jump\t// in\n    tag_86:\n      mload(0x40)\n      dup1\n      swap2\n      sub\n      swap1\n      return\n        /* \"LuckyBall.sol\":475:502  address[] public addrGroups */\n    tag_12:\n      tag_87\n      0x04\n      dup1\n      calldatasize\n      sub\n      dup2\n      add\n      swap1\n      tag_88\n      swap2\n      swap1\n      tag_50\n      jump\t// in\n    tag_88:\n      tag_89\n      jump\t// in\n    tag_87:\n      mload(0x40)\n      tag_90\n      swap2\n      swap1\n      tag_91\n      jump\t// in\n    tag_90:\n      mload(0x40)\n      dup1\n      swap2\n      sub\n      swap1\n      return\n        /* \"LuckyBall.sol\":4386:4570  function endSeason() external returns (bool) {... */\n    tag_13:\n      tag_92\n      tag_93\n      jump\t// in\n    tag_92:\n      mload(0x40)\n      tag_94\n      swap2\n      swap1\n      tag_60\n      jump\t// in\n    tag_94:\n      mload(0x40)\n      dup1\n      swap2\n      sub\n      swap1\n      return\n        /* \"LuckyBall.sol\":8740:9436  function relayRequestReveal(        ... */\n    tag_14:\n      tag_95\n      0x04\n      dup1\n      calldatasize\n      sub\n      dup2\n      add\n      swap1\n      tag_96\n      swap2\n      swap1\n      tag_97\n      jump\t// in\n    tag_96:\n      tag_98\n      jump\t// in\n    tag_95:\n      mload(0x40)\n      tag_99\n      swap2\n      swap1\n      tag_60\n      jump\t// in\n    tag_99:\n      mload(0x40)\n      dup1\n      swap2\n      sub\n      swap1\n      return\n        /* \"LuckyBall.sol\":3864:4182  function ownerOf(uint ballId) public view returns (address) {... */\n    tag_15:\n      tag_100\n      0x04\n      dup1\n      calldatasize\n      sub\n      dup2\n      add\n      swap1\n      tag_101\n      swap2\n      swap1\n      tag_50\n      jump\t// in\n    tag_101:\n      tag_102\n      jump\t// in\n    tag_100:\n      mload(0x40)\n      tag_103\n      swap2\n      swap1\n      tag_91\n      jump\t// in\n    tag_103:\n      mload(0x40)\n      dup1\n      swap2\n      sub\n      swap1\n      return\n        /* \"@openzeppelin/contracts/access/Ownable.sol\":1824:1925  function renounceOwnership() public virtual onlyOwner {... */\n    tag_16:\n      tag_104\n      tag_105\n      jump\t// in\n    tag_104:\n      stop\n        /* \"LuckyBall.sol\":1659:1756  function nonces(address user) public view returns (uint256) {... */\n    tag_17:\n      tag_106\n      0x04\n      dup1\n      calldatasize\n      sub\n      dup2\n      add\n      swap1\n      tag_107\n      swap2\n      swap1\n      tag_81\n      jump\t// in\n    tag_107:\n      tag_108\n      jump\t// in\n    tag_106:\n      mload(0x40)\n      tag_109\n      swap2\n      swap1\n      tag_53\n      jump\t// in\n    tag_109:\n      mload(0x40)\n      dup1\n      swap2\n      sub\n      swap1\n      return\n        /* \"LuckyBall.sol\":799:864  mapping(address => mapping(uint => uint[])) public userBallGroups */\n    tag_18:\n      tag_110\n      0x04\n      dup1\n      calldatasize\n      sub\n      dup2\n      add\n      swap1\n      tag_111\n      swap2\n      swap1\n      tag_112\n      jump\t// in\n    tag_111:\n      tag_113\n      jump\t// in\n    tag_110:\n      mload(0x40)\n      tag_114\n      swap2\n      swap1\n      tag_53\n      jump\t// in\n    tag_114:\n      mload(0x40)\n      dup1\n      swap2\n      sub\n      swap1\n      return\n        /* \"LuckyBall.sol\":1910:2002  function getCurrentSeasionId() public view returns (uint) {... */\n    tag_19:\n      tag_115\n      tag_116\n      jump\t// in\n    tag_115:\n      mload(0x40)\n      tag_117\n      swap2\n      swap1\n      tag_53\n      jump\t// in\n    tag_117:\n      mload(0x40)\n      dup1\n      swap2\n      sub\n      swap1\n      return\n        /* \"@openzeppelin/contracts/access/Ownable.sol\":1201:1286  function owner() public view virtual returns (address) {... */\n    tag_20:\n      tag_118\n      tag_119\n      jump\t// in\n    tag_118:\n      mload(0x40)\n      tag_120\n      swap2\n      swap1\n      tag_91\n      jump\t// in\n    tag_120:\n      mload(0x40)\n      dup1\n      swap2\n      sub\n      swap1\n      return\n        /* \"LuckyBall.sol\":2228:2621  function startSeason() external onlyOperator() returns (uint) {... */\n    tag_21:\n      tag_121\n      tag_122\n      jump\t// in\n    tag_121:\n      mload(0x40)\n      tag_123\n      swap2\n      swap1\n      tag_53\n      jump\t// in\n    tag_123:\n      mload(0x40)\n      dup1\n      swap2\n      sub\n      swap1\n      return\n        /* \"LuckyBall.sol\":8374:8555  function verifySig(address addr, bytes32 _hash, uint8 v, bytes32 r, bytes32 s) ... */\n    tag_22:\n      tag_124\n      0x04\n      dup1\n      calldatasize\n      sub\n      dup2\n      add\n      swap1\n      tag_125\n      swap2\n      swap1\n      tag_126\n      jump\t// in\n    tag_125:\n      tag_127\n      jump\t// in\n    tag_124:\n      mload(0x40)\n      tag_128\n      swap2\n      swap1\n      tag_60\n      jump\t// in\n    tag_128:\n      mload(0x40)\n      dup1\n      swap2\n      sub\n      swap1\n      return\n        /* \"LuckyBall.sol\":508:533  uint public ballCount = 0 */\n    tag_23:\n      tag_129\n      tag_130\n      jump\t// in\n    tag_129:\n      mload(0x40)\n      tag_131\n      swap2\n      swap1\n      tag_53\n      jump\t// in\n    tag_131:\n      mload(0x40)\n      dup1\n      swap2\n      sub\n      swap1\n      return\n        /* \"LuckyBall.sol\":6520:6711  function setRevealGroupSeed(uint seed) public onlyOperator() returns (bool) {... */\n    tag_24:\n      tag_132\n      0x04\n      dup1\n      calldatasize\n      sub\n      dup2\n      add\n      swap1\n      tag_133\n      swap2\n      swap1\n      tag_50\n      jump\t// in\n    tag_133:\n      tag_134\n      jump\t// in\n    tag_132:\n      mload(0x40)\n      tag_135\n      swap2\n      swap1\n      tag_60\n      jump\t// in\n    tag_135:\n      mload(0x40)\n      dup1\n      swap2\n      sub\n      swap1\n      return\n        /* \"LuckyBall.sol\":2116:2217  function getCurrentRevealGroupId() public view returns (uint) {... */\n    tag_25:\n      tag_136\n      tag_137\n      jump\t// in\n    tag_136:\n      mload(0x40)\n      tag_138\n      swap2\n      swap1\n      tag_53\n      jump\t// in\n    tag_138:\n      mload(0x40)\n      dup1\n      swap2\n      sub\n      swap1\n      return\n        /* \"LuckyBall.sol\":5010:5109  function requestReveal() public returns (bool) {... */\n    tag_26:\n      tag_139\n      tag_140\n      jump\t// in\n    tag_139:\n      mload(0x40)\n      tag_141\n      swap2\n      swap1\n      tag_60\n      jump\t// in\n    tag_141:\n      mload(0x40)\n      dup1\n      swap2\n      sub\n      swap1\n      return\n        /* \"LuckyBall.sol\":445:469  uint[] public ballGroups */\n    tag_27:\n      tag_142\n      0x04\n      dup1\n      calldatasize\n      sub\n      dup2\n      add\n      swap1\n      tag_143\n      swap2\n      swap1\n      tag_50\n      jump\t// in\n    tag_143:\n      tag_144\n      jump\t// in\n    tag_142:\n      mload(0x40)\n      tag_145\n      swap2\n      swap1\n      tag_53\n      jump\t// in\n    tag_145:\n      mload(0x40)\n      dup1\n      swap2\n      sub\n      swap1\n      return\n        /* \"LuckyBall.sol\":957:1002  mapping(uint => uint) public revealGroupSeeds */\n    tag_28:\n      tag_146\n      0x04\n      dup1\n      calldatasize\n      sub\n      dup2\n      add\n      swap1\n      tag_147\n      swap2\n      swap1\n      tag_50\n      jump\t// in\n    tag_147:\n      tag_148\n      jump\t// in\n    tag_146:\n      mload(0x40)\n      tag_149\n      swap2\n      swap1\n      tag_53\n      jump\t// in\n    tag_149:\n      mload(0x40)\n      dup1\n      swap2\n      sub\n      swap1\n      return\n        /* \"LuckyBall.sol\":1767:1904  function setOperator(address _newOperator) public onlyOwner returns (bool) {... */\n    tag_29:\n      tag_150\n      0x04\n      dup1\n      calldatasize\n      sub\n      dup2\n      add\n      swap1\n      tag_151\n      swap2\n      swap1\n      tag_81\n      jump\t// in\n    tag_151:\n      tag_152\n      jump\t// in\n    tag_150:\n      mload(0x40)\n      tag_153\n      swap2\n      swap1\n      tag_60\n      jump\t// in\n    tag_153:\n      mload(0x40)\n      dup1\n      swap2\n      sub\n      swap1\n      return\n        /* \"LuckyBall.sol\":4576:4663  function requestWinningBallId() public pure returns (bool) {... */\n    tag_30:\n      tag_154\n      tag_155\n      jump\t// in\n    tag_154:\n      mload(0x40)\n      tag_156\n      swap2\n      swap1\n      tag_60\n      jump\t// in\n    tag_156:\n      mload(0x40)\n      dup1\n      swap2\n      sub\n      swap1\n      return\n        /* \"LuckyBall.sol\":6717:6992  function getBallCode(uint ballId) public view returns (uint) {... */\n    tag_31:\n      tag_157\n      0x04\n      dup1\n      calldatasize\n      sub\n      dup2\n      add\n      swap1\n      tag_158\n      swap2\n      swap1\n      tag_50\n      jump\t// in\n    tag_158:\n      tag_159\n      jump\t// in\n    tag_157:\n      mload(0x40)\n      tag_160\n      swap2\n      swap1\n      tag_53\n      jump\t// in\n    tag_160:\n      mload(0x40)\n      dup1\n      swap2\n      sub\n      swap1\n      return\n        /* \"LuckyBall.sol\":5733:5858  function getRevealGroup(uint ballId) public view returns (uint) {... */\n    tag_32:\n      tag_161\n      0x04\n      dup1\n      calldatasize\n      sub\n      dup2\n      add\n      swap1\n      tag_162\n      swap2\n      swap1\n      tag_50\n      jump\t// in\n    tag_162:\n      tag_163\n      jump\t// in\n    tag_161:\n      mload(0x40)\n      tag_164\n      swap2\n      swap1\n      tag_53\n      jump\t// in\n    tag_164:\n      mload(0x40)\n      dup1\n      swap2\n      sub\n      swap1\n      return\n        /* \"LuckyBall.sol\":5864:6513  function getBallGroupPos(uint ballId) public view returns (uint) {... */\n    tag_33:\n      tag_165\n      0x04\n      dup1\n      calldatasize\n      sub\n      dup2\n      add\n      swap1\n      tag_166\n      swap2\n      swap1\n      tag_50\n      jump\t// in\n    tag_166:\n      tag_167\n      jump\t// in\n    tag_165:\n      mload(0x40)\n      tag_168\n      swap2\n      swap1\n      tag_53\n      jump\t// in\n    tag_168:\n      mload(0x40)\n      dup1\n      swap2\n      sub\n      swap1\n      return\n        /* \"LuckyBall.sol\":4851:5003  function extractCode(uint n) public pure returns (uint) {... */\n    tag_34:\n      tag_169\n      0x04\n      dup1\n      calldatasize\n      sub\n      dup2\n      add\n      swap1\n      tag_170\n      swap2\n      swap1\n      tag_50\n      jump\t// in\n    tag_170:\n      tag_171\n      jump\t// in\n    tag_169:\n      mload(0x40)\n      tag_172\n      swap2\n      swap1\n      tag_53\n      jump\t// in\n    tag_172:\n      mload(0x40)\n      dup1\n      swap2\n      sub\n      swap1\n      return\n        /* \"LuckyBall.sol\":3503:3858  function issueTest() public {... */\n    tag_35:\n      tag_173\n      tag_174\n      jump\t// in\n    tag_173:\n      stop\n        /* \"LuckyBall.sol\":1088:1151  mapping(address => mapping(uint => uint)) public userBallCounts */\n    tag_36:\n      tag_175\n      0x04\n      dup1\n      calldatasize\n      sub\n      dup2\n      add\n      swap1\n      tag_176\n      swap2\n      swap1\n      tag_177\n      jump\t// in\n    tag_176:\n      tag_178\n      jump\t// in\n    tag_175:\n      mload(0x40)\n      tag_179\n      swap2\n      swap1\n      tag_53\n      jump\t// in\n    tag_179:\n      mload(0x40)\n      dup1\n      swap2\n      sub\n      swap1\n      return\n        /* \"LuckyBall.sol\":7931:8055  function getBalls() public view returns(uint[] memory) {... */\n    tag_37:\n      tag_180\n      tag_181\n      jump\t// in\n    tag_180:\n      mload(0x40)\n      tag_182\n      swap2\n      swap1\n      tag_183\n      jump\t// in\n    tag_182:\n      mload(0x40)\n      dup1\n      swap2\n      sub\n      swap1\n      return\n        /* \"@openzeppelin/contracts/access/Ownable.sol\":2074:2272  function transferOwnership(address newOwner) public virtual onlyOwner {... */\n    tag_38:\n      tag_184\n      0x04\n      dup1\n      calldatasize\n      sub\n      dup2\n      add\n      swap1\n      tag_185\n      swap2\n      swap1\n      tag_81\n      jump\t// in\n    tag_185:\n      tag_186\n      jump\t// in\n    tag_184:\n      stop\n        /* \"LuckyBall.sol\":755:793  mapping(uint => Season) public seasons */\n    tag_39:\n      tag_187\n      0x04\n      dup1\n      calldatasize\n      sub\n      dup2\n      add\n      swap1\n      tag_188\n      swap2\n      swap1\n      tag_50\n      jump\t// in\n    tag_188:\n      tag_189\n      jump\t// in\n    tag_187:\n      mload(0x40)\n      tag_190\n      swap6\n      swap5\n      swap4\n      swap3\n      swap2\n      swap1\n      tag_191\n      jump\t// in\n    tag_190:\n      mload(0x40)\n      dup1\n      swap2\n      sub\n      swap1\n      return\n        /* \"LuckyBall.sol\":6998:7925  function getBalls(address _addr, uint _seasonId) public view returns (uint[] memory) {... */\n    tag_40:\n      tag_192\n      0x04\n      dup1\n      calldatasize\n      sub\n      dup2\n      add\n      swap1\n      tag_193\n      swap2\n      swap1\n      tag_177\n      jump\t// in\n    tag_193:\n      tag_194\n      jump\t// in\n    tag_192:\n      mload(0x40)\n      tag_195\n      swap2\n      swap1\n      tag_183\n      jump\t// in\n    tag_195:\n      mload(0x40)\n      dup1\n      swap2\n      sub\n      swap1\n      return\n        /* \"LuckyBall.sol\":910:951  mapping(uint => uint) public revealGroups */\n    tag_51:\n      mstore(0x20, 0x0b)\n      dup1\n      0x00\n      mstore\n      keccak256(0x00, 0x40)\n      0x00\n      swap2\n      pop\n      swap1\n      pop\n      sload\n      dup2\n      jump\t// out\n        /* \"LuckyBall.sol\":2008:2110  function getCurrentBallGroupPos() public view returns (uint) {... */\n    tag_55:\n        /* \"LuckyBall.sol\":2063:2067  uint */\n      0x00\n        /* \"LuckyBall.sol\":2086:2096  ballGroups */\n      0x05\n        /* \"LuckyBall.sol\":2086:2103  ballGroups.length */\n      dup1\n      sload\n      swap1\n      pop\n        /* \"LuckyBall.sol\":2079:2103  return ballGroups.length */\n      swap1\n      pop\n        /* \"LuckyBall.sol\":2008:2110  function getCurrentBallGroupPos() public view returns (uint) {... */\n      swap1\n      jump\t// out\n        /* \"LuckyBall.sol\":2627:2808  function isSeansonActive() public view returns (bool) {... */\n    tag_58:\n        /* \"LuckyBall.sol\":2675:2679  bool */\n      0x00\n        /* \"LuckyBall.sol\":2741:2742  0 */\n      dup1\n        /* \"LuckyBall.sol\":2694:2701  seasons */\n      0x09\n        /* \"LuckyBall.sol\":2694:2724  seasons[getCurrentSeasionId()] */\n      0x00\n        /* \"LuckyBall.sol\":2702:2723  getCurrentSeasionId() */\n      tag_198\n        /* \"LuckyBall.sol\":2702:2721  getCurrentSeasionId */\n      tag_116\n        /* \"LuckyBall.sol\":2702:2723  getCurrentSeasionId() */\n      jump\t// in\n    tag_198:\n        /* \"LuckyBall.sol\":2694:2724  seasons[getCurrentSeasionId()] */\n      dup2\n      mstore\n      0x20\n      add\n      swap1\n      dup2\n      mstore\n      0x20\n      add\n      0x00\n      keccak256\n        /* \"LuckyBall.sol\":2694:2738  seasons[getCurrentSeasionId()].winningBallId */\n      0x03\n      add\n      sload\n        /* \"LuckyBall.sol\":2694:2742  seasons[getCurrentSeasionId()].winningBallId > 0 */\n      gt\n        /* \"LuckyBall.sol\":2691:2781  if(seasons[getCurrentSeasionId()].winningBallId > 0) {... */\n      iszero\n      tag_199\n      jumpi\n        /* \"LuckyBall.sol\":2765:2770  false */\n      0x00\n        /* \"LuckyBall.sol\":2758:2770  return false */\n      swap1\n      pop\n      jump(tag_197)\n        /* \"LuckyBall.sol\":2691:2781  if(seasons[getCurrentSeasionId()].winningBallId > 0) {... */\n    tag_199:\n        /* \"LuckyBall.sol\":2797:2801  true */\n      0x01\n        /* \"LuckyBall.sol\":2790:2801  return true */\n      swap1\n      pop\n        /* \"LuckyBall.sol\":2627:2808  function isSeansonActive() public view returns (bool) {... */\n    tag_197:\n      swap1\n      jump\t// out\n        /* \"LuckyBall.sol\":2818:3497  function issueBalls(address[] calldata _tos, uint[] calldata _qty) public onlyOperator() returns (bool) {... */\n    tag_64:\n        /* \"LuckyBall.sol\":2916:2920  bool */\n      0x00\n        /* \"LuckyBall.sol\":1484:1496  _msgSender() */\n      tag_201\n        /* \"LuckyBall.sol\":1484:1494  _msgSender */\n      tag_202\n        /* \"LuckyBall.sol\":1484:1496  _msgSender() */\n      jump\t// in\n    tag_201:\n        /* \"LuckyBall.sol\":1471:1496  _operator == _msgSender() */\n      0xffffffffffffffffffffffffffffffffffffffff\n      and\n        /* \"LuckyBall.sol\":1471:1480  _operator */\n      0x04\n      0x00\n      swap1\n      sload\n      swap1\n      0x0100\n      exp\n      swap1\n      div\n      0xffffffffffffffffffffffffffffffffffffffff\n      and\n        /* \"LuckyBall.sol\":1471:1496  _operator == _msgSender() */\n      0xffffffffffffffffffffffffffffffffffffffff\n      and\n      eq\n        /* \"LuckyBall.sol\":1463:1547  require(_operator == _msgSender(), \"LuckyBall: caller is not the operator address!\") */\n      tag_203\n      jumpi\n      mload(0x40)\n      0x08c379a000000000000000000000000000000000000000000000000000000000\n      dup2\n      mstore\n      0x04\n      add\n      tag_204\n      swap1\n      tag_205\n      jump\t// in\n    tag_204:\n      mload(0x40)\n      dup1\n      swap2\n      sub\n      swap1\n      revert\n    tag_203:\n        /* \"LuckyBall.sol\":2955:2959  _qty */\n      dup3\n      dup3\n        /* \"LuckyBall.sol\":2955:2966  _qty.length */\n      swap1\n      pop\n        /* \"LuckyBall.sol\":2940:2944  _tos */\n      dup6\n      dup6\n        /* \"LuckyBall.sol\":2940:2951  _tos.length */\n      swap1\n      pop\n        /* \"LuckyBall.sol\":2940:2966  _tos.length == _qty.length */\n      eq\n        /* \"LuckyBall.sol\":2932:3016  require(_tos.length == _qty.length, \"LuckBall: address and qty counts do not match\") */\n      tag_207\n      jumpi\n      mload(0x40)\n      0x08c379a000000000000000000000000000000000000000000000000000000000\n      dup2\n      mstore\n      0x04\n      add\n      tag_208\n      swap1\n      tag_209\n      jump\t// in\n    tag_208:\n      mload(0x40)\n      dup1\n      swap2\n      sub\n      swap1\n      revert\n    tag_207:\n        /* \"LuckyBall.sol\":3030:3036  uint i */\n      0x00\n        /* \"LuckyBall.sol\":3026:3462  for(uint i=0; i<_tos.length; i++) {... */\n    tag_210:\n        /* \"LuckyBall.sol\":3042:3046  _tos */\n      dup6\n      dup6\n        /* \"LuckyBall.sol\":3042:3053  _tos.length */\n      swap1\n      pop\n        /* \"LuckyBall.sol\":3040:3041  i */\n      dup2\n        /* \"LuckyBall.sol\":3040:3053  i<_tos.length */\n      lt\n        /* \"LuckyBall.sol\":3026:3462  for(uint i=0; i<_tos.length; i++) {... */\n      iszero\n      tag_211\n      jumpi\n        /* \"LuckyBall.sol\":3092:3093  0 */\n      0x00\n        /* \"LuckyBall.sol\":3082:3086  _qty */\n      dup5\n      dup5\n        /* \"LuckyBall.sol\":3087:3088  i */\n      dup4\n        /* \"LuckyBall.sol\":3082:3089  _qty[i] */\n      dup2\n      dup2\n      lt\n      tag_213\n      jumpi\n      tag_214\n      tag_215\n      jump\t// in\n    tag_214:\n    tag_213:\n      swap1\n      pop\n      0x20\n      mul\n      add\n      calldataload\n        /* \"LuckyBall.sol\":3082:3093  _qty[i] > 0 */\n      gt\n        /* \"LuckyBall.sol\":3074:3135  require(_qty[i] > 0, \"LuckBall: qty should be bigger than 0\") */\n      tag_216\n      jumpi\n      mload(0x40)\n      0x08c379a000000000000000000000000000000000000000000000000000000000\n      dup2\n      mstore\n      0x04\n      add\n      tag_217\n      swap1\n      tag_218\n      jump\t// in\n    tag_217:\n      mload(0x40)\n      dup1\n      swap2\n      sub\n      swap1\n      revert\n    tag_216:\n        /* \"LuckyBall.sol\":3162:3166  _qty */\n      dup4\n      dup4\n        /* \"LuckyBall.sol\":3167:3168  i */\n      dup3\n        /* \"LuckyBall.sol\":3162:3169  _qty[i] */\n      dup2\n      dup2\n      lt\n      tag_219\n      jumpi\n      tag_220\n      tag_215\n      jump\t// in\n    tag_220:\n    tag_219:\n      swap1\n      pop\n      0x20\n      mul\n      add\n      calldataload\n        /* \"LuckyBall.sol\":3149:3158  ballCount */\n      0x07\n      0x00\n        /* \"LuckyBall.sol\":3149:3169  ballCount += _qty[i] */\n      dup3\n      dup3\n      sload\n      tag_221\n      swap2\n      swap1\n      tag_222\n      jump\t// in\n    tag_221:\n      swap3\n      pop\n      pop\n      dup2\n      swap1\n      sstore\n      pop\n        /* \"LuckyBall.sol\":3183:3193  ballGroups */\n      0x05\n        /* \"LuckyBall.sol\":3199:3208  ballCount */\n      sload(0x07)\n        /* \"LuckyBall.sol\":3183:3209  ballGroups.push(ballCount) */\n      swap1\n      dup1\n      0x01\n      dup2\n      sload\n      add\n      dup1\n      dup3\n      sstore\n      dup1\n      swap2\n      pop\n      pop\n      0x01\n      swap1\n      sub\n      swap1\n      0x00\n      mstore\n      keccak256(0x00, 0x20)\n      add\n      0x00\n      swap1\n      swap2\n      swap1\n      swap2\n      swap1\n      swap2\n      pop\n      sstore\n        /* \"LuckyBall.sol\":3223:3233  addrGroups */\n      0x06\n        /* \"LuckyBall.sol\":3239:3243  _tos */\n      dup7\n      dup7\n        /* \"LuckyBall.sol\":3244:3245  i */\n      dup4\n        /* \"LuckyBall.sol\":3239:3246  _tos[i] */\n      dup2\n      dup2\n      lt\n      tag_224\n      jumpi\n      tag_225\n      tag_215\n      jump\t// in\n    tag_225:\n    tag_224:\n      swap1\n      pop\n      0x20\n      mul\n      add\n      0x20\n      dup2\n      add\n      swap1\n      tag_226\n      swap2\n      swap1\n      tag_81\n      jump\t// in\n    tag_226:\n        /* \"LuckyBall.sol\":3223:3247  addrGroups.push(_tos[i]) */\n      swap1\n      dup1\n      0x01\n      dup2\n      sload\n      add\n      dup1\n      dup3\n      sstore\n      dup1\n      swap2\n      pop\n      pop\n      0x01\n      swap1\n      sub\n      swap1\n      0x00\n      mstore\n      keccak256(0x00, 0x20)\n      add\n      0x00\n      swap1\n      swap2\n      swap1\n      swap2\n      swap1\n      swap2\n      0x0100\n      exp\n      dup2\n      sload\n      dup2\n      0xffffffffffffffffffffffffffffffffffffffff\n      mul\n      not\n      and\n      swap1\n      dup4\n      0xffffffffffffffffffffffffffffffffffffffff\n      and\n      mul\n      or\n      swap1\n      sstore\n      pop\n        /* \"LuckyBall.sol\":3261:3275  userBallGroups */\n      0x0a\n        /* \"LuckyBall.sol\":3261:3284  userBallGroups[_tos[i]] */\n      0x00\n        /* \"LuckyBall.sol\":3276:3280  _tos */\n      dup8\n      dup8\n        /* \"LuckyBall.sol\":3281:3282  i */\n      dup5\n        /* \"LuckyBall.sol\":3276:3283  _tos[i] */\n      dup2\n      dup2\n      lt\n      tag_228\n      jumpi\n      tag_229\n      tag_215\n      jump\t// in\n    tag_229:\n    tag_228:\n      swap1\n      pop\n      0x20\n      mul\n      add\n      0x20\n      dup2\n      add\n      swap1\n      tag_230\n      swap2\n      swap1\n      tag_81\n      jump\t// in\n    tag_230:\n        /* \"LuckyBall.sol\":3261:3284  userBallGroups[_tos[i]] */\n      0xffffffffffffffffffffffffffffffffffffffff\n      and\n      0xffffffffffffffffffffffffffffffffffffffff\n      and\n      dup2\n      mstore\n      0x20\n      add\n      swap1\n      dup2\n      mstore\n      0x20\n      add\n      0x00\n      keccak256\n        /* \"LuckyBall.sol\":3261:3307  userBallGroups[_tos[i]][getCurrentSeasionId()] */\n      0x00\n        /* \"LuckyBall.sol\":3285:3306  getCurrentSeasionId() */\n      tag_231\n        /* \"LuckyBall.sol\":3285:3304  getCurrentSeasionId */\n      tag_116\n        /* \"LuckyBall.sol\":3285:3306  getCurrentSeasionId() */\n      jump\t// in\n    tag_231:\n        /* \"LuckyBall.sol\":3261:3307  userBallGroups[_tos[i]][getCurrentSeasionId()] */\n      dup2\n      mstore\n      0x20\n      add\n      swap1\n      dup2\n      mstore\n      0x20\n      add\n      0x00\n      keccak256\n        /* \"LuckyBall.sol\":3331:3332  1 */\n      0x01\n        /* \"LuckyBall.sol\":3313:3323  ballGroups */\n      0x05\n        /* \"LuckyBall.sol\":3313:3330  ballGroups.length */\n      dup1\n      sload\n      swap1\n      pop\n        /* \"LuckyBall.sol\":3313:3332  ballGroups.length-1 */\n      tag_232\n      swap2\n      swap1\n      tag_233\n      jump\t// in\n    tag_232:\n        /* \"LuckyBall.sol\":3261:3333  userBallGroups[_tos[i]][getCurrentSeasionId()].push(ballGroups.length-1) */\n      swap1\n      dup1\n      0x01\n      dup2\n      sload\n      add\n      dup1\n      dup3\n      sstore\n      dup1\n      swap2\n      pop\n      pop\n      0x01\n      swap1\n      sub\n      swap1\n      0x00\n      mstore\n      keccak256(0x00, 0x20)\n      add\n      0x00\n      swap1\n      swap2\n      swap1\n      swap2\n      swap1\n      swap2\n      pop\n      sstore\n        /* \"LuckyBall.sol\":3397:3401  _qty */\n      dup4\n      dup4\n        /* \"LuckyBall.sol\":3402:3403  i */\n      dup3\n        /* \"LuckyBall.sol\":3397:3404  _qty[i] */\n      dup2\n      dup2\n      lt\n      tag_235\n      jumpi\n      tag_236\n      tag_215\n      jump\t// in\n    tag_236:\n    tag_235:\n      swap1\n      pop\n      0x20\n      mul\n      add\n      calldataload\n        /* \"LuckyBall.sol\":3347:3361  userBallCounts */\n      0x0e\n        /* \"LuckyBall.sol\":3347:3370  userBallCounts[_tos[i]] */\n      0x00\n        /* \"LuckyBall.sol\":3362:3366  _tos */\n      dup9\n      dup9\n        /* \"LuckyBall.sol\":3367:3368  i */\n      dup6\n        /* \"LuckyBall.sol\":3362:3369  _tos[i] */\n      dup2\n      dup2\n      lt\n      tag_237\n      jumpi\n      tag_238\n      tag_215\n      jump\t// in\n    tag_238:\n    tag_237:\n      swap1\n      pop\n      0x20\n      mul\n      add\n      0x20\n      dup2\n      add\n      swap1\n      tag_239\n      swap2\n      swap1\n      tag_81\n      jump\t// in\n    tag_239:\n        /* \"LuckyBall.sol\":3347:3370  userBallCounts[_tos[i]] */\n      0xffffffffffffffffffffffffffffffffffffffff\n      and\n      0xffffffffffffffffffffffffffffffffffffffff\n      and\n      dup2\n      mstore\n      0x20\n      add\n      swap1\n      dup2\n      mstore\n      0x20\n      add\n      0x00\n      keccak256\n        /* \"LuckyBall.sol\":3347:3393  userBallCounts[_tos[i]][getCurrentSeasionId()] */\n      0x00\n        /* \"LuckyBall.sol\":3371:3392  getCurrentSeasionId() */\n      tag_240\n        /* \"LuckyBall.sol\":3371:3390  getCurrentSeasionId */\n      tag_116\n        /* \"LuckyBall.sol\":3371:3392  getCurrentSeasionId() */\n      jump\t// in\n    tag_240:\n        /* \"LuckyBall.sol\":3347:3393  userBallCounts[_tos[i]][getCurrentSeasionId()] */\n      dup2\n      mstore\n      0x20\n      add\n      swap1\n      dup2\n      mstore\n      0x20\n      add\n      0x00\n      keccak256\n      0x00\n        /* \"LuckyBall.sol\":3347:3404  userBallCounts[_tos[i]][getCurrentSeasionId()] += _qty[i] */\n      dup3\n      dup3\n      sload\n      tag_241\n      swap2\n      swap1\n      tag_222\n      jump\t// in\n    tag_241:\n      swap3\n      pop\n      pop\n      dup2\n      swap1\n      sstore\n      pop\n        /* \"LuckyBall.sol\":3423:3451  BallIssued(_tos[i], _qty[i]) */\n      0x82984aa63633b44e8d3d556ad849611e75e0fba83227eb22f9bdafd013039f82\n        /* \"LuckyBall.sol\":3434:3438  _tos */\n      dup7\n      dup7\n        /* \"LuckyBall.sol\":3439:3440  i */\n      dup4\n        /* \"LuckyBall.sol\":3434:3441  _tos[i] */\n      dup2\n      dup2\n      lt\n      tag_242\n      jumpi\n      tag_243\n      tag_215\n      jump\t// in\n    tag_243:\n    tag_242:\n      swap1\n      pop\n      0x20\n      mul\n      add\n      0x20\n      dup2\n      add\n      swap1\n      tag_244\n      swap2\n      swap1\n      tag_81\n      jump\t// in\n    tag_244:\n        /* \"LuckyBall.sol\":3443:3447  _qty */\n      dup6\n      dup6\n        /* \"LuckyBall.sol\":3448:3449  i */\n      dup5\n        /* \"LuckyBall.sol\":3443:3450  _qty[i] */\n      dup2\n      dup2\n      lt\n      tag_245\n      jumpi\n      tag_246\n      tag_215\n      jump\t// in\n    tag_246:\n    tag_245:\n      swap1\n      pop\n      0x20\n      mul\n      add\n      calldataload\n        /* \"LuckyBall.sol\":3423:3451  BallIssued(_tos[i], _qty[i]) */\n      mload(0x40)\n      tag_247\n      swap3\n      swap2\n      swap1\n      tag_248\n      jump\t// in\n    tag_247:\n      mload(0x40)\n      dup1\n      swap2\n      sub\n      swap1\n      log1\n        /* \"LuckyBall.sol\":3055:3058  i++ */\n      dup1\n      dup1\n      tag_249\n      swap1\n      tag_250\n      jump\t// in\n    tag_249:\n      swap2\n      pop\n      pop\n        /* \"LuckyBall.sol\":3026:3462  for(uint i=0; i<_tos.length; i++) {... */\n      jump(tag_210)\n    tag_211:\n      pop\n        /* \"LuckyBall.sol\":3479:3483  true */\n      0x01\n        /* \"LuckyBall.sol\":3472:3483  return true */\n      swap1\n      pop\n        /* \"LuckyBall.sol\":2818:3497  function issueBalls(address[] calldata _tos, uint[] calldata _qty) public onlyOperator() returns (bool) {... */\n      swap5\n      swap4\n      pop\n      pop\n      pop\n      pop\n      jump\t// out\n        /* \"LuckyBall.sol\":8061:8368  function getHash(... */\n    tag_69:\n        /* \"LuckyBall.sol\":8260:8267  bytes32 */\n      0x00\n        /* \"LuckyBall.sol\":8314:8321  chainId */\n      dup7\n        /* \"LuckyBall.sol\":8323:8328  _this */\n      dup7\n        /* \"LuckyBall.sol\":8330:8334  user */\n      dup7\n        /* \"LuckyBall.sol\":8336:8344  deadline */\n      dup7\n        /* \"LuckyBall.sol\":8346:8351  nonce */\n      dup7\n        /* \"LuckyBall.sol\":8353:8359  method */\n      dup7\n        /* \"LuckyBall.sol\":8297:8360  abi.encodePacked(chainId, _this, user, deadline, nonce, method) */\n      add(0x20, mload(0x40))\n      tag_252\n      swap7\n      swap6\n      swap5\n      swap4\n      swap3\n      swap2\n      swap1\n      tag_253\n      jump\t// in\n    tag_252:\n      mload(0x40)\n      0x20\n      dup2\n      dup4\n      sub\n      sub\n      dup2\n      mstore\n      swap1\n      0x40\n      mstore\n        /* \"LuckyBall.sol\":8287:8361  keccak256(abi.encodePacked(chainId, _this, user, deadline, nonce, method)) */\n      dup1\n      mload\n      swap1\n      0x20\n      add\n      keccak256\n        /* \"LuckyBall.sol\":8280:8361  return keccak256(abi.encodePacked(chainId, _this, user, deadline, nonce, method)) */\n      swap1\n      pop\n        /* \"LuckyBall.sol\":8061:8368  function getHash(... */\n      swap7\n      swap6\n      pop\n      pop\n      pop\n      pop\n      pop\n      pop\n      jump\t// out\n        /* \"LuckyBall.sol\":411:439  bool public isActive = false */\n    tag_73:\n      0x04\n      0x14\n      swap1\n      sload\n      swap1\n      0x0100\n      exp\n      swap1\n      div\n      0xff\n      and\n      dup2\n      jump\t// out\n        /* \"LuckyBall.sol\":4669:4845  function setWinningBallId(uint winner) public onlyOperator() returns (bool) {... */\n    tag_77:\n        /* \"LuckyBall.sol\":4739:4743  bool */\n      0x00\n        /* \"LuckyBall.sol\":1484:1496  _msgSender() */\n      tag_255\n        /* \"LuckyBall.sol\":1484:1494  _msgSender */\n      tag_202\n        /* \"LuckyBall.sol\":1484:1496  _msgSender() */\n      jump\t// in\n    tag_255:\n        /* \"LuckyBall.sol\":1471:1496  _operator == _msgSender() */\n      0xffffffffffffffffffffffffffffffffffffffff\n      and\n        /* \"LuckyBall.sol\":1471:1480  _operator */\n      0x04\n      0x00\n      swap1\n      sload\n      swap1\n      0x0100\n      exp\n      swap1\n      div\n      0xffffffffffffffffffffffffffffffffffffffff\n      and\n        /* \"LuckyBall.sol\":1471:1496  _operator == _msgSender() */\n      0xffffffffffffffffffffffffffffffffffffffff\n      and\n      eq\n        /* \"LuckyBall.sol\":1463:1547  require(_operator == _msgSender(), \"LuckyBall: caller is not the operator address!\") */\n      tag_256\n      jumpi\n      mload(0x40)\n      0x08c379a000000000000000000000000000000000000000000000000000000000\n      dup2\n      mstore\n      0x04\n      add\n      tag_257\n      swap1\n      tag_205\n      jump\t// in\n    tag_257:\n      mload(0x40)\n      dup1\n      swap2\n      sub\n      swap1\n      revert\n    tag_256:\n        /* \"LuckyBall.sol\":4802:4808  winner */\n      dup2\n        /* \"LuckyBall.sol\":4755:4762  seasons */\n      0x09\n        /* \"LuckyBall.sol\":4755:4785  seasons[getCurrentSeasionId()] */\n      0x00\n        /* \"LuckyBall.sol\":4763:4784  getCurrentSeasionId() */\n      tag_259\n        /* \"LuckyBall.sol\":4763:4782  getCurrentSeasionId */\n      tag_116\n        /* \"LuckyBall.sol\":4763:4784  getCurrentSeasionId() */\n      jump\t// in\n    tag_259:\n        /* \"LuckyBall.sol\":4755:4785  seasons[getCurrentSeasionId()] */\n      dup2\n      mstore\n      0x20\n      add\n      swap1\n      dup2\n      mstore\n      0x20\n      add\n      0x00\n      keccak256\n        /* \"LuckyBall.sol\":4755:4799  seasons[getCurrentSeasionId()].winningBallId */\n      0x03\n      add\n        /* \"LuckyBall.sol\":4755:4808  seasons[getCurrentSeasionId()].winningBallId = winner */\n      dup2\n      swap1\n      sstore\n      pop\n        /* \"LuckyBall.sol\":4825:4829  true */\n      0x01\n        /* \"LuckyBall.sol\":4818:4829  return true */\n      swap1\n      pop\n        /* \"LuckyBall.sol\":4669:4845  function setWinningBallId(uint winner) public onlyOperator() returns (bool) {... */\n      swap2\n      swap1\n      pop\n      jump\t// out\n        /* \"LuckyBall.sol\":1038:1082  mapping(address => uint) public newRevealPos */\n    tag_82:\n      mstore(0x20, 0x0d)\n      dup1\n      0x00\n      mstore\n      keccak256(0x00, 0x40)\n      0x00\n      swap2\n      pop\n      swap1\n      pop\n      sload\n      dup2\n      jump\t// out\n        /* \"LuckyBall.sol\":8561:8733  function getChainId() public view returns (uint) {... */\n    tag_85:\n        /* \"LuckyBall.sol\":8604:8608  uint */\n      0x00\n        /* \"LuckyBall.sol\":8620:8632  uint chainId */\n      dup1\n        /* \"LuckyBall.sol\":8676:8685  chainid() */\n      chainid\n        /* \"LuckyBall.sol\":8665:8685  chainId := chainid() */\n      swap1\n      pop\n        /* \"LuckyBall.sol\":8711:8718  chainId */\n      dup1\n        /* \"LuckyBall.sol\":8704:8718  return chainId */\n      swap2\n      pop\n      pop\n        /* \"LuckyBall.sol\":8561:8733  function getChainId() public view returns (uint) {... */\n      swap1\n      jump\t// out\n        /* \"LuckyBall.sol\":475:502  address[] public addrGroups */\n    tag_89:\n      0x06\n      dup2\n      dup2\n      sload\n      dup2\n      lt\n      tag_261\n      jumpi\n      0x00\n      dup1\n      revert\n    tag_261:\n      swap1\n      0x00\n      mstore\n      keccak256(0x00, 0x20)\n      add\n      0x00\n      swap2\n      pop\n      sload\n      swap1\n      0x0100\n      exp\n      swap1\n      div\n      0xffffffffffffffffffffffffffffffffffffffff\n      and\n      dup2\n      jump\t// out\n        /* \"LuckyBall.sol\":4386:4570  function endSeason() external returns (bool) {... */\n    tag_93:\n        /* \"LuckyBall.sol\":4425:4429  bool */\n      0x00\n        /* \"LuckyBall.sol\":4508:4509  1 */\n      0x01\n        /* \"LuckyBall.sol\":4490:4500  ballGroups */\n      0x05\n        /* \"LuckyBall.sol\":4490:4507  ballGroups.length */\n      dup1\n      sload\n      swap1\n      pop\n        /* \"LuckyBall.sol\":4490:4509  ballGroups.length-1 */\n      tag_264\n      swap2\n      swap1\n      tag_233\n      jump\t// in\n    tag_264:\n        /* \"LuckyBall.sol\":4441:4448  seasons */\n      0x09\n        /* \"LuckyBall.sol\":4441:4471  seasons[getCurrentSeasionId()] */\n      0x00\n        /* \"LuckyBall.sol\":4449:4470  getCurrentSeasionId() */\n      tag_265\n        /* \"LuckyBall.sol\":4449:4468  getCurrentSeasionId */\n      tag_116\n        /* \"LuckyBall.sol\":4449:4470  getCurrentSeasionId() */\n      jump\t// in\n    tag_265:\n        /* \"LuckyBall.sol\":4441:4471  seasons[getCurrentSeasionId()] */\n      dup2\n      mstore\n      0x20\n      add\n      swap1\n      dup2\n      mstore\n      0x20\n      add\n      0x00\n      keccak256\n        /* \"LuckyBall.sol\":4441:4487  seasons[getCurrentSeasionId()].endBallGroupPos */\n      0x02\n      add\n        /* \"LuckyBall.sol\":4441:4509  seasons[getCurrentSeasionId()].endBallGroupPos = ballGroups.length-1 */\n      dup2\n      swap1\n      sstore\n      pop\n        /* \"LuckyBall.sol\":4519:4541  requestWinningBallId() */\n      tag_266\n        /* \"LuckyBall.sol\":4519:4539  requestWinningBallId */\n      tag_155\n        /* \"LuckyBall.sol\":4519:4541  requestWinningBallId() */\n      jump\t// in\n    tag_266:\n      pop\n        /* \"LuckyBall.sol\":4559:4563  true */\n      0x01\n        /* \"LuckyBall.sol\":4552:4563  return true */\n      swap1\n      pop\n        /* \"LuckyBall.sol\":4386:4570  function endSeason() external returns (bool) {... */\n      swap1\n      jump\t// out\n        /* \"LuckyBall.sol\":8740:9436  function relayRequestReveal(        ... */\n    tag_98:\n        /* \"LuckyBall.sol\":8902:8906  bool */\n      0x00\n        /* \"LuckyBall.sol\":8948:8963  block.timestamp */\n      timestamp\n        /* \"LuckyBall.sol\":8936:8944  deadline */\n      dup6\n        /* \"LuckyBall.sol\":8936:8963  deadline >= block.timestamp */\n      lt\n      iszero\n        /* \"LuckyBall.sol\":8927:8995  require (deadline >= block.timestamp, \"LuckyBall: expired deadline\") */\n      tag_268\n      jumpi\n      mload(0x40)\n      0x08c379a000000000000000000000000000000000000000000000000000000000\n      dup2\n      mstore\n      0x04\n      add\n      tag_269\n      swap1\n      tag_270\n      jump\t// in\n    tag_269:\n      mload(0x40)\n      dup1\n      swap2\n      sub\n      swap1\n      revert\n    tag_268:\n        /* \"LuckyBall.sol\":9006:9016  uint nonce */\n      0x00\n        /* \"LuckyBall.sol\":9019:9026  _nonces */\n      0x08\n        /* \"LuckyBall.sol\":9019:9032  _nonces[user] */\n      0x00\n        /* \"LuckyBall.sol\":9027:9031  user */\n      dup9\n        /* \"LuckyBall.sol\":9019:9032  _nonces[user] */\n      0xffffffffffffffffffffffffffffffffffffffff\n      and\n      0xffffffffffffffffffffffffffffffffffffffff\n      and\n      dup2\n      mstore\n      0x20\n      add\n      swap1\n      dup2\n      mstore\n      0x20\n      add\n      0x00\n      keccak256\n      0x00\n        /* \"LuckyBall.sol\":9019:9034  _nonces[user]++ */\n      dup2\n      sload\n      dup1\n      swap3\n      swap2\n      swap1\n      tag_271\n      swap1\n      tag_250\n      jump\t// in\n    tag_271:\n      swap2\n      swap1\n      pop\n      sstore\n        /* \"LuckyBall.sol\":9006:9034  uint nonce = _nonces[user]++ */\n      swap1\n      pop\n        /* \"LuckyBall.sol\":9044:9056  uint chainId */\n      0x00\n        /* \"LuckyBall.sol\":9059:9071  getChainId() */\n      tag_272\n        /* \"LuckyBall.sol\":9059:9069  getChainId */\n      tag_85\n        /* \"LuckyBall.sol\":9059:9071  getChainId() */\n      jump\t// in\n    tag_272:\n        /* \"LuckyBall.sol\":9044:9071  uint chainId = getChainId() */\n      swap1\n      pop\n        /* \"LuckyBall.sol\":9081:9094  bytes32 _hash */\n      0x00\n        /* \"LuckyBall.sol\":9097:9257  getHash(... */\n      tag_273\n        /* \"LuckyBall.sol\":9118:9125  chainId */\n      dup3\n        /* \"LuckyBall.sol\":9147:9151  this */\n      address\n        /* \"LuckyBall.sol\":9167:9171  user */\n      dup12\n        /* \"LuckyBall.sol\":9186:9194  deadline */\n      dup12\n        /* \"LuckyBall.sol\":9208:9213  nonce */\n      dup8\n        /* \"LuckyBall.sol\":9097:9257  getHash(... */\n      mload(0x40)\n      dup1\n      0x40\n      add\n      0x40\n      mstore\n      dup1\n      0x12\n      dup2\n      mstore\n      0x20\n      add\n      0x72656c61795265717565737452657665616c0000000000000000000000000000\n      dup2\n      mstore\n      pop\n        /* \"LuckyBall.sol\":9097:9104  getHash */\n      tag_69\n        /* \"LuckyBall.sol\":9097:9257  getHash(... */\n      jump\t// in\n    tag_273:\n        /* \"LuckyBall.sol\":9081:9257  bytes32 _hash = getHash(... */\n      swap1\n      pop\n        /* \"LuckyBall.sol\":9276:9307  verifySig(user, _hash, v, r, s) */\n      tag_274\n        /* \"LuckyBall.sol\":9286:9290  user */\n      dup10\n        /* \"LuckyBall.sol\":9292:9297  _hash */\n      dup3\n        /* \"LuckyBall.sol\":9299:9300  v */\n      dup10\n        /* \"LuckyBall.sol\":9302:9303  r */\n      dup10\n        /* \"LuckyBall.sol\":9305:9306  s */\n      dup10\n        /* \"LuckyBall.sol\":9276:9285  verifySig */\n      tag_127\n        /* \"LuckyBall.sol\":9276:9307  verifySig(user, _hash, v, r, s) */\n      jump\t// in\n    tag_274:\n        /* \"LuckyBall.sol\":9267:9341  require (verifySig(user, _hash, v, r, s), \"LuckyBall: sig does not match\") */\n      tag_275\n      jumpi\n      mload(0x40)\n      0x08c379a000000000000000000000000000000000000000000000000000000000\n      dup2\n      mstore\n      0x04\n      add\n      tag_276\n      swap1\n      tag_277\n      jump\t// in\n    tag_276:\n      mload(0x40)\n      dup1\n      swap2\n      sub\n      swap1\n      revert\n    tag_275:\n        /* \"LuckyBall.sol\":9352:9372  _requestReveal(user) */\n      tag_278\n        /* \"LuckyBall.sol\":9367:9371  user */\n      dup10\n        /* \"LuckyBall.sol\":9352:9366  _requestReveal */\n      tag_279\n        /* \"LuckyBall.sol\":9352:9372  _requestReveal(user) */\n      jump\t// in\n    tag_278:\n      pop\n        /* \"LuckyBall.sol\":9387:9408  RevealRequested(user) */\n      0x70f2a35e5797523ed95e6f73a8ebb18140a58c70016b3b0e7c350fb47035701b\n        /* \"LuckyBall.sol\":9403:9407  user */\n      dup10\n        /* \"LuckyBall.sol\":9387:9408  RevealRequested(user) */\n      mload(0x40)\n      tag_280\n      swap2\n      swap1\n      tag_91\n      jump\t// in\n    tag_280:\n      mload(0x40)\n      dup1\n      swap2\n      sub\n      swap1\n      log1\n        /* \"LuckyBall.sol\":9425:9429  true */\n      0x01\n        /* \"LuckyBall.sol\":9418:9429  return true */\n      swap4\n      pop\n      pop\n      pop\n      pop\n        /* \"LuckyBall.sol\":8740:9436  function relayRequestReveal(        ... */\n      swap6\n      swap5\n      pop\n      pop\n      pop\n      pop\n      pop\n      jump\t// out\n        /* \"LuckyBall.sol\":3864:4182  function ownerOf(uint ballId) public view returns (address) {... */\n    tag_102:\n        /* \"LuckyBall.sol\":3915:3922  address */\n      0x00\n        /* \"LuckyBall.sol\":3948:3949  0 */\n      dup1\n        /* \"LuckyBall.sol\":3938:3944  ballId */\n      dup3\n        /* \"LuckyBall.sol\":3938:3949  ballId == 0 */\n      sub\n        /* \"LuckyBall.sol\":3934:3993  if (ballId == 0) {... */\n      tag_282\n      jumpi\n        /* \"LuckyBall.sol\":3980:3981  0 */\n      0x00\n        /* \"LuckyBall.sol\":3965:3982  return address(0) */\n      swap1\n      pop\n      jump(tag_281)\n        /* \"LuckyBall.sol\":3934:3993  if (ballId == 0) {... */\n    tag_282:\n        /* \"LuckyBall.sol\":4006:4012  uint i */\n      0x00\n        /* \"LuckyBall.sol\":4002:4149  for(uint i=0; i < ballGroups.length; i++) {... */\n    tag_283:\n        /* \"LuckyBall.sol\":4020:4030  ballGroups */\n      0x05\n        /* \"LuckyBall.sol\":4020:4037  ballGroups.length */\n      dup1\n      sload\n      swap1\n      pop\n        /* \"LuckyBall.sol\":4016:4017  i */\n      dup2\n        /* \"LuckyBall.sol\":4016:4037  i < ballGroups.length */\n      lt\n        /* \"LuckyBall.sol\":4002:4149  for(uint i=0; i < ballGroups.length; i++) {... */\n      iszero\n      tag_284\n      jumpi\n        /* \"LuckyBall.sol\":4071:4081  ballGroups */\n      0x05\n        /* \"LuckyBall.sol\":4082:4083  i */\n      dup2\n        /* \"LuckyBall.sol\":4071:4084  ballGroups[i] */\n      dup2\n      sload\n      dup2\n      lt\n      tag_286\n      jumpi\n      tag_287\n      tag_215\n      jump\t// in\n    tag_287:\n    tag_286:\n      swap1\n      0x00\n      mstore\n      keccak256(0x00, 0x20)\n      add\n      sload\n        /* \"LuckyBall.sol\":4061:4067  ballId */\n      dup4\n        /* \"LuckyBall.sol\":4061:4084  ballId <= ballGroups[i] */\n      gt\n        /* \"LuckyBall.sol\":4058:4139  if(ballId <= ballGroups[i]) {... */\n      tag_289\n      jumpi\n        /* \"LuckyBall.sol\":4111:4121  addrGroups */\n      0x06\n        /* \"LuckyBall.sol\":4122:4123  i */\n      dup2\n        /* \"LuckyBall.sol\":4111:4124  addrGroups[i] */\n      dup2\n      sload\n      dup2\n      lt\n      tag_290\n      jumpi\n      tag_291\n      tag_215\n      jump\t// in\n    tag_291:\n    tag_290:\n      swap1\n      0x00\n      mstore\n      keccak256(0x00, 0x20)\n      add\n      0x00\n      swap1\n      sload\n      swap1\n      0x0100\n      exp\n      swap1\n      div\n      0xffffffffffffffffffffffffffffffffffffffff\n      and\n        /* \"LuckyBall.sol\":4104:4124  return addrGroups[i] */\n      swap2\n      pop\n      pop\n      jump(tag_281)\n        /* \"LuckyBall.sol\":4058:4139  if(ballId <= ballGroups[i]) {... */\n    tag_289:\n        /* \"LuckyBall.sol\":4039:4042  i++ */\n      dup1\n      dup1\n      tag_293\n      swap1\n      tag_250\n      jump\t// in\n    tag_293:\n      swap2\n      pop\n      pop\n        /* \"LuckyBall.sol\":4002:4149  for(uint i=0; i < ballGroups.length; i++) {... */\n      jump(tag_283)\n    tag_284:\n      pop\n        /* \"LuckyBall.sol\":4173:4174  0 */\n      0x00\n        /* \"LuckyBall.sol\":4158:4175  return address(0) */\n      swap1\n      pop\n        /* \"LuckyBall.sol\":3864:4182  function ownerOf(uint ballId) public view returns (address) {... */\n    tag_281:\n      swap2\n      swap1\n      pop\n      jump\t// out\n        /* \"@openzeppelin/contracts/access/Ownable.sol\":1824:1925  function renounceOwnership() public virtual onlyOwner {... */\n    tag_105:\n        /* \"@openzeppelin/contracts/access/Ownable.sol\":1094:1107  _checkOwner() */\n      tag_295\n        /* \"@openzeppelin/contracts/access/Ownable.sol\":1094:1105  _checkOwner */\n      tag_296\n        /* \"@openzeppelin/contracts/access/Ownable.sol\":1094:1107  _checkOwner() */\n      jump\t// in\n    tag_295:\n        /* \"@openzeppelin/contracts/access/Ownable.sol\":1888:1918  _transferOwnership(address(0)) */\n      tag_298\n        /* \"@openzeppelin/contracts/access/Ownable.sol\":1915:1916  0 */\n      0x00\n        /* \"@openzeppelin/contracts/access/Ownable.sol\":1888:1906  _transferOwnership */\n      tag_299\n        /* \"@openzeppelin/contracts/access/Ownable.sol\":1888:1918  _transferOwnership(address(0)) */\n      jump\t// in\n    tag_298:\n        /* \"@openzeppelin/contracts/access/Ownable.sol\":1824:1925  function renounceOwnership() public virtual onlyOwner {... */\n      jump\t// out\n        /* \"LuckyBall.sol\":1659:1756  function nonces(address user) public view returns (uint256) {... */\n    tag_108:\n        /* \"LuckyBall.sol\":1710:1717  uint256 */\n      0x00\n        /* \"LuckyBall.sol\":1736:1743  _nonces */\n      0x08\n        /* \"LuckyBall.sol\":1736:1749  _nonces[user] */\n      0x00\n        /* \"LuckyBall.sol\":1744:1748  user */\n      dup4\n        /* \"LuckyBall.sol\":1736:1749  _nonces[user] */\n      0xffffffffffffffffffffffffffffffffffffffff\n      and\n      0xffffffffffffffffffffffffffffffffffffffff\n      and\n      dup2\n      mstore\n      0x20\n      add\n      swap1\n      dup2\n      mstore\n      0x20\n      add\n      0x00\n      keccak256\n      sload\n        /* \"LuckyBall.sol\":1729:1749  return _nonces[user] */\n      swap1\n      pop\n        /* \"LuckyBall.sol\":1659:1756  function nonces(address user) public view returns (uint256) {... */\n      swap2\n      swap1\n      pop\n      jump\t// out\n        /* \"LuckyBall.sol\":799:864  mapping(address => mapping(uint => uint[])) public userBallGroups */\n    tag_113:\n      mstore(0x20, 0x0a)\n      dup3\n      0x00\n      mstore\n      mstore(0x20, keccak256(0x00, 0x40))\n      dup2\n      0x00\n      mstore\n      keccak256(0x00, 0x40)\n      dup2\n      dup2\n      sload\n      dup2\n      lt\n      tag_301\n      jumpi\n      0x00\n      dup1\n      revert\n    tag_301:\n      swap1\n      0x00\n      mstore\n      keccak256(0x00, 0x20)\n      add\n      0x00\n      swap3\n      pop\n      swap3\n      pop\n      pop\n      pop\n      sload\n      dup2\n      jump\t// out\n        /* \"LuckyBall.sol\":1910:2002  function getCurrentSeasionId() public view returns (uint) {... */\n    tag_116:\n        /* \"LuckyBall.sol\":1962:1966  uint */\n      0x00\n        /* \"LuckyBall.sol\":1985:1995  _seasonIds */\n      sload(0x02)\n        /* \"LuckyBall.sol\":1978:1995  return _seasonIds */\n      swap1\n      pop\n        /* \"LuckyBall.sol\":1910:2002  function getCurrentSeasionId() public view returns (uint) {... */\n      swap1\n      jump\t// out\n        /* \"@openzeppelin/contracts/access/Ownable.sol\":1201:1286  function owner() public view virtual returns (address) {... */\n    tag_119:\n        /* \"@openzeppelin/contracts/access/Ownable.sol\":1247:1254  address */\n      0x00\n        /* \"@openzeppelin/contracts/access/Ownable.sol\":1273:1279  _owner */\n      dup1\n      0x00\n      swap1\n      sload\n      swap1\n      0x0100\n      exp\n      swap1\n      div\n      0xffffffffffffffffffffffffffffffffffffffff\n      and\n        /* \"@openzeppelin/contracts/access/Ownable.sol\":1266:1279  return _owner */\n      swap1\n      pop\n        /* \"@openzeppelin/contracts/access/Ownable.sol\":1201:1286  function owner() public view virtual returns (address) {... */\n      swap1\n      jump\t// out\n        /* \"LuckyBall.sol\":2228:2621  function startSeason() external onlyOperator() returns (uint) {... */\n    tag_122:\n        /* \"LuckyBall.sol\":2284:2288  uint */\n      0x00\n        /* \"LuckyBall.sol\":1484:1496  _msgSender() */\n      tag_306\n        /* \"LuckyBall.sol\":1484:1494  _msgSender */\n      tag_202\n        /* \"LuckyBall.sol\":1484:1496  _msgSender() */\n      jump\t// in\n    tag_306:\n        /* \"LuckyBall.sol\":1471:1496  _operator == _msgSender() */\n      0xffffffffffffffffffffffffffffffffffffffff\n      and\n        /* \"LuckyBall.sol\":1471:1480  _operator */\n      0x04\n      0x00\n      swap1\n      sload\n      swap1\n      0x0100\n      exp\n      swap1\n      div\n      0xffffffffffffffffffffffffffffffffffffffff\n      and\n        /* \"LuckyBall.sol\":1471:1496  _operator == _msgSender() */\n      0xffffffffffffffffffffffffffffffffffffffff\n      and\n      eq\n        /* \"LuckyBall.sol\":1463:1547  require(_operator == _msgSender(), \"LuckyBall: caller is not the operator address!\") */\n      tag_307\n      jumpi\n      mload(0x40)\n      0x08c379a000000000000000000000000000000000000000000000000000000000\n      dup2\n      mstore\n      0x04\n      add\n      tag_308\n      swap1\n      tag_205\n      jump\t// in\n    tag_308:\n      mload(0x40)\n      dup1\n      swap2\n      sub\n      swap1\n      revert\n    tag_307:\n        /* \"LuckyBall.sol\":2300:2310  _seasonIds */\n      0x02\n      0x00\n        /* \"LuckyBall.sol\":2300:2312  _seasonIds++ */\n      dup2\n      sload\n      dup1\n      swap3\n      swap2\n      swap1\n      tag_310\n      swap1\n      tag_250\n      jump\t// in\n    tag_310:\n      swap2\n      swap1\n      pop\n      sstore\n      pop\n        /* \"LuckyBall.sol\":2322:2335  uint seasonId */\n      0x00\n        /* \"LuckyBall.sol\":2338:2359  getCurrentSeasionId() */\n      tag_311\n        /* \"LuckyBall.sol\":2338:2357  getCurrentSeasionId */\n      tag_116\n        /* \"LuckyBall.sol\":2338:2359  getCurrentSeasionId() */\n      jump\t// in\n    tag_311:\n        /* \"LuckyBall.sol\":2322:2359  uint seasonId = getCurrentSeasionId() */\n      swap1\n      pop\n        /* \"LuckyBall.sol\":2406:2588  Season(seasonId, ... */\n      mload(0x40)\n      dup1\n      0xa0\n      add\n      0x40\n      mstore\n      dup1\n        /* \"LuckyBall.sol\":2413:2421  seasonId */\n      dup3\n        /* \"LuckyBall.sol\":2406:2588  Season(seasonId, ... */\n      dup2\n      mstore\n      0x20\n      add\n        /* \"LuckyBall.sol\":2448:2472  getCurrentBallGroupPos() */\n      tag_312\n        /* \"LuckyBall.sol\":2448:2470  getCurrentBallGroupPos */\n      tag_55\n        /* \"LuckyBall.sol\":2448:2472  getCurrentBallGroupPos() */\n      jump\t// in\n    tag_312:\n        /* \"LuckyBall.sol\":2406:2588  Season(seasonId, ... */\n      dup2\n      mstore\n      0x20\n      add\n        /* \"LuckyBall.sol\":2504:2505  0 */\n      0x00\n        /* \"LuckyBall.sol\":2406:2588  Season(seasonId, ... */\n      dup2\n      mstore\n      0x20\n      add\n        /* \"LuckyBall.sol\":2538:2539  0 */\n      0x00\n        /* \"LuckyBall.sol\":2406:2588  Season(seasonId, ... */\n      dup2\n      mstore\n      0x20\n      add\n        /* \"LuckyBall.sol\":2566:2587  generateWinningCode() */\n      tag_313\n        /* \"LuckyBall.sol\":2566:2585  generateWinningCode */\n      tag_314\n        /* \"LuckyBall.sol\":2566:2587  generateWinningCode() */\n      jump\t// in\n    tag_313:\n        /* \"LuckyBall.sol\":2406:2588  Season(seasonId, ... */\n      dup2\n      mstore\n      pop\n        /* \"LuckyBall.sol\":2369:2376  seasons */\n      0x09\n        /* \"LuckyBall.sol\":2369:2386  seasons[seasonId] */\n      0x00\n        /* \"LuckyBall.sol\":2377:2385  seasonId */\n      dup4\n        /* \"LuckyBall.sol\":2369:2386  seasons[seasonId] */\n      dup2\n      mstore\n      0x20\n      add\n      swap1\n      dup2\n      mstore\n      0x20\n      add\n      0x00\n      keccak256\n        /* \"LuckyBall.sol\":2369:2588  seasons[seasonId] = ... */\n      0x00\n      dup3\n      add\n      mload\n      dup2\n      0x00\n      add\n      sstore\n      0x20\n      dup3\n      add\n      mload\n      dup2\n      0x01\n      add\n      sstore\n      0x40\n      dup3\n      add\n      mload\n      dup2\n      0x02\n      add\n      sstore\n      0x60\n      dup3\n      add\n      mload\n      dup2\n      0x03\n      add\n      sstore\n      0x80\n      dup3\n      add\n      mload\n      dup2\n      0x04\n      add\n      sstore\n      swap1\n      pop\n      pop\n        /* \"LuckyBall.sol\":2606:2614  seasonId */\n      dup1\n        /* \"LuckyBall.sol\":2599:2614  return seasonId */\n      swap2\n      pop\n      pop\n        /* \"LuckyBall.sol\":2228:2621  function startSeason() external onlyOperator() returns (uint) {... */\n      swap1\n      jump\t// out\n        /* \"LuckyBall.sol\":8374:8555  function verifySig(address addr, bytes32 _hash, uint8 v, bytes32 r, bytes32 s) ... */\n    tag_127:\n        /* \"LuckyBall.sol\":8492:8496  bool */\n      0x00\n        /* \"LuckyBall.sol\":8544:8548  addr */\n      dup6\n        /* \"LuckyBall.sol\":8515:8548  ecrecover(_hash, v, r, s) == addr */\n      0xffffffffffffffffffffffffffffffffffffffff\n      and\n        /* \"LuckyBall.sol\":8515:8540  ecrecover(_hash, v, r, s) */\n      0x01\n        /* \"LuckyBall.sol\":8525:8530  _hash */\n      dup7\n        /* \"LuckyBall.sol\":8532:8533  v */\n      dup7\n        /* \"LuckyBall.sol\":8535:8536  r */\n      dup7\n        /* \"LuckyBall.sol\":8538:8539  s */\n      dup7\n        /* \"LuckyBall.sol\":8515:8540  ecrecover(_hash, v, r, s) */\n      mload(0x40)\n      0x00\n      dup2\n      mstore\n      0x20\n      add\n      0x40\n      mstore\n      mload(0x40)\n      tag_316\n      swap5\n      swap4\n      swap3\n      swap2\n      swap1\n      tag_317\n      jump\t// in\n    tag_316:\n      0x20\n      mload(0x40)\n      0x20\n      dup2\n      sub\n      swap1\n      dup1\n      dup5\n      sub\n      swap1\n      dup6\n      gas\n      staticcall\n      iszero\n      dup1\n      iszero\n      tag_319\n      jumpi\n      returndatasize\n      0x00\n      dup1\n      returndatacopy\n      revert(0x00, returndatasize)\n    tag_319:\n      pop\n      pop\n      pop\n      mload(sub(mload(0x40), 0x20))\n        /* \"LuckyBall.sol\":8515:8548  ecrecover(_hash, v, r, s) == addr */\n      0xffffffffffffffffffffffffffffffffffffffff\n      and\n      eq\n        /* \"LuckyBall.sol\":8508:8548  return ecrecover(_hash, v, r, s) == addr */\n      swap1\n      pop\n        /* \"LuckyBall.sol\":8374:8555  function verifySig(address addr, bytes32 _hash, uint8 v, bytes32 r, bytes32 s) ... */\n      swap6\n      swap5\n      pop\n      pop\n      pop\n      pop\n      pop\n      jump\t// out\n        /* \"LuckyBall.sol\":508:533  uint public ballCount = 0 */\n    tag_130:\n      sload(0x07)\n      dup2\n      jump\t// out\n        /* \"LuckyBall.sol\":6520:6711  function setRevealGroupSeed(uint seed) public onlyOperator() returns (bool) {... */\n    tag_134:\n        /* \"LuckyBall.sol\":6590:6594  bool */\n      0x00\n        /* \"LuckyBall.sol\":1484:1496  _msgSender() */\n      tag_321\n        /* \"LuckyBall.sol\":1484:1494  _msgSender */\n      tag_202\n        /* \"LuckyBall.sol\":1484:1496  _msgSender() */\n      jump\t// in\n    tag_321:\n        /* \"LuckyBall.sol\":1471:1496  _operator == _msgSender() */\n      0xffffffffffffffffffffffffffffffffffffffff\n      and\n        /* \"LuckyBall.sol\":1471:1480  _operator */\n      0x04\n      0x00\n      swap1\n      sload\n      swap1\n      0x0100\n      exp\n      swap1\n      div\n      0xffffffffffffffffffffffffffffffffffffffff\n      and\n        /* \"LuckyBall.sol\":1471:1496  _operator == _msgSender() */\n      0xffffffffffffffffffffffffffffffffffffffff\n      and\n      eq\n        /* \"LuckyBall.sol\":1463:1547  require(_operator == _msgSender(), \"LuckyBall: caller is not the operator address!\") */\n      tag_322\n      jumpi\n      mload(0x40)\n      0x08c379a000000000000000000000000000000000000000000000000000000000\n      dup2\n      mstore\n      0x04\n      add\n      tag_323\n      swap1\n      tag_205\n      jump\t// in\n    tag_323:\n      mload(0x40)\n      dup1\n      swap2\n      sub\n      swap1\n      revert\n    tag_322:\n        /* \"LuckyBall.sol\":6652:6656  seed */\n      dup2\n        /* \"LuckyBall.sol\":6606:6622  revealGroupSeeds */\n      0x0c\n        /* \"LuckyBall.sol\":6606:6649  revealGroupSeeds[getCurrentRevealGroupId()] */\n      0x00\n        /* \"LuckyBall.sol\":6623:6648  getCurrentRevealGroupId() */\n      tag_325\n        /* \"LuckyBall.sol\":6623:6646  getCurrentRevealGroupId */\n      tag_137\n        /* \"LuckyBall.sol\":6623:6648  getCurrentRevealGroupId() */\n      jump\t// in\n    tag_325:\n        /* \"LuckyBall.sol\":6606:6649  revealGroupSeeds[getCurrentRevealGroupId()] */\n      dup2\n      mstore\n      0x20\n      add\n      swap1\n      dup2\n      mstore\n      0x20\n      add\n      0x00\n      keccak256\n        /* \"LuckyBall.sol\":6606:6656  revealGroupSeeds[getCurrentRevealGroupId()] = seed */\n      dup2\n      swap1\n      sstore\n      pop\n        /* \"LuckyBall.sol\":6666:6681  _revealGroupIds */\n      0x03\n      0x00\n        /* \"LuckyBall.sol\":6666:6683  _revealGroupIds++ */\n      dup2\n      sload\n      dup1\n      swap3\n      swap2\n      swap1\n      tag_326\n      swap1\n      tag_250\n      jump\t// in\n    tag_326:\n      swap2\n      swap1\n      pop\n      sstore\n      pop\n        /* \"LuckyBall.sol\":6700:6704  true */\n      0x01\n        /* \"LuckyBall.sol\":6693:6704  return true */\n      swap1\n      pop\n        /* \"LuckyBall.sol\":6520:6711  function setRevealGroupSeed(uint seed) public onlyOperator() returns (bool) {... */\n      swap2\n      swap1\n      pop\n      jump\t// out\n        /* \"LuckyBall.sol\":2116:2217  function getCurrentRevealGroupId() public view returns (uint) {... */\n    tag_137:\n        /* \"LuckyBall.sol\":2172:2176  uint */\n      0x00\n        /* \"LuckyBall.sol\":2195:2210  _revealGroupIds */\n      sload(0x03)\n        /* \"LuckyBall.sol\":2188:2210  return _revealGroupIds */\n      swap1\n      pop\n        /* \"LuckyBall.sol\":2116:2217  function getCurrentRevealGroupId() public view returns (uint) {... */\n      swap1\n      jump\t// out\n        /* \"LuckyBall.sol\":5010:5109  function requestReveal() public returns (bool) {... */\n    tag_140:\n        /* \"LuckyBall.sol\":5051:5055  bool */\n      0x00\n        /* \"LuckyBall.sol\":5074:5102  _requestReveal(_msgSender()) */\n      tag_329\n        /* \"LuckyBall.sol\":5089:5101  _msgSender() */\n      tag_330\n        /* \"LuckyBall.sol\":5089:5099  _msgSender */\n      tag_202\n        /* \"LuckyBall.sol\":5089:5101  _msgSender() */\n      jump\t// in\n    tag_330:\n        /* \"LuckyBall.sol\":5074:5088  _requestReveal */\n      tag_279\n        /* \"LuckyBall.sol\":5074:5102  _requestReveal(_msgSender()) */\n      jump\t// in\n    tag_329:\n        /* \"LuckyBall.sol\":5067:5102  return _requestReveal(_msgSender()) */\n      swap1\n      pop\n        /* \"LuckyBall.sol\":5010:5109  function requestReveal() public returns (bool) {... */\n      swap1\n      jump\t// out\n        /* \"LuckyBall.sol\":445:469  uint[] public ballGroups */\n    tag_144:\n      0x05\n      dup2\n      dup2\n      sload\n      dup2\n      lt\n      tag_331\n      jumpi\n      0x00\n      dup1\n      revert\n    tag_331:\n      swap1\n      0x00\n      mstore\n      keccak256(0x00, 0x20)\n      add\n      0x00\n      swap2\n      pop\n      swap1\n      pop\n      sload\n      dup2\n      jump\t// out\n        /* \"LuckyBall.sol\":957:1002  mapping(uint => uint) public revealGroupSeeds */\n    tag_148:\n      mstore(0x20, 0x0c)\n      dup1\n      0x00\n      mstore\n      keccak256(0x00, 0x40)\n      0x00\n      swap2\n      pop\n      swap1\n      pop\n      sload\n      dup2\n      jump\t// out\n        /* \"LuckyBall.sol\":1767:1904  function setOperator(address _newOperator) public onlyOwner returns (bool) {... */\n    tag_152:\n        /* \"LuckyBall.sol\":1836:1840  bool */\n      0x00\n        /* \"@openzeppelin/contracts/access/Ownable.sol\":1094:1107  _checkOwner() */\n      tag_334\n        /* \"@openzeppelin/contracts/access/Ownable.sol\":1094:1105  _checkOwner */\n      tag_296\n        /* \"@openzeppelin/contracts/access/Ownable.sol\":1094:1107  _checkOwner() */\n      jump\t// in\n    tag_334:\n        /* \"LuckyBall.sol\":1864:1876  _newOperator */\n      dup2\n        /* \"LuckyBall.sol\":1852:1861  _operator */\n      0x04\n      0x00\n        /* \"LuckyBall.sol\":1852:1876  _operator = _newOperator */\n      0x0100\n      exp\n      dup2\n      sload\n      dup2\n      0xffffffffffffffffffffffffffffffffffffffff\n      mul\n      not\n      and\n      swap1\n      dup4\n      0xffffffffffffffffffffffffffffffffffffffff\n      and\n      mul\n      or\n      swap1\n      sstore\n      pop\n        /* \"LuckyBall.sol\":1893:1897  true */\n      0x01\n        /* \"LuckyBall.sol\":1886:1897  return true */\n      swap1\n      pop\n        /* \"LuckyBall.sol\":1767:1904  function setOperator(address _newOperator) public onlyOwner returns (bool) {... */\n      swap2\n      swap1\n      pop\n      jump\t// out\n        /* \"LuckyBall.sol\":4576:4663  function requestWinningBallId() public pure returns (bool) {... */\n    tag_155:\n        /* \"LuckyBall.sol\":4629:4633  bool */\n      0x00\n        /* \"LuckyBall.sol\":4652:4656  true */\n      0x01\n        /* \"LuckyBall.sol\":4645:4656  return true */\n      swap1\n      pop\n        /* \"LuckyBall.sol\":4576:4663  function requestWinningBallId() public pure returns (bool) {... */\n      swap1\n      jump\t// out\n        /* \"LuckyBall.sol\":6717:6992  function getBallCode(uint ballId) public view returns (uint) {... */\n    tag_159:\n        /* \"LuckyBall.sol\":6772:6776  uint */\n      0x00\n        /* \"LuckyBall.sol\":6788:6797  uint seed */\n      dup1\n        /* \"LuckyBall.sol\":6800:6816  revealGroupSeeds */\n      0x0c\n        /* \"LuckyBall.sol\":6800:6840  revealGroupSeeds[getRevealGroup(ballId)] */\n      0x00\n        /* \"LuckyBall.sol\":6817:6839  getRevealGroup(ballId) */\n      tag_338\n        /* \"LuckyBall.sol\":6832:6838  ballId */\n      dup6\n        /* \"LuckyBall.sol\":6817:6831  getRevealGroup */\n      tag_163\n        /* \"LuckyBall.sol\":6817:6839  getRevealGroup(ballId) */\n      jump\t// in\n    tag_338:\n        /* \"LuckyBall.sol\":6800:6840  revealGroupSeeds[getRevealGroup(ballId)] */\n      dup2\n      mstore\n      0x20\n      add\n      swap1\n      dup2\n      mstore\n      0x20\n      add\n      0x00\n      keccak256\n      sload\n        /* \"LuckyBall.sol\":6788:6840  uint seed = revealGroupSeeds[getRevealGroup(ballId)] */\n      swap1\n      pop\n        /* \"LuckyBall.sol\":6866:6867  0 */\n      0x00\n        /* \"LuckyBall.sol\":6854:6858  seed */\n      dup2\n        /* \"LuckyBall.sol\":6854:6868  seed > uint(0) */\n      gt\n        /* \"LuckyBall.sol\":6850:6962  if (seed > uint(0)) {... */\n      iszero\n      tag_339\n      jumpi\n        /* \"LuckyBall.sol\":6891:6951  extractCode(uint(keccak256(abi.encodePacked(seed, ballId)))) */\n      tag_340\n        /* \"LuckyBall.sol\":6935:6939  seed */\n      dup2\n        /* \"LuckyBall.sol\":6941:6947  ballId */\n      dup5\n        /* \"LuckyBall.sol\":6918:6948  abi.encodePacked(seed, ballId) */\n      add(0x20, mload(0x40))\n      tag_341\n      swap3\n      swap2\n      swap1\n      tag_342\n      jump\t// in\n    tag_341:\n      mload(0x40)\n      0x20\n      dup2\n      dup4\n      sub\n      sub\n      dup2\n      mstore\n      swap1\n      0x40\n      mstore\n        /* \"LuckyBall.sol\":6908:6949  keccak256(abi.encodePacked(seed, ballId)) */\n      dup1\n      mload\n      swap1\n      0x20\n      add\n      keccak256\n        /* \"LuckyBall.sol\":6903:6950  uint(keccak256(abi.encodePacked(seed, ballId))) */\n      0x00\n      shr\n        /* \"LuckyBall.sol\":6891:6902  extractCode */\n      tag_171\n        /* \"LuckyBall.sol\":6891:6951  extractCode(uint(keccak256(abi.encodePacked(seed, ballId)))) */\n      jump\t// in\n    tag_340:\n        /* \"LuckyBall.sol\":6884:6951  return extractCode(uint(keccak256(abi.encodePacked(seed, ballId)))) */\n      swap2\n      pop\n      pop\n      jump(tag_337)\n        /* \"LuckyBall.sol\":6850:6962  if (seed > uint(0)) {... */\n    tag_339:\n        /* \"LuckyBall.sol\":6983:6984  0 */\n      0x00\n        /* \"LuckyBall.sol\":6971:6985  return uint(0) */\n      swap2\n      pop\n      pop\n        /* \"LuckyBall.sol\":6717:6992  function getBallCode(uint ballId) public view returns (uint) {... */\n    tag_337:\n      swap2\n      swap1\n      pop\n      jump\t// out\n        /* \"LuckyBall.sol\":5733:5858  function getRevealGroup(uint ballId) public view returns (uint) {... */\n    tag_163:\n        /* \"LuckyBall.sol\":5791:5795  uint */\n      0x00\n        /* \"LuckyBall.sol\":5814:5826  revealGroups */\n      0x0b\n        /* \"LuckyBall.sol\":5814:5851  revealGroups[getBallGroupPos(ballId)] */\n      0x00\n        /* \"LuckyBall.sol\":5827:5850  getBallGroupPos(ballId) */\n      tag_344\n        /* \"LuckyBall.sol\":5843:5849  ballId */\n      dup5\n        /* \"LuckyBall.sol\":5827:5842  getBallGroupPos */\n      tag_167\n        /* \"LuckyBall.sol\":5827:5850  getBallGroupPos(ballId) */\n      jump\t// in\n    tag_344:\n        /* \"LuckyBall.sol\":5814:5851  revealGroups[getBallGroupPos(ballId)] */\n      dup2\n      mstore\n      0x20\n      add\n      swap1\n      dup2\n      mstore\n      0x20\n      add\n      0x00\n      keccak256\n      sload\n        /* \"LuckyBall.sol\":5807:5851  return revealGroups[getBallGroupPos(ballId)] */\n      swap1\n      pop\n        /* \"LuckyBall.sol\":5733:5858  function getRevealGroup(uint ballId) public view returns (uint) {... */\n      swap2\n      swap1\n      pop\n      jump\t// out\n        /* \"LuckyBall.sol\":5864:6513  function getBallGroupPos(uint ballId) public view returns (uint) {... */\n    tag_167:\n        /* \"LuckyBall.sol\":5923:5927  uint */\n      0x00\n        /* \"LuckyBall.sol\":5957:5958  0 */\n      dup1\n        /* \"LuckyBall.sol\":5948:5954  ballId */\n      dup3\n        /* \"LuckyBall.sol\":5948:5958  ballId > 0 */\n      gt\n        /* \"LuckyBall.sol\":5948:5981  ballId > 0 && ballId <= ballCount */\n      dup1\n      iszero\n      tag_346\n      jumpi\n      pop\n        /* \"LuckyBall.sol\":5972:5981  ballCount */\n      sload(0x07)\n        /* \"LuckyBall.sol\":5962:5968  ballId */\n      dup3\n        /* \"LuckyBall.sol\":5962:5981  ballId <= ballCount */\n      gt\n      iszero\n        /* \"LuckyBall.sol\":5948:5981  ballId > 0 && ballId <= ballCount */\n    tag_346:\n        /* \"LuckyBall.sol\":5939:6019  require (ballId > 0 && ballId <= ballCount, \"LuckyBall: ballId is out of range\") */\n      tag_347\n      jumpi\n      mload(0x40)\n      0x08c379a000000000000000000000000000000000000000000000000000000000\n      dup2\n      mstore\n      0x04\n      add\n      tag_348\n      swap1\n      tag_349\n      jump\t// in\n    tag_348:\n      mload(0x40)\n      dup1\n      swap2\n      sub\n      swap1\n      revert\n    tag_347:\n        /* \"LuckyBall.sol\":6058:6059  0 */\n      0x00\n        /* \"LuckyBall.sol\":6038:6048  ballGroups */\n      0x05\n        /* \"LuckyBall.sol\":6038:6055  ballGroups.length */\n      dup1\n      sload\n      swap1\n      pop\n        /* \"LuckyBall.sol\":6038:6059  ballGroups.length > 0 */\n      gt\n        /* \"LuckyBall.sol\":6029:6088  require (ballGroups.length > 0, \"LuckBall: No ball issued\") */\n      tag_350\n      jumpi\n      mload(0x40)\n      0x08c379a000000000000000000000000000000000000000000000000000000000\n      dup2\n      mstore\n      0x04\n      add\n      tag_351\n      swap1\n      tag_352\n      jump\t// in\n    tag_351:\n      mload(0x40)\n      dup1\n      swap2\n      sub\n      swap1\n      revert\n    tag_350:\n        /* \"LuckyBall.sol\":6108:6114  uint i */\n      0x00\n        /* \"LuckyBall.sol\":6133:6134  1 */\n      0x01\n        /* \"LuckyBall.sol\":6115:6125  ballGroups */\n      0x05\n        /* \"LuckyBall.sol\":6115:6132  ballGroups.length */\n      dup1\n      sload\n      swap1\n      pop\n        /* \"LuckyBall.sol\":6115:6134  ballGroups.length-1 */\n      tag_356\n      swap2\n      swap1\n      tag_233\n      jump\t// in\n    tag_356:\n        /* \"LuckyBall.sol\":6108:6134  uint i=ballGroups.length-1 */\n      swap1\n      pop\n        /* \"LuckyBall.sol\":6103:6468  for (uint i=ballGroups.length-1; i >= 0; i--) {... */\n    tag_353:\n        /* \"LuckyBall.sol\":6141:6142  0 */\n      0x00\n        /* \"LuckyBall.sol\":6136:6137  i */\n      dup2\n        /* \"LuckyBall.sol\":6136:6142  i >= 0 */\n      lt\n        /* \"LuckyBall.sol\":6103:6468  for (uint i=ballGroups.length-1; i >= 0; i--) {... */\n      tag_354\n      jumpi\n        /* \"LuckyBall.sol\":6163:6173  uint start */\n      0x00\n        /* \"LuckyBall.sol\":6196:6197  0 */\n      dup1\n        /* \"LuckyBall.sol\":6191:6192  i */\n      dup3\n        /* \"LuckyBall.sol\":6191:6197  i == 0 */\n      sub\n        /* \"LuckyBall.sol\":6187:6305  if (i == 0) {... */\n      tag_357\n      jumpi\n        /* \"LuckyBall.sol\":6225:6226  1 */\n      0x01\n        /* \"LuckyBall.sol\":6217:6226  start = 1 */\n      swap1\n      pop\n        /* \"LuckyBall.sol\":6187:6305  if (i == 0) {... */\n      jump(tag_358)\n    tag_357:\n        /* \"LuckyBall.sol\":6289:6290  1 */\n      0x01\n        /* \"LuckyBall.sol\":6273:6283  ballGroups */\n      0x05\n        /* \"LuckyBall.sol\":6286:6287  1 */\n      0x01\n        /* \"LuckyBall.sol\":6284:6285  i */\n      dup5\n        /* \"LuckyBall.sol\":6284:6287  i-1 */\n      tag_359\n      swap2\n      swap1\n      tag_233\n      jump\t// in\n    tag_359:\n        /* \"LuckyBall.sol\":6273:6288  ballGroups[i-1] */\n      dup2\n      sload\n      dup2\n      lt\n      tag_360\n      jumpi\n      tag_361\n      tag_215\n      jump\t// in\n    tag_361:\n    tag_360:\n      swap1\n      0x00\n      mstore\n      keccak256(0x00, 0x20)\n      add\n      sload\n        /* \"LuckyBall.sol\":6273:6290  ballGroups[i-1]+1 */\n      tag_363\n      swap2\n      swap1\n      tag_222\n      jump\t// in\n    tag_363:\n        /* \"LuckyBall.sol\":6265:6290  start = ballGroups[i-1]+1 */\n      swap1\n      pop\n        /* \"LuckyBall.sol\":6187:6305  if (i == 0) {... */\n    tag_358:\n        /* \"LuckyBall.sol\":6318:6326  uint end */\n      0x00\n        /* \"LuckyBall.sol\":6329:6339  ballGroups */\n      0x05\n        /* \"LuckyBall.sol\":6340:6341  i */\n      dup4\n        /* \"LuckyBall.sol\":6329:6342  ballGroups[i] */\n      dup2\n      sload\n      dup2\n      lt\n      tag_364\n      jumpi\n      tag_365\n      tag_215\n      jump\t// in\n    tag_365:\n    tag_364:\n      swap1\n      0x00\n      mstore\n      keccak256(0x00, 0x20)\n      add\n      sload\n        /* \"LuckyBall.sol\":6318:6342  uint end = ballGroups[i] */\n      swap1\n      pop\n        /* \"LuckyBall.sol\":6371:6374  end */\n      dup1\n        /* \"LuckyBall.sol\":6361:6367  ballId */\n      dup6\n        /* \"LuckyBall.sol\":6361:6374  ballId <= end */\n      gt\n      iszero\n        /* \"LuckyBall.sol\":6361:6393  ballId <= end && ballId >= start */\n      dup1\n      iszero\n      tag_367\n      jumpi\n      pop\n        /* \"LuckyBall.sol\":6388:6393  start */\n      dup2\n        /* \"LuckyBall.sol\":6378:6384  ballId */\n      dup6\n        /* \"LuckyBall.sol\":6378:6393  ballId >= start */\n      lt\n      iszero\n        /* \"LuckyBall.sol\":6361:6393  ballId <= end && ballId >= start */\n    tag_367:\n        /* \"LuckyBall.sol\":6357:6436  if (ballId <= end && ballId >= start) {... */\n      iszero\n      tag_368\n      jumpi\n        /* \"LuckyBall.sol\":6420:6421  i */\n      dup3\n        /* \"LuckyBall.sol\":6413:6421  return i */\n      swap4\n      pop\n      pop\n      pop\n      pop\n      jump(tag_345)\n        /* \"LuckyBall.sol\":6357:6436  if (ballId <= end && ballId >= start) {... */\n    tag_368:\n        /* \"LuckyBall.sol\":6449:6457  continue */\n      pop\n      pop\n        /* \"LuckyBall.sol\":6144:6147  i-- */\n      dup1\n      dup1\n      tag_369\n      swap1\n      tag_370\n      jump\t// in\n    tag_369:\n      swap2\n      pop\n      pop\n        /* \"LuckyBall.sol\":6103:6468  for (uint i=ballGroups.length-1; i >= 0; i--) {... */\n      jump(tag_353)\n    tag_354:\n      pop\n        /* \"LuckyBall.sol\":6477:6506  revert(\"BallId is not found\") */\n      mload(0x40)\n      0x08c379a000000000000000000000000000000000000000000000000000000000\n      dup2\n      mstore\n      0x04\n      add\n      tag_371\n      swap1\n      tag_372\n      jump\t// in\n    tag_371:\n      mload(0x40)\n      dup1\n      swap2\n      sub\n      swap1\n      revert\n        /* \"LuckyBall.sol\":5864:6513  function getBallGroupPos(uint ballId) public view returns (uint) {... */\n    tag_345:\n      swap2\n      swap1\n      pop\n      jump\t// out\n        /* \"LuckyBall.sol\":4851:5003  function extractCode(uint n) public pure returns (uint) {... */\n    tag_171:\n        /* \"LuckyBall.sol\":4901:4905  uint */\n      0x00\n        /* \"LuckyBall.sol\":4917:4923  uint r */\n      dup1\n        /* \"LuckyBall.sol\":4930:4937  1000000 */\n      0x0f4240\n        /* \"LuckyBall.sol\":4926:4927  n */\n      dup4\n        /* \"LuckyBall.sol\":4926:4937  n % 1000000 */\n      tag_374\n      swap2\n      swap1\n      tag_375\n      jump\t// in\n    tag_374:\n        /* \"LuckyBall.sol\":4917:4937  uint r = n % 1000000 */\n      swap1\n      pop\n        /* \"LuckyBall.sol\":4955:4961  100000 */\n      0x0186a0\n        /* \"LuckyBall.sol\":4951:4952  r */\n      dup2\n        /* \"LuckyBall.sol\":4951:4961  r < 100000 */\n      lt\n        /* \"LuckyBall.sol\":4947:4979  if (r < 100000) { r += 100000; } */\n      iszero\n      tag_376\n      jumpi\n        /* \"LuckyBall.sol\":4970:4976  100000 */\n      0x0186a0\n        /* \"LuckyBall.sol\":4965:4976  r += 100000 */\n      dup2\n      tag_377\n      swap2\n      swap1\n      tag_222\n      jump\t// in\n    tag_377:\n      swap1\n      pop\n        /* \"LuckyBall.sol\":4947:4979  if (r < 100000) { r += 100000; } */\n    tag_376:\n        /* \"LuckyBall.sol\":4995:4996  r */\n      dup1\n        /* \"LuckyBall.sol\":4988:4996  return r */\n      swap2\n      pop\n      pop\n        /* \"LuckyBall.sol\":4851:5003  function extractCode(uint n) public pure returns (uint) {... */\n      swap2\n      swap1\n      pop\n      jump\t// out\n        /* \"LuckyBall.sol\":3503:3858  function issueTest() public {... */\n    tag_174:\n        /* \"LuckyBall.sol\":3541:3550  address a */\n      0x00\n        /* \"LuckyBall.sol\":3553:3595  0x5B38Da6a701c568545dCfcB03FcB875f56beddC4 */\n      0x5b38da6a701c568545dcfcb03fcb875f56beddc4\n        /* \"LuckyBall.sol\":3541:3595  address a = 0x5B38Da6a701c568545dCfcB03FcB875f56beddC4 */\n      swap1\n      pop\n        /* \"LuckyBall.sol\":3618:3621  100 */\n      0x64\n        /* \"LuckyBall.sol\":3605:3614  ballCount */\n      0x07\n      0x00\n        /* \"LuckyBall.sol\":3605:3621  ballCount += 100 */\n      dup3\n      dup3\n      sload\n      tag_379\n      swap2\n      swap1\n      tag_222\n      jump\t// in\n    tag_379:\n      swap3\n      pop\n      pop\n      dup2\n      swap1\n      sstore\n      pop\n        /* \"LuckyBall.sol\":3631:3641  ballGroups */\n      0x05\n        /* \"LuckyBall.sol\":3647:3656  ballCount */\n      sload(0x07)\n        /* \"LuckyBall.sol\":3631:3657  ballGroups.push(ballCount) */\n      swap1\n      dup1\n      0x01\n      dup2\n      sload\n      add\n      dup1\n      dup3\n      sstore\n      dup1\n      swap2\n      pop\n      pop\n      0x01\n      swap1\n      sub\n      swap1\n      0x00\n      mstore\n      keccak256(0x00, 0x20)\n      add\n      0x00\n      swap1\n      swap2\n      swap1\n      swap2\n      swap1\n      swap2\n      pop\n      sstore\n        /* \"LuckyBall.sol\":3667:3677  addrGroups */\n      0x06\n        /* \"LuckyBall.sol\":3683:3684  a */\n      dup2\n        /* \"LuckyBall.sol\":3667:3685  addrGroups.push(a) */\n      swap1\n      dup1\n      0x01\n      dup2\n      sload\n      add\n      dup1\n      dup3\n      sstore\n      dup1\n      swap2\n      pop\n      pop\n      0x01\n      swap1\n      sub\n      swap1\n      0x00\n      mstore\n      keccak256(0x00, 0x20)\n      add\n      0x00\n      swap1\n      swap2\n      swap1\n      swap2\n      swap1\n      swap2\n      0x0100\n      exp\n      dup2\n      sload\n      dup2\n      0xffffffffffffffffffffffffffffffffffffffff\n      mul\n      not\n      and\n      swap1\n      dup4\n      0xffffffffffffffffffffffffffffffffffffffff\n      and\n      mul\n      or\n      swap1\n      sstore\n      pop\n        /* \"LuckyBall.sol\":3695:3709  userBallGroups */\n      0x0a\n        /* \"LuckyBall.sol\":3695:3712  userBallGroups[a] */\n      0x00\n        /* \"LuckyBall.sol\":3710:3711  a */\n      dup3\n        /* \"LuckyBall.sol\":3695:3712  userBallGroups[a] */\n      0xffffffffffffffffffffffffffffffffffffffff\n      and\n      0xffffffffffffffffffffffffffffffffffffffff\n      and\n      dup2\n      mstore\n      0x20\n      add\n      swap1\n      dup2\n      mstore\n      0x20\n      add\n      0x00\n      keccak256\n        /* \"LuckyBall.sol\":3695:3735  userBallGroups[a][getCurrentSeasionId()] */\n      0x00\n        /* \"LuckyBall.sol\":3713:3734  getCurrentSeasionId() */\n      tag_382\n        /* \"LuckyBall.sol\":3713:3732  getCurrentSeasionId */\n      tag_116\n        /* \"LuckyBall.sol\":3713:3734  getCurrentSeasionId() */\n      jump\t// in\n    tag_382:\n        /* \"LuckyBall.sol\":3695:3735  userBallGroups[a][getCurrentSeasionId()] */\n      dup2\n      mstore\n      0x20\n      add\n      swap1\n      dup2\n      mstore\n      0x20\n      add\n      0x00\n      keccak256\n        /* \"LuckyBall.sol\":3759:3760  1 */\n      0x01\n        /* \"LuckyBall.sol\":3741:3751  ballGroups */\n      0x05\n        /* \"LuckyBall.sol\":3741:3758  ballGroups.length */\n      dup1\n      sload\n      swap1\n      pop\n        /* \"LuckyBall.sol\":3741:3760  ballGroups.length-1 */\n      tag_383\n      swap2\n      swap1\n      tag_233\n      jump\t// in\n    tag_383:\n        /* \"LuckyBall.sol\":3695:3761  userBallGroups[a][getCurrentSeasionId()].push(ballGroups.length-1) */\n      swap1\n      dup1\n      0x01\n      dup2\n      sload\n      add\n      dup1\n      dup3\n      sstore\n      dup1\n      swap2\n      pop\n      pop\n      0x01\n      swap1\n      sub\n      swap1\n      0x00\n      mstore\n      keccak256(0x00, 0x20)\n      add\n      0x00\n      swap1\n      swap2\n      swap1\n      swap2\n      swap1\n      swap2\n      pop\n      sstore\n        /* \"LuckyBall.sol\":3815:3818  100 */\n      0x64\n        /* \"LuckyBall.sol\":3771:3785  userBallCounts */\n      0x0e\n        /* \"LuckyBall.sol\":3771:3788  userBallCounts[a] */\n      0x00\n        /* \"LuckyBall.sol\":3786:3787  a */\n      dup4\n        /* \"LuckyBall.sol\":3771:3788  userBallCounts[a] */\n      0xffffffffffffffffffffffffffffffffffffffff\n      and\n      0xffffffffffffffffffffffffffffffffffffffff\n      and\n      dup2\n      mstore\n      0x20\n      add\n      swap1\n      dup2\n      mstore\n      0x20\n      add\n      0x00\n      keccak256\n        /* \"LuckyBall.sol\":3771:3811  userBallCounts[a][getCurrentSeasionId()] */\n      0x00\n        /* \"LuckyBall.sol\":3789:3810  getCurrentSeasionId() */\n      tag_385\n        /* \"LuckyBall.sol\":3789:3808  getCurrentSeasionId */\n      tag_116\n        /* \"LuckyBall.sol\":3789:3810  getCurrentSeasionId() */\n      jump\t// in\n    tag_385:\n        /* \"LuckyBall.sol\":3771:3811  userBallCounts[a][getCurrentSeasionId()] */\n      dup2\n      mstore\n      0x20\n      add\n      swap1\n      dup2\n      mstore\n      0x20\n      add\n      0x00\n      keccak256\n      0x00\n        /* \"LuckyBall.sol\":3771:3818  userBallCounts[a][getCurrentSeasionId()] += 100 */\n      dup3\n      dup3\n      sload\n      tag_386\n      swap2\n      swap1\n      tag_222\n      jump\t// in\n    tag_386:\n      swap3\n      pop\n      pop\n      dup2\n      swap1\n      sstore\n      pop\n        /* \"LuckyBall.sol\":3833:3851  BallIssued(a, 100) */\n      0x82984aa63633b44e8d3d556ad849611e75e0fba83227eb22f9bdafd013039f82\n        /* \"LuckyBall.sol\":3844:3845  a */\n      dup2\n        /* \"LuckyBall.sol\":3847:3850  100 */\n      0x64\n        /* \"LuckyBall.sol\":3833:3851  BallIssued(a, 100) */\n      mload(0x40)\n      tag_387\n      swap3\n      swap2\n      swap1\n      tag_388\n      jump\t// in\n    tag_387:\n      mload(0x40)\n      dup1\n      swap2\n      sub\n      swap1\n      log1\n        /* \"LuckyBall.sol\":3531:3858  {... */\n      pop\n        /* \"LuckyBall.sol\":3503:3858  function issueTest() public {... */\n      jump\t// out\n        /* \"LuckyBall.sol\":1088:1151  mapping(address => mapping(uint => uint)) public userBallCounts */\n    tag_178:\n      mstore(0x20, 0x0e)\n      dup2\n      0x00\n      mstore\n      mstore(0x20, keccak256(0x00, 0x40))\n      dup1\n      0x00\n      mstore\n      keccak256(0x00, 0x40)\n      0x00\n      swap2\n      pop\n      swap2\n      pop\n      pop\n      sload\n      dup2\n      jump\t// out\n        /* \"LuckyBall.sol\":7931:8055  function getBalls() public view returns(uint[] memory) {... */\n    tag_181:\n        /* \"LuckyBall.sol\":7971:7984  uint[] memory */\n      0x60\n        /* \"LuckyBall.sol\":8003:8048  getBalls(_msgSender(), getCurrentSeasionId()) */\n      tag_390\n        /* \"LuckyBall.sol\":8012:8024  _msgSender() */\n      tag_391\n        /* \"LuckyBall.sol\":8012:8022  _msgSender */\n      tag_202\n        /* \"LuckyBall.sol\":8012:8024  _msgSender() */\n      jump\t// in\n    tag_391:\n        /* \"LuckyBall.sol\":8026:8047  getCurrentSeasionId() */\n      tag_392\n        /* \"LuckyBall.sol\":8026:8045  getCurrentSeasionId */\n      tag_116\n        /* \"LuckyBall.sol\":8026:8047  getCurrentSeasionId() */\n      jump\t// in\n    tag_392:\n        /* \"LuckyBall.sol\":8003:8011  getBalls */\n      tag_194\n        /* \"LuckyBall.sol\":8003:8048  getBalls(_msgSender(), getCurrentSeasionId()) */\n      jump\t// in\n    tag_390:\n        /* \"LuckyBall.sol\":7996:8048  return getBalls(_msgSender(), getCurrentSeasionId()) */\n      swap1\n      pop\n        /* \"LuckyBall.sol\":7931:8055  function getBalls() public view returns(uint[] memory) {... */\n      swap1\n      jump\t// out\n        /* \"@openzeppelin/contracts/access/Ownable.sol\":2074:2272  function transferOwnership(address newOwner) public virtual onlyOwner {... */\n    tag_186:\n        /* \"@openzeppelin/contracts/access/Ownable.sol\":1094:1107  _checkOwner() */\n      tag_394\n        /* \"@openzeppelin/contracts/access/Ownable.sol\":1094:1105  _checkOwner */\n      tag_296\n        /* \"@openzeppelin/contracts/access/Ownable.sol\":1094:1107  _checkOwner() */\n      jump\t// in\n    tag_394:\n        /* \"@openzeppelin/contracts/access/Ownable.sol\":2182:2183  0 */\n      0x00\n        /* \"@openzeppelin/contracts/access/Ownable.sol\":2162:2184  newOwner != address(0) */\n      0xffffffffffffffffffffffffffffffffffffffff\n      and\n        /* \"@openzeppelin/contracts/access/Ownable.sol\":2162:2170  newOwner */\n      dup2\n        /* \"@openzeppelin/contracts/access/Ownable.sol\":2162:2184  newOwner != address(0) */\n      0xffffffffffffffffffffffffffffffffffffffff\n      and\n      sub\n        /* \"@openzeppelin/contracts/access/Ownable.sol\":2154:2227  require(newOwner != address(0), \"Ownable: new owner is the zero address\") */\n      tag_396\n      jumpi\n      mload(0x40)\n      0x08c379a000000000000000000000000000000000000000000000000000000000\n      dup2\n      mstore\n      0x04\n      add\n      tag_397\n      swap1\n      tag_398\n      jump\t// in\n    tag_397:\n      mload(0x40)\n      dup1\n      swap2\n      sub\n      swap1\n      revert\n    tag_396:\n        /* \"@openzeppelin/contracts/access/Ownable.sol\":2237:2265  _transferOwnership(newOwner) */\n      tag_399\n        /* \"@openzeppelin/contracts/access/Ownable.sol\":2256:2264  newOwner */\n      dup2\n        /* \"@openzeppelin/contracts/access/Ownable.sol\":2237:2255  _transferOwnership */\n      tag_299\n        /* \"@openzeppelin/contracts/access/Ownable.sol\":2237:2265  _transferOwnership(newOwner) */\n      jump\t// in\n    tag_399:\n        /* \"@openzeppelin/contracts/access/Ownable.sol\":2074:2272  function transferOwnership(address newOwner) public virtual onlyOwner {... */\n      pop\n      jump\t// out\n        /* \"LuckyBall.sol\":755:793  mapping(uint => Season) public seasons */\n    tag_189:\n      mstore(0x20, 0x09)\n      dup1\n      0x00\n      mstore\n      keccak256(0x00, 0x40)\n      0x00\n      swap2\n      pop\n      swap1\n      pop\n      dup1\n      0x00\n      add\n      sload\n      swap1\n      dup1\n      0x01\n      add\n      sload\n      swap1\n      dup1\n      0x02\n      add\n      sload\n      swap1\n      dup1\n      0x03\n      add\n      sload\n      swap1\n      dup1\n      0x04\n      add\n      sload\n      swap1\n      pop\n      dup6\n      jump\t// out\n        /* \"LuckyBall.sol\":6998:7925  function getBalls(address _addr, uint _seasonId) public view returns (uint[] memory) {... */\n    tag_194:\n        /* \"LuckyBall.sol\":7068:7081  uint[] memory */\n      0x60\n        /* \"LuckyBall.sol\":7093:7115  uint[] memory myGroups */\n      0x00\n        /* \"LuckyBall.sol\":7118:7132  userBallGroups */\n      0x0a\n        /* \"LuckyBall.sol\":7118:7139  userBallGroups[_addr] */\n      0x00\n        /* \"LuckyBall.sol\":7133:7138  _addr */\n      dup6\n        /* \"LuckyBall.sol\":7118:7139  userBallGroups[_addr] */\n      0xffffffffffffffffffffffffffffffffffffffff\n      and\n      0xffffffffffffffffffffffffffffffffffffffff\n      and\n      dup2\n      mstore\n      0x20\n      add\n      swap1\n      dup2\n      mstore\n      0x20\n      add\n      0x00\n      keccak256\n        /* \"LuckyBall.sol\":7118:7150  userBallGroups[_addr][_seasonId] */\n      0x00\n        /* \"LuckyBall.sol\":7140:7149  _seasonId */\n      dup5\n        /* \"LuckyBall.sol\":7118:7150  userBallGroups[_addr][_seasonId] */\n      dup2\n      mstore\n      0x20\n      add\n      swap1\n      dup2\n      mstore\n      0x20\n      add\n      0x00\n      keccak256\n        /* \"LuckyBall.sol\":7093:7150  uint[] memory myGroups = userBallGroups[_addr][_seasonId] */\n      dup1\n      sload\n      dup1\n      0x20\n      mul\n      0x20\n      add\n      mload(0x40)\n      swap1\n      dup2\n      add\n      0x40\n      mstore\n      dup1\n      swap3\n      swap2\n      swap1\n      dup2\n      dup2\n      mstore\n      0x20\n      add\n      dup3\n      dup1\n      sload\n      dup1\n      iszero\n      tag_401\n      jumpi\n      0x20\n      mul\n      dup3\n      add\n      swap2\n      swap1\n      0x00\n      mstore\n      keccak256(0x00, 0x20)\n      swap1\n    tag_402:\n      dup2\n      sload\n      dup2\n      mstore\n      0x20\n      add\n      swap1\n      0x01\n      add\n      swap1\n      dup1\n      dup4\n      gt\n      tag_402\n      jumpi\n    tag_401:\n      pop\n      pop\n      pop\n      pop\n      pop\n      swap1\n      pop\n        /* \"LuckyBall.sol\":7160:7180  Season memory season */\n      0x00\n        /* \"LuckyBall.sol\":7183:7190  seasons */\n      0x09\n        /* \"LuckyBall.sol\":7183:7201  seasons[_seasonId] */\n      0x00\n        /* \"LuckyBall.sol\":7191:7200  _seasonId */\n      dup6\n        /* \"LuckyBall.sol\":7183:7201  seasons[_seasonId] */\n      dup2\n      mstore\n      0x20\n      add\n      swap1\n      dup2\n      mstore\n      0x20\n      add\n      0x00\n      keccak256\n        /* \"LuckyBall.sol\":7160:7201  Season memory season = seasons[_seasonId] */\n      mload(0x40)\n      dup1\n      0xa0\n      add\n      0x40\n      mstore\n      swap1\n      dup2\n      0x00\n      dup3\n      add\n      sload\n      dup2\n      mstore\n      0x20\n      add\n      0x01\n      dup3\n      add\n      sload\n      dup2\n      mstore\n      0x20\n      add\n      0x02\n      dup3\n      add\n      sload\n      dup2\n      mstore\n      0x20\n      add\n      0x03\n      dup3\n      add\n      sload\n      dup2\n      mstore\n      0x20\n      add\n      0x04\n      dup3\n      add\n      sload\n      dup2\n      mstore\n      pop\n      pop\n      swap1\n      pop\n        /* \"LuckyBall.sol\":7211:7228  uint seasonTopPos */\n      0x00\n        /* \"LuckyBall.sol\":7231:7237  season */\n      dup2\n        /* \"LuckyBall.sol\":7231:7253  season.endBallGroupPos */\n      0x40\n      add\n      mload\n        /* \"LuckyBall.sol\":7211:7253  uint seasonTopPos = season.endBallGroupPos */\n      swap1\n      pop\n        /* \"LuckyBall.sol\":7263:7284  uint[] memory ballIds */\n      0x00\n        /* \"LuckyBall.sol\":7298:7312  userBallCounts */\n      0x0e\n        /* \"LuckyBall.sol\":7298:7319  userBallCounts[_addr] */\n      0x00\n        /* \"LuckyBall.sol\":7313:7318  _addr */\n      dup9\n        /* \"LuckyBall.sol\":7298:7319  userBallCounts[_addr] */\n      0xffffffffffffffffffffffffffffffffffffffff\n      and\n      0xffffffffffffffffffffffffffffffffffffffff\n      and\n      dup2\n      mstore\n      0x20\n      add\n      swap1\n      dup2\n      mstore\n      0x20\n      add\n      0x00\n      keccak256\n        /* \"LuckyBall.sol\":7298:7330  userBallCounts[_addr][_seasonId] */\n      0x00\n        /* \"LuckyBall.sol\":7320:7329  _seasonId */\n      dup8\n        /* \"LuckyBall.sol\":7298:7330  userBallCounts[_addr][_seasonId] */\n      dup2\n      mstore\n      0x20\n      add\n      swap1\n      dup2\n      mstore\n      0x20\n      add\n      0x00\n      keccak256\n      sload\n        /* \"LuckyBall.sol\":7287:7331  new uint[](userBallCounts[_addr][_seasonId]) */\n      0xffffffffffffffff\n      dup2\n      gt\n      iszero\n      tag_403\n      jumpi\n      tag_404\n      tag_405\n      jump\t// in\n    tag_404:\n    tag_403:\n      mload(0x40)\n      swap1\n      dup1\n      dup3\n      mstore\n      dup1\n      0x20\n      mul\n      0x20\n      add\n      dup3\n      add\n      0x40\n      mstore\n      dup1\n      iszero\n      tag_406\n      jumpi\n      dup2\n      0x20\n      add\n      0x20\n      dup3\n      mul\n      dup1\n      calldatasize\n      dup4\n      calldatacopy\n      dup1\n      dup3\n      add\n      swap2\n      pop\n      pop\n      swap1\n      pop\n    tag_406:\n      pop\n        /* \"LuckyBall.sol\":7263:7331  uint[] memory ballIds = new uint[](userBallCounts[_addr][_seasonId]) */\n      swap1\n      pop\n        /* \"LuckyBall.sol\":7367:7368  0 */\n      0x00\n        /* \"LuckyBall.sol\":7346:7358  seasonTopPos */\n      dup3\n        /* \"LuckyBall.sol\":7346:7369  seasonTopPos == uint(0) */\n      sub\n        /* \"LuckyBall.sol\":7342:7430  if (seasonTopPos == uint(0)) {... */\n      tag_407\n      jumpi\n        /* \"LuckyBall.sol\":7418:7419  1 */\n      0x01\n        /* \"LuckyBall.sol\":7400:7410  ballGroups */\n      0x05\n        /* \"LuckyBall.sol\":7400:7417  ballGroups.length */\n      dup1\n      sload\n      swap1\n      pop\n        /* \"LuckyBall.sol\":7400:7419  ballGroups.length-1 */\n      tag_408\n      swap2\n      swap1\n      tag_233\n      jump\t// in\n    tag_408:\n        /* \"LuckyBall.sol\":7385:7419  seasonTopPos = ballGroups.length-1 */\n      swap2\n      pop\n        /* \"LuckyBall.sol\":7342:7430  if (seasonTopPos == uint(0)) {... */\n    tag_407:\n        /* \"LuckyBall.sol\":7439:7447  uint pos */\n      0x00\n        /* \"LuckyBall.sol\":7466:7472  uint i */\n      dup1\n        /* \"LuckyBall.sol\":7461:7895  for (uint i=0; i < myGroups.length; i++) {... */\n    tag_409:\n        /* \"LuckyBall.sol\":7480:7488  myGroups */\n      dup6\n        /* \"LuckyBall.sol\":7480:7495  myGroups.length */\n      mload\n        /* \"LuckyBall.sol\":7476:7477  i */\n      dup2\n        /* \"LuckyBall.sol\":7476:7495  i < myGroups.length */\n      lt\n        /* \"LuckyBall.sol\":7461:7895  for (uint i=0; i < myGroups.length; i++) {... */\n      iszero\n      tag_410\n      jumpi\n        /* \"LuckyBall.sol\":7516:7524  uint end */\n      0x00\n        /* \"LuckyBall.sol\":7527:7537  ballGroups */\n      0x05\n        /* \"LuckyBall.sol\":7538:7546  myGroups */\n      dup8\n        /* \"LuckyBall.sol\":7547:7548  i */\n      dup4\n        /* \"LuckyBall.sol\":7538:7549  myGroups[i] */\n      dup2\n      mload\n      dup2\n      lt\n      tag_412\n      jumpi\n      tag_413\n      tag_215\n      jump\t// in\n    tag_413:\n    tag_412:\n      0x20\n      mul\n      0x20\n      add\n      add\n      mload\n        /* \"LuckyBall.sol\":7527:7550  ballGroups[myGroups[i]] */\n      dup2\n      sload\n      dup2\n      lt\n      tag_414\n      jumpi\n      tag_415\n      tag_215\n      jump\t// in\n    tag_415:\n    tag_414:\n      swap1\n      0x00\n      mstore\n      keccak256(0x00, 0x20)\n      add\n      sload\n        /* \"LuckyBall.sol\":7516:7550  uint end = ballGroups[myGroups[i]] */\n      swap1\n      pop\n        /* \"LuckyBall.sol\":7564:7574  uint start */\n      0x00\n        /* \"LuckyBall.sol\":7612:7613  0 */\n      dup1\n        /* \"LuckyBall.sol\":7592:7600  myGroups */\n      dup9\n        /* \"LuckyBall.sol\":7601:7602  i */\n      dup5\n        /* \"LuckyBall.sol\":7592:7603  myGroups[i] */\n      dup2\n      mload\n      dup2\n      lt\n      tag_417\n      jumpi\n      tag_418\n      tag_215\n      jump\t// in\n    tag_418:\n    tag_417:\n      0x20\n      mul\n      0x20\n      add\n      add\n      mload\n        /* \"LuckyBall.sol\":7592:7614  myGroups[i] == uint(0) */\n      sub\n        /* \"LuckyBall.sol\":7588:7740  if (myGroups[i] == uint(0)) {... */\n      tag_419\n      jumpi\n        /* \"LuckyBall.sol\":7642:7643  1 */\n      0x01\n        /* \"LuckyBall.sol\":7634:7643  start = 1 */\n      swap1\n      pop\n        /* \"LuckyBall.sol\":7588:7740  if (myGroups[i] == uint(0)) {... */\n      jump(tag_420)\n    tag_419:\n        /* \"LuckyBall.sol\":7724:7725  1 */\n      0x01\n        /* \"LuckyBall.sol\":7694:7704  ballGroups */\n      0x05\n        /* \"LuckyBall.sol\":7719:7720  1 */\n      0x01\n        /* \"LuckyBall.sol\":7705:7713  myGroups */\n      dup11\n        /* \"LuckyBall.sol\":7714:7715  i */\n      dup7\n        /* \"LuckyBall.sol\":7705:7716  myGroups[i] */\n      dup2\n      mload\n      dup2\n      lt\n      tag_421\n      jumpi\n      tag_422\n      tag_215\n      jump\t// in\n    tag_422:\n    tag_421:\n      0x20\n      mul\n      0x20\n      add\n      add\n      mload\n        /* \"LuckyBall.sol\":7705:7720  myGroups[i] - 1 */\n      tag_423\n      swap2\n      swap1\n      tag_233\n      jump\t// in\n    tag_423:\n        /* \"LuckyBall.sol\":7694:7721  ballGroups[myGroups[i] - 1] */\n      dup2\n      sload\n      dup2\n      lt\n      tag_424\n      jumpi\n      tag_425\n      tag_215\n      jump\t// in\n    tag_425:\n    tag_424:\n      swap1\n      0x00\n      mstore\n      keccak256(0x00, 0x20)\n      add\n      sload\n        /* \"LuckyBall.sol\":7694:7725  ballGroups[myGroups[i] - 1] + 1 */\n      tag_427\n      swap2\n      swap1\n      tag_222\n      jump\t// in\n    tag_427:\n        /* \"LuckyBall.sol\":7686:7725  start = ballGroups[myGroups[i] - 1] + 1 */\n      swap1\n      pop\n        /* \"LuckyBall.sol\":7588:7740  if (myGroups[i] == uint(0)) {... */\n    tag_420:\n        /* \"LuckyBall.sol\":7758:7764  uint j */\n      0x00\n        /* \"LuckyBall.sol\":7765:7770  start */\n      dup2\n        /* \"LuckyBall.sol\":7758:7770  uint j=start */\n      swap1\n      pop\n        /* \"LuckyBall.sol\":7753:7857  for (uint j=start; j<=end; j++) {... */\n    tag_428:\n        /* \"LuckyBall.sol\":7775:7778  end */\n      dup3\n        /* \"LuckyBall.sol\":7772:7773  j */\n      dup2\n        /* \"LuckyBall.sol\":7772:7778  j<=end */\n      gt\n        /* \"LuckyBall.sol\":7753:7857  for (uint j=start; j<=end; j++) {... */\n      tag_429\n      jumpi\n        /* \"LuckyBall.sol\":7818:7819  j */\n      dup1\n        /* \"LuckyBall.sol\":7803:7810  ballIds */\n      dup7\n        /* \"LuckyBall.sol\":7811:7814  pos */\n      dup7\n        /* \"LuckyBall.sol\":7803:7815  ballIds[pos] */\n      dup2\n      mload\n      dup2\n      lt\n      tag_431\n      jumpi\n      tag_432\n      tag_215\n      jump\t// in\n    tag_432:\n    tag_431:\n      0x20\n      mul\n      0x20\n      add\n      add\n        /* \"LuckyBall.sol\":7803:7819  ballIds[pos] = j */\n      dup2\n      dup2\n      mstore\n      pop\n      pop\n        /* \"LuckyBall.sol\":7837:7842  pos++ */\n      dup5\n      dup1\n      tag_433\n      swap1\n      tag_250\n      jump\t// in\n    tag_433:\n      swap6\n      pop\n      pop\n        /* \"LuckyBall.sol\":7780:7783  j++ */\n      dup1\n      dup1\n      tag_434\n      swap1\n      tag_250\n      jump\t// in\n    tag_434:\n      swap2\n      pop\n      pop\n        /* \"LuckyBall.sol\":7753:7857  for (uint j=start; j<=end; j++) {... */\n      jump(tag_428)\n    tag_429:\n      pop\n        /* \"LuckyBall.sol\":7502:7895  {... */\n      pop\n      pop\n        /* \"LuckyBall.sol\":7497:7500  i++ */\n      dup1\n      dup1\n      tag_435\n      swap1\n      tag_250\n      jump\t// in\n    tag_435:\n      swap2\n      pop\n      pop\n        /* \"LuckyBall.sol\":7461:7895  for (uint i=0; i < myGroups.length; i++) {... */\n      jump(tag_409)\n    tag_410:\n      pop\n        /* \"LuckyBall.sol\":7911:7918  ballIds */\n      dup2\n        /* \"LuckyBall.sol\":7904:7918  return ballIds */\n      swap6\n      pop\n      pop\n      pop\n      pop\n      pop\n      pop\n        /* \"LuckyBall.sol\":6998:7925  function getBalls(address _addr, uint _seasonId) public view returns (uint[] memory) {... */\n      swap3\n      swap2\n      pop\n      pop\n      jump\t// out\n        /* \"@openzeppelin/contracts/utils/Context.sol\":640:736  function _msgSender() internal view virtual returns (address) {... */\n    tag_202:\n        /* \"@openzeppelin/contracts/utils/Context.sol\":693:700  address */\n      0x00\n        /* \"@openzeppelin/contracts/utils/Context.sol\":719:729  msg.sender */\n      caller\n        /* \"@openzeppelin/contracts/utils/Context.sol\":712:729  return msg.sender */\n      swap1\n      pop\n        /* \"@openzeppelin/contracts/utils/Context.sol\":640:736  function _msgSender() internal view virtual returns (address) {... */\n      swap1\n      jump\t// out\n        /* \"LuckyBall.sol\":5115:5727  function _requestReveal(address _addr) private returns (bool) {... */\n    tag_279:\n        /* \"LuckyBall.sol\":5171:5175  bool */\n      0x00\n        /* \"LuckyBall.sol\":5187:5209  uint[] memory myGroups */\n      dup1\n        /* \"LuckyBall.sol\":5212:5226  userBallGroups */\n      0x0a\n        /* \"LuckyBall.sol\":5212:5233  userBallGroups[_addr] */\n      0x00\n        /* \"LuckyBall.sol\":5227:5232  _addr */\n      dup5\n        /* \"LuckyBall.sol\":5212:5233  userBallGroups[_addr] */\n      0xffffffffffffffffffffffffffffffffffffffff\n      and\n      0xffffffffffffffffffffffffffffffffffffffff\n      and\n      dup2\n      mstore\n      0x20\n      add\n      swap1\n      dup2\n      mstore\n      0x20\n      add\n      0x00\n      keccak256\n        /* \"LuckyBall.sol\":5212:5256  userBallGroups[_addr][getCurrentSeasionId()] */\n      0x00\n        /* \"LuckyBall.sol\":5234:5255  getCurrentSeasionId() */\n      tag_438\n        /* \"LuckyBall.sol\":5234:5253  getCurrentSeasionId */\n      tag_116\n        /* \"LuckyBall.sol\":5234:5255  getCurrentSeasionId() */\n      jump\t// in\n    tag_438:\n        /* \"LuckyBall.sol\":5212:5256  userBallGroups[_addr][getCurrentSeasionId()] */\n      dup2\n      mstore\n      0x20\n      add\n      swap1\n      dup2\n      mstore\n      0x20\n      add\n      0x00\n      keccak256\n        /* \"LuckyBall.sol\":5187:5256  uint[] memory myGroups = userBallGroups[_addr][getCurrentSeasionId()] */\n      dup1\n      sload\n      dup1\n      0x20\n      mul\n      0x20\n      add\n      mload(0x40)\n      swap1\n      dup2\n      add\n      0x40\n      mstore\n      dup1\n      swap3\n      swap2\n      swap1\n      dup2\n      dup2\n      mstore\n      0x20\n      add\n      dup3\n      dup1\n      sload\n      dup1\n      iszero\n      tag_439\n      jumpi\n      0x20\n      mul\n      dup3\n      add\n      swap2\n      swap1\n      0x00\n      mstore\n      keccak256(0x00, 0x20)\n      swap1\n    tag_440:\n      dup2\n      sload\n      dup2\n      mstore\n      0x20\n      add\n      swap1\n      0x01\n      add\n      swap1\n      dup1\n      dup4\n      gt\n      tag_440\n      jumpi\n    tag_439:\n      pop\n      pop\n      pop\n      pop\n      pop\n      swap1\n      pop\n        /* \"LuckyBall.sol\":5266:5284  uint revealGroupId */\n      0x00\n        /* \"LuckyBall.sol\":5287:5312  getCurrentRevealGroupId() */\n      tag_441\n        /* \"LuckyBall.sol\":5287:5310  getCurrentRevealGroupId */\n      tag_137\n        /* \"LuckyBall.sol\":5287:5312  getCurrentRevealGroupId() */\n      jump\t// in\n    tag_441:\n        /* \"LuckyBall.sol\":5266:5312  uint revealGroupId = getCurrentRevealGroupId() */\n      swap1\n      pop\n        /* \"LuckyBall.sol\":5346:5347  0 */\n      0x00\n        /* \"LuckyBall.sol\":5327:5335  myGroups */\n      dup3\n        /* \"LuckyBall.sol\":5327:5342  myGroups.length */\n      mload\n        /* \"LuckyBall.sol\":5327:5347  myGroups.length == 0 */\n      sub\n        /* \"LuckyBall.sol\":5323:5385  if (myGroups.length == 0) {... */\n      tag_442\n      jumpi\n        /* \"LuckyBall.sol\":5370:5374  true */\n      0x01\n        /* \"LuckyBall.sol\":5363:5374  return true */\n      swap3\n      pop\n      pop\n      pop\n      jump(tag_437)\n        /* \"LuckyBall.sol\":5323:5385  if (myGroups.length == 0) {... */\n    tag_442:\n        /* \"LuckyBall.sol\":5394:5405  uint newPos */\n      0x00\n        /* \"LuckyBall.sol\":5408:5420  newRevealPos */\n      0x0d\n        /* \"LuckyBall.sol\":5408:5427  newRevealPos[_addr] */\n      0x00\n        /* \"LuckyBall.sol\":5421:5426  _addr */\n      dup7\n        /* \"LuckyBall.sol\":5408:5427  newRevealPos[_addr] */\n      0xffffffffffffffffffffffffffffffffffffffff\n      and\n      0xffffffffffffffffffffffffffffffffffffffff\n      and\n      dup2\n      mstore\n      0x20\n      add\n      swap1\n      dup2\n      mstore\n      0x20\n      add\n      0x00\n      keccak256\n      sload\n        /* \"LuckyBall.sol\":5394:5427  uint newPos = newRevealPos[_addr] */\n      swap1\n      pop\n        /* \"LuckyBall.sol\":5460:5466  newPos */\n      dup1\n        /* \"LuckyBall.sol\":5441:5449  myGroups */\n      dup4\n        /* \"LuckyBall.sol\":5441:5456  myGroups.length */\n      mload\n        /* \"LuckyBall.sol\":5441:5466  myGroups.length >= newPos */\n      lt\n        /* \"LuckyBall.sol\":5437:5663  if (myGroups.length >= newPos) {... */\n      tag_443\n      jumpi\n        /* \"LuckyBall.sol\":5487:5493  uint i */\n      0x00\n        /* \"LuckyBall.sol\":5494:5500  newPos */\n      dup2\n        /* \"LuckyBall.sol\":5487:5500  uint i=newPos */\n      swap1\n      pop\n        /* \"LuckyBall.sol\":5482:5600  for (uint i=newPos; i<myGroups.length; i++) {... */\n    tag_444:\n        /* \"LuckyBall.sol\":5504:5512  myGroups */\n      dup4\n        /* \"LuckyBall.sol\":5504:5519  myGroups.length */\n      mload\n        /* \"LuckyBall.sol\":5502:5503  i */\n      dup2\n        /* \"LuckyBall.sol\":5502:5519  i<myGroups.length */\n      lt\n        /* \"LuckyBall.sol\":5482:5600  for (uint i=newPos; i<myGroups.length; i++) {... */\n      iszero\n      tag_445\n      jumpi\n        /* \"LuckyBall.sol\":5572:5585  revealGroupId */\n      dup3\n        /* \"LuckyBall.sol\":5544:5556  revealGroups */\n      0x0b\n        /* \"LuckyBall.sol\":5544:5569  revealGroups[myGroups[i]] */\n      0x00\n        /* \"LuckyBall.sol\":5557:5565  myGroups */\n      dup7\n        /* \"LuckyBall.sol\":5566:5567  i */\n      dup5\n        /* \"LuckyBall.sol\":5557:5568  myGroups[i] */\n      dup2\n      mload\n      dup2\n      lt\n      tag_447\n      jumpi\n      tag_448\n      tag_215\n      jump\t// in\n    tag_448:\n    tag_447:\n      0x20\n      mul\n      0x20\n      add\n      add\n      mload\n        /* \"LuckyBall.sol\":5544:5569  revealGroups[myGroups[i]] */\n      dup2\n      mstore\n      0x20\n      add\n      swap1\n      dup2\n      mstore\n      0x20\n      add\n      0x00\n      keccak256\n        /* \"LuckyBall.sol\":5544:5585  revealGroups[myGroups[i]] = revealGroupId */\n      dup2\n      swap1\n      sstore\n      pop\n        /* \"LuckyBall.sol\":5521:5524  i++ */\n      dup1\n      dup1\n      tag_449\n      swap1\n      tag_250\n      jump\t// in\n    tag_449:\n      swap2\n      pop\n      pop\n        /* \"LuckyBall.sol\":5482:5600  for (uint i=newPos; i<myGroups.length; i++) {... */\n      jump(tag_444)\n    tag_445:\n      pop\n        /* \"LuckyBall.sol\":5651:5652  1 */\n      0x01\n        /* \"LuckyBall.sol\":5635:5643  myGroups */\n      dup4\n        /* \"LuckyBall.sol\":5635:5650  myGroups.length */\n      mload\n        /* \"LuckyBall.sol\":5635:5652  myGroups.length+1 */\n      tag_450\n      swap2\n      swap1\n      tag_222\n      jump\t// in\n    tag_450:\n        /* \"LuckyBall.sol\":5613:5625  newRevealPos */\n      0x0d\n        /* \"LuckyBall.sol\":5613:5632  newRevealPos[_addr] */\n      0x00\n        /* \"LuckyBall.sol\":5626:5631  _addr */\n      dup8\n        /* \"LuckyBall.sol\":5613:5632  newRevealPos[_addr] */\n      0xffffffffffffffffffffffffffffffffffffffff\n      and\n      0xffffffffffffffffffffffffffffffffffffffff\n      and\n      dup2\n      mstore\n      0x20\n      add\n      swap1\n      dup2\n      mstore\n      0x20\n      add\n      0x00\n      keccak256\n        /* \"LuckyBall.sol\":5613:5652  newRevealPos[_addr] = myGroups.length+1 */\n      dup2\n      swap1\n      sstore\n      pop\n        /* \"LuckyBall.sol\":5437:5663  if (myGroups.length >= newPos) {... */\n    tag_443:\n        /* \"LuckyBall.sol\":5677:5699  RevealRequested(_addr) */\n      0x70f2a35e5797523ed95e6f73a8ebb18140a58c70016b3b0e7c350fb47035701b\n        /* \"LuckyBall.sol\":5693:5698  _addr */\n      dup6\n        /* \"LuckyBall.sol\":5677:5699  RevealRequested(_addr) */\n      mload(0x40)\n      tag_451\n      swap2\n      swap1\n      tag_91\n      jump\t// in\n    tag_451:\n      mload(0x40)\n      dup1\n      swap2\n      sub\n      swap1\n      log1\n        /* \"LuckyBall.sol\":5716:5720  true */\n      0x01\n        /* \"LuckyBall.sol\":5709:5720  return true */\n      swap4\n      pop\n      pop\n      pop\n      pop\n        /* \"LuckyBall.sol\":5115:5727  function _requestReveal(address _addr) private returns (bool) {... */\n    tag_437:\n      swap2\n      swap1\n      pop\n      jump\t// out\n        /* \"@openzeppelin/contracts/access/Ownable.sol\":1359:1489  function _checkOwner() internal view virtual {... */\n    tag_296:\n        /* \"@openzeppelin/contracts/access/Ownable.sol\":1433:1445  _msgSender() */\n      tag_453\n        /* \"@openzeppelin/contracts/access/Ownable.sol\":1433:1443  _msgSender */\n      tag_202\n        /* \"@openzeppelin/contracts/access/Ownable.sol\":1433:1445  _msgSender() */\n      jump\t// in\n    tag_453:\n        /* \"@openzeppelin/contracts/access/Ownable.sol\":1422:1445  owner() == _msgSender() */\n      0xffffffffffffffffffffffffffffffffffffffff\n      and\n        /* \"@openzeppelin/contracts/access/Ownable.sol\":1422:1429  owner() */\n      tag_454\n        /* \"@openzeppelin/contracts/access/Ownable.sol\":1422:1427  owner */\n      tag_119\n        /* \"@openzeppelin/contracts/access/Ownable.sol\":1422:1429  owner() */\n      jump\t// in\n    tag_454:\n        /* \"@openzeppelin/contracts/access/Ownable.sol\":1422:1445  owner() == _msgSender() */\n      0xffffffffffffffffffffffffffffffffffffffff\n      and\n      eq\n        /* \"@openzeppelin/contracts/access/Ownable.sol\":1414:1482  require(owner() == _msgSender(), \"Ownable: caller is not the owner\") */\n      tag_455\n      jumpi\n      mload(0x40)\n      0x08c379a000000000000000000000000000000000000000000000000000000000\n      dup2\n      mstore\n      0x04\n      add\n      tag_456\n      swap1\n      tag_457\n      jump\t// in\n    tag_456:\n      mload(0x40)\n      dup1\n      swap2\n      sub\n      swap1\n      revert\n    tag_455:\n        /* \"@openzeppelin/contracts/access/Ownable.sol\":1359:1489  function _checkOwner() internal view virtual {... */\n      jump\t// out\n        /* \"@openzeppelin/contracts/access/Ownable.sol\":2426:2613  function _transferOwnership(address newOwner) internal virtual {... */\n    tag_299:\n        /* \"@openzeppelin/contracts/access/Ownable.sol\":2499:2515  address oldOwner */\n      0x00\n        /* \"@openzeppelin/contracts/access/Ownable.sol\":2518:2524  _owner */\n      dup1\n      0x00\n      swap1\n      sload\n      swap1\n      0x0100\n      exp\n      swap1\n      div\n      0xffffffffffffffffffffffffffffffffffffffff\n      and\n        /* \"@openzeppelin/contracts/access/Ownable.sol\":2499:2524  address oldOwner = _owner */\n      swap1\n      pop\n        /* \"@openzeppelin/contracts/access/Ownable.sol\":2543:2551  newOwner */\n      dup2\n        /* \"@openzeppelin/contracts/access/Ownable.sol\":2534:2540  _owner */\n      0x00\n      dup1\n        /* \"@openzeppelin/contracts/access/Ownable.sol\":2534:2551  _owner = newOwner */\n      0x0100\n      exp\n      dup2\n      sload\n      dup2\n      0xffffffffffffffffffffffffffffffffffffffff\n      mul\n      not\n      and\n      swap1\n      dup4\n      0xffffffffffffffffffffffffffffffffffffffff\n      and\n      mul\n      or\n      swap1\n      sstore\n      pop\n        /* \"@openzeppelin/contracts/access/Ownable.sol\":2597:2605  newOwner */\n      dup2\n        /* \"@openzeppelin/contracts/access/Ownable.sol\":2566:2606  OwnershipTransferred(oldOwner, newOwner) */\n      0xffffffffffffffffffffffffffffffffffffffff\n      and\n        /* \"@openzeppelin/contracts/access/Ownable.sol\":2587:2595  oldOwner */\n      dup2\n        /* \"@openzeppelin/contracts/access/Ownable.sol\":2566:2606  OwnershipTransferred(oldOwner, newOwner) */\n      0xffffffffffffffffffffffffffffffffffffffff\n      and\n      0x8be0079c531659141344cd1fd0a4f28419497f9722a3daafe3b4186f6b6457e0\n      mload(0x40)\n      mload(0x40)\n      dup1\n      swap2\n      sub\n      swap1\n      log3\n        /* \"@openzeppelin/contracts/access/Ownable.sol\":2489:2613  {... */\n      pop\n        /* \"@openzeppelin/contracts/access/Ownable.sol\":2426:2613  function _transferOwnership(address newOwner) internal virtual {... */\n      pop\n      jump\t// out\n        /* \"LuckyBall.sol\":4197:4380  function generateWinningCode() internal view returns (uint) {... */\n    tag_314:\n        /* \"LuckyBall.sol\":4251:4255  uint */\n      0x00\n        /* \"LuckyBall.sol\":4274:4365  extractCode(uint(keccak256(abi.encodePacked(blockhash(block.number -1), block.timestamp)))) */\n      tag_460\n        /* \"LuckyBall.sol\":4342:4343  1 */\n      0x01\n        /* \"LuckyBall.sol\":4328:4340  block.number */\n      number\n        /* \"LuckyBall.sol\":4328:4343  block.number -1 */\n      tag_461\n      swap2\n      swap1\n      tag_233\n      jump\t// in\n    tag_461:\n        /* \"LuckyBall.sol\":4318:4344  blockhash(block.number -1) */\n      blockhash\n        /* \"LuckyBall.sol\":4346:4361  block.timestamp */\n      timestamp\n        /* \"LuckyBall.sol\":4301:4362  abi.encodePacked(blockhash(block.number -1), block.timestamp) */\n      add(0x20, mload(0x40))\n      tag_462\n      swap3\n      swap2\n      swap1\n      tag_463\n      jump\t// in\n    tag_462:\n      mload(0x40)\n      0x20\n      dup2\n      dup4\n      sub\n      sub\n      dup2\n      mstore\n      swap1\n      0x40\n      mstore\n        /* \"LuckyBall.sol\":4291:4363  keccak256(abi.encodePacked(blockhash(block.number -1), block.timestamp)) */\n      dup1\n      mload\n      swap1\n      0x20\n      add\n      keccak256\n        /* \"LuckyBall.sol\":4286:4364  uint(keccak256(abi.encodePacked(blockhash(block.number -1), block.timestamp))) */\n      0x00\n      shr\n        /* \"LuckyBall.sol\":4274:4285  extractCode */\n      tag_171\n        /* \"LuckyBall.sol\":4274:4365  extractCode(uint(keccak256(abi.encodePacked(blockhash(block.number -1), block.timestamp)))) */\n      jump\t// in\n    tag_460:\n        /* \"LuckyBall.sol\":4267:4365  return extractCode(uint(keccak256(abi.encodePacked(blockhash(block.number -1), block.timestamp)))) */\n      swap1\n      pop\n        /* \"LuckyBall.sol\":4197:4380  function generateWinningCode() internal view returns (uint) {... */\n      swap1\n      jump\t// out\n        /* \"#utility.yul\":7:82   */\n    tag_464:\n        /* \"#utility.yul\":40:46   */\n      0x00\n        /* \"#utility.yul\":73:75   */\n      0x40\n        /* \"#utility.yul\":67:76   */\n      mload\n        /* \"#utility.yul\":57:76   */\n      swap1\n      pop\n        /* \"#utility.yul\":7:82   */\n      swap1\n      jump\t// out\n        /* \"#utility.yul\":88:205   */\n    tag_465:\n        /* \"#utility.yul\":197:198   */\n      0x00\n        /* \"#utility.yul\":194:195   */\n      dup1\n        /* \"#utility.yul\":187:199   */\n      revert\n        /* \"#utility.yul\":211:328   */\n    tag_466:\n        /* \"#utility.yul\":320:321   */\n      0x00\n        /* \"#utility.yul\":317:318   */\n      dup1\n        /* \"#utility.yul\":310:322   */\n      revert\n        /* \"#utility.yul\":334:411   */\n    tag_467:\n        /* \"#utility.yul\":371:378   */\n      0x00\n        /* \"#utility.yul\":400:405   */\n      dup2\n        /* \"#utility.yul\":389:405   */\n      swap1\n      pop\n        /* \"#utility.yul\":334:411   */\n      swap2\n      swap1\n      pop\n      jump\t// out\n        /* \"#utility.yul\":417:539   */\n    tag_468:\n        /* \"#utility.yul\":490:514   */\n      tag_551\n        /* \"#utility.yul\":508:513   */\n      dup2\n        /* \"#utility.yul\":490:514   */\n      tag_467\n      jump\t// in\n    tag_551:\n        /* \"#utility.yul\":483:488   */\n      dup2\n        /* \"#utility.yul\":480:515   */\n      eq\n        /* \"#utility.yul\":470:533   */\n      tag_552\n      jumpi\n        /* \"#utility.yul\":529:530   */\n      0x00\n        /* \"#utility.yul\":526:527   */\n      dup1\n        /* \"#utility.yul\":519:531   */\n      revert\n        /* \"#utility.yul\":470:533   */\n    tag_552:\n        /* \"#utility.yul\":417:539   */\n      pop\n      jump\t// out\n        /* \"#utility.yul\":545:684   */\n    tag_469:\n        /* \"#utility.yul\":591:596   */\n      0x00\n        /* \"#utility.yul\":629:635   */\n      dup2\n        /* \"#utility.yul\":616:636   */\n      calldataload\n        /* \"#utility.yul\":607:636   */\n      swap1\n      pop\n        /* \"#utility.yul\":645:678   */\n      tag_554\n        /* \"#utility.yul\":672:677   */\n      dup2\n        /* \"#utility.yul\":645:678   */\n      tag_468\n      jump\t// in\n    tag_554:\n        /* \"#utility.yul\":545:684   */\n      swap3\n      swap2\n      pop\n      pop\n      jump\t// out\n        /* \"#utility.yul\":690:1019   */\n    tag_50:\n        /* \"#utility.yul\":749:755   */\n      0x00\n        /* \"#utility.yul\":798:800   */\n      0x20\n        /* \"#utility.yul\":786:795   */\n      dup3\n        /* \"#utility.yul\":777:784   */\n      dup5\n        /* \"#utility.yul\":773:796   */\n      sub\n        /* \"#utility.yul\":769:801   */\n      slt\n        /* \"#utility.yul\":766:885   */\n      iszero\n      tag_556\n      jumpi\n        /* \"#utility.yul\":804:883   */\n      tag_557\n      tag_465\n      jump\t// in\n    tag_557:\n        /* \"#utility.yul\":766:885   */\n    tag_556:\n        /* \"#utility.yul\":924:925   */\n      0x00\n        /* \"#utility.yul\":949:1002   */\n      tag_558\n        /* \"#utility.yul\":994:1001   */\n      dup5\n        /* \"#utility.yul\":985:991   */\n      dup3\n        /* \"#utility.yul\":974:983   */\n      dup6\n        /* \"#utility.yul\":970:992   */\n      add\n        /* \"#utility.yul\":949:1002   */\n      tag_469\n      jump\t// in\n    tag_558:\n        /* \"#utility.yul\":939:1002   */\n      swap2\n      pop\n        /* \"#utility.yul\":895:1012   */\n      pop\n        /* \"#utility.yul\":690:1019   */\n      swap3\n      swap2\n      pop\n      pop\n      jump\t// out\n        /* \"#utility.yul\":1025:1143   */\n    tag_470:\n        /* \"#utility.yul\":1112:1136   */\n      tag_560\n        /* \"#utility.yul\":1130:1135   */\n      dup2\n        /* \"#utility.yul\":1112:1136   */\n      tag_467\n      jump\t// in\n    tag_560:\n        /* \"#utility.yul\":1107:1110   */\n      dup3\n        /* \"#utility.yul\":1100:1137   */\n      mstore\n        /* \"#utility.yul\":1025:1143   */\n      pop\n      pop\n      jump\t// out\n        /* \"#utility.yul\":1149:1371   */\n    tag_53:\n        /* \"#utility.yul\":1242:1246   */\n      0x00\n        /* \"#utility.yul\":1280:1282   */\n      0x20\n        /* \"#utility.yul\":1269:1278   */\n      dup3\n        /* \"#utility.yul\":1265:1283   */\n      add\n        /* \"#utility.yul\":1257:1283   */\n      swap1\n      pop\n        /* \"#utility.yul\":1293:1364   */\n      tag_562\n        /* \"#utility.yul\":1361:1362   */\n      0x00\n        /* \"#utility.yul\":1350:1359   */\n      dup4\n        /* \"#utility.yul\":1346:1363   */\n      add\n        /* \"#utility.yul\":1337:1343   */\n      dup5\n        /* \"#utility.yul\":1293:1364   */\n      tag_470\n      jump\t// in\n    tag_562:\n        /* \"#utility.yul\":1149:1371   */\n      swap3\n      swap2\n      pop\n      pop\n      jump\t// out\n        /* \"#utility.yul\":1377:1467   */\n    tag_471:\n        /* \"#utility.yul\":1411:1418   */\n      0x00\n        /* \"#utility.yul\":1454:1459   */\n      dup2\n        /* \"#utility.yul\":1447:1460   */\n      iszero\n        /* \"#utility.yul\":1440:1461   */\n      iszero\n        /* \"#utility.yul\":1429:1461   */\n      swap1\n      pop\n        /* \"#utility.yul\":1377:1467   */\n      swap2\n      swap1\n      pop\n      jump\t// out\n        /* \"#utility.yul\":1473:1582   */\n    tag_472:\n        /* \"#utility.yul\":1554:1575   */\n      tag_565\n        /* \"#utility.yul\":1569:1574   */\n      dup2\n        /* \"#utility.yul\":1554:1575   */\n      tag_471\n      jump\t// in\n    tag_565:\n        /* \"#utility.yul\":1549:1552   */\n      dup3\n        /* \"#utility.yul\":1542:1576   */\n      mstore\n        /* \"#utility.yul\":1473:1582   */\n      pop\n      pop\n      jump\t// out\n        /* \"#utility.yul\":1588:1798   */\n    tag_60:\n        /* \"#utility.yul\":1675:1679   */\n      0x00\n        /* \"#utility.yul\":1713:1715   */\n      0x20\n        /* \"#utility.yul\":1702:1711   */\n      dup3\n        /* \"#utility.yul\":1698:1716   */\n      add\n        /* \"#utility.yul\":1690:1716   */\n      swap1\n      pop\n        /* \"#utility.yul\":1726:1791   */\n      tag_567\n        /* \"#utility.yul\":1788:1789   */\n      0x00\n        /* \"#utility.yul\":1777:1786   */\n      dup4\n        /* \"#utility.yul\":1773:1790   */\n      add\n        /* \"#utility.yul\":1764:1770   */\n      dup5\n        /* \"#utility.yul\":1726:1791   */\n      tag_472\n      jump\t// in\n    tag_567:\n        /* \"#utility.yul\":1588:1798   */\n      swap3\n      swap2\n      pop\n      pop\n      jump\t// out\n        /* \"#utility.yul\":1804:1921   */\n    tag_473:\n        /* \"#utility.yul\":1913:1914   */\n      0x00\n        /* \"#utility.yul\":1910:1911   */\n      dup1\n        /* \"#utility.yul\":1903:1915   */\n      revert\n        /* \"#utility.yul\":1927:2044   */\n    tag_474:\n        /* \"#utility.yul\":2036:2037   */\n      0x00\n        /* \"#utility.yul\":2033:2034   */\n      dup1\n        /* \"#utility.yul\":2026:2038   */\n      revert\n        /* \"#utility.yul\":2050:2167   */\n    tag_475:\n        /* \"#utility.yul\":2159:2160   */\n      0x00\n        /* \"#utility.yul\":2156:2157   */\n      dup1\n        /* \"#utility.yul\":2149:2161   */\n      revert\n        /* \"#utility.yul\":2190:2758   */\n    tag_476:\n        /* \"#utility.yul\":2263:2271   */\n      0x00\n        /* \"#utility.yul\":2273:2279   */\n      dup1\n        /* \"#utility.yul\":2323:2326   */\n      dup4\n        /* \"#utility.yul\":2316:2320   */\n      0x1f\n        /* \"#utility.yul\":2308:2314   */\n      dup5\n        /* \"#utility.yul\":2304:2321   */\n      add\n        /* \"#utility.yul\":2300:2327   */\n      slt\n        /* \"#utility.yul\":2290:2412   */\n      tag_572\n      jumpi\n        /* \"#utility.yul\":2331:2410   */\n      tag_573\n      tag_473\n      jump\t// in\n    tag_573:\n        /* \"#utility.yul\":2290:2412   */\n    tag_572:\n        /* \"#utility.yul\":2444:2450   */\n      dup3\n        /* \"#utility.yul\":2431:2451   */\n      calldataload\n        /* \"#utility.yul\":2421:2451   */\n      swap1\n      pop\n        /* \"#utility.yul\":2474:2492   */\n      0xffffffffffffffff\n        /* \"#utility.yul\":2466:2472   */\n      dup2\n        /* \"#utility.yul\":2463:2493   */\n      gt\n        /* \"#utility.yul\":2460:2577   */\n      iszero\n      tag_574\n      jumpi\n        /* \"#utility.yul\":2496:2575   */\n      tag_575\n      tag_474\n      jump\t// in\n    tag_575:\n        /* \"#utility.yul\":2460:2577   */\n    tag_574:\n        /* \"#utility.yul\":2610:2614   */\n      0x20\n        /* \"#utility.yul\":2602:2608   */\n      dup4\n        /* \"#utility.yul\":2598:2615   */\n      add\n        /* \"#utility.yul\":2586:2615   */\n      swap2\n      pop\n        /* \"#utility.yul\":2664:2667   */\n      dup4\n        /* \"#utility.yul\":2656:2660   */\n      0x20\n        /* \"#utility.yul\":2648:2654   */\n      dup3\n        /* \"#utility.yul\":2644:2661   */\n      mul\n        /* \"#utility.yul\":2634:2642   */\n      dup4\n        /* \"#utility.yul\":2630:2662   */\n      add\n        /* \"#utility.yul\":2627:2668   */\n      gt\n        /* \"#utility.yul\":2624:2752   */\n      iszero\n      tag_576\n      jumpi\n        /* \"#utility.yul\":2671:2750   */\n      tag_577\n      tag_475\n      jump\t// in\n    tag_577:\n        /* \"#utility.yul\":2624:2752   */\n    tag_576:\n        /* \"#utility.yul\":2190:2758   */\n      swap3\n      pop\n      swap3\n      swap1\n      pop\n      jump\t// out\n        /* \"#utility.yul\":2781:3349   */\n    tag_477:\n        /* \"#utility.yul\":2854:2862   */\n      0x00\n        /* \"#utility.yul\":2864:2870   */\n      dup1\n        /* \"#utility.yul\":2914:2917   */\n      dup4\n        /* \"#utility.yul\":2907:2911   */\n      0x1f\n        /* \"#utility.yul\":2899:2905   */\n      dup5\n        /* \"#utility.yul\":2895:2912   */\n      add\n        /* \"#utility.yul\":2891:2918   */\n      slt\n        /* \"#utility.yul\":2881:3003   */\n      tag_579\n      jumpi\n        /* \"#utility.yul\":2922:3001   */\n      tag_580\n      tag_473\n      jump\t// in\n    tag_580:\n        /* \"#utility.yul\":2881:3003   */\n    tag_579:\n        /* \"#utility.yul\":3035:3041   */\n      dup3\n        /* \"#utility.yul\":3022:3042   */\n      calldataload\n        /* \"#utility.yul\":3012:3042   */\n      swap1\n      pop\n        /* \"#utility.yul\":3065:3083   */\n      0xffffffffffffffff\n        /* \"#utility.yul\":3057:3063   */\n      dup2\n        /* \"#utility.yul\":3054:3084   */\n      gt\n        /* \"#utility.yul\":3051:3168   */\n      iszero\n      tag_581\n      jumpi\n        /* \"#utility.yul\":3087:3166   */\n      tag_582\n      tag_474\n      jump\t// in\n    tag_582:\n        /* \"#utility.yul\":3051:3168   */\n    tag_581:\n        /* \"#utility.yul\":3201:3205   */\n      0x20\n        /* \"#utility.yul\":3193:3199   */\n      dup4\n        /* \"#utility.yul\":3189:3206   */\n      add\n        /* \"#utility.yul\":3177:3206   */\n      swap2\n      pop\n        /* \"#utility.yul\":3255:3258   */\n      dup4\n        /* \"#utility.yul\":3247:3251   */\n      0x20\n        /* \"#utility.yul\":3239:3245   */\n      dup3\n        /* \"#utility.yul\":3235:3252   */\n      mul\n        /* \"#utility.yul\":3225:3233   */\n      dup4\n        /* \"#utility.yul\":3221:3253   */\n      add\n        /* \"#utility.yul\":3218:3259   */\n      gt\n        /* \"#utility.yul\":3215:3343   */\n      iszero\n      tag_583\n      jumpi\n        /* \"#utility.yul\":3262:3341   */\n      tag_584\n      tag_475\n      jump\t// in\n    tag_584:\n        /* \"#utility.yul\":3215:3343   */\n    tag_583:\n        /* \"#utility.yul\":2781:3349   */\n      swap3\n      pop\n      swap3\n      swap1\n      pop\n      jump\t// out\n        /* \"#utility.yul\":3355:4289   */\n    tag_63:\n        /* \"#utility.yul\":3477:3483   */\n      0x00\n        /* \"#utility.yul\":3485:3491   */\n      dup1\n        /* \"#utility.yul\":3493:3499   */\n      0x00\n        /* \"#utility.yul\":3501:3507   */\n      dup1\n        /* \"#utility.yul\":3550:3552   */\n      0x40\n        /* \"#utility.yul\":3538:3547   */\n      dup6\n        /* \"#utility.yul\":3529:3536   */\n      dup8\n        /* \"#utility.yul\":3525:3548   */\n      sub\n        /* \"#utility.yul\":3521:3553   */\n      slt\n        /* \"#utility.yul\":3518:3637   */\n      iszero\n      tag_586\n      jumpi\n        /* \"#utility.yul\":3556:3635   */\n      tag_587\n      tag_465\n      jump\t// in\n    tag_587:\n        /* \"#utility.yul\":3518:3637   */\n    tag_586:\n        /* \"#utility.yul\":3704:3705   */\n      0x00\n        /* \"#utility.yul\":3693:3702   */\n      dup6\n        /* \"#utility.yul\":3689:3706   */\n      add\n        /* \"#utility.yul\":3676:3707   */\n      calldataload\n        /* \"#utility.yul\":3734:3752   */\n      0xffffffffffffffff\n        /* \"#utility.yul\":3726:3732   */\n      dup2\n        /* \"#utility.yul\":3723:3753   */\n      gt\n        /* \"#utility.yul\":3720:3837   */\n      iszero\n      tag_588\n      jumpi\n        /* \"#utility.yul\":3756:3835   */\n      tag_589\n      tag_466\n      jump\t// in\n    tag_589:\n        /* \"#utility.yul\":3720:3837   */\n    tag_588:\n        /* \"#utility.yul\":3869:3949   */\n      tag_590\n        /* \"#utility.yul\":3941:3948   */\n      dup8\n        /* \"#utility.yul\":3932:3938   */\n      dup3\n        /* \"#utility.yul\":3921:3930   */\n      dup9\n        /* \"#utility.yul\":3917:3939   */\n      add\n        /* \"#utility.yul\":3869:3949   */\n      tag_476\n      jump\t// in\n    tag_590:\n        /* \"#utility.yul\":3851:3949   */\n      swap5\n      pop\n      swap5\n      pop\n        /* \"#utility.yul\":3647:3959   */\n      pop\n        /* \"#utility.yul\":4026:4028   */\n      0x20\n        /* \"#utility.yul\":4015:4024   */\n      dup6\n        /* \"#utility.yul\":4011:4029   */\n      add\n        /* \"#utility.yul\":3998:4030   */\n      calldataload\n        /* \"#utility.yul\":4057:4075   */\n      0xffffffffffffffff\n        /* \"#utility.yul\":4049:4055   */\n      dup2\n        /* \"#utility.yul\":4046:4076   */\n      gt\n        /* \"#utility.yul\":4043:4160   */\n      iszero\n      tag_591\n      jumpi\n        /* \"#utility.yul\":4079:4158   */\n      tag_592\n      tag_466\n      jump\t// in\n    tag_592:\n        /* \"#utility.yul\":4043:4160   */\n    tag_591:\n        /* \"#utility.yul\":4192:4272   */\n      tag_593\n        /* \"#utility.yul\":4264:4271   */\n      dup8\n        /* \"#utility.yul\":4255:4261   */\n      dup3\n        /* \"#utility.yul\":4244:4253   */\n      dup9\n        /* \"#utility.yul\":4240:4262   */\n      add\n        /* \"#utility.yul\":4192:4272   */\n      tag_477\n      jump\t// in\n    tag_593:\n        /* \"#utility.yul\":4174:4272   */\n      swap3\n      pop\n      swap3\n      pop\n        /* \"#utility.yul\":3969:4282   */\n      pop\n        /* \"#utility.yul\":3355:4289   */\n      swap3\n      swap6\n      swap2\n      swap5\n      pop\n      swap3\n      pop\n      jump\t// out\n        /* \"#utility.yul\":4295:4421   */\n    tag_478:\n        /* \"#utility.yul\":4332:4339   */\n      0x00\n        /* \"#utility.yul\":4372:4414   */\n      0xffffffffffffffffffffffffffffffffffffffff\n        /* \"#utility.yul\":4365:4370   */\n      dup3\n        /* \"#utility.yul\":4361:4415   */\n      and\n        /* \"#utility.yul\":4350:4415   */\n      swap1\n      pop\n        /* \"#utility.yul\":4295:4421   */\n      swap2\n      swap1\n      pop\n      jump\t// out\n        /* \"#utility.yul\":4427:4523   */\n    tag_479:\n        /* \"#utility.yul\":4464:4471   */\n      0x00\n        /* \"#utility.yul\":4493:4517   */\n      tag_596\n        /* \"#utility.yul\":4511:4516   */\n      dup3\n        /* \"#utility.yul\":4493:4517   */\n      tag_478\n      jump\t// in\n    tag_596:\n        /* \"#utility.yul\":4482:4517   */\n      swap1\n      pop\n        /* \"#utility.yul\":4427:4523   */\n      swap2\n      swap1\n      pop\n      jump\t// out\n        /* \"#utility.yul\":4529:4651   */\n    tag_480:\n        /* \"#utility.yul\":4602:4626   */\n      tag_598\n        /* \"#utility.yul\":4620:4625   */\n      dup2\n        /* \"#utility.yul\":4602:4626   */\n      tag_479\n      jump\t// in\n    tag_598:\n        /* \"#utility.yul\":4595:4600   */\n      dup2\n        /* \"#utility.yul\":4592:4627   */\n      eq\n        /* \"#utility.yul\":4582:4645   */\n      tag_599\n      jumpi\n        /* \"#utility.yul\":4641:4642   */\n      0x00\n        /* \"#utility.yul\":4638:4639   */\n      dup1\n        /* \"#utility.yul\":4631:4643   */\n      revert\n        /* \"#utility.yul\":4582:4645   */\n    tag_599:\n        /* \"#utility.yul\":4529:4651   */\n      pop\n      jump\t// out\n        /* \"#utility.yul\":4657:4796   */\n    tag_481:\n        /* \"#utility.yul\":4703:4708   */\n      0x00\n        /* \"#utility.yul\":4741:4747   */\n      dup2\n        /* \"#utility.yul\":4728:4748   */\n      calldataload\n        /* \"#utility.yul\":4719:4748   */\n      swap1\n      pop\n        /* \"#utility.yul\":4757:4790   */\n      tag_601\n        /* \"#utility.yul\":4784:4789   */\n      dup2\n        /* \"#utility.yul\":4757:4790   */\n      tag_480\n      jump\t// in\n    tag_601:\n        /* \"#utility.yul\":4657:4796   */\n      swap3\n      swap2\n      pop\n      pop\n      jump\t// out\n        /* \"#utility.yul\":4802:4919   */\n    tag_482:\n        /* \"#utility.yul\":4911:4912   */\n      0x00\n        /* \"#utility.yul\":4908:4909   */\n      dup1\n        /* \"#utility.yul\":4901:4913   */\n      revert\n        /* \"#utility.yul\":4925:5027   */\n    tag_483:\n        /* \"#utility.yul\":4966:4972   */\n      0x00\n        /* \"#utility.yul\":5017:5019   */\n      0x1f\n        /* \"#utility.yul\":5013:5020   */\n      not\n        /* \"#utility.yul\":5008:5010   */\n      0x1f\n        /* \"#utility.yul\":5001:5006   */\n      dup4\n        /* \"#utility.yul\":4997:5011   */\n      add\n        /* \"#utility.yul\":4993:5021   */\n      and\n        /* \"#utility.yul\":4983:5021   */\n      swap1\n      pop\n        /* \"#utility.yul\":4925:5027   */\n      swap2\n      swap1\n      pop\n      jump\t// out\n        /* \"#utility.yul\":5033:5213   */\n    tag_405:\n        /* \"#utility.yul\":5081:5158   */\n      0x4e487b7100000000000000000000000000000000000000000000000000000000\n        /* \"#utility.yul\":5078:5079   */\n      0x00\n        /* \"#utility.yul\":5071:5159   */\n      mstore\n        /* \"#utility.yul\":5178:5182   */\n      0x41\n        /* \"#utility.yul\":5175:5176   */\n      0x04\n        /* \"#utility.yul\":5168:5183   */\n      mstore\n        /* \"#utility.yul\":5202:5206   */\n      0x24\n        /* \"#utility.yul\":5199:5200   */\n      0x00\n        /* \"#utility.yul\":5192:5207   */\n      revert\n        /* \"#utility.yul\":5219:5500   */\n    tag_484:\n        /* \"#utility.yul\":5302:5329   */\n      tag_606\n        /* \"#utility.yul\":5324:5328   */\n      dup3\n        /* \"#utility.yul\":5302:5329   */\n      tag_483\n      jump\t// in\n    tag_606:\n        /* \"#utility.yul\":5294:5300   */\n      dup2\n        /* \"#utility.yul\":5290:5330   */\n      add\n        /* \"#utility.yul\":5432:5438   */\n      dup2\n        /* \"#utility.yul\":5420:5430   */\n      dup2\n        /* \"#utility.yul\":5417:5439   */\n      lt\n        /* \"#utility.yul\":5396:5414   */\n      0xffffffffffffffff\n        /* \"#utility.yul\":5384:5394   */\n      dup3\n        /* \"#utility.yul\":5381:5415   */\n      gt\n        /* \"#utility.yul\":5378:5440   */\n      or\n        /* \"#utility.yul\":5375:5463   */\n      iszero\n      tag_607\n      jumpi\n        /* \"#utility.yul\":5443:5461   */\n      tag_608\n      tag_405\n      jump\t// in\n    tag_608:\n        /* \"#utility.yul\":5375:5463   */\n    tag_607:\n        /* \"#utility.yul\":5483:5493   */\n      dup1\n        /* \"#utility.yul\":5479:5481   */\n      0x40\n        /* \"#utility.yul\":5472:5494   */\n      mstore\n        /* \"#utility.yul\":5262:5500   */\n      pop\n        /* \"#utility.yul\":5219:5500   */\n      pop\n      pop\n      jump\t// out\n        /* \"#utility.yul\":5506:5635   */\n    tag_485:\n        /* \"#utility.yul\":5540:5546   */\n      0x00\n        /* \"#utility.yul\":5567:5587   */\n      tag_610\n      tag_464\n      jump\t// in\n    tag_610:\n        /* \"#utility.yul\":5557:5587   */\n      swap1\n      pop\n        /* \"#utility.yul\":5596:5629   */\n      tag_611\n        /* \"#utility.yul\":5624:5628   */\n      dup3\n        /* \"#utility.yul\":5616:5622   */\n      dup3\n        /* \"#utility.yul\":5596:5629   */\n      tag_484\n      jump\t// in\n    tag_611:\n        /* \"#utility.yul\":5506:5635   */\n      swap2\n      swap1\n      pop\n      jump\t// out\n        /* \"#utility.yul\":5641:5949   */\n    tag_486:\n        /* \"#utility.yul\":5703:5707   */\n      0x00\n        /* \"#utility.yul\":5793:5811   */\n      0xffffffffffffffff\n        /* \"#utility.yul\":5785:5791   */\n      dup3\n        /* \"#utility.yul\":5782:5812   */\n      gt\n        /* \"#utility.yul\":5779:5835   */\n      iszero\n      tag_613\n      jumpi\n        /* \"#utility.yul\":5815:5833   */\n      tag_614\n      tag_405\n      jump\t// in\n    tag_614:\n        /* \"#utility.yul\":5779:5835   */\n    tag_613:\n        /* \"#utility.yul\":5853:5882   */\n      tag_615\n        /* \"#utility.yul\":5875:5881   */\n      dup3\n        /* \"#utility.yul\":5853:5882   */\n      tag_483\n      jump\t// in\n    tag_615:\n        /* \"#utility.yul\":5845:5882   */\n      swap1\n      pop\n        /* \"#utility.yul\":5937:5941   */\n      0x20\n        /* \"#utility.yul\":5931:5935   */\n      dup2\n        /* \"#utility.yul\":5927:5942   */\n      add\n        /* \"#utility.yul\":5919:5942   */\n      swap1\n      pop\n        /* \"#utility.yul\":5641:5949   */\n      swap2\n      swap1\n      pop\n      jump\t// out\n        /* \"#utility.yul\":5955:6101   */\n    tag_487:\n        /* \"#utility.yul\":6052:6058   */\n      dup3\n        /* \"#utility.yul\":6047:6050   */\n      dup2\n        /* \"#utility.yul\":6042:6045   */\n      dup4\n        /* \"#utility.yul\":6029:6059   */\n      calldatacopy\n        /* \"#utility.yul\":6093:6094   */\n      0x00\n        /* \"#utility.yul\":6084:6090   */\n      dup4\n        /* \"#utility.yul\":6079:6082   */\n      dup4\n        /* \"#utility.yul\":6075:6091   */\n      add\n        /* \"#utility.yul\":6068:6095   */\n      mstore\n        /* \"#utility.yul\":5955:6101   */\n      pop\n      pop\n      pop\n      jump\t// out\n        /* \"#utility.yul\":6107:6532   */\n    tag_488:\n        /* \"#utility.yul\":6185:6190   */\n      0x00\n        /* \"#utility.yul\":6210:6276   */\n      tag_618\n        /* \"#utility.yul\":6226:6275   */\n      tag_619\n        /* \"#utility.yul\":6268:6274   */\n      dup5\n        /* \"#utility.yul\":6226:6275   */\n      tag_486\n      jump\t// in\n    tag_619:\n        /* \"#utility.yul\":6210:6276   */\n      tag_485\n      jump\t// in\n    tag_618:\n        /* \"#utility.yul\":6201:6276   */\n      swap1\n      pop\n        /* \"#utility.yul\":6299:6305   */\n      dup3\n        /* \"#utility.yul\":6292:6297   */\n      dup2\n        /* \"#utility.yul\":6285:6306   */\n      mstore\n        /* \"#utility.yul\":6337:6341   */\n      0x20\n        /* \"#utility.yul\":6330:6335   */\n      dup2\n        /* \"#utility.yul\":6326:6342   */\n      add\n        /* \"#utility.yul\":6375:6378   */\n      dup5\n        /* \"#utility.yul\":6366:6372   */\n      dup5\n        /* \"#utility.yul\":6361:6364   */\n      dup5\n        /* \"#utility.yul\":6357:6373   */\n      add\n        /* \"#utility.yul\":6354:6379   */\n      gt\n        /* \"#utility.yul\":6351:6463   */\n      iszero\n      tag_620\n      jumpi\n        /* \"#utility.yul\":6382:6461   */\n      tag_621\n      tag_482\n      jump\t// in\n    tag_621:\n        /* \"#utility.yul\":6351:6463   */\n    tag_620:\n        /* \"#utility.yul\":6472:6526   */\n      tag_622\n        /* \"#utility.yul\":6519:6525   */\n      dup5\n        /* \"#utility.yul\":6514:6517   */\n      dup3\n        /* \"#utility.yul\":6509:6512   */\n      dup6\n        /* \"#utility.yul\":6472:6526   */\n      tag_487\n      jump\t// in\n    tag_622:\n        /* \"#utility.yul\":6191:6532   */\n      pop\n        /* \"#utility.yul\":6107:6532   */\n      swap4\n      swap3\n      pop\n      pop\n      pop\n      jump\t// out\n        /* \"#utility.yul\":6552:6892   */\n    tag_489:\n        /* \"#utility.yul\":6608:6613   */\n      0x00\n        /* \"#utility.yul\":6657:6660   */\n      dup3\n        /* \"#utility.yul\":6650:6654   */\n      0x1f\n        /* \"#utility.yul\":6642:6648   */\n      dup4\n        /* \"#utility.yul\":6638:6655   */\n      add\n        /* \"#utility.yul\":6634:6661   */\n      slt\n        /* \"#utility.yul\":6624:6746   */\n      tag_624\n      jumpi\n        /* \"#utility.yul\":6665:6744   */\n      tag_625\n      tag_473\n      jump\t// in\n    tag_625:\n        /* \"#utility.yul\":6624:6746   */\n    tag_624:\n        /* \"#utility.yul\":6782:6788   */\n      dup2\n        /* \"#utility.yul\":6769:6789   */\n      calldataload\n        /* \"#utility.yul\":6807:6886   */\n      tag_626\n        /* \"#utility.yul\":6882:6885   */\n      dup5\n        /* \"#utility.yul\":6874:6880   */\n      dup3\n        /* \"#utility.yul\":6867:6871   */\n      0x20\n        /* \"#utility.yul\":6859:6865   */\n      dup7\n        /* \"#utility.yul\":6855:6872   */\n      add\n        /* \"#utility.yul\":6807:6886   */\n      tag_488\n      jump\t// in\n    tag_626:\n        /* \"#utility.yul\":6798:6886   */\n      swap2\n      pop\n        /* \"#utility.yul\":6614:6892   */\n      pop\n        /* \"#utility.yul\":6552:6892   */\n      swap3\n      swap2\n      pop\n      pop\n      jump\t// out\n        /* \"#utility.yul\":6898:8135   */\n    tag_68:\n        /* \"#utility.yul\":7012:7018   */\n      0x00\n        /* \"#utility.yul\":7020:7026   */\n      dup1\n        /* \"#utility.yul\":7028:7034   */\n      0x00\n        /* \"#utility.yul\":7036:7042   */\n      dup1\n        /* \"#utility.yul\":7044:7050   */\n      0x00\n        /* \"#utility.yul\":7052:7058   */\n      dup1\n        /* \"#utility.yul\":7101:7104   */\n      0xc0\n        /* \"#utility.yul\":7089:7098   */\n      dup8\n        /* \"#utility.yul\":7080:7087   */\n      dup10\n        /* \"#utility.yul\":7076:7099   */\n      sub\n        /* \"#utility.yul\":7072:7105   */\n      slt\n        /* \"#utility.yul\":7069:7189   */\n      iszero\n      tag_628\n      jumpi\n        /* \"#utility.yul\":7108:7187   */\n      tag_629\n      tag_465\n      jump\t// in\n    tag_629:\n        /* \"#utility.yul\":7069:7189   */\n    tag_628:\n        /* \"#utility.yul\":7228:7229   */\n      0x00\n        /* \"#utility.yul\":7253:7306   */\n      tag_630\n        /* \"#utility.yul\":7298:7305   */\n      dup10\n        /* \"#utility.yul\":7289:7295   */\n      dup3\n        /* \"#utility.yul\":7278:7287   */\n      dup11\n        /* \"#utility.yul\":7274:7296   */\n      add\n        /* \"#utility.yul\":7253:7306   */\n      tag_469\n      jump\t// in\n    tag_630:\n        /* \"#utility.yul\":7243:7306   */\n      swap7\n      pop\n        /* \"#utility.yul\":7199:7316   */\n      pop\n        /* \"#utility.yul\":7355:7357   */\n      0x20\n        /* \"#utility.yul\":7381:7434   */\n      tag_631\n        /* \"#utility.yul\":7426:7433   */\n      dup10\n        /* \"#utility.yul\":7417:7423   */\n      dup3\n        /* \"#utility.yul\":7406:7415   */\n      dup11\n        /* \"#utility.yul\":7402:7424   */\n      add\n        /* \"#utility.yul\":7381:7434   */\n      tag_481\n      jump\t// in\n    tag_631:\n        /* \"#utility.yul\":7371:7434   */\n      swap6\n      pop\n        /* \"#utility.yul\":7326:7444   */\n      pop\n        /* \"#utility.yul\":7483:7485   */\n      0x40\n        /* \"#utility.yul\":7509:7562   */\n      tag_632\n        /* \"#utility.yul\":7554:7561   */\n      dup10\n        /* \"#utility.yul\":7545:7551   */\n      dup3\n        /* \"#utility.yul\":7534:7543   */\n      dup11\n        /* \"#utility.yul\":7530:7552   */\n      add\n        /* \"#utility.yul\":7509:7562   */\n      tag_481\n      jump\t// in\n    tag_632:\n        /* \"#utility.yul\":7499:7562   */\n      swap5\n      pop\n        /* \"#utility.yul\":7454:7572   */\n      pop\n        /* \"#utility.yul\":7611:7613   */\n      0x60\n        /* \"#utility.yul\":7637:7690   */\n      tag_633\n        /* \"#utility.yul\":7682:7689   */\n      dup10\n        /* \"#utility.yul\":7673:7679   */\n      dup3\n        /* \"#utility.yul\":7662:7671   */\n      dup11\n        /* \"#utility.yul\":7658:7680   */\n      add\n        /* \"#utility.yul\":7637:7690   */\n      tag_469\n      jump\t// in\n    tag_633:\n        /* \"#utility.yul\":7627:7690   */\n      swap4\n      pop\n        /* \"#utility.yul\":7582:7700   */\n      pop\n        /* \"#utility.yul\":7739:7742   */\n      0x80\n        /* \"#utility.yul\":7766:7819   */\n      tag_634\n        /* \"#utility.yul\":7811:7818   */\n      dup10\n        /* \"#utility.yul\":7802:7808   */\n      dup3\n        /* \"#utility.yul\":7791:7800   */\n      dup11\n        /* \"#utility.yul\":7787:7809   */\n      add\n        /* \"#utility.yul\":7766:7819   */\n      tag_469\n      jump\t// in\n    tag_634:\n        /* \"#utility.yul\":7756:7819   */\n      swap3\n      pop\n        /* \"#utility.yul\":7710:7829   */\n      pop\n        /* \"#utility.yul\":7896:7899   */\n      0xa0\n        /* \"#utility.yul\":7885:7894   */\n      dup8\n        /* \"#utility.yul\":7881:7900   */\n      add\n        /* \"#utility.yul\":7868:7901   */\n      calldataload\n        /* \"#utility.yul\":7928:7946   */\n      0xffffffffffffffff\n        /* \"#utility.yul\":7920:7926   */\n      dup2\n        /* \"#utility.yul\":7917:7947   */\n      gt\n        /* \"#utility.yul\":7914:8031   */\n      iszero\n      tag_635\n      jumpi\n        /* \"#utility.yul\":7950:8029   */\n      tag_636\n      tag_466\n      jump\t// in\n    tag_636:\n        /* \"#utility.yul\":7914:8031   */\n    tag_635:\n        /* \"#utility.yul\":8055:8118   */\n      tag_637\n        /* \"#utility.yul\":8110:8117   */\n      dup10\n        /* \"#utility.yul\":8101:8107   */\n      dup3\n        /* \"#utility.yul\":8090:8099   */\n      dup11\n        /* \"#utility.yul\":8086:8108   */\n      add\n        /* \"#utility.yul\":8055:8118   */\n      tag_489\n      jump\t// in\n    tag_637:\n        /* \"#utility.yul\":8045:8118   */\n      swap2\n      pop\n        /* \"#utility.yul\":7839:8128   */\n      pop\n        /* \"#utility.yul\":6898:8135   */\n      swap3\n      swap6\n      pop\n      swap3\n      swap6\n      pop\n      swap3\n      swap6\n      jump\t// out\n        /* \"#utility.yul\":8141:8218   */\n    tag_490:\n        /* \"#utility.yul\":8178:8185   */\n      0x00\n        /* \"#utility.yul\":8207:8212   */\n      dup2\n        /* \"#utility.yul\":8196:8212   */\n      swap1\n      pop\n        /* \"#utility.yul\":8141:8218   */\n      swap2\n      swap1\n      pop\n      jump\t// out\n        /* \"#utility.yul\":8224:8342   */\n    tag_491:\n        /* \"#utility.yul\":8311:8335   */\n      tag_640\n        /* \"#utility.yul\":8329:8334   */\n      dup2\n        /* \"#utility.yul\":8311:8335   */\n      tag_490\n      jump\t// in\n    tag_640:\n        /* \"#utility.yul\":8306:8309   */\n      dup3\n        /* \"#utility.yul\":8299:8336   */\n      mstore\n        /* \"#utility.yul\":8224:8342   */\n      pop\n      pop\n      jump\t// out\n        /* \"#utility.yul\":8348:8570   */\n    tag_71:\n        /* \"#utility.yul\":8441:8445   */\n      0x00\n        /* \"#utility.yul\":8479:8481   */\n      0x20\n        /* \"#utility.yul\":8468:8477   */\n      dup3\n        /* \"#utility.yul\":8464:8482   */\n      add\n        /* \"#utility.yul\":8456:8482   */\n      swap1\n      pop\n        /* \"#utility.yul\":8492:8563   */\n      tag_642\n        /* \"#utility.yul\":8560:8561   */\n      0x00\n        /* \"#utility.yul\":8549:8558   */\n      dup4\n        /* \"#utility.yul\":8545:8562   */\n      add\n        /* \"#utility.yul\":8536:8542   */\n      dup5\n        /* \"#utility.yul\":8492:8563   */\n      tag_491\n      jump\t// in\n    tag_642:\n        /* \"#utility.yul\":8348:8570   */\n      swap3\n      swap2\n      pop\n      pop\n      jump\t// out\n        /* \"#utility.yul\":8576:8905   */\n    tag_81:\n        /* \"#utility.yul\":8635:8641   */\n      0x00\n        /* \"#utility.yul\":8684:8686   */\n      0x20\n        /* \"#utility.yul\":8672:8681   */\n      dup3\n        /* \"#utility.yul\":8663:8670   */\n      dup5\n        /* \"#utility.yul\":8659:8682   */\n      sub\n        /* \"#utility.yul\":8655:8687   */\n      slt\n        /* \"#utility.yul\":8652:8771   */\n      iszero\n      tag_644\n      jumpi\n        /* \"#utility.yul\":8690:8769   */\n      tag_645\n      tag_465\n      jump\t// in\n    tag_645:\n        /* \"#utility.yul\":8652:8771   */\n    tag_644:\n        /* \"#utility.yul\":8810:8811   */\n      0x00\n        /* \"#utility.yul\":8835:8888   */\n      tag_646\n        /* \"#utility.yul\":8880:8887   */\n      dup5\n        /* \"#utility.yul\":8871:8877   */\n      dup3\n        /* \"#utility.yul\":8860:8869   */\n      dup6\n        /* \"#utility.yul\":8856:8878   */\n      add\n        /* \"#utility.yul\":8835:8888   */\n      tag_481\n      jump\t// in\n    tag_646:\n        /* \"#utility.yul\":8825:8888   */\n      swap2\n      pop\n        /* \"#utility.yul\":8781:8898   */\n      pop\n        /* \"#utility.yul\":8576:8905   */\n      swap3\n      swap2\n      pop\n      pop\n      jump\t// out\n        /* \"#utility.yul\":8911:9029   */\n    tag_492:\n        /* \"#utility.yul\":8998:9022   */\n      tag_648\n        /* \"#utility.yul\":9016:9021   */\n      dup2\n        /* \"#utility.yul\":8998:9022   */\n      tag_479\n      jump\t// in\n    tag_648:\n        /* \"#utility.yul\":8993:8996   */\n      dup3\n        /* \"#utility.yul\":8986:9023   */\n      mstore\n        /* \"#utility.yul\":8911:9029   */\n      pop\n      pop\n      jump\t// out\n        /* \"#utility.yul\":9035:9257   */\n    tag_91:\n        /* \"#utility.yul\":9128:9132   */\n      0x00\n        /* \"#utility.yul\":9166:9168   */\n      0x20\n        /* \"#utility.yul\":9155:9164   */\n      dup3\n        /* \"#utility.yul\":9151:9169   */\n      add\n        /* \"#utility.yul\":9143:9169   */\n      swap1\n      pop\n        /* \"#utility.yul\":9179:9250   */\n      tag_650\n        /* \"#utility.yul\":9247:9248   */\n      0x00\n        /* \"#utility.yul\":9236:9245   */\n      dup4\n        /* \"#utility.yul\":9232:9249   */\n      add\n        /* \"#utility.yul\":9223:9229   */\n      dup5\n        /* \"#utility.yul\":9179:9250   */\n      tag_492\n      jump\t// in\n    tag_650:\n        /* \"#utility.yul\":9035:9257   */\n      swap3\n      swap2\n      pop\n      pop\n      jump\t// out\n        /* \"#utility.yul\":9263:9349   */\n    tag_493:\n        /* \"#utility.yul\":9298:9305   */\n      0x00\n        /* \"#utility.yul\":9338:9342   */\n      0xff\n        /* \"#utility.yul\":9331:9336   */\n      dup3\n        /* \"#utility.yul\":9327:9343   */\n      and\n        /* \"#utility.yul\":9316:9343   */\n      swap1\n      pop\n        /* \"#utility.yul\":9263:9349   */\n      swap2\n      swap1\n      pop\n      jump\t// out\n        /* \"#utility.yul\":9355:9473   */\n    tag_494:\n        /* \"#utility.yul\":9426:9448   */\n      tag_653\n        /* \"#utility.yul\":9442:9447   */\n      dup2\n        /* \"#utility.yul\":9426:9448   */\n      tag_493\n      jump\t// in\n    tag_653:\n        /* \"#utility.yul\":9419:9424   */\n      dup2\n        /* \"#utility.yul\":9416:9449   */\n      eq\n        /* \"#utility.yul\":9406:9467   */\n      tag_654\n      jumpi\n        /* \"#utility.yul\":9463:9464   */\n      0x00\n        /* \"#utility.yul\":9460:9461   */\n      dup1\n        /* \"#utility.yul\":9453:9465   */\n      revert\n        /* \"#utility.yul\":9406:9467   */\n    tag_654:\n        /* \"#utility.yul\":9355:9473   */\n      pop\n      jump\t// out\n        /* \"#utility.yul\":9479:9614   */\n    tag_495:\n        /* \"#utility.yul\":9523:9528   */\n      0x00\n        /* \"#utility.yul\":9561:9567   */\n      dup2\n        /* \"#utility.yul\":9548:9568   */\n      calldataload\n        /* \"#utility.yul\":9539:9568   */\n      swap1\n      pop\n        /* \"#utility.yul\":9577:9608   */\n      tag_656\n        /* \"#utility.yul\":9602:9607   */\n      dup2\n        /* \"#utility.yul\":9577:9608   */\n      tag_494\n      jump\t// in\n    tag_656:\n        /* \"#utility.yul\":9479:9614   */\n      swap3\n      swap2\n      pop\n      pop\n      jump\t// out\n        /* \"#utility.yul\":9620:9742   */\n    tag_496:\n        /* \"#utility.yul\":9693:9717   */\n      tag_658\n        /* \"#utility.yul\":9711:9716   */\n      dup2\n        /* \"#utility.yul\":9693:9717   */\n      tag_490\n      jump\t// in\n    tag_658:\n        /* \"#utility.yul\":9686:9691   */\n      dup2\n        /* \"#utility.yul\":9683:9718   */\n      eq\n        /* \"#utility.yul\":9673:9736   */\n      tag_659\n      jumpi\n        /* \"#utility.yul\":9732:9733   */\n      0x00\n        /* \"#utility.yul\":9729:9730   */\n      dup1\n        /* \"#utility.yul\":9722:9734   */\n      revert\n        /* \"#utility.yul\":9673:9736   */\n    tag_659:\n        /* \"#utility.yul\":9620:9742   */\n      pop\n      jump\t// out\n        /* \"#utility.yul\":9748:9887   */\n    tag_497:\n        /* \"#utility.yul\":9794:9799   */\n      0x00\n        /* \"#utility.yul\":9832:9838   */\n      dup2\n        /* \"#utility.yul\":9819:9839   */\n      calldataload\n        /* \"#utility.yul\":9810:9839   */\n      swap1\n      pop\n        /* \"#utility.yul\":9848:9881   */\n      tag_661\n        /* \"#utility.yul\":9875:9880   */\n      dup2\n        /* \"#utility.yul\":9848:9881   */\n      tag_496\n      jump\t// in\n    tag_661:\n        /* \"#utility.yul\":9748:9887   */\n      swap3\n      swap2\n      pop\n      pop\n      jump\t// out\n        /* \"#utility.yul\":9893:10800   */\n    tag_97:\n        /* \"#utility.yul\":9986:9992   */\n      0x00\n        /* \"#utility.yul\":9994:10000   */\n      dup1\n        /* \"#utility.yul\":10002:10008   */\n      0x00\n        /* \"#utility.yul\":10010:10016   */\n      dup1\n        /* \"#utility.yul\":10018:10024   */\n      0x00\n        /* \"#utility.yul\":10067:10070   */\n      0xa0\n        /* \"#utility.yul\":10055:10064   */\n      dup7\n        /* \"#utility.yul\":10046:10053   */\n      dup9\n        /* \"#utility.yul\":10042:10065   */\n      sub\n        /* \"#utility.yul\":10038:10071   */\n      slt\n        /* \"#utility.yul\":10035:10155   */\n      iszero\n      tag_663\n      jumpi\n        /* \"#utility.yul\":10074:10153   */\n      tag_664\n      tag_465\n      jump\t// in\n    tag_664:\n        /* \"#utility.yul\":10035:10155   */\n    tag_663:\n        /* \"#utility.yul\":10194:10195   */\n      0x00\n        /* \"#utility.yul\":10219:10272   */\n      tag_665\n        /* \"#utility.yul\":10264:10271   */\n      dup9\n        /* \"#utility.yul\":10255:10261   */\n      dup3\n        /* \"#utility.yul\":10244:10253   */\n      dup10\n        /* \"#utility.yul\":10240:10262   */\n      add\n        /* \"#utility.yul\":10219:10272   */\n      tag_481\n      jump\t// in\n    tag_665:\n        /* \"#utility.yul\":10209:10272   */\n      swap6\n      pop\n        /* \"#utility.yul\":10165:10282   */\n      pop\n        /* \"#utility.yul\":10321:10323   */\n      0x20\n        /* \"#utility.yul\":10347:10400   */\n      tag_666\n        /* \"#utility.yul\":10392:10399   */\n      dup9\n        /* \"#utility.yul\":10383:10389   */\n      dup3\n        /* \"#utility.yul\":10372:10381   */\n      dup10\n        /* \"#utility.yul\":10368:10390   */\n      add\n        /* \"#utility.yul\":10347:10400   */\n      tag_469\n      jump\t// in\n    tag_666:\n        /* \"#utility.yul\":10337:10400   */\n      swap5\n      pop\n        /* \"#utility.yul\":10292:10410   */\n      pop\n        /* \"#utility.yul\":10449:10451   */\n      0x40\n        /* \"#utility.yul\":10475:10526   */\n      tag_667\n        /* \"#utility.yul\":10518:10525   */\n      dup9\n        /* \"#utility.yul\":10509:10515   */\n      dup3\n        /* \"#utility.yul\":10498:10507   */\n      dup10\n        /* \"#utility.yul\":10494:10516   */\n      add\n        /* \"#utility.yul\":10475:10526   */\n      tag_495\n      jump\t// in\n    tag_667:\n        /* \"#utility.yul\":10465:10526   */\n      swap4\n      pop\n        /* \"#utility.yul\":10420:10536   */\n      pop\n        /* \"#utility.yul\":10575:10577   */\n      0x60\n        /* \"#utility.yul\":10601:10654   */\n      tag_668\n        /* \"#utility.yul\":10646:10653   */\n      dup9\n        /* \"#utility.yul\":10637:10643   */\n      dup3\n        /* \"#utility.yul\":10626:10635   */\n      dup10\n        /* \"#utility.yul\":10622:10644   */\n      add\n        /* \"#utility.yul\":10601:10654   */\n      tag_497\n      jump\t// in\n    tag_668:\n        /* \"#utility.yul\":10591:10654   */\n      swap3\n      pop\n        /* \"#utility.yul\":10546:10664   */\n      pop\n        /* \"#utility.yul\":10703:10706   */\n      0x80\n        /* \"#utility.yul\":10730:10783   */\n      tag_669\n        /* \"#utility.yul\":10775:10782   */\n      dup9\n        /* \"#utility.yul\":10766:10772   */\n      dup3\n        /* \"#utility.yul\":10755:10764   */\n      dup10\n        /* \"#utility.yul\":10751:10773   */\n      add\n        /* \"#utility.yul\":10730:10783   */\n      tag_497\n      jump\t// in\n    tag_669:\n        /* \"#utility.yul\":10720:10783   */\n      swap2\n      pop\n        /* \"#utility.yul\":10674:10793   */\n      pop\n        /* \"#utility.yul\":9893:10800   */\n      swap3\n      swap6\n      pop\n      swap3\n      swap6\n      swap1\n      swap4\n      pop\n      jump\t// out\n        /* \"#utility.yul\":10806:11425   */\n    tag_112:\n        /* \"#utility.yul\":10883:10889   */\n      0x00\n        /* \"#utility.yul\":10891:10897   */\n      dup1\n        /* \"#utility.yul\":10899:10905   */\n      0x00\n        /* \"#utility.yul\":10948:10950   */\n      0x60\n        /* \"#utility.yul\":10936:10945   */\n      dup5\n        /* \"#utility.yul\":10927:10934   */\n      dup7\n        /* \"#utility.yul\":10923:10946   */\n      sub\n        /* \"#utility.yul\":10919:10951   */\n      slt\n        /* \"#utility.yul\":10916:11035   */\n      iszero\n      tag_671\n      jumpi\n        /* \"#utility.yul\":10954:11033   */\n      tag_672\n      tag_465\n      jump\t// in\n    tag_672:\n        /* \"#utility.yul\":10916:11035   */\n    tag_671:\n        /* \"#utility.yul\":11074:11075   */\n      0x00\n        /* \"#utility.yul\":11099:11152   */\n      tag_673\n        /* \"#utility.yul\":11144:11151   */\n      dup7\n        /* \"#utility.yul\":11135:11141   */\n      dup3\n        /* \"#utility.yul\":11124:11133   */\n      dup8\n        /* \"#utility.yul\":11120:11142   */\n      add\n        /* \"#utility.yul\":11099:11152   */\n      tag_481\n      jump\t// in\n    tag_673:\n        /* \"#utility.yul\":11089:11152   */\n      swap4\n      pop\n        /* \"#utility.yul\":11045:11162   */\n      pop\n        /* \"#utility.yul\":11201:11203   */\n      0x20\n        /* \"#utility.yul\":11227:11280   */\n      tag_674\n        /* \"#utility.yul\":11272:11279   */\n      dup7\n        /* \"#utility.yul\":11263:11269   */\n      dup3\n        /* \"#utility.yul\":11252:11261   */\n      dup8\n        /* \"#utility.yul\":11248:11270   */\n      add\n        /* \"#utility.yul\":11227:11280   */\n      tag_469\n      jump\t// in\n    tag_674:\n        /* \"#utility.yul\":11217:11280   */\n      swap3\n      pop\n        /* \"#utility.yul\":11172:11290   */\n      pop\n        /* \"#utility.yul\":11329:11331   */\n      0x40\n        /* \"#utility.yul\":11355:11408   */\n      tag_675\n        /* \"#utility.yul\":11400:11407   */\n      dup7\n        /* \"#utility.yul\":11391:11397   */\n      dup3\n        /* \"#utility.yul\":11380:11389   */\n      dup8\n        /* \"#utility.yul\":11376:11398   */\n      add\n        /* \"#utility.yul\":11355:11408   */\n      tag_469\n      jump\t// in\n    tag_675:\n        /* \"#utility.yul\":11345:11408   */\n      swap2\n      pop\n        /* \"#utility.yul\":11300:11418   */\n      pop\n        /* \"#utility.yul\":10806:11425   */\n      swap3\n      pop\n      swap3\n      pop\n      swap3\n      jump\t// out\n        /* \"#utility.yul\":11431:12338   */\n    tag_126:\n        /* \"#utility.yul\":11524:11530   */\n      0x00\n        /* \"#utility.yul\":11532:11538   */\n      dup1\n        /* \"#utility.yul\":11540:11546   */\n      0x00\n        /* \"#utility.yul\":11548:11554   */\n      dup1\n        /* \"#utility.yul\":11556:11562   */\n      0x00\n        /* \"#utility.yul\":11605:11608   */\n      0xa0\n        /* \"#utility.yul\":11593:11602   */\n      dup7\n        /* \"#utility.yul\":11584:11591   */\n      dup9\n        /* \"#utility.yul\":11580:11603   */\n      sub\n        /* \"#utility.yul\":11576:11609   */\n      slt\n        /* \"#utility.yul\":11573:11693   */\n      iszero\n      tag_677\n      jumpi\n        /* \"#utility.yul\":11612:11691   */\n      tag_678\n      tag_465\n      jump\t// in\n    tag_678:\n        /* \"#utility.yul\":11573:11693   */\n    tag_677:\n        /* \"#utility.yul\":11732:11733   */\n      0x00\n        /* \"#utility.yul\":11757:11810   */\n      tag_679\n        /* \"#utility.yul\":11802:11809   */\n      dup9\n        /* \"#utility.yul\":11793:11799   */\n      dup3\n        /* \"#utility.yul\":11782:11791   */\n      dup10\n        /* \"#utility.yul\":11778:11800   */\n      add\n        /* \"#utility.yul\":11757:11810   */\n      tag_481\n      jump\t// in\n    tag_679:\n        /* \"#utility.yul\":11747:11810   */\n      swap6\n      pop\n        /* \"#utility.yul\":11703:11820   */\n      pop\n        /* \"#utility.yul\":11859:11861   */\n      0x20\n        /* \"#utility.yul\":11885:11938   */\n      tag_680\n        /* \"#utility.yul\":11930:11937   */\n      dup9\n        /* \"#utility.yul\":11921:11927   */\n      dup3\n        /* \"#utility.yul\":11910:11919   */\n      dup10\n        /* \"#utility.yul\":11906:11928   */\n      add\n        /* \"#utility.yul\":11885:11938   */\n      tag_497\n      jump\t// in\n    tag_680:\n        /* \"#utility.yul\":11875:11938   */\n      swap5\n      pop\n        /* \"#utility.yul\":11830:11948   */\n      pop\n        /* \"#utility.yul\":11987:11989   */\n      0x40\n        /* \"#utility.yul\":12013:12064   */\n      tag_681\n        /* \"#utility.yul\":12056:12063   */\n      dup9\n        /* \"#utility.yul\":12047:12053   */\n      dup3\n        /* \"#utility.yul\":12036:12045   */\n      dup10\n        /* \"#utility.yul\":12032:12054   */\n      add\n        /* \"#utility.yul\":12013:12064   */\n      tag_495\n      jump\t// in\n    tag_681:\n        /* \"#utility.yul\":12003:12064   */\n      swap4\n      pop\n        /* \"#utility.yul\":11958:12074   */\n      pop\n        /* \"#utility.yul\":12113:12115   */\n      0x60\n        /* \"#utility.yul\":12139:12192   */\n      tag_682\n        /* \"#utility.yul\":12184:12191   */\n      dup9\n        /* \"#utility.yul\":12175:12181   */\n      dup3\n        /* \"#utility.yul\":12164:12173   */\n      dup10\n        /* \"#utility.yul\":12160:12182   */\n      add\n        /* \"#utility.yul\":12139:12192   */\n      tag_497\n      jump\t// in\n    tag_682:\n        /* \"#utility.yul\":12129:12192   */\n      swap3\n      pop\n        /* \"#utility.yul\":12084:12202   */\n      pop\n        /* \"#utility.yul\":12241:12244   */\n      0x80\n        /* \"#utility.yul\":12268:12321   */\n      tag_683\n        /* \"#utility.yul\":12313:12320   */\n      dup9\n        /* \"#utility.yul\":12304:12310   */\n      dup3\n        /* \"#utility.yul\":12293:12302   */\n      dup10\n        /* \"#utility.yul\":12289:12311   */\n      add\n        /* \"#utility.yul\":12268:12321   */\n      tag_497\n      jump\t// in\n    tag_683:\n        /* \"#utility.yul\":12258:12321   */\n      swap2\n      pop\n        /* \"#utility.yul\":12212:12331   */\n      pop\n        /* \"#utility.yul\":11431:12338   */\n      swap3\n      swap6\n      pop\n      swap3\n      swap6\n      swap1\n      swap4\n      pop\n      jump\t// out\n        /* \"#utility.yul\":12344:12818   */\n    tag_177:\n        /* \"#utility.yul\":12412:12418   */\n      0x00\n        /* \"#utility.yul\":12420:12426   */\n      dup1\n        /* \"#utility.yul\":12469:12471   */\n      0x40\n        /* \"#utility.yul\":12457:12466   */\n      dup4\n        /* \"#utility.yul\":12448:12455   */\n      dup6\n        /* \"#utility.yul\":12444:12467   */\n      sub\n        /* \"#utility.yul\":12440:12472   */\n      slt\n        /* \"#utility.yul\":12437:12556   */\n      iszero\n      tag_685\n      jumpi\n        /* \"#utility.yul\":12475:12554   */\n      tag_686\n      tag_465\n      jump\t// in\n    tag_686:\n        /* \"#utility.yul\":12437:12556   */\n    tag_685:\n        /* \"#utility.yul\":12595:12596   */\n      0x00\n        /* \"#utility.yul\":12620:12673   */\n      tag_687\n        /* \"#utility.yul\":12665:12672   */\n      dup6\n        /* \"#utility.yul\":12656:12662   */\n      dup3\n        /* \"#utility.yul\":12645:12654   */\n      dup7\n        /* \"#utility.yul\":12641:12663   */\n      add\n        /* \"#utility.yul\":12620:12673   */\n      tag_481\n      jump\t// in\n    tag_687:\n        /* \"#utility.yul\":12610:12673   */\n      swap3\n      pop\n        /* \"#utility.yul\":12566:12683   */\n      pop\n        /* \"#utility.yul\":12722:12724   */\n      0x20\n        /* \"#utility.yul\":12748:12801   */\n      tag_688\n        /* \"#utility.yul\":12793:12800   */\n      dup6\n        /* \"#utility.yul\":12784:12790   */\n      dup3\n        /* \"#utility.yul\":12773:12782   */\n      dup7\n        /* \"#utility.yul\":12769:12791   */\n      add\n        /* \"#utility.yul\":12748:12801   */\n      tag_469\n      jump\t// in\n    tag_688:\n        /* \"#utility.yul\":12738:12801   */\n      swap2\n      pop\n        /* \"#utility.yul\":12693:12811   */\n      pop\n        /* \"#utility.yul\":12344:12818   */\n      swap3\n      pop\n      swap3\n      swap1\n      pop\n      jump\t// out\n        /* \"#utility.yul\":12824:12938   */\n    tag_498:\n        /* \"#utility.yul\":12891:12897   */\n      0x00\n        /* \"#utility.yul\":12925:12930   */\n      dup2\n        /* \"#utility.yul\":12919:12931   */\n      mload\n        /* \"#utility.yul\":12909:12931   */\n      swap1\n      pop\n        /* \"#utility.yul\":12824:12938   */\n      swap2\n      swap1\n      pop\n      jump\t// out\n        /* \"#utility.yul\":12944:13128   */\n    tag_499:\n        /* \"#utility.yul\":13043:13054   */\n      0x00\n        /* \"#utility.yul\":13077:13083   */\n      dup3\n        /* \"#utility.yul\":13072:13075   */\n      dup3\n        /* \"#utility.yul\":13065:13084   */\n      mstore\n        /* \"#utility.yul\":13117:13121   */\n      0x20\n        /* \"#utility.yul\":13112:13115   */\n      dup3\n        /* \"#utility.yul\":13108:13122   */\n      add\n        /* \"#utility.yul\":13093:13122   */\n      swap1\n      pop\n        /* \"#utility.yul\":12944:13128   */\n      swap3\n      swap2\n      pop\n      pop\n      jump\t// out\n        /* \"#utility.yul\":13134:13266   */\n    tag_500:\n        /* \"#utility.yul\":13201:13205   */\n      0x00\n        /* \"#utility.yul\":13224:13227   */\n      dup2\n        /* \"#utility.yul\":13216:13227   */\n      swap1\n      pop\n        /* \"#utility.yul\":13254:13258   */\n      0x20\n        /* \"#utility.yul\":13249:13252   */\n      dup3\n        /* \"#utility.yul\":13245:13259   */\n      add\n        /* \"#utility.yul\":13237:13259   */\n      swap1\n      pop\n        /* \"#utility.yul\":13134:13266   */\n      swap2\n      swap1\n      pop\n      jump\t// out\n        /* \"#utility.yul\":13272:13380   */\n    tag_501:\n        /* \"#utility.yul\":13349:13373   */\n      tag_693\n        /* \"#utility.yul\":13367:13372   */\n      dup2\n        /* \"#utility.yul\":13349:13373   */\n      tag_467\n      jump\t// in\n    tag_693:\n        /* \"#utility.yul\":13344:13347   */\n      dup3\n        /* \"#utility.yul\":13337:13374   */\n      mstore\n        /* \"#utility.yul\":13272:13380   */\n      pop\n      pop\n      jump\t// out\n        /* \"#utility.yul\":13386:13565   */\n    tag_502:\n        /* \"#utility.yul\":13455:13465   */\n      0x00\n        /* \"#utility.yul\":13476:13522   */\n      tag_695\n        /* \"#utility.yul\":13518:13521   */\n      dup4\n        /* \"#utility.yul\":13510:13516   */\n      dup4\n        /* \"#utility.yul\":13476:13522   */\n      tag_501\n      jump\t// in\n    tag_695:\n        /* \"#utility.yul\":13554:13558   */\n      0x20\n        /* \"#utility.yul\":13549:13552   */\n      dup4\n        /* \"#utility.yul\":13545:13559   */\n      add\n        /* \"#utility.yul\":13531:13559   */\n      swap1\n      pop\n        /* \"#utility.yul\":13386:13565   */\n      swap3\n      swap2\n      pop\n      pop\n      jump\t// out\n        /* \"#utility.yul\":13571:13684   */\n    tag_503:\n        /* \"#utility.yul\":13641:13645   */\n      0x00\n        /* \"#utility.yul\":13673:13677   */\n      0x20\n        /* \"#utility.yul\":13668:13671   */\n      dup3\n        /* \"#utility.yul\":13664:13678   */\n      add\n        /* \"#utility.yul\":13656:13678   */\n      swap1\n      pop\n        /* \"#utility.yul\":13571:13684   */\n      swap2\n      swap1\n      pop\n      jump\t// out\n        /* \"#utility.yul\":13720:14452   */\n    tag_504:\n        /* \"#utility.yul\":13839:13842   */\n      0x00\n        /* \"#utility.yul\":13868:13922   */\n      tag_698\n        /* \"#utility.yul\":13916:13921   */\n      dup3\n        /* \"#utility.yul\":13868:13922   */\n      tag_498\n      jump\t// in\n    tag_698:\n        /* \"#utility.yul\":13938:14024   */\n      tag_699\n        /* \"#utility.yul\":14017:14023   */\n      dup2\n        /* \"#utility.yul\":14012:14015   */\n      dup6\n        /* \"#utility.yul\":13938:14024   */\n      tag_499\n      jump\t// in\n    tag_699:\n        /* \"#utility.yul\":13931:14024   */\n      swap4\n      pop\n        /* \"#utility.yul\":14048:14104   */\n      tag_700\n        /* \"#utility.yul\":14098:14103   */\n      dup4\n        /* \"#utility.yul\":14048:14104   */\n      tag_500\n      jump\t// in\n    tag_700:\n        /* \"#utility.yul\":14127:14134   */\n      dup1\n        /* \"#utility.yul\":14158:14159   */\n      0x00\n        /* \"#utility.yul\":14143:14427   */\n    tag_701:\n        /* \"#utility.yul\":14168:14174   */\n      dup4\n        /* \"#utility.yul\":14165:14166   */\n      dup2\n        /* \"#utility.yul\":14162:14175   */\n      lt\n        /* \"#utility.yul\":14143:14427   */\n      iszero\n      tag_703\n      jumpi\n        /* \"#utility.yul\":14244:14250   */\n      dup2\n        /* \"#utility.yul\":14238:14251   */\n      mload\n        /* \"#utility.yul\":14271:14334   */\n      tag_704\n        /* \"#utility.yul\":14330:14333   */\n      dup9\n        /* \"#utility.yul\":14315:14328   */\n      dup3\n        /* \"#utility.yul\":14271:14334   */\n      tag_502\n      jump\t// in\n    tag_704:\n        /* \"#utility.yul\":14264:14334   */\n      swap8\n      pop\n        /* \"#utility.yul\":14357:14417   */\n      tag_705\n        /* \"#utility.yul\":14410:14416   */\n      dup4\n        /* \"#utility.yul\":14357:14417   */\n      tag_503\n      jump\t// in\n    tag_705:\n        /* \"#utility.yul\":14347:14417   */\n      swap3\n      pop\n        /* \"#utility.yul\":14203:14427   */\n      pop\n        /* \"#utility.yul\":14190:14191   */\n      0x01\n        /* \"#utility.yul\":14187:14188   */\n      dup2\n        /* \"#utility.yul\":14183:14192   */\n      add\n        /* \"#utility.yul\":14178:14192   */\n      swap1\n      pop\n        /* \"#utility.yul\":14143:14427   */\n      jump(tag_701)\n    tag_703:\n        /* \"#utility.yul\":14147:14161   */\n      pop\n        /* \"#utility.yul\":14443:14446   */\n      dup6\n        /* \"#utility.yul\":14436:14446   */\n      swap4\n      pop\n        /* \"#utility.yul\":13844:14452   */\n      pop\n      pop\n      pop\n        /* \"#utility.yul\":13720:14452   */\n      swap3\n      swap2\n      pop\n      pop\n      jump\t// out\n        /* \"#utility.yul\":14458:14831   */\n    tag_183:\n        /* \"#utility.yul\":14601:14605   */\n      0x00\n        /* \"#utility.yul\":14639:14641   */\n      0x20\n        /* \"#utility.yul\":14628:14637   */\n      dup3\n        /* \"#utility.yul\":14624:14642   */\n      add\n        /* \"#utility.yul\":14616:14642   */\n      swap1\n      pop\n        /* \"#utility.yul\":14688:14697   */\n      dup2\n        /* \"#utility.yul\":14682:14686   */\n      dup2\n        /* \"#utility.yul\":14678:14698   */\n      sub\n        /* \"#utility.yul\":14674:14675   */\n      0x00\n        /* \"#utility.yul\":14663:14672   */\n      dup4\n        /* \"#utility.yul\":14659:14676   */\n      add\n        /* \"#utility.yul\":14652:14699   */\n      mstore\n        /* \"#utility.yul\":14716:14824   */\n      tag_707\n        /* \"#utility.yul\":14819:14823   */\n      dup2\n        /* \"#utility.yul\":14810:14816   */\n      dup5\n        /* \"#utility.yul\":14716:14824   */\n      tag_504\n      jump\t// in\n    tag_707:\n        /* \"#utility.yul\":14708:14824   */\n      swap1\n      pop\n        /* \"#utility.yul\":14458:14831   */\n      swap3\n      swap2\n      pop\n      pop\n      jump\t// out\n        /* \"#utility.yul\":14837:15501   */\n    tag_191:\n        /* \"#utility.yul\":15042:15046   */\n      0x00\n        /* \"#utility.yul\":15080:15083   */\n      0xa0\n        /* \"#utility.yul\":15069:15078   */\n      dup3\n        /* \"#utility.yul\":15065:15084   */\n      add\n        /* \"#utility.yul\":15057:15084   */\n      swap1\n      pop\n        /* \"#utility.yul\":15094:15165   */\n      tag_709\n        /* \"#utility.yul\":15162:15163   */\n      0x00\n        /* \"#utility.yul\":15151:15160   */\n      dup4\n        /* \"#utility.yul\":15147:15164   */\n      add\n        /* \"#utility.yul\":15138:15144   */\n      dup9\n        /* \"#utility.yul\":15094:15165   */\n      tag_470\n      jump\t// in\n    tag_709:\n        /* \"#utility.yul\":15175:15247   */\n      tag_710\n        /* \"#utility.yul\":15243:15245   */\n      0x20\n        /* \"#utility.yul\":15232:15241   */\n      dup4\n        /* \"#utility.yul\":15228:15246   */\n      add\n        /* \"#utility.yul\":15219:15225   */\n      dup8\n        /* \"#utility.yul\":15175:15247   */\n      tag_470\n      jump\t// in\n    tag_710:\n        /* \"#utility.yul\":15257:15329   */\n      tag_711\n        /* \"#utility.yul\":15325:15327   */\n      0x40\n        /* \"#utility.yul\":15314:15323   */\n      dup4\n        /* \"#utility.yul\":15310:15328   */\n      add\n        /* \"#utility.yul\":15301:15307   */\n      dup7\n        /* \"#utility.yul\":15257:15329   */\n      tag_470\n      jump\t// in\n    tag_711:\n        /* \"#utility.yul\":15339:15411   */\n      tag_712\n        /* \"#utility.yul\":15407:15409   */\n      0x60\n        /* \"#utility.yul\":15396:15405   */\n      dup4\n        /* \"#utility.yul\":15392:15410   */\n      add\n        /* \"#utility.yul\":15383:15389   */\n      dup6\n        /* \"#utility.yul\":15339:15411   */\n      tag_470\n      jump\t// in\n    tag_712:\n        /* \"#utility.yul\":15421:15494   */\n      tag_713\n        /* \"#utility.yul\":15489:15492   */\n      0x80\n        /* \"#utility.yul\":15478:15487   */\n      dup4\n        /* \"#utility.yul\":15474:15493   */\n      add\n        /* \"#utility.yul\":15465:15471   */\n      dup5\n        /* \"#utility.yul\":15421:15494   */\n      tag_470\n      jump\t// in\n    tag_713:\n        /* \"#utility.yul\":14837:15501   */\n      swap7\n      swap6\n      pop\n      pop\n      pop\n      pop\n      pop\n      pop\n      jump\t// out\n        /* \"#utility.yul\":15507:15676   */\n    tag_505:\n        /* \"#utility.yul\":15591:15602   */\n      0x00\n        /* \"#utility.yul\":15625:15631   */\n      dup3\n        /* \"#utility.yul\":15620:15623   */\n      dup3\n        /* \"#utility.yul\":15613:15632   */\n      mstore\n        /* \"#utility.yul\":15665:15669   */\n      0x20\n        /* \"#utility.yul\":15660:15663   */\n      dup3\n        /* \"#utility.yul\":15656:15670   */\n      add\n        /* \"#utility.yul\":15641:15670   */\n      swap1\n      pop\n        /* \"#utility.yul\":15507:15676   */\n      swap3\n      swap2\n      pop\n      pop\n      jump\t// out\n        /* \"#utility.yul\":15682:15915   */\n    tag_506:\n        /* \"#utility.yul\":15822:15856   */\n      0x4c75636b7942616c6c3a2063616c6c6572206973206e6f7420746865206f7065\n        /* \"#utility.yul\":15818:15819   */\n      0x00\n        /* \"#utility.yul\":15810:15816   */\n      dup3\n        /* \"#utility.yul\":15806:15820   */\n      add\n        /* \"#utility.yul\":15799:15857   */\n      mstore\n        /* \"#utility.yul\":15891:15907   */\n      0x7261746f72206164647265737321000000000000000000000000000000000000\n        /* \"#utility.yul\":15886:15888   */\n      0x20\n        /* \"#utility.yul\":15878:15884   */\n      dup3\n        /* \"#utility.yul\":15874:15889   */\n      add\n        /* \"#utility.yul\":15867:15908   */\n      mstore\n        /* \"#utility.yul\":15682:15915   */\n      pop\n      jump\t// out\n        /* \"#utility.yul\":15921:16287   */\n    tag_507:\n        /* \"#utility.yul\":16063:16066   */\n      0x00\n        /* \"#utility.yul\":16084:16151   */\n      tag_717\n        /* \"#utility.yul\":16148:16150   */\n      0x2e\n        /* \"#utility.yul\":16143:16146   */\n      dup4\n        /* \"#utility.yul\":16084:16151   */\n      tag_505\n      jump\t// in\n    tag_717:\n        /* \"#utility.yul\":16077:16151   */\n      swap2\n      pop\n        /* \"#utility.yul\":16160:16253   */\n      tag_718\n        /* \"#utility.yul\":16249:16252   */\n      dup3\n        /* \"#utility.yul\":16160:16253   */\n      tag_506\n      jump\t// in\n    tag_718:\n        /* \"#utility.yul\":16278:16280   */\n      0x40\n        /* \"#utility.yul\":16273:16276   */\n      dup3\n        /* \"#utility.yul\":16269:16281   */\n      add\n        /* \"#utility.yul\":16262:16281   */\n      swap1\n      pop\n        /* \"#utility.yul\":15921:16287   */\n      swap2\n      swap1\n      pop\n      jump\t// out\n        /* \"#utility.yul\":16293:16712   */\n    tag_205:\n        /* \"#utility.yul\":16459:16463   */\n      0x00\n        /* \"#utility.yul\":16497:16499   */\n      0x20\n        /* \"#utility.yul\":16486:16495   */\n      dup3\n        /* \"#utility.yul\":16482:16500   */\n      add\n        /* \"#utility.yul\":16474:16500   */\n      swap1\n      pop\n        /* \"#utility.yul\":16546:16555   */\n      dup2\n        /* \"#utility.yul\":16540:16544   */\n      dup2\n        /* \"#utility.yul\":16536:16556   */\n      sub\n        /* \"#utility.yul\":16532:16533   */\n      0x00\n        /* \"#utility.yul\":16521:16530   */\n      dup4\n        /* \"#utility.yul\":16517:16534   */\n      add\n        /* \"#utility.yul\":16510:16557   */\n      mstore\n        /* \"#utility.yul\":16574:16705   */\n      tag_720\n        /* \"#utility.yul\":16700:16704   */\n      dup2\n        /* \"#utility.yul\":16574:16705   */\n      tag_507\n      jump\t// in\n    tag_720:\n        /* \"#utility.yul\":16566:16705   */\n      swap1\n      pop\n        /* \"#utility.yul\":16293:16712   */\n      swap2\n      swap1\n      pop\n      jump\t// out\n        /* \"#utility.yul\":16718:16950   */\n    tag_508:\n        /* \"#utility.yul\":16858:16892   */\n      0x4c75636b42616c6c3a206164647265737320616e642071747920636f756e7473\n        /* \"#utility.yul\":16854:16855   */\n      0x00\n        /* \"#utility.yul\":16846:16852   */\n      dup3\n        /* \"#utility.yul\":16842:16856   */\n      add\n        /* \"#utility.yul\":16835:16893   */\n      mstore\n        /* \"#utility.yul\":16927:16942   */\n      0x20646f206e6f74206d6174636800000000000000000000000000000000000000\n        /* \"#utility.yul\":16922:16924   */\n      0x20\n        /* \"#utility.yul\":16914:16920   */\n      dup3\n        /* \"#utility.yul\":16910:16925   */\n      add\n        /* \"#utility.yul\":16903:16943   */\n      mstore\n        /* \"#utility.yul\":16718:16950   */\n      pop\n      jump\t// out\n        /* \"#utility.yul\":16956:17322   */\n    tag_509:\n        /* \"#utility.yul\":17098:17101   */\n      0x00\n        /* \"#utility.yul\":17119:17186   */\n      tag_723\n        /* \"#utility.yul\":17183:17185   */\n      0x2d\n        /* \"#utility.yul\":17178:17181   */\n      dup4\n        /* \"#utility.yul\":17119:17186   */\n      tag_505\n      jump\t// in\n    tag_723:\n        /* \"#utility.yul\":17112:17186   */\n      swap2\n      pop\n        /* \"#utility.yul\":17195:17288   */\n      tag_724\n        /* \"#utility.yul\":17284:17287   */\n      dup3\n        /* \"#utility.yul\":17195:17288   */\n      tag_508\n      jump\t// in\n    tag_724:\n        /* \"#utility.yul\":17313:17315   */\n      0x40\n        /* \"#utility.yul\":17308:17311   */\n      dup3\n        /* \"#utility.yul\":17304:17316   */\n      add\n        /* \"#utility.yul\":17297:17316   */\n      swap1\n      pop\n        /* \"#utility.yul\":16956:17322   */\n      swap2\n      swap1\n      pop\n      jump\t// out\n        /* \"#utility.yul\":17328:17747   */\n    tag_209:\n        /* \"#utility.yul\":17494:17498   */\n      0x00\n        /* \"#utility.yul\":17532:17534   */\n      0x20\n        /* \"#utility.yul\":17521:17530   */\n      dup3\n        /* \"#utility.yul\":17517:17535   */\n      add\n        /* \"#utility.yul\":17509:17535   */\n      swap1\n      pop\n        /* \"#utility.yul\":17581:17590   */\n      dup2\n        /* \"#utility.yul\":17575:17579   */\n      dup2\n        /* \"#utility.yul\":17571:17591   */\n      sub\n        /* \"#utility.yul\":17567:17568   */\n      0x00\n        /* \"#utility.yul\":17556:17565   */\n      dup4\n        /* \"#utility.yul\":17552:17569   */\n      add\n        /* \"#utility.yul\":17545:17592   */\n      mstore\n        /* \"#utility.yul\":17609:17740   */\n      tag_726\n        /* \"#utility.yul\":17735:17739   */\n      dup2\n        /* \"#utility.yul\":17609:17740   */\n      tag_509\n      jump\t// in\n    tag_726:\n        /* \"#utility.yul\":17601:17740   */\n      swap1\n      pop\n        /* \"#utility.yul\":17328:17747   */\n      swap2\n      swap1\n      pop\n      jump\t// out\n        /* \"#utility.yul\":17753:17933   */\n    tag_215:\n        /* \"#utility.yul\":17801:17878   */\n      0x4e487b7100000000000000000000000000000000000000000000000000000000\n        /* \"#utility.yul\":17798:17799   */\n      0x00\n        /* \"#utility.yul\":17791:17879   */\n      mstore\n        /* \"#utility.yul\":17898:17902   */\n      0x32\n        /* \"#utility.yul\":17895:17896   */\n      0x04\n        /* \"#utility.yul\":17888:17903   */\n      mstore\n        /* \"#utility.yul\":17922:17926   */\n      0x24\n        /* \"#utility.yul\":17919:17920   */\n      0x00\n        /* \"#utility.yul\":17912:17927   */\n      revert\n        /* \"#utility.yul\":17939:18163   */\n    tag_510:\n        /* \"#utility.yul\":18079:18113   */\n      0x4c75636b42616c6c3a207174792073686f756c64206265206269676765722074\n        /* \"#utility.yul\":18075:18076   */\n      0x00\n        /* \"#utility.yul\":18067:18073   */\n      dup3\n        /* \"#utility.yul\":18063:18077   */\n      add\n        /* \"#utility.yul\":18056:18114   */\n      mstore\n        /* \"#utility.yul\":18148:18155   */\n      0x68616e2030000000000000000000000000000000000000000000000000000000\n        /* \"#utility.yul\":18143:18145   */\n      0x20\n        /* \"#utility.yul\":18135:18141   */\n      dup3\n        /* \"#utility.yul\":18131:18146   */\n      add\n        /* \"#utility.yul\":18124:18156   */\n      mstore\n        /* \"#utility.yul\":17939:18163   */\n      pop\n      jump\t// out\n        /* \"#utility.yul\":18169:18535   */\n    tag_511:\n        /* \"#utility.yul\":18311:18314   */\n      0x00\n        /* \"#utility.yul\":18332:18399   */\n      tag_730\n        /* \"#utility.yul\":18396:18398   */\n      0x25\n        /* \"#utility.yul\":18391:18394   */\n      dup4\n        /* \"#utility.yul\":18332:18399   */\n      tag_505\n      jump\t// in\n    tag_730:\n        /* \"#utility.yul\":18325:18399   */\n      swap2\n      pop\n        /* \"#utility.yul\":18408:18501   */\n      tag_731\n        /* \"#utility.yul\":18497:18500   */\n      dup3\n        /* \"#utility.yul\":18408:18501   */\n      tag_510\n      jump\t// in\n    tag_731:\n        /* \"#utility.yul\":18526:18528   */\n      0x40\n        /* \"#utility.yul\":18521:18524   */\n      dup3\n        /* \"#utility.yul\":18517:18529   */\n      add\n        /* \"#utility.yul\":18510:18529   */\n      swap1\n      pop\n        /* \"#utility.yul\":18169:18535   */\n      swap2\n      swap1\n      pop\n      jump\t// out\n        /* \"#utility.yul\":18541:18960   */\n    tag_218:\n        /* \"#utility.yul\":18707:18711   */\n      0x00\n        /* \"#utility.yul\":18745:18747   */\n      0x20\n        /* \"#utility.yul\":18734:18743   */\n      dup3\n        /* \"#utility.yul\":18730:18748   */\n      add\n        /* \"#utility.yul\":18722:18748   */\n      swap1\n      pop\n        /* \"#utility.yul\":18794:18803   */\n      dup2\n        /* \"#utility.yul\":18788:18792   */\n      dup2\n        /* \"#utility.yul\":18784:18804   */\n      sub\n        /* \"#utility.yul\":18780:18781   */\n      0x00\n        /* \"#utility.yul\":18769:18778   */\n      dup4\n        /* \"#utility.yul\":18765:18782   */\n      add\n        /* \"#utility.yul\":18758:18805   */\n      mstore\n        /* \"#utility.yul\":18822:18953   */\n      tag_733\n        /* \"#utility.yul\":18948:18952   */\n      dup2\n        /* \"#utility.yul\":18822:18953   */\n      tag_511\n      jump\t// in\n    tag_733:\n        /* \"#utility.yul\":18814:18953   */\n      swap1\n      pop\n        /* \"#utility.yul\":18541:18960   */\n      swap2\n      swap1\n      pop\n      jump\t// out\n        /* \"#utility.yul\":18966:19146   */\n    tag_512:\n        /* \"#utility.yul\":19014:19091   */\n      0x4e487b7100000000000000000000000000000000000000000000000000000000\n        /* \"#utility.yul\":19011:19012   */\n      0x00\n        /* \"#utility.yul\":19004:19092   */\n      mstore\n        /* \"#utility.yul\":19111:19115   */\n      0x11\n        /* \"#utility.yul\":19108:19109   */\n      0x04\n        /* \"#utility.yul\":19101:19116   */\n      mstore\n        /* \"#utility.yul\":19135:19139   */\n      0x24\n        /* \"#utility.yul\":19132:19133   */\n      0x00\n        /* \"#utility.yul\":19125:19140   */\n      revert\n        /* \"#utility.yul\":19152:19343   */\n    tag_222:\n        /* \"#utility.yul\":19192:19195   */\n      0x00\n        /* \"#utility.yul\":19211:19231   */\n      tag_736\n        /* \"#utility.yul\":19229:19230   */\n      dup3\n        /* \"#utility.yul\":19211:19231   */\n      tag_467\n      jump\t// in\n    tag_736:\n        /* \"#utility.yul\":19206:19231   */\n      swap2\n      pop\n        /* \"#utility.yul\":19245:19265   */\n      tag_737\n        /* \"#utility.yul\":19263:19264   */\n      dup4\n        /* \"#utility.yul\":19245:19265   */\n      tag_467\n      jump\t// in\n    tag_737:\n        /* \"#utility.yul\":19240:19265   */\n      swap3\n      pop\n        /* \"#utility.yul\":19288:19289   */\n      dup3\n        /* \"#utility.yul\":19285:19286   */\n      dup3\n        /* \"#utility.yul\":19281:19290   */\n      add\n        /* \"#utility.yul\":19274:19290   */\n      swap1\n      pop\n        /* \"#utility.yul\":19309:19312   */\n      dup1\n        /* \"#utility.yul\":19306:19307   */\n      dup3\n        /* \"#utility.yul\":19303:19313   */\n      gt\n        /* \"#utility.yul\":19300:19336   */\n      iszero\n      tag_738\n      jumpi\n        /* \"#utility.yul\":19316:19334   */\n      tag_739\n      tag_512\n      jump\t// in\n    tag_739:\n        /* \"#utility.yul\":19300:19336   */\n    tag_738:\n        /* \"#utility.yul\":19152:19343   */\n      swap3\n      swap2\n      pop\n      pop\n      jump\t// out\n        /* \"#utility.yul\":19349:19543   */\n    tag_233:\n        /* \"#utility.yul\":19389:19393   */\n      0x00\n        /* \"#utility.yul\":19409:19429   */\n      tag_741\n        /* \"#utility.yul\":19427:19428   */\n      dup3\n        /* \"#utility.yul\":19409:19429   */\n      tag_467\n      jump\t// in\n    tag_741:\n        /* \"#utility.yul\":19404:19429   */\n      swap2\n      pop\n        /* \"#utility.yul\":19443:19463   */\n      tag_742\n        /* \"#utility.yul\":19461:19462   */\n      dup4\n        /* \"#utility.yul\":19443:19463   */\n      tag_467\n      jump\t// in\n    tag_742:\n        /* \"#utility.yul\":19438:19463   */\n      swap3\n      pop\n        /* \"#utility.yul\":19487:19488   */\n      dup3\n        /* \"#utility.yul\":19484:19485   */\n      dup3\n        /* \"#utility.yul\":19480:19489   */\n      sub\n        /* \"#utility.yul\":19472:19489   */\n      swap1\n      pop\n        /* \"#utility.yul\":19511:19512   */\n      dup2\n        /* \"#utility.yul\":19505:19509   */\n      dup2\n        /* \"#utility.yul\":19502:19513   */\n      gt\n        /* \"#utility.yul\":19499:19536   */\n      iszero\n      tag_743\n      jumpi\n        /* \"#utility.yul\":19516:19534   */\n      tag_744\n      tag_512\n      jump\t// in\n    tag_744:\n        /* \"#utility.yul\":19499:19536   */\n    tag_743:\n        /* \"#utility.yul\":19349:19543   */\n      swap3\n      swap2\n      pop\n      pop\n      jump\t// out\n        /* \"#utility.yul\":19549:19881   */\n    tag_248:\n        /* \"#utility.yul\":19670:19674   */\n      0x00\n        /* \"#utility.yul\":19708:19710   */\n      0x40\n        /* \"#utility.yul\":19697:19706   */\n      dup3\n        /* \"#utility.yul\":19693:19711   */\n      add\n        /* \"#utility.yul\":19685:19711   */\n      swap1\n      pop\n        /* \"#utility.yul\":19721:19792   */\n      tag_746\n        /* \"#utility.yul\":19789:19790   */\n      0x00\n        /* \"#utility.yul\":19778:19787   */\n      dup4\n        /* \"#utility.yul\":19774:19791   */\n      add\n        /* \"#utility.yul\":19765:19771   */\n      dup6\n        /* \"#utility.yul\":19721:19792   */\n      tag_492\n      jump\t// in\n    tag_746:\n        /* \"#utility.yul\":19802:19874   */\n      tag_747\n        /* \"#utility.yul\":19870:19872   */\n      0x20\n        /* \"#utility.yul\":19859:19868   */\n      dup4\n        /* \"#utility.yul\":19855:19873   */\n      add\n        /* \"#utility.yul\":19846:19852   */\n      dup5\n        /* \"#utility.yul\":19802:19874   */\n      tag_470\n      jump\t// in\n    tag_747:\n        /* \"#utility.yul\":19549:19881   */\n      swap4\n      swap3\n      pop\n      pop\n      pop\n      jump\t// out\n        /* \"#utility.yul\":19887:20120   */\n    tag_250:\n        /* \"#utility.yul\":19926:19929   */\n      0x00\n        /* \"#utility.yul\":19949:19973   */\n      tag_749\n        /* \"#utility.yul\":19967:19972   */\n      dup3\n        /* \"#utility.yul\":19949:19973   */\n      tag_467\n      jump\t// in\n    tag_749:\n        /* \"#utility.yul\":19940:19973   */\n      swap2\n      pop\n        /* \"#utility.yul\":19995:20061   */\n      0xffffffffffffffffffffffffffffffffffffffffffffffffffffffffffffffff\n        /* \"#utility.yul\":19988:19993   */\n      dup3\n        /* \"#utility.yul\":19985:20062   */\n      sub\n        /* \"#utility.yul\":19982:20085   */\n      tag_750\n      jumpi\n        /* \"#utility.yul\":20065:20083   */\n      tag_751\n      tag_512\n      jump\t// in\n    tag_751:\n        /* \"#utility.yul\":19982:20085   */\n    tag_750:\n        /* \"#utility.yul\":20112:20113   */\n      0x01\n        /* \"#utility.yul\":20105:20110   */\n      dup3\n        /* \"#utility.yul\":20101:20114   */\n      add\n        /* \"#utility.yul\":20094:20114   */\n      swap1\n      pop\n        /* \"#utility.yul\":19887:20120   */\n      swap2\n      swap1\n      pop\n      jump\t// out\n        /* \"#utility.yul\":20126:20205   */\n    tag_513:\n        /* \"#utility.yul\":20165:20172   */\n      0x00\n        /* \"#utility.yul\":20194:20199   */\n      dup2\n        /* \"#utility.yul\":20183:20199   */\n      swap1\n      pop\n        /* \"#utility.yul\":20126:20205   */\n      swap2\n      swap1\n      pop\n      jump\t// out\n        /* \"#utility.yul\":20211:20368   */\n    tag_514:\n        /* \"#utility.yul\":20316:20361   */\n      tag_754\n        /* \"#utility.yul\":20336:20360   */\n      tag_755\n        /* \"#utility.yul\":20354:20359   */\n      dup3\n        /* \"#utility.yul\":20336:20360   */\n      tag_467\n      jump\t// in\n    tag_755:\n        /* \"#utility.yul\":20316:20361   */\n      tag_513\n      jump\t// in\n    tag_754:\n        /* \"#utility.yul\":20311:20314   */\n      dup3\n        /* \"#utility.yul\":20304:20362   */\n      mstore\n        /* \"#utility.yul\":20211:20368   */\n      pop\n      pop\n      jump\t// out\n        /* \"#utility.yul\":20374:20468   */\n    tag_515:\n        /* \"#utility.yul\":20407:20415   */\n      0x00\n        /* \"#utility.yul\":20455:20460   */\n      dup2\n        /* \"#utility.yul\":20451:20453   */\n      0x60\n        /* \"#utility.yul\":20447:20461   */\n      shl\n        /* \"#utility.yul\":20426:20461   */\n      swap1\n      pop\n        /* \"#utility.yul\":20374:20468   */\n      swap2\n      swap1\n      pop\n      jump\t// out\n        /* \"#utility.yul\":20474:20568   */\n    tag_516:\n        /* \"#utility.yul\":20513:20520   */\n      0x00\n        /* \"#utility.yul\":20542:20562   */\n      tag_758\n        /* \"#utility.yul\":20556:20561   */\n      dup3\n        /* \"#utility.yul\":20542:20562   */\n      tag_515\n      jump\t// in\n    tag_758:\n        /* \"#utility.yul\":20531:20562   */\n      swap1\n      pop\n        /* \"#utility.yul\":20474:20568   */\n      swap2\n      swap1\n      pop\n      jump\t// out\n        /* \"#utility.yul\":20574:20674   */\n    tag_517:\n        /* \"#utility.yul\":20613:20620   */\n      0x00\n        /* \"#utility.yul\":20642:20668   */\n      tag_760\n        /* \"#utility.yul\":20662:20667   */\n      dup3\n        /* \"#utility.yul\":20642:20668   */\n      tag_516\n      jump\t// in\n    tag_760:\n        /* \"#utility.yul\":20631:20668   */\n      swap1\n      pop\n        /* \"#utility.yul\":20574:20674   */\n      swap2\n      swap1\n      pop\n      jump\t// out\n        /* \"#utility.yul\":20680:20837   */\n    tag_518:\n        /* \"#utility.yul\":20785:20830   */\n      tag_762\n        /* \"#utility.yul\":20805:20829   */\n      tag_763\n        /* \"#utility.yul\":20823:20828   */\n      dup3\n        /* \"#utility.yul\":20805:20829   */\n      tag_479\n      jump\t// in\n    tag_763:\n        /* \"#utility.yul\":20785:20830   */\n      tag_517\n      jump\t// in\n    tag_762:\n        /* \"#utility.yul\":20780:20783   */\n      dup3\n        /* \"#utility.yul\":20773:20831   */\n      mstore\n        /* \"#utility.yul\":20680:20837   */\n      pop\n      pop\n      jump\t// out\n        /* \"#utility.yul\":20843:20942   */\n    tag_519:\n        /* \"#utility.yul\":20895:20901   */\n      0x00\n        /* \"#utility.yul\":20929:20934   */\n      dup2\n        /* \"#utility.yul\":20923:20935   */\n      mload\n        /* \"#utility.yul\":20913:20935   */\n      swap1\n      pop\n        /* \"#utility.yul\":20843:20942   */\n      swap2\n      swap1\n      pop\n      jump\t// out\n        /* \"#utility.yul\":20948:21096   */\n    tag_520:\n        /* \"#utility.yul\":21050:21061   */\n      0x00\n        /* \"#utility.yul\":21087:21090   */\n      dup2\n        /* \"#utility.yul\":21072:21090   */\n      swap1\n      pop\n        /* \"#utility.yul\":20948:21096   */\n      swap3\n      swap2\n      pop\n      pop\n      jump\t// out\n        /* \"#utility.yul\":21102:21348   */\n    tag_521:\n        /* \"#utility.yul\":21183:21184   */\n      0x00\n        /* \"#utility.yul\":21193:21306   */\n    tag_767:\n        /* \"#utility.yul\":21207:21213   */\n      dup4\n        /* \"#utility.yul\":21204:21205   */\n      dup2\n        /* \"#utility.yul\":21201:21214   */\n      lt\n        /* \"#utility.yul\":21193:21306   */\n      iszero\n      tag_769\n      jumpi\n        /* \"#utility.yul\":21292:21293   */\n      dup1\n        /* \"#utility.yul\":21287:21290   */\n      dup3\n        /* \"#utility.yul\":21283:21294   */\n      add\n        /* \"#utility.yul\":21277:21295   */\n      mload\n        /* \"#utility.yul\":21273:21274   */\n      dup2\n        /* \"#utility.yul\":21268:21271   */\n      dup5\n        /* \"#utility.yul\":21264:21275   */\n      add\n        /* \"#utility.yul\":21257:21296   */\n      mstore\n        /* \"#utility.yul\":21229:21231   */\n      0x20\n        /* \"#utility.yul\":21226:21227   */\n      dup2\n        /* \"#utility.yul\":21222:21232   */\n      add\n        /* \"#utility.yul\":21217:21232   */\n      swap1\n      pop\n        /* \"#utility.yul\":21193:21306   */\n      jump(tag_767)\n    tag_769:\n        /* \"#utility.yul\":21340:21341   */\n      0x00\n        /* \"#utility.yul\":21331:21337   */\n      dup5\n        /* \"#utility.yul\":21326:21329   */\n      dup5\n        /* \"#utility.yul\":21322:21338   */\n      add\n        /* \"#utility.yul\":21315:21342   */\n      mstore\n        /* \"#utility.yul\":21164:21348   */\n      pop\n        /* \"#utility.yul\":21102:21348   */\n      pop\n      pop\n      pop\n      jump\t// out\n        /* \"#utility.yul\":21354:21744   */\n    tag_522:\n        /* \"#utility.yul\":21460:21463   */\n      0x00\n        /* \"#utility.yul\":21488:21527   */\n      tag_771\n        /* \"#utility.yul\":21521:21526   */\n      dup3\n        /* \"#utility.yul\":21488:21527   */\n      tag_519\n      jump\t// in\n    tag_771:\n        /* \"#utility.yul\":21543:21632   */\n      tag_772\n        /* \"#utility.yul\":21625:21631   */\n      dup2\n        /* \"#utility.yul\":21620:21623   */\n      dup6\n        /* \"#utility.yul\":21543:21632   */\n      tag_520\n      jump\t// in\n    tag_772:\n        /* \"#utility.yul\":21536:21632   */\n      swap4\n      pop\n        /* \"#utility.yul\":21641:21706   */\n      tag_773\n        /* \"#utility.yul\":21699:21705   */\n      dup2\n        /* \"#utility.yul\":21694:21697   */\n      dup6\n        /* \"#utility.yul\":21687:21691   */\n      0x20\n        /* \"#utility.yul\":21680:21685   */\n      dup7\n        /* \"#utility.yul\":21676:21692   */\n      add\n        /* \"#utility.yul\":21641:21706   */\n      tag_521\n      jump\t// in\n    tag_773:\n        /* \"#utility.yul\":21731:21737   */\n      dup1\n        /* \"#utility.yul\":21726:21729   */\n      dup5\n        /* \"#utility.yul\":21722:21738   */\n      add\n        /* \"#utility.yul\":21715:21738   */\n      swap2\n      pop\n        /* \"#utility.yul\":21464:21744   */\n      pop\n        /* \"#utility.yul\":21354:21744   */\n      swap3\n      swap2\n      pop\n      pop\n      jump\t// out\n        /* \"#utility.yul\":21750:22730   */\n    tag_253:\n        /* \"#utility.yul\":22022:22025   */\n      0x00\n        /* \"#utility.yul\":22037:22112   */\n      tag_775\n        /* \"#utility.yul\":22108:22111   */\n      dup3\n        /* \"#utility.yul\":22099:22105   */\n      dup10\n        /* \"#utility.yul\":22037:22112   */\n      tag_514\n      jump\t// in\n    tag_775:\n        /* \"#utility.yul\":22137:22139   */\n      0x20\n        /* \"#utility.yul\":22132:22135   */\n      dup3\n        /* \"#utility.yul\":22128:22140   */\n      add\n        /* \"#utility.yul\":22121:22140   */\n      swap2\n      pop\n        /* \"#utility.yul\":22150:22225   */\n      tag_776\n        /* \"#utility.yul\":22221:22224   */\n      dup3\n        /* \"#utility.yul\":22212:22218   */\n      dup9\n        /* \"#utility.yul\":22150:22225   */\n      tag_518\n      jump\t// in\n    tag_776:\n        /* \"#utility.yul\":22250:22252   */\n      0x14\n        /* \"#utility.yul\":22245:22248   */\n      dup3\n        /* \"#utility.yul\":22241:22253   */\n      add\n        /* \"#utility.yul\":22234:22253   */\n      swap2\n      pop\n        /* \"#utility.yul\":22263:22338   */\n      tag_777\n        /* \"#utility.yul\":22334:22337   */\n      dup3\n        /* \"#utility.yul\":22325:22331   */\n      dup8\n        /* \"#utility.yul\":22263:22338   */\n      tag_518\n      jump\t// in\n    tag_777:\n        /* \"#utility.yul\":22363:22365   */\n      0x14\n        /* \"#utility.yul\":22358:22361   */\n      dup3\n        /* \"#utility.yul\":22354:22366   */\n      add\n        /* \"#utility.yul\":22347:22366   */\n      swap2\n      pop\n        /* \"#utility.yul\":22376:22451   */\n      tag_778\n        /* \"#utility.yul\":22447:22450   */\n      dup3\n        /* \"#utility.yul\":22438:22444   */\n      dup7\n        /* \"#utility.yul\":22376:22451   */\n      tag_514\n      jump\t// in\n    tag_778:\n        /* \"#utility.yul\":22476:22478   */\n      0x20\n        /* \"#utility.yul\":22471:22474   */\n      dup3\n        /* \"#utility.yul\":22467:22479   */\n      add\n        /* \"#utility.yul\":22460:22479   */\n      swap2\n      pop\n        /* \"#utility.yul\":22489:22564   */\n      tag_779\n        /* \"#utility.yul\":22560:22563   */\n      dup3\n        /* \"#utility.yul\":22551:22557   */\n      dup6\n        /* \"#utility.yul\":22489:22564   */\n      tag_514\n      jump\t// in\n    tag_779:\n        /* \"#utility.yul\":22589:22591   */\n      0x20\n        /* \"#utility.yul\":22584:22587   */\n      dup3\n        /* \"#utility.yul\":22580:22592   */\n      add\n        /* \"#utility.yul\":22573:22592   */\n      swap2\n      pop\n        /* \"#utility.yul\":22609:22704   */\n      tag_780\n        /* \"#utility.yul\":22700:22703   */\n      dup3\n        /* \"#utility.yul\":22691:22697   */\n      dup5\n        /* \"#utility.yul\":22609:22704   */\n      tag_522\n      jump\t// in\n    tag_780:\n        /* \"#utility.yul\":22602:22704   */\n      swap2\n      pop\n        /* \"#utility.yul\":22721:22724   */\n      dup2\n        /* \"#utility.yul\":22714:22724   */\n      swap1\n      pop\n        /* \"#utility.yul\":21750:22730   */\n      swap8\n      swap7\n      pop\n      pop\n      pop\n      pop\n      pop\n      pop\n      pop\n      jump\t// out\n        /* \"#utility.yul\":22736:22913   */\n    tag_523:\n        /* \"#utility.yul\":22876:22905   */\n      0x4c75636b7942616c6c3a206578706972656420646561646c696e650000000000\n        /* \"#utility.yul\":22872:22873   */\n      0x00\n        /* \"#utility.yul\":22864:22870   */\n      dup3\n        /* \"#utility.yul\":22860:22874   */\n      add\n        /* \"#utility.yul\":22853:22906   */\n      mstore\n        /* \"#utility.yul\":22736:22913   */\n      pop\n      jump\t// out\n        /* \"#utility.yul\":22919:23285   */\n    tag_524:\n        /* \"#utility.yul\":23061:23064   */\n      0x00\n        /* \"#utility.yul\":23082:23149   */\n      tag_783\n        /* \"#utility.yul\":23146:23148   */\n      0x1b\n        /* \"#utility.yul\":23141:23144   */\n      dup4\n        /* \"#utility.yul\":23082:23149   */\n      tag_505\n      jump\t// in\n    tag_783:\n        /* \"#utility.yul\":23075:23149   */\n      swap2\n      pop\n        /* \"#utility.yul\":23158:23251   */\n      tag_784\n        /* \"#utility.yul\":23247:23250   */\n      dup3\n        /* \"#utility.yul\":23158:23251   */\n      tag_523\n      jump\t// in\n    tag_784:\n        /* \"#utility.yul\":23276:23278   */\n      0x20\n        /* \"#utility.yul\":23271:23274   */\n      dup3\n        /* \"#utility.yul\":23267:23279   */\n      add\n        /* \"#utility.yul\":23260:23279   */\n      swap1\n      pop\n        /* \"#utility.yul\":22919:23285   */\n      swap2\n      swap1\n      pop\n      jump\t// out\n        /* \"#utility.yul\":23291:23710   */\n    tag_270:\n        /* \"#utility.yul\":23457:23461   */\n      0x00\n        /* \"#utility.yul\":23495:23497   */\n      0x20\n        /* \"#utility.yul\":23484:23493   */\n      dup3\n        /* \"#utility.yul\":23480:23498   */\n      add\n        /* \"#utility.yul\":23472:23498   */\n      swap1\n      pop\n        /* \"#utility.yul\":23544:23553   */\n      dup2\n        /* \"#utility.yul\":23538:23542   */\n      dup2\n        /* \"#utility.yul\":23534:23554   */\n      sub\n        /* \"#utility.yul\":23530:23531   */\n      0x00\n        /* \"#utility.yul\":23519:23528   */\n      dup4\n        /* \"#utility.yul\":23515:23532   */\n      add\n        /* \"#utility.yul\":23508:23555   */\n      mstore\n        /* \"#utility.yul\":23572:23703   */\n      tag_786\n        /* \"#utility.yul\":23698:23702   */\n      dup2\n        /* \"#utility.yul\":23572:23703   */\n      tag_524\n      jump\t// in\n    tag_786:\n        /* \"#utility.yul\":23564:23703   */\n      swap1\n      pop\n        /* \"#utility.yul\":23291:23710   */\n      swap2\n      swap1\n      pop\n      jump\t// out\n        /* \"#utility.yul\":23716:23895   */\n    tag_525:\n        /* \"#utility.yul\":23856:23887   */\n      0x4c75636b7942616c6c3a2073696720646f6573206e6f74206d61746368000000\n        /* \"#utility.yul\":23852:23853   */\n      0x00\n        /* \"#utility.yul\":23844:23850   */\n      dup3\n        /* \"#utility.yul\":23840:23854   */\n      add\n        /* \"#utility.yul\":23833:23888   */\n      mstore\n        /* \"#utility.yul\":23716:23895   */\n      pop\n      jump\t// out\n        /* \"#utility.yul\":23901:24267   */\n    tag_526:\n        /* \"#utility.yul\":24043:24046   */\n      0x00\n        /* \"#utility.yul\":24064:24131   */\n      tag_789\n        /* \"#utility.yul\":24128:24130   */\n      0x1d\n        /* \"#utility.yul\":24123:24126   */\n      dup4\n        /* \"#utility.yul\":24064:24131   */\n      tag_505\n      jump\t// in\n    tag_789:\n        /* \"#utility.yul\":24057:24131   */\n      swap2\n      pop\n        /* \"#utility.yul\":24140:24233   */\n      tag_790\n        /* \"#utility.yul\":24229:24232   */\n      dup3\n        /* \"#utility.yul\":24140:24233   */\n      tag_525\n      jump\t// in\n    tag_790:\n        /* \"#utility.yul\":24258:24260   */\n      0x20\n        /* \"#utility.yul\":24253:24256   */\n      dup3\n        /* \"#utility.yul\":24249:24261   */\n      add\n        /* \"#utility.yul\":24242:24261   */\n      swap1\n      pop\n        /* \"#utility.yul\":23901:24267   */\n      swap2\n      swap1\n      pop\n      jump\t// out\n        /* \"#utility.yul\":24273:24692   */\n    tag_277:\n        /* \"#utility.yul\":24439:24443   */\n      0x00\n        /* \"#utility.yul\":24477:24479   */\n      0x20\n        /* \"#utility.yul\":24466:24475   */\n      dup3\n        /* \"#utility.yul\":24462:24480   */\n      add\n        /* \"#utility.yul\":24454:24480   */\n      swap1\n      pop\n        /* \"#utility.yul\":24526:24535   */\n      dup2\n        /* \"#utility.yul\":24520:24524   */\n      dup2\n        /* \"#utility.yul\":24516:24536   */\n      sub\n        /* \"#utility.yul\":24512:24513   */\n      0x00\n        /* \"#utility.yul\":24501:24510   */\n      dup4\n        /* \"#utility.yul\":24497:24514   */\n      add\n        /* \"#utility.yul\":24490:24537   */\n      mstore\n        /* \"#utility.yul\":24554:24685   */\n      tag_792\n        /* \"#utility.yul\":24680:24684   */\n      dup2\n        /* \"#utility.yul\":24554:24685   */\n      tag_526\n      jump\t// in\n    tag_792:\n        /* \"#utility.yul\":24546:24685   */\n      swap1\n      pop\n        /* \"#utility.yul\":24273:24692   */\n      swap2\n      swap1\n      pop\n      jump\t// out\n        /* \"#utility.yul\":24698:24810   */\n    tag_527:\n        /* \"#utility.yul\":24781:24803   */\n      tag_794\n        /* \"#utility.yul\":24797:24802   */\n      dup2\n        /* \"#utility.yul\":24781:24803   */\n      tag_493\n      jump\t// in\n    tag_794:\n        /* \"#utility.yul\":24776:24779   */\n      dup3\n        /* \"#utility.yul\":24769:24804   */\n      mstore\n        /* \"#utility.yul\":24698:24810   */\n      pop\n      pop\n      jump\t// out\n        /* \"#utility.yul\":24816:25361   */\n    tag_317:\n        /* \"#utility.yul\":24989:24993   */\n      0x00\n        /* \"#utility.yul\":25027:25030   */\n      0x80\n        /* \"#utility.yul\":25016:25025   */\n      dup3\n        /* \"#utility.yul\":25012:25031   */\n      add\n        /* \"#utility.yul\":25004:25031   */\n      swap1\n      pop\n        /* \"#utility.yul\":25041:25112   */\n      tag_796\n        /* \"#utility.yul\":25109:25110   */\n      0x00\n        /* \"#utility.yul\":25098:25107   */\n      dup4\n        /* \"#utility.yul\":25094:25111   */\n      add\n        /* \"#utility.yul\":25085:25091   */\n      dup8\n        /* \"#utility.yul\":25041:25112   */\n      tag_491\n      jump\t// in\n    tag_796:\n        /* \"#utility.yul\":25122:25190   */\n      tag_797\n        /* \"#utility.yul\":25186:25188   */\n      0x20\n        /* \"#utility.yul\":25175:25184   */\n      dup4\n        /* \"#utility.yul\":25171:25189   */\n      add\n        /* \"#utility.yul\":25162:25168   */\n      dup7\n        /* \"#utility.yul\":25122:25190   */\n      tag_527\n      jump\t// in\n    tag_797:\n        /* \"#utility.yul\":25200:25272   */\n      tag_798\n        /* \"#utility.yul\":25268:25270   */\n      0x40\n        /* \"#utility.yul\":25257:25266   */\n      dup4\n        /* \"#utility.yul\":25253:25271   */\n      add\n        /* \"#utility.yul\":25244:25250   */\n      dup6\n        /* \"#utility.yul\":25200:25272   */\n      tag_491\n      jump\t// in\n    tag_798:\n        /* \"#utility.yul\":25282:25354   */\n      tag_799\n        /* \"#utility.yul\":25350:25352   */\n      0x60\n        /* \"#utility.yul\":25339:25348   */\n      dup4\n        /* \"#utility.yul\":25335:25353   */\n      add\n        /* \"#utility.yul\":25326:25332   */\n      dup5\n        /* \"#utility.yul\":25282:25354   */\n      tag_491\n      jump\t// in\n    tag_799:\n        /* \"#utility.yul\":24816:25361   */\n      swap6\n      swap5\n      pop\n      pop\n      pop\n      pop\n      pop\n      jump\t// out\n        /* \"#utility.yul\":25367:25764   */\n    tag_342:\n        /* \"#utility.yul\":25507:25510   */\n      0x00\n        /* \"#utility.yul\":25522:25597   */\n      tag_801\n        /* \"#utility.yul\":25593:25596   */\n      dup3\n        /* \"#utility.yul\":25584:25590   */\n      dup6\n        /* \"#utility.yul\":25522:25597   */\n      tag_514\n      jump\t// in\n    tag_801:\n        /* \"#utility.yul\":25622:25624   */\n      0x20\n        /* \"#utility.yul\":25617:25620   */\n      dup3\n        /* \"#utility.yul\":25613:25625   */\n      add\n        /* \"#utility.yul\":25606:25625   */\n      swap2\n      pop\n        /* \"#utility.yul\":25635:25710   */\n      tag_802\n        /* \"#utility.yul\":25706:25709   */\n      dup3\n        /* \"#utility.yul\":25697:25703   */\n      dup5\n        /* \"#utility.yul\":25635:25710   */\n      tag_514\n      jump\t// in\n    tag_802:\n        /* \"#utility.yul\":25735:25737   */\n      0x20\n        /* \"#utility.yul\":25730:25733   */\n      dup3\n        /* \"#utility.yul\":25726:25738   */\n      add\n        /* \"#utility.yul\":25719:25738   */\n      swap2\n      pop\n        /* \"#utility.yul\":25755:25758   */\n      dup2\n        /* \"#utility.yul\":25748:25758   */\n      swap1\n      pop\n        /* \"#utility.yul\":25367:25764   */\n      swap4\n      swap3\n      pop\n      pop\n      pop\n      jump\t// out\n        /* \"#utility.yul\":25770:25990   */\n    tag_528:\n        /* \"#utility.yul\":25910:25944   */\n      0x4c75636b7942616c6c3a2062616c6c4964206973206f7574206f662072616e67\n        /* \"#utility.yul\":25906:25907   */\n      0x00\n        /* \"#utility.yul\":25898:25904   */\n      dup3\n        /* \"#utility.yul\":25894:25908   */\n      add\n        /* \"#utility.yul\":25887:25945   */\n      mstore\n        /* \"#utility.yul\":25979:25982   */\n      0x6500000000000000000000000000000000000000000000000000000000000000\n        /* \"#utility.yul\":25974:25976   */\n      0x20\n        /* \"#utility.yul\":25966:25972   */\n      dup3\n        /* \"#utility.yul\":25962:25977   */\n      add\n        /* \"#utility.yul\":25955:25983   */\n      mstore\n        /* \"#utility.yul\":25770:25990   */\n      pop\n      jump\t// out\n        /* \"#utility.yul\":25996:26362   */\n    tag_529:\n        /* \"#utility.yul\":26138:26141   */\n      0x00\n        /* \"#utility.yul\":26159:26226   */\n      tag_805\n        /* \"#utility.yul\":26223:26225   */\n      0x21\n        /* \"#utility.yul\":26218:26221   */\n      dup4\n        /* \"#utility.yul\":26159:26226   */\n      tag_505\n      jump\t// in\n    tag_805:\n        /* \"#utility.yul\":26152:26226   */\n      swap2\n      pop\n        /* \"#utility.yul\":26235:26328   */\n      tag_806\n        /* \"#utility.yul\":26324:26327   */\n      dup3\n        /* \"#utility.yul\":26235:26328   */\n      tag_528\n      jump\t// in\n    tag_806:\n        /* \"#utility.yul\":26353:26355   */\n      0x40\n        /* \"#utility.yul\":26348:26351   */\n      dup3\n        /* \"#utility.yul\":26344:26356   */\n      add\n        /* \"#utility.yul\":26337:26356   */\n      swap1\n      pop\n        /* \"#utility.yul\":25996:26362   */\n      swap2\n      swap1\n      pop\n      jump\t// out\n        /* \"#utility.yul\":26368:26787   */\n    tag_349:\n        /* \"#utility.yul\":26534:26538   */\n      0x00\n        /* \"#utility.yul\":26572:26574   */\n      0x20\n        /* \"#utility.yul\":26561:26570   */\n      dup3\n        /* \"#utility.yul\":26557:26575   */\n      add\n        /* \"#utility.yul\":26549:26575   */\n      swap1\n      pop\n        /* \"#utility.yul\":26621:26630   */\n      dup2\n        /* \"#utility.yul\":26615:26619   */\n      dup2\n        /* \"#utility.yul\":26611:26631   */\n      sub\n        /* \"#utility.yul\":26607:26608   */\n      0x00\n        /* \"#utility.yul\":26596:26605   */\n      dup4\n        /* \"#utility.yul\":26592:26609   */\n      add\n        /* \"#utility.yul\":26585:26632   */\n      mstore\n        /* \"#utility.yul\":26649:26780   */\n      tag_808\n        /* \"#utility.yul\":26775:26779   */\n      dup2\n        /* \"#utility.yul\":26649:26780   */\n      tag_529\n      jump\t// in\n    tag_808:\n        /* \"#utility.yul\":26641:26780   */\n      swap1\n      pop\n        /* \"#utility.yul\":26368:26787   */\n      swap2\n      swap1\n      pop\n      jump\t// out\n        /* \"#utility.yul\":26793:26967   */\n    tag_530:\n        /* \"#utility.yul\":26933:26959   */\n      0x4c75636b42616c6c3a204e6f2062616c6c206973737565640000000000000000\n        /* \"#utility.yul\":26929:26930   */\n      0x00\n        /* \"#utility.yul\":26921:26927   */\n      dup3\n        /* \"#utility.yul\":26917:26931   */\n      add\n        /* \"#utility.yul\":26910:26960   */\n      mstore\n        /* \"#utility.yul\":26793:26967   */\n      pop\n      jump\t// out\n        /* \"#utility.yul\":26973:27339   */\n    tag_531:\n        /* \"#utility.yul\":27115:27118   */\n      0x00\n        /* \"#utility.yul\":27136:27203   */\n      tag_811\n        /* \"#utility.yul\":27200:27202   */\n      0x18\n        /* \"#utility.yul\":27195:27198   */\n      dup4\n        /* \"#utility.yul\":27136:27203   */\n      tag_505\n      jump\t// in\n    tag_811:\n        /* \"#utility.yul\":27129:27203   */\n      swap2\n      pop\n        /* \"#utility.yul\":27212:27305   */\n      tag_812\n        /* \"#utility.yul\":27301:27304   */\n      dup3\n        /* \"#utility.yul\":27212:27305   */\n      tag_530\n      jump\t// in\n    tag_812:\n        /* \"#utility.yul\":27330:27332   */\n      0x20\n        /* \"#utility.yul\":27325:27328   */\n      dup3\n        /* \"#utility.yul\":27321:27333   */\n      add\n        /* \"#utility.yul\":27314:27333   */\n      swap1\n      pop\n        /* \"#utility.yul\":26973:27339   */\n      swap2\n      swap1\n      pop\n      jump\t// out\n        /* \"#utility.yul\":27345:27764   */\n    tag_352:\n        /* \"#utility.yul\":27511:27515   */\n      0x00\n        /* \"#utility.yul\":27549:27551   */\n      0x20\n        /* \"#utility.yul\":27538:27547   */\n      dup3\n        /* \"#utility.yul\":27534:27552   */\n      add\n        /* \"#utility.yul\":27526:27552   */\n      swap1\n      pop\n        /* \"#utility.yul\":27598:27607   */\n      dup2\n        /* \"#utility.yul\":27592:27596   */\n      dup2\n        /* \"#utility.yul\":27588:27608   */\n      sub\n        /* \"#utility.yul\":27584:27585   */\n      0x00\n        /* \"#utility.yul\":27573:27582   */\n      dup4\n        /* \"#utility.yul\":27569:27586   */\n      add\n        /* \"#utility.yul\":27562:27609   */\n      mstore\n        /* \"#utility.yul\":27626:27757   */\n      tag_814\n        /* \"#utility.yul\":27752:27756   */\n      dup2\n        /* \"#utility.yul\":27626:27757   */\n      tag_531\n      jump\t// in\n    tag_814:\n        /* \"#utility.yul\":27618:27757   */\n      swap1\n      pop\n        /* \"#utility.yul\":27345:27764   */\n      swap2\n      swap1\n      pop\n      jump\t// out\n        /* \"#utility.yul\":27770:27941   */\n    tag_370:\n        /* \"#utility.yul\":27809:27812   */\n      0x00\n        /* \"#utility.yul\":27832:27856   */\n      tag_816\n        /* \"#utility.yul\":27850:27855   */\n      dup3\n        /* \"#utility.yul\":27832:27856   */\n      tag_467\n      jump\t// in\n    tag_816:\n        /* \"#utility.yul\":27823:27856   */\n      swap2\n      pop\n        /* \"#utility.yul\":27878:27882   */\n      0x00\n        /* \"#utility.yul\":27871:27876   */\n      dup3\n        /* \"#utility.yul\":27868:27883   */\n      sub\n        /* \"#utility.yul\":27865:27906   */\n      tag_817\n      jumpi\n        /* \"#utility.yul\":27886:27904   */\n      tag_818\n      tag_512\n      jump\t// in\n    tag_818:\n        /* \"#utility.yul\":27865:27906   */\n    tag_817:\n        /* \"#utility.yul\":27933:27934   */\n      0x01\n        /* \"#utility.yul\":27926:27931   */\n      dup3\n        /* \"#utility.yul\":27922:27935   */\n      sub\n        /* \"#utility.yul\":27915:27935   */\n      swap1\n      pop\n        /* \"#utility.yul\":27770:27941   */\n      swap2\n      swap1\n      pop\n      jump\t// out\n        /* \"#utility.yul\":27947:28116   */\n    tag_532:\n        /* \"#utility.yul\":28087:28108   */\n      0x42616c6c4964206973206e6f7420666f756e6400000000000000000000000000\n        /* \"#utility.yul\":28083:28084   */\n      0x00\n        /* \"#utility.yul\":28075:28081   */\n      dup3\n        /* \"#utility.yul\":28071:28085   */\n      add\n        /* \"#utility.yul\":28064:28109   */\n      mstore\n        /* \"#utility.yul\":27947:28116   */\n      pop\n      jump\t// out\n        /* \"#utility.yul\":28122:28488   */\n    tag_533:\n        /* \"#utility.yul\":28264:28267   */\n      0x00\n        /* \"#utility.yul\":28285:28352   */\n      tag_821\n        /* \"#utility.yul\":28349:28351   */\n      0x13\n        /* \"#utility.yul\":28344:28347   */\n      dup4\n        /* \"#utility.yul\":28285:28352   */\n      tag_505\n      jump\t// in\n    tag_821:\n        /* \"#utility.yul\":28278:28352   */\n      swap2\n      pop\n        /* \"#utility.yul\":28361:28454   */\n      tag_822\n        /* \"#utility.yul\":28450:28453   */\n      dup3\n        /* \"#utility.yul\":28361:28454   */\n      tag_532\n      jump\t// in\n    tag_822:\n        /* \"#utility.yul\":28479:28481   */\n      0x20\n        /* \"#utility.yul\":28474:28477   */\n      dup3\n        /* \"#utility.yul\":28470:28482   */\n      add\n        /* \"#utility.yul\":28463:28482   */\n      swap1\n      pop\n        /* \"#utility.yul\":28122:28488   */\n      swap2\n      swap1\n      pop\n      jump\t// out\n        /* \"#utility.yul\":28494:28913   */\n    tag_372:\n        /* \"#utility.yul\":28660:28664   */\n      0x00\n        /* \"#utility.yul\":28698:28700   */\n      0x20\n        /* \"#utility.yul\":28687:28696   */\n      dup3\n        /* \"#utility.yul\":28683:28701   */\n      add\n        /* \"#utility.yul\":28675:28701   */\n      swap1\n      pop\n        /* \"#utility.yul\":28747:28756   */\n      dup2\n        /* \"#utility.yul\":28741:28745   */\n      dup2\n        /* \"#utility.yul\":28737:28757   */\n      sub\n        /* \"#utility.yul\":28733:28734   */\n      0x00\n        /* \"#utility.yul\":28722:28731   */\n      dup4\n        /* \"#utility.yul\":28718:28735   */\n      add\n        /* \"#utility.yul\":28711:28758   */\n      mstore\n        /* \"#utility.yul\":28775:28906   */\n      tag_824\n        /* \"#utility.yul\":28901:28905   */\n      dup2\n        /* \"#utility.yul\":28775:28906   */\n      tag_533\n      jump\t// in\n    tag_824:\n        /* \"#utility.yul\":28767:28906   */\n      swap1\n      pop\n        /* \"#utility.yul\":28494:28913   */\n      swap2\n      swap1\n      pop\n      jump\t// out\n        /* \"#utility.yul\":28919:29099   */\n    tag_534:\n        /* \"#utility.yul\":28967:29044   */\n      0x4e487b7100000000000000000000000000000000000000000000000000000000\n        /* \"#utility.yul\":28964:28965   */\n      0x00\n        /* \"#utility.yul\":28957:29045   */\n      mstore\n        /* \"#utility.yul\":29064:29068   */\n      0x12\n        /* \"#utility.yul\":29061:29062   */\n      0x04\n        /* \"#utility.yul\":29054:29069   */\n      mstore\n        /* \"#utility.yul\":29088:29092   */\n      0x24\n        /* \"#utility.yul\":29085:29086   */\n      0x00\n        /* \"#utility.yul\":29078:29093   */\n      revert\n        /* \"#utility.yul\":29105:29281   */\n    tag_375:\n        /* \"#utility.yul\":29137:29138   */\n      0x00\n        /* \"#utility.yul\":29154:29174   */\n      tag_827\n        /* \"#utility.yul\":29172:29173   */\n      dup3\n        /* \"#utility.yul\":29154:29174   */\n      tag_467\n      jump\t// in\n    tag_827:\n        /* \"#utility.yul\":29149:29174   */\n      swap2\n      pop\n        /* \"#utility.yul\":29188:29208   */\n      tag_828\n        /* \"#utility.yul\":29206:29207   */\n      dup4\n        /* \"#utility.yul\":29188:29208   */\n      tag_467\n      jump\t// in\n    tag_828:\n        /* \"#utility.yul\":29183:29208   */\n      swap3\n      pop\n        /* \"#utility.yul\":29227:29228   */\n      dup3\n        /* \"#utility.yul\":29217:29252   */\n      tag_829\n      jumpi\n        /* \"#utility.yul\":29232:29250   */\n      tag_830\n      tag_534\n      jump\t// in\n    tag_830:\n        /* \"#utility.yul\":29217:29252   */\n    tag_829:\n        /* \"#utility.yul\":29273:29274   */\n      dup3\n        /* \"#utility.yul\":29270:29271   */\n      dup3\n        /* \"#utility.yul\":29266:29275   */\n      mod\n        /* \"#utility.yul\":29261:29275   */\n      swap1\n      pop\n        /* \"#utility.yul\":29105:29281   */\n      swap3\n      swap2\n      pop\n      pop\n      jump\t// out\n        /* \"#utility.yul\":29287:29374   */\n    tag_535:\n        /* \"#utility.yul\":29334:29341   */\n      0x00\n        /* \"#utility.yul\":29363:29368   */\n      dup2\n        /* \"#utility.yul\":29352:29368   */\n      swap1\n      pop\n        /* \"#utility.yul\":29287:29374   */\n      swap2\n      swap1\n      pop\n      jump\t// out\n        /* \"#utility.yul\":29380:29440   */\n    tag_536:\n        /* \"#utility.yul\":29408:29411   */\n      0x00\n        /* \"#utility.yul\":29429:29434   */\n      dup2\n        /* \"#utility.yul\":29422:29434   */\n      swap1\n      pop\n        /* \"#utility.yul\":29380:29440   */\n      swap2\n      swap1\n      pop\n      jump\t// out\n        /* \"#utility.yul\":29446:29608   */\n    tag_537:\n        /* \"#utility.yul\":29506:29515   */\n      0x00\n        /* \"#utility.yul\":29539:29602   */\n      tag_834\n        /* \"#utility.yul\":29557:29601   */\n      tag_835\n        /* \"#utility.yul\":29566:29600   */\n      tag_836\n        /* \"#utility.yul\":29594:29599   */\n      dup5\n        /* \"#utility.yul\":29566:29600   */\n      tag_535\n      jump\t// in\n    tag_836:\n        /* \"#utility.yul\":29557:29601   */\n      tag_536\n      jump\t// in\n    tag_835:\n        /* \"#utility.yul\":29539:29602   */\n      tag_467\n      jump\t// in\n    tag_834:\n        /* \"#utility.yul\":29526:29602   */\n      swap1\n      pop\n        /* \"#utility.yul\":29446:29608   */\n      swap2\n      swap1\n      pop\n      jump\t// out\n        /* \"#utility.yul\":29614:29765   */\n    tag_538:\n        /* \"#utility.yul\":29711:29758   */\n      tag_838\n        /* \"#utility.yul\":29752:29757   */\n      dup2\n        /* \"#utility.yul\":29711:29758   */\n      tag_537\n      jump\t// in\n    tag_838:\n        /* \"#utility.yul\":29706:29709   */\n      dup3\n        /* \"#utility.yul\":29699:29759   */\n      mstore\n        /* \"#utility.yul\":29614:29765   */\n      pop\n      pop\n      jump\t// out\n        /* \"#utility.yul\":29771:30123   */\n    tag_388:\n        /* \"#utility.yul\":29902:29906   */\n      0x00\n        /* \"#utility.yul\":29940:29942   */\n      0x40\n        /* \"#utility.yul\":29929:29938   */\n      dup3\n        /* \"#utility.yul\":29925:29943   */\n      add\n        /* \"#utility.yul\":29917:29943   */\n      swap1\n      pop\n        /* \"#utility.yul\":29953:30024   */\n      tag_840\n        /* \"#utility.yul\":30021:30022   */\n      0x00\n        /* \"#utility.yul\":30010:30019   */\n      dup4\n        /* \"#utility.yul\":30006:30023   */\n      add\n        /* \"#utility.yul\":29997:30003   */\n      dup6\n        /* \"#utility.yul\":29953:30024   */\n      tag_492\n      jump\t// in\n    tag_840:\n        /* \"#utility.yul\":30034:30116   */\n      tag_841\n        /* \"#utility.yul\":30112:30114   */\n      0x20\n        /* \"#utility.yul\":30101:30110   */\n      dup4\n        /* \"#utility.yul\":30097:30115   */\n      add\n        /* \"#utility.yul\":30088:30094   */\n      dup5\n        /* \"#utility.yul\":30034:30116   */\n      tag_538\n      jump\t// in\n    tag_841:\n        /* \"#utility.yul\":29771:30123   */\n      swap4\n      swap3\n      pop\n      pop\n      pop\n      jump\t// out\n        /* \"#utility.yul\":30129:30354   */\n    tag_539:\n        /* \"#utility.yul\":30269:30303   */\n      0x4f776e61626c653a206e6577206f776e657220697320746865207a65726f2061\n        /* \"#utility.yul\":30265:30266   */\n      0x00\n        /* \"#utility.yul\":30257:30263   */\n      dup3\n        /* \"#utility.yul\":30253:30267   */\n      add\n        /* \"#utility.yul\":30246:30304   */\n      mstore\n        /* \"#utility.yul\":30338:30346   */\n      0x6464726573730000000000000000000000000000000000000000000000000000\n        /* \"#utility.yul\":30333:30335   */\n      0x20\n        /* \"#utility.yul\":30325:30331   */\n      dup3\n        /* \"#utility.yul\":30321:30336   */\n      add\n        /* \"#utility.yul\":30314:30347   */\n      mstore\n        /* \"#utility.yul\":30129:30354   */\n      pop\n      jump\t// out\n        /* \"#utility.yul\":30360:30726   */\n    tag_540:\n        /* \"#utility.yul\":30502:30505   */\n      0x00\n        /* \"#utility.yul\":30523:30590   */\n      tag_844\n        /* \"#utility.yul\":30587:30589   */\n      0x26\n        /* \"#utility.yul\":30582:30585   */\n      dup4\n        /* \"#utility.yul\":30523:30590   */\n      tag_505\n      jump\t// in\n    tag_844:\n        /* \"#utility.yul\":30516:30590   */\n      swap2\n      pop\n        /* \"#utility.yul\":30599:30692   */\n      tag_845\n        /* \"#utility.yul\":30688:30691   */\n      dup3\n        /* \"#utility.yul\":30599:30692   */\n      tag_539\n      jump\t// in\n    tag_845:\n        /* \"#utility.yul\":30717:30719   */\n      0x40\n        /* \"#utility.yul\":30712:30715   */\n      dup3\n        /* \"#utility.yul\":30708:30720   */\n      add\n        /* \"#utility.yul\":30701:30720   */\n      swap1\n      pop\n        /* \"#utility.yul\":30360:30726   */\n      swap2\n      swap1\n      pop\n      jump\t// out\n        /* \"#utility.yul\":30732:31151   */\n    tag_398:\n        /* \"#utility.yul\":30898:30902   */\n      0x00\n        /* \"#utility.yul\":30936:30938   */\n      0x20\n        /* \"#utility.yul\":30925:30934   */\n      dup3\n        /* \"#utility.yul\":30921:30939   */\n      add\n        /* \"#utility.yul\":30913:30939   */\n      swap1\n      pop\n        /* \"#utility.yul\":30985:30994   */\n      dup2\n        /* \"#utility.yul\":30979:30983   */\n      dup2\n        /* \"#utility.yul\":30975:30995   */\n      sub\n        /* \"#utility.yul\":30971:30972   */\n      0x00\n        /* \"#utility.yul\":30960:30969   */\n      dup4\n        /* \"#utility.yul\":30956:30973   */\n      add\n        /* \"#utility.yul\":30949:30996   */\n      mstore\n        /* \"#utility.yul\":31013:31144   */\n      tag_847\n        /* \"#utility.yul\":31139:31143   */\n      dup2\n        /* \"#utility.yul\":31013:31144   */\n      tag_540\n      jump\t// in\n    tag_847:\n        /* \"#utility.yul\":31005:31144   */\n      swap1\n      pop\n        /* \"#utility.yul\":30732:31151   */\n      swap2\n      swap1\n      pop\n      jump\t// out\n        /* \"#utility.yul\":31157:31339   */\n    tag_541:\n        /* \"#utility.yul\":31297:31331   */\n      0x4f776e61626c653a2063616c6c6572206973206e6f7420746865206f776e6572\n        /* \"#utility.yul\":31293:31294   */\n      0x00\n        /* \"#utility.yul\":31285:31291   */\n      dup3\n        /* \"#utility.yul\":31281:31295   */\n      add\n        /* \"#utility.yul\":31274:31332   */\n      mstore\n        /* \"#utility.yul\":31157:31339   */\n      pop\n      jump\t// out\n        /* \"#utility.yul\":31345:31711   */\n    tag_542:\n        /* \"#utility.yul\":31487:31490   */\n      0x00\n        /* \"#utility.yul\":31508:31575   */\n      tag_850\n        /* \"#utility.yul\":31572:31574   */\n      0x20\n        /* \"#utility.yul\":31567:31570   */\n      dup4\n        /* \"#utility.yul\":31508:31575   */\n      tag_505\n      jump\t// in\n    tag_850:\n        /* \"#utility.yul\":31501:31575   */\n      swap2\n      pop\n        /* \"#utility.yul\":31584:31677   */\n      tag_851\n        /* \"#utility.yul\":31673:31676   */\n      dup3\n        /* \"#utility.yul\":31584:31677   */\n      tag_541\n      jump\t// in\n    tag_851:\n        /* \"#utility.yul\":31702:31704   */\n      0x20\n        /* \"#utility.yul\":31697:31700   */\n      dup3\n        /* \"#utility.yul\":31693:31705   */\n      add\n        /* \"#utility.yul\":31686:31705   */\n      swap1\n      pop\n        /* \"#utility.yul\":31345:31711   */\n      swap2\n      swap1\n      pop\n      jump\t// out\n        /* \"#utility.yul\":31717:32136   */\n    tag_457:\n        /* \"#utility.yul\":31883:31887   */\n      0x00\n        /* \"#utility.yul\":31921:31923   */\n      0x20\n        /* \"#utility.yul\":31910:31919   */\n      dup3\n        /* \"#utility.yul\":31906:31924   */\n      add\n        /* \"#utility.yul\":31898:31924   */\n      swap1\n      pop\n        /* \"#utility.yul\":31970:31979   */\n      dup2\n        /* \"#utility.yul\":31964:31968   */\n      dup2\n        /* \"#utility.yul\":31960:31980   */\n      sub\n        /* \"#utility.yul\":31956:31957   */\n      0x00\n        /* \"#utility.yul\":31945:31954   */\n      dup4\n        /* \"#utility.yul\":31941:31958   */\n      add\n        /* \"#utility.yul\":31934:31981   */\n      mstore\n        /* \"#utility.yul\":31998:32129   */\n      tag_853\n        /* \"#utility.yul\":32124:32128   */\n      dup2\n        /* \"#utility.yul\":31998:32129   */\n      tag_542\n      jump\t// in\n    tag_853:\n        /* \"#utility.yul\":31990:32129   */\n      swap1\n      pop\n        /* \"#utility.yul\":31717:32136   */\n      swap2\n      swap1\n      pop\n      jump\t// out\n        /* \"#utility.yul\":32142:32221   */\n    tag_543:\n        /* \"#utility.yul\":32181:32188   */\n      0x00\n        /* \"#utility.yul\":32210:32215   */\n      dup2\n        /* \"#utility.yul\":32199:32215   */\n      swap1\n      pop\n        /* \"#utility.yul\":32142:32221   */\n      swap2\n      swap1\n      pop\n      jump\t// out\n        /* \"#utility.yul\":32227:32384   */\n    tag_544:\n        /* \"#utility.yul\":32332:32377   */\n      tag_856\n        /* \"#utility.yul\":32352:32376   */\n      tag_857\n        /* \"#utility.yul\":32370:32375   */\n      dup3\n        /* \"#utility.yul\":32352:32376   */\n      tag_490\n      jump\t// in\n    tag_857:\n        /* \"#utility.yul\":32332:32377   */\n      tag_543\n      jump\t// in\n    tag_856:\n        /* \"#utility.yul\":32327:32330   */\n      dup3\n        /* \"#utility.yul\":32320:32378   */\n      mstore\n        /* \"#utility.yul\":32227:32384   */\n      pop\n      pop\n      jump\t// out\n        /* \"#utility.yul\":32390:32787   */\n    tag_463:\n        /* \"#utility.yul\":32530:32533   */\n      0x00\n        /* \"#utility.yul\":32545:32620   */\n      tag_859\n        /* \"#utility.yul\":32616:32619   */\n      dup3\n        /* \"#utility.yul\":32607:32613   */\n      dup6\n        /* \"#utility.yul\":32545:32620   */\n      tag_544\n      jump\t// in\n    tag_859:\n        /* \"#utility.yul\":32645:32647   */\n      0x20\n        /* \"#utility.yul\":32640:32643   */\n      dup3\n        /* \"#utility.yul\":32636:32648   */\n      add\n        /* \"#utility.yul\":32629:32648   */\n      swap2\n      pop\n        /* \"#utility.yul\":32658:32733   */\n      tag_860\n        /* \"#utility.yul\":32729:32732   */\n      dup3\n        /* \"#utility.yul\":32720:32726   */\n      dup5\n        /* \"#utility.yul\":32658:32733   */\n      tag_514\n      jump\t// in\n    tag_860:\n        /* \"#utility.yul\":32758:32760   */\n      0x20\n        /* \"#utility.yul\":32753:32756   */\n      dup3\n        /* \"#utility.yul\":32749:32761   */\n      add\n        /* \"#utility.yul\":32742:32761   */\n      swap2\n      pop\n        /* \"#utility.yul\":32778:32781   */\n      dup2\n        /* \"#utility.yul\":32771:32781   */\n      swap1\n      pop\n        /* \"#utility.yul\":32390:32787   */\n      swap4\n      swap3\n      pop\n      pop\n      pop\n      jump\t// out\n\n    auxdata: 0xa26469706673582212203f1dfe7f1dbdc6a74149fb314d3f5dd17da7eb230837135ad33f4a6cf92f5ccb64736f6c63430008140033\n}\n",
				"bytecode": {
					"linkReferences": {},
					"object": "60806040525f600460146101000a81548160ff0219169083151502179055505f6007553480156200002e575f80fd5b506200004f62000043620000bd60201b60201c565b620000c460201b60201c565b60035f8154809291906200006390620001e2565b9190505550620000786200018560201b60201c565b60045f6101000a81548173ffffffffffffffffffffffffffffffffffffffff021916908373ffffffffffffffffffffffffffffffffffffffff1602179055506200022e565b5f33905090565b5f805f9054906101000a900473ffffffffffffffffffffffffffffffffffffffff169050815f806101000a81548173ffffffffffffffffffffffffffffffffffffffff021916908373ffffffffffffffffffffffffffffffffffffffff1602179055508173ffffffffffffffffffffffffffffffffffffffff168173ffffffffffffffffffffffffffffffffffffffff167f8be0079c531659141344cd1fd0a4f28419497f9722a3daafe3b4186f6b6457e060405160405180910390a35050565b5f805f9054906101000a900473ffffffffffffffffffffffffffffffffffffffff16905090565b7f4e487b71000000000000000000000000000000000000000000000000000000005f52601160045260245ffd5b5f819050919050565b5f620001ee82620001d9565b91507fffffffffffffffffffffffffffffffffffffffffffffffffffffffffffffffff8203620002235762000222620001ac565b5b600182019050919050565b6130da806200023c5f395ff3fe608060405234801561000f575f80fd5b5060043610610230575f3560e01c8063990366d41161012e578063c6b98e04116100b6578063df6c83331161007a578063df6c833314610740578063df6fba1d14610770578063f2fde38b1461078e578063f5d709a1146107aa578063fe675307146107de57610230565b8063c6b98e0414610676578063d3ba6f34146106a6578063d530f1b4146106d6578063d6c38c7f14610706578063d8601c0f1461073657610230565b8063b07870b5116100fd578063b07870b5146105aa578063b20aaaf5146105c8578063b29e60ef146105f8578063b3ab15fb14610628578063c419857f1461065857610230565b8063990366d41461050e5780639ceaddc91461053e5780639d3b6d971461055c5780639d3db7db1461058c57610230565b80633822aea4116101bc5780637ecebe00116101805780637ecebe00146104545780638504a01a146104845780638c73da19146104b45780638da5cb5b146104d2578063952a9633146104f057610230565b80633822aea41461039c5780633dcdb672146103cc5780635f4f79bb146103ea5780636352211e1461041a578063715018a61461044a57610230565b80631345774e116102035780631345774e146102d057806322f3e2d4146103005780632e0ec88f1461031e5780632ffb84dd1461034e5780633408e4701461037e57610230565b806304b1b2c2146102345780630841ba30146102645780630e75a71f146102825780631022889c146102a0575b5f80fd5b61024e6004803603810190610249919061202e565b61080e565b60405161025b9190612068565b60405180910390f35b61026c610823565b6040516102799190612068565b60405180910390f35b61028a61082f565b604051610297919061209b565b60405180910390f35b6102ba60048036038101906102b5919061216a565b610863565b6040516102c7919061209b565b60405180910390f35b6102ea60048036038101906102e5919061237a565b610c7b565b6040516102f79190612437565b60405180910390f35b610308610cb9565b604051610315919061209b565b60405180910390f35b6103386004803603810190610333919061202e565b610ccc565b604051610345919061209b565b60405180910390f35b61036860048036038101906103639190612450565b610d8c565b6040516103759190612068565b60405180910390f35b610386610da1565b6040516103939190612068565b60405180910390f35b6103b660048036038101906103b1919061202e565b610dad565b6040516103c3919061248a565b60405180910390f35b6103d4610de8565b6040516103e1919061209b565b60405180910390f35b61040460048036038101906103ff9190612503565b610e2a565b604051610411919061209b565b60405180910390f35b610434600480360381019061042f919061202e565b610fb0565b604051610441919061248a565b60405180910390f35b610452611053565b005b61046e60048036038101906104699190612450565b611066565b60405161047b9190612068565b60405180910390f35b61049e6004803603810190610499919061257a565b6110ac565b6040516104ab9190612068565b60405180910390f35b6104bc6110e2565b6040516104c99190612068565b60405180910390f35b6104da6110eb565b6040516104e7919061248a565b60405180910390f35b6104f8611112565b6040516105059190612068565b60405180910390f35b610528600480360381019061052391906125ca565b61124b565b604051610535919061209b565b60405180910390f35b6105466112d1565b6040516105539190612068565b60405180910390f35b6105766004803603810190610571919061202e565b6112d7565b604051610583919061209b565b60405180910390f35b6105946113ab565b6040516105a19190612068565b60405180910390f35b6105b26113b4565b6040516105bf919061209b565b60405180910390f35b6105e260048036038101906105dd919061202e565b6113ca565b6040516105ef9190612068565b60405180910390f35b610612600480360381019061060d919061202e565b6113ea565b60405161061f9190612068565b60405180910390f35b610642600480360381019061063d9190612450565b6113ff565b60405161064f919061209b565b60405180910390f35b610660611451565b60405161066d919061209b565b60405180910390f35b610690600480360381019061068b919061202e565b611459565b60405161069d9190612068565b60405180910390f35b6106c060048036038101906106bb919061202e565b6114c4565b6040516106cd9190612068565b60405180910390f35b6106f060048036038101906106eb919061202e565b6114e6565b6040516106fd9190612068565b60405180910390f35b610720600480360381019061071b919061202e565b61167a565b60405161072d9190612068565b60405180910390f35b61073e6116b3565b005b61075a60048036038101906107559190612641565b61189b565b6040516107679190612068565b60405180910390f35b6107786118bb565b6040516107859190612736565b60405180910390f35b6107a860048036038101906107a39190612450565b6118da565b005b6107c460048036038101906107bf919061202e565b61195c565b6040516107d5959493929190612756565b60405180910390f35b6107f860048036038101906107f39190612641565b61198e565b6040516108059190612736565b60405180910390f35b600b602052805f5260405f205f915090505481565b5f600580549050905090565b5f8060095f61083c6110e2565b81526020019081526020015f2060030154111561085b575f9050610860565b600190505b90565b5f61086c611c6d565b73ffffffffffffffffffffffffffffffffffffffff1660045f9054906101000a900473ffffffffffffffffffffffffffffffffffffffff1673ffffffffffffffffffffffffffffffffffffffff16146108fa576040517f08c379a00000000000000000000000000000000000000000000000000000000081526004016108f190612827565b60405180910390fd5b828290508585905014610942576040517f08c379a0000000000000000000000000000000000000000000000000000000008152600401610939906128b5565b60405180910390fd5b5f5b85859050811015610c6e575f848483818110610963576109626128d3565b5b90506020020135116109aa576040517f08c379a00000000000000000000000000000000000000000000000000000000081526004016109a190612970565b60405180910390fd5b8383828181106109bd576109bc6128d3565b5b9050602002013560075f8282546109d491906129bb565b925050819055506005600754908060018154018082558091505060019003905f5260205f20015f90919091909150556006868683818110610a1857610a176128d3565b5b9050602002016020810190610a2d9190612450565b908060018154018082558091505060019003905f5260205f20015f9091909190916101000a81548173ffffffffffffffffffffffffffffffffffffffff021916908373ffffffffffffffffffffffffffffffffffffffff160217905550600a5f878784818110610aa057610a9f6128d3565b5b9050602002016020810190610ab59190612450565b73ffffffffffffffffffffffffffffffffffffffff1673ffffffffffffffffffffffffffffffffffffffff1681526020019081526020015f205f610af76110e2565b81526020019081526020015f206001600580549050610b1691906129ee565b908060018154018082558091505060019003905f5260205f20015f9091909190915055838382818110610b4c57610b4b6128d3565b5b90506020020135600e5f888885818110610b6957610b686128d3565b5b9050602002016020810190610b7e9190612450565b73ffffffffffffffffffffffffffffffffffffffff1673ffffffffffffffffffffffffffffffffffffffff1681526020019081526020015f205f610bc06110e2565b81526020019081526020015f205f828254610bdb91906129bb565b925050819055507f82984aa63633b44e8d3d556ad849611e75e0fba83227eb22f9bdafd013039f82868683818110610c1657610c156128d3565b5b9050602002016020810190610c2b9190612450565b858584818110610c3e57610c3d6128d3565b5b90506020020135604051610c53929190612a21565b60405180910390a18080610c6690612a48565b915050610944565b5060019050949350505050565b5f868686868686604051602001610c9796959493929190612b60565b6040516020818303038152906040528051906020012090509695505050505050565b600460149054906101000a900460ff1681565b5f610cd5611c6d565b73ffffffffffffffffffffffffffffffffffffffff1660045f9054906101000a900473ffffffffffffffffffffffffffffffffffffffff1673ffffffffffffffffffffffffffffffffffffffff1614610d63576040517f08c379a0000000000000000000000000000000000000000000000000000000008152600401610d5a90612827565b60405180910390fd5b8160095f610d6f6110e2565b81526020019081526020015f206003018190555060019050919050565b600d602052805f5260405f205f915090505481565b5f804690508091505090565b60068181548110610dbc575f80fd5b905f5260205f20015f915054906101000a900473ffffffffffffffffffffffffffffffffffffffff1681565b5f6001600580549050610dfb91906129ee565b60095f610e066110e2565b81526020019081526020015f2060020181905550610e22611451565b506001905090565b5f42851015610e6e576040517f08c379a0000000000000000000000000000000000000000000000000000000008152600401610e6590612c15565b60405180910390fd5b5f60085f8873ffffffffffffffffffffffffffffffffffffffff1673ffffffffffffffffffffffffffffffffffffffff1681526020019081526020015f205f815480929190610ebc90612a48565b9190505590505f610ecb610da1565b90505f610f1182308b8b876040518060400160405280601281526020017f72656c61795265717565737452657665616c0000000000000000000000000000815250610c7b565b9050610f20898289898961124b565b610f5f576040517f08c379a0000000000000000000000000000000000000000000000000000000008152600401610f5690612c7d565b60405180910390fd5b610f6889611c74565b507f70f2a35e5797523ed95e6f73a8ebb18140a58c70016b3b0e7c350fb47035701b89604051610f98919061248a565b60405180910390a16001935050505095945050505050565b5f808203610fc0575f905061104e565b5f5b6005805490508110156110495760058181548110610fe357610fe26128d3565b5b905f5260205f20015483116110365760068181548110611006576110056128d3565b5b905f5260205f20015f9054906101000a900473ffffffffffffffffffffffffffffffffffffffff1691505061104e565b808061104190612a48565b915050610fc2565b505f90505b919050565b61105b611e65565b6110645f611ee3565b565b5f60085f8373ffffffffffffffffffffffffffffffffffffffff1673ffffffffffffffffffffffffffffffffffffffff1681526020019081526020015f20549050919050565b600a602052825f5260405f20602052815f5260405f2081815481106110cf575f80fd5b905f5260205f20015f9250925050505481565b5f600254905090565b5f805f9054906101000a900473ffffffffffffffffffffffffffffffffffffffff16905090565b5f61111b611c6d565b73ffffffffffffffffffffffffffffffffffffffff1660045f9054906101000a900473ffffffffffffffffffffffffffffffffffffffff1673ffffffffffffffffffffffffffffffffffffffff16146111a9576040517f08c379a00000000000000000000000000000000000000000000000000000000081526004016111a090612827565b60405180910390fd5b60025f8154809291906111bb90612a48565b91905055505f6111c96110e2565b90506040518060a001604052808281526020016111e4610823565b81526020015f81526020015f81526020016111fd611fa4565b81525060095f8381526020019081526020015f205f820151815f0155602082015181600101556040820151816002015560608201518160030155608082015181600401559050508091505090565b5f8573ffffffffffffffffffffffffffffffffffffffff166001868686866040515f81526020016040526040516112859493929190612caa565b6020604051602081039080840390855afa1580156112a5573d5f803e3d5ffd5b5050506020604051035173ffffffffffffffffffffffffffffffffffffffff1614905095945050505050565b60075481565b5f6112e0611c6d565b73ffffffffffffffffffffffffffffffffffffffff1660045f9054906101000a900473ffffffffffffffffffffffffffffffffffffffff1673ffffffffffffffffffffffffffffffffffffffff161461136e576040517f08c379a000000000000000000000000000000000000000000000000000000000815260040161136590612827565b60405180910390fd5b81600c5f61137a6113ab565b81526020019081526020015f208190555060035f81548092919061139d90612a48565b919050555060019050919050565b5f600354905090565b5f6113c56113c0611c6d565b611c74565b905090565b600581815481106113d9575f80fd5b905f5260205f20015f915090505481565b600c602052805f5260405f205f915090505481565b5f611408611e65565b8160045f6101000a81548173ffffffffffffffffffffffffffffffffffffffff021916908373ffffffffffffffffffffffffffffffffffffffff16021790555060019050919050565b5f6001905090565b5f80600c5f611467856114c4565b81526020019081526020015f205490505f8111156114ba576114b28184604051602001611495929190612ced565b604051602081830303815290604052805190602001205f1c61167a565b9150506114bf565b5f9150505b919050565b5f600b5f6114d1846114e6565b81526020019081526020015f20549050919050565b5f80821180156114f857506007548211155b611537576040517f08c379a000000000000000000000000000000000000000000000000000000000815260040161152e90612d88565b60405180910390fd5b5f6005805490501161157e576040517f08c379a000000000000000000000000000000000000000000000000000000000815260040161157590612df0565b60405180910390fd5b5f600160058054905061159191906129ee565b90505b5f8110611639575f8082036115ac57600190506115e4565b600160056001846115bd91906129ee565b815481106115ce576115cd6128d3565b5b905f5260205f2001546115e191906129bb565b90505b5f600583815481106115f9576115f86128d3565b5b905f5260205f20015490508085111580156116145750818510155b1561162457829350505050611675565b5050808061163190612e0e565b915050611594565b506040517f08c379a000000000000000000000000000000000000000000000000000000000815260040161166c90612e7f565b60405180910390fd5b919050565b5f80620f42408361168b9190612eca565b9050620186a08110156116aa57620186a0816116a791906129bb565b90505b80915050919050565b5f735b38da6a701c568545dcfcb03fcb875f56beddc49050606460075f8282546116dd91906129bb565b925050819055506005600754908060018154018082558091505060019003905f5260205f20015f9091909190915055600681908060018154018082558091505060019003905f5260205f20015f9091909190916101000a81548173ffffffffffffffffffffffffffffffffffffffff021916908373ffffffffffffffffffffffffffffffffffffffff160217905550600a5f8273ffffffffffffffffffffffffffffffffffffffff1673ffffffffffffffffffffffffffffffffffffffff1681526020019081526020015f205f6117b26110e2565b81526020019081526020015f2060016005805490506117d191906129ee565b908060018154018082558091505060019003905f5260205f20015f90919091909150556064600e5f8373ffffffffffffffffffffffffffffffffffffffff1673ffffffffffffffffffffffffffffffffffffffff1681526020019081526020015f205f61183c6110e2565b81526020019081526020015f205f82825461185791906129bb565b925050819055507f82984aa63633b44e8d3d556ad849611e75e0fba83227eb22f9bdafd013039f82816064604051611890929190612f3c565b60405180910390a150565b600e602052815f5260405f20602052805f5260405f205f91509150505481565b60606118d56118c8611c6d565b6118d06110e2565b61198e565b905090565b6118e2611e65565b5f73ffffffffffffffffffffffffffffffffffffffff168173ffffffffffffffffffffffffffffffffffffffff1603611950576040517f08c379a000000000000000000000000000000000000000000000000000000000815260040161194790612fd3565b60405180910390fd5b61195981611ee3565b50565b6009602052805f5260405f205f91509050805f0154908060010154908060020154908060030154908060040154905085565b60605f600a5f8573ffffffffffffffffffffffffffffffffffffffff1673ffffffffffffffffffffffffffffffffffffffff1681526020019081526020015f205f8481526020019081526020015f20805480602002602001604051908101604052809291908181526020018280548015611a2557602002820191905f5260205f20905b815481526020019060010190808311611a11575b505050505090505f60095f8581526020019081526020015f206040518060a00160405290815f820154815260200160018201548152602001600282015481526020016003820154815260200160048201548152505090505f816040015190505f600e5f8873ffffffffffffffffffffffffffffffffffffffff1673ffffffffffffffffffffffffffffffffffffffff1681526020019081526020015f205f8781526020019081526020015f205467ffffffffffffffff811115611aeb57611aea612256565b5b604051908082528060200260200182016040528015611b195781602001602082028036833780820191505090505b5090505f8203611b38576001600580549050611b3591906129ee565b91505b5f805b8551811015611c5e575f6005878381518110611b5a57611b596128d3565b5b602002602001015181548110611b7357611b726128d3565b5b905f5260205f20015490505f80888481518110611b9357611b926128d3565b5b602002602001015103611ba95760019050611bfb565b6001600560018a8681518110611bc257611bc16128d3565b5b6020026020010151611bd491906129ee565b81548110611be557611be46128d3565b5b905f5260205f200154611bf891906129bb565b90505b5f8190505b828111611c485780868681518110611c1b57611c1a6128d3565b5b6020026020010181815250508480611c3290612a48565b9550508080611c4090612a48565b915050611c00565b5050508080611c5690612a48565b915050611b3b565b50819550505050505092915050565b5f33905090565b5f80600a5f8473ffffffffffffffffffffffffffffffffffffffff1673ffffffffffffffffffffffffffffffffffffffff1681526020019081526020015f205f611cbc6110e2565b81526020019081526020015f20805480602002602001604051908101604052809291908181526020018280548015611d1157602002820191905f5260205f20905b815481526020019060010190808311611cfd575b505050505090505f611d216113ab565b90505f825103611d3657600192505050611e60565b5f600d5f8673ffffffffffffffffffffffffffffffffffffffff1673ffffffffffffffffffffffffffffffffffffffff1681526020019081526020015f2054905080835110611e21575f8190505b8351811015611dd05782600b5f868481518110611da457611da36128d3565b5b602002602001015181526020019081526020015f20819055508080611dc890612a48565b915050611d84565b5060018351611ddf91906129bb565b600d5f8773ffffffffffffffffffffffffffffffffffffffff1673ffffffffffffffffffffffffffffffffffffffff1681526020019081526020015f20819055505b7f70f2a35e5797523ed95e6f73a8ebb18140a58c70016b3b0e7c350fb47035701b85604051611e50919061248a565b60405180910390a1600193505050505b919050565b611e6d611c6d565b73ffffffffffffffffffffffffffffffffffffffff16611e8b6110eb565b73ffffffffffffffffffffffffffffffffffffffff1614611ee1576040517f08c379a0000000000000000000000000000000000000000000000000000000008152600401611ed89061303b565b60405180910390fd5b565b5f805f9054906101000a900473ffffffffffffffffffffffffffffffffffffffff169050815f806101000a81548173ffffffffffffffffffffffffffffffffffffffff021916908373ffffffffffffffffffffffffffffffffffffffff1602179055508173ffffffffffffffffffffffffffffffffffffffff168173ffffffffffffffffffffffffffffffffffffffff167f8be0079c531659141344cd1fd0a4f28419497f9722a3daafe3b4186f6b6457e060405160405180910390a35050565b5f611fe5600143611fb591906129ee565b4042604051602001611fc8929190613079565b604051602081830303815290604052805190602001205f1c61167a565b905090565b5f604051905090565b5f80fd5b5f80fd5b5f819050919050565b61200d81611ffb565b8114612017575f80fd5b50565b5f8135905061202881612004565b92915050565b5f6020828403121561204357612042611ff3565b5b5f6120508482850161201a565b91505092915050565b61206281611ffb565b82525050565b5f60208201905061207b5f830184612059565b92915050565b5f8115159050919050565b61209581612081565b82525050565b5f6020820190506120ae5f83018461208c565b92915050565b5f80fd5b5f80fd5b5f80fd5b5f8083601f8401126120d5576120d46120b4565b5b8235905067ffffffffffffffff8111156120f2576120f16120b8565b5b60208301915083602082028301111561210e5761210d6120bc565b5b9250929050565b5f8083601f84011261212a576121296120b4565b5b8235905067ffffffffffffffff811115612147576121466120b8565b5b602083019150836020820283011115612163576121626120bc565b5b9250929050565b5f805f806040858703121561218257612181611ff3565b5b5f85013567ffffffffffffffff81111561219f5761219e611ff7565b5b6121ab878288016120c0565b9450945050602085013567ffffffffffffffff8111156121ce576121cd611ff7565b5b6121da87828801612115565b925092505092959194509250565b5f73ffffffffffffffffffffffffffffffffffffffff82169050919050565b5f612211826121e8565b9050919050565b61222181612207565b811461222b575f80fd5b50565b5f8135905061223c81612218565b92915050565b5f80fd5b5f601f19601f8301169050919050565b7f4e487b71000000000000000000000000000000000000000000000000000000005f52604160045260245ffd5b61228c82612246565b810181811067ffffffffffffffff821117156122ab576122aa612256565b5b80604052505050565b5f6122bd611fea565b90506122c98282612283565b919050565b5f67ffffffffffffffff8211156122e8576122e7612256565b5b6122f182612246565b9050602081019050919050565b828183375f83830152505050565b5f61231e612319846122ce565b6122b4565b90508281526020810184848401111561233a57612339612242565b5b6123458482856122fe565b509392505050565b5f82601f830112612361576123606120b4565b5b813561237184826020860161230c565b91505092915050565b5f805f805f8060c0878903121561239457612393611ff3565b5b5f6123a189828a0161201a565b96505060206123b289828a0161222e565b95505060406123c389828a0161222e565b94505060606123d489828a0161201a565b93505060806123e589828a0161201a565b92505060a087013567ffffffffffffffff81111561240657612405611ff7565b5b61241289828a0161234d565b9150509295509295509295565b5f819050919050565b6124318161241f565b82525050565b5f60208201905061244a5f830184612428565b92915050565b5f6020828403121561246557612464611ff3565b5b5f6124728482850161222e565b91505092915050565b61248481612207565b82525050565b5f60208201905061249d5f83018461247b565b92915050565b5f60ff82169050919050565b6124b8816124a3565b81146124c2575f80fd5b50565b5f813590506124d3816124af565b92915050565b6124e28161241f565b81146124ec575f80fd5b50565b5f813590506124fd816124d9565b92915050565b5f805f805f60a0868803121561251c5761251b611ff3565b5b5f6125298882890161222e565b955050602061253a8882890161201a565b945050604061254b888289016124c5565b935050606061255c888289016124ef565b925050608061256d888289016124ef565b9150509295509295909350565b5f805f6060848603121561259157612590611ff3565b5b5f61259e8682870161222e565b93505060206125af8682870161201a565b92505060406125c08682870161201a565b9150509250925092565b5f805f805f60a086880312156125e3576125e2611ff3565b5b5f6125f08882890161222e565b9550506020612601888289016124ef565b9450506040612612888289016124c5565b9350506060612623888289016124ef565b9250506080612634888289016124ef565b9150509295509295909350565b5f806040838503121561265757612656611ff3565b5b5f6126648582860161222e565b92505060206126758582860161201a565b9150509250929050565b5f81519050919050565b5f82825260208201905092915050565b5f819050602082019050919050565b6126b181611ffb565b82525050565b5f6126c283836126a8565b60208301905092915050565b5f602082019050919050565b5f6126e48261267f565b6126ee8185612689565b93506126f983612699565b805f5b8381101561272957815161271088826126b7565b975061271b836126ce565b9250506001810190506126fc565b5085935050505092915050565b5f6020820190508181035f83015261274e81846126da565b905092915050565b5f60a0820190506127695f830188612059565b6127766020830187612059565b6127836040830186612059565b6127906060830185612059565b61279d6080830184612059565b9695505050505050565b5f82825260208201905092915050565b7f4c75636b7942616c6c3a2063616c6c6572206973206e6f7420746865206f70655f8201527f7261746f72206164647265737321000000000000000000000000000000000000602082015250565b5f612811602e836127a7565b915061281c826127b7565b604082019050919050565b5f6020820190508181035f83015261283e81612805565b9050919050565b7f4c75636b42616c6c3a206164647265737320616e642071747920636f756e74735f8201527f20646f206e6f74206d6174636800000000000000000000000000000000000000602082015250565b5f61289f602d836127a7565b91506128aa82612845565b604082019050919050565b5f6020820190508181035f8301526128cc81612893565b9050919050565b7f4e487b71000000000000000000000000000000000000000000000000000000005f52603260045260245ffd5b7f4c75636b42616c6c3a207174792073686f756c642062652062696767657220745f8201527f68616e2030000000000000000000000000000000000000000000000000000000602082015250565b5f61295a6025836127a7565b915061296582612900565b604082019050919050565b5f6020820190508181035f8301526129878161294e565b9050919050565b7f4e487b71000000000000000000000000000000000000000000000000000000005f52601160045260245ffd5b5f6129c582611ffb565b91506129d083611ffb565b92508282019050808211156129e8576129e761298e565b5b92915050565b5f6129f882611ffb565b9150612a0383611ffb565b9250828203905081811115612a1b57612a1a61298e565b5b92915050565b5f604082019050612a345f83018561247b565b612a416020830184612059565b9392505050565b5f612a5282611ffb565b91507fffffffffffffffffffffffffffffffffffffffffffffffffffffffffffffffff8203612a8457612a8361298e565b5b600182019050919050565b5f819050919050565b612aa9612aa482611ffb565b612a8f565b82525050565b5f8160601b9050919050565b5f612ac582612aaf565b9050919050565b5f612ad682612abb565b9050919050565b612aee612ae982612207565b612acc565b82525050565b5f81519050919050565b5f81905092915050565b5f5b83811015612b25578082015181840152602081019050612b0a565b5f8484015250505050565b5f612b3a82612af4565b612b448185612afe565b9350612b54818560208601612b08565b80840191505092915050565b5f612b6b8289612a98565b602082019150612b7b8288612add565b601482019150612b8b8287612add565b601482019150612b9b8286612a98565b602082019150612bab8285612a98565b602082019150612bbb8284612b30565b9150819050979650505050505050565b7f4c75636b7942616c6c3a206578706972656420646561646c696e6500000000005f82015250565b5f612bff601b836127a7565b9150612c0a82612bcb565b602082019050919050565b5f6020820190508181035f830152612c2c81612bf3565b9050919050565b7f4c75636b7942616c6c3a2073696720646f6573206e6f74206d617463680000005f82015250565b5f612c67601d836127a7565b9150612c7282612c33565b602082019050919050565b5f6020820190508181035f830152612c9481612c5b565b9050919050565b612ca4816124a3565b82525050565b5f608082019050612cbd5f830187612428565b612cca6020830186612c9b565b612cd76040830185612428565b612ce46060830184612428565b95945050505050565b5f612cf88285612a98565b602082019150612d088284612a98565b6020820191508190509392505050565b7f4c75636b7942616c6c3a2062616c6c4964206973206f7574206f662072616e675f8201527f6500000000000000000000000000000000000000000000000000000000000000602082015250565b5f612d726021836127a7565b9150612d7d82612d18565b604082019050919050565b5f6020820190508181035f830152612d9f81612d66565b9050919050565b7f4c75636b42616c6c3a204e6f2062616c6c2069737375656400000000000000005f82015250565b5f612dda6018836127a7565b9150612de582612da6565b602082019050919050565b5f6020820190508181035f830152612e0781612dce565b9050919050565b5f612e1882611ffb565b91505f8203612e2a57612e2961298e565b5b600182039050919050565b7f42616c6c4964206973206e6f7420666f756e64000000000000000000000000005f82015250565b5f612e696013836127a7565b9150612e7482612e35565b602082019050919050565b5f6020820190508181035f830152612e9681612e5d565b9050919050565b7f4e487b71000000000000000000000000000000000000000000000000000000005f52601260045260245ffd5b5f612ed482611ffb565b9150612edf83611ffb565b925082612eef57612eee612e9d565b5b828206905092915050565b5f819050919050565b5f819050919050565b5f612f26612f21612f1c84612efa565b612f03565b611ffb565b9050919050565b612f3681612f0c565b82525050565b5f604082019050612f4f5f83018561247b565b612f5c6020830184612f2d565b9392505050565b7f4f776e61626c653a206e6577206f776e657220697320746865207a65726f20615f8201527f6464726573730000000000000000000000000000000000000000000000000000602082015250565b5f612fbd6026836127a7565b9150612fc882612f63565b604082019050919050565b5f6020820190508181035f830152612fea81612fb1565b9050919050565b7f4f776e61626c653a2063616c6c6572206973206e6f7420746865206f776e65725f82015250565b5f6130256020836127a7565b915061303082612ff1565b602082019050919050565b5f6020820190508181035f83015261305281613019565b9050919050565b5f819050919050565b61307361306e8261241f565b613059565b82525050565b5f6130848285613062565b6020820191506130948284612a98565b602082019150819050939250505056fea26469706673582212203f1dfe7f1dbdc6a74149fb314d3f5dd17da7eb230837135ad33f4a6cf92f5ccb64736f6c63430008140033",
					"opcodes": "PUSH1 0x80 PUSH1 0x40 MSTORE PUSH0 PUSH1 0x4 PUSH1 0x14 PUSH2 0x100 EXP DUP2 SLOAD DUP2 PUSH1 0xFF MUL NOT AND SWAP1 DUP4 ISZERO ISZERO MUL OR SWAP1 SSTORE POP PUSH0 PUSH1 0x7 SSTORE CALLVALUE DUP1 ISZERO PUSH3 0x2E JUMPI PUSH0 DUP1 REVERT JUMPDEST POP PUSH3 0x4F PUSH3 0x43 PUSH3 0xBD PUSH1 0x20 SHL PUSH1 0x20 SHR JUMP JUMPDEST PUSH3 0xC4 PUSH1 0x20 SHL PUSH1 0x20 SHR JUMP JUMPDEST PUSH1 0x3 PUSH0 DUP2 SLOAD DUP1 SWAP3 SWAP2 SWAP1 PUSH3 0x63 SWAP1 PUSH3 0x1E2 JUMP JUMPDEST SWAP2 SWAP1 POP SSTORE POP PUSH3 0x78 PUSH3 0x185 PUSH1 0x20 SHL PUSH1 0x20 SHR JUMP JUMPDEST PUSH1 0x4 PUSH0 PUSH2 0x100 EXP DUP2 SLOAD DUP2 PUSH20 0xFFFFFFFFFFFFFFFFFFFFFFFFFFFFFFFFFFFFFFFF MUL NOT AND SWAP1 DUP4 PUSH20 0xFFFFFFFFFFFFFFFFFFFFFFFFFFFFFFFFFFFFFFFF AND MUL OR SWAP1 SSTORE POP PUSH3 0x22E JUMP JUMPDEST PUSH0 CALLER SWAP1 POP SWAP1 JUMP JUMPDEST PUSH0 DUP1 PUSH0 SWAP1 SLOAD SWAP1 PUSH2 0x100 EXP SWAP1 DIV PUSH20 0xFFFFFFFFFFFFFFFFFFFFFFFFFFFFFFFFFFFFFFFF AND SWAP1 POP DUP2 PUSH0 DUP1 PUSH2 0x100 EXP DUP2 SLOAD DUP2 PUSH20 0xFFFFFFFFFFFFFFFFFFFFFFFFFFFFFFFFFFFFFFFF MUL NOT AND SWAP1 DUP4 PUSH20 0xFFFFFFFFFFFFFFFFFFFFFFFFFFFFFFFFFFFFFFFF AND MUL OR SWAP1 SSTORE POP DUP2 PUSH20 0xFFFFFFFFFFFFFFFFFFFFFFFFFFFFFFFFFFFFFFFF AND DUP2 PUSH20 0xFFFFFFFFFFFFFFFFFFFFFFFFFFFFFFFFFFFFFFFF AND PUSH32 0x8BE0079C531659141344CD1FD0A4F28419497F9722A3DAAFE3B4186F6B6457E0 PUSH1 0x40 MLOAD PUSH1 0x40 MLOAD DUP1 SWAP2 SUB SWAP1 LOG3 POP POP JUMP JUMPDEST PUSH0 DUP1 PUSH0 SWAP1 SLOAD SWAP1 PUSH2 0x100 EXP SWAP1 DIV PUSH20 0xFFFFFFFFFFFFFFFFFFFFFFFFFFFFFFFFFFFFFFFF AND SWAP1 POP SWAP1 JUMP JUMPDEST PUSH32 0x4E487B7100000000000000000000000000000000000000000000000000000000 PUSH0 MSTORE PUSH1 0x11 PUSH1 0x4 MSTORE PUSH1 0x24 PUSH0 REVERT JUMPDEST PUSH0 DUP2 SWAP1 POP SWAP2 SWAP1 POP JUMP JUMPDEST PUSH0 PUSH3 0x1EE DUP3 PUSH3 0x1D9 JUMP JUMPDEST SWAP2 POP PUSH32 0xFFFFFFFFFFFFFFFFFFFFFFFFFFFFFFFFFFFFFFFFFFFFFFFFFFFFFFFFFFFFFFFF DUP3 SUB PUSH3 0x223 JUMPI PUSH3 0x222 PUSH3 0x1AC JUMP JUMPDEST JUMPDEST PUSH1 0x1 DUP3 ADD SWAP1 POP SWAP2 SWAP1 POP JUMP JUMPDEST PUSH2 0x30DA DUP1 PUSH3 0x23C PUSH0 CODECOPY PUSH0 RETURN INVALID PUSH1 0x80 PUSH1 0x40 MSTORE CALLVALUE DUP1 ISZERO PUSH2 0xF JUMPI PUSH0 DUP1 REVERT JUMPDEST POP PUSH1 0x4 CALLDATASIZE LT PUSH2 0x230 JUMPI PUSH0 CALLDATALOAD PUSH1 0xE0 SHR DUP1 PUSH4 0x990366D4 GT PUSH2 0x12E JUMPI DUP1 PUSH4 0xC6B98E04 GT PUSH2 0xB6 JUMPI DUP1 PUSH4 0xDF6C8333 GT PUSH2 0x7A JUMPI DUP1 PUSH4 0xDF6C8333 EQ PUSH2 0x740 JUMPI DUP1 PUSH4 0xDF6FBA1D EQ PUSH2 0x770 JUMPI DUP1 PUSH4 0xF2FDE38B EQ PUSH2 0x78E JUMPI DUP1 PUSH4 0xF5D709A1 EQ PUSH2 0x7AA JUMPI DUP1 PUSH4 0xFE675307 EQ PUSH2 0x7DE JUMPI PUSH2 0x230 JUMP JUMPDEST DUP1 PUSH4 0xC6B98E04 EQ PUSH2 0x676 JUMPI DUP1 PUSH4 0xD3BA6F34 EQ PUSH2 0x6A6 JUMPI DUP1 PUSH4 0xD530F1B4 EQ PUSH2 0x6D6 JUMPI DUP1 PUSH4 0xD6C38C7F EQ PUSH2 0x706 JUMPI DUP1 PUSH4 0xD8601C0F EQ PUSH2 0x736 JUMPI PUSH2 0x230 JUMP JUMPDEST DUP1 PUSH4 0xB07870B5 GT PUSH2 0xFD JUMPI DUP1 PUSH4 0xB07870B5 EQ PUSH2 0x5AA JUMPI DUP1 PUSH4 0xB20AAAF5 EQ PUSH2 0x5C8 JUMPI DUP1 PUSH4 0xB29E60EF EQ PUSH2 0x5F8 JUMPI DUP1 PUSH4 0xB3AB15FB EQ PUSH2 0x628 JUMPI DUP1 PUSH4 0xC419857F EQ PUSH2 0x658 JUMPI PUSH2 0x230 JUMP JUMPDEST DUP1 PUSH4 0x990366D4 EQ PUSH2 0x50E JUMPI DUP1 PUSH4 0x9CEADDC9 EQ PUSH2 0x53E JUMPI DUP1 PUSH4 0x9D3B6D97 EQ PUSH2 0x55C JUMPI DUP1 PUSH4 0x9D3DB7DB EQ PUSH2 0x58C JUMPI PUSH2 0x230 JUMP JUMPDEST DUP1 PUSH4 0x3822AEA4 GT PUSH2 0x1BC JUMPI DUP1 PUSH4 0x7ECEBE00 GT PUSH2 0x180 JUMPI DUP1 PUSH4 0x7ECEBE00 EQ PUSH2 0x454 JUMPI DUP1 PUSH4 0x8504A01A EQ PUSH2 0x484 JUMPI DUP1 PUSH4 0x8C73DA19 EQ PUSH2 0x4B4 JUMPI DUP1 PUSH4 0x8DA5CB5B EQ PUSH2 0x4D2 JUMPI DUP1 PUSH4 0x952A9633 EQ PUSH2 0x4F0 JUMPI PUSH2 0x230 JUMP JUMPDEST DUP1 PUSH4 0x3822AEA4 EQ PUSH2 0x39C JUMPI DUP1 PUSH4 0x3DCDB672 EQ PUSH2 0x3CC JUMPI DUP1 PUSH4 0x5F4F79BB EQ PUSH2 0x3EA JUMPI DUP1 PUSH4 0x6352211E EQ PUSH2 0x41A JUMPI DUP1 PUSH4 0x715018A6 EQ PUSH2 0x44A JUMPI PUSH2 0x230 JUMP JUMPDEST DUP1 PUSH4 0x1345774E GT PUSH2 0x203 JUMPI DUP1 PUSH4 0x1345774E EQ PUSH2 0x2D0 JUMPI DUP1 PUSH4 0x22F3E2D4 EQ PUSH2 0x300 JUMPI DUP1 PUSH4 0x2E0EC88F EQ PUSH2 0x31E JUMPI DUP1 PUSH4 0x2FFB84DD EQ PUSH2 0x34E JUMPI DUP1 PUSH4 0x3408E470 EQ PUSH2 0x37E JUMPI PUSH2 0x230 JUMP JUMPDEST DUP1 PUSH4 0x4B1B2C2 EQ PUSH2 0x234 JUMPI DUP1 PUSH4 0x841BA30 EQ PUSH2 0x264 JUMPI DUP1 PUSH4 0xE75A71F EQ PUSH2 0x282 JUMPI DUP1 PUSH4 0x1022889C EQ PUSH2 0x2A0 JUMPI JUMPDEST PUSH0 DUP1 REVERT JUMPDEST PUSH2 0x24E PUSH1 0x4 DUP1 CALLDATASIZE SUB DUP2 ADD SWAP1 PUSH2 0x249 SWAP2 SWAP1 PUSH2 0x202E JUMP JUMPDEST PUSH2 0x80E JUMP JUMPDEST PUSH1 0x40 MLOAD PUSH2 0x25B SWAP2 SWAP1 PUSH2 0x2068 JUMP JUMPDEST PUSH1 0x40 MLOAD DUP1 SWAP2 SUB SWAP1 RETURN JUMPDEST PUSH2 0x26C PUSH2 0x823 JUMP JUMPDEST PUSH1 0x40 MLOAD PUSH2 0x279 SWAP2 SWAP1 PUSH2 0x2068 JUMP JUMPDEST PUSH1 0x40 MLOAD DUP1 SWAP2 SUB SWAP1 RETURN JUMPDEST PUSH2 0x28A PUSH2 0x82F JUMP JUMPDEST PUSH1 0x40 MLOAD PUSH2 0x297 SWAP2 SWAP1 PUSH2 0x209B JUMP JUMPDEST PUSH1 0x40 MLOAD DUP1 SWAP2 SUB SWAP1 RETURN JUMPDEST PUSH2 0x2BA PUSH1 0x4 DUP1 CALLDATASIZE SUB DUP2 ADD SWAP1 PUSH2 0x2B5 SWAP2 SWAP1 PUSH2 0x216A JUMP JUMPDEST PUSH2 0x863 JUMP JUMPDEST PUSH1 0x40 MLOAD PUSH2 0x2C7 SWAP2 SWAP1 PUSH2 0x209B JUMP JUMPDEST PUSH1 0x40 MLOAD DUP1 SWAP2 SUB SWAP1 RETURN JUMPDEST PUSH2 0x2EA PUSH1 0x4 DUP1 CALLDATASIZE SUB DUP2 ADD SWAP1 PUSH2 0x2E5 SWAP2 SWAP1 PUSH2 0x237A JUMP JUMPDEST PUSH2 0xC7B JUMP JUMPDEST PUSH1 0x40 MLOAD PUSH2 0x2F7 SWAP2 SWAP1 PUSH2 0x2437 JUMP JUMPDEST PUSH1 0x40 MLOAD DUP1 SWAP2 SUB SWAP1 RETURN JUMPDEST PUSH2 0x308 PUSH2 0xCB9 JUMP JUMPDEST PUSH1 0x40 MLOAD PUSH2 0x315 SWAP2 SWAP1 PUSH2 0x209B JUMP JUMPDEST PUSH1 0x40 MLOAD DUP1 SWAP2 SUB SWAP1 RETURN JUMPDEST PUSH2 0x338 PUSH1 0x4 DUP1 CALLDATASIZE SUB DUP2 ADD SWAP1 PUSH2 0x333 SWAP2 SWAP1 PUSH2 0x202E JUMP JUMPDEST PUSH2 0xCCC JUMP JUMPDEST PUSH1 0x40 MLOAD PUSH2 0x345 SWAP2 SWAP1 PUSH2 0x209B JUMP JUMPDEST PUSH1 0x40 MLOAD DUP1 SWAP2 SUB SWAP1 RETURN JUMPDEST PUSH2 0x368 PUSH1 0x4 DUP1 CALLDATASIZE SUB DUP2 ADD SWAP1 PUSH2 0x363 SWAP2 SWAP1 PUSH2 0x2450 JUMP JUMPDEST PUSH2 0xD8C JUMP JUMPDEST PUSH1 0x40 MLOAD PUSH2 0x375 SWAP2 SWAP1 PUSH2 0x2068 JUMP JUMPDEST PUSH1 0x40 MLOAD DUP1 SWAP2 SUB SWAP1 RETURN JUMPDEST PUSH2 0x386 PUSH2 0xDA1 JUMP JUMPDEST PUSH1 0x40 MLOAD PUSH2 0x393 SWAP2 SWAP1 PUSH2 0x2068 JUMP JUMPDEST PUSH1 0x40 MLOAD DUP1 SWAP2 SUB SWAP1 RETURN JUMPDEST PUSH2 0x3B6 PUSH1 0x4 DUP1 CALLDATASIZE SUB DUP2 ADD SWAP1 PUSH2 0x3B1 SWAP2 SWAP1 PUSH2 0x202E JUMP JUMPDEST PUSH2 0xDAD JUMP JUMPDEST PUSH1 0x40 MLOAD PUSH2 0x3C3 SWAP2 SWAP1 PUSH2 0x248A JUMP JUMPDEST PUSH1 0x40 MLOAD DUP1 SWAP2 SUB SWAP1 RETURN JUMPDEST PUSH2 0x3D4 PUSH2 0xDE8 JUMP JUMPDEST PUSH1 0x40 MLOAD PUSH2 0x3E1 SWAP2 SWAP1 PUSH2 0x209B JUMP JUMPDEST PUSH1 0x40 MLOAD DUP1 SWAP2 SUB SWAP1 RETURN JUMPDEST PUSH2 0x404 PUSH1 0x4 DUP1 CALLDATASIZE SUB DUP2 ADD SWAP1 PUSH2 0x3FF SWAP2 SWAP1 PUSH2 0x2503 JUMP JUMPDEST PUSH2 0xE2A JUMP JUMPDEST PUSH1 0x40 MLOAD PUSH2 0x411 SWAP2 SWAP1 PUSH2 0x209B JUMP JUMPDEST PUSH1 0x40 MLOAD DUP1 SWAP2 SUB SWAP1 RETURN JUMPDEST PUSH2 0x434 PUSH1 0x4 DUP1 CALLDATASIZE SUB DUP2 ADD SWAP1 PUSH2 0x42F SWAP2 SWAP1 PUSH2 0x202E JUMP JUMPDEST PUSH2 0xFB0 JUMP JUMPDEST PUSH1 0x40 MLOAD PUSH2 0x441 SWAP2 SWAP1 PUSH2 0x248A JUMP JUMPDEST PUSH1 0x40 MLOAD DUP1 SWAP2 SUB SWAP1 RETURN JUMPDEST PUSH2 0x452 PUSH2 0x1053 JUMP JUMPDEST STOP JUMPDEST PUSH2 0x46E PUSH1 0x4 DUP1 CALLDATASIZE SUB DUP2 ADD SWAP1 PUSH2 0x469 SWAP2 SWAP1 PUSH2 0x2450 JUMP JUMPDEST PUSH2 0x1066 JUMP JUMPDEST PUSH1 0x40 MLOAD PUSH2 0x47B SWAP2 SWAP1 PUSH2 0x2068 JUMP JUMPDEST PUSH1 0x40 MLOAD DUP1 SWAP2 SUB SWAP1 RETURN JUMPDEST PUSH2 0x49E PUSH1 0x4 DUP1 CALLDATASIZE SUB DUP2 ADD SWAP1 PUSH2 0x499 SWAP2 SWAP1 PUSH2 0x257A JUMP JUMPDEST PUSH2 0x10AC JUMP JUMPDEST PUSH1 0x40 MLOAD PUSH2 0x4AB SWAP2 SWAP1 PUSH2 0x2068 JUMP JUMPDEST PUSH1 0x40 MLOAD DUP1 SWAP2 SUB SWAP1 RETURN JUMPDEST PUSH2 0x4BC PUSH2 0x10E2 JUMP JUMPDEST PUSH1 0x40 MLOAD PUSH2 0x4C9 SWAP2 SWAP1 PUSH2 0x2068 JUMP JUMPDEST PUSH1 0x40 MLOAD DUP1 SWAP2 SUB SWAP1 RETURN JUMPDEST PUSH2 0x4DA PUSH2 0x10EB JUMP JUMPDEST PUSH1 0x40 MLOAD PUSH2 0x4E7 SWAP2 SWAP1 PUSH2 0x248A JUMP JUMPDEST PUSH1 0x40 MLOAD DUP1 SWAP2 SUB SWAP1 RETURN JUMPDEST PUSH2 0x4F8 PUSH2 0x1112 JUMP JUMPDEST PUSH1 0x40 MLOAD PUSH2 0x505 SWAP2 SWAP1 PUSH2 0x2068 JUMP JUMPDEST PUSH1 0x40 MLOAD DUP1 SWAP2 SUB SWAP1 RETURN JUMPDEST PUSH2 0x528 PUSH1 0x4 DUP1 CALLDATASIZE SUB DUP2 ADD SWAP1 PUSH2 0x523 SWAP2 SWAP1 PUSH2 0x25CA JUMP JUMPDEST PUSH2 0x124B JUMP JUMPDEST PUSH1 0x40 MLOAD PUSH2 0x535 SWAP2 SWAP1 PUSH2 0x209B JUMP JUMPDEST PUSH1 0x40 MLOAD DUP1 SWAP2 SUB SWAP1 RETURN JUMPDEST PUSH2 0x546 PUSH2 0x12D1 JUMP JUMPDEST PUSH1 0x40 MLOAD PUSH2 0x553 SWAP2 SWAP1 PUSH2 0x2068 JUMP JUMPDEST PUSH1 0x40 MLOAD DUP1 SWAP2 SUB SWAP1 RETURN JUMPDEST PUSH2 0x576 PUSH1 0x4 DUP1 CALLDATASIZE SUB DUP2 ADD SWAP1 PUSH2 0x571 SWAP2 SWAP1 PUSH2 0x202E JUMP JUMPDEST PUSH2 0x12D7 JUMP JUMPDEST PUSH1 0x40 MLOAD PUSH2 0x583 SWAP2 SWAP1 PUSH2 0x209B JUMP JUMPDEST PUSH1 0x40 MLOAD DUP1 SWAP2 SUB SWAP1 RETURN JUMPDEST PUSH2 0x594 PUSH2 0x13AB JUMP JUMPDEST PUSH1 0x40 MLOAD PUSH2 0x5A1 SWAP2 SWAP1 PUSH2 0x2068 JUMP JUMPDEST PUSH1 0x40 MLOAD DUP1 SWAP2 SUB SWAP1 RETURN JUMPDEST PUSH2 0x5B2 PUSH2 0x13B4 JUMP JUMPDEST PUSH1 0x40 MLOAD PUSH2 0x5BF SWAP2 SWAP1 PUSH2 0x209B JUMP JUMPDEST PUSH1 0x40 MLOAD DUP1 SWAP2 SUB SWAP1 RETURN JUMPDEST PUSH2 0x5E2 PUSH1 0x4 DUP1 CALLDATASIZE SUB DUP2 ADD SWAP1 PUSH2 0x5DD SWAP2 SWAP1 PUSH2 0x202E JUMP JUMPDEST PUSH2 0x13CA JUMP JUMPDEST PUSH1 0x40 MLOAD PUSH2 0x5EF SWAP2 SWAP1 PUSH2 0x2068 JUMP JUMPDEST PUSH1 0x40 MLOAD DUP1 SWAP2 SUB SWAP1 RETURN JUMPDEST PUSH2 0x612 PUSH1 0x4 DUP1 CALLDATASIZE SUB DUP2 ADD SWAP1 PUSH2 0x60D SWAP2 SWAP1 PUSH2 0x202E JUMP JUMPDEST PUSH2 0x13EA JUMP JUMPDEST PUSH1 0x40 MLOAD PUSH2 0x61F SWAP2 SWAP1 PUSH2 0x2068 JUMP JUMPDEST PUSH1 0x40 MLOAD DUP1 SWAP2 SUB SWAP1 RETURN JUMPDEST PUSH2 0x642 PUSH1 0x4 DUP1 CALLDATASIZE SUB DUP2 ADD SWAP1 PUSH2 0x63D SWAP2 SWAP1 PUSH2 0x2450 JUMP JUMPDEST PUSH2 0x13FF JUMP JUMPDEST PUSH1 0x40 MLOAD PUSH2 0x64F SWAP2 SWAP1 PUSH2 0x209B JUMP JUMPDEST PUSH1 0x40 MLOAD DUP1 SWAP2 SUB SWAP1 RETURN JUMPDEST PUSH2 0x660 PUSH2 0x1451 JUMP JUMPDEST PUSH1 0x40 MLOAD PUSH2 0x66D SWAP2 SWAP1 PUSH2 0x209B JUMP JUMPDEST PUSH1 0x40 MLOAD DUP1 SWAP2 SUB SWAP1 RETURN JUMPDEST PUSH2 0x690 PUSH1 0x4 DUP1 CALLDATASIZE SUB DUP2 ADD SWAP1 PUSH2 0x68B SWAP2 SWAP1 PUSH2 0x202E JUMP JUMPDEST PUSH2 0x1459 JUMP JUMPDEST PUSH1 0x40 MLOAD PUSH2 0x69D SWAP2 SWAP1 PUSH2 0x2068 JUMP JUMPDEST PUSH1 0x40 MLOAD DUP1 SWAP2 SUB SWAP1 RETURN JUMPDEST PUSH2 0x6C0 PUSH1 0x4 DUP1 CALLDATASIZE SUB DUP2 ADD SWAP1 PUSH2 0x6BB SWAP2 SWAP1 PUSH2 0x202E JUMP JUMPDEST PUSH2 0x14C4 JUMP JUMPDEST PUSH1 0x40 MLOAD PUSH2 0x6CD SWAP2 SWAP1 PUSH2 0x2068 JUMP JUMPDEST PUSH1 0x40 MLOAD DUP1 SWAP2 SUB SWAP1 RETURN JUMPDEST PUSH2 0x6F0 PUSH1 0x4 DUP1 CALLDATASIZE SUB DUP2 ADD SWAP1 PUSH2 0x6EB SWAP2 SWAP1 PUSH2 0x202E JUMP JUMPDEST PUSH2 0x14E6 JUMP JUMPDEST PUSH1 0x40 MLOAD PUSH2 0x6FD SWAP2 SWAP1 PUSH2 0x2068 JUMP JUMPDEST PUSH1 0x40 MLOAD DUP1 SWAP2 SUB SWAP1 RETURN JUMPDEST PUSH2 0x720 PUSH1 0x4 DUP1 CALLDATASIZE SUB DUP2 ADD SWAP1 PUSH2 0x71B SWAP2 SWAP1 PUSH2 0x202E JUMP JUMPDEST PUSH2 0x167A JUMP JUMPDEST PUSH1 0x40 MLOAD PUSH2 0x72D SWAP2 SWAP1 PUSH2 0x2068 JUMP JUMPDEST PUSH1 0x40 MLOAD DUP1 SWAP2 SUB SWAP1 RETURN JUMPDEST PUSH2 0x73E PUSH2 0x16B3 JUMP JUMPDEST STOP JUMPDEST PUSH2 0x75A PUSH1 0x4 DUP1 CALLDATASIZE SUB DUP2 ADD SWAP1 PUSH2 0x755 SWAP2 SWAP1 PUSH2 0x2641 JUMP JUMPDEST PUSH2 0x189B JUMP JUMPDEST PUSH1 0x40 MLOAD PUSH2 0x767 SWAP2 SWAP1 PUSH2 0x2068 JUMP JUMPDEST PUSH1 0x40 MLOAD DUP1 SWAP2 SUB SWAP1 RETURN JUMPDEST PUSH2 0x778 PUSH2 0x18BB JUMP JUMPDEST PUSH1 0x40 MLOAD PUSH2 0x785 SWAP2 SWAP1 PUSH2 0x2736 JUMP JUMPDEST PUSH1 0x40 MLOAD DUP1 SWAP2 SUB SWAP1 RETURN JUMPDEST PUSH2 0x7A8 PUSH1 0x4 DUP1 CALLDATASIZE SUB DUP2 ADD SWAP1 PUSH2 0x7A3 SWAP2 SWAP1 PUSH2 0x2450 JUMP JUMPDEST PUSH2 0x18DA JUMP JUMPDEST STOP JUMPDEST PUSH2 0x7C4 PUSH1 0x4 DUP1 CALLDATASIZE SUB DUP2 ADD SWAP1 PUSH2 0x7BF SWAP2 SWAP1 PUSH2 0x202E JUMP JUMPDEST PUSH2 0x195C JUMP JUMPDEST PUSH1 0x40 MLOAD PUSH2 0x7D5 SWAP6 SWAP5 SWAP4 SWAP3 SWAP2 SWAP1 PUSH2 0x2756 JUMP JUMPDEST PUSH1 0x40 MLOAD DUP1 SWAP2 SUB SWAP1 RETURN JUMPDEST PUSH2 0x7F8 PUSH1 0x4 DUP1 CALLDATASIZE SUB DUP2 ADD SWAP1 PUSH2 0x7F3 SWAP2 SWAP1 PUSH2 0x2641 JUMP JUMPDEST PUSH2 0x198E JUMP JUMPDEST PUSH1 0x40 MLOAD PUSH2 0x805 SWAP2 SWAP1 PUSH2 0x2736 JUMP JUMPDEST PUSH1 0x40 MLOAD DUP1 SWAP2 SUB SWAP1 RETURN JUMPDEST PUSH1 0xB PUSH1 0x20 MSTORE DUP1 PUSH0 MSTORE PUSH1 0x40 PUSH0 KECCAK256 PUSH0 SWAP2 POP SWAP1 POP SLOAD DUP2 JUMP JUMPDEST PUSH0 PUSH1 0x5 DUP1 SLOAD SWAP1 POP SWAP1 POP SWAP1 JUMP JUMPDEST PUSH0 DUP1 PUSH1 0x9 PUSH0 PUSH2 0x83C PUSH2 0x10E2 JUMP JUMPDEST DUP2 MSTORE PUSH1 0x20 ADD SWAP1 DUP2 MSTORE PUSH1 0x20 ADD PUSH0 KECCAK256 PUSH1 0x3 ADD SLOAD GT ISZERO PUSH2 0x85B JUMPI PUSH0 SWAP1 POP PUSH2 0x860 JUMP JUMPDEST PUSH1 0x1 SWAP1 POP JUMPDEST SWAP1 JUMP JUMPDEST PUSH0 PUSH2 0x86C PUSH2 0x1C6D JUMP JUMPDEST PUSH20 0xFFFFFFFFFFFFFFFFFFFFFFFFFFFFFFFFFFFFFFFF AND PUSH1 0x4 PUSH0 SWAP1 SLOAD SWAP1 PUSH2 0x100 EXP SWAP1 DIV PUSH20 0xFFFFFFFFFFFFFFFFFFFFFFFFFFFFFFFFFFFFFFFF AND PUSH20 0xFFFFFFFFFFFFFFFFFFFFFFFFFFFFFFFFFFFFFFFF AND EQ PUSH2 0x8FA JUMPI PUSH1 0x40 MLOAD PUSH32 0x8C379A000000000000000000000000000000000000000000000000000000000 DUP2 MSTORE PUSH1 0x4 ADD PUSH2 0x8F1 SWAP1 PUSH2 0x2827 JUMP JUMPDEST PUSH1 0x40 MLOAD DUP1 SWAP2 SUB SWAP1 REVERT JUMPDEST DUP3 DUP3 SWAP1 POP DUP6 DUP6 SWAP1 POP EQ PUSH2 0x942 JUMPI PUSH1 0x40 MLOAD PUSH32 0x8C379A000000000000000000000000000000000000000000000000000000000 DUP2 MSTORE PUSH1 0x4 ADD PUSH2 0x939 SWAP1 PUSH2 0x28B5 JUMP JUMPDEST PUSH1 0x40 MLOAD DUP1 SWAP2 SUB SWAP1 REVERT JUMPDEST PUSH0 JUMPDEST DUP6 DUP6 SWAP1 POP DUP2 LT ISZERO PUSH2 0xC6E JUMPI PUSH0 DUP5 DUP5 DUP4 DUP2 DUP2 LT PUSH2 0x963 JUMPI PUSH2 0x962 PUSH2 0x28D3 JUMP JUMPDEST JUMPDEST SWAP1 POP PUSH1 0x20 MUL ADD CALLDATALOAD GT PUSH2 0x9AA JUMPI PUSH1 0x40 MLOAD PUSH32 0x8C379A000000000000000000000000000000000000000000000000000000000 DUP2 MSTORE PUSH1 0x4 ADD PUSH2 0x9A1 SWAP1 PUSH2 0x2970 JUMP JUMPDEST PUSH1 0x40 MLOAD DUP1 SWAP2 SUB SWAP1 REVERT JUMPDEST DUP4 DUP4 DUP3 DUP2 DUP2 LT PUSH2 0x9BD JUMPI PUSH2 0x9BC PUSH2 0x28D3 JUMP JUMPDEST JUMPDEST SWAP1 POP PUSH1 0x20 MUL ADD CALLDATALOAD PUSH1 0x7 PUSH0 DUP3 DUP3 SLOAD PUSH2 0x9D4 SWAP2 SWAP1 PUSH2 0x29BB JUMP JUMPDEST SWAP3 POP POP DUP2 SWAP1 SSTORE POP PUSH1 0x5 PUSH1 0x7 SLOAD SWAP1 DUP1 PUSH1 0x1 DUP2 SLOAD ADD DUP1 DUP3 SSTORE DUP1 SWAP2 POP POP PUSH1 0x1 SWAP1 SUB SWAP1 PUSH0 MSTORE PUSH1 0x20 PUSH0 KECCAK256 ADD PUSH0 SWAP1 SWAP2 SWAP1 SWAP2 SWAP1 SWAP2 POP SSTORE PUSH1 0x6 DUP7 DUP7 DUP4 DUP2 DUP2 LT PUSH2 0xA18 JUMPI PUSH2 0xA17 PUSH2 0x28D3 JUMP JUMPDEST JUMPDEST SWAP1 POP PUSH1 0x20 MUL ADD PUSH1 0x20 DUP2 ADD SWAP1 PUSH2 0xA2D SWAP2 SWAP1 PUSH2 0x2450 JUMP JUMPDEST SWAP1 DUP1 PUSH1 0x1 DUP2 SLOAD ADD DUP1 DUP3 SSTORE DUP1 SWAP2 POP POP PUSH1 0x1 SWAP1 SUB SWAP1 PUSH0 MSTORE PUSH1 0x20 PUSH0 KECCAK256 ADD PUSH0 SWAP1 SWAP2 SWAP1 SWAP2 SWAP1 SWAP2 PUSH2 0x100 EXP DUP2 SLOAD DUP2 PUSH20 0xFFFFFFFFFFFFFFFFFFFFFFFFFFFFFFFFFFFFFFFF MUL NOT AND SWAP1 DUP4 PUSH20 0xFFFFFFFFFFFFFFFFFFFFFFFFFFFFFFFFFFFFFFFF AND MUL OR SWAP1 SSTORE POP PUSH1 0xA PUSH0 DUP8 DUP8 DUP5 DUP2 DUP2 LT PUSH2 0xAA0 JUMPI PUSH2 0xA9F PUSH2 0x28D3 JUMP JUMPDEST JUMPDEST SWAP1 POP PUSH1 0x20 MUL ADD PUSH1 0x20 DUP2 ADD SWAP1 PUSH2 0xAB5 SWAP2 SWAP1 PUSH2 0x2450 JUMP JUMPDEST PUSH20 0xFFFFFFFFFFFFFFFFFFFFFFFFFFFFFFFFFFFFFFFF AND PUSH20 0xFFFFFFFFFFFFFFFFFFFFFFFFFFFFFFFFFFFFFFFF AND DUP2 MSTORE PUSH1 0x20 ADD SWAP1 DUP2 MSTORE PUSH1 0x20 ADD PUSH0 KECCAK256 PUSH0 PUSH2 0xAF7 PUSH2 0x10E2 JUMP JUMPDEST DUP2 MSTORE PUSH1 0x20 ADD SWAP1 DUP2 MSTORE PUSH1 0x20 ADD PUSH0 KECCAK256 PUSH1 0x1 PUSH1 0x5 DUP1 SLOAD SWAP1 POP PUSH2 0xB16 SWAP2 SWAP1 PUSH2 0x29EE JUMP JUMPDEST SWAP1 DUP1 PUSH1 0x1 DUP2 SLOAD ADD DUP1 DUP3 SSTORE DUP1 SWAP2 POP POP PUSH1 0x1 SWAP1 SUB SWAP1 PUSH0 MSTORE PUSH1 0x20 PUSH0 KECCAK256 ADD PUSH0 SWAP1 SWAP2 SWAP1 SWAP2 SWAP1 SWAP2 POP SSTORE DUP4 DUP4 DUP3 DUP2 DUP2 LT PUSH2 0xB4C JUMPI PUSH2 0xB4B PUSH2 0x28D3 JUMP JUMPDEST JUMPDEST SWAP1 POP PUSH1 0x20 MUL ADD CALLDATALOAD PUSH1 0xE PUSH0 DUP9 DUP9 DUP6 DUP2 DUP2 LT PUSH2 0xB69 JUMPI PUSH2 0xB68 PUSH2 0x28D3 JUMP JUMPDEST JUMPDEST SWAP1 POP PUSH1 0x20 MUL ADD PUSH1 0x20 DUP2 ADD SWAP1 PUSH2 0xB7E SWAP2 SWAP1 PUSH2 0x2450 JUMP JUMPDEST PUSH20 0xFFFFFFFFFFFFFFFFFFFFFFFFFFFFFFFFFFFFFFFF AND PUSH20 0xFFFFFFFFFFFFFFFFFFFFFFFFFFFFFFFFFFFFFFFF AND DUP2 MSTORE PUSH1 0x20 ADD SWAP1 DUP2 MSTORE PUSH1 0x20 ADD PUSH0 KECCAK256 PUSH0 PUSH2 0xBC0 PUSH2 0x10E2 JUMP JUMPDEST DUP2 MSTORE PUSH1 0x20 ADD SWAP1 DUP2 MSTORE PUSH1 0x20 ADD PUSH0 KECCAK256 PUSH0 DUP3 DUP3 SLOAD PUSH2 0xBDB SWAP2 SWAP1 PUSH2 0x29BB JUMP JUMPDEST SWAP3 POP POP DUP2 SWAP1 SSTORE POP PUSH32 0x82984AA63633B44E8D3D556AD849611E75E0FBA83227EB22F9BDAFD013039F82 DUP7 DUP7 DUP4 DUP2 DUP2 LT PUSH2 0xC16 JUMPI PUSH2 0xC15 PUSH2 0x28D3 JUMP JUMPDEST JUMPDEST SWAP1 POP PUSH1 0x20 MUL ADD PUSH1 0x20 DUP2 ADD SWAP1 PUSH2 0xC2B SWAP2 SWAP1 PUSH2 0x2450 JUMP JUMPDEST DUP6 DUP6 DUP5 DUP2 DUP2 LT PUSH2 0xC3E JUMPI PUSH2 0xC3D PUSH2 0x28D3 JUMP JUMPDEST JUMPDEST SWAP1 POP PUSH1 0x20 MUL ADD CALLDATALOAD PUSH1 0x40 MLOAD PUSH2 0xC53 SWAP3 SWAP2 SWAP1 PUSH2 0x2A21 JUMP JUMPDEST PUSH1 0x40 MLOAD DUP1 SWAP2 SUB SWAP1 LOG1 DUP1 DUP1 PUSH2 0xC66 SWAP1 PUSH2 0x2A48 JUMP JUMPDEST SWAP2 POP POP PUSH2 0x944 JUMP JUMPDEST POP PUSH1 0x1 SWAP1 POP SWAP5 SWAP4 POP POP POP POP JUMP JUMPDEST PUSH0 DUP7 DUP7 DUP7 DUP7 DUP7 DUP7 PUSH1 0x40 MLOAD PUSH1 0x20 ADD PUSH2 0xC97 SWAP7 SWAP6 SWAP5 SWAP4 SWAP3 SWAP2 SWAP1 PUSH2 0x2B60 JUMP JUMPDEST PUSH1 0x40 MLOAD PUSH1 0x20 DUP2 DUP4 SUB SUB DUP2 MSTORE SWAP1 PUSH1 0x40 MSTORE DUP1 MLOAD SWAP1 PUSH1 0x20 ADD KECCAK256 SWAP1 POP SWAP7 SWAP6 POP POP POP POP POP POP JUMP JUMPDEST PUSH1 0x4 PUSH1 0x14 SWAP1 SLOAD SWAP1 PUSH2 0x100 EXP SWAP1 DIV PUSH1 0xFF AND DUP2 JUMP JUMPDEST PUSH0 PUSH2 0xCD5 PUSH2 0x1C6D JUMP JUMPDEST PUSH20 0xFFFFFFFFFFFFFFFFFFFFFFFFFFFFFFFFFFFFFFFF AND PUSH1 0x4 PUSH0 SWAP1 SLOAD SWAP1 PUSH2 0x100 EXP SWAP1 DIV PUSH20 0xFFFFFFFFFFFFFFFFFFFFFFFFFFFFFFFFFFFFFFFF AND PUSH20 0xFFFFFFFFFFFFFFFFFFFFFFFFFFFFFFFFFFFFFFFF AND EQ PUSH2 0xD63 JUMPI PUSH1 0x40 MLOAD PUSH32 0x8C379A000000000000000000000000000000000000000000000000000000000 DUP2 MSTORE PUSH1 0x4 ADD PUSH2 0xD5A SWAP1 PUSH2 0x2827 JUMP JUMPDEST PUSH1 0x40 MLOAD DUP1 SWAP2 SUB SWAP1 REVERT JUMPDEST DUP2 PUSH1 0x9 PUSH0 PUSH2 0xD6F PUSH2 0x10E2 JUMP JUMPDEST DUP2 MSTORE PUSH1 0x20 ADD SWAP1 DUP2 MSTORE PUSH1 0x20 ADD PUSH0 KECCAK256 PUSH1 0x3 ADD DUP2 SWAP1 SSTORE POP PUSH1 0x1 SWAP1 POP SWAP2 SWAP1 POP JUMP JUMPDEST PUSH1 0xD PUSH1 0x20 MSTORE DUP1 PUSH0 MSTORE PUSH1 0x40 PUSH0 KECCAK256 PUSH0 SWAP2 POP SWAP1 POP SLOAD DUP2 JUMP JUMPDEST PUSH0 DUP1 CHAINID SWAP1 POP DUP1 SWAP2 POP POP SWAP1 JUMP JUMPDEST PUSH1 0x6 DUP2 DUP2 SLOAD DUP2 LT PUSH2 0xDBC JUMPI PUSH0 DUP1 REVERT JUMPDEST SWAP1 PUSH0 MSTORE PUSH1 0x20 PUSH0 KECCAK256 ADD PUSH0 SWAP2 POP SLOAD SWAP1 PUSH2 0x100 EXP SWAP1 DIV PUSH20 0xFFFFFFFFFFFFFFFFFFFFFFFFFFFFFFFFFFFFFFFF AND DUP2 JUMP JUMPDEST PUSH0 PUSH1 0x1 PUSH1 0x5 DUP1 SLOAD SWAP1 POP PUSH2 0xDFB SWAP2 SWAP1 PUSH2 0x29EE JUMP JUMPDEST PUSH1 0x9 PUSH0 PUSH2 0xE06 PUSH2 0x10E2 JUMP JUMPDEST DUP2 MSTORE PUSH1 0x20 ADD SWAP1 DUP2 MSTORE PUSH1 0x20 ADD PUSH0 KECCAK256 PUSH1 0x2 ADD DUP2 SWAP1 SSTORE POP PUSH2 0xE22 PUSH2 0x1451 JUMP JUMPDEST POP PUSH1 0x1 SWAP1 POP SWAP1 JUMP JUMPDEST PUSH0 TIMESTAMP DUP6 LT ISZERO PUSH2 0xE6E JUMPI PUSH1 0x40 MLOAD PUSH32 0x8C379A000000000000000000000000000000000000000000000000000000000 DUP2 MSTORE PUSH1 0x4 ADD PUSH2 0xE65 SWAP1 PUSH2 0x2C15 JUMP JUMPDEST PUSH1 0x40 MLOAD DUP1 SWAP2 SUB SWAP1 REVERT JUMPDEST PUSH0 PUSH1 0x8 PUSH0 DUP9 PUSH20 0xFFFFFFFFFFFFFFFFFFFFFFFFFFFFFFFFFFFFFFFF AND PUSH20 0xFFFFFFFFFFFFFFFFFFFFFFFFFFFFFFFFFFFFFFFF AND DUP2 MSTORE PUSH1 0x20 ADD SWAP1 DUP2 MSTORE PUSH1 0x20 ADD PUSH0 KECCAK256 PUSH0 DUP2 SLOAD DUP1 SWAP3 SWAP2 SWAP1 PUSH2 0xEBC SWAP1 PUSH2 0x2A48 JUMP JUMPDEST SWAP2 SWAP1 POP SSTORE SWAP1 POP PUSH0 PUSH2 0xECB PUSH2 0xDA1 JUMP JUMPDEST SWAP1 POP PUSH0 PUSH2 0xF11 DUP3 ADDRESS DUP12 DUP12 DUP8 PUSH1 0x40 MLOAD DUP1 PUSH1 0x40 ADD PUSH1 0x40 MSTORE DUP1 PUSH1 0x12 DUP2 MSTORE PUSH1 0x20 ADD PUSH32 0x72656C61795265717565737452657665616C0000000000000000000000000000 DUP2 MSTORE POP PUSH2 0xC7B JUMP JUMPDEST SWAP1 POP PUSH2 0xF20 DUP10 DUP3 DUP10 DUP10 DUP10 PUSH2 0x124B JUMP JUMPDEST PUSH2 0xF5F JUMPI PUSH1 0x40 MLOAD PUSH32 0x8C379A000000000000000000000000000000000000000000000000000000000 DUP2 MSTORE PUSH1 0x4 ADD PUSH2 0xF56 SWAP1 PUSH2 0x2C7D JUMP JUMPDEST PUSH1 0x40 MLOAD DUP1 SWAP2 SUB SWAP1 REVERT JUMPDEST PUSH2 0xF68 DUP10 PUSH2 0x1C74 JUMP JUMPDEST POP PUSH32 0x70F2A35E5797523ED95E6F73A8EBB18140A58C70016B3B0E7C350FB47035701B DUP10 PUSH1 0x40 MLOAD PUSH2 0xF98 SWAP2 SWAP1 PUSH2 0x248A JUMP JUMPDEST PUSH1 0x40 MLOAD DUP1 SWAP2 SUB SWAP1 LOG1 PUSH1 0x1 SWAP4 POP POP POP POP SWAP6 SWAP5 POP POP POP POP POP JUMP JUMPDEST PUSH0 DUP1 DUP3 SUB PUSH2 0xFC0 JUMPI PUSH0 SWAP1 POP PUSH2 0x104E JUMP JUMPDEST PUSH0 JUMPDEST PUSH1 0x5 DUP1 SLOAD SWAP1 POP DUP2 LT ISZERO PUSH2 0x1049 JUMPI PUSH1 0x5 DUP2 DUP2 SLOAD DUP2 LT PUSH2 0xFE3 JUMPI PUSH2 0xFE2 PUSH2 0x28D3 JUMP JUMPDEST JUMPDEST SWAP1 PUSH0 MSTORE PUSH1 0x20 PUSH0 KECCAK256 ADD SLOAD DUP4 GT PUSH2 0x1036 JUMPI PUSH1 0x6 DUP2 DUP2 SLOAD DUP2 LT PUSH2 0x1006 JUMPI PUSH2 0x1005 PUSH2 0x28D3 JUMP JUMPDEST JUMPDEST SWAP1 PUSH0 MSTORE PUSH1 0x20 PUSH0 KECCAK256 ADD PUSH0 SWAP1 SLOAD SWAP1 PUSH2 0x100 EXP SWAP1 DIV PUSH20 0xFFFFFFFFFFFFFFFFFFFFFFFFFFFFFFFFFFFFFFFF AND SWAP2 POP POP PUSH2 0x104E JUMP JUMPDEST DUP1 DUP1 PUSH2 0x1041 SWAP1 PUSH2 0x2A48 JUMP JUMPDEST SWAP2 POP POP PUSH2 0xFC2 JUMP JUMPDEST POP PUSH0 SWAP1 POP JUMPDEST SWAP2 SWAP1 POP JUMP JUMPDEST PUSH2 0x105B PUSH2 0x1E65 JUMP JUMPDEST PUSH2 0x1064 PUSH0 PUSH2 0x1EE3 JUMP JUMPDEST JUMP JUMPDEST PUSH0 PUSH1 0x8 PUSH0 DUP4 PUSH20 0xFFFFFFFFFFFFFFFFFFFFFFFFFFFFFFFFFFFFFFFF AND PUSH20 0xFFFFFFFFFFFFFFFFFFFFFFFFFFFFFFFFFFFFFFFF AND DUP2 MSTORE PUSH1 0x20 ADD SWAP1 DUP2 MSTORE PUSH1 0x20 ADD PUSH0 KECCAK256 SLOAD SWAP1 POP SWAP2 SWAP1 POP JUMP JUMPDEST PUSH1 0xA PUSH1 0x20 MSTORE DUP3 PUSH0 MSTORE PUSH1 0x40 PUSH0 KECCAK256 PUSH1 0x20 MSTORE DUP2 PUSH0 MSTORE PUSH1 0x40 PUSH0 KECCAK256 DUP2 DUP2 SLOAD DUP2 LT PUSH2 0x10CF JUMPI PUSH0 DUP1 REVERT JUMPDEST SWAP1 PUSH0 MSTORE PUSH1 0x20 PUSH0 KECCAK256 ADD PUSH0 SWAP3 POP SWAP3 POP POP POP SLOAD DUP2 JUMP JUMPDEST PUSH0 PUSH1 0x2 SLOAD SWAP1 POP SWAP1 JUMP JUMPDEST PUSH0 DUP1 PUSH0 SWAP1 SLOAD SWAP1 PUSH2 0x100 EXP SWAP1 DIV PUSH20 0xFFFFFFFFFFFFFFFFFFFFFFFFFFFFFFFFFFFFFFFF AND SWAP1 POP SWAP1 JUMP JUMPDEST PUSH0 PUSH2 0x111B PUSH2 0x1C6D JUMP JUMPDEST PUSH20 0xFFFFFFFFFFFFFFFFFFFFFFFFFFFFFFFFFFFFFFFF AND PUSH1 0x4 PUSH0 SWAP1 SLOAD SWAP1 PUSH2 0x100 EXP SWAP1 DIV PUSH20 0xFFFFFFFFFFFFFFFFFFFFFFFFFFFFFFFFFFFFFFFF AND PUSH20 0xFFFFFFFFFFFFFFFFFFFFFFFFFFFFFFFFFFFFFFFF AND EQ PUSH2 0x11A9 JUMPI PUSH1 0x40 MLOAD PUSH32 0x8C379A000000000000000000000000000000000000000000000000000000000 DUP2 MSTORE PUSH1 0x4 ADD PUSH2 0x11A0 SWAP1 PUSH2 0x2827 JUMP JUMPDEST PUSH1 0x40 MLOAD DUP1 SWAP2 SUB SWAP1 REVERT JUMPDEST PUSH1 0x2 PUSH0 DUP2 SLOAD DUP1 SWAP3 SWAP2 SWAP1 PUSH2 0x11BB SWAP1 PUSH2 0x2A48 JUMP JUMPDEST SWAP2 SWAP1 POP SSTORE POP PUSH0 PUSH2 0x11C9 PUSH2 0x10E2 JUMP JUMPDEST SWAP1 POP PUSH1 0x40 MLOAD DUP1 PUSH1 0xA0 ADD PUSH1 0x40 MSTORE DUP1 DUP3 DUP2 MSTORE PUSH1 0x20 ADD PUSH2 0x11E4 PUSH2 0x823 JUMP JUMPDEST DUP2 MSTORE PUSH1 0x20 ADD PUSH0 DUP2 MSTORE PUSH1 0x20 ADD PUSH0 DUP2 MSTORE PUSH1 0x20 ADD PUSH2 0x11FD PUSH2 0x1FA4 JUMP JUMPDEST DUP2 MSTORE POP PUSH1 0x9 PUSH0 DUP4 DUP2 MSTORE PUSH1 0x20 ADD SWAP1 DUP2 MSTORE PUSH1 0x20 ADD PUSH0 KECCAK256 PUSH0 DUP3 ADD MLOAD DUP2 PUSH0 ADD SSTORE PUSH1 0x20 DUP3 ADD MLOAD DUP2 PUSH1 0x1 ADD SSTORE PUSH1 0x40 DUP3 ADD MLOAD DUP2 PUSH1 0x2 ADD SSTORE PUSH1 0x60 DUP3 ADD MLOAD DUP2 PUSH1 0x3 ADD SSTORE PUSH1 0x80 DUP3 ADD MLOAD DUP2 PUSH1 0x4 ADD SSTORE SWAP1 POP POP DUP1 SWAP2 POP POP SWAP1 JUMP JUMPDEST PUSH0 DUP6 PUSH20 0xFFFFFFFFFFFFFFFFFFFFFFFFFFFFFFFFFFFFFFFF AND PUSH1 0x1 DUP7 DUP7 DUP7 DUP7 PUSH1 0x40 MLOAD PUSH0 DUP2 MSTORE PUSH1 0x20 ADD PUSH1 0x40 MSTORE PUSH1 0x40 MLOAD PUSH2 0x1285 SWAP5 SWAP4 SWAP3 SWAP2 SWAP1 PUSH2 0x2CAA JUMP JUMPDEST PUSH1 0x20 PUSH1 0x40 MLOAD PUSH1 0x20 DUP2 SUB SWAP1 DUP1 DUP5 SUB SWAP1 DUP6 GAS STATICCALL ISZERO DUP1 ISZERO PUSH2 0x12A5 JUMPI RETURNDATASIZE PUSH0 DUP1 RETURNDATACOPY RETURNDATASIZE PUSH0 REVERT JUMPDEST POP POP POP PUSH1 0x20 PUSH1 0x40 MLOAD SUB MLOAD PUSH20 0xFFFFFFFFFFFFFFFFFFFFFFFFFFFFFFFFFFFFFFFF AND EQ SWAP1 POP SWAP6 SWAP5 POP POP POP POP POP JUMP JUMPDEST PUSH1 0x7 SLOAD DUP2 JUMP JUMPDEST PUSH0 PUSH2 0x12E0 PUSH2 0x1C6D JUMP JUMPDEST PUSH20 0xFFFFFFFFFFFFFFFFFFFFFFFFFFFFFFFFFFFFFFFF AND PUSH1 0x4 PUSH0 SWAP1 SLOAD SWAP1 PUSH2 0x100 EXP SWAP1 DIV PUSH20 0xFFFFFFFFFFFFFFFFFFFFFFFFFFFFFFFFFFFFFFFF AND PUSH20 0xFFFFFFFFFFFFFFFFFFFFFFFFFFFFFFFFFFFFFFFF AND EQ PUSH2 0x136E JUMPI PUSH1 0x40 MLOAD PUSH32 0x8C379A000000000000000000000000000000000000000000000000000000000 DUP2 MSTORE PUSH1 0x4 ADD PUSH2 0x1365 SWAP1 PUSH2 0x2827 JUMP JUMPDEST PUSH1 0x40 MLOAD DUP1 SWAP2 SUB SWAP1 REVERT JUMPDEST DUP2 PUSH1 0xC PUSH0 PUSH2 0x137A PUSH2 0x13AB JUMP JUMPDEST DUP2 MSTORE PUSH1 0x20 ADD SWAP1 DUP2 MSTORE PUSH1 0x20 ADD PUSH0 KECCAK256 DUP2 SWAP1 SSTORE POP PUSH1 0x3 PUSH0 DUP2 SLOAD DUP1 SWAP3 SWAP2 SWAP1 PUSH2 0x139D SWAP1 PUSH2 0x2A48 JUMP JUMPDEST SWAP2 SWAP1 POP SSTORE POP PUSH1 0x1 SWAP1 POP SWAP2 SWAP1 POP JUMP JUMPDEST PUSH0 PUSH1 0x3 SLOAD SWAP1 POP SWAP1 JUMP JUMPDEST PUSH0 PUSH2 0x13C5 PUSH2 0x13C0 PUSH2 0x1C6D JUMP JUMPDEST PUSH2 0x1C74 JUMP JUMPDEST SWAP1 POP SWAP1 JUMP JUMPDEST PUSH1 0x5 DUP2 DUP2 SLOAD DUP2 LT PUSH2 0x13D9 JUMPI PUSH0 DUP1 REVERT JUMPDEST SWAP1 PUSH0 MSTORE PUSH1 0x20 PUSH0 KECCAK256 ADD PUSH0 SWAP2 POP SWAP1 POP SLOAD DUP2 JUMP JUMPDEST PUSH1 0xC PUSH1 0x20 MSTORE DUP1 PUSH0 MSTORE PUSH1 0x40 PUSH0 KECCAK256 PUSH0 SWAP2 POP SWAP1 POP SLOAD DUP2 JUMP JUMPDEST PUSH0 PUSH2 0x1408 PUSH2 0x1E65 JUMP JUMPDEST DUP2 PUSH1 0x4 PUSH0 PUSH2 0x100 EXP DUP2 SLOAD DUP2 PUSH20 0xFFFFFFFFFFFFFFFFFFFFFFFFFFFFFFFFFFFFFFFF MUL NOT AND SWAP1 DUP4 PUSH20 0xFFFFFFFFFFFFFFFFFFFFFFFFFFFFFFFFFFFFFFFF AND MUL OR SWAP1 SSTORE POP PUSH1 0x1 SWAP1 POP SWAP2 SWAP1 POP JUMP JUMPDEST PUSH0 PUSH1 0x1 SWAP1 POP SWAP1 JUMP JUMPDEST PUSH0 DUP1 PUSH1 0xC PUSH0 PUSH2 0x1467 DUP6 PUSH2 0x14C4 JUMP JUMPDEST DUP2 MSTORE PUSH1 0x20 ADD SWAP1 DUP2 MSTORE PUSH1 0x20 ADD PUSH0 KECCAK256 SLOAD SWAP1 POP PUSH0 DUP2 GT ISZERO PUSH2 0x14BA JUMPI PUSH2 0x14B2 DUP2 DUP5 PUSH1 0x40 MLOAD PUSH1 0x20 ADD PUSH2 0x1495 SWAP3 SWAP2 SWAP1 PUSH2 0x2CED JUMP JUMPDEST PUSH1 0x40 MLOAD PUSH1 0x20 DUP2 DUP4 SUB SUB DUP2 MSTORE SWAP1 PUSH1 0x40 MSTORE DUP1 MLOAD SWAP1 PUSH1 0x20 ADD KECCAK256 PUSH0 SHR PUSH2 0x167A JUMP JUMPDEST SWAP2 POP POP PUSH2 0x14BF JUMP JUMPDEST PUSH0 SWAP2 POP POP JUMPDEST SWAP2 SWAP1 POP JUMP JUMPDEST PUSH0 PUSH1 0xB PUSH0 PUSH2 0x14D1 DUP5 PUSH2 0x14E6 JUMP JUMPDEST DUP2 MSTORE PUSH1 0x20 ADD SWAP1 DUP2 MSTORE PUSH1 0x20 ADD PUSH0 KECCAK256 SLOAD SWAP1 POP SWAP2 SWAP1 POP JUMP JUMPDEST PUSH0 DUP1 DUP3 GT DUP1 ISZERO PUSH2 0x14F8 JUMPI POP PUSH1 0x7 SLOAD DUP3 GT ISZERO JUMPDEST PUSH2 0x1537 JUMPI PUSH1 0x40 MLOAD PUSH32 0x8C379A000000000000000000000000000000000000000000000000000000000 DUP2 MSTORE PUSH1 0x4 ADD PUSH2 0x152E SWAP1 PUSH2 0x2D88 JUMP JUMPDEST PUSH1 0x40 MLOAD DUP1 SWAP2 SUB SWAP1 REVERT JUMPDEST PUSH0 PUSH1 0x5 DUP1 SLOAD SWAP1 POP GT PUSH2 0x157E JUMPI PUSH1 0x40 MLOAD PUSH32 0x8C379A000000000000000000000000000000000000000000000000000000000 DUP2 MSTORE PUSH1 0x4 ADD PUSH2 0x1575 SWAP1 PUSH2 0x2DF0 JUMP JUMPDEST PUSH1 0x40 MLOAD DUP1 SWAP2 SUB SWAP1 REVERT JUMPDEST PUSH0 PUSH1 0x1 PUSH1 0x5 DUP1 SLOAD SWAP1 POP PUSH2 0x1591 SWAP2 SWAP1 PUSH2 0x29EE JUMP JUMPDEST SWAP1 POP JUMPDEST PUSH0 DUP2 LT PUSH2 0x1639 JUMPI PUSH0 DUP1 DUP3 SUB PUSH2 0x15AC JUMPI PUSH1 0x1 SWAP1 POP PUSH2 0x15E4 JUMP JUMPDEST PUSH1 0x1 PUSH1 0x5 PUSH1 0x1 DUP5 PUSH2 0x15BD SWAP2 SWAP1 PUSH2 0x29EE JUMP JUMPDEST DUP2 SLOAD DUP2 LT PUSH2 0x15CE JUMPI PUSH2 0x15CD PUSH2 0x28D3 JUMP JUMPDEST JUMPDEST SWAP1 PUSH0 MSTORE PUSH1 0x20 PUSH0 KECCAK256 ADD SLOAD PUSH2 0x15E1 SWAP2 SWAP1 PUSH2 0x29BB JUMP JUMPDEST SWAP1 POP JUMPDEST PUSH0 PUSH1 0x5 DUP4 DUP2 SLOAD DUP2 LT PUSH2 0x15F9 JUMPI PUSH2 0x15F8 PUSH2 0x28D3 JUMP JUMPDEST JUMPDEST SWAP1 PUSH0 MSTORE PUSH1 0x20 PUSH0 KECCAK256 ADD SLOAD SWAP1 POP DUP1 DUP6 GT ISZERO DUP1 ISZERO PUSH2 0x1614 JUMPI POP DUP2 DUP6 LT ISZERO JUMPDEST ISZERO PUSH2 0x1624 JUMPI DUP3 SWAP4 POP POP POP POP PUSH2 0x1675 JUMP JUMPDEST POP POP DUP1 DUP1 PUSH2 0x1631 SWAP1 PUSH2 0x2E0E JUMP JUMPDEST SWAP2 POP POP PUSH2 0x1594 JUMP JUMPDEST POP PUSH1 0x40 MLOAD PUSH32 0x8C379A000000000000000000000000000000000000000000000000000000000 DUP2 MSTORE PUSH1 0x4 ADD PUSH2 0x166C SWAP1 PUSH2 0x2E7F JUMP JUMPDEST PUSH1 0x40 MLOAD DUP1 SWAP2 SUB SWAP1 REVERT JUMPDEST SWAP2 SWAP1 POP JUMP JUMPDEST PUSH0 DUP1 PUSH3 0xF4240 DUP4 PUSH2 0x168B SWAP2 SWAP1 PUSH2 0x2ECA JUMP JUMPDEST SWAP1 POP PUSH3 0x186A0 DUP2 LT ISZERO PUSH2 0x16AA JUMPI PUSH3 0x186A0 DUP2 PUSH2 0x16A7 SWAP2 SWAP1 PUSH2 0x29BB JUMP JUMPDEST SWAP1 POP JUMPDEST DUP1 SWAP2 POP POP SWAP2 SWAP1 POP JUMP JUMPDEST PUSH0 PUSH20 0x5B38DA6A701C568545DCFCB03FCB875F56BEDDC4 SWAP1 POP PUSH1 0x64 PUSH1 0x7 PUSH0 DUP3 DUP3 SLOAD PUSH2 0x16DD SWAP2 SWAP1 PUSH2 0x29BB JUMP JUMPDEST SWAP3 POP POP DUP2 SWAP1 SSTORE POP PUSH1 0x5 PUSH1 0x7 SLOAD SWAP1 DUP1 PUSH1 0x1 DUP2 SLOAD ADD DUP1 DUP3 SSTORE DUP1 SWAP2 POP POP PUSH1 0x1 SWAP1 SUB SWAP1 PUSH0 MSTORE PUSH1 0x20 PUSH0 KECCAK256 ADD PUSH0 SWAP1 SWAP2 SWAP1 SWAP2 SWAP1 SWAP2 POP SSTORE PUSH1 0x6 DUP2 SWAP1 DUP1 PUSH1 0x1 DUP2 SLOAD ADD DUP1 DUP3 SSTORE DUP1 SWAP2 POP POP PUSH1 0x1 SWAP1 SUB SWAP1 PUSH0 MSTORE PUSH1 0x20 PUSH0 KECCAK256 ADD PUSH0 SWAP1 SWAP2 SWAP1 SWAP2 SWAP1 SWAP2 PUSH2 0x100 EXP DUP2 SLOAD DUP2 PUSH20 0xFFFFFFFFFFFFFFFFFFFFFFFFFFFFFFFFFFFFFFFF MUL NOT AND SWAP1 DUP4 PUSH20 0xFFFFFFFFFFFFFFFFFFFFFFFFFFFFFFFFFFFFFFFF AND MUL OR SWAP1 SSTORE POP PUSH1 0xA PUSH0 DUP3 PUSH20 0xFFFFFFFFFFFFFFFFFFFFFFFFFFFFFFFFFFFFFFFF AND PUSH20 0xFFFFFFFFFFFFFFFFFFFFFFFFFFFFFFFFFFFFFFFF AND DUP2 MSTORE PUSH1 0x20 ADD SWAP1 DUP2 MSTORE PUSH1 0x20 ADD PUSH0 KECCAK256 PUSH0 PUSH2 0x17B2 PUSH2 0x10E2 JUMP JUMPDEST DUP2 MSTORE PUSH1 0x20 ADD SWAP1 DUP2 MSTORE PUSH1 0x20 ADD PUSH0 KECCAK256 PUSH1 0x1 PUSH1 0x5 DUP1 SLOAD SWAP1 POP PUSH2 0x17D1 SWAP2 SWAP1 PUSH2 0x29EE JUMP JUMPDEST SWAP1 DUP1 PUSH1 0x1 DUP2 SLOAD ADD DUP1 DUP3 SSTORE DUP1 SWAP2 POP POP PUSH1 0x1 SWAP1 SUB SWAP1 PUSH0 MSTORE PUSH1 0x20 PUSH0 KECCAK256 ADD PUSH0 SWAP1 SWAP2 SWAP1 SWAP2 SWAP1 SWAP2 POP SSTORE PUSH1 0x64 PUSH1 0xE PUSH0 DUP4 PUSH20 0xFFFFFFFFFFFFFFFFFFFFFFFFFFFFFFFFFFFFFFFF AND PUSH20 0xFFFFFFFFFFFFFFFFFFFFFFFFFFFFFFFFFFFFFFFF AND DUP2 MSTORE PUSH1 0x20 ADD SWAP1 DUP2 MSTORE PUSH1 0x20 ADD PUSH0 KECCAK256 PUSH0 PUSH2 0x183C PUSH2 0x10E2 JUMP JUMPDEST DUP2 MSTORE PUSH1 0x20 ADD SWAP1 DUP2 MSTORE PUSH1 0x20 ADD PUSH0 KECCAK256 PUSH0 DUP3 DUP3 SLOAD PUSH2 0x1857 SWAP2 SWAP1 PUSH2 0x29BB JUMP JUMPDEST SWAP3 POP POP DUP2 SWAP1 SSTORE POP PUSH32 0x82984AA63633B44E8D3D556AD849611E75E0FBA83227EB22F9BDAFD013039F82 DUP2 PUSH1 0x64 PUSH1 0x40 MLOAD PUSH2 0x1890 SWAP3 SWAP2 SWAP1 PUSH2 0x2F3C JUMP JUMPDEST PUSH1 0x40 MLOAD DUP1 SWAP2 SUB SWAP1 LOG1 POP JUMP JUMPDEST PUSH1 0xE PUSH1 0x20 MSTORE DUP2 PUSH0 MSTORE PUSH1 0x40 PUSH0 KECCAK256 PUSH1 0x20 MSTORE DUP1 PUSH0 MSTORE PUSH1 0x40 PUSH0 KECCAK256 PUSH0 SWAP2 POP SWAP2 POP POP SLOAD DUP2 JUMP JUMPDEST PUSH1 0x60 PUSH2 0x18D5 PUSH2 0x18C8 PUSH2 0x1C6D JUMP JUMPDEST PUSH2 0x18D0 PUSH2 0x10E2 JUMP JUMPDEST PUSH2 0x198E JUMP JUMPDEST SWAP1 POP SWAP1 JUMP JUMPDEST PUSH2 0x18E2 PUSH2 0x1E65 JUMP JUMPDEST PUSH0 PUSH20 0xFFFFFFFFFFFFFFFFFFFFFFFFFFFFFFFFFFFFFFFF AND DUP2 PUSH20 0xFFFFFFFFFFFFFFFFFFFFFFFFFFFFFFFFFFFFFFFF AND SUB PUSH2 0x1950 JUMPI PUSH1 0x40 MLOAD PUSH32 0x8C379A000000000000000000000000000000000000000000000000000000000 DUP2 MSTORE PUSH1 0x4 ADD PUSH2 0x1947 SWAP1 PUSH2 0x2FD3 JUMP JUMPDEST PUSH1 0x40 MLOAD DUP1 SWAP2 SUB SWAP1 REVERT JUMPDEST PUSH2 0x1959 DUP2 PUSH2 0x1EE3 JUMP JUMPDEST POP JUMP JUMPDEST PUSH1 0x9 PUSH1 0x20 MSTORE DUP1 PUSH0 MSTORE PUSH1 0x40 PUSH0 KECCAK256 PUSH0 SWAP2 POP SWAP1 POP DUP1 PUSH0 ADD SLOAD SWAP1 DUP1 PUSH1 0x1 ADD SLOAD SWAP1 DUP1 PUSH1 0x2 ADD SLOAD SWAP1 DUP1 PUSH1 0x3 ADD SLOAD SWAP1 DUP1 PUSH1 0x4 ADD SLOAD SWAP1 POP DUP6 JUMP JUMPDEST PUSH1 0x60 PUSH0 PUSH1 0xA PUSH0 DUP6 PUSH20 0xFFFFFFFFFFFFFFFFFFFFFFFFFFFFFFFFFFFFFFFF AND PUSH20 0xFFFFFFFFFFFFFFFFFFFFFFFFFFFFFFFFFFFFFFFF AND DUP2 MSTORE PUSH1 0x20 ADD SWAP1 DUP2 MSTORE PUSH1 0x20 ADD PUSH0 KECCAK256 PUSH0 DUP5 DUP2 MSTORE PUSH1 0x20 ADD SWAP1 DUP2 MSTORE PUSH1 0x20 ADD PUSH0 KECCAK256 DUP1 SLOAD DUP1 PUSH1 0x20 MUL PUSH1 0x20 ADD PUSH1 0x40 MLOAD SWAP1 DUP2 ADD PUSH1 0x40 MSTORE DUP1 SWAP3 SWAP2 SWAP1 DUP2 DUP2 MSTORE PUSH1 0x20 ADD DUP3 DUP1 SLOAD DUP1 ISZERO PUSH2 0x1A25 JUMPI PUSH1 0x20 MUL DUP3 ADD SWAP2 SWAP1 PUSH0 MSTORE PUSH1 0x20 PUSH0 KECCAK256 SWAP1 JUMPDEST DUP2 SLOAD DUP2 MSTORE PUSH1 0x20 ADD SWAP1 PUSH1 0x1 ADD SWAP1 DUP1 DUP4 GT PUSH2 0x1A11 JUMPI JUMPDEST POP POP POP POP POP SWAP1 POP PUSH0 PUSH1 0x9 PUSH0 DUP6 DUP2 MSTORE PUSH1 0x20 ADD SWAP1 DUP2 MSTORE PUSH1 0x20 ADD PUSH0 KECCAK256 PUSH1 0x40 MLOAD DUP1 PUSH1 0xA0 ADD PUSH1 0x40 MSTORE SWAP1 DUP2 PUSH0 DUP3 ADD SLOAD DUP2 MSTORE PUSH1 0x20 ADD PUSH1 0x1 DUP3 ADD SLOAD DUP2 MSTORE PUSH1 0x20 ADD PUSH1 0x2 DUP3 ADD SLOAD DUP2 MSTORE PUSH1 0x20 ADD PUSH1 0x3 DUP3 ADD SLOAD DUP2 MSTORE PUSH1 0x20 ADD PUSH1 0x4 DUP3 ADD SLOAD DUP2 MSTORE POP POP SWAP1 POP PUSH0 DUP2 PUSH1 0x40 ADD MLOAD SWAP1 POP PUSH0 PUSH1 0xE PUSH0 DUP9 PUSH20 0xFFFFFFFFFFFFFFFFFFFFFFFFFFFFFFFFFFFFFFFF AND PUSH20 0xFFFFFFFFFFFFFFFFFFFFFFFFFFFFFFFFFFFFFFFF AND DUP2 MSTORE PUSH1 0x20 ADD SWAP1 DUP2 MSTORE PUSH1 0x20 ADD PUSH0 KECCAK256 PUSH0 DUP8 DUP2 MSTORE PUSH1 0x20 ADD SWAP1 DUP2 MSTORE PUSH1 0x20 ADD PUSH0 KECCAK256 SLOAD PUSH8 0xFFFFFFFFFFFFFFFF DUP2 GT ISZERO PUSH2 0x1AEB JUMPI PUSH2 0x1AEA PUSH2 0x2256 JUMP JUMPDEST JUMPDEST PUSH1 0x40 MLOAD SWAP1 DUP1 DUP3 MSTORE DUP1 PUSH1 0x20 MUL PUSH1 0x20 ADD DUP3 ADD PUSH1 0x40 MSTORE DUP1 ISZERO PUSH2 0x1B19 JUMPI DUP2 PUSH1 0x20 ADD PUSH1 0x20 DUP3 MUL DUP1 CALLDATASIZE DUP4 CALLDATACOPY DUP1 DUP3 ADD SWAP2 POP POP SWAP1 POP JUMPDEST POP SWAP1 POP PUSH0 DUP3 SUB PUSH2 0x1B38 JUMPI PUSH1 0x1 PUSH1 0x5 DUP1 SLOAD SWAP1 POP PUSH2 0x1B35 SWAP2 SWAP1 PUSH2 0x29EE JUMP JUMPDEST SWAP2 POP JUMPDEST PUSH0 DUP1 JUMPDEST DUP6 MLOAD DUP2 LT ISZERO PUSH2 0x1C5E JUMPI PUSH0 PUSH1 0x5 DUP8 DUP4 DUP2 MLOAD DUP2 LT PUSH2 0x1B5A JUMPI PUSH2 0x1B59 PUSH2 0x28D3 JUMP JUMPDEST JUMPDEST PUSH1 0x20 MUL PUSH1 0x20 ADD ADD MLOAD DUP2 SLOAD DUP2 LT PUSH2 0x1B73 JUMPI PUSH2 0x1B72 PUSH2 0x28D3 JUMP JUMPDEST JUMPDEST SWAP1 PUSH0 MSTORE PUSH1 0x20 PUSH0 KECCAK256 ADD SLOAD SWAP1 POP PUSH0 DUP1 DUP9 DUP5 DUP2 MLOAD DUP2 LT PUSH2 0x1B93 JUMPI PUSH2 0x1B92 PUSH2 0x28D3 JUMP JUMPDEST JUMPDEST PUSH1 0x20 MUL PUSH1 0x20 ADD ADD MLOAD SUB PUSH2 0x1BA9 JUMPI PUSH1 0x1 SWAP1 POP PUSH2 0x1BFB JUMP JUMPDEST PUSH1 0x1 PUSH1 0x5 PUSH1 0x1 DUP11 DUP7 DUP2 MLOAD DUP2 LT PUSH2 0x1BC2 JUMPI PUSH2 0x1BC1 PUSH2 0x28D3 JUMP JUMPDEST JUMPDEST PUSH1 0x20 MUL PUSH1 0x20 ADD ADD MLOAD PUSH2 0x1BD4 SWAP2 SWAP1 PUSH2 0x29EE JUMP JUMPDEST DUP2 SLOAD DUP2 LT PUSH2 0x1BE5 JUMPI PUSH2 0x1BE4 PUSH2 0x28D3 JUMP JUMPDEST JUMPDEST SWAP1 PUSH0 MSTORE PUSH1 0x20 PUSH0 KECCAK256 ADD SLOAD PUSH2 0x1BF8 SWAP2 SWAP1 PUSH2 0x29BB JUMP JUMPDEST SWAP1 POP JUMPDEST PUSH0 DUP2 SWAP1 POP JUMPDEST DUP3 DUP2 GT PUSH2 0x1C48 JUMPI DUP1 DUP7 DUP7 DUP2 MLOAD DUP2 LT PUSH2 0x1C1B JUMPI PUSH2 0x1C1A PUSH2 0x28D3 JUMP JUMPDEST JUMPDEST PUSH1 0x20 MUL PUSH1 0x20 ADD ADD DUP2 DUP2 MSTORE POP POP DUP5 DUP1 PUSH2 0x1C32 SWAP1 PUSH2 0x2A48 JUMP JUMPDEST SWAP6 POP POP DUP1 DUP1 PUSH2 0x1C40 SWAP1 PUSH2 0x2A48 JUMP JUMPDEST SWAP2 POP POP PUSH2 0x1C00 JUMP JUMPDEST POP POP POP DUP1 DUP1 PUSH2 0x1C56 SWAP1 PUSH2 0x2A48 JUMP JUMPDEST SWAP2 POP POP PUSH2 0x1B3B JUMP JUMPDEST POP DUP2 SWAP6 POP POP POP POP POP POP SWAP3 SWAP2 POP POP JUMP JUMPDEST PUSH0 CALLER SWAP1 POP SWAP1 JUMP JUMPDEST PUSH0 DUP1 PUSH1 0xA PUSH0 DUP5 PUSH20 0xFFFFFFFFFFFFFFFFFFFFFFFFFFFFFFFFFFFFFFFF AND PUSH20 0xFFFFFFFFFFFFFFFFFFFFFFFFFFFFFFFFFFFFFFFF AND DUP2 MSTORE PUSH1 0x20 ADD SWAP1 DUP2 MSTORE PUSH1 0x20 ADD PUSH0 KECCAK256 PUSH0 PUSH2 0x1CBC PUSH2 0x10E2 JUMP JUMPDEST DUP2 MSTORE PUSH1 0x20 ADD SWAP1 DUP2 MSTORE PUSH1 0x20 ADD PUSH0 KECCAK256 DUP1 SLOAD DUP1 PUSH1 0x20 MUL PUSH1 0x20 ADD PUSH1 0x40 MLOAD SWAP1 DUP2 ADD PUSH1 0x40 MSTORE DUP1 SWAP3 SWAP2 SWAP1 DUP2 DUP2 MSTORE PUSH1 0x20 ADD DUP3 DUP1 SLOAD DUP1 ISZERO PUSH2 0x1D11 JUMPI PUSH1 0x20 MUL DUP3 ADD SWAP2 SWAP1 PUSH0 MSTORE PUSH1 0x20 PUSH0 KECCAK256 SWAP1 JUMPDEST DUP2 SLOAD DUP2 MSTORE PUSH1 0x20 ADD SWAP1 PUSH1 0x1 ADD SWAP1 DUP1 DUP4 GT PUSH2 0x1CFD JUMPI JUMPDEST POP POP POP POP POP SWAP1 POP PUSH0 PUSH2 0x1D21 PUSH2 0x13AB JUMP JUMPDEST SWAP1 POP PUSH0 DUP3 MLOAD SUB PUSH2 0x1D36 JUMPI PUSH1 0x1 SWAP3 POP POP POP PUSH2 0x1E60 JUMP JUMPDEST PUSH0 PUSH1 0xD PUSH0 DUP7 PUSH20 0xFFFFFFFFFFFFFFFFFFFFFFFFFFFFFFFFFFFFFFFF AND PUSH20 0xFFFFFFFFFFFFFFFFFFFFFFFFFFFFFFFFFFFFFFFF AND DUP2 MSTORE PUSH1 0x20 ADD SWAP1 DUP2 MSTORE PUSH1 0x20 ADD PUSH0 KECCAK256 SLOAD SWAP1 POP DUP1 DUP4 MLOAD LT PUSH2 0x1E21 JUMPI PUSH0 DUP2 SWAP1 POP JUMPDEST DUP4 MLOAD DUP2 LT ISZERO PUSH2 0x1DD0 JUMPI DUP3 PUSH1 0xB PUSH0 DUP7 DUP5 DUP2 MLOAD DUP2 LT PUSH2 0x1DA4 JUMPI PUSH2 0x1DA3 PUSH2 0x28D3 JUMP JUMPDEST JUMPDEST PUSH1 0x20 MUL PUSH1 0x20 ADD ADD MLOAD DUP2 MSTORE PUSH1 0x20 ADD SWAP1 DUP2 MSTORE PUSH1 0x20 ADD PUSH0 KECCAK256 DUP2 SWAP1 SSTORE POP DUP1 DUP1 PUSH2 0x1DC8 SWAP1 PUSH2 0x2A48 JUMP JUMPDEST SWAP2 POP POP PUSH2 0x1D84 JUMP JUMPDEST POP PUSH1 0x1 DUP4 MLOAD PUSH2 0x1DDF SWAP2 SWAP1 PUSH2 0x29BB JUMP JUMPDEST PUSH1 0xD PUSH0 DUP8 PUSH20 0xFFFFFFFFFFFFFFFFFFFFFFFFFFFFFFFFFFFFFFFF AND PUSH20 0xFFFFFFFFFFFFFFFFFFFFFFFFFFFFFFFFFFFFFFFF AND DUP2 MSTORE PUSH1 0x20 ADD SWAP1 DUP2 MSTORE PUSH1 0x20 ADD PUSH0 KECCAK256 DUP2 SWAP1 SSTORE POP JUMPDEST PUSH32 0x70F2A35E5797523ED95E6F73A8EBB18140A58C70016B3B0E7C350FB47035701B DUP6 PUSH1 0x40 MLOAD PUSH2 0x1E50 SWAP2 SWAP1 PUSH2 0x248A JUMP JUMPDEST PUSH1 0x40 MLOAD DUP1 SWAP2 SUB SWAP1 LOG1 PUSH1 0x1 SWAP4 POP POP POP POP JUMPDEST SWAP2 SWAP1 POP JUMP JUMPDEST PUSH2 0x1E6D PUSH2 0x1C6D JUMP JUMPDEST PUSH20 0xFFFFFFFFFFFFFFFFFFFFFFFFFFFFFFFFFFFFFFFF AND PUSH2 0x1E8B PUSH2 0x10EB JUMP JUMPDEST PUSH20 0xFFFFFFFFFFFFFFFFFFFFFFFFFFFFFFFFFFFFFFFF AND EQ PUSH2 0x1EE1 JUMPI PUSH1 0x40 MLOAD PUSH32 0x8C379A000000000000000000000000000000000000000000000000000000000 DUP2 MSTORE PUSH1 0x4 ADD PUSH2 0x1ED8 SWAP1 PUSH2 0x303B JUMP JUMPDEST PUSH1 0x40 MLOAD DUP1 SWAP2 SUB SWAP1 REVERT JUMPDEST JUMP JUMPDEST PUSH0 DUP1 PUSH0 SWAP1 SLOAD SWAP1 PUSH2 0x100 EXP SWAP1 DIV PUSH20 0xFFFFFFFFFFFFFFFFFFFFFFFFFFFFFFFFFFFFFFFF AND SWAP1 POP DUP2 PUSH0 DUP1 PUSH2 0x100 EXP DUP2 SLOAD DUP2 PUSH20 0xFFFFFFFFFFFFFFFFFFFFFFFFFFFFFFFFFFFFFFFF MUL NOT AND SWAP1 DUP4 PUSH20 0xFFFFFFFFFFFFFFFFFFFFFFFFFFFFFFFFFFFFFFFF AND MUL OR SWAP1 SSTORE POP DUP2 PUSH20 0xFFFFFFFFFFFFFFFFFFFFFFFFFFFFFFFFFFFFFFFF AND DUP2 PUSH20 0xFFFFFFFFFFFFFFFFFFFFFFFFFFFFFFFFFFFFFFFF AND PUSH32 0x8BE0079C531659141344CD1FD0A4F28419497F9722A3DAAFE3B4186F6B6457E0 PUSH1 0x40 MLOAD PUSH1 0x40 MLOAD DUP1 SWAP2 SUB SWAP1 LOG3 POP POP JUMP JUMPDEST PUSH0 PUSH2 0x1FE5 PUSH1 0x1 NUMBER PUSH2 0x1FB5 SWAP2 SWAP1 PUSH2 0x29EE JUMP JUMPDEST BLOCKHASH TIMESTAMP PUSH1 0x40 MLOAD PUSH1 0x20 ADD PUSH2 0x1FC8 SWAP3 SWAP2 SWAP1 PUSH2 0x3079 JUMP JUMPDEST PUSH1 0x40 MLOAD PUSH1 0x20 DUP2 DUP4 SUB SUB DUP2 MSTORE SWAP1 PUSH1 0x40 MSTORE DUP1 MLOAD SWAP1 PUSH1 0x20 ADD KECCAK256 PUSH0 SHR PUSH2 0x167A JUMP JUMPDEST SWAP1 POP SWAP1 JUMP JUMPDEST PUSH0 PUSH1 0x40 MLOAD SWAP1 POP SWAP1 JUMP JUMPDEST PUSH0 DUP1 REVERT JUMPDEST PUSH0 DUP1 REVERT JUMPDEST PUSH0 DUP2 SWAP1 POP SWAP2 SWAP1 POP JUMP JUMPDEST PUSH2 0x200D DUP2 PUSH2 0x1FFB JUMP JUMPDEST DUP2 EQ PUSH2 0x2017 JUMPI PUSH0 DUP1 REVERT JUMPDEST POP JUMP JUMPDEST PUSH0 DUP2 CALLDATALOAD SWAP1 POP PUSH2 0x2028 DUP2 PUSH2 0x2004 JUMP JUMPDEST SWAP3 SWAP2 POP POP JUMP JUMPDEST PUSH0 PUSH1 0x20 DUP3 DUP5 SUB SLT ISZERO PUSH2 0x2043 JUMPI PUSH2 0x2042 PUSH2 0x1FF3 JUMP JUMPDEST JUMPDEST PUSH0 PUSH2 0x2050 DUP5 DUP3 DUP6 ADD PUSH2 0x201A JUMP JUMPDEST SWAP2 POP POP SWAP3 SWAP2 POP POP JUMP JUMPDEST PUSH2 0x2062 DUP2 PUSH2 0x1FFB JUMP JUMPDEST DUP3 MSTORE POP POP JUMP JUMPDEST PUSH0 PUSH1 0x20 DUP3 ADD SWAP1 POP PUSH2 0x207B PUSH0 DUP4 ADD DUP5 PUSH2 0x2059 JUMP JUMPDEST SWAP3 SWAP2 POP POP JUMP JUMPDEST PUSH0 DUP2 ISZERO ISZERO SWAP1 POP SWAP2 SWAP1 POP JUMP JUMPDEST PUSH2 0x2095 DUP2 PUSH2 0x2081 JUMP JUMPDEST DUP3 MSTORE POP POP JUMP JUMPDEST PUSH0 PUSH1 0x20 DUP3 ADD SWAP1 POP PUSH2 0x20AE PUSH0 DUP4 ADD DUP5 PUSH2 0x208C JUMP JUMPDEST SWAP3 SWAP2 POP POP JUMP JUMPDEST PUSH0 DUP1 REVERT JUMPDEST PUSH0 DUP1 REVERT JUMPDEST PUSH0 DUP1 REVERT JUMPDEST PUSH0 DUP1 DUP4 PUSH1 0x1F DUP5 ADD SLT PUSH2 0x20D5 JUMPI PUSH2 0x20D4 PUSH2 0x20B4 JUMP JUMPDEST JUMPDEST DUP3 CALLDATALOAD SWAP1 POP PUSH8 0xFFFFFFFFFFFFFFFF DUP2 GT ISZERO PUSH2 0x20F2 JUMPI PUSH2 0x20F1 PUSH2 0x20B8 JUMP JUMPDEST JUMPDEST PUSH1 0x20 DUP4 ADD SWAP2 POP DUP4 PUSH1 0x20 DUP3 MUL DUP4 ADD GT ISZERO PUSH2 0x210E JUMPI PUSH2 0x210D PUSH2 0x20BC JUMP JUMPDEST JUMPDEST SWAP3 POP SWAP3 SWAP1 POP JUMP JUMPDEST PUSH0 DUP1 DUP4 PUSH1 0x1F DUP5 ADD SLT PUSH2 0x212A JUMPI PUSH2 0x2129 PUSH2 0x20B4 JUMP JUMPDEST JUMPDEST DUP3 CALLDATALOAD SWAP1 POP PUSH8 0xFFFFFFFFFFFFFFFF DUP2 GT ISZERO PUSH2 0x2147 JUMPI PUSH2 0x2146 PUSH2 0x20B8 JUMP JUMPDEST JUMPDEST PUSH1 0x20 DUP4 ADD SWAP2 POP DUP4 PUSH1 0x20 DUP3 MUL DUP4 ADD GT ISZERO PUSH2 0x2163 JUMPI PUSH2 0x2162 PUSH2 0x20BC JUMP JUMPDEST JUMPDEST SWAP3 POP SWAP3 SWAP1 POP JUMP JUMPDEST PUSH0 DUP1 PUSH0 DUP1 PUSH1 0x40 DUP6 DUP8 SUB SLT ISZERO PUSH2 0x2182 JUMPI PUSH2 0x2181 PUSH2 0x1FF3 JUMP JUMPDEST JUMPDEST PUSH0 DUP6 ADD CALLDATALOAD PUSH8 0xFFFFFFFFFFFFFFFF DUP2 GT ISZERO PUSH2 0x219F JUMPI PUSH2 0x219E PUSH2 0x1FF7 JUMP JUMPDEST JUMPDEST PUSH2 0x21AB DUP8 DUP3 DUP9 ADD PUSH2 0x20C0 JUMP JUMPDEST SWAP5 POP SWAP5 POP POP PUSH1 0x20 DUP6 ADD CALLDATALOAD PUSH8 0xFFFFFFFFFFFFFFFF DUP2 GT ISZERO PUSH2 0x21CE JUMPI PUSH2 0x21CD PUSH2 0x1FF7 JUMP JUMPDEST JUMPDEST PUSH2 0x21DA DUP8 DUP3 DUP9 ADD PUSH2 0x2115 JUMP JUMPDEST SWAP3 POP SWAP3 POP POP SWAP3 SWAP6 SWAP2 SWAP5 POP SWAP3 POP JUMP JUMPDEST PUSH0 PUSH20 0xFFFFFFFFFFFFFFFFFFFFFFFFFFFFFFFFFFFFFFFF DUP3 AND SWAP1 POP SWAP2 SWAP1 POP JUMP JUMPDEST PUSH0 PUSH2 0x2211 DUP3 PUSH2 0x21E8 JUMP JUMPDEST SWAP1 POP SWAP2 SWAP1 POP JUMP JUMPDEST PUSH2 0x2221 DUP2 PUSH2 0x2207 JUMP JUMPDEST DUP2 EQ PUSH2 0x222B JUMPI PUSH0 DUP1 REVERT JUMPDEST POP JUMP JUMPDEST PUSH0 DUP2 CALLDATALOAD SWAP1 POP PUSH2 0x223C DUP2 PUSH2 0x2218 JUMP JUMPDEST SWAP3 SWAP2 POP POP JUMP JUMPDEST PUSH0 DUP1 REVERT JUMPDEST PUSH0 PUSH1 0x1F NOT PUSH1 0x1F DUP4 ADD AND SWAP1 POP SWAP2 SWAP1 POP JUMP JUMPDEST PUSH32 0x4E487B7100000000000000000000000000000000000000000000000000000000 PUSH0 MSTORE PUSH1 0x41 PUSH1 0x4 MSTORE PUSH1 0x24 PUSH0 REVERT JUMPDEST PUSH2 0x228C DUP3 PUSH2 0x2246 JUMP JUMPDEST DUP2 ADD DUP2 DUP2 LT PUSH8 0xFFFFFFFFFFFFFFFF DUP3 GT OR ISZERO PUSH2 0x22AB JUMPI PUSH2 0x22AA PUSH2 0x2256 JUMP JUMPDEST JUMPDEST DUP1 PUSH1 0x40 MSTORE POP POP POP JUMP JUMPDEST PUSH0 PUSH2 0x22BD PUSH2 0x1FEA JUMP JUMPDEST SWAP1 POP PUSH2 0x22C9 DUP3 DUP3 PUSH2 0x2283 JUMP JUMPDEST SWAP2 SWAP1 POP JUMP JUMPDEST PUSH0 PUSH8 0xFFFFFFFFFFFFFFFF DUP3 GT ISZERO PUSH2 0x22E8 JUMPI PUSH2 0x22E7 PUSH2 0x2256 JUMP JUMPDEST JUMPDEST PUSH2 0x22F1 DUP3 PUSH2 0x2246 JUMP JUMPDEST SWAP1 POP PUSH1 0x20 DUP2 ADD SWAP1 POP SWAP2 SWAP1 POP JUMP JUMPDEST DUP3 DUP2 DUP4 CALLDATACOPY PUSH0 DUP4 DUP4 ADD MSTORE POP POP POP JUMP JUMPDEST PUSH0 PUSH2 0x231E PUSH2 0x2319 DUP5 PUSH2 0x22CE JUMP JUMPDEST PUSH2 0x22B4 JUMP JUMPDEST SWAP1 POP DUP3 DUP2 MSTORE PUSH1 0x20 DUP2 ADD DUP5 DUP5 DUP5 ADD GT ISZERO PUSH2 0x233A JUMPI PUSH2 0x2339 PUSH2 0x2242 JUMP JUMPDEST JUMPDEST PUSH2 0x2345 DUP5 DUP3 DUP6 PUSH2 0x22FE JUMP JUMPDEST POP SWAP4 SWAP3 POP POP POP JUMP JUMPDEST PUSH0 DUP3 PUSH1 0x1F DUP4 ADD SLT PUSH2 0x2361 JUMPI PUSH2 0x2360 PUSH2 0x20B4 JUMP JUMPDEST JUMPDEST DUP2 CALLDATALOAD PUSH2 0x2371 DUP5 DUP3 PUSH1 0x20 DUP7 ADD PUSH2 0x230C JUMP JUMPDEST SWAP2 POP POP SWAP3 SWAP2 POP POP JUMP JUMPDEST PUSH0 DUP1 PUSH0 DUP1 PUSH0 DUP1 PUSH1 0xC0 DUP8 DUP10 SUB SLT ISZERO PUSH2 0x2394 JUMPI PUSH2 0x2393 PUSH2 0x1FF3 JUMP JUMPDEST JUMPDEST PUSH0 PUSH2 0x23A1 DUP10 DUP3 DUP11 ADD PUSH2 0x201A JUMP JUMPDEST SWAP7 POP POP PUSH1 0x20 PUSH2 0x23B2 DUP10 DUP3 DUP11 ADD PUSH2 0x222E JUMP JUMPDEST SWAP6 POP POP PUSH1 0x40 PUSH2 0x23C3 DUP10 DUP3 DUP11 ADD PUSH2 0x222E JUMP JUMPDEST SWAP5 POP POP PUSH1 0x60 PUSH2 0x23D4 DUP10 DUP3 DUP11 ADD PUSH2 0x201A JUMP JUMPDEST SWAP4 POP POP PUSH1 0x80 PUSH2 0x23E5 DUP10 DUP3 DUP11 ADD PUSH2 0x201A JUMP JUMPDEST SWAP3 POP POP PUSH1 0xA0 DUP8 ADD CALLDATALOAD PUSH8 0xFFFFFFFFFFFFFFFF DUP2 GT ISZERO PUSH2 0x2406 JUMPI PUSH2 0x2405 PUSH2 0x1FF7 JUMP JUMPDEST JUMPDEST PUSH2 0x2412 DUP10 DUP3 DUP11 ADD PUSH2 0x234D JUMP JUMPDEST SWAP2 POP POP SWAP3 SWAP6 POP SWAP3 SWAP6 POP SWAP3 SWAP6 JUMP JUMPDEST PUSH0 DUP2 SWAP1 POP SWAP2 SWAP1 POP JUMP JUMPDEST PUSH2 0x2431 DUP2 PUSH2 0x241F JUMP JUMPDEST DUP3 MSTORE POP POP JUMP JUMPDEST PUSH0 PUSH1 0x20 DUP3 ADD SWAP1 POP PUSH2 0x244A PUSH0 DUP4 ADD DUP5 PUSH2 0x2428 JUMP JUMPDEST SWAP3 SWAP2 POP POP JUMP JUMPDEST PUSH0 PUSH1 0x20 DUP3 DUP5 SUB SLT ISZERO PUSH2 0x2465 JUMPI PUSH2 0x2464 PUSH2 0x1FF3 JUMP JUMPDEST JUMPDEST PUSH0 PUSH2 0x2472 DUP5 DUP3 DUP6 ADD PUSH2 0x222E JUMP JUMPDEST SWAP2 POP POP SWAP3 SWAP2 POP POP JUMP JUMPDEST PUSH2 0x2484 DUP2 PUSH2 0x2207 JUMP JUMPDEST DUP3 MSTORE POP POP JUMP JUMPDEST PUSH0 PUSH1 0x20 DUP3 ADD SWAP1 POP PUSH2 0x249D PUSH0 DUP4 ADD DUP5 PUSH2 0x247B JUMP JUMPDEST SWAP3 SWAP2 POP POP JUMP JUMPDEST PUSH0 PUSH1 0xFF DUP3 AND SWAP1 POP SWAP2 SWAP1 POP JUMP JUMPDEST PUSH2 0x24B8 DUP2 PUSH2 0x24A3 JUMP JUMPDEST DUP2 EQ PUSH2 0x24C2 JUMPI PUSH0 DUP1 REVERT JUMPDEST POP JUMP JUMPDEST PUSH0 DUP2 CALLDATALOAD SWAP1 POP PUSH2 0x24D3 DUP2 PUSH2 0x24AF JUMP JUMPDEST SWAP3 SWAP2 POP POP JUMP JUMPDEST PUSH2 0x24E2 DUP2 PUSH2 0x241F JUMP JUMPDEST DUP2 EQ PUSH2 0x24EC JUMPI PUSH0 DUP1 REVERT JUMPDEST POP JUMP JUMPDEST PUSH0 DUP2 CALLDATALOAD SWAP1 POP PUSH2 0x24FD DUP2 PUSH2 0x24D9 JUMP JUMPDEST SWAP3 SWAP2 POP POP JUMP JUMPDEST PUSH0 DUP1 PUSH0 DUP1 PUSH0 PUSH1 0xA0 DUP7 DUP9 SUB SLT ISZERO PUSH2 0x251C JUMPI PUSH2 0x251B PUSH2 0x1FF3 JUMP JUMPDEST JUMPDEST PUSH0 PUSH2 0x2529 DUP9 DUP3 DUP10 ADD PUSH2 0x222E JUMP JUMPDEST SWAP6 POP POP PUSH1 0x20 PUSH2 0x253A DUP9 DUP3 DUP10 ADD PUSH2 0x201A JUMP JUMPDEST SWAP5 POP POP PUSH1 0x40 PUSH2 0x254B DUP9 DUP3 DUP10 ADD PUSH2 0x24C5 JUMP JUMPDEST SWAP4 POP POP PUSH1 0x60 PUSH2 0x255C DUP9 DUP3 DUP10 ADD PUSH2 0x24EF JUMP JUMPDEST SWAP3 POP POP PUSH1 0x80 PUSH2 0x256D DUP9 DUP3 DUP10 ADD PUSH2 0x24EF JUMP JUMPDEST SWAP2 POP POP SWAP3 SWAP6 POP SWAP3 SWAP6 SWAP1 SWAP4 POP JUMP JUMPDEST PUSH0 DUP1 PUSH0 PUSH1 0x60 DUP5 DUP7 SUB SLT ISZERO PUSH2 0x2591 JUMPI PUSH2 0x2590 PUSH2 0x1FF3 JUMP JUMPDEST JUMPDEST PUSH0 PUSH2 0x259E DUP7 DUP3 DUP8 ADD PUSH2 0x222E JUMP JUMPDEST SWAP4 POP POP PUSH1 0x20 PUSH2 0x25AF DUP7 DUP3 DUP8 ADD PUSH2 0x201A JUMP JUMPDEST SWAP3 POP POP PUSH1 0x40 PUSH2 0x25C0 DUP7 DUP3 DUP8 ADD PUSH2 0x201A JUMP JUMPDEST SWAP2 POP POP SWAP3 POP SWAP3 POP SWAP3 JUMP JUMPDEST PUSH0 DUP1 PUSH0 DUP1 PUSH0 PUSH1 0xA0 DUP7 DUP9 SUB SLT ISZERO PUSH2 0x25E3 JUMPI PUSH2 0x25E2 PUSH2 0x1FF3 JUMP JUMPDEST JUMPDEST PUSH0 PUSH2 0x25F0 DUP9 DUP3 DUP10 ADD PUSH2 0x222E JUMP JUMPDEST SWAP6 POP POP PUSH1 0x20 PUSH2 0x2601 DUP9 DUP3 DUP10 ADD PUSH2 0x24EF JUMP JUMPDEST SWAP5 POP POP PUSH1 0x40 PUSH2 0x2612 DUP9 DUP3 DUP10 ADD PUSH2 0x24C5 JUMP JUMPDEST SWAP4 POP POP PUSH1 0x60 PUSH2 0x2623 DUP9 DUP3 DUP10 ADD PUSH2 0x24EF JUMP JUMPDEST SWAP3 POP POP PUSH1 0x80 PUSH2 0x2634 DUP9 DUP3 DUP10 ADD PUSH2 0x24EF JUMP JUMPDEST SWAP2 POP POP SWAP3 SWAP6 POP SWAP3 SWAP6 SWAP1 SWAP4 POP JUMP JUMPDEST PUSH0 DUP1 PUSH1 0x40 DUP4 DUP6 SUB SLT ISZERO PUSH2 0x2657 JUMPI PUSH2 0x2656 PUSH2 0x1FF3 JUMP JUMPDEST JUMPDEST PUSH0 PUSH2 0x2664 DUP6 DUP3 DUP7 ADD PUSH2 0x222E JUMP JUMPDEST SWAP3 POP POP PUSH1 0x20 PUSH2 0x2675 DUP6 DUP3 DUP7 ADD PUSH2 0x201A JUMP JUMPDEST SWAP2 POP POP SWAP3 POP SWAP3 SWAP1 POP JUMP JUMPDEST PUSH0 DUP2 MLOAD SWAP1 POP SWAP2 SWAP1 POP JUMP JUMPDEST PUSH0 DUP3 DUP3 MSTORE PUSH1 0x20 DUP3 ADD SWAP1 POP SWAP3 SWAP2 POP POP JUMP JUMPDEST PUSH0 DUP2 SWAP1 POP PUSH1 0x20 DUP3 ADD SWAP1 POP SWAP2 SWAP1 POP JUMP JUMPDEST PUSH2 0x26B1 DUP2 PUSH2 0x1FFB JUMP JUMPDEST DUP3 MSTORE POP POP JUMP JUMPDEST PUSH0 PUSH2 0x26C2 DUP4 DUP4 PUSH2 0x26A8 JUMP JUMPDEST PUSH1 0x20 DUP4 ADD SWAP1 POP SWAP3 SWAP2 POP POP JUMP JUMPDEST PUSH0 PUSH1 0x20 DUP3 ADD SWAP1 POP SWAP2 SWAP1 POP JUMP JUMPDEST PUSH0 PUSH2 0x26E4 DUP3 PUSH2 0x267F JUMP JUMPDEST PUSH2 0x26EE DUP2 DUP6 PUSH2 0x2689 JUMP JUMPDEST SWAP4 POP PUSH2 0x26F9 DUP4 PUSH2 0x2699 JUMP JUMPDEST DUP1 PUSH0 JUMPDEST DUP4 DUP2 LT ISZERO PUSH2 0x2729 JUMPI DUP2 MLOAD PUSH2 0x2710 DUP9 DUP3 PUSH2 0x26B7 JUMP JUMPDEST SWAP8 POP PUSH2 0x271B DUP4 PUSH2 0x26CE JUMP JUMPDEST SWAP3 POP POP PUSH1 0x1 DUP2 ADD SWAP1 POP PUSH2 0x26FC JUMP JUMPDEST POP DUP6 SWAP4 POP POP POP POP SWAP3 SWAP2 POP POP JUMP JUMPDEST PUSH0 PUSH1 0x20 DUP3 ADD SWAP1 POP DUP2 DUP2 SUB PUSH0 DUP4 ADD MSTORE PUSH2 0x274E DUP2 DUP5 PUSH2 0x26DA JUMP JUMPDEST SWAP1 POP SWAP3 SWAP2 POP POP JUMP JUMPDEST PUSH0 PUSH1 0xA0 DUP3 ADD SWAP1 POP PUSH2 0x2769 PUSH0 DUP4 ADD DUP9 PUSH2 0x2059 JUMP JUMPDEST PUSH2 0x2776 PUSH1 0x20 DUP4 ADD DUP8 PUSH2 0x2059 JUMP JUMPDEST PUSH2 0x2783 PUSH1 0x40 DUP4 ADD DUP7 PUSH2 0x2059 JUMP JUMPDEST PUSH2 0x2790 PUSH1 0x60 DUP4 ADD DUP6 PUSH2 0x2059 JUMP JUMPDEST PUSH2 0x279D PUSH1 0x80 DUP4 ADD DUP5 PUSH2 0x2059 JUMP JUMPDEST SWAP7 SWAP6 POP POP POP POP POP POP JUMP JUMPDEST PUSH0 DUP3 DUP3 MSTORE PUSH1 0x20 DUP3 ADD SWAP1 POP SWAP3 SWAP2 POP POP JUMP JUMPDEST PUSH32 0x4C75636B7942616C6C3A2063616C6C6572206973206E6F7420746865206F7065 PUSH0 DUP3 ADD MSTORE PUSH32 0x7261746F72206164647265737321000000000000000000000000000000000000 PUSH1 0x20 DUP3 ADD MSTORE POP JUMP JUMPDEST PUSH0 PUSH2 0x2811 PUSH1 0x2E DUP4 PUSH2 0x27A7 JUMP JUMPDEST SWAP2 POP PUSH2 0x281C DUP3 PUSH2 0x27B7 JUMP JUMPDEST PUSH1 0x40 DUP3 ADD SWAP1 POP SWAP2 SWAP1 POP JUMP JUMPDEST PUSH0 PUSH1 0x20 DUP3 ADD SWAP1 POP DUP2 DUP2 SUB PUSH0 DUP4 ADD MSTORE PUSH2 0x283E DUP2 PUSH2 0x2805 JUMP JUMPDEST SWAP1 POP SWAP2 SWAP1 POP JUMP JUMPDEST PUSH32 0x4C75636B42616C6C3A206164647265737320616E642071747920636F756E7473 PUSH0 DUP3 ADD MSTORE PUSH32 0x20646F206E6F74206D6174636800000000000000000000000000000000000000 PUSH1 0x20 DUP3 ADD MSTORE POP JUMP JUMPDEST PUSH0 PUSH2 0x289F PUSH1 0x2D DUP4 PUSH2 0x27A7 JUMP JUMPDEST SWAP2 POP PUSH2 0x28AA DUP3 PUSH2 0x2845 JUMP JUMPDEST PUSH1 0x40 DUP3 ADD SWAP1 POP SWAP2 SWAP1 POP JUMP JUMPDEST PUSH0 PUSH1 0x20 DUP3 ADD SWAP1 POP DUP2 DUP2 SUB PUSH0 DUP4 ADD MSTORE PUSH2 0x28CC DUP2 PUSH2 0x2893 JUMP JUMPDEST SWAP1 POP SWAP2 SWAP1 POP JUMP JUMPDEST PUSH32 0x4E487B7100000000000000000000000000000000000000000000000000000000 PUSH0 MSTORE PUSH1 0x32 PUSH1 0x4 MSTORE PUSH1 0x24 PUSH0 REVERT JUMPDEST PUSH32 0x4C75636B42616C6C3A207174792073686F756C64206265206269676765722074 PUSH0 DUP3 ADD MSTORE PUSH32 0x68616E2030000000000000000000000000000000000000000000000000000000 PUSH1 0x20 DUP3 ADD MSTORE POP JUMP JUMPDEST PUSH0 PUSH2 0x295A PUSH1 0x25 DUP4 PUSH2 0x27A7 JUMP JUMPDEST SWAP2 POP PUSH2 0x2965 DUP3 PUSH2 0x2900 JUMP JUMPDEST PUSH1 0x40 DUP3 ADD SWAP1 POP SWAP2 SWAP1 POP JUMP JUMPDEST PUSH0 PUSH1 0x20 DUP3 ADD SWAP1 POP DUP2 DUP2 SUB PUSH0 DUP4 ADD MSTORE PUSH2 0x2987 DUP2 PUSH2 0x294E JUMP JUMPDEST SWAP1 POP SWAP2 SWAP1 POP JUMP JUMPDEST PUSH32 0x4E487B7100000000000000000000000000000000000000000000000000000000 PUSH0 MSTORE PUSH1 0x11 PUSH1 0x4 MSTORE PUSH1 0x24 PUSH0 REVERT JUMPDEST PUSH0 PUSH2 0x29C5 DUP3 PUSH2 0x1FFB JUMP JUMPDEST SWAP2 POP PUSH2 0x29D0 DUP4 PUSH2 0x1FFB JUMP JUMPDEST SWAP3 POP DUP3 DUP3 ADD SWAP1 POP DUP1 DUP3 GT ISZERO PUSH2 0x29E8 JUMPI PUSH2 0x29E7 PUSH2 0x298E JUMP JUMPDEST JUMPDEST SWAP3 SWAP2 POP POP JUMP JUMPDEST PUSH0 PUSH2 0x29F8 DUP3 PUSH2 0x1FFB JUMP JUMPDEST SWAP2 POP PUSH2 0x2A03 DUP4 PUSH2 0x1FFB JUMP JUMPDEST SWAP3 POP DUP3 DUP3 SUB SWAP1 POP DUP2 DUP2 GT ISZERO PUSH2 0x2A1B JUMPI PUSH2 0x2A1A PUSH2 0x298E JUMP JUMPDEST JUMPDEST SWAP3 SWAP2 POP POP JUMP JUMPDEST PUSH0 PUSH1 0x40 DUP3 ADD SWAP1 POP PUSH2 0x2A34 PUSH0 DUP4 ADD DUP6 PUSH2 0x247B JUMP JUMPDEST PUSH2 0x2A41 PUSH1 0x20 DUP4 ADD DUP5 PUSH2 0x2059 JUMP JUMPDEST SWAP4 SWAP3 POP POP POP JUMP JUMPDEST PUSH0 PUSH2 0x2A52 DUP3 PUSH2 0x1FFB JUMP JUMPDEST SWAP2 POP PUSH32 0xFFFFFFFFFFFFFFFFFFFFFFFFFFFFFFFFFFFFFFFFFFFFFFFFFFFFFFFFFFFFFFFF DUP3 SUB PUSH2 0x2A84 JUMPI PUSH2 0x2A83 PUSH2 0x298E JUMP JUMPDEST JUMPDEST PUSH1 0x1 DUP3 ADD SWAP1 POP SWAP2 SWAP1 POP JUMP JUMPDEST PUSH0 DUP2 SWAP1 POP SWAP2 SWAP1 POP JUMP JUMPDEST PUSH2 0x2AA9 PUSH2 0x2AA4 DUP3 PUSH2 0x1FFB JUMP JUMPDEST PUSH2 0x2A8F JUMP JUMPDEST DUP3 MSTORE POP POP JUMP JUMPDEST PUSH0 DUP2 PUSH1 0x60 SHL SWAP1 POP SWAP2 SWAP1 POP JUMP JUMPDEST PUSH0 PUSH2 0x2AC5 DUP3 PUSH2 0x2AAF JUMP JUMPDEST SWAP1 POP SWAP2 SWAP1 POP JUMP JUMPDEST PUSH0 PUSH2 0x2AD6 DUP3 PUSH2 0x2ABB JUMP JUMPDEST SWAP1 POP SWAP2 SWAP1 POP JUMP JUMPDEST PUSH2 0x2AEE PUSH2 0x2AE9 DUP3 PUSH2 0x2207 JUMP JUMPDEST PUSH2 0x2ACC JUMP JUMPDEST DUP3 MSTORE POP POP JUMP JUMPDEST PUSH0 DUP2 MLOAD SWAP1 POP SWAP2 SWAP1 POP JUMP JUMPDEST PUSH0 DUP2 SWAP1 POP SWAP3 SWAP2 POP POP JUMP JUMPDEST PUSH0 JUMPDEST DUP4 DUP2 LT ISZERO PUSH2 0x2B25 JUMPI DUP1 DUP3 ADD MLOAD DUP2 DUP5 ADD MSTORE PUSH1 0x20 DUP2 ADD SWAP1 POP PUSH2 0x2B0A JUMP JUMPDEST PUSH0 DUP5 DUP5 ADD MSTORE POP POP POP POP JUMP JUMPDEST PUSH0 PUSH2 0x2B3A DUP3 PUSH2 0x2AF4 JUMP JUMPDEST PUSH2 0x2B44 DUP2 DUP6 PUSH2 0x2AFE JUMP JUMPDEST SWAP4 POP PUSH2 0x2B54 DUP2 DUP6 PUSH1 0x20 DUP7 ADD PUSH2 0x2B08 JUMP JUMPDEST DUP1 DUP5 ADD SWAP2 POP POP SWAP3 SWAP2 POP POP JUMP JUMPDEST PUSH0 PUSH2 0x2B6B DUP3 DUP10 PUSH2 0x2A98 JUMP JUMPDEST PUSH1 0x20 DUP3 ADD SWAP2 POP PUSH2 0x2B7B DUP3 DUP9 PUSH2 0x2ADD JUMP JUMPDEST PUSH1 0x14 DUP3 ADD SWAP2 POP PUSH2 0x2B8B DUP3 DUP8 PUSH2 0x2ADD JUMP JUMPDEST PUSH1 0x14 DUP3 ADD SWAP2 POP PUSH2 0x2B9B DUP3 DUP7 PUSH2 0x2A98 JUMP JUMPDEST PUSH1 0x20 DUP3 ADD SWAP2 POP PUSH2 0x2BAB DUP3 DUP6 PUSH2 0x2A98 JUMP JUMPDEST PUSH1 0x20 DUP3 ADD SWAP2 POP PUSH2 0x2BBB DUP3 DUP5 PUSH2 0x2B30 JUMP JUMPDEST SWAP2 POP DUP2 SWAP1 POP SWAP8 SWAP7 POP POP POP POP POP POP POP JUMP JUMPDEST PUSH32 0x4C75636B7942616C6C3A206578706972656420646561646C696E650000000000 PUSH0 DUP3 ADD MSTORE POP JUMP JUMPDEST PUSH0 PUSH2 0x2BFF PUSH1 0x1B DUP4 PUSH2 0x27A7 JUMP JUMPDEST SWAP2 POP PUSH2 0x2C0A DUP3 PUSH2 0x2BCB JUMP JUMPDEST PUSH1 0x20 DUP3 ADD SWAP1 POP SWAP2 SWAP1 POP JUMP JUMPDEST PUSH0 PUSH1 0x20 DUP3 ADD SWAP1 POP DUP2 DUP2 SUB PUSH0 DUP4 ADD MSTORE PUSH2 0x2C2C DUP2 PUSH2 0x2BF3 JUMP JUMPDEST SWAP1 POP SWAP2 SWAP1 POP JUMP JUMPDEST PUSH32 0x4C75636B7942616C6C3A2073696720646F6573206E6F74206D61746368000000 PUSH0 DUP3 ADD MSTORE POP JUMP JUMPDEST PUSH0 PUSH2 0x2C67 PUSH1 0x1D DUP4 PUSH2 0x27A7 JUMP JUMPDEST SWAP2 POP PUSH2 0x2C72 DUP3 PUSH2 0x2C33 JUMP JUMPDEST PUSH1 0x20 DUP3 ADD SWAP1 POP SWAP2 SWAP1 POP JUMP JUMPDEST PUSH0 PUSH1 0x20 DUP3 ADD SWAP1 POP DUP2 DUP2 SUB PUSH0 DUP4 ADD MSTORE PUSH2 0x2C94 DUP2 PUSH2 0x2C5B JUMP JUMPDEST SWAP1 POP SWAP2 SWAP1 POP JUMP JUMPDEST PUSH2 0x2CA4 DUP2 PUSH2 0x24A3 JUMP JUMPDEST DUP3 MSTORE POP POP JUMP JUMPDEST PUSH0 PUSH1 0x80 DUP3 ADD SWAP1 POP PUSH2 0x2CBD PUSH0 DUP4 ADD DUP8 PUSH2 0x2428 JUMP JUMPDEST PUSH2 0x2CCA PUSH1 0x20 DUP4 ADD DUP7 PUSH2 0x2C9B JUMP JUMPDEST PUSH2 0x2CD7 PUSH1 0x40 DUP4 ADD DUP6 PUSH2 0x2428 JUMP JUMPDEST PUSH2 0x2CE4 PUSH1 0x60 DUP4 ADD DUP5 PUSH2 0x2428 JUMP JUMPDEST SWAP6 SWAP5 POP POP POP POP POP JUMP JUMPDEST PUSH0 PUSH2 0x2CF8 DUP3 DUP6 PUSH2 0x2A98 JUMP JUMPDEST PUSH1 0x20 DUP3 ADD SWAP2 POP PUSH2 0x2D08 DUP3 DUP5 PUSH2 0x2A98 JUMP JUMPDEST PUSH1 0x20 DUP3 ADD SWAP2 POP DUP2 SWAP1 POP SWAP4 SWAP3 POP POP POP JUMP JUMPDEST PUSH32 0x4C75636B7942616C6C3A2062616C6C4964206973206F7574206F662072616E67 PUSH0 DUP3 ADD MSTORE PUSH32 0x6500000000000000000000000000000000000000000000000000000000000000 PUSH1 0x20 DUP3 ADD MSTORE POP JUMP JUMPDEST PUSH0 PUSH2 0x2D72 PUSH1 0x21 DUP4 PUSH2 0x27A7 JUMP JUMPDEST SWAP2 POP PUSH2 0x2D7D DUP3 PUSH2 0x2D18 JUMP JUMPDEST PUSH1 0x40 DUP3 ADD SWAP1 POP SWAP2 SWAP1 POP JUMP JUMPDEST PUSH0 PUSH1 0x20 DUP3 ADD SWAP1 POP DUP2 DUP2 SUB PUSH0 DUP4 ADD MSTORE PUSH2 0x2D9F DUP2 PUSH2 0x2D66 JUMP JUMPDEST SWAP1 POP SWAP2 SWAP1 POP JUMP JUMPDEST PUSH32 0x4C75636B42616C6C3A204E6F2062616C6C206973737565640000000000000000 PUSH0 DUP3 ADD MSTORE POP JUMP JUMPDEST PUSH0 PUSH2 0x2DDA PUSH1 0x18 DUP4 PUSH2 0x27A7 JUMP JUMPDEST SWAP2 POP PUSH2 0x2DE5 DUP3 PUSH2 0x2DA6 JUMP JUMPDEST PUSH1 0x20 DUP3 ADD SWAP1 POP SWAP2 SWAP1 POP JUMP JUMPDEST PUSH0 PUSH1 0x20 DUP3 ADD SWAP1 POP DUP2 DUP2 SUB PUSH0 DUP4 ADD MSTORE PUSH2 0x2E07 DUP2 PUSH2 0x2DCE JUMP JUMPDEST SWAP1 POP SWAP2 SWAP1 POP JUMP JUMPDEST PUSH0 PUSH2 0x2E18 DUP3 PUSH2 0x1FFB JUMP JUMPDEST SWAP2 POP PUSH0 DUP3 SUB PUSH2 0x2E2A JUMPI PUSH2 0x2E29 PUSH2 0x298E JUMP JUMPDEST JUMPDEST PUSH1 0x1 DUP3 SUB SWAP1 POP SWAP2 SWAP1 POP JUMP JUMPDEST PUSH32 0x42616C6C4964206973206E6F7420666F756E6400000000000000000000000000 PUSH0 DUP3 ADD MSTORE POP JUMP JUMPDEST PUSH0 PUSH2 0x2E69 PUSH1 0x13 DUP4 PUSH2 0x27A7 JUMP JUMPDEST SWAP2 POP PUSH2 0x2E74 DUP3 PUSH2 0x2E35 JUMP JUMPDEST PUSH1 0x20 DUP3 ADD SWAP1 POP SWAP2 SWAP1 POP JUMP JUMPDEST PUSH0 PUSH1 0x20 DUP3 ADD SWAP1 POP DUP2 DUP2 SUB PUSH0 DUP4 ADD MSTORE PUSH2 0x2E96 DUP2 PUSH2 0x2E5D JUMP JUMPDEST SWAP1 POP SWAP2 SWAP1 POP JUMP JUMPDEST PUSH32 0x4E487B7100000000000000000000000000000000000000000000000000000000 PUSH0 MSTORE PUSH1 0x12 PUSH1 0x4 MSTORE PUSH1 0x24 PUSH0 REVERT JUMPDEST PUSH0 PUSH2 0x2ED4 DUP3 PUSH2 0x1FFB JUMP JUMPDEST SWAP2 POP PUSH2 0x2EDF DUP4 PUSH2 0x1FFB JUMP JUMPDEST SWAP3 POP DUP3 PUSH2 0x2EEF JUMPI PUSH2 0x2EEE PUSH2 0x2E9D JUMP JUMPDEST JUMPDEST DUP3 DUP3 MOD SWAP1 POP SWAP3 SWAP2 POP POP JUMP JUMPDEST PUSH0 DUP2 SWAP1 POP SWAP2 SWAP1 POP JUMP JUMPDEST PUSH0 DUP2 SWAP1 POP SWAP2 SWAP1 POP JUMP JUMPDEST PUSH0 PUSH2 0x2F26 PUSH2 0x2F21 PUSH2 0x2F1C DUP5 PUSH2 0x2EFA JUMP JUMPDEST PUSH2 0x2F03 JUMP JUMPDEST PUSH2 0x1FFB JUMP JUMPDEST SWAP1 POP SWAP2 SWAP1 POP JUMP JUMPDEST PUSH2 0x2F36 DUP2 PUSH2 0x2F0C JUMP JUMPDEST DUP3 MSTORE POP POP JUMP JUMPDEST PUSH0 PUSH1 0x40 DUP3 ADD SWAP1 POP PUSH2 0x2F4F PUSH0 DUP4 ADD DUP6 PUSH2 0x247B JUMP JUMPDEST PUSH2 0x2F5C PUSH1 0x20 DUP4 ADD DUP5 PUSH2 0x2F2D JUMP JUMPDEST SWAP4 SWAP3 POP POP POP JUMP JUMPDEST PUSH32 0x4F776E61626C653A206E6577206F776E657220697320746865207A65726F2061 PUSH0 DUP3 ADD MSTORE PUSH32 0x6464726573730000000000000000000000000000000000000000000000000000 PUSH1 0x20 DUP3 ADD MSTORE POP JUMP JUMPDEST PUSH0 PUSH2 0x2FBD PUSH1 0x26 DUP4 PUSH2 0x27A7 JUMP JUMPDEST SWAP2 POP PUSH2 0x2FC8 DUP3 PUSH2 0x2F63 JUMP JUMPDEST PUSH1 0x40 DUP3 ADD SWAP1 POP SWAP2 SWAP1 POP JUMP JUMPDEST PUSH0 PUSH1 0x20 DUP3 ADD SWAP1 POP DUP2 DUP2 SUB PUSH0 DUP4 ADD MSTORE PUSH2 0x2FEA DUP2 PUSH2 0x2FB1 JUMP JUMPDEST SWAP1 POP SWAP2 SWAP1 POP JUMP JUMPDEST PUSH32 0x4F776E61626C653A2063616C6C6572206973206E6F7420746865206F776E6572 PUSH0 DUP3 ADD MSTORE POP JUMP JUMPDEST PUSH0 PUSH2 0x3025 PUSH1 0x20 DUP4 PUSH2 0x27A7 JUMP JUMPDEST SWAP2 POP PUSH2 0x3030 DUP3 PUSH2 0x2FF1 JUMP JUMPDEST PUSH1 0x20 DUP3 ADD SWAP1 POP SWAP2 SWAP1 POP JUMP JUMPDEST PUSH0 PUSH1 0x20 DUP3 ADD SWAP1 POP DUP2 DUP2 SUB PUSH0 DUP4 ADD MSTORE PUSH2 0x3052 DUP2 PUSH2 0x3019 JUMP JUMPDEST SWAP1 POP SWAP2 SWAP1 POP JUMP JUMPDEST PUSH0 DUP2 SWAP1 POP SWAP2 SWAP1 POP JUMP JUMPDEST PUSH2 0x3073 PUSH2 0x306E DUP3 PUSH2 0x241F JUMP JUMPDEST PUSH2 0x3059 JUMP JUMPDEST DUP3 MSTORE POP POP JUMP JUMPDEST PUSH0 PUSH2 0x3084 DUP3 DUP6 PUSH2 0x3062 JUMP JUMPDEST PUSH1 0x20 DUP3 ADD SWAP2 POP PUSH2 0x3094 DUP3 DUP5 PUSH2 0x2A98 JUMP JUMPDEST PUSH1 0x20 DUP3 ADD SWAP2 POP DUP2 SWAP1 POP SWAP4 SWAP3 POP POP POP JUMP INVALID LOG2 PUSH5 0x6970667358 0x22 SLT KECCAK256 EXTCODEHASH SAR INVALID PUSH32 0x1DBDC6A74149FB314D3F5DD17DA7EB230837135AD33F4A6CF92F5CCB64736F6C PUSH4 0x43000814 STOP CALLER "
				},
				"gasEstimates": {
					"creation": {
						"codeDepositCost": "2501200",
						"executionCost": "infinite",
						"totalCost": "infinite"
					},
					"external": {
						"addrGroups(uint256)": "4990",
						"ballCount()": "2493",
						"ballGroups(uint256)": "infinite",
						"endSeason()": "infinite",
						"extractCode(uint256)": "infinite",
						"getBallCode(uint256)": "infinite",
						"getBallGroupPos(uint256)": "infinite",
						"getBalls()": "infinite",
						"getBalls(address,uint256)": "infinite",
						"getChainId()": "478",
						"getCurrentBallGroupPos()": "2509",
						"getCurrentRevealGroupId()": "2544",
						"getCurrentSeasionId()": "2521",
						"getHash(uint256,address,address,uint256,uint256,string)": "infinite",
						"getRevealGroup(uint256)": "infinite",
						"isActive()": "2585",
						"isSeansonActive()": "4781",
						"issueBalls(address[],uint256[])": "infinite",
						"issueTest()": "infinite",
						"newRevealPos(address)": "2914",
						"nonces(address)": "2874",
						"owner()": "2626",
						"ownerOf(uint256)": "infinite",
						"relayRequestReveal(address,uint256,uint8,bytes32,bytes32)": "infinite",
						"renounceOwnership()": "30524",
						"requestReveal()": "infinite",
						"requestWinningBallId()": "471",
						"revealGroupSeeds(uint256)": "infinite",
						"revealGroups(uint256)": "infinite",
						"seasons(uint256)": "infinite",
						"setOperator(address)": "27285",
						"setRevealGroupSeed(uint256)": "infinite",
						"setWinningBallId(uint256)": "27222",
						"startSeason()": "infinite",
						"transferOwnership(address)": "30819",
						"userBallCounts(address,uint256)": "infinite",
						"userBallGroups(address,uint256,uint256)": "infinite",
						"verifySig(address,bytes32,uint8,bytes32,bytes32)": "infinite"
					},
					"internal": {
						"_requestReveal(address)": "infinite",
						"generateWinningCode()": "infinite"
					}
				},
				"methodIdentifiers": {
					"addrGroups(uint256)": "3822aea4",
					"ballCount()": "9ceaddc9",
					"ballGroups(uint256)": "b20aaaf5",
					"endSeason()": "3dcdb672",
					"extractCode(uint256)": "d6c38c7f",
					"getBallCode(uint256)": "c6b98e04",
					"getBallGroupPos(uint256)": "d530f1b4",
					"getBalls()": "df6fba1d",
					"getBalls(address,uint256)": "fe675307",
					"getChainId()": "3408e470",
					"getCurrentBallGroupPos()": "0841ba30",
					"getCurrentRevealGroupId()": "9d3db7db",
					"getCurrentSeasionId()": "8c73da19",
					"getHash(uint256,address,address,uint256,uint256,string)": "1345774e",
					"getRevealGroup(uint256)": "d3ba6f34",
					"isActive()": "22f3e2d4",
					"isSeansonActive()": "0e75a71f",
					"issueBalls(address[],uint256[])": "1022889c",
					"issueTest()": "d8601c0f",
					"newRevealPos(address)": "2ffb84dd",
					"nonces(address)": "7ecebe00",
					"owner()": "8da5cb5b",
					"ownerOf(uint256)": "6352211e",
					"relayRequestReveal(address,uint256,uint8,bytes32,bytes32)": "5f4f79bb",
					"renounceOwnership()": "715018a6",
					"requestReveal()": "b07870b5",
					"requestWinningBallId()": "c419857f",
					"revealGroupSeeds(uint256)": "b29e60ef",
					"revealGroups(uint256)": "04b1b2c2",
					"seasons(uint256)": "f5d709a1",
					"setOperator(address)": "b3ab15fb",
					"setRevealGroupSeed(uint256)": "9d3b6d97",
					"setWinningBallId(uint256)": "2e0ec88f",
					"startSeason()": "952a9633",
					"transferOwnership(address)": "f2fde38b",
					"userBallCounts(address,uint256)": "df6c8333",
					"userBallGroups(address,uint256,uint256)": "8504a01a",
					"verifySig(address,bytes32,uint8,bytes32,bytes32)": "990366d4"
				}
			},
			"storageLayout": {
				"storage": [
					{
						"astId": 7,
						"contract": "LuckyBall.sol:LuckyBall",
						"label": "_owner",
						"offset": 0,
						"slot": "0",
						"type": "t_address"
					},
					{
						"astId": 141,
						"contract": "LuckyBall.sol:LuckyBall",
						"label": "_ballIds",
						"offset": 0,
						"slot": "1",
						"type": "t_uint256"
					},
					{
						"astId": 143,
						"contract": "LuckyBall.sol:LuckyBall",
						"label": "_seasonIds",
						"offset": 0,
						"slot": "2",
						"type": "t_uint256"
					},
					{
						"astId": 145,
						"contract": "LuckyBall.sol:LuckyBall",
						"label": "_revealGroupIds",
						"offset": 0,
						"slot": "3",
						"type": "t_uint256"
					},
					{
						"astId": 147,
						"contract": "LuckyBall.sol:LuckyBall",
						"label": "_operator",
						"offset": 0,
						"slot": "4",
						"type": "t_address"
					},
					{
						"astId": 150,
						"contract": "LuckyBall.sol:LuckyBall",
						"label": "isActive",
						"offset": 20,
						"slot": "4",
						"type": "t_bool"
					},
					{
						"astId": 153,
						"contract": "LuckyBall.sol:LuckyBall",
						"label": "ballGroups",
						"offset": 0,
						"slot": "5",
						"type": "t_array(t_uint256)dyn_storage"
					},
					{
						"astId": 156,
						"contract": "LuckyBall.sol:LuckyBall",
						"label": "addrGroups",
						"offset": 0,
						"slot": "6",
						"type": "t_array(t_address)dyn_storage"
					},
					{
						"astId": 159,
						"contract": "LuckyBall.sol:LuckyBall",
						"label": "ballCount",
						"offset": 0,
						"slot": "7",
						"type": "t_uint256"
					},
					{
						"astId": 174,
						"contract": "LuckyBall.sol:LuckyBall",
						"label": "_nonces",
						"offset": 0,
						"slot": "8",
						"type": "t_mapping(t_address,t_uint256)"
					},
					{
						"astId": 179,
						"contract": "LuckyBall.sol:LuckyBall",
						"label": "seasons",
						"offset": 0,
						"slot": "9",
						"type": "t_mapping(t_uint256,t_struct(Season)170_storage)"
					},
					{
						"astId": 186,
						"contract": "LuckyBall.sol:LuckyBall",
						"label": "userBallGroups",
						"offset": 0,
						"slot": "10",
						"type": "t_mapping(t_address,t_mapping(t_uint256,t_array(t_uint256)dyn_storage))"
					},
					{
						"astId": 190,
						"contract": "LuckyBall.sol:LuckyBall",
						"label": "revealGroups",
						"offset": 0,
						"slot": "11",
						"type": "t_mapping(t_uint256,t_uint256)"
					},
					{
						"astId": 194,
						"contract": "LuckyBall.sol:LuckyBall",
						"label": "revealGroupSeeds",
						"offset": 0,
						"slot": "12",
						"type": "t_mapping(t_uint256,t_uint256)"
					},
					{
						"astId": 198,
						"contract": "LuckyBall.sol:LuckyBall",
						"label": "newRevealPos",
						"offset": 0,
						"slot": "13",
						"type": "t_mapping(t_address,t_uint256)"
					},
					{
						"astId": 204,
						"contract": "LuckyBall.sol:LuckyBall",
						"label": "userBallCounts",
						"offset": 0,
						"slot": "14",
						"type": "t_mapping(t_address,t_mapping(t_uint256,t_uint256))"
					}
				],
				"types": {
					"t_address": {
						"encoding": "inplace",
						"label": "address",
						"numberOfBytes": "20"
					},
					"t_array(t_address)dyn_storage": {
						"base": "t_address",
						"encoding": "dynamic_array",
						"label": "address[]",
						"numberOfBytes": "32"
					},
					"t_array(t_uint256)dyn_storage": {
						"base": "t_uint256",
						"encoding": "dynamic_array",
						"label": "uint256[]",
						"numberOfBytes": "32"
					},
					"t_bool": {
						"encoding": "inplace",
						"label": "bool",
						"numberOfBytes": "1"
					},
					"t_mapping(t_address,t_mapping(t_uint256,t_array(t_uint256)dyn_storage))": {
						"encoding": "mapping",
						"key": "t_address",
						"label": "mapping(address => mapping(uint256 => uint256[]))",
						"numberOfBytes": "32",
						"value": "t_mapping(t_uint256,t_array(t_uint256)dyn_storage)"
					},
					"t_mapping(t_address,t_mapping(t_uint256,t_uint256))": {
						"encoding": "mapping",
						"key": "t_address",
						"label": "mapping(address => mapping(uint256 => uint256))",
						"numberOfBytes": "32",
						"value": "t_mapping(t_uint256,t_uint256)"
					},
					"t_mapping(t_address,t_uint256)": {
						"encoding": "mapping",
						"key": "t_address",
						"label": "mapping(address => uint256)",
						"numberOfBytes": "32",
						"value": "t_uint256"
					},
					"t_mapping(t_uint256,t_array(t_uint256)dyn_storage)": {
						"encoding": "mapping",
						"key": "t_uint256",
						"label": "mapping(uint256 => uint256[])",
						"numberOfBytes": "32",
						"value": "t_array(t_uint256)dyn_storage"
					},
					"t_mapping(t_uint256,t_struct(Season)170_storage)": {
						"encoding": "mapping",
						"key": "t_uint256",
						"label": "mapping(uint256 => struct LuckyBall.Season)",
						"numberOfBytes": "32",
						"value": "t_struct(Season)170_storage"
					},
					"t_mapping(t_uint256,t_uint256)": {
						"encoding": "mapping",
						"key": "t_uint256",
						"label": "mapping(uint256 => uint256)",
						"numberOfBytes": "32",
						"value": "t_uint256"
					},
					"t_struct(Season)170_storage": {
						"encoding": "inplace",
						"label": "struct LuckyBall.Season",
						"members": [
							{
								"astId": 161,
								"contract": "LuckyBall.sol:LuckyBall",
								"label": "seasonId",
								"offset": 0,
								"slot": "0",
								"type": "t_uint256"
							},
							{
								"astId": 163,
								"contract": "LuckyBall.sol:LuckyBall",
								"label": "startBallGroupPos",
								"offset": 0,
								"slot": "1",
								"type": "t_uint256"
							},
							{
								"astId": 165,
								"contract": "LuckyBall.sol:LuckyBall",
								"label": "endBallGroupPos",
								"offset": 0,
								"slot": "2",
								"type": "t_uint256"
							},
							{
								"astId": 167,
								"contract": "LuckyBall.sol:LuckyBall",
								"label": "winningBallId",
								"offset": 0,
								"slot": "3",
								"type": "t_uint256"
							},
							{
								"astId": 169,
								"contract": "LuckyBall.sol:LuckyBall",
								"label": "winningCode",
								"offset": 0,
								"slot": "4",
								"type": "t_uint256"
							}
						],
						"numberOfBytes": "160"
					},
					"t_uint256": {
						"encoding": "inplace",
						"label": "uint256",
						"numberOfBytes": "32"
					}
				}
			},
			"userdoc": {
				"kind": "user",
				"methods": {},
				"version": 1
			}
		}
	}
}